:1000000016C2000041C200003FC200003DC2000015
:100010003BC2000039C2000037C2000035C20000F8
:1000200033C2000031C200002FC200002DC2000008
:100030002BC2000029C2000027C2000025C2000018
:1000400023C2000021C200001FC200001DC2000028
:100050001BC2000019C2000017C200000C945E1DF4
:1000600013C200000C94511F0C9495200DC2000087
:100070000BC2000009C2000007C2000005C2000058
:1000800003C2000001C20000FFC10000FDC100006A
:100090000C94911F0C94D420F7C10000F5C100000E
:1000A000F3C10000F1C10000EFC10000EDC100008C
:1000B000EBC10000E9C10000E7C10000E5C100009C
:1000C000E3C10000E1C10000DFC100000C94D11FBA
:1000D0000C941321D9C100000C9411200C945221CE
:1000E000D3C10000FF0000008B0000008B00000067
:1000F0008B0000008B0000008B0000008B000000D4
:100100008B000000FF0000008B000000EBCE87009A
:10011000EBCE8700E6D8AD00FFFFFF00E6D8AD00CC
:10012000EBCE87000000000000008000000000000F
:100130000000800000008B000000800000008B00A9
:1001400000008B0000008B000000FF0000A5FF00F6
:10015000FFFFFF0000A5FF000000FF0000008B0074
:1001600000000000701919008B00000070191900C0
:10017000800000008B000000CD000000578B2E0097
:1001800080800000A09E5F00FF0000008B8B0000BD
:10019000ED956400D4FF7F00578B2E00FFFF000019
:1001A000FACE870000640000006400002F6B550049
:1001B0000064000000800000228B2200238E6B0070
:1001C00000800000578B2E00AACD660032CD320091
:1001D00032CD9A0090EE900000FC7C00AACD660023
:1001E000228B22000000FF00002AD5000055AB0042
:1001F000007FAB0000ABAB0000D5560000FF000055
:100200002AD5000055AB0000AA560000FF000000F0
:10021000D5002A00AB00550081007F005500AB00DF
:100220002B00D5000000FF00000000000055AB00CF
:100230000000000000ABAB000000000000FF000069
:100240000000000055AB000000000000FF000000AF
:1002500000000000AB005500000000005500AB009E
:1002600000000000AB0055007C0084004B00B5008E
:100270001B00E5000017E8000047B8000077AB005E
:1002800000ABAB000055AB000022DD000E00F20019
:100290003E00C20071008F00A1005F00D0002F005F
:1002A000F9070000000000000000330000006600B5
:1002B000000099000000CC000000FF000033FF00A8
:1002C0000066FF000099FF0000CCFF0000FFFF0068
:1002D00033FFFF0066FFFF0099FFFF00CCFFFF0028
:1002E000FFFFFF0000FF000020AB550040ABAB005C
:1002F0006000FF008000AB55A00000FFC05500ABC0
:10030000E0AB0055FFFF00000000210024002700A3
:100310002A002D0030003300010100000401070114
:100320000A0100002200250028002B002E003100C9
:10033000340002010000050108010B01000020004B
:100340002300260029002C002F00320000010000AD
:100350000301060109010505050507050808080848
:10036000020202020A0A080804040404010101014D
:100370000101010103030303030303030407070748
:100380000C0C0C0C0C0C0C0C0202020206060606ED
:10039000060606060B0B0B0B0B0B0B0B01021020BA
:1003A00020080810204010204080020102010804AB
:1003B000020101020408102040808040201008043F
:1003C0000201800402018040201008040201080498
:1003D00002010102040810204080010204081020DC
:1003E00040800000090A02080B0C0D0706030401F7
:1003F00000000000000000000000000000000000FD
:1004000000000000000000000000000000001110CB
:100410000F000000000000000000000000000000CD
:100420000000000000000000BE03741BC122112464
:100430001FBECFEFD1E2DEBFCDBF00E00CBF16E0A4
:10044000A0E0B2E0E8E3FCE400E00BBF02C00790EC
:100450000D92AA32B107D9F71BBE17E1AAE2B6E0A6
:1004600001C01D92A230B107E1F714E0CEE2D4E062
:1004700004C02297FE010E941626C832D107C9F790
:100480000E94F7230C941A26BBCDAC019C013F734C
:1004900036952795369527953695279556FF06C0AC
:1004A0008FEF97E0BC01621B730B9B01E32FEE0FF4
:1004B000EE0FF0E0EB51FA4F80819181322F3695AB
:1004C0002281329F90011124280F391F57FF03C04A
:1004D000309521953F4FC9010895382F492F02C00B
:1004E0006C5F724082E06D3F7807D0F76F3F710517
:1004F00009F040F4E32FF42F862F809580836183E9
:10050000128217C081E06F3F780750F4E32FF42F79
:100510001082CB018F5F9040282F2095218308C047
:10052000E32FF42FCB018E5F914080831182809561
:100530008283832F942F08952F923F924F925F9240
:100540006F927F928F929F92AF92BF92CF92DF92E3
:10055000EF92FF920F931F93DF93CF9300D000D0C1
:10056000CDB7DEB71C016B01DA015901F80126177E
:100570003707C8F43081398321812A8392819B8394
:100580008C91808311968C911197818312968C9116
:10059000129782833C9311962C93119712969C93F9
:1005A000129765015B018281882319F0818188237C
:1005B00011F48C91808312968C911297882329F0E4
:1005C00011968C911197882311F480818C9321814D
:1005D00011968C911197482E5524928012968C91E9
:1005E0001297682E77244C910081041B82E0E81654
:1005F000F10419F407FF0AC010C083E0E816F10403
:1006000019F407FF0AC002C0EF2839F410E016956C
:10061000102F0027179507950CC00195802F90E0AB
:100620009695982F88279795879500271127081B5F
:10063000190BB5016C197D0921F431E0E32EF12C81
:1006400001C07B01C801B7010E94C425FB01822FB4
:1006500090E0841995099695982F88279795879506
:10066000B7010E94C4259B01892D90E08619970946
:100670009695982F882797958795B7010E94C4254E
:10068000CB014F01880C991C220F331F880F991F33
:10069000142F00E0F42CEE24562D4427D601AA0F87
:1006A000BB1FAC0DBD1DA20DB31DFD01B6010DC0DC
:1006B0001C93F1825283080D191DE20EF31E480FA0
:1006C000591F6F5F7F4F13963396A616B70680F7B4
:1006D00026960FB6F894DEBF0FBECDBFCF91DF9147
:1006E0001F910F91FF90EF90DF90CF90BF90AF9050
:1006F0009F908F907F906F905F904F903F902F9042
:100700000895229A089580E991E008951F93CF9368
:10071000DF93382F492F809122148F5F8770809349
:10072000221480FD02C020E001C020E881FD206489
:1007300082FD2062122F105F832F942F9C01F901FC
:10074000C0E0D0E06285662331F080E091E070E0A7
:100750000E94C4256F5F6783212F269F212D1124BE
:100760002483662311F06150678321963196C3304C
:10077000D10541F7DF91CF911F91089508958091A0
:10078000930990919409A0919509B09196098A3A9C
:1007900026ED92072FEFA20720E0B20709F463C00D
:1007A0008B3A26ED92072FEFA20720E0B2073CF527
:1007B000893223E992072FEFA20720E0B20709F45C
:1007C00043C08A3223E992072FEFA20720E0B20745
:1007D0003CF48F5F924EA94CB04009F062C05CC0FF
:1007E0008C352CEA92072FEFA20720E0B20789F19F
:1007F0008F58954CAF4FB04009F053C02FC0843F85
:100800002AEF92072FEFA20720E0B207B1F1853F50
:100810002AEF92072FEFA20720E0B2073CF4805E98
:10082000914FAF4FB04009F03CC022C08B3F2FEF3B
:1008300092072FEFA20720E0B20721F18F5F9F4FB1
:10084000AF4FB04071F523C08CE59CEAAFEFB0E04C
:100850002CC08FE895ECAFEFB0E027C08AEA96EDA8
:10086000AFEFB0E022C080EE91EFAFEFB0E01DC07F
:1008700084EF9AEFAFEFB0E018C08BEF9FEFAFEFD0
:10088000B0E013C08FEF9FEFAFEFB0E00EC08FEF7F
:1008900092EEA9ECB0E009C08FEF9CE9A0E4B0E0D3
:1008A00004C089E293E9AFEFB0E08093930990939D
:1008B0009409A0939509B093960981E696E160E0CA
:1008C00072E00E947E2540919309509194096091B5
:1008D00095097091960981E696E12AE030E00C9442
:1008E0006C25AF92BF92CF92DF92EF92FF920F935F
:1008F0001F93DF93CF9300D000D0CDB7DEB7B82ED3
:10090000A92E6B018091E709882351F487EE99E0C5
:100910000E940424892B21F087EE99E00E940E2486
:100920008091E3128823D9F481E08093E31284E676
:1009300089839FEF9A839B8383E68C839D839E8329
:100940008FEE99E060E070E0AE014F5F5F4F2BEFFC
:1009500032E08E010C5F1F4FEE24FF24EDDD8DEFA2
:10096000C81682E0D80620F084E09DEFC80ED91E9C
:10097000AB2DBA2DF601EE0FFF1FEC0DFD1DE15161
:10098000F64F80818C93818111968C93119782818F
:1009900012968C938B2D9A2D26960FB6F894DEBF67
:1009A0000FBECDBFCF91DF911F910F91FF90EF90C0
:1009B000DF90CF90BF90AF9008951F93CF93DF93B8
:1009C000EC010E94A61D10E0288139814A815B81DB
:1009D000621B730B840B950B2C813D814E815F81D3
:1009E000621773078407950738F011E00E94A61D6F
:1009F000688379838A839B83812FDF91CF911F91B5
:100A000008958091A209882301F582EA99E00E9465
:100A10000424892BD1F00E94A61D6093AE09709327
:100A2000AF098093B0099093B10986E390E0A0E00C
:100A3000B0E08093B2099093B309A093B409B09346
:100A4000B50982EA99E00E940E248EEA99E0B5DFAA
:100A5000882339F18091AD09882319F18091AC097F
:100A60008823F9F48091AA099091AB090E97C9F4F3
:100A70008091990990919A098330910529F08130EC
:100A8000910511F0029729F47ADE81E080939D09A7
:100A900006C08091A00991E089278093A009109257
:100AA000AD0908951F93182F8091F113882301F544
:100AB00081EF93E10E940424892BD1F00E94A61DAE
:100AC0006093F9137093FA138093FB139093FC13C4
:100AD00084E190E0A0E0B0E08093FD139093FE13DA
:100AE000A093FF13B093001481EF93E10E940E24B2
:100AF00089EF93E162DF882309F440C03091231429
:100B0000832F90E0811B91098B3091052CF42FEFFE
:100B1000863F92078CF503C08531910534F422E0BD
:100B20004FEF8C3E94072CF403C08F31910534F4C1
:100B300024E04FEF823E94072CF403C089329105E4
:100B400034F428E04FEF883D94072CF403C0873439
:100B5000910524F420E18A5B9F4F0CF420E23117C9
:100B600018F4320F3093231480912314181730F4A3
:100B7000821B8093231402C021E0D2CF1F910895DD
:100B80006F927F928F929F92AF92BF92CF92DF929D
:100B9000EF92FF920F931F93CF93DF93EC013B01F2
:100BA0004A01580169018F3F910509F010F4D82FCF
:100BB000CC270E94A61D6A197B098C099D0928E192
:100BC00031E040E050E00E9491259E0140E050E07D
:100BD0000E949125BC0188279927E60EF71EC701C0
:100BE00054DC805090488618970820E030E040E0C0
:100BF00050E060E0889D9001999DA001989D300D86
:100C0000411D561F899D300D411D561F11249A010B
:100C100044275527260D371DC901DF91CF911F911C
:100C20000F91FF90EF90DF90CF90BF90AF909F908B
:100C30008F907F906F9008959F92AF92BF92CF92C6
:100C4000DF92EF92FF920F931F93CF93DF93EC010C
:100C5000962EF42E580169018F3F910509F010F48A
:100C6000D82FCC270E94A61D6A197B098C099D09E3
:100C700028E131E040E050E00E9491259E0140E0F3
:100C800050E00E949125BC0188279927672F77277C
:100C9000E60E8E2DE6FC8095E82FEF73982F9F705F
:100CA000E6FC9F5FE295EF70EE0FF0E0EC5FF94F2E
:100CB0008181899F802D912D112482958F7092952D
:100CC000907F892B2081280FE7FC2195F918205867
:100CD0003F2D239F212D1124822F890DDF91CF914C
:100CE0001F910F91FF90EF90DF90CF90BF90AF904A
:100CF0009F9008958091B609882301F586EB99E0CD
:100D00000E940424892BD1F00E94A61D6093BE0985
:100D10007093BF098093C0099093C10985E390E067
:100D2000A0E0B0E08093C2099093C309A093C409E6
:100D3000B093C50986EB99E00E940E248EEB99E0F2
:100D40003CDE882309F4CEC08091AD09882329F4C4
:100D50008091AC09882309F45EC08091AA09909122
:100D6000AB090D9709F057C08091990990919A09A4
:100D70008330910529F08130910511F0029721F41B
:100D800081E080939D0932C08091AC09882389F06D
:100D900080919E0990919F0983309105D8F0019729
:100DA00090939F0980939E0981E696E162E172E04B
:100DB0001BC080919E0990919F098330910550F04E
:100DC000019790939F0980939E0981E696E160E2E6
:100DD00072E00AC082E090E090939F0980939E09A0
:100DE00081E696E169E172E00E947E2581E696E166
:100DF00067E272E00E947E2560919E0970919F09D2
:100E000081E696E14AE050E00E94E6241092AD09A6
:100E100081E080939D098091AD09882329F4809118
:100E2000AC09882309F45EC08091AA099091AB09AE
:100E30000F9709F057C08091990990919A098330D2
:100E4000910529F08130910511F0029721F481E09C
:100E500080939D0932C08091AC09882389F08091EC
:100E60009E0990919F0982339105D8F40196909341
:100E70009F0980939E0981E696E168E472E01BC0B9
:100E800080919E0990919F098233910550F40196BB
:100E900090939F0980939E0981E696E16FE472E04A
:100EA0000AC082E390E090939F0980939E0981E6B7
:100EB00096E169E172E00E947E2581E696E167E2B3
:100EC00072E00E947E2560919E0970919F0981E6E3
:100ED00096E14AE050E00E94E6241092AD0981E0DC
:100EE00080939D090895CF93DF9386E10E94211F8F
:100EF000892BD1F488E10E94211F892BA9F48AE172
:100F00000E94211F892B81F48CE10E94211F892BD3
:100F100059F48EE10E94211F892B31F48AE090E080
:100F20009093AB098093AA0986E10E94211F892B27
:100F3000D1F488E10E94211F892BA9F48AE10E9443
:100F4000211F892B81F48CE10E94211F892B59F4E8
:100F50008EE10E94211F019731F48BE090E0909385
:100F6000AB098093AA0986E10E94211F892BD1F445
:100F700088E10E94211F892BA9F48AE10E94211F88
:100F8000892B81F48CE10E94211F019759F48EE195
:100F90000E94211F892B31F48CE090E09093AB09E3
:100FA0008093AA0986E10E94211F892BD1F488E150
:100FB0000E94211F892BA9F48AE10E94211F892BFD
:100FC00081F48CE10E94211F019759F48EE10E9467
:100FD000211F019731F48DE090E09093AB0980934D
:100FE000AA0986E10E94211F892BD1F488E10E9481
:100FF000211F892BA9F48AE10E94211F019781F406
:101000008CE10E94211F892B59F48EE10E94211F3F
:10101000892B31F48EE090E09093AB098093AA097C
:1010200086E10E94211F892BD1F488E10E94211FB3
:10103000892BA9F48AE10E94211F019781F48CE198
:101040000E94211F892B59F48EE10E94211F0197D4
:1010500031F48FE090E09093AB098093AA0986E188
:101060000E94211F892BD1F488E10E94211F892B26
:10107000A9F48AE10E94211F019781F48CE10E946A
:10108000211F019759F48EE10E94211F892B31F411
:1010900080E190E09093AB098093AA0986E10E94D9
:1010A000211F892BD1F488E10E94211F892BA9F4EB
:1010B0008AE10E94211F019781F48CE10E94211F87
:1010C000019759F48EE10E94211F019731F481E1CB
:1010D00090E09093AB098093AA0986E10E94211FBA
:1010E000892BD1F488E10E94211F0197A9F48AE19C
:1010F0000E94211F892B81F48CE10E94211F892BE2
:1011000059F48EE10E94211F892B31F482E190E095
:101110009093AB098093AA0986E10E94211F892B35
:10112000C1F488E10E94211F019799F48AE10E948D
:10113000211F892B71F48CE10E94211F892B49F416
:101140008EE10E94211F019721F41092AB091092A9
:10115000AA0986E10E94211F892BD1F488E10E940F
:10116000211F0197A9F48AE10E94211F892B81F494
:101170008CE10E94211F019759F48EE10E94211FEA
:10118000892B31F483E190E09093AB098093AA0915
:1011900086E10E94211F892BD1F488E10E94211F42
:1011A0000197A9F48AE10E94211F892B81F48CE127
:1011B0000E94211F019759F48EE10E94211F01977F
:1011C00031F484E190E09093AB098093AA0986E121
:1011D0000E94211F892BD1F488E10E94211F0197D1
:1011E000A9F48AE10E94211FEC018130910571F47C
:1011F0008CE10E94211F892B49F48EE10E94211F5E
:10120000892B21F4D093AB09C093AA0986E10E94EF
:10121000211F892BD1F488E10E94211F0197A9F495
:101220008AE10E94211F019781F48CE10E94211F15
:10123000892B59F48EE10E94211F019731F482E03D
:1012400090E09093AB098093AA0986E10E94211F48
:10125000892BD1F488E10E94211F0197A9F48AE12A
:101260000E94211F019781F48CE10E94211F0197A8
:1012700059F48EE10E94211F892B31F483E090E024
:101280009093AB098093AA0986E10E94211F892BC4
:10129000D1F488E10E94211F0197A9F48AE10E94FC
:1012A000211F019781F48CE10E94211F019759F4BD
:1012B0008EE10E94211F019731F484E090E0909329
:1012C000AB098093AA0986E10E94211F0197D1F4FE
:1012D00088E10E94211F892BA9F48AE10E94211F25
:1012E000892B81F48CE10E94211F892B59F48EE116
:1012F0000E94211F892B31F485E090E09093AB0987
:101300008093AA0986E10E94211F0197D1F488E108
:101310000E94211F892BA9F48AE10E94211F892B99
:1013200081F48CE10E94211F892B59F48EE10E94E7
:10133000211F019731F486E090E09093AB098093F0
:10134000AA0986E10E94211F0197D1F488E10E9439
:10135000211F892BA9F48AE10E94211F892B81F486
:101360008CE10E94211F019759F48EE10E94211FF8
:10137000892B31F487E090E09093AB098093AA0920
:1013800086E10E94211F0197D1F488E10E94211F6C
:10139000892BA9F48AE10E94211F892B81F48CE119
:1013A0000E94211F019759F48EE10E94211F01978D
:1013B00031F488E090E09093AB098093AA0986E12C
:1013C0000E94211F0197D1F488E10E94211F892BDF
:1013D000A9F48AE10E94211F019781F48CE10E9407
:1013E000211F892B59F48EE10E94211F892B31F492
:1013F00089E090E09093AB098093AA09DF91CF91A7
:1014000008951F938091C609882301F586EC99E021
:101410000E940424892BD1F00E94A61D6093CF095D
:101420007093D0098093D1099093D20989E190E01B
:10143000A0E0B0E08093D3099093D409A093D5099C
:10144000B093D60986EC99E00E940E248FEC99E0C7
:10145000B4DA882311F184E20E94211F2091CE0981
:1014600030E08217930779F081E696E164E872E054
:101470000E9480258091CE0911E081278093CE09BA
:1014800032DD1093AD0982E20E94211F1092AC0957
:10149000892B19F081E08093AC091F91089581E6B2
:1014A00096E16AEA72E00E94802581E080939809C3
:1014B00080919B0990919C0990939A098093990936
:1014C00008958091D709882301F587ED99E00E945E
:1014D0000424892BD1F00E94A61D6093DF0970932C
:1014E000E0098093E1099093E2098BE490E0A0E0A9
:1014F000B0E08093E3099093E409A093E509B093E9
:10150000E60987ED99E00E940E248FED99E055DA07
:10151000882309F455C18091AD098823D9F18091C0
:10152000AA099091AB090C97A9F580919809882395
:1015300009F4B5DF8091990990919A09813091055C
:1015400069F00397B1F481E090E090939A09809359
:10155000990981E696E16FEC72E015C082E090E0B7
:1015600090939A098093990981E696E168EF72E079
:101570000AC083E090E090939A098093990981E6EC
:1015800096E162E273E00E94802581E080939D09EC
:101590001092AD098091AD09882309F44DC0809166
:1015A000AA099091AB09089709F046C08091980963
:1015B000882309F474DF8091990990919A09853004
:1015C000910589F08630910519F0049711F516C040
:1015D00087E090E090939A098093990981E696E1DB
:1015E0006AE473E020C086E090E090939A098093CB
:1015F000990981E696E166E773E015C085E090E021
:1016000090939A098093990981E696E161EA73E0E3
:101610000AC084E090E090939A098093990981E64A
:1016200096E16DEC73E00E94802581E080939D0936
:101630008093A0091092AD098091AD09882379F1BA
:101640008091AA099091AB09059749F58091980975
:10165000882309F424DF8091990990919A090897C9
:1016600059F489E090E090939A098093990981E672
:1016700096E161EF73E00AC088E090E090939A09E8
:101680008093990981E696E168E174E00E948025E3
:1016900081E080939D098093A0091092AD0980910B
:1016A000AD09882309F43DC08091AA099091AB0946
:1016B0000297B9F580919809882309F4F0DE8091AA
:1016C000990990919A098A30910569F00B97B1F4C4
:1016D0008CE090E090939A098093990981E696E1D5
:1016E0006CE374E015C08BE090E090939A098093CE
:1016F000990981E696E162E674E00AC08AE090E02A
:1017000090939A098093990981E696E164E974E0DF
:101710000E94802581E080939D098093A00910920A
:10172000AD098091AD09882309F18091AA099091B2
:10173000AB090397D9F480919809882309F4AFDEA7
:101740008DE090E090939A09809399098CE38093BF
:10175000970981E696E16CEB74E00E94802581E0B8
:1017600080939D098093A0091092AD098091AD09E5
:10177000882331F18091AA099091AB09099701F56D
:1017800083E090E090939A09809399098FEF80937A
:10179000970921E020939D098FEF9FEFAFEFB0E015
:1017A0008093930990939409A0939509B093960917
:1017B00080919809882311F4209398091092AD091B
:1017C0000895EF92FF920F931F93CF93DF937C01C5
:1017D000EB010E94A61D2091E5123091E612409186
:1017E000E7125091E812621B730B840B950B00E01B
:1017F00010E0E616F70608071907B8F48091E4121E
:10180000882399F40E94A61D6093E5127093E61256
:101810008093E7129093E8126091E41281E06827C8
:101820006093E4128DE00E94EF1E0E94A61D20919D
:10183000E5123091E6124091E7125091E812621BD6
:10184000730B840B950B9E0140E050E02617370781
:1018500048075907B8F48091E412882399F00E9450
:10186000A61D6093E5127093E6128093E7129093A1
:10187000E8126091E41281E068276093E4128DE041
:101880000E94EF1EDF91CF911F910F91FF90EF907B
:1018900008958F929F92AF92BF92CF92DF92EF9274
:1018A000FF920F931F93DF93CF9300D000D0CDB75B
:1018B000DEB700E010E0BB24BA9465EA862E54E05F
:1018C000C52ED12CCC0EDD1E4CE3942E30E8A32E79
:1018D0007E010894E11CF11C60919E0970919F09A2
:1018E000C8010E94B025B801660F771F892B49F007
:1018F0009982AA821B82600F711F665D794FC701B2
:1019000008C0BC828D82BE82600F711F665D794FF8
:10191000C6010E94A71C0F5F1F4F81E00432180709
:10192000D9F610929D0926960FB6F894DEBF0FBE29
:10193000CDBFCF91DF911F910F91FF90EF90DF907E
:10194000CF90BF90AF909F908F9008952F923F922D
:101950004F925F926F927F928F929F92AF92BF92BF
:10196000CF92DF92EF92FF920F931F93DF93CF936B
:10197000CDB7DEB72A970FB6F894DEBF0FBECDBF46
:101980009A8789876B01DA013901F8012617370731
:10199000D0F43081398321812A8392819B838C9179
:1019A000808311968C911197818312968C91129756
:1019B00082833C9311962C93119712969C931297C5
:1019C000C3013B016C018281882319F08181882346
:1019D00011F48C91808312968C911297882329F0B0
:1019E00011968C911197882311F480818C93218119
:1019F00011968C911197882E9924528012968C9171
:101A00001297A82EBB244C910081041B62E0E616BD
:101A1000F10419F407FF0AC010C073E0E716F104DF
:101A200019F407FF0AC002C0EF2839F410E0169538
:101A3000102F0027179507950CC00195802F90E077
:101A40009695982F88279795879500271127081B2B
:101A5000190BB3016C197D0921F431E0E32EF12C4F
:101A600001C07B01C801B7010E94C425FB01822F80
:101A700090E0881999099695982F882797958795CA
:101A8000B7010E94C4259B01852D90E08A199B090E
:101A90009695982F882797958795B7010E94C4251A
:101AA000CB01BF01660F771F78876F831901220C66
:101AB000331C2C01440C551CF42EEE24982C882445
:101AC000BA2CAA248601000F111F0C0D1D1D89853B
:101AD0009A85080F191F15C0FC829D82BE82CE0117
:101AE0000496B8010E94A71C6F817885E60EF71E48
:101AF000820C931CA40CB51C0894C11CD11C0D5F56
:101B00001F4F6C147D0440F72A960FB6F894DEBF81
:101B10000FBECDBFCF91DF911F910F91FF90EF903E
:101B2000DF90CF90BF90AF909F908F907F906F90FD
:101B30005F904F903F902F900895CF92DF92EF9259
:101B4000FF920F931F93DF93CF93CDB7DEB72C9700
:101B50000FB6F894DEBF0FBECDBF80918B138823E4
:101B600001F58BE893E10E940424892BD1F00E94B7
:101B7000A61D609393137093941380939513909381
:101B8000961388E290E0A0E0B0E0809397139093E2
:101B90009813A0939913B0939A138BE893E10E9442
:101BA0000E2483E993E10E94DD04882309F477C0C1
:101BB00060919B1370919C13CE0101960E94710459
:101BC0006091D6057091D705CE0104960E947104EC
:101BD00089818F838A8188878B8189878C818A8795
:101BE0008D818B878E818C878AE296E060E070E041
:101BF000AE01495F5F4F22E231E08E01065F1F4F69
:101C0000EE24FF24A3DEC0909B13D0909C13609120
:101C10009E0970919F09AB01440F551F85E090E02C
:101C20007695679500E010E020E030E00E94C00566
:101C30008C0D9D1D90939C1380939B1322E08C3FF1
:101C4000920730F08C5F924090939C1380939B138B
:101C5000C090D605D090D70560919E0970919F09DC
:101C6000AB01440F551F85E090E07695679500E045
:101C700010E020E030E0EE24FF240E94C0058C0D2F
:101C80009D1D9093D7058093D60522E08C3F920747
:101C900030F08C5F92409093D7058093D60581E019
:101CA00080939D092C960FB6F894DEBF0FBECDBF72
:101CB000CF91DF911F910F91FF90EF90DF90CF9028
:101CC0000895EF92FF920F931F93DF93CF93CDB7B9
:101CD000DEB72C970FB6F894DEBF0FBECDBF809154
:101CE0009D13882301F58DE993E10E940424892B3B
:101CF000D1F00E94A61D6093A5137093A613809344
:101D0000A7139093A81388E290E0A0E0B0E080933E
:101D1000A9139093AA13A093AB13B093AC138DE9BE
:101D200093E10E940E2485EA93E10E94DD0488235A
:101D300009F459C06091AD137091AE13CE010196B4
:101D40000E9471046091D8057091D905CE01049666
:101D50000E94710489818F838A8188878B8189871A
:101D60008C818A878D818B878E818C878AE296E031
:101D700060E070E0AE01495F5F4F22E231E08E012A
:101D8000065F1F4FEE24FF24E1DD20919E09309174
:101D90009F09369527958091AD139091AE13820FD0
:101DA000931F9093AE138093AD1342E08C3F940742
:101DB00030F08C5F92409093AE138093AD1380917E
:101DC000D8059091D905820F931F9093D9058093E0
:101DD000D80522E08C3F920730F08C5F92409093C0
:101DE000D9058093D80581E080939D092C960FB684
:101DF000F894DEBF0FBECDBFCF91DF911F910F9141
:101E0000FF90EF9008959F92AF92BF92CF92DF9292
:101E1000EF92FF920F931F93DF93CF9300D0CDB734
:101E2000DEB770E9E72E79E0F72E01E010E06BE411
:101E3000962E53E2A52E51E0B52E6E010894C11CDA
:101E4000D11C00361105A4F4809193099091940956
:101E5000A0919509B09196099D0144275527F70156
:101E60002083292F3A2F4B2F55272183828310C09F
:101E700019821A829B82C501801B910BBC01660FDF
:101E8000771F680F791F665D794FC6010E94A71CF6
:101E90000F5F1F4F8DEF9FEFE80EF91E91E00432A8
:101EA000190779F610929D090F900F900F90CF911E
:101EB000DF911F910F91FF90EF90DF90CF90BF9037
:101EC000AF909F9008951F93DF93CF9300D000D0E1
:101ED000CDB7DEB7809119138C3008F080C088230D
:101EE00081F0823071F0843061F0863051F08830BA
:101EF00041F08A3031F08091F112882309F058C006
:101F000037C08091E912882301F589EE92E10E94A1
:101F10000424892BD1F00E94A61D609311137093A5
:101F20001213809313139093141382E390E0A0E0B4
:101F3000B0E08093151390931613A0931713B093EA
:101F4000181389EE92E10E940E2481E193E10E9430
:101F5000DD04882309F496C08FEF89838A838B83FD
:101F60008AE296E063E271E0AE014F5F5F4F31C0FD
:101F700081EF92E10E940424892BD1F00E94A61DDA
:101F80006093091370930A1380930B1390930C13AF
:101F900082E390E0A0E0B0E080930D1390930E13E5
:101FA000A0930F13B093101381EF92E10E940E24BF
:101FB00089E093E10E94DD04882309F463C01C8258
:101FC0001D821E828AE296E063E271E0AE014C5F00
:101FD0005F4F0E945B1A809119138F5F51C08091EF
:101FE000F912882301F589EF92E10E940424892BDC
:101FF000D1F00E94A61D6093011370930213809389
:1020000003139093041382E390E0A0E0B0E0809388
:10201000051390930613A0930713B093081389EF49
:1020200092E10E940E2481E093E10E94DD04882366
:1020300049F1109119132091DF053091E00585E0F9
:1020400098E0289FB001299F700D389F700D1124D2
:10205000675E794C7093E0056093DF0580E090E067
:102060002FEF30E040E050E00E949125BC0188272E
:102070009927160F193C18F01092191303C08FE01E
:102080008093191326960FB6F894DEBF0FBECDBF0E
:10209000CF91DF911F910895DF93CF9300D0CDB7FB
:1020A000DEB780911A13882301F58AE193E10E943B
:1020B0000424892BD1F00E94A61D609322137093F3
:1020C0002313809324139093251388E290E0A0E0DB
:1020D000B0E08093261390932713A0932813B09316
:1020E00029138AE193E10E940E2482E293E10E9487
:1020F000DD04882309F482C040912A134230F1F0B4
:10210000433030F4442361F0413009F048C00FC03F
:10211000443021F14430D0F0453009F040C02DC0AA
:1021200020912B1330912C1329831A820DC080919A
:102130002B1390912C1389831A820EC020912B139C
:1021400030912C1319822A831B820FC080912B138C
:1021500090912C1319828A831B8216C020912B1315
:1021600030912C1319821A822B8380919E099091B1
:102170009F090197820F931F0EC080912B1390919E
:102180002C1319821A828B8320919E0930919F090A
:10219000821B930B019690932C1380932B138091A9
:1021A0002B1390912C138F3F910551F04CF08FEF32
:1021B00090E090932C1380932B134F5F40932A133E
:1021C00080912B1390912C1397FF09C010922C1320
:1021D00010922B1380912A138F5F80932A13809182
:1021E0002A13863010F010922A138AE296E063E2F6
:1021F00071E0AE014F5F5F4F0E945B1A81E08093F8
:102200009D090F900F900F90CF91DF9108950F933C
:102210001F93DF93CF9300D0CDB7DEB780912D13FE
:10222000882301F58DE293E10E940424892BD1F0EB
:102230000E94A61D60933513709336138093371355
:102240009093381382E090E0A0E0B0E080933913DF
:1022500090933A13A0933B13B0933C138DE293E118
:102260000E940E2485E393E10E94DD04882351F14E
:1022700060913D1370913E138E010F5F1F4FC80197
:102280000E946D028AE296E063E271E0A8010E947A
:102290005B1A20913D1330913E1380919E099091DD
:1022A0009F09280F391FC901019790933E1380930E
:1022B0003D138D5F924030F02D5F324030933E13DE
:1022C00020933D1381E080939D090F900F900F9014
:1022D000CF91DF911F910F910895EF92FF920F938D
:1022E0001F93DF93CF93CDB7DEB729970FB6F8943E
:1022F000DEBF0FBECDBF19821A828BE48B838E01A5
:102300000C5F1F4FCE010196B8010E94A71CBAE2D4
:10231000EB2EB6E0FB2EC70163E271E0A8010E943C
:102320005B1A20919309309194094091950950913D
:102330009609CA01AA27BB278F83BB27A52F942FF5
:10234000832F88872987C7016DE670E0AE01495F5A
:102350005F4F0E945B1A10929D0929960FB6F89460
:10236000DEBF0FBECDBFCF91DF911F910F91FF90C8
:10237000EF900895DF93CF9300D0CDB7DEB7809173
:10238000930990919409A0919509B09196099D01A6
:10239000442755272983292F3A2F4B2F55272A8346
:1023A0008B838AE296E063E271E0AE014F5F5F4F9C
:1023B0000E945B1A10929D090F900F900F90CF9181
:1023C000DF910895CF92DF92EF92FF920F931F93C8
:1023D000DF93CF9300D0CDB7DEB780913F13882332
:1023E00001F58FE393E10E940424892BD1F00E9430
:1023F000A61D609383137093841380938513909329
:10240000861380E991E0A0E0B0E080938713909379
:102410008813A0938913B0938A138FE393E10E94EA
:102420000E2483E893E10E94DD04882309F463C04D
:1024300080914713882351F487E493E10E94042498
:10244000892B21F087E493E10E940E2463E573E178
:1024500000E010E0F801EE0FFF1FEE0FFF1FEC5938
:10246000FD4F85919591A591B4919D0144275527E4
:10247000FB012083292F3A2F4B2F5527218382835D
:102480000F5F1F4F6D5F7F4F0031110519F781E01E
:1024900090E09093521380935113809150138F5F6B
:1024A000809350137AE2E72E76E0F72E6E010894BF
:1024B000C11CD11C0091511310915213C60163E548
:1024C00073E140914F132FEF0E94891A8981F70120
:1024D00080838A8181838B81828380914F138F5F78
:1024E00080934F1383E090E0E80EF91E93E9E9161C
:1024F00099E0F906F9F60F900F900F90CF91DF91C8
:102500001F910F91FF90EF90DF90CF900895AF92C1
:10251000BF92CF92DF92EF92FF920F931F93DF93C0
:10252000CF9300D000D0CDB7DEB70E94A61D28EE15
:1025300033E040E050E00E94D725CA01B9012FE006
:1025400030E040E050E00E94D7258091DA05861700
:10255000D1F06093DA05653069F0663018F46623CF
:1025600031F011C06A3031F06F3069F406C082E397
:1025700090E005C08FEF90E002C08AEA90E090936F
:10258000DC058093DB058091AF13882301F58FEA8A
:1025900093E10E940424892BD1F00E94A61D609330
:1025A000B7137093B8138093B9139093BA1388E25A
:1025B00090E0A0E0B0E08093BB139093BC13A09395
:1025C000BD13B093BE138FEA93E10E940E2487EBF4
:1025D00093E10E94DD04882309F475C060919E098F
:1025E00070919F09AB01440F551F85E090E07695EF
:1025F000679500E010E020E030E0EE240E941C0629
:10260000482F8AE296E063E271E06BD78091DF05A4
:102610009091E005A5E0AA2EA8E0BA2E8A9D60015F
:102620008B9DD00C9A9DD00C112489E196E3C80EA5
:10263000D91EB60180E090E023E231E040E050E0B6
:102640000E9491257C0100271127CA9CB001CB9CD8
:10265000700DDA9C700D1124675E794C7093E00563
:102660006093DF05D090DB0580E090E02FEF30E055
:1026700040E050E00E949125BC018827992769839A
:10268000DA828FEF8B83CE010196BE016C5F7F4FA4
:102690000E94A71C3C81F701EE0FFF1FEE0DFF1DEE
:1026A000E65DF94F2081230F08F42FEF20833D8151
:1026B0002181230F08F42FEF21833E812281230FF4
:1026C00008F42FEF228381E080939D0926960FB6B0
:1026D000F894DEBF0FBECDBFCF91DF911F910F9158
:1026E000FF90EF90DF90CF90BF90AF9008958F92C2
:1026F0009F92AF92BF92CF92DF92EF92FF920F9391
:102700001F93DF93CF9300D000D0CDB7DEB70E94E8
:10271000A61D28EE33E040E050E00E94D725CA0114
:10272000B9012FE030E040E050E00E94D7258091D1
:10273000DD058617B1F06093DD05653069F0663020
:1027400018F4662331F00DC06A3041F06F3049F45F
:1027500005C01092DE0505C083E001C081E08093D2
:10276000DE058091BF13882301F58FEB93E10E9472
:102770000424892BD1F00E94A61D6093C713709387
:10278000C8138093C9139093CA1388E290E0A0E025
:10279000B0E08093CB139093CC13A093CD13B09360
:1027A000CE138FEB93E10E940E2487EC93E10E94FD
:1027B000DD04882309F48CC060919E0970919F0903
:1027C000AB01440F551F85E090E07695679500E0DA
:1027D00010E020E030E0EE240E941C06482F8AE240
:1027E00096E063E271E07DD68091DF059091E0058F
:1027F00045E0842E48E0942E889D6001899DD00C90
:10280000989DD00C112489E196E3C80ED91EB6011B
:1028100080E090E023E231E040E050E00E9491252A
:102820007C0100271127A090CF13B090D013C89C33
:10283000B001C99C700DD89C700D1124675E794C55
:102840007093E0056093DF0580E090E02EEF31E0CB
:1028500040E050E00E949125BC0188279927A60EF0
:10286000B71EB694A794B694A794A9828FEF8A83D3
:102870008B83CE010196BE016C5F7F4F0E94A71C27
:102880003C81F701EE0FFF1FEE0DFF1DE65DF94FD6
:102890002081230F08F42FEF20833D812181230F16
:1028A00008F42FEF21833E812281230F08F42FEFBC
:1028B00022832091DE05332727FD30958091CF13A9
:1028C0009091D013820F931F9093D0138093CF13C6
:1028D00081E080939D0926960FB6F894DEBF0FBE67
:1028E000CDBFCF91DF911F910F91FF90EF90DF90BF
:1028F000CF90BF90AF909F908F90089520919909AD
:1029000030919A0980919B0990919C092817390769
:1029100039F030939C0920939B0981E080939D09B5
:102920002330310529F480919D098823E9F022CDD7
:102930002130310529F480919D09882309F1CDCCFE
:102940002230310529F480919D09882329F15BCA41
:102950002A30310549F480919D09882329F080911E
:10296000A009882329F1C3CE2530310549F480918F
:102970009D09882329F08091A009882329F1A1C904
:102980002630310549F480919D09882329F08091F2
:10299000A009882329F1D1C82730310549F4809155
:1029A0009D09882329F08091A009882329F10ACD67
:1029B0002830310549F480919D09882329F08091C0
:1029C000A009882329F123CC2930310549F48091CD
:1029D0009D09882329F08091A009882311F15CCBFF
:1029E0002B30310549F480919D09882389F080912D
:1029F000A0098823B1F08BCD2C30310549F48091AA
:102A00009D09882371F08091A009882351F05BCA49
:102A10002D30310531F480919D09882311F00C94FB
:102A2000490C0895EF92FF920F931F93F8E2EF2E57
:102A3000F12C012D112D35C08091D1138823E1F4A3
:102A400081ED93E10E940424892BB1F00E94A61D20
:102A50006093D9137093DA138093DB139093DC1394
:102A6000E092DD13F092DE130093DF131093E01376
:102A700081ED93E10E940E2489ED93E10E94DD0433
:102A8000882349F0809197090E94520583E294E1DE
:102A9000609123147ED68AE090E064E670E00E94A4
:102AA000E10B9091231480919709981729F681E6FC
:102AB00096E161EE74E00E9480251F910F91FF90D6
:102AC000EF900895EF92FF920F931F93AEE1EA2EDD
:102AD000F12C012D112D34C08091E1138823E1F4F4
:102AE00081EE93E10E940424892BB1F00E94A61D7F
:102AF0006093E9137093EA138093EB139093EC13B4
:102B0000E092ED13F092EE130093EF131093F01395
:102B100081EE93E10E940E2489EE93E10E94DD0490
:102B2000882341F080E00E94520583E294E16091A5
:102B300023142FD684E690E06AE070E00E94E10B57
:102B400080912314882341F681E696E163E075E0E5
:102B50000E9480251F910F91FF90EF900895809122
:102B600001148823F9F481E094E10E940424892B64
:102B7000C9F0ECD76093091470930A1480930B1476
:102B800090930C1482E390E0A0E0B0E080930D14E9
:102B900090930E14A0930F14B093101481E094E15D
:102BA0000E940E2489E094E10E94DD04882309F448
:102BB000ACC08091AA099091AB09419709F04FC030
:102BC0008091AD09882329F48091AC09882309F408
:102BD00046C08091AC09882361F0809197098B30C1
:102BE000A0F08A508093970981E696E162E172E055
:102BF00013C080919709863040F0855080939709E3
:102C000081E696E160E272E007C085E08093970973
:102C100081E696E169E172E00E947E2581E0809381
:102C20009D0981E696E168E275E00E947E2581E6D5
:102C300096E1609197094AE050E00E94012581E603
:102C400096E161E575E00E947E2581E696E160915E
:102C500023144AE050E00E9412251092AD098091A1
:102C6000AA099091AB090B9709F04FC08091AD096B
:102C7000882329F48091AC09882309F446C0809107
:102C8000AC09882361F080919709863FA0F4865FA4
:102C90008093970981E696E168E472E013C0809121
:102CA0009709803F40F48B5F8093970981E696E116
:102CB0006FE472E007C08FEF8093970981E696E199
:102CC00069E172E00E947E2581E080939D0981E6A2
:102CD00096E163E575E00E947E2581E696E16091CC
:102CE00097094AE050E00E94012581E696E161E5FE
:102CF00075E00E947E2581E696E1609123144AE00A
:102D000050E00E9412251092AD09809197090C9411
:102D100052051F930E94010A809111148823F9F42F
:102D200081E194E10E940424892BC9F00FD76093BC
:102D3000191470931A1480931B1490931C1482E33B
:102D400090E0A0E0B0E080931D1490931E14A09337
:102D50001F14B093201481E194E10E940E2489E1B4
:102D600094E10E94DD04882329F18091AA099091C1
:102D7000AB090A97F9F48091AD098823D9F08091C5
:102D8000980911E0812780939809882341F481E60E
:102D900096E168E775E00E94802594DE09C081E62F
:102DA00096E16BE975E00E9480253CDE10939D0959
:102DB0001092AD090E94610A80919809882381F0E0
:102DC0000E947A069BDDCBDE0E94010583E294E13E
:102DD00060912314DED48AE090E068EB7BE004C0CD
:102DE00088EB9BE062E070E00E94E10B1F91089588
:102DF000EF92FF920F931F93CF93DF93EC018B0120
:102E00007A018091E916882309F04DC089EE96E198
:102E10000E940424892B09F446C01092F4161092E3
:102E2000F3168FEF8093F7168093F8168093F916B8
:102E30008093FA168093FB168093FC1681E08093B2
:102E4000FD161092FF161092FE161092F6161092B2
:102E5000F51680912A1490912B14892B31F481EF6F
:102E600096E190932B1480932A14E0912C14F09106
:102E70002D14309721F081EF96E19583848381EFC3
:102E800096E190932D1480932C14109201171092B8
:102E9000001780E196E09093F2168093F11689EE88
:102EA00096E10E940E2481EF96E1BE01A8019701F0
:102EB000DDD3DF91CF911F910F91FF90EF90089597
:102EC0000F931F938AE296E063E271E040E050E0E6
:102ED0008FDF1092231485E048EC50E060E070E052
:102EE000D6D501E616E1C80140E052EC61E070E0A1
:102EF0000E949121C8016DEB75E00E94802584E25B
:102F000060E0BAD682E260E0B7D68EE160E0B4D687
:102F10008CE160E0B1D68AE160E0AED688E160E0A5
:102F2000ABD686E160E0A8D68DE061E0A5D682E36D
:102F30008093970921E02093980983E090E0909393
:102F40009A098093990910929C0910929B092093E9
:102F50009D098AEA96EDAFEFB0E0809393099093D4
:102F60009409A0939509B09396092093A00984E051
:102F700090E090939F0980939E098FEF8093A10921
:102F80001F910F9108954F925F926F927F929F923F
:102F9000AF92BF92CF92DF92EF92FF920F931F9367
:102FA000DF93CF93CDB7DEB72E970FB6F894DEBF81
:102FB0000FBECDBF2C013A01F9011E2DDC011C967C
:102FC0009C917A8369835C834B8380818B87818129
:102FD0008C8782818D87913029F4CE0101960E94E1
:102FE000860306C01A86198618861F821E821D82D5
:102FF00089819A81810F911D9A838983002311F41D
:1030000080E002C0812F8D5F8E87AED5F2012785CB
:103010003089621B730B6A307105B8F3F8945981DB
:103020009A80A5B0F4E0AF2AC5B08BEFC822C5B82E
:10303000B9848E814B2D481B4E83DE848B813C816D
:103040001C85FB84ED846D819F8108857A85E981EB
:10305000FA812181222319F0240F08F42FEF219FF8
:10306000212D1124A82FB32FE52FF92D30E0842F27
:10307000532F432F002CA5B800C027FFC5B84081AF
:103080003327889400C000C0002CC5B84111460FFA
:1030900000C0002CA5B800C026FFC5B808F44FEF4B
:1030A000889400C000C000C0C5B8F0FC340F00C058
:1030B000002CA5B800C025FFC5B837958894F1FC51
:1030C000340F00C000C0002CC5B83795889400C0EC
:1030D000002CA5B800C024FFC5B8F2FC340F37950A
:1030E000889400C000C0002CC5B8F3FC340F00C0A9
:1030F000002CA5B800C023FFC5B837958894F4FC10
:10310000340F00C000C0002CC5B83795889400C0AB
:10311000002CA5B800C022FFC5B8F5FC340F3795C8
:10312000889400C000C0002CC5B8F6FC340F00C065
:10313000002CA5B800C021FFC5B837958894F7FCCE
:10314000340F00C000C0002CC5B83795889400C06B
:10315000002CA5B800C020FFC5B86195600F00C065
:1031600000C000C0002CC5B8232F00C000C0A5B807
:1031700000C027FFC5B842813327889400C000C033
:10318000002CC5B84111490F00C0002CA5B800C0E3
:1031900026FFC5B808F44FEF889400C000C000C0F7
:1031A000C5B8E0FC340F00C0002CA5B800C025FF56
:1031B000C5B837958894E1FC340F00C000C0002CDE
:1031C000C5B83795889400C0002CA5B800C024FF6E
:1031D000C5B8E2FC340F3795889400C000C0002CBD
:1031E000C5B8E3FC340F00C0002CA5B800C023FF15
:1031F000C5B837958894E4FC340F00C000C0002C9B
:10320000C5B83795889400C0002CA5B800C022FF2F
:10321000C5B8E5FC340F3795889400C000C0002C79
:10322000C5B8E6FC340F00C0002CA5B800C021FFD3
:10323000C5B837958894E7FC340F00C000C0002C57
:10324000C5B83795889400C0002CA5B800C020FFF1
:10325000C5B8ED0DF11D8894232F00C000C0002CCF
:10326000C5B89195970F00C0002CA5B800C027FFE6
:10327000C5B841813327889400C000C0002CC5B870
:103280004111480F00C0002CA5B800C026FFC5B8EA
:1032900008F44FEF889400C000C000C0C5B810FD0E
:1032A000340F00C0002CA5B800C025FFC5B8379565
:1032B000889411FD340F00C000C0002CC5B83795AC
:1032C000889400C0002CA5B800C024FFC5B812FD2A
:1032D000340F3795889400C000C0002CC5B813FD8A
:1032E000340F00C0002CA5B800C023FFC5B8379527
:1032F000889414FD340F00C000C0002CC5B8379569
:10330000889400C0002CA5B800C022FFC5B815FDE8
:10331000340F3795889400C000C0002CC5B816FD46
:10332000340F00C0002CA5B800C021FFC5B83795E8
:10333000889417FD340F00C000C0002CC5B8379525
:10334000889400C0002CA5B800C020FFC5B88195A6
:103350008B0D232F00C000C000C0C5B8119709F025
:103360008ACEB301882777FD8095982F20EE31E033
:1033700040E050E00E94912504E09695879577956E
:1033800067950A95D1F7E0E0F0E09F014AE9649E75
:10339000212D749E200D311D112440E050E0260F98
:1033A000371F481F591F293EA3E03A07A0E04A07EC
:1033B000A0E05A0790F1285E33404040504012E0B0
:1033C00056954795379527951A95D1F787E0289F09
:1033D000E12D389FE00DF11D112480912114280F5B
:1033E000311D2E0F3F1F40913C1450913D146091B0
:1033F0003E1470913F14832F9927A0E0B0E0840F12
:10340000951FA61FB71F80933C1490933D14A09363
:103410003E14B0933F14209321147894A5D3F20165
:10342000708B67872E960FB6F894DEBF0FBECDBFA8
:10343000CF91DF911F910F91FF90EF90DF90CF9090
:10344000BF90AF909F907F906F905F904F90089546
:10345000EF92FF920F93DF93CF9300D0CDB7DEB7FB
:10346000AB0119821A821B829E012F5F3F4FB90167
:1034700000E0EE24FF2487DD0F900F900F90CF9196
:10348000DF910F91FF90EF900895EF92FF920F93CD
:1034900001E0EE24FF2477DD0F91FF90EF90089577
:1034A000EF92FF920F9300E0EE24FF246CDD0F916A
:1034B000FF90EF900895DA01FC0120E030E00DC0AC
:1034C0008C91808311968C911197818312968C91A7
:1034D000129782832F5F3F4F33962617370784F367
:1034E00008954095FC0180E090E00FC02081249F6A
:1034F000212D20832181249F212D21832281249F1E
:10350000212D22831124019633968617970770F395
:103510000895DF92EF92FF920F931F93CF93DF9363
:10352000E82ED92EEB01F22ED801242F22952F70F0
:10353000342F3F70822F90E0FC01EE0FFF1FE80F49
:10354000F91FE60FF71F008111817281332309F4FF
:1035500024C0AB2B11F12F3011F4FE0101C03396C2
:103560003295307F232F2195602F629F612D512F3F
:10357000529F512D472F429F412D80819181228161
:10358000082F039F012D192F139F112D722F739F49
:10359000712D1124060F150F740F2FEFF216A1F0E5
:1035A0002F2D002321F0029F012D09F00F5F112321
:1035B00021F0129F112D09F01F5F772321F0729FD8
:1035C000712D09F07F5F1124EE2DFD2D00831183F5
:1035D00072838E2D9D2DDF91CF911F910F91FF90C2
:1035E000EF90DF900895EF92FF920F931F93CF9388
:1035F000DF93EC014423F1F06115710581F19B012A
:1036000040E050E060E472E48FE090E00E94F92531
:10361000EB80FC800D811E81C901DA018E159F05AA
:10362000A007B10710F4D801C7018B839C83AD8339
:10363000BE8315C06115710571F09B0140E050E03B
:1036400060E472E48FE090E00E94F9252B833C83D4
:103650004D835E8304C01B821C821D821E82DF910B
:10366000CF911F910F91FF90EF900895CF92DF922D
:10367000EF92FF920F931F93CF93DF938C017B0107
:103680001216130624F06A01C0E0D0E002C06901FE
:10369000EA01D801ED91FC910480F581E02DC8018B
:1036A0001995CE01880F991F8C0F9D1F8E0D9F1DA0
:1036B000F80193838283C586D6860190F081E02D40
:1036C0000084F185E02DC8011995BC0183E294E1E5
:1036D00041E089DFC801DF91CF911F910F91FF90E9
:1036E000EF90DF90CF9008958FEF80932314109286
:1036F0002514109224140895EF92FF920F931F93B4
:10370000CF93DF93EC0180913214909133140196A2
:10371000909333148093321401978617970794F18E
:1037200015D29B01AC01609132147091331488EE74
:1037300093E0FB01E89FB001E99F700DF89F700DC9
:103740001124882777FD8095982FE0902E14F09013
:103750002F1400913014109131142E193F09400B91
:10376000510B0E94D7253A8329831092331410926B
:103770003214ECD160932E1470932F148093301474
:1037800090933114DF91CF911F910F91FF90EF90A3
:1037900008952F923F924F925F926F927F928F92F5
:1037A0009F92AF92BF92CF92DF92EF92FF920F93D0
:1037B0001F93DF93CF93CDB7DEB729970FB6F89459
:1037C000DEBF0FBECDBF5C016F83F50183819481A5
:1037D000A581B6810097A105B10509F4A1C0C4D1A6
:1037E000209134143091351440913614509137148F
:1037F000621B730B840B950BD50113962D913D9194
:103800004D915C911697621773078407950708F02E
:1038100087C0DBCFF801F485FE83D50111968D9129
:103820009C9112978436910510F4F8011486D80102
:10383000ED91FC911197828193819D838C831296E7
:103840004D905C9013971D962D903C901E97198279
:103850001A821B829F81992399F168017E01089445
:10386000E11CF11CD60116962C91169719966C91B5
:103870002223D9F06623C9F070E080E090E06F5F0A
:103880007F4F8F4F9F4F30E040E050E02F5F3F4F22
:103890004F4F5F4F0E949125A40193010E949125F3
:1038A000BC0188279927F70160830894C11CD11CAB
:1038B0000894E11CF11C88859985E816F90691F6B3
:1038C000C801B201A1019E012F5F3F4FAC81BD81B4
:1038D000FD0119958E81F8018487048115810115F8
:1038E000110509F097CFC50169E170E005DF299660
:1038F0000FB6F894DEBF0FBECDBFCF91DF911F9101
:103900000F91FF90EF90DF90CF90BF90AF909F907E
:103910008F907F906F905F904F903F902F90089581
:1039200023D160933414709335148093361490939C
:10393000371400912A1410912B149F81692E77243B
:1039400088249924DE011496B987A887C8CF1F93CD
:10395000FC01DB01808171811281482F4F71440F7E
:10396000440F440F642F25E5629F612D1124282FF9
:1039700030E087FD24C0C9018072907026FD0CC024
:10398000892B29F4562F509580E0462F11C0462FE1
:103990004B5A80E05BEA0CC0892B61F4242F3AEA91
:1039A000239F212D11245BEA521B462F455580E0B1
:1039B00030E02AC080E0462F4095362F11C0C90163
:1039C0008072907026FD13C0892B61F480E0242F53
:1039D0003AEA239F212D11244BEA421B322F3B5AF6
:1039E00050E012C080E0362F3095562F0CC0892B46
:1039F00029F4562F5B5A80E03BEA04C0562F5555F8
:103A000080E035E5361B40E07F3F09F41BC05523BD
:103A100021F0579F512D09F05F5F442321F0479F0C
:103A2000412D09F04F5F332321F0379F312D09F0ED
:103A30003F5F1124272F2095229F212D1124520F03
:103A4000420F320F1F3F09F41AC020E0112321F06A
:103A5000119F212D09F02F5F552321F0529F512DE9
:103A600009F05F5F442321F0429F412D09F04F5F31
:103A7000332321F0329F312D09F03F5F11245C93F5
:103A800011964C93119712963C931F9108950F93A2
:103A90001F93082F10E020E030E0CB01BA01A9010C
:103AA00098010E9491256093E1057093E20580934F
:103AB000E3059093E4051F910F9108951F920F92D3
:103AC0000FB60F9211242F933F938F939F93AF9331
:103AD000BF9380913C1490913D14A0913E14B091FD
:103AE0003F14309140140196A11DB11D232F2D5F6D
:103AF0002D3720F02D570196A11DB11D20934014A4
:103B000080933C1490933D14A0933E14B0933F14C3
:103B10008091381490913914A0913A14B0913B14CB
:103B20000196A11DB11D8093381490933914A09370
:103B30003A14B0933B14BF91AF919F918F913F91F5
:103B40002F910F900FBE0F901F9018958FB7F8947C
:103B500020913C1430913D1440913E1450913F14FB
:103B60008FBFB901CA0108959FB7F8942091381406
:103B70003091391440913A1450913B1486B5A89B6A
:103B800006C08F3F21F02F5F3F4F4F4F5F4F9FBFCA
:103B9000542F432F322F2227280F311D411D511D35
:103BA00082E0220F331F441F551F8A95D1F7B901B8
:103BB000CA010895789484B5826084BD84B581601B
:103BC00084BD85B5826085BD85B5816085BDEEE625
:103BD000F0E0808181608083E1E8F0E01082808104
:103BE00082608083808181608083E0E8F0E0808172
:103BF00081608083E1EBF0E0808184608083E0EB92
:103C0000F0E0808181608083E1E9F0E08081826082
:103C10008083808181608083E0E9F0E08081816041
:103C20008083E1EAF0E0808182608083808181602E
:103C30008083E0EAF0E0808181608083E1E2F1E06E
:103C4000808182608083808181608083E0E2F1E016
:103C5000808181608083EAE7F0E0808184608083F6
:103C600080818260808380818160808380818068A0
:103C700080831092C1000895CF93DF93482F50E0C6
:103C8000CA0184569C4FFC0134914A5A5C4FFA0198
:103C90008491882369F190E0880F991FFC01E85F07
:103CA000FC4FA591B491FC01EE5DFC4FC591D49100
:103CB000662351F42FB7F8948C91932F9095892314
:103CC0008C93888189230BC0623061F42FB7F894FC
:103CD0008C91932F909589238C938881832B888353
:103CE0002FBF06C09FB7F8948C91832B8C939FBFF6
:103CF000DF91CF910895893009F449C08A30A0F44A
:103D0000843051F1853040F4823079F1833000F510
:103D1000813009F063C026C0873079F1883098F58A
:103D2000863009F05BC025C08D3009F442C08E306A
:103D300028F48B30B1F18C30C0F52DC0803109F4FE
:103D400042C0813109F445C08F3009F047C037C007
:103D5000809180008F7703C0809180008F7D809359
:103D60008000089584B58F7702C084B58F7D84BDAF
:103D700008958091B0008F7703C08091B0008F7D4F
:103D80008093B0000895809190008F7707C0809154
:103D900090008F7D03C080919000877F809390007A
:103DA00008958091A0008F7707C08091A0008F7D3B
:103DB00003C08091A000877F8093A0000895809128
:103DC00020018F7703C0809120018F7D8093200197
:103DD000089580912001877F809320010895FF92AC
:103DE0000F931F93F62E482F50E0CA018E519C4F1F
:103DF000FC012491CA0184569C4FFC0114914A5A3B
:103E00005C4FFA0104910023C1F0222311F0822FAC
:103E100072DFE02FF0E0EE0FFF1FEE5DFC4FA5918B
:103E2000B4919FB7F894FF2021F48C9110958123D1
:103E300002C08C91812B8C939FBF1F910F91FF909B
:103E400008950F931F93482F50E0CA018E519C4F45
:103E5000FC012491CA0184569C4FFC0104914A5AEA
:103E60005C4FFA011491112319F420E030E014C0E2
:103E7000222311F0822F3FDF812F90E0880F991FBE
:103E8000845C9C4FFC01A591B4918C9120E030E0C2
:103E9000802311F021E030E0C9011F910F910895B6
:103EA00008951F920F920FB60F920BB60F92112426
:103EB0002F933F934F938F939F93EF93FF93809113
:103EC000C00082FD1DC04091C60020918114309138
:103ED00082142F5F3F4F2F73307080918314909125
:103EE00084142817390771F0E0918114F09182143D
:103EF000EF5BFB4E4083309382142093811402C009
:103F00008091C600FF91EF919F918F914F913F91CA
:103F10002F910F900BBE0F900FBE0F901F90189512
:103F200008951F920F920FB60F920BB60F921124A5
:103F30002F933F934F938F939F93EF93FF93809192
:103F4000C80082FD1DC04091CE002091091530911E
:103F50000A152F5F3F4F2F73307080910B15909192
:103F60000C152817390771F0E0910915F0910A1521
:103F7000E753FB4E408330930A152093091502C086
:103F80008091CE00FF91EF919F918F914F913F9142
:103F90002F910F900BBE0F900FBE0F901F90189592
:103FA00008951F920F920FB60F920BB60F92112425
:103FB0002F933F934F938F939F93EF93FF93809112
:103FC000D00082FD1DC04091D60020919115309106
:103FD00092152F5F3F4F2F73307080919315909102
:103FE00094152817390771F0E0919115F091921509
:103FF000EF5AFA4E4083309392152093911502C0E8
:104000008091D600FF91EF919F918F914F913F91B9
:104010002F910F900BBE0F900FBE0F901F90189511
:1040200008951F920F920FB60F920BB60F921124A4
:104030002F933F934F938F939F93EF93FF93809191
:10404000300182FD1DC0409136012091191630913A
:104050001A162F5F3F4F2F73307080911B1690916F
:104060001C162817390771F0E0911916F0911A16ED
:10407000E752FA4E408330931A162093191602C065
:1040800080913601FF91EF919F918F914F913F91D8
:104090002F910F900BBE0F900FBE0F901F90189591
:1040A000E0916D16F0916E16E05CFF4F8191919159
:1040B00020813181821B930B8F739070892B09F0C3
:1040C000EFDEE0918F16F0919016E05CFF4F81914A
:1040D000919120813181821B930B8F739070892B7A
:1040E00009F01EDFE091B116F091B216E05CFF4FCF
:1040F0008191919120813181821B930B8F739070FC
:10410000892B09F04DDFE091D316F091D416E05CD5
:10411000FF4F8191919120813181821B930B8F738D
:104120009070892B09F07CCF08951F920F920FB6E3
:104130000F920BB60F9211242F933F938F939F935F
:10414000EF93FF932091C5143091C6148091C7144A
:104150009091C8142817390731F48091C1008F7DE0
:104160008093C10014C0E091C714F091C814EB57BC
:10417000FB4E20818091C7149091C81401968F73D3
:1041800090709093C8148093C7142093C600FF9139
:10419000EF919F918F913F912F910F900BBE0F90B8
:1041A0000FBE0F901F9018951F920F920FB60F928F
:1041B0000BB60F9211242F933F938F939F93EF93FE
:1041C000FF9320914D1530914E1580914F15909190
:1041D00050152817390731F48091C9008F7D8093DD
:1041E000C90014C0E0914F15F0915015E35FFA4EED
:1041F000208180914F159091501501968F7390708A
:104200009093501580934F152093CE00FF91EF911E
:104210009F918F913F912F910F900BBE0F900FBEEA
:104220000F901F9018951F920F920FB60F920BB61A
:104230000F9211242F933F938F939F93EF93FF93AC
:104240002091D5153091D6158091D7159091D8151C
:104250002817390731F48091D1008F7D8093D100E8
:1042600014C0E091D715F091D815EB56FA4E208185
:104270008091D7159091D81501968F739070909377
:10428000D8158093D7152093D600FF91EF919F9179
:104290008F913F912F910F900BBE0F900FBE0F90FB
:1042A0001F9018951F920F920FB60F920BB60F9298
:1042B00011242F933F938F939F93EF93FF9320911C
:1042C0005D1630915E1680915F16909160162817EA
:1042D000390731F4809131018F7D8093310114C011
:1042E000E0915F16F0916016E35EF94E20818091B7
:1042F0005F169091601601968F7390709093601680
:1043000080935F1620933601FF91EF919F918F91DB
:104310003F912F910F900BBE0F900FBE0F901F90EB
:104320001895AF92BF92DF92EF92FF920F931F9377
:10433000CF93DF93EC017A018B01DD24403081EED5
:10434000580780E0680780E0780711F0DD24D394F7
:1043500091E0A92EB12CEC89FD89DD2069F0C50121
:1043600008A002C0880F991F0A94E2F7808360E0DA
:1043700079E08DE390E005C0108260E874E88EE19A
:1043800090E0A801970113D42150304040405040A4
:10439000569547953795279580E12030380720F0CE
:1043A000DD2011F0DD24D7CFE889F9893083EA894F
:1043B000FB89208319A2EE89FF89408121E030E04A
:1043C000C9010C8C02C0880F991F0A94E2F7482B90
:1043D0004083EE89FF894081C9010D8C02C0880F9E
:1043E000991F0A94E2F7482B4083EE89FF894081A8
:1043F000C9010E8C02C0880F991F0A94E2F7482B5E
:104400004083EE89FF8980810F8C02C0220F331F09
:104410000A94E2F7209528232083DF91CF911F9102
:104420000F91FF90EF90DF90BF90AF900895DC0167
:104430001C96ED91FC911D97E05CFF4F219131910D
:1044400080819181281B390B2F733070C901089529
:10445000DC011C96ED91FC911D97E05CFF4F2081E3
:104460003181E054F040DF01AE5BBF4F8D919C91F4
:1044700011972817390719F42FEF3FEF07C08D91D7
:104480009C91E80FF91F8081282F30E0C901089521
:10449000DC011C96ED91FC911D97E05CFF4F2081A3
:1044A0003181E054F040DF01AE5BBF4F8D919C91B4
:1044B00011972817390719F42FEF3FEF10C08D918E
:1044C0009C911197E80FF91F20818D919C91119774
:1044D00001968F73907011969C938E9330E0C90172
:1044E0000895DC0191968C919197882339F0549628
:1044F000ED91FC915597808186FFF9CF91961C92A2
:104500000895CF93DF93EC01EE85FF85E05CFF4FCC
:1045100020813181E054F0402F5F3F4F2F73307086
:10452000DF01AE5BBF4F8D919C9111972817390722
:10453000D1F3E05CFF4F80819181E054F040E80FBF
:10454000F91F6083EE85FF85E05CFF4F3183208398
:10455000EE89FF89208181E090E00F8C02C0880FF6
:10456000991F0A94E2F7282B208381E089A3EC8924
:10457000FD8980818064808381E090E0DF91CF912C
:1045800008951F93109264161092631628EE33E07C
:1045900040E050E02093651630936616409367160E
:1045A000509368166EE176E0709362166093611620
:1045B00081E494E190936E1680936D1685E894E102
:1045C0009093701680936F1685EC90E0909372161E
:1045D0008093711684EC90E0909374168093731618
:1045E00080EC90E0909376168093751681EC90E0C5
:1045F000909378168093771682EC90E090937A16D9
:104600008093791686EC90E090937C1680937B16CD
:1046100014E010937D16B3E0B0937E16A7E0A0934C
:104620007F16F5E0F0938016E1E0E093811610929A
:10463000861610928516209387163093881640931D
:10464000891650938A16709384166093831689ECAA
:1046500094E19093901680938F168DE095E190935E
:104660009216809391168DEC90E09093941680931F
:1046700093168CEC90E0909396168093951688ECA8
:1046800090E0909398168093971689EC90E0909321
:104690009A16809399168AEC90E090939C168093DA
:1046A0009B168EEC90E090939E1680939D1610932F
:1046B0009F16B093A016A093A116F093A216E093B4
:1046C000A3161092A8161092A7162093A91630933D
:1046D000AA164093AB165093AC167093A61660932F
:1046E000A51681E595E19093B2168093B11685E900
:1046F00095E19093B4168093B31685ED90E0909376
:10470000B6168093B51684ED90E09093B81680931A
:10471000B71680ED90E09093BA168093B91681EDAC
:1047200090E09093BC168093BB1682ED90E090933E
:10473000BE168093BD1686ED90E09093C0168093D0
:10474000BF161093C116B093C216A093C316F09370
:10475000C416E093C5161092CA161092C91620937B
:10476000CB163093CC164093CD165093CE16709343
:10477000C8166093C71689ED95E19093D41680937F
:10478000D3168DE196E19093D6168093D51685E3E6
:1047900091E09093D8168093D71684E391E090939C
:1047A000DA168093D91680E391E09093DC1680931B
:1047B000DB1681E391E09093DE168093DD1682E3B1
:1047C00091E09093E0168093DF1686E391E090935A
:1047D000E2168093E1161093E316B093E416A093CB
:1047E000E516F093E616E093E7161F910895CF9330
:1047F000DF93E0D90E946017C0E5D0E20E948916DD
:104800002097E1F34DDCFACFFC0120E030E080811D
:10481000882311F421E030E0C9010895FC0181E012
:1048200080830895CF92DF92EF92FF920F931F93B0
:10483000CF93DF937C016B018A01C0E0D0E00FC011
:10484000D6016D916D01D701ED91FC910190F08140
:10485000E02DC7011995C80FD91F0150104001154F
:10486000110571F7CE01DF91CF911F910F91FF904C
:10487000EF90DF90CF900895EF92FF920F931F93E8
:104880008C01DC01ED91FC910190F081E02D6DE057
:1048900019957C01D801ED91FC910190F081E02DFA
:1048A000C8016AE019959C012E0D3F1DC9011F9199
:1048B0000F91FF90EF900895CF93DF93EC01611576
:1048C000710519F420E030E00FC0DB010D900020ED
:1048D000E9F71197A61BB70BE881F9810280F381F4
:1048E000E02DAD0119959C01C901DF91CF9108958B
:1048F0004F925F927F928F929F92AF92BF92CF9290
:10490000DF92EF92FF920F931F93DF93CF93CDB778
:10491000DEB7A1970FB6F894DEBF0FBECDBF2C0156
:10492000742ECB01223008F42AE019A231E2C32E02
:10493000D12CCC0EDD1E822E9924AA24BB24672DF7
:10494000752FA501940133D179018A01C801B701FE
:10495000A5019401E6D0472D461B0894C108D10853
:104960004A3014F4405D01C0495CF6014083E11413
:10497000F1040105110521F07E2C5F2DC801DFCF68
:10498000C201B60199DFA1960FB6F894DEBF0FBE43
:10499000CDBFCF91DF911F910F91FF90EF90DF90EE
:1049A000CF90BF90AF909F908F907F905F904F90EF
:1049B0000895DC012115310541F4ED91FC91019040
:1049C000F081E02D642F1995089592CFCF92DF9258
:1049D000EF92FF920F931F936C017B019A0100E00D
:1049E00010E0B801A701E5DF8C01C60145DF080F23
:1049F000191FC8011F910F91FF90EF90DF90CF908A
:104A00000895EF92FF920F931F939A01E62EFF24D1
:104A100000E010E0B801A701CCDF1F910F91FF90DB
:104A2000EF900895CF92DF92EF92FF920F931F9332
:104A30006C01E62E9A01FF2400E010E0B801A70106
:104A4000B8DF8C01C60118DF080F191FC8011F91BC
:104A50000F91FF90EF90DF90CF900895CF92DF926B
:104A6000EF92FF920F931F93CF93DF93EC016A01B4
:104A70007B012115310541F4E881F9810190F08134
:104A8000E02D642F19951DC02A303105C9F477FF38
:104A900016C0E881F9810190F081E02D6DE2199551
:104AA0008C0144275527BA014C195D096E097F090D
:104AB000CE012AE01DDF9801280F391F03C02AE02C
:104AC00017DF9C01C901DF91CF911F910F91FF90DA
:104AD000EF90DF90CF900895EF92FF920F931F9386
:104AE0007C01BCDF8C01C701C7DE9C01200F311F98
:104AF000C9011F910F91FF90EF900895DDCE0895A9
:104B0000EF92FF920F931F937C01D6DE8C01C701B9
:104B1000B3DE080F191FC8011F910F91FF90EF908E
:104B20000895629FD001739FF001829FE00DF11DF7
:104B3000649FE00DF11D929FF00D839FF00D749F17
:104B4000F00D659FF00D9927729FB00DE11DF91FC3
:104B5000639FB00DE11DF91FBD01CF011124089520
:104B6000AA1BBB1B51E107C0AA1FBB1FA617B70793
:104B700010F0A61BB70B881F991F5A95A9F78095AF
:104B80009095BC01CD01089597FB092E07260AD008
:104B900077FD04D0E5DF06D000201AF4709561950A
:104BA0007F4F0895F6F7909581959F4F0895A1E264
:104BB0001A2EAA1BBB1BFD010DC0AA1FBB1FEE1F97
:104BC000FF1FA217B307E407F50720F0A21BB30BE2
:104BD000E40BF50B661F771F881F991F1A9469F75E
:104BE00060957095809590959B01AC01BD01CF01BA
:104BF000089597FB092E05260ED057FD04D0D7DF68
:104C00000AD0001C38F450954095309521953F4FBF
:104C10004F4F5F4F0895F6F7909580957095619589
:104C20007F4F8F4F9F4F0895EE0FFF1F0590F49118
:084C3000E02D1994F894FFCF68
:104C3800536574436F6C6F7254656D7020746F3A6E
:104C480020002D2D2D2D2020006F6F2020202000EA
:104C58002D2D2020202000466F72776172644261FA
:104C6800636B776172644D61696E207C2064656C4A
:104C7800617920746F3A20002B2B2B2B2020002BDE
:104C88002B202020200053617475726174696F6E47
:104C98004D61696E207C20446F776E203A00536125
:104CA8007475726174696F6E4D61696E207C2055F0
:104CB8007020200052656164696E67206E657720F8
:104CC80076616C7565732066726F6D206F746865A8
:104CD800722041726475696E6F004D6F646553652B
:104CE8006C656374696F6E5475726E4F6E207C20AC
:104CF8005475726E6564206F6E204C454473004D88
:104D08006F646553656C656374696F6E4D61696E38
:104D1800207C204368616E67656420746F20576843
:104D28006974654C656674004D6F646553656C65A0
:104D38006374696F6E4D61696E207C204368616E93
:104D480067656420746F205768697465526967687D
:104D580074004D6F646553656C656374696F6E4D5F
:104D680061696E207C204368616E67656420746F9A
:104D7800205768697465416C6C004D6F64655365B4
:104D88006C656374696F6E4D61696E207C20436841
:104D9800616E67656420746F20436F6C6F72506139
:104DA8006C42656174004D6F646553656C6563742E
:104DB800696F6E4D61696E207C204368616E67651E
:104DC8006420746F205261696E626F774265617406
:104DD800004D6F646553656C656374696F6E4D61F2
:104DE800696E207C204368616E67656420746F205B
:104DF8005261696E626F774D61726368004D6F64CE
:104E08006553656C656374696F6E4D61696E207C6E
:104E1800204368616E67656420746F20486561741B
:104E2800004D6F646553656C656374696F6E4D61A1
:104E3800696E207C204368616E67656420746F200A
:104E480052474246616465004D6F646553656C6501
:104E58006374696F6E4D61696E207C204368616E72
:104E680067656420746F2046616465004D6F6465F2
:104E780053656C656374696F6E4D61696E207C2043
:104E88004368616E67656420746F205374726F6243
:104E980065004D6F646553656C656374696F6E4D2D
:104EA80061696E207C204368616E67656420746F59
:104EB80020436F6C6F7266756C6C20436F6E66650D
:104EC800747469004D6F646553656C656374696FCC
:104ED8006E4D61696E207C204368616E6765642051
:104EE800746F20436F6E6665747469004D6F6465F6
:104EF80053656C656374696F6E4D61696E207C20C3
:104F08004368616E67656420746F204E69676874D2
:104F1800004272696768746E6573735475726E4F78
:104F28006E207C20506F7765726564206F6E206EEE
:104F38006F77004272696768746E6573735475722F
:104F48006E4F6666207C20506F77657265642064BA
:104F58006F776E206E6F77004272696768746E654E
:104F680073734D61696E207C20446F776E205B53AC
:104F78006574706F696E74202041637475616C5D2F
:104F88000020004272696768746E6573734D6169C9
:104F98006E207C20557020536574706F696E742084
:104FA8002041637475616C00506F7765722062757B
:104FB80074746F6E2070726573736564202D20544D
:104FC80075726E696E67206F666600506F776572DE
:104FD80020627574746F6E207072657373656420D7
:104FE8002D205475726E696E67206F6E0053746160
:104FF80072746564202D2057616974696E67202D6D
:105008002056312E30002301230163FF006303394A
:1050180005D007000000003100F9183000FB302CE3
:10502800001C472600825A1F006D6A170041760E41
:1050380000897D04003131295A1B750A00000000DF
:10504800501A451A8103281A8303000000008122A0
:0A5058001224172248222822712298
:00000001FF
