:1000000014C1000043C1000041C100003FC1000015
:100010003DC100003BC1000039C1000037C10000F4
:1000200035C1000033C1000031C100002FC1000004
:100030002DC100002BC1000029C1000027C1000014
:1000400025C1000023C1000021C100001FC1000024
:100050001DC100001BC1000019C10000BAC500008D
:1000600015C10000EBC40000BFC400000FC10000B8
:100070000DC100000BC1000009C1000007C1000054
:1000800005C1000003C1000001C10000FFC0000065
:10009000FDC00000FBC00000F9C00000F7C0000078
:1000A000F5C00000F3C00000F1C00000EFC0000088
:1000B000EDC00000EBC00000E9C00000E7C0000098
:1000C000E5C00000E3C00000E1C00000DFC00000A8
:1000D000DDC00000DBC00000D9C00000D7C00000B8
:1000E000D5C000007B047E046D0471047704B50460
:1000F000820486048C04900494049A049E04A2044E
:10010000B504A804AC04B0040000220025002800B7
:100110002B002E003100340002010000050108010F
:100120000B0100002100240027002A002D003000D0
:10013000330001010000040107010A010000200052
:100140002300260029002C002F00320000010000AF
:10015000030106010901050505050705080808084A
:10016000020202020A0A080804040404010101014F
:10017000010101010303030303030303040707074A
:100180000C0C0C0C0C0C0C0C0202020206060606EF
:10019000060606060B0B0B0B0B0B0B0B01021020BC
:1001A00020080810204010204080020102010804AD
:1001B0000201010204081020408080402010080441
:1001C000020180040201804020100804020108049A
:1001D00002010102040810204080010204081020DE
:1001E000408000000A0B02090C0D0E0807030401F1
:1001F00000000000000000000000000000000000FF
:1002000000000000000000000000000000001211CB
:1002100010000000000000000000000000000000CE
:100220000000000000000000911C11241FBECFEF51
:10023000D1E2DEBFCDBF00E00CBF13E0A0E0B2E032
:10024000EAE3FBE300E00BBF02C007900D92AE3182
:10025000B107D9F72CE0AEE1B3E001C01D92A93E91
:10026000B207E1F711E0C5E1D1E000E006C0219757
:100270000109802FFE010E944A1DC431D10780E090
:100280000807A9F70E94250E0C949B1DB9CEFC010E
:10029000918D828D981761F0828DDF01A80FB11DBD
:1002A0005D968C91928D9F5F9F73928F90E00895E1
:1002B0008FEF9FEF0895FC01918D828D981731F09B
:1002C000828DE80FF11D858D90E008958FEF9FEFEF
:1002D0000895FC01918D228D892F90E0805C9F4FC5
:1002E000821B91098F7399270895EF92FF920F93C4
:1002F0001F93CF93DF93EC0181E0888F9B8D8C8DD2
:10030000981305C0E889F989808185FD24C0F62EFF
:100310000B8D10E00F5F1F4F0F731127E02E8C8D98
:10032000E8120CC00FB607FCFACFE889F989808182
:1003300085FFF5CFCE010E94040EF1CF8B8DFE011B
:10034000E80FF11DE35AFF4FF0820B8FEA89FB891A
:100350008081806207C0EE89FF896083E889F9891E
:1003600080818064808381E090E0DF91CF911F9154
:100370000F91FF90EF900895CF93DF93EC01888D5C
:100380008823C9F0EA89FB89808185FD05C0A88999
:10039000B9898C9186FD0FC00FB607FCF5CF80811F
:1003A00085FFF2CFA889B9898C9185FFEDCFCE0169
:1003B0000E94040EE7CFDF91CF9108954F925F9294
:1003C0006F927F928F929F92AF92BF92CF92DF9265
:1003D000EF92FF920F931F93CF93DF93CDB7DEB7CA
:1003E0002E970FB6F894DEBF0FBECDBF6C017B0118
:1003F0005A01F901DC011C968C9190819B879181B7
:100400009C8792819D87813009F03BC08091EA07EB
:100410008F5F982F97709093EA0780FF02C080E863
:1004200001C080E091FD8064947009F0806210E169
:10043000180FFE013B969E01225F3F4F812C9924AD
:1004400093946191662331F070E0C4010E94F91C1D
:100450006F5F01C060E0CF010497DC016C93712FE6
:10046000769F712D1124AF0147505109DA017C9319
:10047000662319F06150DC016C93E217F30709F76A
:1004800006C01A86198618861F821E821D820023C6
:1004900011F003E001C000E06BD3F601278530893D
:1004A000621B730B6A307105B8F3F89415B11460D0
:1004B00085B18B7F85B989849E81482D491B9C8499
:1004C0007B846D843D815F8158844A84D701119675
:1004D0007C91772319F0740F08F47FEF292D729F18
:1004E000712D1124D501F70120E0942F422F622FA6
:1004F000002C15B900C077FF85B960812227889448
:1005000000C000C0002C85B96111630F00C0002C31
:1005100015B900C076FF85B908F46FEF889400C064
:1005200000C000C085B970FC260F00C0002C15B9B2
:1005300000C075FF85B92795889471FC260F00C00F
:1005400000C0002C85B92795889400C0002C15B9EF
:1005500000C074FF85B972FC260F2795889400C0EF
:1005600000C0002C85B973FC260F00C0002C15B903
:1005700000C073FF85B92795889474FC260F00C0CE
:1005800000C0002C85B92795889400C0002C15B9AF
:1005900000C072FF85B975FC260F2795889400C0AE
:1005A00000C0002C85B976FC260F00C0002C15B9C0
:1005B00000C071FF85B92795889477FC260F00C08D
:1005C00000C0002C85B92795889400C0002C15B96F
:1005D00000C070FF85B93195350D00C000C000C066
:1005E000002C85B9722F00C000C015B900C077FF7C
:1005F00085B962812227889400C000C0002C85B98B
:100600006111650F00C0002C15B900C076FF85B9D7
:1006100008F46FEF889400C000C000C085B960FC8A
:10062000260F00C0002C15B900C075FF85B92795AD
:10063000889461FC260F00C000C0002C85B9279566
:10064000889400C0002C15B900C074FF85B962FC05
:10065000260F2795889400C000C0002C85B963FC44
:10066000260F00C0002C15B900C073FF85B927956F
:10067000889464FC260F00C000C0002C85B9279523
:10068000889400C0002C15B900C072FF85B965FCC4
:10069000260F2795889400C000C0002C85B966FC01
:1006A000260F00C0002C15B900C071FF85B9279531
:1006B000889467FC260F00C000C0002C85B92795E0
:1006C000889400C0002C15B900C070FF85B9E00FF8
:1006D000F11D8894722F00C000C0002C85B951957F
:1006E000540D00C0002C15B900C077FF85B9618199
:1006F0002227889400C000C0002C85B96111690FC1
:1007000000C0002C15B900C076FF85B908F46FEF62
:10071000889400C000C000C085B990FC260F00C0BE
:10072000002C15B900C075FF85B92795889491FCF8
:10073000260F00C000C0002C85B92795889400C002
:10074000002C15B900C074FF85B992FC260F2795BF
:10075000889400C000C0002C85B993FC260F00C00F
:10076000002C15B900C073FF85B92795889494FCB7
:10077000260F00C000C0002C85B92795889400C0C2
:10078000002C15B900C072FF85B995FC260F27957E
:10079000889400C000C0002C85B996FC260F00C0CC
:1007A000002C15B900C071FF85B92795889497FC76
:1007B000260F00C000C0002C85B92795889400C082
:1007C000002C15B900C070FF85B99195980D722F56
:1007D00000C000C000C085B9119709F08ACE20EE94
:1007E00031E0D5010E94611DDC01CB01F4E0B6953A
:1007F000A79597958795FA95D1F720E030E0A90164
:100800006AE9A69E412DB69E400D511D1124840F0C
:10081000951FA11DB11D893E43E09407A105B105B7
:1008200088F1885E9340A109B10942E0B695A79589
:10083000979587954A95D1F747E0849F212D949FFE
:10084000200D311D11246091EB0770E0860F971F7A
:10085000820F931F4091E6075091E7076091E807E8
:100860007091E907292F3327420F531F611D711D16
:100870004093E6075093E7076093E8077093E90712
:100880008093EB07789474D1D60150967C936E9345
:100890001F972E960FB6F894DEBF0FBECDBFDF9127
:1008A000CF911F910F91FF90EF90DF90CF90BF906D
:1008B000AF909F908F907F906F905F904F90089532
:1008C00090E0FC013197E231F10508F04EC0882735
:1008D000EE58FF4F8F4F0C944A1D809180008F7708
:1008E00003C0809180008F7D809380000895809167
:1008F0008000877FF9CF84B58F7702C084B58F7D64
:1009000084BD08958091B0008F7703C08091B000BE
:100910008F7D8093B0000895809190008F7707C0FD
:10092000809190008F7D03C080919000877F80939D
:10093000900008958091A0008F7707C08091A0005B
:100940008F7D03C08091A000877F8093A0000895D1
:10095000809120018F7707C0809120018F7D03C097
:1009600080912001877F809320010895FC012081E0
:10097000222321F0269F212D09F02F5F2083089547
:1009800080E991E00895229A089580E090E008952A
:1009900087E39CE09EDC21E0892B09F420E0822F94
:1009A00008950E94711D0F93CF93DF9300D0CDB7B0
:1009B000DEB7AB0119821A821B8200E09E012F5F15
:1009C0003F4FB901FBDC0F900F900F90DF91CF915B
:1009D0000F9108950F9301E0F1DC0F9108950F93AB
:1009E00000E0ECDC0F9108951F920F920FB60F926A
:1009F00011240BB60F922F933F934F935F936F93F6
:100A00007F938F939F93AF93BF93EF93FF9387E36E
:100A10009CE00E94040EFF91EF91BF91AF919F91D6
:100A20008F917F916F915F914F913F912F910F9097
:100A30000BBE0F900FBE0F901F9018951F920F9234
:100A40000FB60F9211240BB60F922F938F939F9393
:100A5000EF93FF93E091470CF091480C8081E09177
:100A60004D0CF0914E0C82FD12C090818091500C83
:100A70008F5F8F732091510C821751F0E091500CD1
:100A8000F0E0E95CF34F958F8093500C01C08081BA
:100A9000FF91EF919F918F912F910F900BBE0F902F
:100AA0000FBE0F901F901895CF93DF93282F30E043
:100AB000F901EE51FE4F8491F901E456FE4FD491B5
:100AC000F901EA5AFE4FC491CC2389F08111F8DE76
:100AD000EC2FF0E0EE0FFF1FE45CFE4FA591B49108
:100AE000EC91ED2381E090E021F480E002C080E011
:100AF00090E0DF91CF910895CF93DF9390E0FC01D8
:100B0000E456FE4F2491FC01EA5AFE4F849188235B
:100B100061F190E0880F991FFC01EE5DFE4FC591D9
:100B2000D491FC01E85FFE4FA591B491611109C019
:100B30009FB7F8948881209582238883EC912E2397
:100B40000BC0623061F49FB7F8943881822F809592
:100B500083238883EC912E2B2C939FBF06C08FB7E5
:100B6000F894E8812E2B28838FBFDF91CF910895D1
:100B70003FB7F8948091150890911608A091170836
:100B8000B091180826B5A89B05C02F3F19F0019613
:100B9000A11DB11D3FBFBA2FA92F982F8827820F03
:100BA000911DA11DB11DBC01CD0142E0660F771F53
:100BB000881F991F4A95D1F708952FB7F89460912F
:100BC000E6077091E7078091E8079091E9072FBF4A
:100BD00008951F920F920FB60F9211242F933F93F7
:100BE0008F939F93AF93BF938091E6079091E70710
:100BF000A091E807B091E9073091140823E0230F92
:100C00002D3720F40196A11DB11D05C026E8230F44
:100C10000296A11DB11D209314088093E6079093BE
:100C2000E707A093E807B093E90780911508909132
:100C30001608A0911708B09118080196A11DB11DC2
:100C40008093150890931608A0931708B09318087E
:100C5000BF91AF919F918F913F912F910F900FBEB8
:100C60000F901F901895FF920F931F93CF93DF93D0
:100C700000D01F92CDB7DEB7FC018B016081F180FF
:100C80004281262F2F71220F220F822F880F35E5E8
:100C9000282F239F212D1124562F5074962F9072A8
:100CA00067FD22C051110CC0911104C0822F8095A4
:100CB0008B8311C08BEA8B832B5A2A83198239C00C
:100CC00091110CC0382F5AEA359F312D11248BEA2F
:100CD000831B8B8325552A8319822BC01B8280E0BE
:100CE000822F80958A830EC0511112C091110CC0C1
:100CF0001B82282F3AEA239F212D11248BEA821B85
:100D00008A832B5A298315C02B831A822095FACF08
:100D1000911108C085E5820F8B831A828BEA821BB2
:100D2000898307C08BEA820F8B831A8280E0321B93
:100D300039832FEFF216E9F06F2DCE0103964C8325
:100D400015DE6F2DCE01029611DE6F2DCE010196BC
:100D50000DDE11246F2D6095669F612D11248B810E
:100D6000860F8B838A81860F8A838981680F6983C6
:100D70004C814F3FB1F0F12C2F2D442321F0449FA3
:100D8000212D09F02F5FF22E622FCE010396EEDDAA
:100D90006F2DCE010296EADD6F2DCE010196E6DDC4
:100DA00011248B81F80180838A81818389818283E8
:100DB0000F900F900F900F90DF91CF911F910F9197
:100DC000FF900895FA01029620E030E026173707D9
:100DD00074F44081DC0112974C93418111964C933D
:100DE0004281DC014C932F5F3F4F0396EFCF089574
:100DF000CF93DF93EC01E1DE688379838A839B8361
:100E0000DF91CF910895CF92DF92EF92FF9286ED1E
:100E100092E0EAD3C0902B0CD0902C0C0D2C000C3F
:100E2000EE08FF08F7FE14C0E091370CF091380C83
:100E30000190F081E02D6DE287E39CE01995662733
:100E40007727CB016C197D098E099F094AE003C001
:100E50004AE0C701B601ACD585EA92E0C5D38091DE
:100E60002B0C90912C0C8B30910531F42BE0EFE1A1
:100E7000FCE0A5E8BBE008C08430910551F42BE00C
:100E8000EFE1FCE0ABE9BBE001900D922A95E1F7C0
:100E900027C08330910551F42BE0EFE1FCE0A0E99D
:100EA000BBE001900D922A95E1F727C085309105AE
:100EB00051F42BE0EFE1FCE0A6EABBE001900D92DB
:100EC0002A95E1F727C08630910551F42BE0EFE138
:100ED000FCE0A1EBBBE001900D922A95E1F734C054
:100EE0008730910551F42BE0EFE1FCE0ACEBBBE087
:100EF00001900D922A95E1F730C08830910551F4A8
:100F00002BE0EFE1FCE0A2EDBBE001900D922A9511
:100F1000E1F72CC08930910551F42BE0EFE1FCE0C2
:100F2000ADEDBBE001900D922A95E1F728C08A3023
:100F3000910551F42BE0EFE1FCE0A8EEBBE001905D
:100F40000D922A95E1F724C08130910531F48BE0B0
:100F5000EFE1FCE0A7ECBBE022C08230910531F468
:100F60008BE0EFE1FCE0A9E0BCE019C08C3091051A
:100F700031F48BE0EFE1FCE0A3EFBBE010C08D307B
:100F8000910531F48BE0EFE1FCE0AEEFBBE007C090
:100F90000E9749F48BE0EFE1FCE0A4E1BCE00190A6
:100FA0000D928A95E1F7FF90EF90DF90CF90089532
:100FB00081E080932A0C80912D0C90912E0C9093BF
:100FC0002C0C80932B0C0895CF92DF92EF92FF921E
:100FD0000F931F93CF93DF938C01EB018091820BD2
:100FE000811104C08091830B882321F0C2E3D0E0FB
:100FF00002E310E0E2DDC090FD07D090FE07E09034
:10100000FF07F0900008AB01BC014C195D096E09A7
:101010007F09C801A0E0B0E084179507A607B707CD
:1010200020F48091FC078823A9F0C7DDAB01BC0147
:101030004C195D096E097F09CE01A0E0B0E084176C
:101040009507A607B70708F036C08091FC078823EC
:1010500009F431C0B2DD6093FD077093FE07809301
:10106000FF07909300081091FC0781E01827109368
:10107000FC07EFEEF1E08491E9EAF1E0D491E3E6D8
:10108000F1E0C491CC23B9F081111ADCEC2FF0E02F
:10109000EE0FFF1FE85FFE4FA591B4918FB7F89454
:1010A000111105C09C91ED2FE095E92302C0EC9150
:1010B000ED2BEC938FBFDF91CF911F910F91FF909C
:1010C000EF90DF90CF900895AF92BF92CF92DF92D2
:1010D000EF92FF920F931F93CF93DF931F92CDB7A1
:1010E000DEB7A0901E03B0901F0375018DEAE80ED5
:1010F000F11CC70196D2882349F184E8C82E8BE001
:10110000D82E85010F5F1F4F80910D0290910E0226
:1011100080179107BCF482E692E077D280E0F60176
:1011200061916F01861749F0C80169837AD269819C
:10113000882319F0C5010E948D1D58010E151F0549
:1011400001F704C0C5010E94851DE9CF0F90DF9112
:10115000CF911F910F91FF90EF90DF90CF90BF90B4
:10116000AF900895FC01DB013C912081230F08F42E
:101170002FEF208311963C9111972181230F08F4C2
:101180002FEF218312963C912281230F08F42FEF39
:1011900022830895CF92DF92EF92FF921F93CF9315
:1011A000DF93EC010ADDC880D980EA80FB80DC0196
:1011B000CB018C199D09AE09BF0911E0CC80DD80FF
:1011C000EE80FF808C159D05AE05BF0510F410E084
:1011D00002C0CE010DDE812FDF91CF911F91FF90D4
:1011E000EF90DF90CF9008950F931F93CF93DF93ED
:1011F00000D000D0CDB7DEB789E693E0E9E1F8E0B2
:10120000A0E2B3E001900D920197E1F78091220CEA
:101210009091230C892B89F41C821D821E82BE01B1
:101220006F5F7F4FCE0104961EDDAE014F5F5F4FB3
:1012300066EB70E087E694E0C5DD8091220C90912A
:10124000230C019789F41C821D821E82BE016F5FF0
:101250007F4FCE01049607DDAE014F5F5F4F64EC18
:1012600070E080E293E0AEDD8091220C9091230C3F
:10127000039751F08091820B882331F189E18093AB
:1012800013081092820B20C00091280C10E0E2E2BB
:10129000F3E020E030E0233281E0380781F0C9013B
:1012A000B8010E94E51C892B31F0DF0112971C92D6
:1012B00011961C9210822F5F3F4F3396ECCF3093E4
:1012C000020820930108D6CF80911308882309F4DF
:1012D0006DC08091830B882381F1198290E89A83F5
:1012E0001B821AE0612F0E94D91C682F70E0AE01AA
:1012F0004F5F5F4F80E293E065DD19821A821B82A7
:101300008091830B612F0E94D91C90E069E170E00D
:10131000681B790B9C01220F331F820F931FAE01B4
:101320004F5F5F4F805E9C4F4DDD8FEF80936B036F
:1013300010926C0310926D030EC01092230380E88C
:1013400080932403109225038FEF8093260310923D
:101350002703109228038FEF80932003109221031C
:101360001092220380910B08811112C083E098E053
:101370003FDD84E690E0A0E0B0E080930708909322
:101380000808A0930908B0930A0881E080930B082D
:1013900083E098E0FFDE882349F0809113088150B4
:1013A00080931308811102C01092830B8091D40C9A
:1013B0005DD126960FB6F894DEBF0FBECDBFDF918C
:1013C000CF911F910F910895CF93C82F8091F4076B
:1013D000811112C08CEE97E00BDD84E190E0A0E07B
:1013E000B0E08093F0079093F107A093F207B093D9
:1013F000F30781E08093F4078CEE97E0CBDE88233F
:10140000A1F14091D40C242F30E02C1B3109C901EB
:101410000A96459710F092E001C091E0B9016C5E28
:101420007F4F6932710508F094E0B901625E7F4F29
:101430006D33710508F098E0B901685D7F4F613543
:10144000710508F090E12A5B3F4F2D38310508F017
:1014500090E24C1718F4490F4093D40C2091D40C0F
:10146000C21718F4291B2093D40CCF9108954091F2
:101470000B0250910C0225E038E0429FD001439FBF
:10148000B00D529FB00D1124A75EB94CB0930C0261
:10149000A0930B029C010C94521D08950F931F936F
:1014A000CF93DF938C01C62FD42F8F3F910509F086
:1014B00010F4102F002781DB9B01AC01A8E1B1E003
:1014C0000E94671D9B01AC01D8010E94671D292F56
:1014D00096FD2095E22FEF732F7096FD2F5FE69516
:1014E000E695E695E670F0E0E65BFD4F3181329FD0
:1014F000202D312D112422952F703295307F232BF2
:101500003081230F97FD21953D2F3C1B2058239FB1
:10151000212D1124822F8C0FDF91CF911F910F91DC
:101520000895EF92FF920F931F93CF93DF937C0167
:101530008B01EA018FEFE816F10409F010F4FE2C9C
:10154000EE243BDB9B01AC01A8E1B1E00E94671DEA
:101550009B01AC01D7010E94671DAC01662777276C
:101560009A013F7336952795369527953695279599
:10157000CA0188279074892B31F08FEF97E0FC0126
:10158000E21BF30B9F01E32FEE0FEE0FF0E0E55DA2
:10159000FD4F8081918132812695329F800D911D72
:1015A000112457FF03C0919581959109AC015058C2
:1015B000C01BD10B60E070E0CB0120E04C9FB0017C
:1015C0005D9FC0015C9F700D811D921F4D9F700D2E
:1015D000811D921F1124800F911FDF91CF911F91C8
:1015E0000F91FF90EF900895009761F0FC0101903A
:1015F0000020E9F73197AF01481B590BBC0187E385
:101600009CE0D7C280E090E00895CF93DF93ECDFB9
:10161000EC0185EA92E0E8DF8C0F9D1FDF91CF910E
:1016200008952091E70C3091E80C2F5F3F4F3093E5
:10163000E80C2093E70C4091DB0C5091DC0C411539
:10164000510519F0421753071CF48BEF92E009C0C3
:1016500020910D0230910E02281739072CF482E6F2
:1016600092E0D3DF80E0089581E008953F924F92A9
:101670005F926F927F928F929F92AF92BF92CF9222
:10168000DF92EF92FF920F931F93CF93DF9300D0DF
:10169000CDB7DEB7D82E8091D70C9091D80CA09101
:1016A000D90CB091DA0C892B8A2B8B2BE1F060DA04
:1016B0000091E30C1091E40C2091E50C3091E60CC4
:1016C000DC01CB01801B910BA20BB30B0091D70C5B
:1016D0001091D80C2091D90C3091DA0C8017910719
:1016E000A207B307C0F244DA6093E30C7093E40CF2
:1016F0008093E50C9093E60C0091350C1091360C1C
:101700004D2C512C612C712C0115110509F461C06F
:10171000D8011C96CC901C978091D50C9091D60C3A
:101720008436910510F41C961C92D801ED91FC9121
:10173000A280B38019821A821B82D11014C0F801D2
:1017400045855685628173819E012F5F3F4FC80199
:10175000F5011995D8011C96CC921C9714960D9101
:101760001C911597D1CFF8013996CE0101967C01D5
:1017700048019CE0890E911CDF0113973C90219158
:10178000332001F12223F1F0822F90E0A0E0B0E0BD
:101790009C01AD012F5F3F4F4F4F5F4FC301B2011F
:1017A0000E94CA1C9B01AC01832D90E0A0E0B0E038
:1017B000BC01CD016F5F7F4F8F4F9F4F0E94CA1CAE
:1017C000D7018C93BFEFEB1AFB0AE815F905A1F6D8
:1017D000B6CF8091E10C9091E20C8C010F5F1F4F0E
:1017E0001093E20C0093E10C49978CF1E6D94B0180
:1017F0005C0188EE93E0089FB001099F700D189F6F
:10180000700D1124072E000C880B990BC090DD0C75
:10181000D090DE0CE090DF0CF090E00CA50194017C
:101820002C193D094E095F090E940C1D3093D60CFE
:101830002093D50C1092E20C1092E10CBED960936B
:10184000DD0C7093DE0C8093DF0C9093E00C0F9016
:101850000F900F90DF91CF911F910F91FF90EF901C
:10186000DF90CF90BF90AF909F908F907F906F90C0
:101870005F904F903F900895CF92EF920F93CF9348
:10188000DF93362FFA01C091310CD091320C90E0E9
:10189000C817D90791F58091340C9091330C8111C0
:1018A00002C0992351F18081422F50E0682F70E0EF
:1018B000992349F04C0D511D4617570714F48C1904
:1018C00008C0208307C04E0D511D46175707CCF79F
:1018D0008E19808381E080932F0C8093820B602F80
:1018E00070E08FEF90E00E94F91C8081869F602D50
:1018F00011246093830B1092340C632F70E0C61791
:10190000D70791F58091340C9091330C811102C06E
:10191000992351F18081602F70E0282F30E0AB01D6
:10192000992351F04C195109241735071CF4C80E9E
:10193000C08209C0008307C04E195109241735071A
:10194000CCF7E80EE08281E080932F0C8093820B2D
:101950008FEF90E00E94F91C8081869F602D1124FA
:101960006093830B1092340CDF91CF910F91EF9025
:10197000CF900895CF93DF93382FE9E1F8E0ABE102
:10198000B8E02081239F212D2083ED012A91239F00
:10199000212D28832C91239F212D2C9311243396C4
:1019A00013968BE0E238F80761F7DF91CF91089545
:1019B0008F929F92AF92BF920F931F93CF93DF931B
:1019C000CDB7DEB7A1970FB6F894DEBF0FBECDBF7F
:1019D00019A2423008F44AE08E010F5D1F4F842E99
:1019E000912CA12CB12CA50194010E940C1DE62F75
:1019F000B901CA0101501109EA3014F4E05D01C0D7
:101A0000E95CD801EC93232B242B252B61F7C8012B
:101A1000EBDDA1960FB6F894DEBF0FBECDBFDF9110
:101A2000CF911F910F91BF90AF909F908F9008958D
:101A30004F925F926F927F928F929F92AF92BF92DE
:101A4000CF92DF92EF92FF920F931F93CF93DF938A
:101A500000D0CDB7DEB7DC01FB01908141810C9154
:101A60001196EC91119712962C91411101C0902F73
:101A7000222311F0E11101C0092FF0E030E0901BAA
:101A800050E8959FC001112452E2E52EFF24F39403
:101A9000B7010E94F91C5B01842F90E08E1B9F0B05
:101AA0009695982F882797958795B7010E94F91CDE
:101AB0006B018FEF90E0821B930B9695982F8827F0
:101AC00097958795B7010E94F91CAA0CBB1CCC0CFA
:101AD000DD1C7B01EE0CFF1C10E0102F00277E2E7A
:101AE0006624922E882459E1452E58E0552E1983FC
:101AF0007A829B82B201CE010196B5D80A0D1B1DD8
:101B00006C0C7D1C8E0C9F1C83E0480E511CE2E87F
:101B10004E16EBE05E0659F70F900F900F90DF9195
:101B2000CF911F910F91FF90EF90DF90CF90BF90DA
:101B3000AF909F908F907F906F905F904F9008959F
:101B400080E090E0892B21F00E94C804811125C01B
:101B500080E090E0892B41F080E090E0892B21F03B
:101B60000E94000081111CC080E090E0892B41F0B0
:101B700080E090E0892B21F00E940000811113C0C9
:101B800080E090E0892BA1F080E090E0892B81F04B
:101B90000E94000081110AC008950E940000D8CF61
:101BA0000E940000E1CF0E940000EACF0C940000E8
:101BB0000895CF92DF92EF92FF920F931F93CF93EE
:101BC000DF936C017A018B01C0E0D0E0CE15DF0518
:101BD00089F0D8016D918D01D601ED91FC910190B4
:101BE000F081E02DC6011995892B11F47E0102C008
:101BF0002196ECCFC701DF91CF911F910F91FF90FC
:101C0000EF90DF90CF900895FC01848DDF01A80F45
:101C1000B11DA35ABF4F2C91848D90E001968F7314
:101C20009927848FA689B7892C93A089B1898C9133
:101C300080648C93938D848D981306C00288F389F9
:101C4000E02D80818F7D80830895CF93DF9300D036
:101C500000D0CDB7DEB7789484B5826084BD84B5FA
:101C6000816084BD85B5826085BD85B5816085BD97
:101C700080916E00816080936E001092810080914F
:101C800081008260809381008091810081608093D7
:101C90008100809180008160809380008091B100FC
:101CA00084608093B1008091B00081608093B00027
:101CB0008091910082608093910080919100816079
:101CC000809391008091900081608093900080913A
:101CD000A10082608093A1008091A1008160809327
:101CE000A1008091A00081608093A00080912101DB
:101CF0008260809321018091210181608093210184
:101D00008091200181608093200180917A0084601D
:101D100080937A0080917A00826080937A0080912B
:101D20007A00816080937A0080917A008068809345
:101D30007A001092C10080919C06811145C01092DA
:101D40008E0610928D068FEF8093910680939206F7
:101D500080939306809394068093950680939606CD
:101D600081E080939706109299061092980610923F
:101D7000900610928F068091350C9091360C892B2D
:101D800031F48BE896E09093360C8093350CE0911B
:101D90008906F0918A06309721F08BE896E09583CA
:101DA00084838BE896E090938A068093890610924C
:101DB0009B0610929A0681E292E090938C068093A3
:101DC0008B0681E080939C06E0918B06F0918C0657
:101DD0000480F581E02D8BE896E0199580E293E090
:101DE00090938E0680938D0683E291E090939906FE
:101DF00080939806E0918B06F0918C060084F18523
:101E0000E02D8BE896E01995009729F19C0140E0C0
:101E100050E060E472E48FE090E00E942E1D722F8B
:101E2000632F0091D70C1091D80C2091D90C3091D0
:101E3000DA0C872F962FDA0180179107A207B307D4
:101E400010F4D901C8018093D70C9093D80CA093BB
:101E5000D90CB093DA0C1092D40C60E084E20E94AA
:101E60007C0560E082E20E947C0560E08EE10E94D9
:101E70007C0560E08CE10E947C0560E08AE10E94C4
:101E80007C0560E088E10E947C0560E086E10E94BC
:101E90007C0561E08DE00E947C052091A6063091D2
:101EA000A7068091A4069091A5062817390731F45A
:101EB00080E290E09093A5068093A4068091A4060A
:101EC0009091A5069093A7068093A6068130904135
:101ED00014F00C94E71B80E090E190930E02809345
:101EE0000D020091A6061091A706C80183559F4FC9
:101EF0009093A7068093A60620910D0230910E02C2
:101F00002817390744F482E692E07FDB66277727BB
:101F1000601B710B01C0B80170931F0360931E0317
:101F20004DEA50E084E89BE00E94751D81E09091AD
:101F3000840B973009F080E0809300028111B0C0DB
:101F400080E880931F0C82E090E09093230C8093B4
:101F5000220C83E08093280C8FEF8093200C81E08B
:101F60008093210C40EE51EF6FEF70E04093240C12
:101F70005093250C6093260C7093270C80932F0CA4
:101F800021E030E030932C0C20932B0C10922E0C7F
:101F900010922D0C80932A0C8093300C8BE0EFE193
:101FA000FCE0A6EABBE001900D928A95E1F78BE098
:101FB000EFE1FCE0A2EDBBE001900D928A95E1F724
:101FC0008BE0EFE1FCE0ADEDBBE001900D928A9576
:101FD000E1F78BE0EFE1FCE0A1EBBBE001900D92BB
:101FE0008A95E1F78BE0EFE1FCE0A5E8BBE001902A
:101FF0000D928A95E1F78BE0EFE1FCE0A3EFBBE007
:1020000001900D928A95E1F78BE0EFE1FCE0AEEFF5
:10201000BBE001900D928A95E1F78BE0EFE1FCE0E7
:10202000A7ECBBE001900D928A95E1F78BE0EFE120
:10203000FCE0A9E0BCE001900D928A95E1F78BE00D
:10204000EFE1FCE0A8EEBBE001900D928A95E1F78C
:102050008BE0EFE1FCE0ACEBBBE001900D928A95E8
:10206000E1F78BE0EFE1FCE0A0E9BBE001900D922D
:102070008A95E1F78BE0EFE1FCE0ABE9BBE0019092
:102080000D928A95E1F78BE0EFE1FCE0A4E1BCE082
:1020900001900D928A95E1F787E08093840B14D824
:1020A00081E080932F0C80932A0CE091350CF09105
:1020B000360C309729F084870480F581E02DF9CF24
:1020C00028E2822E912CA12CB12C32E3432E512CEC
:1020D000612C712C8091B10681110FC089EA96E0C4
:1020E0000E94F8068092AD069092AE06A092AF06CE
:1020F000B092B00681E08093B10689EA96E04AD8B2
:10210000882309F453C284E20E9454052091A80652
:10211000422F50E08417950709F43FC281E08227DF
:102120008093A80686E10E945405892BB1F488E1CA
:102130000E945405892B89F48AE10E945405892B59
:1021400061F48CE10E945405892B39F48EE10E94E0
:102150005405892B11F40C94ED1B86E10E94540563
:10216000892BB1F488E10E945405892B89F48AE116
:102170000E945405892B61F48CE10E945405892B3F
:1021800039F48EE10E945405019711F40C94F51B6B
:1021900086E10E945405892BB1F488E10E94540520
:1021A000892B89F48AE10E945405892B61F48CE122
:1021B0000E945405019739F48EE10E945405892B41
:1021C00011F40C94FD1B86E10E945405892BB1F497
:1021D00088E10E945405892B89F48AE10E94540504
:1021E000892B61F48CE10E945405019739F48EE14A
:1021F0000E945405019711F40C94051C86E10E947D
:102200005405892BB1F488E10E945405892B89F487
:102210008AE10E945405019761F48CE10E94540503
:10222000892B39F48EE10E945405892B11F40C940A
:102230000D1C86E10E945405892BB1F488E10E94AF
:102240005405892B89F48AE10E945405019761F4B1
:102250008CE10E945405892B39F48EE10E945405CB
:10226000019711F40C94151C86E10E945405892BEA
:10227000B1F488E10E945405892B89F48AE10E9417
:102280005405019761F48CE10E945405019739F4DB
:102290008EE10E945405892B11F40C941D1C86E1DB
:1022A0000E945405892BB1F488E10E945405892BC2
:1022B00089F48AE10E945405019761F48CE10E943F
:1022C0005405019739F48EE10E945405019711F4E9
:1022D0000C94251C86E10E945405892BB1F488E1F9
:1022E0000E945405019789F48AE10E945405892BC4
:1022F00061F48CE10E945405892B39F48EE10E942F
:102300005405892B11F40C942D1C86E10E94540570
:10231000892BB1F488E10E945405019789F48AE180
:102320000E945405892B61F48CE10E945405892B8D
:1023300039F48EE10E945405019711F40C94351C78
:1023400086E10E945405892BB1F488E10E9454056E
:10235000019789F48AE10E945405892B61F48CE18C
:102360000E945405019739F48EE10E945405892B8F
:1023700011F40C943B1C86E10E945405892BB1F4A6
:1023800088E10E945405019789F48AE10E9454056E
:10239000892B61F48CE10E945405019739F48EE198
:1023A0000E945405019711F40C94431C86E10E948D
:1023B0005405892BB9F488E10E945405019791F4E2
:1023C0008AE10E9454058C01019761F48CE10E941E
:1023D0005405892B39F48EE10E945405892B11F4A0
:1023E0000C944B1C86E10E945405892BB1F488E1C2
:1023F0000E945405019789F48AE10E9454050197CF
:1024000061F48CE10E945405892B39F48EE10E941D
:102410005405019711F40C94511C86E10E94540557
:10242000892BB1F488E10E945405019789F48AE16F
:102430000E945405019761F48CE10E9454050197B4
:1024400039F48EE10E945405892B11F40C94591C27
:1024500086E10E945405892BB1F488E10E9454055D
:10246000019789F48AE10E945405019761F48CE197
:102470000E945405019739F48EE10E94540501979A
:1024800011F40C94611C86E10E9454050197B1F48B
:1024900088E10E945405892B89F48AE10E94540541
:1024A000892B61F48CE10E945405892B39F48EE16B
:1024B0000E945405892B11F40C94691C86E10E943A
:1024C00054050197B1F488E10E945405892B89F4E1
:1024D0008AE10E945405892B61F48CE10E94540525
:1024E000892B39F48EE10E945405019711F40C9464
:1024F000711C86E10E9454050197B1F488E10E94A5
:102500005405892B89F48AE10E945405892B61F4D2
:102510008CE10E945405019739F48EE10E94540524
:10252000892B11F40C94791C86E10E9454050197C3
:10253000B1F488E10E945405892B89F48AE10E9454
:102540005405892B61F48CE10E945405019739F4FC
:102550008EE10E945405019711F40C94811C86E1D0
:102560000E9454050197B1F488E10E945405892B1B
:1025700089F48AE10E945405019761F48CE10E947C
:102580005405892B39F48EE10E945405892B11F4EE
:102590000C94891C81E08093340C82E20E945405E3
:1025A00021E0892B09F420E02093330C8091DE0791
:1025B000811113C086ED97E00E94F80684E690E052
:1025C000A0E0B0E08093DA079093DB07A093DC07EC
:1025D000B093DD0781E08093DE0786ED97E00E94EF
:1025E000CA08882309F477C08091310C9091320C8D
:1025F0000A9709F070C08091340C882309F46BC0ED
:1026000090912A0C81E0892780932A0C811130C097
:102610000E94640811E08091D40C882309F459C009
:102620008091C106811112C089EB96E00E94F806E4
:102630002EE130E040E050E02093BD063093BE062E
:102640004093BF065093C0061093C10689EB96E0F5
:102650000E94CA08882329F080E00E94E4090E94B1
:10266000F4086AE070E084E690E00E94E407D3CFCB
:1026700011E09091D40C80911F0C981739F1809142
:10268000D10681110EC089EC96E00E94F806809276
:10269000CD069092CE06A092CF06B092D0061093AF
:1026A000D10689EC96E00E94CA08882341F0809107
:1026B0001F0C0E94E4098091D40C0E94360B64E642
:1026C00070E08AE090E00E94E407D3CF81E080933D
:1026D0002F0C1092340C8091E10681110FC089ED0E
:1026E00096E00E94F8068092DD069092DE06A092A7
:1026F000DF06B092E00681E08093E10689ED96E086
:102700000E94CA08882309F4BAC18091340C882336
:10271000B1F18091310C9091320C069781F50E94B5
:10272000030780912A0C811102C00E94D807809172
:102730002B0C90912C0C019751F482E090E0909337
:102740002C0C80932B0C8BE0E9E0FCE009C081E0CD
:1027500090E090932C0C80932B0C8BE0E7ECFBE04B
:10276000AFE1BCE001900D928A95E1F781E08093A2
:102770002F0C1092340C8093820B1092830B80915B
:10278000340C882331F18091310C9091320C0497F4
:1027900001F50E94030780912A0C811102C00E945A
:1027A000D8078EE090E090932C0C80932B0C8BE05C
:1027B000E4E1FCE0AFE1BCE001900D928A95E1F725
:1027C00081E080932F0C1092340C8093820B109236
:1027D000830B8091340C882309F449C08091310C1B
:1027E0009091320C089709F042C00E940307809133
:1027F0002A0C811102C00E94D80780912B0C909165
:102800002C0C8430910579F085309105B1F0039757
:10281000A1F484E090E090932C0C80932B0C8BE03F
:10282000EBE9FBE013C085E090E090932C0C8093E3
:102830002B0C8BE0E6EAFBE009C083E090E090938C
:102840002C0C80932B0C8BE0E0E9FBE0AFE1BCE0CB
:1028500001900D928A95E1F781E080932F0C80938F
:10286000300C1092340C8093820B1092830B809169
:10287000340C8823C1F18091310C9091320C059772
:1028800091F50E94030780912A0C811102C00E94D9
:10289000D80780912B0C90912C0C069751F487E06F
:1028A00090E090932C0C80932B0C8BE0ECEBFBE0F6
:1028B00009C086E090E090932C0C80932B0C8BE069
:1028C000E1EBFBE0AFE1BCE001900D928A95E1F70E
:1028D00081E080932F0C8093300C1092340C809305
:1028E000820B1092830B8091340C882309F446C02C
:1028F0008091310C9091320C029709F03FC00E94F8
:10290000030780912A0C811102C00E94D807809190
:102910002B0C90912C0C8830910561F00997A1F453
:102920008AE090E090932C0C80932B0C8BE0E8EEE7
:10293000FBE013C089E090E090932C0C80932B0C6B
:102940008BE0EDEDFBE009C088E090E090932C0C6B
:1029500080932B0C8BE0E2EDFBE0AFE1BCE001905B
:102960000D928A95E1F781E080932F0C8093300CD3
:102970001092340C8093820B1092830B8091340C54
:10298000882309F442C08091310C9091320C079752
:10299000E1F50E94030780912A0C811102C00E9478
:1029A000D80780912B0C90912C0C8B30910561F005
:1029B0000C97A1F48DE090E090932C0C80932B0C5D
:1029C0008BE0EEEFFBE012C08CE090E090932C0CDB
:1029D00080932B0C8BE0E3EFFBE008C08BE090E0F2
:1029E00090932C0C80932B0CE5E8FBE0AFE1BCE06E
:1029F00001900D928A95E1F781E080932F0C10925F
:102A0000340C8093820B1092830B8091340C8823BA
:102A1000B1F18091310C9091320C099781F50E94AF
:102A2000030781E090E090932C0C80932B0C8BE0BB
:102A3000E7ECFBE0AFE1BCE001900D928A95E1F795
:102A40008FEF80931F0C81E080932F0C2FEF3FEFCF
:102A50004FEF50E02093240C3093250C4093260C2C
:102A60005093270C90912A0C911102C080932A0C4C
:102A70001092340C81E08093820B1092830B809132
:102A80002A0C882309F499C68091CE07811113C0BE
:102A900086EC97E00E94F80684E690E0A0E0B0E0C3
:102AA0008093CA079093CB07A093CC07B093CD0730
:102AB00081E08093CE0786EC97E00E94CA088823C5
:102AC00009F41DC10AE0C02E85E0E82E0FEF2AE0D0
:102AD00040E25CE062E180E10E943C0C92E0C92EA1
:102AE000EE24E39421E041E25CE06FE08DE00E949F
:102AF0003C0C8091220C9091230C039739F4CC2448
:102B0000C39409E122E048E25CE008C0BAE0CB2EC1
:102B100015E0E12E0FEF21E049E25CE064E180E0A6
:102B20000E943C0CFAE0CF2EA5E0EA2E0FEF25E044
:102B30004FE15CE06BE081E10E943C0C8091340C41
:102B4000882379F18091310C9091320C0C9749F5E2
:102B50008091220C9091230C8130910571F02CF41E
:102B6000892B91F481E090E00AC08230910561F0F8
:102B7000039751F482E090E002C083E090E09093EC
:102B8000230C8093220C04C01092230C1092220C70
:102B90001092340C81E080932F0C8093820B109262
:102BA000830B8091340C882309F4A9C08091330CE5
:102BB0008111A5C08091310C9091320C0E9709F0D3
:102BC0009EC080912B0C90912C0C0197029708F0DD
:102BD0008BC08091240C9091250CA091260CB09173
:102BE000270C8A3A26ED92072FEFA207B10509F4C8
:102BF00053C034F5893243E994074FEFA407B10578
:102C000009F440C05CF48F3F924EA94CB10509F025
:102C10005BC08FEF9CE9A0E4B0E05AC08C353CEA81
:102C200093073FEFA307B10591F18F38954CAF4F54
:102C3000B10509F049C08AEA96EDAFEFB0E048C0AF
:102C4000843F5AEF95075FEFA507B10551F154F4A2
:102C5000803E914FAF4FB105B9F584EF9AEFAFEFDA
:102C6000B0E036C08B3F4FEF9407A407B105F1F0F9
:102C70008F3F9F4FAF4FB10539F52FEF32EE49EC43
:102C800050E019C08CE59CEAAFEFB0E021C08FE8BE
:102C900095ECAFEFB0E01CC080EE91EFAFEFB0E08D
:102CA00017C02BEF3FEF4FEF50E005C08FEF9FEFC6
:102CB000AFEFB0E00DC02093240C3093250C40936F
:102CC000260C5093270C0CC089E293E9AFEFB0E0DB
:102CD0008093240C9093250CA093260CB093270C82
:102CE00081E080932F0C06C09091300C81E0892701
:102CF0008093300C1092340C81E08093820B809191
:102D0000BE0781110FC086EB97E00E94F806809203
:102D1000BA079092BB07A092BC07B092BD0781E0B2
:102D20008093BE0786EB97E00E94CA08882321F0B3
:102D300080911F0C0E94E40980912B0C90912C0C27
:102D400020912D0C30912E0C8217930739F090931F
:102D50002E0C80932D0C21E020932F0C9C012150F0
:102D6000310922303105C0F420912F0C222309F4BF
:102D700004C18091240C9091250C2091260C29836C
:102D80009A838B83AE014F5F5F4F63E271E089E10D
:102D900098E00E94E20657C48830910509F08BC084
:102DA00020912F0C222309F40FC42091300C2223F0
:102DB00009F40AC40E94DD0528EE33E040E050E04B
:102DC0002BD6CA01B9012FE030E040E050E024D614
:102DD000909102029617A1F060930202653059F0BB
:102DE00028F461110DC0109201020AC06A3029F066
:102DF0006F3019F005C083E001C081E080930102CB
:102E00008091F30681110FC08BEE96E00E94F806C8
:102E10008092EF069092F006A092F106B092F20630
:102E200081E08093F3068BEE96E00E94CA08882327
:102E300009F4BBC26091210C462F440F669585E0D2
:102E400090E00E944E0A80950E94BA0C83E291E0C5
:102E50000E94370A7C010091E9061091EA068EEF84
:102E600091E00E94370A800F911F9695879596955D
:102E700087958C838FEF8D838E83BE016F5F7F4F2D
:102E8000CE0104960E943306C701880F991F8E0D4C
:102E90009F1DBE016F5F7F4F875E974F0E94B208F4
:102EA00080910102080F111D87FD1A951093EA0603
:102EB0000093E9067AC28330910509F05EC0209143
:102EC0002F0C222309F480C32091300C222309F413
:102ED0007BC38091050781110FC08DEF96E00E94A2
:102EE000F8068092010790920207A0920307B09221
:102EF000040781E0809305078DEF96E00E94CA08E1
:102F0000882309F452C29091200C00910302098396
:102F10009A838FEF8B831091FC061C839D838E8395
:102F2000BE016F5F7F4FCE0104960E94180D809105
:102F3000210C813878F090E0805891096AE070E0C7
:102F400058D51F5F160F1093FC060F5F600F60933C
:102F500003022BC29091FB06981748F481E88093F6
:102F6000FB061F5F1093FC060F5F00930302809126
:102F7000FB0681508093FB0618C28430910509F04E
:102F800093C020912F0C222309F41EC32091300CF2
:102F9000222309F419C38091170781110FC08FE014
:102FA00097E00E94F8068092130790921407A0926F
:102FB0001507B092160781E0809317078FE097E01E
:102FC0000E94CA08882309F4F0C19091200C109146
:102FD000040219839A838FEF8B8300910E070C8371
:102FE0009D838E83BE016F5F7F4FCE0104960E944A
:102FF000180D2091210C2138A0F130E0C9018B542B
:1030000091096AE0E62EF12CB701F3D4FB01319669
:10301000C90180589109B701ECD46F5F7F4FAF01B0
:1030200085E090E00E94910A800F80930E07209126
:10303000210C30E0C9018B549109B701DAD4FB01AE
:103040003196C90180589109B701D3D46F5F7F4F82
:10305000AF0185E090E00E94910A810F8093040205
:10306000A4C180910D078217C8F481E880930D07F1
:1030700044E050E061E070E083E090E00E94910A5B
:10308000800F80930E0744E050E061E070E083E041
:1030900090E00E94910A810F8093040280910D07B5
:1030A000815080930D0781C18530910509F06CC076
:1030B00020912F0C222309F487C22091300C222367
:1030C00009F482C280912707811113C08FE197E034
:1030D0000E94F80624E130E040E050E0209323070E
:1030E00030932407409325075093260781E080936F
:1030F00027078FE197E00E94CA08882309F455C189
:103100008091200C6FE055D4F82E8091210C86958B
:1031100086954FEF50E060E070E090E00E94910AE9
:103120008C018091210C66E044D44FEF50E060E0C8
:1031300070E090E00E94910A080F191F8091210C05
:103140006AE037D44FEF50E060E070E090E00E941A
:10315000910A800F911F63E070E037D469838FEF8D
:103160008B8380EF8A8309E118E0B801CE010196D4
:103170000E94330689818F0D89830D5F1F4F3BE0CD
:103180000238130791F711C18630910509F05EC02E
:1031900020912F0C222309F417C22091300C2223F6
:1031A00009F412C28091380781110FC080E397E0C3
:1031B0000E94F8068092340790923507A092360755
:1031C000B092370781E08093380780E397E00E9450
:1031D000CA08882309F4E9C09091200C00910602E6
:1031E00009839A838FEF8B8310912F071C839D8314
:1031F0008E83BE016F5F7F4FCE0104960E94180D33
:103200008091210C813878F090E0805891096AE033
:1032100070E0EFD31F5F160F10932F070F5F600F43
:1032200060930602C2C090910502981748F481E8A5
:10323000809305021F5F10932F070F5F0093060214
:1032400080910502815080930502AFC087309105BF
:1032500009F0AFC020912F0C222309F4B5C12091B1
:10326000300C222309F4B0C180914C0781110FC0AA
:1032700084E497E00E94F8068092480790924907FC
:10328000A0924A07B0924B0781E080934C0784E4F8
:1032900097E00E94CA08882309F487C08091210C16
:1032A000813870F06091430721E0260F90E080584C
:1032B00091096AE070E09DD3620F6093430711C0EB
:1032C00090910702981740F481E88093070280915B
:1032D00043078F5F8093430780910702815080935B
:1032E0000702409142078091400790914107423088
:1032F000A1F038F4442371F0413039F589831A8202
:1033000012C0443091F068F04530F9F419821A8205
:103310008B8313C089831A8202C019828A831B821D
:1033200007C019828A831B8208C019821A828B8384
:1033300020914307820F911D04C020914307821BF7
:103340009109909341078093400720914007309165
:1033500041072F3F310559F054F02FEF30E0309303
:1033600041072093400781E0840F809342078091BA
:1033700040079091410797FF09C0109241071092B2
:103380004007809142078F5F8093420780914207F8
:10339000863010F010924207AE014F5F5F4F63E23C
:1033A00071E089E198E00E94E20681E080932F0CB1
:1033B000FDC18930910509F07CC020912F0C22239A
:1033C00009F402C12091300C222309F4FDC00E94AF
:1033D000DD0528EE33E040E050E01ED3CA01B9011C
:1033E0002FE030E040E050E017D390910A029617AA
:1033F000B9F060930A02653069F028F4611110C0D9
:1034000082E390E009C06A3029F06F3049F48AEA1B
:1034100090E002C08FEF90E0909309028093080241
:1034200080915C0781110FC084E597E00E94F80647
:103430008092580790925907A0925A07B0925B0762
:1034400081E080935C0784E597E00E94CA088823A6
:1034500009F4ABCF6091210C462F440F669585E0AF
:1034600090E00E944E0A80950E94BA0C83E291E09F
:103470000E94370A8C01F09008028FEF90E00E94C2
:10348000370A8C83FD828FEF8E83BE016F5F7F4F83
:10349000CE0104960E943306C801880F991F800F41
:1034A000911FBE016F5F7F4F875E974F0E94B208EA
:1034B0007CCF8A30910509F087C020912F0C222300
:1034C00009F482C02091300C222309F47DC01091B0
:1034D00094071C3008F050C0812F8D7F912F997F69
:1034E00011F08830F9F480918C0781110FC084E8C5
:1034F00097E00E94F80640928807509289076092F0
:103500008A0770928B0781E080938C0784E897E0AC
:103510000E94CA08882309F449C18FEF89838A83EE
:103520008B831DC080917C0781110FC084E797E0D9
:103530000E94F806409278075092790760927A07C5
:1035400070927B0781E080937C0784E797E00E947C
:10355000CA08882309F42AC119821A821B82AE0183
:103560004F5F5F4F63E271E089E198E00E94E206FD
:103570001F5F109394071AC180916C0781110FC0CF
:1035800084E697E00E94F806409268075092690727
:1035900060926A0770926B0781E080936C0784E603
:1035A00097E00E94CA08882309F400C18FEF90E0D9
:1035B0000E94370A810F893C18F010929407F6C0D8
:1035C0008FE080939407F2C09C012B503109233087
:1035D0003105E0F580912F0C882309F4E7C0809134
:1035E000200C9091210C9C838D838FEF8E83BE01E4
:1035F0006F5F7F4FCE0104960E943306AE014F5F8E
:103600005F4F63E271E089E198E00E94E2068CE896
:1036100092E00E94F40A6091210C70E080E090E05A
:103620004AE00E94D80C82EA92E00E94F40A60917B
:10363000200C70E080E090E04AE00E94D80C85EA1F
:1036400092E00E94F40A10922F0CB0C00E9709F07D
:10365000ADC080912F0C882309F4A8C08091AE07DB
:1036600081110FC086EA97E00E94F8068092AA07AF
:103670009092AB07A092AC07B092AD0781E0809327
:10368000AE0786EA97E00E94CA08882309F48DCE27
:103690000091210C063008F406E080919E0781110C
:1036A00013C086E997E00E94F80688EE93E0A0E058
:1036B000B0E080939A0790939B07A0939C07B093E8
:1036C0009D0781E080939E0786E997E00E94CA08E3
:1036D000882389F08091300C882369F01091950738
:1036E000802F6AE066D14AE061E090E00E944E0AD5
:1036F000810F80939507802F66E05BD1C82ED12C77
:1037000048ED50E068E470E0C6010E94910A7C0137
:1037100042E251E060E070E0C6010E94910A8C0133
:1037200042EC50E061E670E0C6010E94910A2091EF
:10373000200CC090950738E23C0D39832A83DD24A4
:10374000DA94DB82BC01660F771F860F971FBC01DE
:10375000675E774FCE0101960E9433068091200C60
:1037600094E19C0D99838A83DB82B701660F771FF2
:103770006E0D7F1D675E774FCE0101960E94330666
:103780008091200CC9828A83DB82B801660F771F83
:10379000600F711F675E774FCE0101960E9433065E
:1037A0008091290C86500E94BA0CFFCD0E94F4082B
:1037B00068EB7BE08AE090E004C062E070E088EBB8
:1037C0009BE00E94E4070E94A00D0C946A1088EA16
:1037D00092E00E94050B0C94710F8AE090E09093A8
:1037E000320C8093310C0C94AD108BE090E09093F0
:1037F000320C8093310C0C94C8108CE090E09093C4
:10380000320C8093310C0C94E3108DE090E0909397
:10381000320C8093310C0C94FE108EE090E090936B
:10382000320C8093310C0C9419118FE090E090933E
:10383000320C8093310C0C94341180E190E0909321
:10384000320C8093310C0C944F1181E190E09093F5
:10385000320C8093310C0C946A1182E190E09093C9
:10386000320C8093310C0C9485111092320C109212
:10387000310C0C94A01183E190E09093320C809372
:10388000310C0C94BB1184E190E09093320C809346
:10389000310C0C94D6111093320C0093310C0C9413
:1038A000F21182E090E09093320C8093310C0C94F2
:1038B0000D1283E090E09093320C8093310C0C94C5
:1038C000281284E090E09093320C8093310C0C9499
:1038D000431285E090E09093320C8093310C0C946D
:1038E0005E1286E090E09093320C8093310C0C9441
:1038F000791287E090E09093320C8093310C0C9415
:10390000941288E090E09093320C8093310C0C94E8
:10391000AF1289E090E09093320C8093310C0C94BC
:10392000CA12E7E3FCE01382128288EE93E0A0E083
:10393000B0E084839583A683B78386E592E0918384
:10394000808385EC90E09587848784EC90E097876E
:10395000868780EC90E0918B808B81EC90E0938B5C
:10396000828B82EC90E0958B848B86EC90E0978B39
:10397000868B118E128E138E148EE4EDFCE08FEF89
:1039800080831282118284E690E09093DC0C809315
:10399000DB0C0895DB018F939F9399D0BF91AF917A
:1039A000A29F800D911DA39F900DB29F900D112499
:1039B0000895991B79E004C0991F961708F0961B8B
:1039C000881F7A95C9F780950895AA1BBB1B51E102
:1039D00007C0AA1FBB1FA617B70710F0A61BB70B7F
:1039E000881F991F5A95A9F780959095BC01CD0124
:1039F000089597FB072E16F4009406D077FD08D0A3
:103A0000E4DF07FC05D03EF4909581959F4F089523
:103A1000709561957F4F0895A1E21A2EAA1BBB1BDA
:103A2000FD010DC0AA1FBB1FEE1FFF1FA217B3078A
:103A3000E407F50720F0A21BB30BE40BF50B661FA0
:103A4000771F881F991F1A9469F760957095809564
:103A500090959B01AC01BD01CF010895052E97FB08
:103A600016F400940FD057FD05D0D6DF07FC02D026
:103A700046F408C050954095309521953F4F4F4FE3
:103A80005F4F089590958095709561957F4F8F4F0A
:103A90009F4F0895EE0FFF1F881F8BBF0790F69171
:103AA000E02D1994A29FB001B39FC001A39F700D98
:103AB000811D1124911DB29F700D811D1124911D36
:103AC0000895F0DFB7FF0895821B930B0895EADF96
:103AD000A59F900DB49F900DA49F800D911D112462
:103AE000089581E090E0F89426C0DC01CB01FC0150
:103AF000F999FECF06C0F2BDE1BDF89A319600B447
:103B00000D9241505040B8F70895F999FECF92BDFB
:103B100081BDF89A992780B50895262FF999FECF8F
:103B20001FBA92BD81BD20BD0FB6F894FA9AF99ADA
:0A3B30000FBE01960895F894FFCF30
:103B3A000103639696800F80FF0063390500020037
:103B4A00000000D104D104D104D104C5040000004E
:103B5A0000EF04EA04C304D304C00400003100F9EE
:103B6A00183000FB302C001C472600825A1F006DBB
:103B7A006A170041760E00897D04003131295A1BEB
:103B8A00750A000000007501D90D690147015B0142
:103B9A00BC01417474656D707420746F207772690A
:103BAA007465206F757473696465206F6620454576
:103BBA0050524F4D206D656D6F727900436F6C6F77
:103BCA007220616E642053617475726174696F6EDC
:103BDA003A002020000D0A0043616E6E6F74206364
:103BEA0068616E6765206365696C696E672C20621F
:103BFA00656C6F772069737375656420616464729C
:103C0A006573736573004D6F646553656C656374A2
:103C1A00696F6E207C20536176696E6720736574C4
:103C2A0074696E677320666F723A004578636565DA
:103C3A00646564206D6178696D756D206E756D625D
:0E3C4A006572206F66207772697465730000E2
:020000023000CC
:10E000000D9489F10D94B2F10D94B2F10D94B2F129
:10E010000D94B2F10D94B2F10D94B2F10D94B2F1F0
:10E020000D94B2F10D94B2F10D94B2F10D94B2F1E0
:10E030000D94B2F10D94B2F10D94B2F10D94B2F1D0
:10E040000D94B2F10D94B2F10D94B2F10D94B2F1C0
:10E050000D94B2F10D94B2F10D94B2F10D94B2F1B0
:10E060000D94B2F10D94B2F10D94B2F10D94B2F1A0
:10E070000D94B2F10D94B2F10D94B2F10D94B2F190
:10E080000D94B2F10D94B2F10D94B2F10D94B2F180
:10E090000D94B2F10D94B2F10D94B2F10D94B2F170
:10E0A0000D94B2F10D94B2F10D94B2F10D94B2F160
:10E0B0000D94B2F10D94B2F10D94B2F10D94B2F150
:10E0C0000D94B2F10D94B2F10D94B2F10D94B2F140
:10E0D0000D94B2F10D94B2F10D94B2F10D94B2F130
:10E0E0000D94B2F141546D656761323536300041AF
:10E0F000726475696E6F206578706C6F72657220DE
:10E1000073746B3530305632206279204D4C530099
:10E11000426F6F746C6F616465723E004875683F52
:10E1200000436F6D70696C6564206F6E203D200048
:10E130004350552054797065202020203D20005FF9
:10E140005F4156525F415243485F5F3D2000415658
:10E1500052204C696243205665723D20004743437C
:10E160002056657273696F6E203D20004350552024
:10E1700049442020202020203D20004C6F7720663D
:10E18000757365202020203D20004869676820665F
:10E190007573652020203D200045787420667573D6
:10E1A00065202020203D20004C6F636B2066757336
:10E1B000652020203D20004D617220203720323024
:10E1C000313300312E362E3800342E332E350056A2
:10E1D00023202020414444522020206F7020636F70
:10E1E00064652020202020696E73747275637469E1
:10E1F0006F6E2061646472202020496E74657272B3
:10E20000757074006E6F20766563746F7200726A49
:10E210006D702020006A6D70200057686174207056
:10E220006F72743A00506F7274206E6F7420737541
:10E2300070706F72746564004D7573742062652030
:10E2400061206C6574746572002000577269747483
:10E25000696E672045450052656164696E672045B7
:10E26000450045452065727220636E743D00504F35
:10E27000525400303D5A65726F2061646472003FF1
:10E280003D43505520737461747300403D454550C3
:10E29000524F4D207465737400423D426C696E6B41
:10E2A000204C454400453D44756D70204545505215
:10E2B0004F4D00463D44756D7020464C415348001B
:10E2C000483D48656C70004C3D4C69737420492F83
:10E2D0004F20506F72747300513D51756974005234
:10E2E0003D44756D702052414D00563D73686F7707
:10E2F00020696E7465727275707420566563746FF0
:10E30000727300593D506F727420626C696E6B00BD
:10E310002A0011241FBECFEFD1E2DEBFCDBF01E046
:10E320000CBF12E0A0E0B2E0EEE1FDEF03E00BBFB6
:10E3300002C007900D92A030B107D9F712E0A0E01B
:10E34000B2E001C01D92AE30B107E1F70F9460F367
:10E350000D948DFE01E20EBF0FEF0DBF11241FBE05
:10E360000D9460F30D9400F020E030E040ED57E0B4
:10E3700005C0FA013197F1F72F5F3F4F2817390792
:10E38000C0F308959C01260F311DC901A0E0B0E043
:10E390002F5F3F4FABBFFC018791882361F08093D3
:10E3A000C6008091C00086FFFCCF8091C0008064D1
:10E3B0008093C000EACF08958DE08093C6008091DD
:10E3C000C00086FFFCCF8091C00080648093C000B5
:10E3D0008AE08093C6008091C00086FFFCCF8091C8
:10E3E000C00080648093C00008950F94C2F10F9420
:10E3F000DCF10895FC019081992359F09093C600B7
:10E400008091C00086FFFCCF8091C0008064809323
:10E41000C0003196992379F70895282F982F929567
:10E420009F70892F805D8A3308F0895F8093C600D2
:10E430008091C00086FFFCCF8091C00080648093F3
:10E44000C000822F8F70982F905D9A3308F0995FEB
:10E450009093C6008091C00086FFFCCF8091C000E1
:10E4600080648093C00008959C01FB01853691056E
:10E470001CF46330710594F0C90164E670E00F94F8
:10E480002EFE605D7F4F6093C6008091C00086FFC6
:10E49000FCCF8091C00080648093C0002B30310598
:10E4A00014F43297B4F0C90164E670E00F942EFEC4
:10E4B0006AE070E00F942EFE605D7F4F6093C600AF
:10E4C0008091C00086FFFCCF8091C0008064809363
:10E4D000C000C9016AE070E00F942EFEC0968093E0
:10E4E000C6008091C00086FFFCCF8091C000806490
:10E4F0008093C00008951F93182F8EE692EE60E07F
:10E500000F94C2F11093C6008091C00086FFFCCF2B
:10E510008091C00080648093C0000F94DCF11F9153
:10E5200008952F923F924F925F926F927F928F92B7
:10E530009F92AF92BF92CF92DF92EF92FF920F9392
:10E540001F93DF93CF93CDB7DEB762970FB6F894E2
:10E55000DEBF0FBECDBF382E622ECA01DB015C01CB
:10E560006D01772420E2222E2E010894411C511CBB
:10E570008BC081E0A81680E0B80681E0C80680E084
:10E58000D80628F0C601AA27BB270F940DF2BB2797
:10E59000AD2D9C2D8B2D0F940DF28A2D0F940DF225
:10E5A0002092C6008091C00086FFFCCF8091C00001
:10E5B00080648093C0009DE29093C6008091C0006B
:10E5C00086FFFCCF8091C00080648093C0002092C1
:10E5D000C6008091C00086FFFCCF8091C00080649F
:10E5E0008093C00019828601750188249924A1E0D6
:10E5F0003A1651F03A1620F0B2E03B1661F409C029
:10E600000BBFF701779007C0C7010F9477FE782EF4
:10E6100002C0F7017080872D0F940DF22092C60082
:10E620008091C00086FFFCCF8091C0008064809301
:10E63000C000872D8052F401EF70F0708F3520F408
:10E64000E40DF51D708204C0E40DF51D8EE280839B
:10E650000894E11CF11C011D111D0894811C911CE2
:10E6600090E18916910409F0C2CF80E190E0A0E02A
:10E67000B0E0A80EB91ECA1EDB1E198AC2010F9493
:10E68000FAF10F94DCF16A94662009F072CF629679
:10E690000FB6F894DEBF0FBECDBFCF91DF911F91B3
:10E6A0000F91FF90EF90DF90CF90BF90AF909F9031
:10E6B0008F907F906F905F904F903F902F90089534
:10E6C0002F923F924F925F926F927F928F929F9282
:10E6D000AF92BF92CF92DF92EF92FF920F931F9370
:10E6E000DF93CF93CDB7DEB7CD53D1400FB6F894BB
:10E6F000DEBF0FBECDBF01E20EBF0FEF0DBF94B75F
:10E70000F894A89514BE80916000886180936000A1
:10E7100010926000789493FF05C0E0910002F091A0
:10E7200001021995279A2F9A8091C00082608093E8
:10E73000C00080E18093C40088E18093C1000000A4
:10E74000EE24FF24870144E0A42EB12CCC24DD2448
:10E7500024C0C5010197F1F70894E11CF11C011DCB
:10E76000111D21E2E2162EE4F20620E0020720E06D
:10E77000120718F031E0C32ED12CC801B70127ECE5
:10E780003BE140E050E00F9441FE611571058105C9
:10E79000910519F485B1805885B98091C00087FD35
:10E7A00003C0C114D104A9F2A6014F5F5F4FC25E3E
:10E7B000DE4F59834883CE51D140C25EDE4F8881FF
:10E7C0009981CE51D140019711F00D9410FEC05D9A
:10E7D000DE4F19821882C053D14060E0C15DDE4F28
:10E7E0001882CF52D14088249924C35DDE4F19820C
:10E7F0001882CD52D140C05EDE4F188219821A8233
:10E800001B82C052D140CE5CDE4F188219821A8220
:10E810001B82C253D140EE24FF2487010BBFF701B6
:10E8200007911691C45CDE4F19830883CC53D14005
:10E830000D940BFEC25EDE4F28813981CE51D1404E
:10E840002130310509F52091C600C25EDE4F1982E4
:10E850001882CE51D14022C02F5F3F4F4F4F5F4FA4
:10E86000213082E138078AE7480780E0580780F0C6
:10E87000C45CDE4FE881F981CC53D140EF5FFF4F9C
:10E8800019F0EE27FF27099420E030E040E050E047
:10E890008091C00087FFE0CF2091C600C35DDE4FAE
:10E8A00048815981CD52D1404F5F5F4FC35DDE4FEC
:10E8B00059834883CD52D140213209F063C64A3092
:10E8C000510508F05FC60894811C911C53E0851621
:10E8D000910409F059C600E010E018C081E280936D
:10E8E000C6008091C00086FFFCCF8091C00080648C
:10E8F0008093C0002F5F3F4F2931310579F70F9486
:10E90000DCF10F5F1F4F0530110519F020E030E0FA
:10E91000E5CF10920A0210920B0210920C02109294
:10E920000D02109206021092070210920802109235
:10E930000902109202021092030210920402109235
:10E9400005028FEE90EE60E00F94F5F180E191EE1C
:10E9500060E00F94C2F18091C00087FFFCCF9091DE
:10E96000C600903608F09F759032B8F09093C600BC
:10E970008091C00086FFFCCF8091C00080648093AE
:10E98000C000A0E2A093C6008091C00086FFFCCF2B
:10E990008091C00080648093C000983409F4D7C18E
:10E9A0009934B8F4923409F459C1933458F490333B
:10E9B00019F1903308F4E3C59F33A1F1903409F0C5
:10E9C000DEC5BDC0953409F470C1963409F0D7C5D1
:10E9D00098C1923509F42BC2933538F49C3409F46C
:10E9E000F5C1913509F0CBC518C2963509F445C279
:10E9F000993509F0C4C567C483E792EE62E00F94CD
:10EA0000F5F110920602109207021092080210927D
:10EA1000090210920A0210920B0210920C0210923C
:10EA20000D0213C18FE792EE62E00F94F5F18FEEC5
:10EA300090EE60E00F94F5F181E291EE60E00F94CA
:10EA4000C2F187EB91EE60E00F94F5F180E391EE77
:10EA500060E00F94C2F184EE90EE60E00F94F5F167
:10EA60008FE391EE60E00F94C2F186E090E061E008
:10EA700070E00F9434F20F94DCF18DE591EE60E0DC
:10EA80000F94C2F189EC91EE60E00F94F5F18EE401
:10EA900091EE60E00F94C2F183EC91EE60E00F9490
:10EAA000F5F18CE691EE60E00F94C2F18EE10F94E7
:10EAB0000DF288E90F940DF281E00F940DF20F949E
:10EAC000DCF18BE791EE60E00F94C2F119E0E0E039
:10EAD000F0E010935700E4918E2F0F940DF20F94F5
:10EAE000DCF18AE891EE60E00F94C2F1E3E0F0E03F
:10EAF00010935700E4918E2F0F940DF20F94DCF1D8
:10EB000089E991EE60E00F94C2F1E2E0F0E0109349
:10EB10005700E4918E2F0F940DF20F94DCF188EAE8
:10EB200091EE60E00F94C2F1E1E0F0E01093570045
:10EB30001491812F0F940DF20F94DCF107CF8BE825
:10EB400092EE62E00F94F5F18BE492EE60E00F94A8
:10EB5000F5F10F94DCF100E010E019C0C8016F2D51
:10EB60000F947FFEFF2031F489E492EE60E00F9471
:10EB7000C2F10BC0F092C6008091C00086FFFCCFAE
:10EB80008091C00080648093C0000F5F1F4FC80158
:10EB900081519F41A0E0B0E0ABBFFC01F790BAE229
:10EBA000FB1621F0E2E000301E07C1F60F94DCF105
:10EBB0000F94DCF187E592EE60E00F94F5F10F948D
:10EBC000DCF1CC24DD2400E010E01EC0C8010F946D
:10EBD00077FEF82E882331F489E492EE60E00F94FA
:10EBE000C2F10BC08093C6008091C00086FFFCCFAD
:10EBF0008091C00080648093C000FE1419F00894D6
:10EC0000C11CD11C0F5F1F4FC80181519F41A0E063
:10EC1000B0E0ABBFFC01E790FAE2EF1621F022E092
:10EC20000030120799F60F94DCF10F94DCF182E6C4
:10EC300092EE60E00F94C2F1C60161E070E00F94C3
:10EC400034F20F94DCF10F94DCF110920202109276
:10EC50000302109204021092050278CE89E992EE26
:10EC600062E00F94F5F1279A2F9A16C02F9880E052
:10EC700090E0E0EDF7E03197F1F7019684369105E9
:10EC8000C1F72F9A80E090E0E0EDF7E03197F1F7DF
:10EC9000019684369105C1F78091C00087FFE6CFC9
:10ECA0008091C00087FFFCCF64C485EA92EE62E0E9
:10ECB0000F94F5F140910202509103026091040219
:10ECC0007091050281E020E10F9491F2809102029F
:10ECD00090910302A0910402B091050280509F4FD1
:10ECE000AF4FBF4F8093020290930302A0930402A0
:10ECF000B093050280509041A040B04008F426CE69
:10ED0000A4CF83EB92EE62E00F94F5F140910602FE
:10ED100050910702609108027091090280E020E1A1
:10ED20000F9491F28091060290910702A09108023F
:10ED3000B091090280509F4FAF4FBF4F80930602A2
:10ED400090930702A0930802B0930902FFCD80ECD4
:10ED500092EE62E00F94F5F183E792EE60E00F949B
:10ED6000F5F18FE792EE60E00F94F5F18BE892EE0B
:10ED700060E00F94F5F189E992EE60E00F94F5F10F
:10ED800085EA92EE60E00F94F5F183EB92EE60E09D
:10ED90000F94F5F180EC92EE60E00F94F5F187ECC2
:10EDA00092EE60E00F94F5F188ED92EE60E00F9442
:10EDB000F5F18FED92EE60E00F94F5F18AEE92EEB0
:10EDC00060E00F94F5F183E093EEBDCD87EC92EE19
:10EDD00062E00F94F5F181E40F947BF282E40F94EA
:10EDE0007BF283E40F947BF284E40F947BF285E45E
:10EDF0000F947BF286E40F947BF287E40F947BF20E
:10EE000088E40F947BF28AE40F947BF28BE40F94F6
:10EE10007BF28CE40F947BF299CD88ED92EE62E068
:10EE20000F94F5F1772473948824992409C48FED05
:10EE300092EE62E00F94F5F140910A0250910B02BC
:10EE400060910C0270910D0282E020E10F9491F22A
:10EE500080910A0290910B02A0910C02B0910D02D8
:10EE600080509F4FAF4FBF4F80930A0290930B0289
:10EE7000A0930C02B0930D0269CD8AEE92EE62E08F
:10EE80000F94F5F184EE90EE60E00F94F5F18FECC5
:10EE900091EE60E00F94F5F1662477244301CC5D98
:10EEA000DE4F19821882C452D140D401C301B695F5
:10EEB000A79597958795CA5DDE4F88839983AA8326
:10EEC000BB83C652D140CC5DDE4FA881B981C4520C
:10EED000D1401196CC5DDE4FB983A883C452D14096
:10EEE000CD0162E070E00F9434F2B0E2B093C6005E
:10EEF0008091C00086FFFCCF8091C0008064809329
:10EF0000C000EDE2E093C6008091C00086FFFCCF18
:10EF10008091C00080648093C000F0E2F093C6004E
:10EF20008091C00086FFFCCF8091C00080648093F8
:10EF3000C000CA5DDE4FE880F9800A811B81C6529D
:10EF4000D140BB27A12F902F8F2D0F940DF2CA5DBA
:10EF5000DE4F8881C652D1400F940DF2B0E2FB2EF5
:10EF6000F092C6008091C00086FFFCCF8091C00067
:10EF700080648093C0000DE30093C6008091C000C0
:10EF800086FFFCCF8091C00080648093C00010E2B7
:10EF90001093C6008091C00086FFFCCF8091C00016
:10EFA00080648093C0008BBEF3012791C65DDE4F65
:10EFB0002883CA52D140A22EBB24CC24DD2408943D
:10EFC000611C711C811C911C8BBEF3018791282E42
:10EFD0003324442455240894611C711C811C911C09
:10EFE0008BBEF3013791C55DDE4F3883CB52D140E4
:10EFF0000894611C711C811C911C8BBEF30147910C
:10F00000C45DDE4F4883CC52D140ADEFEA2EAFEF66
:10F01000FA2EAFEF0A2FAFEF1A2F6E0C7F1C801E57
:10F02000911E142D032DF22CEE24EA0CFB1C0C1D5A
:10F030001D1D0F940DF220E22093C6008091C000A8
:10F0400086FFFCCF8091C00080648093C000C65DC5
:10F05000DE4F8881CA52D1400F940DF230E23093D6
:10F06000C6008091C00086FFFCCF8091C000806404
:10F070008093C000C45DDE4F8881CC52D1400F9494
:10F080000DF240E24093C6008091C00086FFFCCFA5
:10F090008091C00080648093C000C55DDE4F888190
:10F0A000CB52D1400F940DF250E25093C6008091A4
:10F0B000C00086FFFCCF8091C00080648093C000B8
:10F0C0008FEFE8168FEFF80680E0080780E018075A
:10F0D00031F484E092EE60E00F94C2F1DFC0D80119
:10F0E000C7018070907CA070B0708050904CA040A0
:10F0F000B040D1F52FEF3FE340E050E0E222F322B1
:10F1000004231523CA5DDE4FA880B980CA80DB8046
:10F11000C652D140AE0CBF1CC01ED11EAA0CBB1CD7
:10F12000CC1CDD1C8EE092EE60E00F94C2F1BB2798
:10F13000A12F902F8F2D0F940DF28E2D0F940DF285
:10F1400030E23093C6008091C00086FFFCCF8091F2
:10F15000C00080648093C0004EE34093C60080915D
:10F16000C00086FFFCCF87C08EE09EEFA0E0B0E03D
:10F17000E822F9220A231B239CE0E91694E9F90608
:10F1800090E0090790E0190709F088C0C45DDE4FE0
:10F19000A881CC52D140EA2EFF2400E010E0102FCD
:10F1A0000F2DFE2CEE24C55DDE4FB881CB52D14031
:10F1B000EB0EF11C011D111DD601C501817090706F
:10F1C000A070B070DC0199278827E80EF91E0A1F8D
:10F1D0001B1F20EF30E040E050E0A222B322C42207
:10F1E000D52241E1AA0CBB1CCC1CDD1C4A95D1F7F1
:10F1F000EA0CFB1C0C1D1D1D81E090E0A0E0B0E0BE
:10F20000282239224A225B2235E1220C331C441C7D
:10F21000551C3A95D1F7E20CF31C041D151D57013E
:10F220006801AA0CBB1CCC1CDD1C85E192EE60E0E1
:10F230000F94C2F1C801AA27BB270F940DF2BB2778
:10F24000A12F902F8F2D0F940DF28E2D0F940DF274
:10F2500090E29093C6008091C00086FFFCCF809121
:10F26000C00080648093C000AEE3A093C60080918C
:10F27000C00086FFFCCF8091C00080648093C000F6
:10F28000C601AA27BB270F940DF2BB27AD2D9C2DDD
:10F290008B2D0F940DF28A2D0F940DF20F94DCF14B
:10F2A000CC5DDE4FE881F981C452D140F99709F471
:10F2B0004DCBF4E0EF2EF12C012D112D6E0C7F1CA7
:10F2C000801E911EF2CD83E093EE62E00F94F5F183
:10F2D0008AE192EE60E00F94C2F18091C00087FF56
:10F2E000FCCF1091C6001F751093C6008091C0001E
:10F2F00086FFFCCF8091C00080648093C0000F9493
:10F30000DCF1812F81548A3108F036C1163409F4BA
:10F3100095C0173490F4133409F44EC0143430F40B
:10F320001134F1F0123409F01DC130C0143409F465
:10F3300059C0153409F016C16BC01A3409F4C4C0A1
:10F340001B3438F4173409F48FC0183409F00AC19B
:10F35000A1C01B3409F4D2C01C3409F003C1E8C0B9
:10F360008FEF81B90DC082B1809582B980E090E0C5
:10F37000E0EDF7E03197F1F70196883C9105C1F790
:10F380008091C00087FFEFCF12B8EFC08FEF84B934
:10F390000DC085B1809585B980E090E0E0EDF7E0A3
:10F3A0003197F1F70196883C9105C1F78091C00033
:10F3B00087FFEFCF15B8D9C08FEF87B90DC088B1DF
:10F3C000809588B980E090E0E0EDF7E03197F1F7C3
:10F3D0000196883C9105C1F78091C00087FFEFCF6F
:10F3E00018B8C3C08FEF8AB90DC08BB180958BB9A7
:10F3F00080E090E0E0EDF7E03197F1F70196883C8E
:10F400009105C1F78091C00087FFEFCF1BB8ADC059
:10F410008FEF8DB90DC08EB180958EB980E090E0F0
:10F42000E0EDF7E03197F1F70196883C9105C1F7DF
:10F430008091C00087FFEFCF1EB897C08FEF80BBD1
:10F440000DC081B3809581BB80E090E0E0EDF7E0F6
:10F450003197F1F70196883C9105C1F78091C00082
:10F4600087FFEFCF11BA81C08FEF83BB0DC084B38C
:10F47000809584BB80E090E0E0EDF7E03197F1F714
:10F480000196883C9105C1F78091C00087FFEFCFBE
:10F4900014BA6BC08FEF809301010FC080910201FD
:10F4A00080958093020180E090E0E0EDF7E03197F5
:10F4B000F1F70196883C9105C1F78091C00087FF64
:10F4C000EDCF1092020151C08FEF809304010FC065
:10F4D0008091050180958093050180E090E0E0ED4A
:10F4E000F7E03197F1F70196883C9105C1F78091DB
:10F4F000C00087FFEDCF1092050137C08FEF8093DA
:10F5000007010FC08091080180958093080180E079
:10F5100090E0E0EDF7E03197F1F70196883C910536
:10F52000C1F78091C00087FFEDCF109208011DC088
:10F530008FEF80930A010FC080910B01809580931B
:10F540000B0180E090E0E0EDF7E03197F1F70196F4
:10F55000883C9105C1F78091C00087FFEDCF1092E4
:10F560000B0103C085E292EEEEC98091C00087FFD7
:10F57000FCCF8091C600EAC988E392EEE4C98CE131
:10F5800091EEE1C988249924933011F1943028F444
:10F59000913089F09230B8F408C0953061F195301F
:10F5A000F0F0963009F048C043C02B3109F042C951
:10F5B00091E06BE13FC96227C15DDE4F2883CF52E6
:10F5C000D14092E037C9B22FA0E0622793E032C960
:10F5D000822F90E0A82BB92B622794E02BC92E3004
:10F5E00009F039C3622795E0C05DDE4F19821882A9
:10F5F000C053D1401FC9E1E0F0E0EC0FFD1FC05D3A
:10F60000DE4F08811981C053D140E00FF11F2083E4
:10F610000F5F1F4FC05DDE4F19830883C053D14079
:10F6200062270A171B0709F005C9D80196E002C92D
:10F63000261709F010C303C0973009F0FBC87724E0
:10F640009981933109F412C19431C8F4963009F4C8
:10F65000D8C0973050F4923009F406C1933009F4C1
:10F660006DC0913009F059C253C0913109F477C08F
:10F67000923108F0BBC0903109F04FC2F5C098310B
:10F6800009F487C0993150F4953109F4EFC09531F0
:10F6900008F4C6C1963109F040C2C2C19A3109F4DA
:10F6A0006CC09A3108F491C09B3109F45BC09D3164
:10F6B00009F033C29D81903359F48F81882311F46E
:10F6C0009EE11CC0813011F091E018C098E916C08D
:10F6D000892F807591F0903539F4E0E0F0E089E011
:10F6E0008093570094910AC0983539F4E3E0F0E034
:10F6F00089E080935700949101C090E01A821B82A8
:10F700008D818C831D829E831F8227E030E009C299
:10F710001A8288E08B8381E48C8386E58D8382E581
:10F720008E8389E48F8383E5888780E589878FE5E9
:10F730008A8782E38B872BE030E0F3C18A818139AD
:10F7400041F0823941F0803911F48FE005C080E04A
:10F7500003C082E001C08AE01A828B8344C0772410
:10F76000739482C08D81882311F48EE12CC0813086
:10F7700011F081E028C088E926C01A82E1E0F0E0BB
:10F7800089E08093570084918B831C8224E030E0D1
:10F79000C8C18B81803589F48C81883039F4E2E0EE
:10F7A000F0E089E08093570084910DC0E0E0F0E044
:10F7B00089E080935700849106C0E3E0F0E089E09F
:10F7C0008093570084911A82DFCF8D81836C99E0FA
:10F7D000E1E0F0E0082E90935700E89507B600FCB2
:10F7E000FDCF1A821B8223E030E09BC180EC8A832C
:10F7F000CE5CDE4F188219821A821B82C253D1401E
:10F800008EC18A8190E0A0E0B0E0582F44273327D2
:10F8100022278B8190E0A0E0B0E0DC0199278827C7
:10F82000282B392B4A2B5B2B8D8190E0A0E0B0E098
:10F83000282B392B4A2B5B2B8C8190E0A0E0B0E089
:10F84000BA2FA92F982F8827282B392B4A2B5B2BCF
:10F85000220F331F441F551FC05EDE4F288339839C
:10F860004A835B83C052D1401A8259C13A81C95C34
:10F87000DE4F3883C753D140CA5CDE4F1882C6536F
:10F88000D1408B81C82EDD24CA5CDE4F488159816E
:10F89000C653D140C42AD52A933109F082C0CE5C28
:10F8A000DE4F88819981AA81BB81C253D1408050AB
:10F8B000904CA340B04030F583E0CE5CDE4FE88052
:10F8C000F9800A811B81C253D140F70100935B008C
:10F8D00080935700E89507B600FCFDCFCE5CDE4F65
:10F8E000088119812A813B81C253D14000501F4FAA
:10F8F0002F4F3F4FCE5CDE4F088319832A833B8313
:10F90000C253D140C05EDE4F488159816A817B81FC
:10F91000C052D140DE011B9631E08C9111962C91A2
:10F9200011971296C75CDE4F2883C953D140C85C3B
:10F93000DE4F1882C853D14090E0C85CDE4FE881AA
:10F94000F981C853D1408E2B9F2B0C01FA01609393
:10F950005B0030935700E89511244E5F5F4F6F4F67
:10F960007F4F0EEFE02E0FEFF02ECE0CDF1CC114F8
:10F97000D10499F685E0C05EDE4F088119812A81A5
:10F980003B81C052D140F80120935B008093570027
:10F99000E89507B600FCFDCF81E180935700E8951C
:10F9A00035C0C05EDE4F88819981AA81BB81C0527B
:10F9B000D140B695A795979587957C018601ABE0D8
:10F9C000AA2EB12CAC0EBD1E0BC0D5016D915D01F0
:10F9D000C7010F947FFE0894E11CF11C01501040F8
:10F9E0000115110591F7A60160E070E0440F551F65
:10F9F000661F771FC05EDE4FE880F9800A811B8199
:10FA0000C052D1404E0D5F1D601F711F1A82C05E33
:10FA1000DE4F488359836A837B83C052D1407FC0C5
:10FA2000FA80C55CDE4FF882CB53D140C65CDE4F16
:10FA30001882CA53D1408B81C82EDD24C65CDE4FAC
:10FA400008811981CA53D140C02AD12A1A828981DA
:10FA5000BE016D5F7F4F843121F59601C05EDE4FA0
:10FA6000E880F9800A811B81C052D1400BBFF701A9
:10FA700087919691DB018C9311969C936E5F7F4FDB
:10FA8000D801C7010296A11DB11DC05EDE4F88835B
:10FA90009983AA83BB83C052D14022503040F1F6F3
:10FAA00036C0C05EDE4F288139814A815B81C052F9
:10FAB000D1400894C108D108760100E010E0089414
:10FAC000C11CD11C0894E11CF11C011D111DE20E8A
:10FAD000F31E041F151F21BDBB27A52F942F832FB5
:10FAE00082BD2F5F3F4F4F4F5F4FF89A80B5DB01CC
:10FAF0008D93BD012E153F054007510761F7C05E8C
:10FB0000DE4F288339834A835B83C052D1409601FC
:10FB10002D5F3F4FFB01108204C080EC8A8322E0FE
:10FB200030E08BE18093C6008091C00086FFFCCF5F
:10FB30008091C00080648093C000C15DDE4FF88179
:10FB4000CF52D140F093C6008091C00086FFFCCF19
:10FB50008091C00080648093C000432F3093C60022
:10FB60008091C00086FFFCCF8091C00080648093AC
:10FB7000C000922F2093C6008091C00086FFFCCF6A
:10FB80008091C00080648093C0008EE08093C600A6
:10FB90008091C00086FFFCCF8091C000806480937C
:10FBA000C00065E1C15DDE4FE880CF52D1406E25D7
:10FBB00069276427FE01319610C090819093C6009A
:10FBC0008091C00086FFFCCF31968091C000806498
:10FBD0008093C0006927215030402115310569F715
:10FBE0006093C6008091C00086FFFCCF8091C0006A
:10FBF00080648093C00085B1805885B9772081F4F6
:10FC0000C15DDE4F0881CF52D1400F5FC15DDE4F35
:10FC10000883CF52D14090E0A0E0B0E00D941AF4F8
:10FC200027982F9880E090E020ED37E0F901319798
:10FC3000F1F7019684369105C9F700008091C00064
:10FC40008D7F8093C00081E180935700E895EE2777
:10FC5000FF270994FFCF90E00D941AF497FB092E2B
:10FC600007260AD077FD04D02ED006D000201AF443
:10FC7000709561957F4F0895F6F7909581959F4F08
:10FC80000895A1E21A2EAA1BBB1BFD010DC0AA1FDD
:10FC9000BB1FEE1FFF1FA217B307E407F50720F0F5
:10FCA000A21BB30BE40BF50B661F771F881F991F70
:10FCB0001A9469F760957095809590959B01AC01B9
:10FCC000BD01CF010895AA1BBB1B51E107C0AA1FAC
:10FCD000BB1FA617B70710F0A61BB70B881F991FED
:10FCE0005A95A9F780959095BC01CD010895F99991
:10FCF000FECF92BD81BDF89A992780B50895262F31
:10FD0000F999FECF1FBA92BD81BD20BD0FB6F89400
:0EFD1000FA9AF99A0FBE01960895F894FFCF63
:040000033000E000E9
:00000001FF