:1000000016C2000041C200003FC200003DC2000015
:100010003BC2000039C2000037C2000035C20000F8
:1000200033C2000031C200002FC200002DC2000008
:100030002BC2000029C2000027C2000025C2000018
:1000400023C2000021C200001FC200001DC2000028
:100050001BC2000019C2000017C200000C947917DF
:1000600013C200000C946C190C94B01A0DC200005D
:100070000BC2000009C2000007C2000005C2000058
:1000800003C2000001C20000FFC10000FDC100006A
:100090000C94AC190C94EF1AF7C10000F5C10000E4
:1000A000F3C10000F1C10000EFC10000EDC100008C
:1000B000EBC10000E9C10000E7C10000E5C100009C
:1000C000E3C10000E1C10000DFC100000C94EC19A5
:1000D0000C942E1BD9C100000C942C1A0C946D1B8F
:1000E000D3C10000FF0000008B0000008B00000067
:1000F0008B0000008B0000008B0000008B000000D4
:100100008B000000FF0000008B000000EBCE87009A
:10011000EBCE8700E6D8AD00FFFFFF00E6D8AD00CC
:10012000EBCE87000000000000008000000000000F
:100130000000800000008B000000800000008B00A9
:1001400000008B0000008B000000FF0000A5FF00F6
:10015000FFFFFF0000A5FF000000FF0000008B0074
:1001600000000000701919008B00000070191900C0
:10017000800000008B000000CD000000578B2E0097
:1001800080800000A09E5F00FF0000008B8B0000BD
:10019000ED956400D4FF7F00578B2E00FFFF000019
:1001A000FACE870000640000006400002F6B550049
:1001B0000064000000800000228B2200238E6B0070
:1001C00000800000578B2E00AACD660032CD320091
:1001D00032CD9A0090EE900000FC7C00AACD660023
:1001E000228B22000000FF00002AD5000055AB0042
:1001F000007FAB0000ABAB0000D5560000FF000055
:100200002AD5000055AB0000AA560000FF000000F0
:10021000D5002A00AB00550081007F005500AB00DF
:100220002B00D5000000FF00000000000055AB00CF
:100230000000000000ABAB000000000000FF000069
:100240000000000055AB000000000000FF000000AF
:1002500000000000AB005500000000005500AB009E
:1002600000000000AB0055007C0084004B00B5008E
:100270001B00E5000017E8000047B8000077AB005E
:1002800000ABAB000055AB000022DD000E00F20019
:100290003E00C20071008F00A1005F00D0002F005F
:1002A000F9070000000000000000330000006600B5
:1002B000000099000000CC000000FF000033FF00A8
:1002C0000066FF000099FF0000CCFF0000FFFF0068
:1002D00033FFFF0066FFFF0099FFFF00CCFFFF0028
:1002E000FFFFFF0000FF000020AB550040ABAB005C
:1002F0006000FF008000AB55A00000FFC05500ABC0
:10030000E0AB0055FFFF00000000210024002700A3
:100310002A002D0030003300010100000401070114
:100320000A0100002200250028002B002E003100C9
:10033000340002010000050108010B01000020004B
:100340002300260029002C002F00320000010000AD
:100350000301060109010505050507050808080848
:10036000020202020A0A080804040404010101014D
:100370000101010103030303030303030407070748
:100380000C0C0C0C0C0C0C0C0202020206060606ED
:10039000060606060B0B0B0B0B0B0B0B01021020BA
:1003A00020080810204010204080020102010804AB
:1003B000020101020408102040808040201008043F
:1003C0000201800402018040201008040201080498
:1003D00002010102040810204080010204081020DC
:1003E00040800000090A02080B0C0D0706030401F7
:1003F00000000000000000000000000000000000FD
:1004000000000000000000000000000000001110CB
:100410000F000000000000000000000000000000CD
:10042000000000000000000082026715DC1C11249F
:100430001FBECFEFD1E2DEBFCDBF00E00CBF15E0A5
:10044000A0E0B2E0E8E3F0E400E00BBF02C00790F8
:100450000D92A032B107D9F71BBE1CE0A0E2B5E0B7
:1004600001C01D92A83BB107E1F714E0CEE2D4E051
:1004700004C02297FE010E941620C832D107C9F796
:100480000E94121E0C941A20BBCD229A089580E976
:1004900091E008951F93CF93DF93382F492F8091D8
:1004A000D8098F5F87708093D80980FD02C020E053
:1004B00001C020E881FD206482FD2062122F105FC0
:1004C000832F942F9C01F901C0E0D0E06285662360
:1004D00031F080E091E070E00E94C41F6F5F67839D
:1004E000212F269F212D11242483662311F0615092
:1004F000678321963196C330D10541F7DF91CF91C3
:100500001F9108950895CF93DF9386E10E943C19CF
:10051000892B01F588E10E943C19892BD9F48AE1E5
:100520000E943C19892BB1F48CE10E943C19892B63
:1005300089F48EE10E943C19892B61F48AE090E0F5
:1005400090938A088093890887E19CE060E072E0DC
:100550000E94801F86E10E943C19892BD1F488E11A
:100560000E943C19892BA9F48AE10E943C19892B2D
:1005700081F48CE10E943C19892B59F48EE10E9490
:100580003C19019731F48BE090E090938A088093B6
:10059000890886E10E943C19892BD1F488E10E94E8
:1005A0003C19892BA9F48AE10E943C19892B81F41A
:1005B0008CE10E943C19019759F48EE10E943C198C
:1005C000892B31F48CE090E090938A08809389081D
:1005D00086E10E943C19892BD1F488E10E943C19E4
:1005E000892BA9F48AE10E943C19892B81F48CE1C2
:1005F0000E943C19019759F48EE10E943C19019721
:1006000031F48DE090E090938A088093890886E128
:100610000E943C19892BD1F488E10E943C19892B56
:10062000A9F48AE10E943C19019781F48CE10E94AF
:100630003C19892B59F48EE10E943C19892B31F425
:100640008EE090E090938A088093890886E10E946A
:100650003C19892BD1F488E10E943C19892BA9F41B
:100660008AE10E943C19019781F48CE10E943C19B7
:10067000892B59F48EE10E943C19019731F48FE0E7
:1006800090E090938A088093890886E10E943C1943
:10069000892BD1F488E10E943C19892BA9F48AE1C5
:1006A0000E943C19019781F48CE10E943C1901974A
:1006B00059F48EE10E943C19892B31F480E190E0DD
:1006C00090938A088093890886E10E943C19892BBF
:1006D000D1F488E10E943C19892BA9F48AE10E9497
:1006E0003C19019781F48CE10E943C19019759F45F
:1006F0008EE10E943C19019731F481E190E09093E2
:100700008A088093890886E10E943C19892BD1F4DC
:1007100088E10E943C190197A9F48AE10E943C19E2
:10072000892B81F48CE10E943C19892B59F48EE1CC
:100730000E943C19892B31F482E190E090938A0861
:100740008093890886E10E943C19892BC1F488E1D5
:100750000E943C19019799F48AE10E943C19892B67
:1007600071F48CE10E943C19892B49F48EE10E94BE
:100770003C19019721F410928A081092890886E1A9
:100780000E943C19892BD1F488E10E943C19019701
:10079000A9F48AE10E943C19892B81F48CE10E9422
:1007A0003C19019759F48EE10E943C19892B31F4D0
:1007B00083E190E090938A088093890886E10E9403
:1007C0003C19892BD1F488E10E943C190197A9F4C6
:1007D0008AE10E943C19892B81F48CE10E943C192A
:1007E000019759F48EE10E943C19019731F484E19C
:1007F00090E090938A088093890886E10E943C19D2
:10080000892BD1F488E10E943C190197A9F48AE16F
:100810000E943C19EC018130910571F48CE10E9439
:100820003C19892B49F48EE10E943C19892B21F453
:10083000D0938A08C093890886E10E943C19892BCD
:10084000D1F488E10E943C190197A9F48AE10E9441
:100850003C19019781F48CE10E943C19892B59F4D1
:100860008EE10E943C19019731F482E090E0909370
:100870008A088093890886E10E943C19892BD1F46B
:1008800088E10E943C190197A9F48AE10E943C1971
:10089000019781F48CE10E943C19019759F48EE193
:1008A0000E943C19892B31F483E090E090938A08F0
:1008B0008093890886E10E943C19892BD1F488E154
:1008C0000E943C190197A9F48AE10E943C19019702
:1008D00081F48CE10E943C19019759F48EE10E9449
:1008E0003C19019731F484E090E090938A0880935A
:1008F000890886E10E943C190197D1F488E10E94A1
:100900003C19892BA9F48AE10E943C19892B81F4B6
:100910008CE10E943C19892B59F48EE10E943C190C
:10092000892B31F485E090E090938A0880938908C0
:1009300086E10E943C190197D1F488E10E943C199C
:10094000892BA9F48AE10E943C19892B81F48CE15E
:100950000E943C19892B59F48EE10E943C190197A1
:1009600031F486E090E090938A088093890886E1CC
:100970000E943C190197D1F488E10E943C19892B0F
:10098000A9F48AE10E943C19892B81F48CE10E9430
:100990003C19019759F48EE10E943C19892B31F4DE
:1009A00087E090E090938A088093890886E10E940E
:1009B0003C190197D1F488E10E943C19892BA9F4D4
:1009C0008AE10E943C19892B81F48CE10E943C1938
:1009D000019759F48EE10E943C19019731F488E0A7
:1009E00090E090938A088093890886E10E943C19E0
:1009F0000197D1F488E10E943C19892BA9F48AE17E
:100A00000E943C19019781F48CE10E943C19892BCA
:100A100059F48EE10E943C19892B31F489E090E071
:100A200090938A0880938908DF91CF91089587E198
:100A30009CE066E072E00E94801F81E08093A30842
:100A40008091A6089091A7089093A5088093A40888
:100A500008951F93CF93DF93EC010E94C11710E01C
:100A6000288139814A815B81621B730B840B950B52
:100A70002C813D814E815F81621773078407950742
:100A800038F011E00E94C117688379838A839B83C1
:100A9000812FDF91CF911F9108951F9380918D0831
:100AA000882301F58DE898E00E941F1E892BD1F064
:100AB0000E94C117609396087093970880939808D6
:100AC0009093990882E390E0A0E0B0E080939A08C8
:100AD00090939B08A0939C08B0939D088DE898E0A4
:100AE0000E94291E86E998E0B4DF882311F184E290
:100AF0000E943C192091950830E08217930779F005
:100B000087E19CE069E272E00E94801F8091950875
:100B100011E0812780939508F6DC10938C0882E21F
:100B20000E943C1910928B08892B19F081E0809368
:100B30008B081F9108958091AB08882301F58BEAFB
:100B400098E00E941F1E892BD1F00E94C11760936C
:100B5000B3087093B4088093B5089093B60881E306
:100B600090E0A0E0B0E08093B7089093B808A0931D
:100B7000B908B093BA088BEA98E00E94291E83EB6B
:100B800098E067DF882309F4B4C080918C0888233B
:100B900009F43CC08091890890918A080C97B1F5BE
:100BA0008091A308882311F442DF2EC08091A4080D
:100BB0009091A5088130910569F00397B1F481E027
:100BC00090E09093A5088093A40887E19CE06FE4EF
:100BD00072E015C082E090E09093A5088093A4088D
:100BE00087E19CE06DE772E00AC083E090E09093BB
:100BF000A5088093A40887E19CE06CEA72E00E945B
:100C0000801F81E08093AA0810928C0880918C0844
:100C1000882309F44CC08091890890918A0808972C
:100C200009F045C08091A308882311F400DF3DC07E
:100C30008091A4089091A5088530910589F08630AF
:100C4000910519F0049711F516C087E090E0909394
:100C5000A5088093A40887E19CE069ED72E020C0BC
:100C600086E090E09093A5088093A40887E19CE03B
:100C700060E173E015C085E090E09093A508809353
:100C8000A40887E19CE061E473E00AC084E090E09E
:100C90009093A5088093A40887E19CE062E773E045
:100CA0000E94801F81E08093AA0810928C08809196
:100CB0008C088823F1F08091890890918A0809971F
:100CC000C1F483E090E09093A5088093A4088FEF8F
:100CD0008093A2081092A9081092A80891E090931E
:100CE000AA088091A308882311F49093A308109276
:100CF0008C0808951F93182F8091B709882301F558
:100D000087EB99E00E941F1E892BD1F00E94C1172A
:100D10006093BF097093C0098093C1099093C20981
:100D20008FE090E0A0E0B0E08093C3099093C40905
:100D3000A093C509B093C60987EB99E00E94291ECC
:100D40008FEB99E086DE882309F440C03091D90901
:100D5000832F90E0811B91098B3091052CF42FEFAC
:100D6000863F92078CF503C08531910534F422E06B
:100D70004FEF8C3E94072CF403C08F31910534F46F
:100D800024E04FEF823E94072CF403C08932910592
:100D900034F428E04FEF883D94072CF403C08734E7
:100DA000910524F420E18A5B9F4F0CF420E2311777
:100DB00018F4320F3093D9098091D909181730F4FB
:100DC000821B8093D90902C021E0D2CF1F910895E0
:100DD0009F92AF92BF92CF92DF92EF92FF920F93CA
:100DE0001F93CF93DF93EC01962EF42E58016901E7
:100DF0008F3F910509F010F4D82FCC270E94C1171E
:100E00006A197B098C099D0928E131E040E050E036
:100E10000E94911F9E0140E050E00E94911FBC0182
:100E200088279927672F7727E60E8E2DE6FC809579
:100E3000E82FEF73982F9F70E6FC9F5FE295EF70AD
:100E4000EE0FF0E0E650FB4F8181899F802D912DC0
:100E5000112482958F709295907F892B2081280F85
:100E6000E7FC2195F91820583F2D239F212D1124AF
:100E7000822F890DDF91CF911F910F91FF90EF90FD
:100E8000DF90CF90BF90AF909F9008958091BB0866
:100E9000882301F58BEB98E00E941F1E892BD1F06F
:100EA0000E94C1176093C3087093C4088093C5085B
:100EB0009093C60882E390E0A0E0B0E08093C7087A
:100EC0009093C808A093C908B093CA088BEB98E028
:100ED0000E94291E83EC98E0BCDD882309F428C118
:100EE0008091A4089091A5088330910531F081305C
:100EF000910519F0029709F0B1C080918C08882300
:100F000029F480918B08882309F4A8C0809189086E
:100F100090918A080F9709F0A1C080919E08909146
:100F20009F08A091A008B091A1088A3A26ED9207E7
:100F30002FEFA20720E0B20709F44DC08B3A26ED4F
:100F400092072FEFA20720E0B207BCF4893223E911
:100F500092072FEFA20720E0B20799F18F3825EC16
:100F600092072FEFA20720E0B20781F18F5F924E28
:100F7000A94CB04009F04DC047C0843F2AEF92070A
:100F80002FEFA20720E0B20781F1853F2AEF9207F9
:100F90002FEFA20720E0B20734F4805E914FAF4FED
:100FA000B040B9F51DC08B3F2FEF92072FEFA2077E
:100FB00020E0B207F9F08F5F9F4FAF4FB04049F587
:100FC0001EC08FE895ECAFEFB0E027C08AEA96ED3F
:100FD000AFEFB0E022C080EE91EFAFEFB0E01DC008
:100FE00084EF9AEFAFEFB0E018C08BEF9FEFAFEF59
:100FF000B0E013C08FEF9FEFAFEFB0E00EC08FEF08
:1010000092EEA9ECB0E009C08FEF9CE9A0E4B0E05B
:1010100004C089E293E9AFEFB0E080939E0890931B
:101020009F08A093A008B093A10881E08093AA082C
:1010300087E19CE06FE973E00E947E1F40919E086B
:1010400050919F086091A0087091A10887E19CE0F1
:101050002AE030E00E946C1F10928C088091A40856
:101060009091A5088330910531F08130910519F0F8
:10107000029709F05DC080918C08882329F4809143
:101080008B08882309F454C08091890890918A08BC
:101090000D9709F04DC080919E0890919F08A091F6
:1010A000A008B091A1088F3825EC92072FEFA20776
:1010B00020E0B20771F08A3A26ED92072FEFA207DF
:1010C00020E0B20759F089529349AF4FB04059F42C
:1010D00005C089E293E9AFEFB0E009C08FE895EC75
:1010E000AFEFB0E004C08FEF9FEFAFEFB0E08093C1
:1010F0009E0890939F08A093A008B093A10881E058
:101100008093AA0887E19CE06DEB73E00E947E1F4C
:1011100040919E0850919F086091A0087091A1088D
:1011200087E19CE02AE030E00E946C1F10928C085E
:101130000895EF92FF920F931F93CF93DF937C015B
:10114000EB010E94C1172091CC083091CD0840914D
:10115000CE085091CF08621B730B840B950B00E0F7
:1011600010E0E616F70608071907B8F48091CB08D7
:10117000882399F40E94C1176093CC087093CD081E
:101180008093CE089093CF086091CB0881E06827C8
:101190006093CB088DE00E940A190E94C11720912C
:1011A000CC083091CD084091CE085091CF08621BF9
:1011B000730B840B950B9E0140E050E02617370718
:1011C00048075907B8F48091CB08882399F00E940A
:1011D000C1176093CC087093CD088093CE0890938C
:1011E000CF086091CB0881E068276093CB088DE041
:1011F0000E940A19DF91CF911F910F91FF90EF90FC
:1012000008952F923F924F925F926F927F928F92AA
:101210009F92AF92BF92CF92DF92EF92FF920F9385
:101220001F93DF93CF93CDB7DEB72A970FB6F8940D
:10123000DEBF0FBECDBF9A8789876B01DA01390106
:10124000F80126173707D0F43081398321812A83AA
:1012500092819B838C91808311968C9111978183CD
:1012600012968C91129782833C9311962C9311972E
:1012700012969C931297C3013B016C0182818823D3
:1012800019F08181882311F48C91808312968C91BE
:101290001297882329F011968C911197882311F4C5
:1012A00080818C93218111968C911197882E99249D
:1012B000528012968C911297A82EBB244C910081DB
:1012C000041B62E0E616F10419F407FF0AC010C01F
:1012D00073E0E716F10419F407FF0AC002C0EF2813
:1012E00039F410E01695102F0027179507950CC0BC
:1012F0000195802F90E09695982F88279795879550
:1013000000271127081B190BB3016C197D0921F463
:1013100081E0E82EF12C01C07B01C801B7010E94D9
:10132000C41FFB01822F90E0881999099695982F88
:10133000882797958795B7010E94C41F9B01852D2B
:1013400090E08A199B099695982F882797958795FD
:10135000B7010E94C41FCB01BF01660F771F7887BA
:101360006F831901220C331C2C01440C551CF42EE4
:10137000EE24982C8824BA2CAA248601000F111F71
:101380000C0D1D1D89859A85080F191F15C0FC823B
:101390009D82BE82CE010496B8010E949A166F818A
:1013A0007885E60EF71E820C931CA40CB51C0894DD
:1013B000C11CD11C0D5F1F4F6C147D0440F72A9691
:1013C0000FB6F894DEBF0FBECDBFCF91DF911F9156
:1013D0000F91FF90EF90DF90CF90BF90AF909F90D4
:1013E0008F907F906F905F904F903F902F900895D7
:1013F0002F923F924F925F926F927F928F929F9225
:10140000AF92BF92CF92DF92EF92FF920F931F9312
:10141000DF93CF93CDB7DEB766970FB6F894DEBFF4
:101420000FBECDBF1C013B01FA0159014801270144
:10143000CB0163E070E00E94B01F6B8B7C8BC3011B
:10144000880F991F63E070E00E94B01F6D8B7E8B48
:101450008081898381818A8382818B83F901808164
:101460008C8381818D8382818E83C10160E070E0F5
:10147000AE014F5F5F4F2B893C898E010C5F1F4F80
:101480007601BFDEF50180818F838181888782812B
:101490008987F40180818A8781818B8782818C870B
:1014A000C1016B897C89AE01495F5F4F2D893E89FF
:1014B0008E01065F1F4FA5DEF40180818D8781813B
:1014C0008E8782818F87F2018081888B8181898BD1
:1014D00082818A8B089461087108C1016D897E89B7
:1014E000AE01435F5F4F93018E01005F1F4F89DEA6
:1014F00066960FB6F894DEBF0FBECDBFCF91DF91D9
:101500001F910F91FF90EF90DF90CF90BF90AF9021
:101510009F908F907F906F905F904F903F902F9013
:1015200008959F92AF92BF92CF92DF92EF92FF9277
:101530000F931F93DF93CF9300D0CDB7DEB787E132
:101540009CE06BED73E00E94801F66E8E62E68E089
:10155000F62E01E010E05BE4952E43E2A42E41E07C
:10156000B42E6E010894C11CD11C00361105A4F4E0
:1015700080919E0890919F08A091A008B091A10829
:101580009D0144275527F7012083292F3A2F4B2F00
:1015900055272183828315C09091A9088091A808BE
:1015A000865D89839A839B82C501801B910BBC0158
:1015B000660F771F680F791F605E7A4FC6010E9421
:1015C0009A160F5F1F4F8DEF9FEFE80EF91E91E007
:1015D0000432190751F61092AA080F900F900F903D
:1015E000CF91DF911F910F91FF90EF90DF90CF90FF
:1015F000BF90AF909F900895AF92BF92CF92DF922D
:10160000EF92FF920F931F93DF93CF93CDB7DEB787
:10161000EF970FB6F894DEBF0FBECDBF8091D00814
:10162000882351F480ED98E00E941F1E892B21F041
:1016300080ED98E00E94291E8091D808882351F4FB
:1016400088ED98E00E941F1E892B21F088ED98E01C
:101650000E94291E64E479E000E010E0F801EE0F3A
:10166000FF1FEE0FFF1FEC51FE4F85919591A59145
:10167000B4919D0144275527FB012083292F3A2F40
:101680004B2F5527218382830F5F1F4F6D5F7F4F45
:101690000031110519F764E179E000E010E0F8018C
:1016A000EE0FFF1FEE0FFF1FEC51FE4F859195913E
:1016B000A591B4919D0144275527FB012083292F33
:1016C0003A2F4B2F5527218382830F5F1F4F6D5F6A
:1016D0007F4F0031110519F781E090E090931309D5
:1016E000809312098091E0088823B1F480EE98E09D
:1016F0000E941F1E892B81F081E090E060E04FEF97
:1017000000E010E020E030E0EE2462DB809311097D
:1017100080EE98E00E94291E8091E8088823B1F4A9
:1017200088EE98E00E941F1E892B81F082E090E0F5
:1017300062E047E000E010E020E030E0EE2448DB2B
:101740008093100988EE98E00E94291EB0E2EB2EEB
:10175000B5E0FB2E6E010894C11CD11C009112094A
:1017600010911309C60164E479E0409111092FEF4B
:101770000E941E148981F70180838A8181838B8175
:1017800082838091110990911009890F809311092A
:1017900083E090E0E80EF91E99E8E91698E0F90672
:1017A000E9F68091F008882301F580EF98E00E9427
:1017B0001F1E892BD1F00E94C117609308097093F6
:1017C000090980930A0990930B0984E690E0A0E050
:1017D000B0E080930C0990930D09A0930E09B0938B
:1017E0000F0980EF98E00E94291E88E099E031D926
:1017F000882339F084E499E064E179E048E10E94CB
:1018000088148091F808882301F588EF98E00E94F9
:101810001F1E892BD1F00E94C1176093000970939D
:101820000109809302099093030988E893E1A0E0FD
:10183000B0E08093040990930509A0930609B09342
:10184000070988EF98E00E94291E80E099E001D9FD
:10185000882309F474C08091F4049091F50445E064
:1018600058E0849FF001859FF00D949FF00D1124A6
:10187000E75EF94CE49FB001E59F700DF49F700D99
:101880001124675E794C649FC001659F900D749F21
:10189000900D1124875E994C192F180F20E4129F88
:1018A000112D1124849F9001859F300D949F300D40
:1018B0001124275E394C249FC001259F900D349F31
:1018C000900D1124875E994C9093F5048093F40455
:1018D000890F8D879FEF9E879F87832F820F8A872F
:1018E0009B8720E22C87872F860F8F8310541887C1
:1018F00099878F2F8E0F8C839D832E83A0E1AA2E34
:10190000B12CAC0EBD1EC50160E170E0AE014C5FB4
:101910005F4F9E01295F3F4F8E01065F1F4FFDE025
:10192000EF2EF12CEC0EFD1EE2E0CE2ED12C60DD70
:1019300084E199E0B50140E350E00E944817EF963A
:101940000FB6F894DEBF0FBECDBFCF91DF911F91D0
:101950000F91FF90EF90DF90CF90BF90AF900895E0
:10196000EF920F931F9386E090E060E04FEF00E06E
:1019700010E020E030E0EE242BDA482F8093750948
:1019800011E01093740980E295E063E271E021E0D8
:10199000E2D71093AA081F910F91EF9008958091BC
:1019A0007609882301F586E799E00E941F1E892B9E
:1019B000D1F00E94C11760937E0970937F098093D4
:1019C0008009909381098EE190E0A0E0B0E08093DF
:1019D000820990938309A0938409B093850986E7CF
:1019E00099E00E94291E8EE799E033D8882371F090
:1019F000409186094F5F4093860980E295E063E25B
:101A000071E022E0A8D781E08093AA0808956F9240
:101A10007F928F929F92AF92BF92CF92DF92EF927E
:101A2000FF920F931F93DF93CF9300D000D0CDB7D9
:101A3000DEB70E94C11728EE33E040E050E00E947C
:101A4000D71FCA01B9012AE030E040E050E00E940F
:101A5000D71F8091F3048617E1F16093F30465309A
:101A600061F06A3091F06623A1F512E000EC802E5F
:101A7000912C612CB1E07B2E33C018E0A0E88A2EB7
:101A8000912CF0E46F2E712C2BC02091F404309136
:101A9000F50485E098E0289FB001299F700D389FDC
:101AA000700D1124675E794C7093F5046093F40413
:101AB00080E090E02FEF30E040E050E00E94911F86
:101AC000BC01882799274B0111E050E1652E712C4C
:101AD00007C015E042E3842E912C612C32E0732E76
:101AE00080918709882301F587E899E00E941F1EED
:101AF000892BD1F00E94C11760938F0970939009D0
:101B0000809391099093920984E190E0A0E0B0E085
:101B10008093930990939409A0939509B0939609A3
:101B200087E899E00E94291E8FE899E00E94290524
:101B3000882309F468C080E295E063E271E0412FF8
:101B400065D68091F4049091F50425E0A22E28E05A
:101B5000B22E8A9D60018B9DD00C9A9DD00C1124D1
:101B600089E196E3C80ED91EB60180E090E023E239
:101B700031E040E050E00E94911F7B018C01780130
:101B800000271127CA9C9001CB9C300DDA9C300DA8
:101B90001124275E394C3093F5042093F404B301EB
:101BA00080E090E040E050E00E94911FBC01882757
:101BB0009927860E971E9694879496948794898287
:101BC0008FEF8A838B83CE010196BE016C5F7F4FBE
:101BD0000E949A163C81F701EE0FFF1FEE0DFF1DCC
:101BE000E05EFA4F2081230F08F42FEF20833D8120
:101BF0002181230F08F42FEF21833E812281230FBF
:101C000008F42FEF228381E08093AA0826960FB66E
:101C1000F894DEBF0FBECDBFCF91DF911F910F9122
:101C2000FF90EF90DF90CF90BF90AF909F908F90FC
:101C30007F906F900895EF92FF920F931F93DF9321
:101C4000CF93CDB7DEB729970FB6F894DEBF0FBE9E
:101C5000CDBF87E19CE06CEE73E00E94801F19828B
:101C60001A828BE48B838E010C5F1F4FCE0101968D
:101C7000B8010E949A1620E2E22E25E0F22EC7015A
:101C800063E271E0A801ACD520919E0830919F08D5
:101C90004091A0085091A108CA01AA27BB278F83B1
:101CA000BB27A52F942F832F88872987C7016DE62F
:101CB00070E0AE01495F5F4F93D51092AA08299654
:101CC0000FB6F894DEBF0FBECDBFCF91DF911F914D
:101CD0000F91FF90EF900895DF93CF9300D0CDB791
:101CE000DEB787E19CE06CEF73E00E94801F80917B
:101CF0009E0890919F08A091A008B091A1089D0115
:101D0000442755272983292F3A2F4B2F55272A83DC
:101D10008B8380E295E063E271E0AE014F5F5F4F3D
:101D20005FD51092AA080F900F900F90CF91DF917E
:101D300008952091A4083091A5088091A60890915B
:101D4000A7082817390739F03093A7082093A60869
:101D500081E08093AA082330310529F48091AA08F4
:101D60008823C9F0B9CF2130310529F48091AA0820
:101D70008823C9F060CF2230310529F48091AA0868
:101D80008823C9F0CECB2430310529F48091AA08EC
:101D90008823C9F03CCE2530310529F48091AA086A
:101DA000882389F0FCCD2630310529F48091AA08DA
:101DB000882349F0D5CD2730310529F48091AA0830
:101DC000882309F019CC0895EF92FF920F931F9387
:101DD0005EE1E52EF12C012D112D34C08091970983
:101DE0008823E1F487E999E00E941F1E892BB1F056
:101DF0000E94C11760939F097093A0098093A10965
:101E00009093A209E092A309F092A4090093A50976
:101E10001093A60987E999E00E94291E8FE999E0AD
:101E20000E942905882349F08091A2080E947A0621
:101E300089ED99E06091D9099FD68AE090E064E647
:101E400070E077D99091D9098091A208981731F65E
:101E500087E19CE06BE074E00E94801F1F910F916E
:101E6000FF90EF900895EF92FF920F931F936EE112
:101E7000E62EF12C012D112D33C08091A709882366
:101E8000E1F487EA99E00E941F1E892BB1F00E94BD
:101E9000C1176093AF097093B0098093B109909313
:101EA000B209E092B309F092B4090093B509109316
:101EB000B60987EA99E00E94291E8FEA99E00E94FC
:101EC0002905882341F080E00E947A0689ED99E097
:101ED0006091D90951D684E690E06AE070E029D992
:101EE0008091D909882349F687E19CE06AE174E092
:101EF0000E94801F1F910F91FF90EF900895809195
:101F0000890890918A08419709F057C080918C0800
:101F1000882329F480918B08882309F44EC080918E
:101F20008B088823A1F08091A2088B3040F08A5062
:101F30008093A20887E19CE06BE274E01BC085E01F
:101F40008093A20887E19CE062E374E013C0809173
:101F5000A208863040F085508093A20887E19CE07B
:101F600067E374E007C085E08093A20887E19CE006
:101F70006EE374E00E947E1F81E08093AA0887E1EF
:101F80009CE065E474E00E947E1F87E19CE0609124
:101F9000A2084AE050E00E94011F87E19CE067E64A
:101FA00074E00E947E1F87E19CE06091D9094AE0BD
:101FB00050E00E94121F10928C0880918908909125
:101FC0008A080B9709F04FC080918C08882329F468
:101FD00080918B08882309F446C080918B08882360
:101FE00061F08091A208863FA0F4865F8093A208EA
:101FF00087E19CE069E674E013C08091A208803F0D
:1020000040F48B5F8093A20887E19CE060E774E076
:1020100007C08FEF8093A20887E19CE06EE374E035
:102020000E947E1F81E08093AA0887E19CE067E719
:1020300074E00E947E1F87E19CE06091A2084AE064
:1020400050E00E94011F87E19CE067E674E00E9477
:102050007E1F87E19CE06091D9094AE050E00E9430
:10206000121F10928C088091A2080C947A061F937C
:102070000E944D058091C7098823F9F487EC99E007
:102080000E941F1E892BC9F07CD76093CF097093E3
:10209000D0098093D1099093D20982E390E0A0E027
:1020A000B0E08093D3099093D409A093D509B0935D
:1020B000D60987EC99E00E94291E8FEC99E00E94D6
:1020C0002905882329F18091890890918A080A9727
:1020D000F9F480918C088823D9F08091A30811E04D
:1020E00081278093A308882341F487E19CE065E978
:1020F00074E00E94801FB7DE09C087E19CE068EBB6
:1021000074E00E94801F60DE1093AA0810928C0871
:102110000E949B058091A308882371F00ADEEFDE00
:102120000E94460789ED99E06091D90925D58AE09A
:1021300090E068EB7BE004C088EB9BE062E070E03D
:102140000E9499081F910895EF92FF920F931F9399
:10215000CF93DF93EC018B017A0180919F0C882350
:1021600009F04DC08FE99CE00E941F1E892B09F4E5
:1021700046C01092AA0C1092A90C8FEF8093AD0C60
:102180008093AE0C8093AF0C8093B00C8093B10C15
:102190008093B20C81E08093B30C1092B50C109236
:1021A000B40C1092AC0C1092AB0C8091E0099091A1
:1021B000E109892B31F487EA9CE09093E10980934F
:1021C000E009E091E209F091E309309721F087EA14
:1021D0009CE09583848387EA9CE09093E309809355
:1021E000E2091092B70C1092B60C86E095E090933D
:1021F000A80C8093A70C8FE99CE00E94291E87EA17
:102200009CE0BE01A801970124D4DF91CF911F91DA
:102210000F91FF90EF9008950F931F9380E295E048
:1022200063E271E040E050E08FDF1092D90985E071
:1022300048EC50E060E070E045D607E11CE0C801E2
:1022400040E855E260E070E00E94AC1BC8016AED16
:1022500074E00E94801F84E260E029D782E260E09F
:1022600026D78EE160E023D78CE160E020D78AE1B9
:1022700060E01DD788E160E01AD786E160E017D7FB
:102280008DE061E014D782E38093A20821E02093DF
:10229000A30883E090E09093A5088093A40810928F
:1022A000A7081092A6082093AA081F910F910895DD
:1022B0004F925F926F927F929F92AF92BF92CF9216
:1022C000DF92EF92FF920F931F93DF93CF93CDB7DF
:1022D000DEB72E970FB6F894DEBF0FBECDBF2C0130
:1022E0003A01F9011E2DDC011C969C917A836983C9
:1022F0005C834B8380818B8781818C8782818D87F2
:10230000913029F4CE0101960E944A0206C01A8635
:10231000198618861F821E821D8289819A81810FEB
:10232000911D9A838983002311F480E002C0812FDC
:102330008D5F8E8734D6F20127853089621B730B3F
:102340006A307105B8F3F89459819A80A5B0F4E029
:10235000AF2AC5B08BEFC822C5B8B9848E814B2D8A
:10236000481B4E83DE848B813C811C85FB84ED847D
:102370006D819F8108857A85E981FA8121812223F7
:1023800019F0240F08F42FEF219F212D1124A82FDD
:10239000B32FE52FF92D30E0842F532F432F002C3E
:1023A000A5B800C027FFC5B840813327889400C076
:1023B00000C0002CC5B84111460F00C0002CA5B8C4
:1023C00000C026FFC5B808F44FEF889400C000C0D5
:1023D00000C0C5B8F0FC340F00C0002CA5B800C088
:1023E00025FFC5B837958894F1FC340F00C000C0B4
:1023F000002CC5B83795889400C0002CA5B800C043
:1024000024FFC5B8F2FC340F3795889400C000C093
:10241000002CC5B8F3FC340F00C0002CA5B800C0D8
:1024200023FFC5B837958894F4FC340F00C000C072
:10243000002CC5B83795889400C0002CA5B800C002
:1024400022FFC5B8F5FC340F3795889400C000C052
:10245000002CC5B8F6FC340F00C0002CA5B800C095
:1024600021FFC5B837958894F7FC340F00C000C031
:10247000002CC5B83795889400C0002CA5B800C0C2
:1024800020FFC5B86195600F00C000C000C0002CDF
:10249000C5B8232F00C000C0A5B800C027FFC5B82D
:1024A00042813327889400C000C0002CC5B8411178
:1024B000490F00C0002CA5B800C026FFC5B808F41D
:1024C0004FEF889400C000C000C0C5B8E0FC340FD6
:1024D00000C0002CA5B800C025FFC5B8379588946A
:1024E000E1FC340F00C000C0002CC5B837958894BB
:1024F00000C0002CA5B800C024FFC5B8E2FC340F12
:102500003795889400C000C0002CC5B8E3FC340F98
:1025100000C0002CA5B800C023FFC5B8379588942B
:10252000E4FC340F00C000C0002CC5B83795889477
:1025300000C0002CA5B800C022FFC5B8E5FC340FD0
:102540003795889400C000C0002CC5B8E6FC340F55
:1025500000C0002CA5B800C021FFC5B837958894ED
:10256000E7FC340F00C000C0002CC5B83795889434
:1025700000C0002CA5B800C020FFC5B8ED0DF11DAE
:102580008894232F00C000C0002CC5B89195970FE8
:1025900000C0002CA5B800C027FFC5B84181332773
:1025A000889400C000C0002CC5B84111480F00C07D
:1025B000002CA5B800C026FFC5B808F44FEF8894DA
:1025C00000C000C000C0C5B810FD340F00C0002C12
:1025D000A5B800C025FFC5B83795889411FD340F04
:1025E00000C000C0002CC5B83795889400C0002CEE
:1025F000A5B800C024FFC5B812FD340F37958894E4
:1026000000C000C0002CC5B813FD340F00C0002C62
:10261000A5B800C023FFC5B83795889414FD340FC2
:1026200000C000C0002CC5B83795889400C0002CAD
:10263000A5B800C022FFC5B815FD340F37958894A2
:1026400000C000C0002CC5B816FD340F00C0002C1F
:10265000A5B800C021FFC5B83795889417FD340F81
:1026600000C000C0002CC5B83795889400C0002C6D
:10267000A5B800C020FFC5B881958B0D232F00C0E1
:1026800000C000C0C5B8119709F08ACEB3018827F1
:1026900077FD8095982F20EE31E040E050E00E94D9
:1026A000911FB4E09695879577956795BA95D1F780
:1026B000E0E0F0E09F014AE9649E212D749E200D28
:1026C000311D112440E050E0260F371F481F591FCD
:1026D000293EA3E03A07A0E04A07A0E05A0790F19C
:1026E000285E334040405040A2E0569547953795CC
:1026F0002795AA95D1F787E0289FE12D389FE00D17
:10270000F11D11248091D709280F311D2E0F3F1F75
:102710004091F2095091F3096091F4097091F50923
:10272000832F9927A0E0B0E0840F951FA61FB71F45
:102730008093F2099093F309A093F409B093F509FB
:102740002093D70978942BD4F201708B67872E964B
:102750000FB6F894DEBF0FBECDBFCF91DF911F91B2
:102760000F91FF90EF90DF90CF90BF90AF909F9030
:102770007F906F905F904F900895EF92FF920F932C
:10278000DF93CF9300D0CDB7DEB7AB0119821A82A9
:102790001B829E012F5F3F4FB90100E0EE24FF2412
:1027A00087DD0F900F900F90CF91DF910F91FF90E9
:1027B000EF900895EF92FF920F9301E0EE24FF2433
:1027C00077DD0F91FF90EF900895EF92FF920F93B6
:1027D00000E0EE24FF246CDD0F91FF90EF90089550
:1027E000DA01FC0120E030E00DC08C91808311966D
:1027F0008C911197818312968C91129782832F5F0F
:102800003F4F33962617370784F308954095FC0110
:1028100080E090E00FC02081249F212D2083218122
:10282000249F212D21832281249F212D2283112465
:10283000019633968617970770F30895DF92EF920B
:10284000FF920F931F93CF93DF93E82ED92EEB01C6
:10285000F22ED801242F22952F70342F3F70822F13
:1028600090E0FC01EE0FFF1FE80FF91FE60FF71FC6
:10287000008111817281332309F424C0AB2B11F143
:102880002F3011F4FE0101C033963295307F232F93
:102890002195602F629F612D512F529F512D472FFF
:1028A000429F412D808191812281082F039F012D1C
:1028B000192F139F112D722F739F712D1124060F45
:1028C000150F740F2FEFF216A1F02F2D002321F01A
:1028D000029F012D09F00F5F112321F0129F112D8E
:1028E00009F01F5F772321F0729F712D09F07F5F40
:1028F0001124EE2DFD2D0083118372838E2D9D2DCD
:10290000DF91CF911F910F91FF90EF90DF9008958D
:10291000FC01DB0120E0BF01605D7F4F80819C9165
:10292000891799F0891718F48F5F80832F5F908142
:102930008C91891740F4915090832F5F8C91891767
:1029400010F491509083241728F431961196E617CD
:10295000F70721F708959F92AF92BF92CF92DF922F
:10296000EF92FF920F931F93DF93CF9300D0CDB7D9
:10297000DEB75B01922E49832FEF2B8320EF2A8352
:102980007C0100E010E06E010894C11CD11C0CC059
:10299000C601B701CFD18981890D89830F5F1F4F90
:1029A00083E090E0E80EF91E0A151B058CF30F90EA
:1029B0000F900F90CF91DF911F910F91FF90EF90AB
:1029C000DF90CF90BF90AF909F900895EF92FF92CD
:1029D0000F931F93CF93DF93EC014423F1F0611524
:1029E000710581F19B0140E050E060E472E48FE00A
:1029F00090E00E94F91FEB80FC800D811E81C901CF
:102A0000DA018E159F05A007B10710F4D801C701A0
:102A10008B839C83AD83BE8315C06115710571F0F6
:102A20009B0140E050E060E472E48FE090E00E949F
:102A3000F91F2B833C834D835E8304C01B821C8261
:102A40001D821E82DF91CF911F910F91FF90EF9019
:102A50000895CF92DF92EF92FF920F931F93CF933F
:102A6000DF938C017B011216130624F06A01C0E08B
:102A7000D0E002C06901EA01D801ED91FC91048027
:102A8000F581E02DC8011995CE01880F991F8C0F93
:102A90009D1F8E0D9F1DF80193838283C586D68668
:102AA0000190F081E02D0084F185E02DC801199599
:102AB000BC0189ED99E041E089DFC801DF91CF9148
:102AC0001F910F91FF90EF90DF90CF9008958FEFBF
:102AD0008093D9091092DB091092DA090895EF92D8
:102AE000FF920F931F93CF93DF93EC018091E8093E
:102AF0009091E90901969093E9098093E80901977B
:102B00008617970794F13DD29B01AC016091E809CB
:102B10007091E90988EE93E0FB01E89FB001E99F1D
:102B2000700DF89F700D1124882777FD8095982FE0
:102B3000E090E409F090E5090091E6091091E709B9
:102B40002E193F09400B510B0E94D71F3A8329834E
:102B50001092E9091092E80914D26093E409709385
:102B6000E5098093E6099093E709DF91CF911F91E2
:102B70000F91FF90EF9008952F923F924F925F92A6
:102B80006F927F928F929F92AF92BF92CF92DF927D
:102B9000EF92FF920F931F93DF93CF93CDB7DEB7E2
:102BA00029970FB6F894DEBF0FBECDBF5C016F83CF
:102BB000F50183819481A581B6810097A105B105B6
:102BC00009F4A1C0ECD12091EA093091EB094091C0
:102BD000EC095091ED09621B730B840B950BD50129
:102BE00013962D913D914D915C9116976217730745
:102BF0008407950708F087C0DBCFF801F485FE83D2
:102C0000D50111968D919C9112978436910510F4FF
:102C1000F8011486D801ED91FC911197828193817E
:102C20009D838C8312964D905C9013971D962D90EA
:102C30003C901E9719821A821B829F81992399F1D9
:102C400068017E010894E11CF11CD60116962C91B6
:102C5000169719966C912223D9F06623C9F070E07B
:102C600080E090E06F5F7F4F8F4F9F4F30E040E0FC
:102C700050E02F5F3F4F4F4F5F4F0E94911FA401C5
:102C800093010E94911FBC0188279927F701608357
:102C90000894C11CD11C0894E11CF11C88859985FD
:102CA000E816F90691F6C801B201A1019E012F5F55
:102CB0003F4FAC81BD81FD0119958E81F80184875C
:102CC000048115810115110509F097CFC50169E14E
:102CD00070E005DF29960FB6F894DEBF0FBECDBFBA
:102CE000CF91DF911F910F91FF90EF90DF90CF90E8
:102CF000BF90AF909F908F907F906F905F904F901C
:102D00003F902F9008954BD16093EA097093EB099F
:102D10008093EC099093ED090091E0091091E1098D
:102D20009F81692E772488249924DE011496B9871F
:102D3000A887C8CF1F93FC01DB01808171811281BC
:102D4000482F4F71440F440F440F642F25E5629FB5
:102D5000612D1124282F30E087FD24C0C901807225
:102D6000907026FD0CC0892B29F4562F509580E0D9
:102D7000462F11C0462F4B5A80E05BEA0CC0892BCE
:102D800061F4242F3AEA239F212D11245BEA521B80
:102D9000462F455580E030E02AC080E0462F409520
:102DA000362F11C0C9018072907026FD13C0892B87
:102DB00061F480E0242F3AEA239F212D11244BEA6D
:102DC000421B322F3B5A50E012C080E0362F309524
:102DD000562F0CC0892B29F4562F5B5A80E03BEA12
:102DE00004C0562F555580E035E5361B40E07F3F47
:102DF00009F41BC0552321F0579F512D09F05F5F47
:102E0000442321F0479F412D09F04F5F332321F0E8
:102E1000379F312D09F03F5F1124272F2095229FE6
:102E2000212D1124520F420F320F1F3F09F41AC0F7
:102E300020E0112321F0119F212D09F02F5F552350
:102E400021F0529F512D09F05F5F442321F0429FF2
:102E5000412D09F04F5F332321F0329F312D09F0CE
:102E60003F5F11245C9311964C93119712963C93FB
:102E70001F910895FB01DC0140FF05C002C00190D5
:102E80000D9201900D924250D0F75040C0F7089536
:102E90008617970718F4EEDF9C0112C09C01240FDF
:102EA000351F640F751FFB01D90140FF05C002C02B
:102EB00002900E9202900E924250D0F75040C0F70E
:102EC000C90108950F931F93082F10E020E030E010
:102ED000CB01BA01A90198010E94911F6093F604E9
:102EE0007093F7048093F8049093F9041F910F9165
:102EF00008951F920F920FB60F9211242F933F93B4
:102F00008F939F93AF93BF938091F2099091F309B0
:102F1000A091F409B091F5093091F6090196A11D2F
:102F2000B11D232F2D5F2D3720F02D570196A11DA8
:102F3000B11D2093F6098093F2099093F309A093B1
:102F4000F409B093F5098091EE099091EF09A091F1
:102F5000F009B091F1090196A11DB11D8093EE0910
:102F60009093EF09A093F009B093F109BF91AF914D
:102F70009F918F913F912F910F900FBE0F901F90B7
:102F800018958FB7F8942091F2093091F309409188
:102F9000F4095091F5098FBFB901CA0108959FB78F
:102FA000F8942091EE093091EF094091F009509189
:102FB000F10986B5A89B06C08F3F21F02F5F3F4FD8
:102FC0004F4F5F4F9FBF542F432F322F2227280F81
:102FD000311D411D511D82E0220F331F441F551F1B
:102FE0008A95D1F7B901CA010895789484B58260B1
:102FF00084BD84B5816084BD85B5826085BD85B59D
:10300000816085BDEEE6F0E0808181608083E1E84B
:10301000F0E0108280818260808380818160808383
:10302000E0E8F0E0808181608083E1EBF0E0808186
:1030300084608083E0EBF0E0808181608083E1E95F
:10304000F0E0808182608083808181608083E0E91C
:10305000F0E0808181608083E1EAF0E0808182603D
:103060008083808181608083E0EAF0E080818160FC
:103070008083E1E2F1E080818260808380818160F1
:103080008083E0E2F1E0808181608083EAE7F0E024
:103090008081846080838081826080838081816080
:1030A00080838081806880831092C1000895CF93CF
:1030B000DF93482F50E0CA0184569C4FFC013491A5
:1030C0004A5A5C4FFA018491882369F190E0880F95
:1030D000991FFC01E85FFC4FA591B491FC01EE5DE6
:1030E000FC4FC591D491662351F42FB7F8948C917D
:1030F000932F909589238C93888189230BC062300C
:1031000061F42FB7F8948C91932F909589238C9329
:103110008881832B88832FBF06C09FB7F8948C913A
:10312000832B8C939FBFDF91CF910895893009F451
:1031300049C08A30A0F4843051F1853040F48230A7
:1031400079F1833000F5813009F063C026C0873003
:1031500079F1883098F5863009F05BC025C08D3054
:1031600009F442C08E3028F48B30B1F18C30C0F5B8
:103170002DC0803109F442C0813109F445C08F303F
:1031800009F047C037C0809180008F7703C08091DD
:1031900080008F7D80938000089584B58F7702C072
:1031A00084B58F7D84BD08958091B0008F7703C072
:1031B0008091B0008F7D8093B00008958091900041
:1031C0008F7707C0809190008F7D03C08091900021
:1031D000877F8093900008958091A0008F7707C02B
:1031E0008091A0008F7D03C08091A000877F809395
:1031F000A0000895809120018F7703C08091200165
:103200008F7D80932001089580912001877F809396
:1032100020010895FF920F931F93F62E482F50E040
:10322000CA018E519C4FFC012491CA0184569C4FC7
:10323000FC0114914A5A5C4FFA0104910023C1F039
:10324000222311F0822F72DFE02FF0E0EE0FFF1F3C
:10325000EE5DFC4FA591B4919FB7F894FF2021F447
:103260008C911095812302C08C91812B8C939FBFF0
:103270001F910F91FF9008950F931F93482F50E0D7
:10328000CA018E519C4FFC012491CA0184569C4F67
:10329000FC0104914A5A5C4FFA011491112319F46C
:1032A00020E030E014C0222311F0822F3FDF812F75
:1032B00090E0880F991F845C9C4FFC01A591B4910C
:1032C0008C9120E030E0802311F021E030E0C90152
:1032D0001F910F91089508951F920F920FB60F92AC
:1032E0000BB60F9211242F933F934F938F939F937D
:1032F000EF93FF938091C00082FD1DC04091C600F6
:103300002091370A3091380A2F5F3F4F2F7330706A
:103310008091390A90913A0A2817390771F0E091A3
:10332000370AF091380AE950F64F40833093380A53
:103330002093370A02C08091C600FF91EF919F91C0
:103340008F914F913F912F910F900BBE0F900FBE19
:103350000F901F90189508951F920F920FB60F921D
:103360000BB60F9211242F933F934F938F939F93FC
:10337000EF93FF938091C80082FD1DC04091CE0065
:103380002091BF0A3091C00A2F5F3F4F2F733070DA
:103390008091C10A9091C20A2817390771F0E09113
:1033A000BF0AF091C00AE158F54F40833093C00A3C
:1033B0002093BF0A02C08091CE00FF91EF919F91B0
:1033C0008F914F913F912F910F900BBE0F900FBE99
:1033D0000F901F90189508951F920F920FB60F929D
:1033E0000BB60F9211242F933F934F938F939F937C
:1033F000EF93FF938091D00082FD1DC04091D600D5
:103400002091470B3091480B2F5F3F4F2F73307047
:103410008091490B90914A0B2817390771F0E09180
:10342000470BF091480BE95FF44F40833093480B12
:103430002093470B02C08091D600FF91EF919F919E
:103440008F914F913F912F910F900BBE0F900FBE18
:103450000F901F90189508951F920F920FB60F921C
:103460000BB60F9211242F933F934F938F939F93FB
:10347000EF93FF938091300182FD1DC04091360192
:103480002091CF0B3091D00B2F5F3F4F2F733070B7
:103490008091D10B9091D20B2817390771F0E091F0
:1034A000CF0BF091D00BE157F44F40833093D00B0A
:1034B0002093CF0B02C080913601FF91EF919F9135
:1034C0008F914F913F912F910F900BBE0F900FBE98
:1034D0000F901F901895E091230CF091240CE05C64
:1034E000FF4F8191919120813181821B930B8F73CA
:1034F0009070892B09F0EFDEE091450CF091460CBD
:10350000E05CFF4F8191919120813181821B930B6F
:103510008F739070892B09F01EDFE091670CF0919A
:10352000680CE05CFF4F8191919120813181821B79
:10353000930B8F739070892B09F04DDFE091890C0C
:10354000F0918A0CE05CFF4F819191912081318153
:10355000821B930B8F739070892B09F07CCF089599
:103560001F920F920FB60F920BB60F9211242F934A
:103570003F938F939F93EF93FF9320917B0A30911A
:103580007C0A80917D0A90917E0A2817390731F4D0
:103590008091C1008F7D8093C10014C0E0917D0AAD
:1035A000F0917E0AE55CF54F208180917D0A909133
:1035B0007E0A01968F73907090937E0A80937D0AA5
:1035C0002093C600FF91EF919F918F913F912F9192
:1035D0000F900BBE0F900FBE0F901F9018951F926B
:1035E0000F920FB60F920BB60F9211242F933F93A9
:1035F0008F939F93EF93FF932091030B3091040BD4
:103600008091050B9091060B2817390731F48091B2
:10361000C9008F7D8093C90014C0E091050BF09123
:10362000060BED53F54F20818091050B9091060B11
:1036300001968F7390709093060B8093050B2093E7
:10364000CE00FF91EF919F918F913F912F910F901D
:103650000BBE0F900FBE0F901F9018951F920F92E8
:103660000FB60F920BB60F9211242F933F938F93A7
:103670009F93EF93FF9320918B0B30918C0B809154
:103680008D0B90918E0B2817390731F48091D10062
:103690008F7D8093D10014C0E0918D0BF0918E0B43
:1036A000E55BF44F208180918D0B90918E0B0196FC
:1036B0008F73907090938E0B80938D0B2093D60018
:1036C000FF91EF919F918F913F912F910F900BBEA2
:1036D0000F900FBE0F901F9018951F920F920FB66C
:1036E0000F920BB60F9211242F933F938F939F93BA
:1036F000EF93FF932091130C3091140C8091150CD3
:103700009091160C2817390731F4809131018F7D83
:103710008093310114C0E091150CF091160CED521C
:10372000F44F20818091150C9091160C01968F73A7
:1037300090709093160C8093150C20933601FF9196
:10374000EF919F918F913F912F910F900BBE0F9012
:103750000FBE0F901F901895AF92BF92DF92EF921D
:10376000FF920F931F93CF93DF93EC017A018B01AC
:10377000DD24403081EE580780E0680780E078075C
:1037800011F0DD24D39491E0A92EB12CEC89FD89B0
:10379000DD2069F0C50108A002C0880F991F0A94B6
:1037A000E2F7808360E079E08DE390E005C010826D
:1037B00060E874E88EE190E0A8019701F8D3215009
:1037C000304040405040569547953795279580E1C9
:1037D0002030380720F0DD2011F0DD24D7CFE88934
:1037E000F9893083EA89FB89208319A2EE89FF8950
:1037F000408121E030E0C9010C8C02C0880F991F84
:103800000A94E2F7482B4083EE89FF894081C90181
:103810000D8C02C0880F991F0A94E2F7482B408351
:10382000EE89FF894081C9010E8C02C0880F991F63
:103830000A94E2F7482B4083EE89FF8980810F8C40
:1038400002C0220F331F0A94E2F720952823208319
:10385000DF91CF911F910F91FF90EF90DF90BF907C
:10386000AF900895DC011C96ED91FC911D97E05CF2
:10387000FF4F2191319180819181281B390B2F734A
:103880003070C9010895DC011C96ED91FC911D97E3
:10389000E05CFF4F20813181E054F040DF01AE5BFE
:1038A000BF4F8D919C9111972817390719F42FEF6D
:1038B0003FEF07C08D919C91E80FF91F8081282F61
:1038C00030E0C9010895DC011C96ED91FC911D9733
:1038D000E05CFF4F20813181E054F040DF01AE5BBE
:1038E000BF4F8D919C9111972817390719F42FEF2D
:1038F0003FEF10C08D919C911197E80FF91F208127
:103900008D919C91119701968F73907011969C9355
:103910008E9330E0C9010895DC0191968C919197C6
:10392000882339F05496ED91FC915597808186FF5C
:10393000F9CF91961C920895CF93DF93EC01EE8519
:10394000FF85E05CFF4F20813181E054F0402F5F24
:103950003F4F2F733070DF01AE5BBF4F8D919C9155
:10396000119728173907D1F3E05CFF4F80819181CF
:10397000E054F040E80FF91F6083EE85FF85E05CBE
:10398000FF4F31832083EE89FF89208181E090E021
:103990000F8C02C0880F991F0A94E2F7282B20830E
:1039A00081E089A3EC89FD8980818064808381E046
:1039B00090E0DF91CF9108951F9310921A0C10920E
:1039C000190C28EE33E040E050E020931B0C3093BC
:1039D0001C0C40931D0C50931E0C64E175E0709319
:1039E000180C6093170C87EF99E09093240C809348
:1039F000230C8BE39AE09093260C8093250C85ECA6
:103A000090E09093280C8093270C84EC90E09093A6
:103A10002A0C8093290C80EC90E090932C0C8093DE
:103A20002B0C81EC90E090932E0C80932D0C82EC6B
:103A300090E09093300C80932F0C86EC90E0909364
:103A4000320C8093310C14E01093330CB3E0B0933C
:103A5000340CA7E0A093350CF5E0F093360CE1E0D0
:103A6000E093370C10923C0C10923B0C20933D0CD1
:103A700030933E0C40933F0C5093400C70933A0CA3
:103A80006093390C8FE79AE09093460C8093450C35
:103A900083EC9AE09093480C8093470C8DEC90E077
:103AA00090934A0C8093490C8CEC90E090934C0CD2
:103AB00080934B0C88EC90E090934E0C80934D0CCF
:103AC00089EC90E09093500C80934F0C8AEC90E03E
:103AD0009093520C8093510C8EEC90E09093540C88
:103AE0008093530C1093550CB093560CA093570C25
:103AF000F093580CE093590C10925E0C10925D0CF0
:103B000020935F0C3093600C4093610C5093620CD7
:103B100070935C0C60935B0C87E09BE09093680C67
:103B20008093670C8BE49BE090936A0C8093690C04
:103B300085ED90E090936C0C80936B0C84ED90E09D
:103B400090936E0C80936D0C80ED90E09093700CD0
:103B500080936F0C81ED90E09093720C8093710CC8
:103B600082ED90E09093740C8093730C86ED90E05E
:103B70009093760C8093750C1093770CB093780C1F
:103B8000A093790CF0937A0CE0937B0C1092800C4C
:103B900010927F0C2093810C3093820C4093830C05
:103BA0005093840C70937E0C60937D0C8FE89BE0A7
:103BB00090938A0C8093890C83ED9BE090938C0CFE
:103BC00080938B0C85E391E090938E0C80938D0C09
:103BD00084E391E09093900C80938F0C80E391E0CC
:103BE0009093920C8093910C81E391E09093940CCC
:103BF0008093930C82E391E09093960C8093950CC4
:103C000086E391E09093980C8093970C1093990C15
:103C1000B0939A0CA0939B0CF0939C0CE0939D0C9A
:103C20001F910895CF93DF93E0D90E940C11CBE64A
:103C3000DAE10E9437102097E1F34DDCFACFFC0166
:103C400020E030E08081882311F421E030E0C901D8
:103C50000895FC0181E080830895CF92DF92EF9276
:103C6000FF920F931F93CF93DF937C016B018A0127
:103C7000C0E0D0E00FC0D6016D916D01D701ED918C
:103C8000FC910190F081E02DC7011995C80FD91F53
:103C9000015010400115110571F7CE01DF91CF9150
:103CA0001F910F91FF90EF90DF90CF900895EF92CA
:103CB000FF920F931F938C01DC01ED91FC91019019
:103CC000F081E02D6DE019957C01D801ED91FC911A
:103CD0000190F081E02DC8016AE019959C012E0D3C
:103CE0003F1DC9011F910F91FF90EF900895CF9351
:103CF000DF93EC016115710519F420E030E00FC08D
:103D0000DB010D900020E9F71197A61BB70BE881A6
:103D1000F9810280F381E02DAD0119959C01C90163
:103D2000DF91CF9108954F925F927F928F929F92F1
:103D3000AF92BF92CF92DF92EF92FF920F931F93B9
:103D4000DF93CF93CDB7DEB7A1970FB6F894DEBF60
:103D50000FBECDBF2C01742ECB01223008F42AE017
:103D600019A231E2C32ED12CCC0EDD1E822E992455
:103D7000AA24BB24672D752FA501940118D17901C0
:103D80008A01C801B701A5019401CBD0472D461B7C
:103D90000894C108D1084A3014F4405D01C0495C60
:103DA000F6014083E114F1040105110521F07E2C98
:103DB0005F2DC801DFCFC201B60199DFA1960FB612
:103DC000F894DEBF0FBECDBFCF91DF911F910F9151
:103DD000FF90EF90DF90CF90BF90AF909F908F902B
:103DE0007F905F904F900895DC012115310541F4DB
:103DF000ED91FC910190F081E02D642F19950895CB
:103E000092CFEF92FF920F931F939A01E62EFF2419
:103E100000E010E0B801A701E7DF1F910F91FF90CC
:103E2000EF900895CF92DF92EF92FF920F931F933E
:103E30006C01E62E9A01FF2400E010E0B801A70112
:103E4000D3DF8C01C60133DF080F191FC8011F9192
:103E50000F91FF90EF90DF90CF900895CF92DF9277
:103E6000EF92FF920F931F93CF93DF93EC016A01C0
:103E70007B012115310541F4E881F9810190F08140
:103E8000E02D642F19951DC02A303105C9F477FF44
:103E900016C0E881F9810190F081E02D6DE219955D
:103EA0008C0144275527BA014C195D096E097F0919
:103EB000CE012AE038DF9801280F391F03C02AE01D
:103EC00032DF9C01C901DF91CF911F910F91FF90CB
:103ED000EF90DF90CF900895EF92FF920F931F9392
:103EE0007C01BCDF8C01C701E2DE9C01200F311F89
:103EF000C9011F910F91FF90EF900895F8CE08959A
:103F0000EF92FF920F931F937C01F1DE8C01C701AA
:103F1000CEDE080F191FC8011F910F91FF90EF907F
:103F20000895629FD001739FF001829FE00DF11D03
:103F3000649FE00DF11D929FF00D839FF00D749F23
:103F4000F00D659FF00D9927729FB00DE11DF91FCF
:103F5000639FB00DE11DF91FBD01CF01112408952C
:103F6000AA1BBB1B51E107C0AA1FBB1FA617B7079F
:103F700010F0A61BB70B881F991F5A95A9F78095BB
:103F80009095BC01CD01089597FB092E07260AD014
:103F900077FD04D0E5DF06D000201AF47095619516
:103FA0007F4F0895F6F7909581959F4F0895A1E270
:103FB0001A2EAA1BBB1BFD010DC0AA1FBB1FEE1FA3
:103FC000FF1FA217B307E407F50720F0A21BB30BEE
:103FD000E40BF50B661F771F881F991F1A9469F76A
:103FE00060957095809590959B01AC01BD01CF01C6
:103FF000089597FB092E05260ED057FD04D0D7DF74
:104000000AD0001C38F450954095309521953F4FCB
:104010004F4F5F4F0895F6F7909580957095619595
:104020007F4F8F4F9F4F0895EE0FFF1F0590F49124
:08403000E02D1994F894FFCF74
:10403800506F776572004D6F646553656C65637486
:10404800696F6E4D61696E207C205475726E65646F
:10405800206F6E204C4544730052656164696E6739
:10406800206E65772076616C7565732066726F6D5A
:10407800206F746865722041726475696E6F004DB7
:104088006F646553656C656374696F6E4D61696EC5
:10409800207C204368616E67656420746F205768D0
:1040A8006974654C6566742D4D6F6465004D6F6469
:1040B8006553656C656374696F6E4D61696E207CCC
:1040C800204368616E67656420746F20576869745F
:1040D8006552696768742D4D6F6465004D6F64653E
:1040E80053656C656374696F6E4D61696E207C20E1
:1040F8004368616E67656420746F205768697465EA
:10410800416C6C2D4D6F6465004D6F646553656C33
:10411800656374696F6E4D61696E207C20436861C8
:104128006E67656420746F20436F6C6F722D5061E9
:104138006C657474652D426561742D4D6F646500FE
:104148004D6F646553656C656374696F6E4D616925
:104158006E207C204368616E67656420746F20520E
:1041680061696E626F772D426561742D4D6F64656C
:10417800004D6F646553656C656374696F6E4D615E
:10418800696E207C204368616E67656420746F20C7
:104198005261696E626F774D617263682D4D6F640D
:1041A80065004D6F646553656C656374696F6E4D2A
:1041B80061696E207C204368616E67656420746F56
:1041C80020436F6E66657474692D4D6F6465004990
:1041D8006E6372656173696E6720436F6C6F7254AA
:1041E800656D70205B54656D705D202000446563CB
:1041F80072656173696E6720436F6C6F7254656D89
:1042080070205B54656D705D2020004566666563AF
:1042180074576869746552696768740045666665AD
:10422800637457686974654C6566740045666665AD
:1042380063745768697465416C6C00506F77657278
:104248006564206F6E206E6F7700506F77657265BA
:104258006420646F776E206E6F77002D2D2D2D20D2
:1042680020006F6F2020002D2D20202020006F6F50
:1042780020202020004272696768746E6573734459
:104288006F776E205B536574706F696E7420204180
:10429800637475616C5D0020002B2B2B2B20200094
:1042A8002B2B20202020004272696768746E65738A
:1042B80073557020536574706F696E742020416364
:1042C8007475616C00506F77657220627574746FD5
:1042D8006E2070726573736564202D205475726E3C
:1042E800696E67206F666600506F77657220627529
:1042F80074746F6E2070726573736564202D20541A
:1043080075726E696E67206F6E00537461727465A2
:1043180064202D2057616974696E67202D205631FD
:104328002E3000633905D0070000003131295A1BAF
:10433800750A00000000E513DA134502BD134702B1
:10434800000000009C1C2D1E321C631C431C8C1C8E
:00000001FF
