:1000000004C100002FC100002DC100002BC1000061
:1000100029C1000027C1000025C1000023C1000044
:1000200021C100001FC100001DC100001BC1000054
:1000300019C1000017C1000015C1000013C1000064
:1000400011C100000FC100000DC100000BC1000074
:1000500009C1000007C1000005C100000C94CE11C9
:1000600001C100000C94C1130C940515FBC00000E5
:10007000F9C00000F7C00000F5C00000F3C00000A8
:10008000F1C00000EFC00000EDC00000EBC00000B8
:100090000C9401140C944415E5C00000E3C000006A
:1000A000E1C00000DFC00000DDC00000DBC00000D8
:1000B000D9C00000D7C00000D5C00000D3C00000E8
:1000C000D1C00000CFC00000CDC000000C9441148E
:1000D0000C948315C7C000000C9481140C94C215B5
:1000E000C1C0000000002100240027002A002D00CC
:1000F0003000330001010000040107010A01000083
:100100002200250028002B002E00310034000201BF
:100110000000050108010B0100002000230026005B
:1001200029002C002F00320000010000030106010D
:10013000090105050505070508080808020202026D
:100140000A0A080804040404010101010101010173
:100150000303030303030303040707070C0C0C0C3E
:100160000C0C0C0C02020202060606060606060627
:100170000B0B0B0B0B0B0B0B0102102020080810B4
:100180002040102040800201020108040201010207
:1001900004081020408080402010080402018004E0
:1001A000020180402010080402010804020101023B
:1001B0000408102040800102040810204080000044
:1001C000090A02080B0C0D070603040100000000D9
:1001D000000000000000000000000000000000001F
:1001E0000000000000000000000011100F000000DF
:1001F00000000000000000000000000000000000FF
:10020000000000007001E40F311711241FBECFEF72
:10021000D1E2DEBFCDBF00E00CBF14E0A0E0B2E051
:10022000ECE9F7E300E00BBF02C007900D92A63C9B
:10023000B107D9F71BBE1BE0A6ECB4E001C01D92CC
:10024000AE3BB107E1F712E0CAE0D2E004C022976A
:10025000FE010E94C81BC430D107C9F70E9467186D
:100260000C94CC1BCDCE229A089580E991E008959C
:100270001F93CF93DF93382F492F8091DE088F5F34
:1002800087708093DE0880FD02C020E001C020E876
:1002900081FD206482FD2062122F105F832F942F36
:1002A0009C01F901C0E0D0E06285662331F080E076
:1002B00091E070E00E94761B6F5F6783212F269F7D
:1002C000212D11242483662311F061506783219628
:1002D0003196C330D10541F7DF91CF911F91089539
:1002E0000895CF93DF9386E10E949113892B01F546
:1002F00088E10E949113892BD9F48AE10E9491131D
:10030000892BB1F48CE10E949113892B89F48EE141
:100310000E949113892B61F48AE090E090934B083E
:1003200080934A088DE19BE060E072E00E948519AD
:1003300086E10E949113892BD1F488E10E949113E8
:10034000892BA9F48AE10E949113892B81F48CE115
:100350000E949113892B59F48EE10E949113019709
:1003600031F48BE090E090934B0880934A0886E14B
:100370000E949113892BD1F488E10E949113892B5B
:10038000A9F48AE10E949113892B81F48CE10E94E7
:100390009113019759F48EE10E949113892B31F446
:1003A0008CE090E090934B0880934A0886E10E948D
:1003B0009113892BD1F488E10E949113892BA9F420
:1003C0008AE10E949113892B81F48CE10E949113A0
:1003D000019759F48EE10E949113019731F48DE059
:1003E00090E090934B0880934A0886E10E94911315
:1003F000892BD1F488E10E949113892BA9F48AE119
:100400000E949113019781F48CE10E949113892B32
:1004100059F48EE10E949113892B31F48EE090E023
:1004200090934B0880934A0886E10E949113892B90
:10043000D1F488E10E949113892BA9F48AE10E94EA
:100440009113019781F48CE10E949113892B59F447
:100450008EE10E949113019731F48FE090E0909328
:100460004B0880934A0886E10E949113892BD1F4AE
:1004700088E10E949113892BA9F48AE10E949113CB
:10048000019781F48CE10E949113019759F48EE158
:100490000E949113892B31F480E190E090934B08F6
:1004A00080934A0886E10E949113892BD1F488E158
:1004B0000E949113892BA9F48AE10E94911301975C
:1004C00081F48CE10E949113019759F48EE10E940E
:1004D0009113019731F481E190E090934B08809360
:1004E0004A0886E10E949113892BD1F488E10E9489
:1004F00091130197A9F48AE10E949113892B81F449
:100500008CE10E949113892B59F48EE10E94911382
:10051000892B31F482E190E090934B0880934A0854
:1005200086E10E949113892BC1F488E10E94911306
:10053000019799F48AE10E949113892B71F48CE15F
:100540000E949113892B49F48EE10E949113019727
:1005500021F410924B0810924A0886E10E949113F0
:10056000892BD1F488E10E9491130197A9F48AE1C3
:100570000E949113892B81F48CE10E9491130197C1
:1005800059F48EE10E949113892B31F483E190E0BC
:1005900090934B0880934A0886E10E949113892B1F
:1005A000D1F488E10E9491130197A9F48AE10E9495
:1005B0009113892B81F48CE10E949113019759F4D6
:1005C0008EE10E949113019731F484E190E09093C1
:1005D0004B0880934A0886E10E949113892BD1F43D
:1005E00088E10E9491130197A9F48AE10E94911376
:1005F000EC018130910571F48CE10E949113892BFB
:1006000049F48EE10E949113892B21F4D0934B0879
:10061000C0934A0886E10E949113892BD1F488E1A6
:100620000E9491130197A9F48AE10E949113019706
:1006300081F48CE10E949113892B59F48EE10E9480
:100640009113019731F482E090E090934B088093EE
:100650004A0886E10E949113892BD1F488E10E9417
:1006600091130197A9F48AE10E949113019781F4F3
:100670008CE10E949113019759F48EE10E9491132D
:10068000892B31F483E090E090934B0880934A08E3
:1006900086E10E949113892BD1F488E10E94911385
:1006A0000197A9F48AE10E949113019781F48CE1EA
:1006B0000E949113019759F48EE10E9491130197C2
:1006C00031F484E090E090934B0880934A0886E1EF
:1006D0000E9491130197D1F488E10E949113892B14
:1006E000A9F48AE10E949113892B81F48CE10E9484
:1006F0009113892B59F48EE10E949113892B31F4C7
:1007000085E090E090934B0880934A0886E10E9430
:1007100091130197D1F488E10E949113892BA9F4D8
:100720008AE10E949113892B81F48CE10E9491133C
:10073000892B59F48EE10E949113019731F486E0E0
:1007400090E090934B0880934A0886E10E949113B1
:100750000197D1F488E10E949113892BA9F48AE1D1
:100760000E949113892B81F48CE10E9491130197CF
:1007700059F48EE10E949113892B31F487E090E0C7
:1007800090934B0880934A0886E10E949113019749
:10079000D1F488E10E949113892BA9F48AE10E9487
:1007A0009113892B81F48CE10E949113019759F4E4
:1007B0008EE10E949113019731F488E090E09093CC
:1007C0004B0880934A0886E10E9491130197D1F467
:1007D00088E10E949113892BA9F48AE10E94911368
:1007E000019781F48CE10E949113892B59F48EE1D9
:1007F0000E949113892B31F489E090E090934B088B
:1008000080934A08DF91CF9108958DE19BE066E0E7
:1008100072E00E94851981E08093600880916308EE
:1008200090916408909362088093610808951F93E3
:10083000CF93DF93EC010E94161210E028813981DA
:100840004A815B81621B730B840B950B2C813D816C
:100850004E815F81621773078407950738F011E0B6
:100860000E941612688379838A839B83812FDF918C
:10087000CF911F9108951F9380914E08882301F511
:100880008EE498E00E947418892BD1F00E94161211
:1008900060935708709358088093590890935A08AA
:1008A00082E390E0A0E0B0E080935B0890935C0866
:1008B000A0935D08B0935E088EE498E00E947E18D5
:1008C00087E598E0B4DF882311F184E20E94911358
:1008D0002091560830E08217930779F08DE19BE074
:1008E00069E272E00E9485198091560811E0812723
:1008F00080935608F6DC10934D0882E20E94911313
:1009000010924C08892B19F081E080934C081F91BC
:10091000089580916808882301F588E698E00E9490
:100920007418892BD1F00E9416126093700870938E
:100930007108809372089093730881E390E0A0E0BF
:10094000B0E08093740890937508A0937608B093F4
:10095000770888E698E00E947E1880E798E067DFD5
:10096000882309F48CC080914D088823D1F18091AF
:100970004A0890914B080C97A1F580916008882354
:1009800011F443DF2EC0809161089091620881309C
:10099000910569F00397B1F481E090E090936208CB
:1009A000809361088DE19BE06FE472E015C082E006
:1009B00090E090936208809361088DE19BE06DE781
:1009C00072E00AC083E090E090936208809361082F
:1009D0008DE19BE06CEA72E00E94851981E08093D2
:1009E000670880914D08882361F180914A089091B1
:1009F0004B08089731F580916008882311F405DFD2
:100A000020C08091610890916208049759F485E0B4
:100A100090E090936208809361088DE19BE069ED1E
:100A200072E00AC084E090E09093620880936108CD
:100A30008DE19BE06AE073E00E94851981E080937C
:100A4000670880914D088823D1F080914A089091E1
:100A50004B080997A1F483E090E09093620880939B
:100A600061088FEF80935F08109266081092650806
:100A700080916008882319F481E0809360080895CC
:100A80001F93182F8091BD08882301F58DEB98E006
:100A90000E947418892BD1F00E9416126093C50829
:100AA0007093C6088093C7089093C8088FE090E0C1
:100AB000A0E0B0E08093C9089093CA08A093CB0847
:100AC000B093CC088DEB98E00E947E1885EC98E0FE
:100AD000AEDE882309F440C03091DF08832F90E018
:100AE000811B91098B3091052CF42FEF863F9207E3
:100AF0008CF503C08531910534F422E04FEF8C3E34
:100B000094072CF403C08F31910534F424E04FEFA7
:100B1000823E94072CF403C08932910534F428E016
:100B20004FEF883D94072CF403C08734910524F4DB
:100B300020E18A5B9F4F0CF420E2311718F4320F4A
:100B40003093DF088091DF08181730F4821B809300
:100B5000DF0802C021E0D2CF1F910895809178086C
:100B6000882301F588E798E00E947418892BD1F05A
:100B70000E94161260938008709381088093820807
:100B80009093830882E390E0A0E0B0E08093840833
:100B900090938508A0938608B093870888E798E02B
:100BA0000E947E1880E898E042DE882309F4EDC0B8
:100BB00080916108909162088330910531F0813015
:100BC000910519F0029709F06AC080914D088823B9
:100BD00029F480914C08882309F461C080914A0867
:100BE00090914B080F9709F05AC080916608282F02
:100BF00030E03093A00420939F04809165088823FF
:100C000031F421503F4F3093A00420939F04209152
:100C10009F043091A00481E02A39380768F480915C
:100C20004C08882319F42F5F3F4F02C02D5F3F4FC0
:100C30003093A00420939F0420919F043091A0043E
:100C40002F3F310531F028F010926508822F8F5F19
:100C500005C08FE780936508822F80958093660892
:100C600081E0809367088DE19BE067E373E00E9479
:100C700083198DE19BE0609165084AE050E00E9495
:100C800056198DE19BE06FE573E00E9483198DE1B9
:100C90009BE0609166084AE050E00E9467198091ED
:100CA0006108909162088330910531F0813091059F
:100CB00019F0029709F069C080914D08882329F442
:100CC00080914C08882309F460C080914A08909173
:100CD0004B080D9709F059C080916608282F30E025
:100CE0003093A00420939F0480916508882331F4F9
:100CF00021503F4F3093A00420939F0420919F04E4
:100D00003091A0042739310568F080914C08882380
:100D100019F42150304002C0235030403093A004D9
:100D200020939F0420919F043091A0042F3F310510
:100D300031F028F010926508822F8F5F05C08FE791
:100D400080936508822F80958093660881E0809368
:100D500067088DE19BE061E673E00E9483198DE1F5
:100D60009BE0609165084AE050E00E9456198DE1D1
:100D70009BE06FE573E00E9483198DE19BE0609139
:100D800066084AE050E00C946719089580914A087B
:100D900090914B08419709F055C080914D088823E8
:100DA00029F480914C08882309F44CC080914C08A8
:100DB0008823A1F080915F088B3040F08A508093A7
:100DC0005F088DE19BE069E873E01BC085E08093DC
:100DD0005F088DE19BE060E973E013C080915F08DC
:100DE000863040F0855080935F088DE19BE065E997
:100DF00073E007C085E080935F088DE19BE06CE9BC
:100E000073E00E94831981E0809367088DE19BE085
:100E100063EA73E00E9483198DE19BE060915F08B3
:100E20004AE050E00E9456198DE19BE06FE573E0C7
:100E30000E9483198DE19BE06091DF084AE050E059
:100E40000E94671980914A0890914B080B9709F00E
:100E50004DC080914D08882329F480914C08882347
:100E600009F444C080914C08882361F080915F08A8
:100E7000863FA0F4865F80935F088DE19BE065EC80
:100E800073E013C080915F08803F40F48B5F8093D4
:100E90005F088DE19BE06CEC73E007C08FEF8093FF
:100EA0005F088DE19BE06CE973E00E94831981E0AB
:100EB000809367088DE19BE063ED73E00E948319E6
:100EC0008DE19BE060915F084AE050E00E94561976
:100ED0008DE19BE06FE573E00E9483198DE19BE05B
:100EE0006091DF084AE050E00E94671980915F0836
:100EF000C7CDEF92FF920F931F93CF93DF937C01A7
:100F0000EB010E9416122091890830918A084091C5
:100F10008B0850918C08621B730B840B950B00E0BF
:100F200010E0E616F70608071907B8F4809188085C
:100F3000882399F40E9416126093890870938A0896
:100F400080938B0890938C086091880881E06827D3
:100F5000609388088DE00E945F130E941612209112
:100F6000890830918A0840918B0850918C08621B47
:100F7000730B840B950B9E0140E050E0261737075A
:100F800048075907B8F480918808882399F00E948F
:100F900016126093890870938A0880938B08909347
:100FA0008C086091880881E06827609388088DE04C
:100FB0000E945F13DF91CF911F910F91FF90EF90EF
:100FC000089586EC94E06CE271E041E02AE040D7BD
:100FD00081E08093670808956F927F928F929F922D
:100FE000AF92BF92CF92DF92EF92FF920F931F9337
:100FF000DF93CF9300D000D0CDB7DEB70E9416129A
:1010000028EE33E040E050E00E94891BCA01B9019C
:101010002AE030E040E050E00E94891B8091A1046A
:101020008617E1F16093A104653061F06A3091F0B8
:101030006623A1F512E000EC802E912C612CB1E02A
:101040007B2E33C018E0A0E88A2E912CF0E46F2E9E
:10105000712C2BC02091A2043091A30485E098E06C
:10106000289FB001299F700D389F700D1124675E75
:10107000794C7093A3046093A20480E090E02FEF7A
:1010800030E040E050E00E94431BBC0188279927D4
:101090004B0111E070E1672E712C07C015E062E38F
:1010A000862E912C612C52E0752E80918D0888231C
:1010B00001F58DE898E00E947418892BD1F00E9408
:1010C00016126093950870939608809397089093F2
:1010D000980884E190E0A0E0B0E0809399089093B4
:1010E0009A08A0939B08B0939C088DE898E00E9412
:1010F0007E1885E998E09BDB882309F466C086ECBE
:1011000094E06CE271E0412F8BD68091A204909123
:10111000A30445E0A42E48E0B42E8A9D60018B9D77
:10112000D00C9A9DD00C112489E196E3C80ED91EEB
:10113000B60180E090E02CE231E040E050E00E9417
:10114000431B7C0100271127CA9C9001CB9C300DCA
:10115000DA9C300D1124275E394C3093A304209380
:10116000A204B30180E090E040E050E00E94431B05
:10117000BC0188279927860E971E9694879496948B
:10118000879489828FEF8A838B83CE010196BE017B
:101190006C5F7F4F0E9417113C81F701EE0FFF1F1C
:1011A000EE0DFF1DEA53FB4F2081230F08F42FEFB4
:1011B00020833D812181230F08F42FEF21833E817D
:1011C0002281230F08F42FEF228381E080936708A8
:1011D00026960FB6F894DEBF0FBECDBFCF91DF913C
:1011E0001F910F91FF90EF90DF90CF90BF90AF9045
:1011F0009F908F907F906F9008952F923F924F9283
:101200005F926F927F928F929F92AF92BF92CF9296
:10121000DF92EF92FF920F931F93DF93CF93CDB79F
:10122000DEB729970FB6F894DEBF0FBECDBF8DE1B4
:101230009BE061EF73E00E94851971E0A72EB12C4D
:101240006BE2C62E61E0D62E22242A9457E0452E6A
:10125000512C4C0E5D1E44E0642E712C6C0E7D1ED4
:1012600034E6332E4E010894811C911C8FEAA81697
:10127000B1048CF49091660880916508865D89833D
:101280009A833B82B601660F771F6C0D7D1D6A53F2
:101290007B4FC40159C088ECA816B1040CF044C0BF
:1012A0006A2D6E5A70E0882777FD8095982F0E94EE
:1012B000301A20E030E040E850E40E94E01A20E0DC
:1012C00030E048EC52E40E949A1920E030E04FE709
:1012D00053E40E94E01A7B018C0120E030E048ECEE
:1012E00052E40E949619882354F40F2EF0E0EF2E5A
:1012F000F0E0FF2EF8EC0F2FF2E41F2FF02D90916D
:10130000660880916508865D8C839D83C801B7015E
:101310000E94021A6E83B601660F771F6C0D7D1D49
:101320006A537B4FC30110C0909166088091650895
:10133000865D8F8398872986B601660F771F6C0DAF
:101340007D1D6A537B4FC20172D70894A11CB11C4A
:101350000894C108D1088DE2A81681E0B80609F00A
:1013600085CF1092670829960FB6F894DEBF0FBE9E
:10137000CDBFCF91DF911F910F91FF90EF90DF9044
:10138000CF90BF90AF909F908F907F906F905F9025
:101390004F903F902F9008957F928F929F92AF929F
:1013A000BF92CF92DF92EF92FF920F931F93DF9342
:1013B000CF93CDB7DEB729970FB6F894DEBF0FBE37
:1013C000CDBF8DE19BE062E074E00E94851900E0F2
:1013D00010E09DE7F92E84E6782EB7E08B2E912C55
:1013E0008C0E9D1EA4E0AA2EB12CAC0EBD1EEE24C8
:1013F000EA946E010894C11CD11C043611058CF4CA
:101400009091660880916508865D89839A83EB8256
:10141000B801660F771F600F711F6A537B4FC601BB
:1014200021C0B801660F771F0D37110574F4909134
:10143000660880916508865D8C839D83FE82600FBF
:10144000711F6A537B4FC5010DC090916608809152
:101450006508865D8F8398877986600F711F6A5350
:101460007B4FC401E4D60F5F1F4FFA9481E00C322A
:10147000180719F61092670829960FB6F894DEBF80
:101480000FBECDBFCF91DF911F910F91FF90EF90D5
:10149000DF90CF90BF90AF909F908F907F900895F6
:1014A000DF92EF92FF920F931F93DF93CF9300D0C1
:1014B000CDB7DEB78DE19BE062E174E00E94851953
:1014C00000E010E0DD24DA947E010894E11CF11CB8
:1014D0009091660880916508865D89839A83DB8296
:1014E000B801660F771F600F711F6A537B4FC701EA
:1014F0009ED6109267080F5F1F4F81E00C321807CD
:1015000039F70F900F900F90CF91DF911F910F91AE
:10151000FF90EF90DF90089520916108309162086C
:1015200080916308909164082817390739F0309347
:1015300064082093630881E08093670823303105B5
:1015400029F4809167088823C9F0AACF213031059A
:1015500029F4809167088823C9F01ECF2230310515
:1015600029F480916708882389F047CE243031051B
:1015700029F480916708882349F02ECD2530310564
:1015800029F480916708882309F01BCD0895EF9214
:10159000FF920F931F933EE1E32EF12C012D112DAD
:1015A00031C080919D088823D9F48DE998E00E948C
:1015B0007418892BA9F03AD76093A5087093A608F0
:1015C0008093A7089093A808E092A908F092AA082F
:1015D0000093AB081093AC088DE998E00E947E1848
:1015E00085EA98E024D9882341F080915F0848DAA1
:1015F0008FED98E06091DF083CD58AE090E064E6EA
:1016000070E077DC9091DF0880915F08981749F6C9
:101610008DE19BE061E274E00E9485191F910F91BA
:10162000FF90EF900895EF92FF920F931F934EE17A
:10163000E42EF12C012D112D30C08091AD088823AE
:10164000D9F48DEA98E00E947418892BA9F0EED69F
:101650006093B5087093B6088093B7089093B80864
:10166000E092B908F092BA080093BB081093BC0846
:101670008DEA98E00E947E1885EB98E0D8D8882300
:1016800039F080E0FDD98FED98E06091DF08F1D46A
:1016900084E690E06AE070E02CDC8091DF0888232B
:1016A00061F68DE19BE060E374E00E9485191F9173
:1016B0000F91FF90EF9008951F93DDD88091CD0892
:1016C0008823F9F48DEC98E00E947418892BC9F0F6
:1016D000ADD66093D5087093D6088093D7089093C1
:1016E000D80882E390E0A0E0B0E08093D90890931E
:1016F000DA08A093DB08B093DC088DEC98E00E9438
:101700007E1885ED98E093D8882319F180914A08D6
:1017100090914B080A97E9F480914D088823C9F00D
:101720008091600811E0812780936008882341F44C
:101730008DE19BE061E474E00E94851974DF09C0CB
:101740008DE19BE064E674E00E94851920DF109330
:101750006708DFD880916008882369F0DDDE16DB3A
:10176000FDD98FED98E06091DF0883D48AE090E0A6
:1017700068EB7BE004C088EB9BE062E070E0B9DBE3
:1017800010924D081F910895EF92FF920F931F93AF
:10179000CF93DF93EC018B017A018091A50B882315
:1017A00009F04DC085EA9BE00E947418892B09F46A
:1017B00046C01092B00B1092AF0B8FEF8093B30B1B
:1017C0008093B40B8093B50B8093B60B8093B70BCB
:1017D0008093B80B81E08093B90B1092BB0B1092F1
:1017E000BA0B1092B20B1092B10B8091E608909157
:1017F000E708892B31F48DEA9BE09093E70880930A
:10180000E608E091E808F091E908309721F08DEAC8
:101810009BE0958384838DEA9BE09093E908809315
:10182000E8081092BD0B1092BC0B8CEA94E09093E8
:10183000AE0B8093AD0B85EA9BE00E947E188DEA8B
:101840009BE0BE01A801970181D3DF91CF911F9149
:101850000F91FF90EF9008950F931F9386EC94E003
:101860006CE271E040E050E08FDF1092DF0885E02D
:1018700048EC50E060E070E07AD50DE11BE0C80173
:1018800040E855E260E070E00E940116C80166E899
:1018900074E00E94851984E260E05ED682E260E036
:1018A0005BD68EE160E058D68CE160E055D68AE1E7
:1018B00060E052D688E160E04FD686E160E04CD629
:1018C0008DE061E049D682E380935F0821E02093B8
:1018D000600883E090E09093620880936108109222
:1018E000640810926308209367081F910F91089570
:1018F0004F925F926F927F929F92AF92BF92CF92E0
:10190000DF92EF92FF920F931F93DF93CF93CDB7A8
:10191000DEB72E970FB6F894DEBF0FBECDBF2C01F9
:101920003A01F9011E2DDC011C969C917A83698392
:101930005C834B8380818B8781818C8782818D87BB
:10194000913029F4CE0101960E94380106C01A8612
:10195000198618861F821E821D8289819A81810FB5
:10196000911D9A838983002311F480E002C0812FA6
:101970008D5F8E8769D5F20127853089621B730BD5
:101980006A307105B8F3F89459819A80A5B0F4E0F3
:10199000AF2AC5B08BEFC822C5B8B9848E814B2D54
:1019A000481B4E83DE848B813C811C85FB84ED8447
:1019B0006D819F8108857A85E981FA8121812223C1
:1019C00019F0240F08F42FEF219F212D1124A82FA7
:1019D000B32FE52FF92D30E0842F532F432F002C08
:1019E000A5B800C027FFC5B840813327889400C040
:1019F00000C0002CC5B84111460F00C0002CA5B88E
:101A000000C026FFC5B808F44FEF889400C000C09E
:101A100000C0C5B8F0FC340F00C0002CA5B800C051
:101A200025FFC5B837958894F1FC340F00C000C07D
:101A3000002CC5B83795889400C0002CA5B800C00C
:101A400024FFC5B8F2FC340F3795889400C000C05D
:101A5000002CC5B8F3FC340F00C0002CA5B800C0A2
:101A600023FFC5B837958894F4FC340F00C000C03C
:101A7000002CC5B83795889400C0002CA5B800C0CC
:101A800022FFC5B8F5FC340F3795889400C000C01C
:101A9000002CC5B8F6FC340F00C0002CA5B800C05F
:101AA00021FFC5B837958894F7FC340F00C000C0FB
:101AB000002CC5B83795889400C0002CA5B800C08C
:101AC00020FFC5B86195600F00C000C000C0002CA9
:101AD000C5B8232F00C000C0A5B800C027FFC5B8F7
:101AE00042813327889400C000C0002CC5B8411142
:101AF000490F00C0002CA5B800C026FFC5B808F4E7
:101B00004FEF889400C000C000C0C5B8E0FC340F9F
:101B100000C0002CA5B800C025FFC5B83795889433
:101B2000E1FC340F00C000C0002CC5B83795889484
:101B300000C0002CA5B800C024FFC5B8E2FC340FDB
:101B40003795889400C000C0002CC5B8E3FC340F62
:101B500000C0002CA5B800C023FFC5B837958894F5
:101B6000E4FC340F00C000C0002CC5B83795889441
:101B700000C0002CA5B800C022FFC5B8E5FC340F9A
:101B80003795889400C000C0002CC5B8E6FC340F1F
:101B900000C0002CA5B800C021FFC5B837958894B7
:101BA000E7FC340F00C000C0002CC5B837958894FE
:101BB00000C0002CA5B800C020FFC5B8ED0DF11D78
:101BC0008894232F00C000C0002CC5B89195970FB2
:101BD00000C0002CA5B800C027FFC5B8418133273D
:101BE000889400C000C0002CC5B84111480F00C047
:101BF000002CA5B800C026FFC5B808F44FEF8894A4
:101C000000C000C000C0C5B810FD340F00C0002CDB
:101C1000A5B800C025FFC5B83795889411FD340FCD
:101C200000C000C0002CC5B83795889400C0002CB7
:101C3000A5B800C024FFC5B812FD340F37958894AD
:101C400000C000C0002CC5B813FD340F00C0002C2C
:101C5000A5B800C023FFC5B83795889414FD340F8C
:101C600000C000C0002CC5B83795889400C0002C77
:101C7000A5B800C022FFC5B815FD340F379588946C
:101C800000C000C0002CC5B816FD340F00C0002CE9
:101C9000A5B800C021FFC5B83795889417FD340F4B
:101CA00000C000C0002CC5B83795889400C0002C37
:101CB000A5B800C020FFC5B881958B0D232F00C0AB
:101CC00000C000C0C5B8119709F08ACEB3018827BB
:101CD00077FD8095982F20EE31E040E050E00E94A3
:101CE000431BB4E09695879577956795BA95D1F79C
:101CF000E0E0F0E09F014AE9649E212D749E200DF2
:101D0000311D112440E050E0260F371F481F591F96
:101D1000293EA3E03A07A0E04A07A0E05A0790F165
:101D2000285E334040405040A2E056954795379595
:101D30002795AA95D1F787E0289FE12D389FE00DE0
:101D4000F11D11248091DD08280F311D2E0F3F1F3A
:101D50004091F8085091F9086091FA087091FB08D9
:101D6000832F9927A0E0B0E0840F951FA61FB71F0F
:101D70008093F8089093F908A093FA08B093FB08B1
:101D80002093DD08789460D3F201708B67872E96DC
:101D90000FB6F894DEBF0FBECDBFCF91DF911F917C
:101DA0000F91FF90EF90DF90CF90BF90AF909F90FA
:101DB0007F906F905F904F900895EF92FF920F93F6
:101DC000DF93CF9300D0CDB7DEB7AB0119821A8273
:101DD0001B829E012F5F3F4FB90100E0EE24FF24DC
:101DE00087DD0F900F900F90CF91DF910F91FF90B3
:101DF000EF900895EF92FF920F9301E0EE24FF24FD
:101E000077DD0F91FF90EF900895EF92FF920F937F
:101E100000E0EE24FF246CDD0F91FF90EF90089519
:101E20004095FC0180E090E00FC02081249F212D8F
:101E300020832181249F212D21832281249F212DF4
:101E400022831124019633968617970770F308951D
:101E50009F92AF92BF92CF92DF92EF92FF920F9339
:101E60001F93DF93CF9300D0CDB7DEB75B01922EE7
:101E700049832FEF2B8320EF2A837C0100E010E0C1
:101E80006E010894C11CD11C0CC0C601B701CFD192
:101E90008981890D89830F5F1F4F83E090E0E80EF1
:101EA000F91E0A151B058CF30F900F900F90CF9120
:101EB000DF911F910F91FF90EF90DF90CF90BF9037
:101EC000AF909F900895EF92FF920F931F93CF933F
:101ED000DF93EC014423F1F06115710581F19B0161
:101EE00040E050E060E472E48FE090E00E94AB1BC1
:101EF000EB80FC800D811E81C901DA018E159F05E2
:101F0000A007B10710F4D801C7018B839C83AD8370
:101F1000BE8315C06115710571F09B0140E050E072
:101F200060E472E48FE090E00E94AB1B2B833C8363
:101F30004D835E8304C01B821C821D821E82DF9142
:101F4000CF911F910F91FF90EF900895CF92DF9264
:101F5000EF92FF920F931F93CF93DF938C017B013E
:101F60001216130624F06A01C0E0D0E002C0690135
:101F7000EA01D801ED91FC910480F581E02DC801C2
:101F80001995CE01880F991F8C0F9D1F8E0D9F1DD7
:101F9000F80193838283C586D6860190F081E02D77
:101FA0000084F185E02DC8011995BC018FED98E002
:101FB00041E089DFC801DF91CF911F910F91FF9020
:101FC000EF90DF90CF9008958FEF8093DF0810920D
:101FD000E1081092E0080895EF92FF920F931F938B
:101FE000CF93DF93EC018091EE089091EF0801967A
:101FF0009093EF088093EE0801978617970794F166
:1020000015D29B01AC016091EE087091EF0888EE4B
:1020100093E0FB01E89FB001E99F700DF89F700D00
:102020001124882777FD8095982FE090EA08F0909A
:10203000EB080091EC081091ED082E193F09400BB8
:10204000510B0E94891B3A8329831092EF0810924A
:10205000EE08ECD16093EA087093EB088093EC08EB
:102060009093ED08DF91CF911F910F91FF90EF902A
:1020700008952F923F924F925F926F927F928F922C
:102080009F92AF92BF92CF92DF92EF92FF920F9307
:102090001F93DF93CF93CDB7DEB729970FB6F89490
:1020A000DEBF0FBECDBF5C016F83F50183819481DC
:1020B000A581B6810097A105B10509F4A1C0C4D1DD
:1020C0002091F0083091F1084091F2085091F30806
:1020D000621B730B840B950BD50113962D913D91CB
:1020E0004D915C911697621773078407950708F066
:1020F00087C0DBCFF801F485FE83D50111968D9161
:102100009C9112978436910510F4F8011486D80139
:10211000ED91FC911197828193819D838C8312961E
:102120004D905C9013971D962D903C901E971982B0
:102130001A821B829F81992399F168017E0108947C
:10214000E11CF11CD60116962C91169719966C91EC
:102150002223D9F06623C9F070E080E090E06F5F41
:102160007F4F8F4F9F4F30E040E050E02F5F3F4F59
:102170004F4F5F4F0E94431BA40193010E94431BDA
:10218000BC0188279927F70160830894C11CD11CE2
:102190000894E11CF11C88859985E816F90691F6EA
:1021A000C801B201A1019E012F5F3F4FAC81BD81EB
:1021B000FD0119958E81F80184870481158101152F
:1021C000110509F097CFC50169E170E005DF299697
:1021D0000FB6F894DEBF0FBECDBFCF91DF911F9138
:1021E0000F91FF90EF90DF90CF90BF90AF909F90B6
:1021F0008F907F906F905F904F903F902F900895B9
:1022000023D16093F0087093F1088093F2089093C3
:10221000F3080091E6081091E7089F81692E772462
:1022200088249924DE011496B987A887C8CF1F9304
:10223000FC01DB01808171811281482F4F71440FB5
:10224000440F440F642F25E5629F612D1124282F30
:1022500030E087FD24C0C9018072907026FD0CC05B
:10226000892B29F4562F509580E0462F11C0462F18
:102270004B5A80E05BEA0CC0892B61F4242F3AEAC8
:10228000239F212D11245BEA521B462F455580E0E8
:1022900030E02AC080E0462F4095362F11C0C9019A
:1022A0008072907026FD13C0892B61F480E0242F8A
:1022B0003AEA239F212D11244BEA421B322F3B5A2D
:1022C00050E012C080E0362F3095562F0CC0892B7D
:1022D00029F4562F5B5A80E03BEA04C0562F55552F
:1022E00080E035E5361B40E07F3F09F41BC05523F5
:1022F00021F0579F512D09F05F5F442321F0479F44
:10230000412D09F04F5F332321F0379F312D09F024
:102310003F5F1124272F2095229F212D1124520F3A
:10232000420F320F1F3F09F41AC020E0112321F0A1
:10233000119F212D09F02F5F552321F0529F512D20
:1023400009F05F5F442321F0429F412D09F04F5F68
:10235000332321F0329F312D09F03F5F11245C932C
:1023600011964C93119712963C931F9108950F93D9
:102370001F93082F10E020E030E0CB01BA01A90143
:1023800098010E94431B6093A4047093A50480935A
:10239000A6049093A7041F910F9108951F920F9286
:1023A0000FB60F9211242F933F938F939F93AF9368
:1023B000BF938091F8089091F908A091FA08B09124
:1023C000FB083091FC080196A11DB11D232F2D5F44
:1023D0002D3720F02D570196A11DB11D2093FC082B
:1023E0008093F8089093F908A093FA08B093FB083B
:1023F0008091F4089091F508A091F608B091F70843
:102400000196A11DB11D8093F4089093F508A09347
:10241000F608B093F708BF91AF919F918F913F91CC
:102420002F910F900FBE0F901F9018958FB7F894B3
:102430002091F8083091F9084091FA085091FB0872
:102440008FBFB901CA0108959FB7F8942091F4088D
:102450003091F5084091F6085091F70886B5A89B91
:1024600006C08F3F21F02F5F3F4F4F4F5F4F9FBF01
:10247000542F432F322F2227280F311D411D511D6C
:1024800082E0220F331F441F551F8A95D1F7B901EF
:10249000CA010895789484B5826084BD84B5816052
:1024A00084BD85B5826085BD85B5816085BDEEE65C
:1024B000F0E0808181608083E1E8F0E0108280813B
:1024C00082608083808181608083E0E8F0E08081A9
:1024D00081608083E1EBF0E0808184608083E0EBC9
:1024E000F0E0808181608083E1E9F0E080818260BA
:1024F0008083808181608083E0E9F0E08081816079
:102500008083E1EAF0E08081826080838081816065
:102510008083E0EAF0E0808181608083E1E2F1E0A5
:10252000808182608083808181608083E0E2F1E04D
:10253000808181608083EAE7F0E08081846080832D
:1025400080818260808380818160808380818068D7
:1025500080831092C1000895CF93DF93482F50E0FD
:10256000CA0188589E4FFC0134914E5C5E4FFA01BF
:102570008491882369F190E0880F991FFC01EC5148
:10258000FF4FA591B491FC01E250FF4FC591D4914A
:10259000662351F42FB7F8948C91932F909589234B
:1025A0008C93888189230BC0623061F42FB7F89433
:1025B0008C91932F909589238C938881832B88838A
:1025C0002FBF06C09FB7F8948C91832B8C939FBF2D
:1025D000DF91CF910895893009F449C08A30A0F481
:1025E000843051F1853040F4823079F1833000F548
:1025F000813009F063C026C0873079F1883098F5C2
:10260000863009F05BC025C08D3009F442C08E30A1
:1026100028F48B30B1F18C30C0F52DC0803109F435
:1026200042C0813109F445C08F3009F047C037C03E
:10263000809180008F7703C0809180008F7D809390
:102640008000089584B58F7702C084B58F7D84BDE6
:1026500008958091B0008F7703C08091B0008F7D86
:102660008093B0000895809190008F7707C080918B
:1026700090008F7D03C080919000877F80939000B1
:1026800008958091A0008F7707C08091A0008F7D72
:1026900003C08091A000877F8093A000089580915F
:1026A00020018F7703C0809120018F7D80932001CE
:1026B000089580912001877F809320010895FF92E3
:1026C0000F931F93F62E482F50E0CA0182549E4F5D
:1026D000FC012491CA0188589E4FFC0114914E5C64
:1026E0005E4FFA0104910023C1F0222311F0822FE2
:1026F00072DFE02FF0E0EE0FFF1FE250FF4FA591D9
:10270000B4919FB7F894FF2021F48C911095812308
:1027100002C08C91812B8C939FBF1F910F91FF90D2
:1027200008950F931F93482F50E0CA0182549E4F83
:10273000FC012491CA0188589E4FFC0104914E5C13
:102740005E4FFA011491112319F420E030E014C017
:10275000222311F0822F3FDF812F90E0880F991FF5
:10276000885E9E4FFC01A591B4918C9120E030E0F1
:10277000802311F021E030E0C9011F910F910895ED
:1027800008951F920F920FB60F920BB60F9211245D
:102790002F933F934F938F939F93EF93FF9380914A
:1027A000C00082FD1DC04091C60020913D093091BE
:1027B0003E092F5F3F4F2F73307080913F099091FA
:1027C00040092817390771F0E0913D09F0913E0961
:1027D000E350F74F408330933E0920933D0902C0F8
:1027E0008091C600FF91EF919F918F914F913F9102
:1027F0002F910F900BBE0F900FBE0F901F9018954A
:1028000008951F920F920FB60F920BB60F921124DC
:102810002F933F934F938F939F93EF93FF938091C9
:10282000C80082FD1DC04091CE002091C5093091A5
:10283000C6092F5F3F4F2F7330708091C709909169
:10284000C8092817390771F0E091C509F091C60948
:10285000EB57F64F40833093C6092093C50902C059
:102860008091CE00FF91EF919F918F914F913F9179
:102870002F910F900BBE0F900FBE0F901F901895C9
:1028800008951F920F920FB60F920BB60F9211245C
:102890002F933F934F938F939F93EF93FF93809149
:1028A000D00082FD1DC04091D60020914D0A30918C
:1028B0004E0A2F5F3F4F2F73307080914F0A9091D7
:1028C000500A2817390771F0E0914D0AF0914E0A2D
:1028D000E35FF54F408330934E0A20934D0A02C0C8
:1028E0008091D600FF91EF919F918F914F913F91F1
:1028F0002F910F900BBE0F900FBE0F901F90189549
:1029000008951F920F920FB60F920BB60F921124DB
:102910002F933F934F938F939F93EF93FF938091C8
:10292000300182FD1DC0409136012091D50A3091C1
:10293000D60A2F5F3F4F2F7330708091D70A909146
:10294000D80A2817390771F0E091D50AF091D60A14
:10295000EB56F54F40833093D60A2093D50A02C038
:1029600080913601FF91EF919F918F914F913F910F
:102970002F910F900BBE0F900FBE0F901F901895C8
:10298000E091290BF0912A0BE05CFF4F819191912E
:1029900020813181821B930B8F739070892B09F0FA
:1029A000EFDEE0914B0BF0914C0BE05CFF4F81911F
:1029B000919120813181821B930B8F739070892BB1
:1029C00009F01EDFE0916D0BF0916E0BE05CFF4FA4
:1029D0008191919120813181821B930B8F73907033
:1029E000892B09F04DDFE0918F0BF091900BE05CAB
:1029F000FF4F8191919120813181821B930B8F73C5
:102A00009070892B09F07CCF08951F920F920FB61A
:102A10000F920BB60F9211242F933F938F939F9396
:102A2000EF93FF932091810930918209809183096E
:102A3000909184092817390731F48091C1008F7D66
:102A40008093C10014C0E0918309F0918409EF5B89
:102A5000F64F2081809183099091840901968F73AC
:102A6000907090938409809383092093C600FF910E
:102A7000EF919F918F913F912F910F900BBE0F90EF
:102A80000FBE0F901F9018951F920F920FB60F92C6
:102A90000BB60F9211242F933F938F939F93EF9335
:102AA000FF932091090A30910A0A80910B0A9091B4
:102AB0000C0A2817390731F48091C9008F7D809363
:102AC000C90014C0E0910B0AF0910C0AE753F64FCD
:102AD000208180910B0A90910C0A01968F7390705F
:102AE00090930C0A80930B0A2093CE00FF91EF91F4
:102AF0009F918F913F912F910F900BBE0F900FBE22
:102B00000F901F9018951F920F920FB60F920BB651
:102B10000F9211242F933F938F939F93EF93FF93E3
:102B20002091910A3091920A8091930A9091940A8F
:102B30002817390731F48091D1008F7D8093D1001F
:102B400014C0E091930AF091940AEF5AF54F208156
:102B50008091930A9091940A01968F73907090934C
:102B6000940A8093930A2093D600FF91EF919F914E
:102B70008F913F912F910F900BBE0F900FBE0F9032
:102B80001F9018951F920F920FB60F920BB60F92CF
:102B900011242F933F938F939F93EF93FF93209153
:102BA000190B30911A0B80911B0B90911C0B28175D
:102BB000390731F4809131018F7D8093310114C048
:102BC000E0911B0BF0911C0BE752F54F2081809197
:102BD0001B0B90911C0B01968F73907090931C0BA4
:102BE00080931B0B20933601FF91EF919F918F9162
:102BF0003F912F910F900BBE0F900FBE0F901F9023
:102C00001895AF92BF92DF92EF92FF920F931F93AE
:102C1000CF93DF93EC017A018B01DD24403081EE0C
:102C2000580780E0680780E0780711F0DD24D3942E
:102C300091E0A92EB12CEC89FD89DD2069F0C50158
:102C400008A002C0880F991F0A94E2F7808360E011
:102C500079E08DE390E005C0108260E874E88EE1D1
:102C600090E0A801970155D5215030404040504098
:102C7000569547953795279580E12030380720F005
:102C8000DD2011F0DD24D7CFE889F9893083EA8986
:102C9000FB89208319A2EE89FF89408121E030E081
:102CA000C9010C8C02C0880F991F0A94E2F7482BC7
:102CB0004083EE89FF894081C9010D8C02C0880FD5
:102CC000991F0A94E2F7482B4083EE89FF894081DF
:102CD000C9010E8C02C0880F991F0A94E2F7482B95
:102CE0004083EE89FF8980810F8C02C0220F331F41
:102CF0000A94E2F7209528232083DF91CF911F913A
:102D00000F91FF90EF90DF90BF90AF900895DC019E
:102D10001C96ED91FC911D97E05CFF4F2191319144
:102D200080819181281B390B2F733070C901089560
:102D3000DC011C96ED91FC911D97E05CFF4F20811A
:102D40003181E054F040DF01AE5BBF4F8D919C912B
:102D500011972817390719F42FEF3FEF07C08D910E
:102D60009C91E80FF91F8081282F30E0C901089558
:102D7000DC011C96ED91FC911D97E05CFF4F2081DA
:102D80003181E054F040DF01AE5BBF4F8D919C91EB
:102D900011972817390719F42FEF3FEF10C08D91C5
:102DA0009C911197E80FF91F20818D919C911197AB
:102DB00001968F73907011969C938E9330E0C901A9
:102DC0000895DC0191968C919197882339F054965F
:102DD000ED91FC915597808186FFF9CF91961C92D9
:102DE0000895CF93DF93EC01EE85FF85E05CFF4F04
:102DF00020813181E054F0402F5F3F4F2F733070BE
:102E0000DF01AE5BBF4F8D919C9111972817390759
:102E1000D1F3E05CFF4F80819181E054F040E80FF6
:102E2000F91F6083EE85FF85E05CFF4F31832083CF
:102E3000EE89FF89208181E090E00F8C02C0880F2D
:102E4000991F0A94E2F7282B208381E089A3EC895B
:102E5000FD8980818064808381E090E0DF91CF9163
:102E600008951F931092200B10921F0B28EE33E051
:102E700040E050E02093210B3093220B4093230B32
:102E80005093240B6AEB74E070931E0B60931D0B40
:102E90008DEF98E090932A0B8093290B81E499E0C1
:102EA00090932C0B80932B0B85EC90E090932E0B42
:102EB00080932D0B84EC90E09093300B80932F0B3C
:102EC00080EC90E09093320B8093310B81EC90E09A
:102ED0009093340B8093330B82EC90E09093360BFD
:102EE0008093350B86EC90E09093380B8093370BF2
:102EF00014E01093390BB3E0B0933A0BA7E0A09322
:102F00003B0BF5E0F0933C0BE1E0E0933D0B1092BE
:102F1000420B1092410B2093430B3093440B409390
:102F2000450B5093460B7093400B60933F0B85E825
:102F300099E090934C0B80934B0B89EC99E0909324
:102F40004E0B80934D0B8DEC90E09093500B809343
:102F50004F0B8CEC90E09093520B8093510B88ECCC
:102F600090E09093540B8093530B89EC90E09093F6
:102F7000560B8093550B8AEC90E09093580B8093FE
:102F8000570B8EEC90E090935A0B8093590B109353
:102F90005B0BB0935C0BA0935D0BF0935E0BE09327
:102FA0005F0B1092640B1092630B2093650B3093B0
:102FB000660B4093670B5093680B7093620B6093A2
:102FC000610B8DE09AE090936E0B80936D0B81E521
:102FD0009AE09093700B80936F0B85ED90E0909347
:102FE000720B8093710B84ED90E09093740B80933F
:102FF000730B80ED90E09093760B8093750B81EDD1
:1030000090E09093780B8093770B82ED90E0909313
:103010007A0B8093790B86ED90E090937C0B8093F4
:103020007B0B10937D0BB0937E0BA0937F0BF093E3
:10303000800BE093810B1092860B1092850B2093EE
:10304000870B3093880B4093890B50938A0B7093B6
:10305000840B6093830B85E99AE09093900B8093A7
:103060008F0B89ED9AE09093920B8093910B85E3FF
:1030700091E09093940B8093930B84E391E0909371
:10308000960B8093950B80E391E09093980B80933F
:10309000970B81E391E090939A0B8093990B82E3D5
:1030A00091E090939C0B80939B0B86E391E090932F
:1030B0009E0B80939D0B10939F0BB093A00BA0933E
:1030C000A10BF093A20BE093A30B1F910895CF9354
:1030D000DF93E0D90E942C0CC0ECD4E10E945C0B81
:1030E0002097E1F34DDCFACFFC0120E030E0808155
:1030F000882311F421E030E0C9010895FC0181E04A
:1031000080830895CF92DF92EF92FF920F931F93E7
:10311000CF93DF937C016B018A01C0E0D0E00FC048
:10312000D6016D916D01D701ED91FC910190F08177
:10313000E02DC7011995C80FD91F01501040011586
:10314000110571F7CE01DF91CF911F910F91FF9083
:10315000EF90DF90CF900895EF92FF920F931F931F
:103160008C01DC01ED91FC910190F081E02D6DE08E
:1031700019957C01D801ED91FC910190F081E02D31
:10318000C8016AE019959C012E0D3F1DC9011F91D0
:103190000F91FF90EF900895CF93DF93EC016115AD
:1031A000710519F420E030E00FC0DB010D90002024
:1031B000E9F71197A61BB70BE881F9810280F3812B
:1031C000E02DAD0119959C01C901DF91CF910895C2
:1031D0004F925F927F928F929F92AF92BF92CF92C7
:1031E000DF92EF92FF920F931F93DF93CF93CDB7B0
:1031F000DEB7A1970FB6F894DEBF0FBECDBF2C018E
:10320000742ECB01223008F42AE019A231E2C32E39
:10321000D12CCC0EDD1E822E9924AA24BB24672D2E
:10322000752FA501940175D279018A01C801B701F2
:10323000A501940128D2472D461B0894C108D10846
:103240004A3014F4405D01C0495CF6014083E1144A
:10325000F1040105110521F07E2C5F2DC801DFCF9F
:10326000C201B60199DFA1960FB6F894DEBF0FBE7A
:10327000CDBFCF91DF911F910F91FF90EF90DF9025
:10328000CF90BF90AF909F908F907F905F904F9026
:103290000895DC012115310541F4ED91FC91019077
:1032A000F081E02D642F1995089592CFEF92FF924F
:1032B0000F931F939A01E62EFF2400E010E0B8015F
:1032C000A701E7DF1F910F91FF90EF900895CF9234
:1032D000DF92EF92FF920F931F936C01E62E9A01FB
:1032E000FF2400E010E0B801A701D3DF8C01C60184
:1032F00033DF080F191FC8011F910F91FF90EF9046
:10330000DF90CF90089548CF0895EF92FF920F93EA
:103310001F937C0141DF8C01C7011EDF080F191FBD
:10332000C8011F910F91FF90EF900895D4D008F439
:1033300081E008950CD00AC102D140F0F9D030F0FC
:1033400021F45F3F19F0EBC0511134C1EEC00FD131
:1033500098F39923C9F35523B1F3951B550BBB275C
:10336000AA2762177307840738F09F5F5F4F220F09
:10337000331F441FAA1FA9F333D00E2E3AF0E0E802
:1033800030D091505040E695001CCAF729D0FE2F4E
:1033900027D0660F771F881FBB1F261737074807E0
:1033A000AB07B0E809F0BB0B802DBF01FF27935896
:1033B0005F4F2AF09E3F510568F0B1C0FBC05F3FF0
:1033C000ECF3983EDCF3869577956795B795F7957E
:1033D0009F5FC9F7880F911D9695879597F9089576
:1033E000E1E0660F771F881FBB1F62177307840712
:1033F000BA0720F0621B730B840BBA0BEE1F88F721
:10340000E0950895BCD088F09F5790F0B92F992788
:10341000B751A0F0D1F0660F771F881F991F1AF0DF
:10342000BA95C9F712C0B13081F0C3D0B1E00895A8
:10343000C0C0672F782F8827B85F39F0B93FCCF329
:10344000869577956795B395D9F73EF490958095D5
:10345000709561957F4F8F4F9F4F0895E89409C0F5
:1034600097FB3EF490958095709561957F4F8F4FB7
:103470009F4F9923A9F0F92F96E9BB279395F695CD
:10348000879577956795B795F111F8CFFAF4BB0F4B
:1034900011F460FF1BC06F5F7F4F8F4F9F4F16C0AF
:1034A000882311F096E911C0772321F09EE8872F39
:1034B000762F05C0662371F096E8862F70E060E0F5
:1034C0002AF09A95660F771F881FDAF7880F96956E
:1034D000879597F90895990F0008550FAA0BE0E812
:1034E000FEEF16161706E807F907C0F012161306C6
:1034F000E407F50798F0621B730B840B950B39F406
:103500000A2661F0232B242B252B21F408950A266B
:1035100009F4A140A6958FEF811D811D089597F9AB
:103520009F6780E870E060E008959FEF80EC089569
:1035300000240A9416161706180609060895002492
:103540000A9412161306140605060895092E03940C
:10355000000C11F4882352F0BB0F40F4BF2B11F480
:1035600060FF04C06F5F7F4F8F4F9F4F089557FDDF
:103570009058440F551F59F05F3F71F04795880FE1
:1035800097FB991F61F09F3F79F087950895121678
:1035900013061406551FF2CF4695F1DF08C0161624
:1035A00017061806991FF1CF8695710561050894D5
:1035B0000895E894BB2766277727CB0197F90895EC
:1035C0000BD0C4CFB5DF28F0BADF18F0952309F08F
:1035D000A6CFABCF1124EECFCADFA0F3959FD1F3D6
:1035E000950F50E0551F629FF001729FBB27F00DB1
:1035F000B11D639FAA27F00DB11DAA1F649F662706
:10360000B00DA11D661F829F2227B00DA11D621F54
:10361000739FB00DA11D621F839FA00D611D221F0E
:10362000749F3327A00D611D231F849F600D211DF2
:10363000822F762F6A2F11249F5750408AF0E1F095
:1036400088234AF0EE0FFF1FBB1F661F771F881FDE
:1036500091505040A9F79E3F510570F060CFAACF1E
:103660005F3FECF3983EDCF3869577956795B795C9
:10367000F795E7959F5FC1F7FE2B880F911D9695F3
:10368000879597F90895629FD001739FF001829FFB
:10369000E00DF11D649FE00DF11D929FF00D839FE1
:1036A000F00D749FF00D659FF00D9927729FB00D7E
:1036B000E11DF91F639FB00DE11DF91FBD01CF0191
:1036C00011240895AA1BBB1B51E107C0AA1FBB1FF1
:1036D000A617B70710F0A61BB70B881F991F5A959E
:1036E000A9F780959095BC01CD01089597FB092E0F
:1036F00007260AD077FD04D0E5DF06D000201AF4B3
:10370000709561957F4F0895F6F7909581959F4F3D
:103710000895A1E21A2EAA1BBB1BFD010DC0AA1F12
:10372000BB1FEE1FFF1FA217B307E407F50720F02A
:10373000A21BB30BE40BF50B661F771F881F991FA5
:103740001A9469F760957095809590959B01AC01EE
:10375000BD01CF01089597FB092E05260ED057FD18
:1037600004D0D7DF0AD0001C38F45095409530952E
:1037700021953F4F4F4F5F4F0895F6F790958095F5
:10378000709561957F4F8F4F9F4F0895EE0FFF1FEC
:0C3790000590F491E02D1994F894FFCFFF
:10379C00506F776572004D6F646553656C6563742B
:1037AC00696F6E4D61696E207C205475726E656414
:1037BC00206F6E204C4544730052656164696E67DE
:1037CC00206E65772076616C7565732066726F6DFF
:1037DC00206F746865722041726475696E6F004D5C
:1037EC006F646553656C656374696F6E4D61696E6A
:1037FC00207C204368616E67656420746F20576875
:10380C006974654C6566742D4D6F6465004D6F640D
:10381C006553656C656374696F6E4D61696E207C70
:10382C00204368616E67656420746F205768697403
:10383C006552696768742D4D6F6465004D6F6465E2
:10384C0053656C656374696F6E4D61696E207C2085
:10385C004368616E67656420746F2057686974658E
:10386C00416C6C2D4D6F6465004D6F646553656CD8
:10387C00656374696F6E4D61696E207C204368616D
:10388C006E67656420746F205261696E626F774D4C
:10389C00617263682D4D6F6465004D6F646553658F
:1038AC006C656374696F6E4D61696E207C20436832
:1038BC00616E67656420746F20436F6E6665747407
:1038CC00692D4D6F646500496E6372656173696E35
:1038DC006720436F6C6F7254656D70205B48756523
:1038EC002053617475726174696F6E5D20200020C5
:1038FC000044656372656173696E6720436F6C6F1A
:10390C007254656D70205B487565205361747572D7
:10391C006174696F6E5D2020002D2D2D2D202000EF
:10392C006F6F2020002D2D20202020006F6F202075
:10393C002020004272696768746E657373446F77F8
:10394C006E205B536574706F696E742020416374D4
:10395C0075616C5D002B2B2B2B2020002B2B20203A
:10396C002020004272696768746E6573735570200D
:10397C00536574706F696E74202041637475616C4B
:10398C000045666665637457686974655269676853
:10399C00740045666665637457686974654C656642
:1039AC0074004566666563745768697465416C6C30
:1039BC0000506F7765726564206F6E206E6F7700B4
:1039CC00506F776572656420646F776E206E6F77C9
:1039DC0000506F77657220627574746F6E20707210
:1039EC006573736564202D205475726E696E672043
:1039FC006F666600506F77657220627574746F6EB7
:103A0C002070726573736564202D205475726E6915
:103A1C006E67206F6E0053746172746564202D2084
:103A2C0057616974696E67202D2056312E3000FF66
:103A3C0000633905D007000000000000050FFA0EE6
:103A4C003301DD0E350100000000F11682188716D7
:063A5C00B8169816E116F1
:00000001FF
