:1000000073C000009BC0000099C0000097C00000B2
:1000100095C0000093C0000091C000008FC0000098
:100020008DC000008BC0000089C0000087C00000A8
:1000300085C0000083C0000081C000007FC00000B8
:100040007DC000007BC0000079C0000077C00000C8
:1000500075C0000073C0000071C000009EC60000A3
:100060006DC000006BC0000069C0000067C00000E8
:1000700065C0000063C0000061C000005FC00000F8
:100080005DC000005BC0000059C0000057C0000008
:1000900055C0000053C0000051C000004FC0000018
:1000A0004DC000004BC0000049C0000047C0000028
:1000B00045C0000043C0000041C000003FC0000038
:1000C0003DC000003BC0000039C0000037C0000048
:1000D00035C0000033C0000031C000002FC0000058
:1000E0002DC00000DB00FD0411241FBECFEFD1E2C4
:1000F000DEBFCDBF00E00CBF12E0A0E0B2E0E0EA5E
:10010000F0E100E00BBF02C007900D92A031B107F3
:10011000D9F71BBE12E0A0E1B2E001C01D92A237E8
:10012000B107E1F710E0C8EED0E003C02297FE016E
:10013000B1D7C43ED107D1F70ED7B0C761CF229A4D
:10014000089580E991E008951F93CF93DF93382FAE
:10015000492F80913A028F5F877080933A0280FD29
:1001600002C020E001C020E881FD206482FD206201
:10017000122F105F832F942F9C01F901C0E0D0E073
:100180006285662329F080E091E070E031D76F5FEF
:100190006783212F269F212D11242483662311F0AC
:1001A0006150678321963196C330D10549F7DF91BD
:1001B000CF911F9108950895409128024F5F409379
:1001C000280280E192E068E070E0209101025BC3C8
:1001D000EF92FF920F931F93809129028823F1F4ED
:1001E00089E292E0C4D6892BC9F0E0900002FF2496
:1001F00000E010E01AD660933102709332028093CF
:10020000330290933402E0923502F092360200936A
:1002100037021093380289E292E0B3D606D62091D5
:100220003102309132024091330250913402621B0C
:10023000730B840B950B209135023091360240915F
:10024000370250913802621773078407950778F0D8
:10025000ECD5609331027093320280933302909315
:100260003402AADF8BE392E060913B021AD41F9123
:100270000F91FF90EF900895EF92FF920F931F93CD
:10028000CF93DF93EC018B017A018091590288238F
:1002900009F04BC089E592E06AD6892B09F445C084
:1002A00010926402109263028FEF80936702809332
:1002B00068028093690280936A0280936B02809344
:1002C0006C0281E080936D0210926F0210926E02B8
:1002D0001092660210926502809142029091430250
:1002E000892B31F481E692E090934302809342029D
:1002F000E0914402F0914502309721F081E692E0CE
:100300009583848381E692E0909345028093440232
:10031000109271021092700286E092E09093620255
:100320008093610289E592E02CD681E692E0BE01DD
:10033000A801970124D3DF91CF911F910F91FF90D6
:10034000EF90089580E192E068E070E040E050E0D6
:1003500093DF8FEF80933B0208954F925F926F92ED
:100360007F929F92AF92BF92CF92DF92EF92FF92D5
:100370000F931F93DF93CF93CDB7DEB72E970FB6B2
:10038000F894DEBF0FBECDBF2C013A01F9011E2D3E
:10039000DC011C969C917A8369835C834B8380810A
:1003A0008B8781818C8782818D87913021F4CE016A
:1003B0000196CADE06C01A86198618861F821E821A
:1003C0001D8289819A81810F911D9A8389830023DF
:1003D00011F480E002C0812F8D5F8E8734D5F20149
:1003E00027853089621B730B6A307105B8F3F89466
:1003F00059819A80A5B0F4E0AF2AC5B08BEFC8222E
:10040000C5B8B9848E814B2D481B4E83DE848B8109
:100410003C811C85FB84ED846D819F8108857A85F4
:10042000E981FA812181222319F0240F08F42FEFAA
:10043000219F212D1124A82FB32FE52FF92D30E076
:10044000842F532F432F002CA5B800C027FFC5B819
:1004500040813327889400C000C0002CC5B84111EA
:10046000460F00C0002CA5B800C026FFC5B808F490
:100470004FEF889400C000C000C0C5B8F0FC340F36
:1004800000C0002CA5B800C025FFC5B837958894DA
:10049000F1FC340F00C000C0002CC5B8379588941B
:1004A00000C0002CA5B800C024FFC5B8F2FC340F72
:1004B0003795889400C000C0002CC5B8F3FC340FF9
:1004C00000C0002CA5B800C023FFC5B8379588949C
:1004D000F4FC340F00C000C0002CC5B837958894D8
:1004E00000C0002CA5B800C022FFC5B8F5FC340F31
:1004F0003795889400C000C0002CC5B8F6FC340FB6
:1005000000C0002CA5B800C021FFC5B8379588945D
:10051000F7FC340F00C000C0002CC5B83795889494
:1005200000C0002CA5B800C020FFC5B86195600FC1
:1005300000C000C000C0002CC5B8232F00C000C000
:10054000A5B800C027FFC5B842813327889400C0F2
:1005500000C0002CC5B84111490F00C0002CA5B83F
:1005600000C026FFC5B808F44FEF889400C000C053
:1005700000C0C5B8E0FC340F00C0002CA5B800C016
:1005800025FFC5B837958894E1FC340F00C000C042
:10059000002CC5B83795889400C0002CA5B800C0C1
:1005A00024FFC5B8E2FC340F3795889400C000C022
:1005B000002CC5B8E3FC340F00C0002CA5B800C067
:1005C00023FFC5B837958894E4FC340F00C000C001
:1005D000002CC5B83795889400C0002CA5B800C081
:1005E00022FFC5B8E5FC340F3795889400C000C0E1
:1005F000002CC5B8E6FC340F00C0002CA5B800C024
:1006000021FFC5B837958894E7FC340F00C000C0BF
:10061000002CC5B83795889400C0002CA5B800C040
:1006200020FFC5B8ED0DF11D8894232F00C000C038
:10063000002CC5B89195970F00C0002CA5B800C03C
:1006400027FFC5B841813327889400C000C0002C23
:10065000C5B84111480F00C0002CA5B800C026FF46
:10066000C5B808F44FEF889400C000C000C0C5B8FA
:1006700010FD340F00C0002CA5B800C025FFC5B880
:100680003795889411FD340F00C000C0002CC5B808
:100690003795889400C0002CA5B800C024FFC5B8C9
:1006A00012FD340F3795889400C000C0002CC5B8E7
:1006B00013FD340F00C0002CA5B800C023FFC5B83F
:1006C0003795889414FD340F00C000C0002CC5B8C5
:1006D0003795889400C0002CA5B800C022FFC5B88B
:1006E00015FD340F3795889400C000C0002CC5B8A4
:1006F00016FD340F00C0002CA5B800C021FFC5B8FE
:100700003795889417FD340F00C000C0002CC5B881
:100710003795889400C0002CA5B800C020FFC5B84C
:1007200081958B0D232F00C000C000C0C5B8119764
:1007300009F08ACEB301882777FD8095982F20EEA7
:1007400031E040E050E021D424E0969587957795FC
:1007500067952A95D1F7E0E0F0E09F014AE9649EB1
:10076000212D749E200D311D112440E050E0260FF4
:10077000371F481F591F293EA3E03A07A0E04A0748
:10078000A0E05A0790F1285E33404040504092E08C
:1007900056954795379527959A95D1F787E0289FE5
:1007A000E12D389FE00DF11D112480913902280FB1
:1007B000311D2E0F3F1F4091540250915502609100
:1007C000560270915702832F9927A0E0B0E0840F62
:1007D000951FA61FB71F8093540290935502A093B4
:1007E0005602B09357022093390278942CD3F20129
:1007F000708B67872E960FB6F894DEBF0FBECDBF05
:10080000CF91DF911F910F91FF90EF90DF90CF90EC
:10081000BF90AF909F907F906F905F904F900895A2
:10082000EF92FF920F93DF93CF9300D0CDB7DEB757
:10083000AB0119821A821B829E012F5F3F4FB901C3
:1008400000E0EE24FF2489DD0F900F900F90CF91F0
:10085000DF910F91FF90EF900895EF92FF920F9329
:1008600001E0EE24FF2479DD0F91FF90EF900895D1
:10087000EF92FF920F9300E0EE24FF246EDD0F91C4
:10088000FF90EF9008959F92AF92BF92CF92DF9228
:10089000EF92FF920F931F93DF93CF9300D0CDB7CA
:1008A000DEB75B01922E49832FEF2B8320EF2A8343
:1008B0007C0100E010E06E010894C11CD11C0CC04A
:1008C000C601B701CAD18981890D89830F5F1F4F86
:1008D00083E090E0E80EF91E0A151B058CF30F90DB
:1008E0000F900F90CF91DF911F910F91FF90EF909C
:1008F000DF90CF90BF90AF909F900895EF92FF92BE
:100900000F931F93CF93DF93EC014423E9F061151C
:10091000710571F19B0140E050E060E472E48FE00A
:1009200090E09BD3EB80FC800D811E81C901DA0130
:100930008E159F05A007B10710F4D801C7018B835E
:100940009C83AD83BE8314C06115710569F09B0162
:1009500040E050E060E472E48FE090E07ED32B83CF
:100960003C834D835E8304C01B821C821D821E82D9
:10097000DF91CF911F910F91FF90EF900895CF924B
:10098000DF92EF92FF920F931F93CF93DF938C012F
:100990007B011216130624F06A01C0E0D0E002C009
:1009A0006901EA01D801ED91FC910480F581E02D07
:1009B000C8011995CE01880F991F8C0F9D1F8E0DB0
:1009C0009F1DF80193838283C586D6860190F081AE
:1009D000E02D0084F185E02DC8011995BC018BE361
:1009E00092E041E08BDFC801DF91CF911F910F9121
:1009F000FF90EF90DF90CF9008958FEF80933B02B0
:100A000010923D0210923C020895EF92FF920F93D4
:100A10001F93CF93DF93EC0180914A0290914B0298
:100A2000019690934B0280934A020197861797078D
:100A30008CF1FBD19B01AC0160914A0270914B0299
:100A400088EE93E0FB01E89FB001E99F700DF89FED
:100A5000700D1124882777FD8095982FE09046022D
:100A6000F090470200914802109149022E193F0967
:100A7000400B510BD0D23A83298310924B02109233
:100A80004A02D3D160934602709347028093480292
:100A900090934902DF91CF911F910F91FF90EF90BA
:100AA00008952F923F924F925F926F927F928F9212
:100AB0009F92AF92BF92CF92DF92EF92FF920F93ED
:100AC0001F93DF93CF93CDB7DEB729970FB6F89476
:100AD000DEBF0FBECDBF5C016F83F50183819481C2
:100AE000A581B6810097A105B10509F49FC0ABD1DE
:100AF00020914C0230914D0240914E0250914F0294
:100B0000621B730B840B950BD50113962D913D91B0
:100B10004D915C911697621773078407950708F04B
:100B200085C0DBCFF801F485FE83D50111968D9148
:100B30009C9112978436910510F4F8011486D8011F
:100B4000ED91FC911197828193819D838C83129604
:100B50004D905C9013971D962D903C901E97198296
:100B60001A821B829F81992389F168017E01089472
:100B7000E11CF11CD60116962C91169719966C91D2
:100B80002223C9F06623B9F070E080E090E06F5F47
:100B90007F4F8F4F9F4F30E040E050E02F5F3F4F3F
:100BA0004F4F5F4FF2D1A4019301EFD1BC018827D1
:100BB0009927F70160830894C11CD11C0894E11C9B
:100BC000F11C88859985E816F906A1F6C801B201DD
:100BD000A1019E012F5F3F4FAC81BD81FD011995A1
:100BE0008E81F8018487048115810115110509F0B2
:100BF00099CFC50169E170E008DF29960FB6F89436
:100C0000DEBF0FBECDBFCF91DF911F910F91FF903F
:100C1000EF90DF90CF90BF90AF909F908F907F909C
:100C20006F905F904F903F902F9008950CD16093FC
:100C30004C0270934D0280934E0290934F020091AC
:100C40004202109143029F81692E772488249924BF
:100C5000DE011496B987A887C8CF1F93FC01DB017A
:100C6000808171811281482F4F71440F440F440FCE
:100C7000642F25E5629F612D1124282F30E087FD28
:100C800024C0C9018072907026FD0CC0892B29F404
:100C9000562F509580E0462F11C0462F4B5A80E0CA
:100CA0005BEA0CC0892B61F4242F3AEA239F212DA3
:100CB00011245BEA521B462F455580E030E02AC0E4
:100CC00080E0462F4095362F11C0C9018072907088
:100CD00026FD13C0892B61F480E0242F3AEA239F7C
:100CE000212D11244BEA421B322F3B5A50E012C0F7
:100CF00080E0362F3095562F0CC0892B29F4562FC3
:100D00005B5A80E03BEA04C0562F555580E035E53C
:100D1000361B40E07F3F09F41BC0552321F0579F4D
:100D2000512D09F05F5F442321F0479F412D09F0C9
:100D30004F5F332321F0379F312D09F03F5F11249E
:100D4000272F2095229F212D1124520F420F320F61
:100D50001F3F09F41AC020E0112321F0119F212D1B
:100D600009F02F5F552321F0529F512D09F05F5F4D
:100D7000442321F0429F412D09F04F5F332321F09E
:100D8000329F312D09F03F5F11245C9311964C93F3
:100D9000119712963C931F9108951F920F920FB6D0
:100DA0000F9211242F933F938F939F93AF93BF93F1
:100DB0008091540290915502A0915602B091570231
:100DC000309158020196A11DB11D232F2D5F2D37A3
:100DD00020F02D570196A11DB11D2093580280933C
:100DE000540290935502A0935602B09357028091FB
:100DF000500290915102A0915202B091530201967B
:100E0000A11DB11D8093500290935102A0935202F4
:100E1000B0935302BF91AF919F918F913F912F91CA
:100E20000F900FBE0F901F9018958FB7F8942091D8
:100E300054023091550240915602509157028FBF93
:100E4000B901CA0108959FB7F894209150023091DA
:100E50005102409152025091530286B5A89B06C0A0
:100E60008F3F21F02F5F3F4F4F4F5F4F9FBF542F5A
:100E7000432F322F2227280F311D411D511D82E0A3
:100E8000220F331F441F551F8A95D1F7B901CA019C
:100E90000895789484B5826084BD84B5816084BDF2
:100EA00085B5826085BD85B5816085BDEEE6F0E0E3
:100EB000808181608083E1E8F0E01082808182603F
:100EC0008083808181608083E0E8F0E080818160C0
:100ED0008083E1EBF0E0808184608083E0EBF0E0F0
:100EE000808181608083E1E9F0E08081826080839D
:100EF000808181608083E0E9F0E08081816080838F
:100F0000E1EAF0E08081826080838081816080837B
:100F1000E0EAF0E0808181608083E1E2F1E08081BD
:100F200082608083808181608083E0E2F1E0808163
:100F300081608083EAE7F0E0808184608083808143
:100F400082608083808181608083808180688083EB
:100F50001092C1000895CF93DF939BDFF3D9C0E0D7
:100F6000D0E036D92097E9F30E940000FACFFC01C7
:100F700020E030E08081882311F421E030E0C901D5
:100F80000895FC0181E080830895629FD001739FE2
:100F9000F001829FE00DF11D649FE00DF11D929F15
:100FA000F00D839FF00D749FF00D659FF00D992754
:100FB000729FB00DE11DF91F639FB00DE11DF91F78
:100FC000BD01CF0111240895AA1BBB1B51E107C02D
:100FD000AA1FBB1FA617B70710F0A61BB70B881FC9
:100FE000991F5A95A9F780959095BC01CD01089558
:100FF00097FB092E07260AD077FD04D0E5DF06D03F
:1010000000201AF4709561957F4F0895F6F790953A
:1010100081959F4F0895A1E21A2EAA1BBB1BFD01CB
:101020000DC0AA1FBB1FEE1FFF1FA217B307E407C7
:10103000F50720F0A21BB30BE40BF50B661F771F1F
:10104000881F991F1A9469F76095709580959095FF
:101050009B01AC01BD01CF01089597FB092E052628
:101060000ED057FD04D0D7DF0AD0001C38F45095BD
:101070004095309521953F4F4F4F5F4F0895F6F7BC
:1010800090958095709561957F4F8F4F9F4F0895F4
:10109000EE0FFF1F0590F491E02D1994F894FFCF07
:1010A00032080000000038042D049F001004A10045
:00000001FF
