:10000000B5C10000E4C10000E2C10000E0C1000091
:10001000DEC10000DCC10000DAC10000D8C1000070
:10002000D6C10000D4C10000D2C10000D0C1000080
:10003000CEC10000CCC10000CAC10000C8C1000090
:10004000C6C10000C4C10000C2C10000C0C10000A0
:10005000BEC10000BCC10000BAC1000050C3000016
:10006000B6C1000081C2000055C20000B0C100004E
:10007000AEC10000ACC10000AAC10000A8C10000D0
:10008000A6C10000A4C10000A2C10000A0C10000E0
:100090009EC100009CC100009AC1000098C10000F0
:1000A00096C1000094C1000092C1000090C1000000
:1000B0008EC100008CC100008AC1000088C1000010
:1000C00086C1000084C1000082C1000080C1000020
:1000D0007EC100007CC100007AC1000078C1000030
:1000E00076C1000003020602F501F901FF013D029D
:1000F0000A020E02140218021C02220226022A021E
:100100003D02300234023802AB0055007C0084000E
:100110004B00B5001B00E5000017E8000047B800E1
:100120000077AB0000ABAB000055AB000022DD0058
:100130000E00F2003E00C20071008F00A1005F00BF
:10014000D0002F00F907000097A0895B5A0F830D9C
:10015000C95F6035C2E907E18C24671E458E0863DC
:1001600025F0150A17BE0694F778EA4B001AC53E2B
:100170005EFCDBCB75230B2039B12158ED95385748
:10018000AE147D88ABA844AF4AA547868B301BA62A
:100190004D929EE7536FE57A3CD385E6DC695C2996
:1001A000372EF528F4668F3641193FA101D8504902
:1001B000D14C84BBD05912A9C8C4878274BC9F5645
:1001C000A4646DC6ADBA034034D9E2FA7C7B05CA9B
:1001D0002693767EFF5255D4CFCE3BE32F103A11B3
:1001E000B6BD1C2ADFB7AAD577F898022C9AA34689
:1001F000DD99659BA72BAC09811627FD13626C6EF8
:100200004F71E0E8B2B97068DAF661E4FB22F2C13E
:10021000EED2900CBFB3A2F1513391EBF90EEF6B1C
:1002200031C0D61FB5C76A9DB854CCB07379322D92
:100230007F0496FE8AECCD5DDE72431D1848F38D77
:1002400080C34E42D73D9CB4970000220025002871
:10025000002B002E003100340002010000050108CF
:10026000010B0100002100240027002A002D00308E
:1002700000330001010000040107010A0100002011
:10028000002300260029002C002F0032000001006E
:100290000003010601090105050505070508080811
:1002A00008020202020A0A08080404040401010107
:1002B000010101010103030303030303030407070F
:1002C000070C0C0C0C0C0C0C0C02020202060606AD
:1002D00006060606060B0B0B0B0B0B0B0B01021095
:1002E0002020080810204010204080020102010850
:1002F0000402010102040810204080804020100800
:100300000402018004020180402010080402010858
:1003100004020101020408102040800102040810B8
:1003200020408000000A0B02090C0D0E0807030490
:1003300001000000000000000000000000000000BC
:10034000000000000000000000000000000000129B
:10035000111000000000000000000000000000007C
:1003600000000000000000000000A61F11241FBEB6
:10037000CFEFD1E2DEBFCDBF00E00CBF13E0A0E0C5
:10038000B2E0E4E6F1E400E00BBF02C007900D929A
:10039000AE31B107D9F72DE0AEE1B3E001C01D9257
:1003A000AE37B207E1F711E0C6EBD1E000E006C0DE
:1003B00021970109802FFE010E945F20C53BD107D4
:1003C00080E00807A9F70E9413110C94B02018CE02
:1003D00090E0FC013197E231F10508F04EC088272A
:1003E000EE58FF4F8F4F0C945F20809180008F77E5
:1003F00003C0809180008F7D80938000089580915C
:100400008000877FF9CF84B58F7702C084B58F7D58
:1004100084BD08958091B0008F7703C08091B000B3
:100420008F7D8093B0000895809190008F7707C0F2
:10043000809190008F7D03C080919000877F809392
:10044000900008958091A0008F7707C08091A00050
:100450008F7D03C08091A000877F8093A0000895C6
:10046000809120018F7707C0809120018F7D03C08C
:1004700080912001877F809320010895FC012081D5
:10048000222321F0269F212D09F02F5F208308953C
:10049000FC012081222321F0269F212D09F02F5FCE
:1004A0002083089580E991E00895229A089580E0DC
:1004B00090E008958CEC9CE00E94ED0A21E0892BED
:1004C00009F420E0822F08950E9486200F93CF9395
:1004D000DF9300D0CDB7DEB7AB0119821A821B8241
:1004E00000E09E012F5F3F4FB9010E94600B0F900B
:1004F0000F900F90DF91CF910F9108950F9301E02E
:100500000E94600B0F9108950F9300E00E94600B12
:100510000F9108951F920F920FB60F9211240BB6F0
:100520000F922F933F934F935F936F937F938F938C
:100530009F93AF93BF93EF93FF938CEC9CE00E944B
:10054000F210FF91EF91BF91AF919F918F917F91A9
:100550006F915F914F913F912F910F900BBE0F9034
:100560000FBE0F901F9018951F920F920FB60F920B
:1005700011240BB60F922F938F939F93EF93FF93BA
:10058000E091DC0CF091DD0C8081E091E20CF091C7
:10059000E30C82FD12C090818091E50C8F5F8F7318
:1005A0002091E60C821751F0E091E50CF0E0E45365
:1005B000F34F958F8093E50C01C08081FF91EF91FF
:1005C0009F918F912F910F900BBE0F900FBE0F90A8
:1005D0001F901895CF93DF93282F30E0F901ED5D40
:1005E000FC4F8491F901E352FD4FD491F901E95692
:1005F000FD4FC491CC2389F08111EADEEC2FF0E0AD
:10060000EE0FFF1FE358FD4FA591B491EC91ED2340
:1006100081E090E021F480E002C080E090E0DF9192
:10062000CF910895CF93DF9390E0FC01E352FD4F0B
:100630002491FC01E956FD4F8491882361F190E0FB
:10064000880F991FFC01ED59FD4FC591D491FC0114
:10065000E75BFD4FA591B491611109C09FB7F89474
:100660008881209582238883EC912E230BC06230F1
:1006700061F49FB7F8943881822F80958323888313
:10068000EC912E2B2C939FBF06C08FB7F894E88176
:100690002E2B28838FBFDF91CF9108953FB7F89419
:1006A0008091270990912809A0912909B0912A09E0
:1006B00026B5A89B05C02F3F19F00196A11DB11DBD
:1006C0003FBFBA2FA92F982F8827820F911DA11DF8
:1006D000B11DBC01CD0142E0660F771F881F991F35
:1006E0004A95D1F708952FB7F89460912B0970912E
:1006F0002C0980912D0990912E092FBF08951F92EA
:100700000F920FB60F9211242F933F938F939F93C5
:10071000AF93BF9380912B0990912C09A0912D0943
:10072000B0912E093091260923E0230F2D3720F4B4
:100730000196A11DB11D05C026E8230F0296A11D3B
:10074000B11D2093260980932B0990932C09A09327
:100750002D09B0932E098091270990912809A09125
:100760002909B0912A090196A11DB11D809327097D
:1007700090932809A0932909B0932A09BF91AF91BA
:100780009F918F913F912F910F900FBE0F901F90CF
:100790001895FF920F931F93CF93DF9300D01F9272
:1007A000CDB7DEB7FC018B016081F1804281262F3D
:1007B0002F71220F220F822F880F35E5282F239FBC
:1007C000212D1124562F5074962F907267FD22C050
:1007D00051110CC0911104C0822F80958B8311C0E0
:1007E0008BEA8B832B5A2A83198239C091110CC052
:1007F000382F5AEA359F312D11248BEA831B8B83C6
:1008000025552A8319822BC01B8280E0822F809578
:100810008A830EC0511112C091110CC01B82282F67
:100820003AEA239F212D11248BEA821B8A832B5ABB
:10083000298315C02B831A822095FACF911108C005
:1008400085E5820F8B831A828BEA821B898307C01E
:100850008BEA820F8B831A8280E0321B39832FEF61
:10086000F216E9F06F2DCE0103964C8307DE6F2D53
:10087000CE01029603DE6F2DCE010196FFDD11241D
:100880006F2D6095669F612D11248B81860F8B8360
:100890008A81860F8A838981680F69834C814F3FE3
:1008A000B1F0F12C2F2D442321F0449F212D09F08C
:1008B0002F5FF22E622FCE010396E0DD6F2DCE0169
:1008C0000296DCDD6F2DCE010196D8DD11248B81DF
:1008D000F80180838A818183898182830F900F90C0
:1008E0000F900F90DF91CF911F910F91FF9008957E
:1008F000DF92EF92FF920F931F93CF93DF9300D07D
:10090000CDB7DEB77C01D22E842F90E024E0959500
:1009100087952A95E1F74F70DB01FC01EE0FFF1F71
:10092000E80FF91FE60FF71F20812B8351815A83AF
:1009300032813983442309F42AC0012B09F427C0EA
:100940000F9711F0DF0113964295407F642F619558
:10095000722F769F712D152F169F112D032F069F35
:10096000012D6C9111969C91119712968C91262FC6
:10097000249F212D592F549F512D382F349F312DD5
:100980001124270F2B83510F5A83300F39838FEF98
:10099000D81669F06D2DCE0103967ADD6D2DCE014E
:1009A000029676DD6D2DCE01019672DD11248981CE
:1009B0009A812B81F701208391838283C7010F9055
:1009C0000F900F90DF91CF911F910F91FF90EF90BB
:1009D000DF900895FA01029620E030E026173707ED
:1009E00074F44081DC0112974C93418111964C9331
:1009F0004281DC014C932F5F3F4F0396EFCF089568
:100A0000CF93DF93EC016FDE688379838A839B83C6
:100A1000DF91CF910895CF93DF9386E1DBDD892BC2
:100A200089F488E1D7DD892B69F48AE1D3DD892B4C
:100A300049F48CE1CFDD892B29F48EE1CBDD892BC4
:100A400009F4B0C186E1C6DD892B89F488E1C2DDF5
:100A5000892B69F48AE1BEDD892B49F48CE1BADD8A
:100A6000892B29F48EE1B6DD019709F4A2C186E154
:100A7000B1DD892B89F488E1ADDD892B69F48AE148
:100A8000A9DD892B49F48CE1A5DD019729F48EE1DC
:100A9000A1DD892B09F494C186E19CDD892B89F4C1
:100AA00088E198DD892B69F48AE194DD892B49F48A
:100AB0008CE190DD019729F48EE18CDD019709F43A
:100AC00086C186E187DD892B89F488E183DD892B66
:100AD00069F48AE17FDD019749F48CE17BDD892BA4
:100AE00029F48EE177DD892B09F478C186E172DD86
:100AF000892B89F488E16EDD892B69F48AE16ADD4E
:100B0000019749F48CE166DD892B29F48EE162DDE1
:100B1000019709F46AC186E15DDD892B89F488E1DA
:100B200059DD892B69F48AE155DD019749F48CE19F
:100B300051DD019729F48EE14DDD892B09F45CC16B
:100B400086E148DD892B89F488E144DD892B69F44D
:100B50008AE140DD019749F48CE13CDD019729F4FD
:100B60008EE138DD019709F44EC186E133DD892B32
:100B700089F488E12FDD019769F48AE12BDD892B67
:100B800049F48CE127DD892B29F48EE123DD892BC3
:100B900009F440C186E11EDD892B89F488E11ADD64
:100BA000019769F48AE116DD892B49F48CE112DDA5
:100BB000892B29F48EE10EDD019709F432C186E11B
:100BC00009DD892B89F488E105DD019769F48AE163
:100BD00001DD892B49F48CE1FDDC019729F48EE1DC
:100BE000F9DC892B09F422C186E1F4DC892B89F434
:100BF00088E1F0DC019769F48AE1ECDC892B49F4A7
:100C00008CE1E8DC019729F48EE1E4DC019709F43A
:100C100014C186E1DFDC892B91F488E1DBDC0197EC
:100C200071F48AE1D7DCEC01019749F48CE1D2DC64
:100C3000892B29F48EE1CEDC892B09F405C186E1EC
:100C4000C9DC892B89F488E1C5DC019769F48AE164
:100C5000C1DC019749F48CE1BDDC892B29F48EE1DC
:100C6000B9DC019709F4F5C086E1B4DC892B89F47D
:100C700088E1B0DC019769F48AE1ACDC019749F4C2
:100C80008CE1A8DC019729F48EE1A4DC892B09F41E
:100C9000E7C086E19FDC892B89F488E19BDC019722
:100CA00069F48AE197DC019749F48CE193DC0197C0
:100CB00029F48EE18FDC019709F4D9C086E18ADC42
:100CC000019789F488E186DC892B69F48AE182DC6A
:100CD000892B49F48CE17EDC892B29F48EE17ADCC6
:100CE000892B09F4CBC086E175DC019789F488E192
:100CF00071DC892B69F48AE16DDC892B49F48CE184
:100D000069DC892B29F48EE165DC019709F4BDC00B
:100D100086E160DC019789F488E15CDC892B69F469
:100D20008AE158DC892B49F48CE154DC019729F4E1
:100D30008EE150DC892B09F4AFC086E14BDC0197D2
:100D400089F488E147DC892B69F48AE143DC892B4B
:100D500049F48CE13FDC019729F48EE13BDC0197FB
:100D600009F4A1C086E136DC019709F0A3C088E14F
:100D700031DC892B09F09EC08AE12CDC019709F057
:100D800099C08CE127DC892B09F094C08EE122DC2C
:100D9000892B09F08FC089E090E090932A07809317
:100DA000290788C08AE090E090932A07809329075A
:100DB00049CE8BE090E090932A078093290757CE85
:100DC0008CE090E090932A078093290765CE8DE010
:100DD00090E090932A078093290773CE8EE090E0ED
:100DE00090932A078093290781CE8FE090E090931B
:100DF0002A07809329078FCE80E190E090932A07FD
:100E0000809329079DCE81E190E090932A078093FB
:100E10002907ABCE82E190E090932A0780932907BF
:100E2000B9CE10922A0710922907C9CE83E190E02B
:100E300090932A0780932907D7CE84E190E090937E
:100E40002A0780932907E5CED0932A07C093290764
:100E5000F6CE82E090E090932A078093290704CF92
:100E600083E090E090932A078093290712CF84E0D3
:100E700090E090932A078093290720CF85E090E0A7
:100E800090932A07809329072ECF86E090E09093D5
:100E90002A07809329073CCF87E090E090932A07A8
:100EA000809329074ACF88E090E090932A078093A7
:100EB000290758CFDF91CF910895CF92DF92EF921B
:100EC000FF9286ED92E0E4D6C0902307D0902407ED
:100ED0000D2C000CEE08FF08F7FE14C0E091CC0CBE
:100EE000F091CD0C0190F081E02D6DE28CEC9CE056
:100EF000199566277727CB016C197D098E099F0903
:100F00004AE003C04AE0C701B6010E94C50F85EA66
:100F100092E0BED680912307909124078B309105F3
:100F200031F42AE0E8E1F7E0ACE8B6E008C084304C
:100F3000910551F42AE0E8E1F7E0A0EAB6E001907B
:100F40000D922A95E1F727C08330910551F42AE0EC
:100F5000E8E1F7E0A6E9B6E001900D922A95E1F705
:100F600027C08530910551F42AE0E8E1F7E0AAEACC
:100F7000B6E001900D922A95E1F727C086309105E1
:100F800051F42AE0E8E1F7E0A4EBB6E001900D921D
:100F90002A95E1F734C08730910551F42AE0E8E161
:100FA000F7E0AEEBB6E001900D922A95E1F730C084
:100FB0008830910551F42AE0E8E1F7E0A2EDB6E0CF
:100FC00001900D922A95E1F72CC08930910551F4DA
:100FD0002AE0E8E1F7E0ACEDB6E001900D922A9549
:100FE000E1F728C08A30910551F42AE0E8E1F7E002
:100FF000A6EEB6E001900D922A95E1F724C081306B
:10100000910531F48AE0E8E1F7E0A8ECB6E022C00F
:101010008230910531F48AE0E8E1F7E0A4E0B7E03E
:1010200019C08C30910531F48AE0E8E1F7E0A0EFD7
:10103000B6E010C08D30910531F48AE0E8E1F7E0C8
:10104000AAEFB6E007C00E9749F48AE0E8E1F7E0BE
:10105000AEE0B7E001900D928A95E1F7FF90EF9036
:10106000DF90CF90089581E080932207809125073B
:101070009091260790932407809323070895CF9299
:10108000DF92EF92FF920F931F93CF93DF938C0128
:10109000EB0180918906811104C080918A06882322
:1010A00021F0C2E3D0E002E310E01DDBC0900F09A5
:1010B000D0901009E0901109F0901209AB01BC0129
:1010C0004C195D096E097F09C801A0E0B0E08417E2
:1010D0009507A607B70720F480910E098823A9F089
:1010E00002DBAB01BC014C195D096E097F09CE0121
:1010F000A0E0B0E084179507A607B70708F036C050
:1011000080910E09882309F431C0EDDA60930F094C
:1011100070931009809311099093120910910E0990
:1011200081E0182710930E09E0E3F3E08491EAEEE2
:10113000F2E0D491E4EAF2E0C491CC23B9F0811159
:1011400047D9EC2FF0E0EE0FFF1FE75BFD4FA591B5
:10115000B4918FB7F894111105C09C91ED2FE095D3
:10116000E92302C0EC91ED2BEC938FBFDF91CF917F
:101170001F910F91FF90EF90DF90CF900895AF9265
:10118000BF92CF92DF92EF92FF920F931F93CF9374
:10119000DF931F92CDB7DEB7A0901E03B0901F0360
:1011A00075018EE9E80EF11CC7018FD5882349F13E
:1011B0008BE8C82E86E0D82E85010F5F1F4F8091E7
:1011C0000D0290910E0280179107BCF482E692E026
:1011D00070D580E0F60161916F01861749F0C80172
:1011E000698373D56981882319F0C5010E94A22003
:1011F00058010E151F0501F704C0C5010E949A2071
:10120000E9CF0F90DF91CF911F910F91FF90EF9059
:10121000DF90CF90BF90AF900895FC01DB013C912F
:101220002081230F08F42FEF208311963C91119712
:101230002181230F08F42FEF218312963C91228104
:10124000230F08F42FEF22830895CF92DF92EF92BD
:10125000FF921F93CF93DF93EC0145DAC880D980CA
:10126000EA80FB80DC01CB018C199D09AE09BF0926
:1012700011E0CC80DD80EE80FF808C159D05AE05F1
:10128000BF0510F410E002C0CE01BADB812FDF9160
:10129000CF911F91FF90EF90DF90CF9008950F9323
:1012A0001F93CF93DF9300D000D0CDB7DEB789E690
:1012B00093E0E1E3F9E0A0E2B3E001900D92019741
:1012C000E1F780911B0790911C07892B89F41C8200
:1012D0001D821E82BE016F5F7F4FCE01049659DAD8
:1012E000AE014F5F5F4F66EB70E087E694E072DB24
:1012F00080911B0790911C07019789F41C821D8225
:101300001E82BE016F5F7F4FCE01049642DAAE01AE
:101310004F5F5F4F64EC70E080E293E05BDB8091B5
:101320001B0790911C07039751F080918906882331
:1013300031F189E1809325091092890620C000913E
:10134000210710E0E2E2F3E020E030E0233281E028
:10135000380781F0C901B8010E94FA1F892B31F0CA
:10136000DF0112971C9211961C9210822F5F3F4F43
:101370003396ECCF3093140920931309D6CF809184
:101380002509882309F46DC080918A06882381F19C
:10139000198290E89A831B821AE0612F0E94EE1F47
:1013A000682F70E0AE014F5F5F4F80E293E012DB89
:1013B00019821A821B8280918A06612F0E94EE1F79
:1013C00090E069E170E0681B790B9C01220F331FEC
:1013D000820F931FAE014F5F5F4F805E9C4FFADA22
:1013E0008FEF80936B0310926C0310926D030EC00D
:1013F0001092230380E880932403109225038FEF3B
:101400008093260310922703109228038FEF809376
:101410002003109221031092220380911D09811153
:1014200012C085E199E0ECDA84E690E0A0E0B0E05B
:101430008093190990931A09A0931B09B0931C0972
:1014400081E080931D0985E199E0FFDE882349F062
:1014500080912509815080932509811102C0109245
:101460008A068091690D69D426960FB6F894DEBF7E
:101470000FBECDBFDF91CF911F910F910895CF93F4
:10148000C82F80910609811112C08EEF98E0B8DA5A
:1014900084E190E0A0E0B0E080930209909303091A
:1014A000A0930409B093050981E0809306098EEFAB
:1014B00098E0CBDE8823A1F14091690D242F30E024
:1014C0002C1B3109C9010A96459710F092E001C022
:1014D00091E0B9016C5E7F4F6932710508F094E0CC
:1014E000B901625E7F4F6D33710508F098E0B90174
:1014F000685D7F4F6135710508F090E12A5B3F4FD1
:101500002D38310508F090E24C1718F4490F40933C
:10151000690D2091690DC21718F4291B2093690DDC
:10152000CF910895482F982F46FD9095E92FEF739E
:101530009F7046FD9F5FE695E695E695E670F0E0C4
:10154000E55DFD4F2181299F802D212D112482955C
:101550008F702295207F822B3081982F930F892FB7
:1015600047FD81958058089540910B0250910C02DF
:1015700025E038E0429FD001439FB00D529FB00D4F
:101580001124A75EB94CB0930C02A0930B029C01EE
:101590000C9467200895FC01918D828D981761F05D
:1015A000828DDF01A80FB11D5D968C91928D9F5F9A
:1015B0009F73928F90E008958FEF9FEF0895FC0145
:1015C000918D828D981731F0828DE80FF11D858DF8
:1015D00090E008958FEF9FEF0895FC01918D228D8B
:1015E000892F90E0805C9F4F821B91098F73992710
:1015F0000895EF92FF920F931F93CF93DF93EC0127
:1016000081E0888F9B8D8C8D981305C0E889F989BE
:10161000808185FD23C0F62E0B8D10E00F5F1F4FDC
:101620000F731127E02E8C8DE8120BC00FB607FC4C
:10163000FACFE889F989808185FFF5CFCE01D2D52F
:10164000F2CF8B8DFE01E80FF11DE35AFF4FF082C0
:101650000B8FEA89FB898081806207C0EE89FF8950
:101660006083E889F98980818064808381E090E0EB
:10167000DF91CF911F910F91FF90EF900895CF933D
:10168000DF93EC01888D8823C1F0EA89FB89808192
:1016900085FD05C0A889B9898C9186FD0EC00FB65D
:1016A00007FCF5CF808185FFF2CFA889B9898C919D
:1016B00085FFEDCFCE0196D5E8CFDF91CF9108958C
:1016C0004F925F926F927F928F929F92AF92BF9252
:1016D000CF92DF92EF92FF920F931F93CF93DF93FE
:1016E000CDB7DEB72E970FB6F894DEBF0FBECDBFD5
:1016F0006C017B015A01F901DC011C968C919081EF
:101700009B8791819C8792819D87813009F03BC0A6
:1017100080912F098F5F982F977090932F0980FFEA
:1017200002C080E801C080E091FD8064947009F0FF
:10173000806210E1180FFE013B969E01225F3F4F31
:10174000812C992493946191662331F070E0C40157
:101750000E940E206F5F01C060E0CF010497DC01A2
:101760006C93712F769F712D1124AF014750510951
:10177000DA017C93662319F06150DC016C93E21767
:10178000F30709F706C01A86198618861F821E827B
:101790001D82002311F003E001C000E00E944E030F
:1017A000F60127853089621B730B6A307105B0F32F
:1017B000F89415B1146085B18B7F85B989849E81B9
:1017C000482D491B9C847B846D843D815F815884B6
:1017D0004A84D70111967C91772319F0740F08F48D
:1017E0007FEF292D729F712D1124D501F70120E083
:1017F000942F422F622F002C15B900C077FF85B9B6
:1018000060812227889400C000C0002C85B9611136
:10181000630F00C0002C15B900C076FF85B908F42D
:101820006FEF889400C000C000C085B970FC260F1F
:1018300000C0002C15B900C075FF85B927958894A4
:1018400071FC260F00C000C0002C85B92795889434
:1018500000C0002C15B900C074FF85B972FC260FBA
:101860002795889400C000C0002C85B973FC260F12
:1018700000C0002C15B900C073FF85B92795889466
:1018800074FC260F00C000C0002C85B927958894F1
:1018900000C0002C15B900C072FF85B975FC260F79
:1018A0002795889400C000C0002C85B976FC260FCF
:1018B00000C0002C15B900C071FF85B92795889428
:1018C00077FC260F00C000C0002C85B927958894AE
:1018D00000C0002C15B900C070FF85B93195350DD9
:1018E00000C000C000C0002C85B9722F00C000C02D
:1018F00015B900C077FF85B962812227889400C09E
:1019000000C0002C85B96111650F00C0002C15B90D
:1019100000C076FF85B908F46FEF889400C000C05E
:1019200000C085B960FC260F00C0002C15B900C0AE
:1019300075FF85B92795889461FC260F00C000C00B
:10194000002C85B92795889400C0002C15B900C0DB
:1019500074FF85B962FC260F2795889400C000C0EB
:10196000002C85B963FC260F00C0002C15B900C0FF
:1019700073FF85B92795889464FC260F00C000C0CA
:10198000002C85B92795889400C0002C15B900C09B
:1019900072FF85B965FC260F2795889400C000C0AA
:1019A000002C85B966FC260F00C0002C15B900C0BC
:1019B00071FF85B92795889467FC260F00C000C089
:1019C000002C85B92795889400C0002C15B900C05B
:1019D00070FF85B9E00FF11D8894722F00C000C020
:1019E000002C85B95195540D00C0002C15B900C0CC
:1019F00077FF85B961812227889400C000C0002C40
:101A000085B96111690F00C0002C15B900C076FFBF
:101A100085B908F46FEF889400C000C000C085B994
:101A200090FC260F00C0002C15B900C075FF85B9C9
:101A30002795889491FC260F00C000C0002C85B922
:101A40002795889400C0002C15B900C074FF85B993
:101A500092FC260F2795889400C000C0002C85B901
:101A600093FC260F00C0002C15B900C073FF85B988
:101A70002795889494FC260F00C000C0002C85B9DF
:101A80002795889400C0002C15B900C072FF85B955
:101A900095FC260F2795889400C000C0002C85B9BE
:101AA00096FC260F00C0002C15B900C071FF85B947
:101AB0002795889497FC260F00C000C0002C85B99C
:101AC0002795889400C0002C15B900C070FF85B917
:101AD0009195980D722F00C000C000C085B9119774
:101AE00009F08ACE20EE31E0D5010E947620DC019B
:101AF000CB01F4E0B695A79597958795FA95D1F720
:101B000020E030E0A9016AE9A69E412DB69E400D75
:101B1000511D1124840F951FA11DB11D893E43E065
:101B20009407A105B10588F1885E9340A109B10928
:101B300042E0B695A795979587954A95D1F747E0E6
:101B4000849F212D949F200D311D11246091300917
:101B500070E0860F971F820F931F40912B095091C1
:101B60002C0960912D0970912E09292F3327420FDE
:101B7000531F611D711D40932B0950932C096093D5
:101B80002D0970932E098093300978940E944E039A
:101B9000D60150967C936E931F972E960FB6F894AD
:101BA000DEBF0FBECDBFDF91CF911F910F91FF9090
:101BB000EF90DF90CF90BF90AF909F908F907F90ED
:101BC0006F905F904F900895EF92FF920F931F9345
:101BD000CF93DF937C018B01EA018FEFE816F104CC
:101BE00009F010F4FE2CEE240E9473039B01AC015B
:101BF000A8E1B1E00E947C209B01AC01D7010E94CA
:101C00007C20AC01662777279A013F73369527958C
:101C10003695279536952795CA0188279074892B84
:101C200031F08FEF97E0FC01E21BF30B9F01E32FF4
:101C3000EE0FEE0FF0E0ED5CFD4F8081918132817F
:101C40002695329F800D911D112457FF03C0919559
:101C500081959109AC015058C01BD10B60E070E038
:101C6000CB0120E04C9FB0015D9FC0015C9F700DD7
:101C7000811D921F4D9F700D811D921F1124800F99
:101C8000911FDF91CF911F910F91FF90EF900895D9
:101C9000009761F0FC0101900020E9F73197AF0156
:101CA000481B590BBC018CEC9CE071C280E090E0B9
:101CB0000895CF93DF93ECDFEC0185EA92E0E8DF53
:101CC0008C0F9D1FDF91CF91089520917C0D309155
:101CD0007D0D2F5F3F4F30937D0D20937C0D409104
:101CE000700D5091710D4115510519F042175307B0
:101CF0001CF48BEF92E009C020910D0230910E028E
:101D0000281739072CF482E692E0D3DF80E00895AB
:101D100081E0089520E330E04CE95CE0FC01DA0169
:101D200020FF05C002C001900D9201900D9222503B
:101D3000D0F73040C0F7CA0108953F924F925F92AA
:101D40006F927F928F929F92AF92BF92CF92DF92CB
:101D5000EF92FF920F931F93CF93DF9300D0CDB7F5
:101D6000DEB7D82E80916C0D90916D0DA0916E0D07
:101D7000B0916F0D892B8A2B8B2BE9F00E944E03BB
:101D80000091780D1091790D20917A0D30917B0D95
:101D9000DC01CB01801B910BA20BB30B00916C0DEE
:101DA00010916D0D20916E0D30916F0D8017910780
:101DB000A207B307B8F20E944E036093780D7093A8
:101DC000790D80937A0D90937B0D00919A0C109170
:101DD0009B0C4D2C512C612C712C0115110509F413
:101DE00061C0D8011C96CC901C9780916A0D90918F
:101DF0006B0D8436910510F41C961C92D801ED9160
:101E0000FC91A280B38019821A821B82D11014C067
:101E1000F80145855685628173819E012F5F3F4F92
:101E2000C801F5011995D8011C96CC921C971496FF
:101E30000D911C911597D1CFF8013996CE010196DD
:101E40007C0148019CE0890E911CDF0113973C90B6
:101E50002191332001F12223F1F0822F90E0A0E0C4
:101E6000B0E09C01AD012F5F3F4F4F4F5F4FC3016B
:101E7000B2010E94DF1F9B01AC01832D90E0A0E026
:101E8000B0E0BC01CD016F5F7F4F8F4F9F4F0E942D
:101E9000DF1FD7018C93BFEFEB1AFB0AE815F9059A
:101EA000A1F6B6CF8091760D9091770D8C010F5FE2
:101EB0001F4F1093770D0093760D49979CF10E9468
:101EC00073034B015C0188EE93E0089FB001099F0A
:101ED000700D189F700D1124072E000C880B990BA4
:101EE000C090720DD090730DE090740DF090750D50
:101EF000A50194012C193D094E095F090E9421207A
:101F000030936B0D20936A0D1092770D1092760D21
:101F10000E9473036093720D7093730D8093740D20
:101F20009093750D0F900F900F90DF91CF911F91AF
:101F30000F91FF90EF90DF90CF90BF90AF909F9068
:101F40008F907F906F905F904F903F900895CF93C8
:101F5000DF93382FE1E3F9E0A3E3B9E02081239F89
:101F6000212D2083ED012A91239F212D28832C915F
:101F7000239F212D2C931124339613968CE0EA395C
:101F8000F80761F7DF91CF9108958F929F92AF92FA
:101F9000BF920F931F93CF93DF93CDB7DEB7A19777
:101FA0000FB6F894DEBF0FBECDBF19A2423008F4C1
:101FB0004AE08E010F5D1F4F842E912CA12CB12C75
:101FC000A50194010E942120E62FB901CA01015008
:101FD0001109EA3014F4E05D01C0E95CD801EC932A
:101FE000232B242B252B61F7C80152DEA1960FB6B7
:101FF000F894DEBF0FBECDBFDF91CF911F910F913F
:10200000BF90AF909F908F9008954F925F926F9284
:102010007F928F929F92AF92BF92CF92DF92EF9278
:10202000FF920F931F93CF93DF9300D0CDB7DEB70E
:10203000DC01FB01908141810C911196EC9111978B
:1020400012962C91411101C0902F222311F0E11121
:1020500001C0092FF0E030E0901B50E8959FC001CF
:10206000112452E2E52EFF24F394B7010E940E20C2
:102070005B01842F90E08E1B9F0B9695982F8827ED
:1020800097958795B7010E940E206B018FEF90E026
:10209000821B930B9695982F882797958795B70164
:1020A0000E940E20AA0CBB1CCC0CDD1C7B01EE0C8C
:1020B000FF1C10E0102F00277E2E6624922E88240D
:1020C00051E3452E59E0552E19837A829B82B20145
:1020D000CE0101960E94C9030A0D1B1D6C0C7D1CCC
:1020E0008E0C9F1C83E0480E511CEAE94E16ECE072
:1020F0005E0651F70F900F900F90DF91CF911F91D7
:102100000F91FF90EF90DF90CF90BF90AF909F9096
:102110008F907F906F905F904F90089580E090E057
:10212000892B21F00E945A02811125C080E090E0A5
:10213000892B41F080E090E0892B21F00E94000083
:1021400081111CC080E090E0892B41F080E090E09C
:10215000892B21F00E940000811113C080E090E0E3
:10216000892BA1F080E090E0892B81F00E94000093
:1021700081110AC008950E940000D8CF0E9400007B
:10218000E1CF0E940000EACF0C9400000895CF92A6
:10219000DF92EF92FF920F931F93CF93DF936C0127
:1021A0007A018B01C0E0D0E0CE15DF0589F0D801BF
:1021B0006D918D01D601ED91FC910190F081E02DA2
:1021C000C6011995892B11F47E0102C02196ECCF2E
:1021D000C701DF91CF911F910F91FF90EF90DF909A
:1021E000CF900895FC01848DDF01A80FB11DA35A83
:1021F000BF4F2C91848D90E001968F739927848F27
:10220000A689B7892C93A089B1898C9180648C931D
:10221000938D848D981306C00288F389E02D808108
:102220008F7D80830895CF93DF93CDB7DEB7C856F7
:10223000D1090FB6F894DEBF0FBECDBF789484B538
:10224000826084BD84B5816084BD85B5826085BDB2
:1022500085B5816085BD80916E00816080936E0040
:102260001092810080918100826080938100809132
:1022700081008160809381008091800081608093E3
:1022800080008091B10084608093B1008091B000A3
:1022900081608093B0008091910082608093910072
:1022A0008091910081608093910080919000816085
:1022B000809390008091A10082608093A100809122
:1022C000A10081608093A1008091A0008160809333
:1022D000A0008091210182608093210180912101E1
:1022E0008160809321018091200181608093200191
:1022F00080917A00846080937A0080917A00826075
:1023000080937A0080917A00816080937A00809136
:102310007A00806880937A001092C1008091400713
:10232000811145C010923207109231078FEF8093D0
:10233000350780933607809337078093380780935B
:10234000390780933A0781E080933B0710923D075D
:1023500010923C07109234071092330780919A0C28
:1023600090919B0C892B31F48FE297E090939B0C1A
:1023700080939A0CE0912D07F0912E07309721F071
:102380008FE297E0958384838FE297E090932E0706
:1023900080932D0710923F0710923E0781E292E052
:1023A0009093300780932F0781E080934007E0915E
:1023B0002F07F09130070480F581E02D8FE297E040
:1023C000199580E293E0909332078093310783E27E
:1023D00091E090933D0780933C07E0912F07F091A7
:1023E00030070084F185E02D8FE297E01995009782
:1023F00029F19C0140E050E060E472E48FE090E05D
:102400000E944320722F632F00916C0D10916D0D6F
:1024100020916E0D30916F0D872F962FDA01801766
:102420009107A207B30710F4D901C80180936C0D7E
:1024300090936D0DA0936E0DB0936F0D1092690D7A
:1024400060E084E20E94120360E082E20E941203D4
:1024500060E08EE10E94120360E08CE10E941203B2
:1024600060E08AE10E94120360E088E10E941203AA
:1024700060E086E10E94120361E08DE00E94120399
:1024800020914A0730914B07809148079091490766
:102490002817390731F480E290E090934907809340
:1024A0004807809148079091490790934B07809384
:1024B0004A078130904114F00C94A01F80E090E115
:1024C00090930E0280930D0200914A0710914B07E2
:1024D000C80182569F4F90934B0780934A072091E3
:1024E0000D0230910E022817390744F482E692E07B
:1024F000E0DB66277727601B710B01C0B801709382
:102500001F0360931E034EE950E08BE896E00E94A3
:102510008A2081E090918B06963009F080E08093CC
:1025200000028111B1C080E88093180782E090E03A
:1025300090931C0780931B0783E0809321078FEF04
:102540008093190781E080931A0740EE51EF6FEFF7
:1025500070E040931D0750931E0760931F07709310
:1025600020078093270721E030E030932407209351
:102570002307109226071092250780932207809345
:1025800028078AE0E8E1F7E0AAEAB6E001900D92B8
:102590008A95E1F78AE0E8E1F7E0A2EDB6E0019084
:1025A0000D928A95E1F78AE0E8E1F7E0ACEDB6E05C
:1025B00001900D928A95E1F78AE0E8E1F7E0A4EB5B
:1025C000B6E001900D928A95E1F78AE0E8E1F7E044
:1025D000ACE8B6E001900D928A95E1F78AE0E8E177
:1025E000F7E0A0EFB6E001900D928A95E1F78AE05E
:1025F000E8E1F7E0AAEFB6E001900D928A95E1F7E5
:102600008AE0E8E1F7E0A8ECB6E001900D928A9547
:10261000E1F78AE0E8E1F7E0A4E0B7E001900D928D
:102620008A95E1F78AE0E8E1F7E0A6EEB6E00190EE
:102630000D928A95E1F78AE0E8E1F7E0AEEBB6E0CB
:1026400001900D928A95E1F78AE0E8E1F7E0A6E9CA
:10265000B6E001900D928A95E1F78AE0E8E1F7E0B3
:10266000A0EAB6E001900D928A95E1F78AE0E8E1F0
:10267000F7E0AEE0B7E001900D928A95E1F786E0D1
:1026800080938B060E94BF0881E080932707809388
:102690002207E0919A0CF0919B0C309729F08487E7
:1026A0000480F581E02DF9CF18E2412E512C612CE8
:1026B000712C9E012F5F3F4F1901809155078111A9
:1026C0000FC08DE497E00E940005409251075092A0
:1026D0005207609253077092540781E08093550728
:1026E0008DE497E00E9425098823D9F084E20E94B6
:1026F000EA0220914C07422F50E08417950741F0E1
:1027000011E0212720934C070E940B0510932C0702
:1027100082E20E94EA0221E0892B09F420E0209362
:102720002B078091F608811113C08EEE98E00E946D
:10273000000584E690E0A0E0B0E08093F20890937A
:10274000F308A093F408B093F50881E08093F608AD
:102750008EEE98E00E942509882309F476C08091C6
:10276000290790912A070A9709F06FC080912C07DA
:10277000882309F46AC09091220781E08927809319
:102780002207811130C00E94BF0811E08091690DBD
:10279000882309F458C080916507811112C08DE526
:1027A00097E00E9400052EE130E040E050E02093E9
:1027B0006107309362074093630750936407109357
:1027C00065078DE597E00E942509882329F080E0C0
:1027D0000E943F0A0E944F096AE070E084E690E0A0
:1027E0000E943F08D3CF11E09091690D80911807A6
:1027F000981731F18091750781110EC08DE697E031
:102800000E94000540927107509272076092730710
:1028100070927407109375078DE697E00E94250962
:10282000882339F0809118070E943F0A8091690D32
:1028300084DA64E670E08AE090E00E943F08D4CF3A
:1028400081E08093270710922C07809185078111E2
:102850000FC08DE797E00E940005409281075092DB
:102860008207609283077092840781E080938507D6
:102870008DE797E00E942509882309F4B9C180916A
:102880002C078823B1F18091290790912A07069798
:1028900081F50E945D0780912207811102C00E948C
:1028A00033088091230790912407019751F482E027
:1028B00090E090932407809323078AE0E4E0F7E018
:1028C00009C081E090E090932407809323078AE079
:1028D000E8ECF6E0A8E1B7E001900D928A95E1F707
:1028E00081E08093270710922C078093890610922D
:1028F0008A0680912C07882331F1809129079091D5
:102900002A07049701F50E945D0780912207811133
:1029100002C00E9433088EE090E0909324078093D9
:1029200023078AE0EEE0F7E0A8E1B7E001900D921E
:102930008A95E1F781E08093270710922C07809316
:10294000890610928A0680912C07882309F449C0D1
:102950008091290790912A07089709F042C00E94A8
:102960005D0780912207811102C00E943308809187
:102970002307909124078430910579F085309105E3
:10298000B1F00397A1F484E090E090932407809342
:1029900023078AE0E0EAF6E013C085E090E0909338
:1029A0002407809323078AE0EAEAF6E009C083E07F
:1029B00090E090932407809323078AE0E6E9F6E00D
:1029C000A8E1B7E001900D928A95E1F781E080934C
:1029D00027078093280710922C078093890610926E
:1029E0008A0680912C078823C1F180912907909154
:1029F0002A07059791F50E945D07809122078111B2
:102A000002C00E9433088091230790912407069703
:102A100051F487E090E090932407809323078AE0A5
:102A2000EEEBF6E009C086E090E0909324078093F7
:102A300023078AE0E4EBF6E0A8E1B7E001900D920D
:102A40008A95E1F781E08093270780932807109209
:102A50002C078093890610928A0680912C07882380
:102A600009F444C08091290790912A070297F1F553
:102A70000E945D0780912207811102C00E943308E5
:102A800080912307909124078830910559F0099788
:102A900099F48AE090E09093240780932307E6EE70
:102AA000F6E013C089E090E0909324078093230719
:102AB0008AE0ECEDF6E009C088E090E0909324070E
:102AC000809323078AE0E2EDF6E0A8E1B7E0019009
:102AD0000D928A95E1F781E080932707809328077C
:102AE00010922C078093890610928A0680912C07F9
:102AF000882309F443C08091290790912A070797FA
:102B0000E9F50E945D0780912207811102C00E94B1
:102B1000330880912307909124078B30910561F051
:102B20000C97A1F48DE090E0909324078093230705
:102B30008AE0EAEFF6E013C08CE090E0909324077F
:102B4000809323078AE0E0EFF6E009C08BE090E095
:102B500090932407809323078AE0ECE8F6E0A8E14D
:102B6000B7E001900D928A95E1F781E08093270705
:102B700010922C078093890610928A0680912C0768
:102B80008823B1F18091290790912A07099781F54F
:102B90000E945D0781E090E09093240780932307D3
:102BA0008AE0E8ECF6E0A8E1B7E001900D928A95A2
:102BB000E1F78FEF8093180781E0809327072FEFCD
:102BC0003FEF4FEF50E020931D0730931E074093D7
:102BD0001F075093200790912207911102C0809304
:102BE000220710922C0781E08093890610928A06B2
:102BF00080912207882311F40C94961F8091E60897
:102C0000811113C08EED98E00E94000585E390E0ED
:102C1000A0E0B0E08093E2089093E308A093E4087A
:102C2000B093E50881E08093E6088EED98E00E947D
:102C30002509882309F44EC080912C07811104C016
:102C400080912B07882301F18091290790912A0711
:102C50000D97D1F48091230790912407019749F0B3
:102C600080911A07823010F481E001C08150809376
:102C70001A0710922C0781E080932707809389061A
:102C800080911A0780938A0680912C07811104C0D5
:102C900080912B078823F1F08091290790912A07D2
:102CA0000F97C1F48091230790912407019739F081
:102CB00080911A078F3F19F08F5F80931A07109247
:102CC0002C0781E0809327078093890680911A075B
:102CD00080938A068091D608811113C08EEC98E00B
:102CE0000E94000582E390E0A0E0B0E08093D2086B
:102CF0009093D308A093D408B093D50881E0809333
:102D0000D6088EEC98E00E9425098823E9F180918D
:102D1000290790912A07009791F480912C07882326
:102D200099F180911B0790911C07039769F5809199
:102D30002107843010F0815015C082E013C0449701
:102D400019F580912C078823F9F080911B07909149
:102D50001C070397C9F480912107893110F48F5F14
:102D600001C089E18093210781E0809327071092B9
:102D70002C078093890680912107880F982F990F3F
:102D8000990F890F80938A068091C608811113C01C
:102D90008EEB98E00E94000585E690E0A0E0B0E0B0
:102DA0008093C2089093C308A093C408B093C50849
:102DB00081E08093C6088EEB98E00E942509882365
:102DC00099F180912C07882379F1809129079091BE
:102DD0002A070C9749F580911B0790911C078130B9
:102DE000910571F02CF4892B91F481E090E00AC0F8
:102DF0008230910561F0039751F482E090E002C0C7
:102E000083E090E090931C0780931B0704C010920E
:102E10001C0710921B0710922C0781E08093270754
:102E20008093890610928A068091B608811113C09A
:102E30008EEA98E00E94000583E390E0A0E0B0E015
:102E40008093B2089093B308A093B408B093B508E8
:102E500081E08093B6088EEA98E00E9425098823D5
:102E600009F44FC08091290790912A07803191057C
:102E700021F580912C0790912B07811103C0992394
:102E800009F43FC080911907992331F0853110F082
:102E90008A5005C08AE003C08031E0F385508093FA
:102EA000190781E08093270780938906809119078D
:102EB00080938A0610922C0724C0429711F58091C6
:102EC0002C0790912B07811102C09923D1F080919A
:102ED0001907992331F0863F10F4865F05C08FEF04
:102EE00003C0803FE0F78B5F8093190781E08093F8
:102EF000270710922C0780938906809119078093E9
:102F00008A0680912307909124072091250730910C
:102F100026078217930739F0909326078093250799
:102F200021E0209327079C012150310922303105EF
:102F3000B0F420912707222309F40DC180911D07C9
:102F400090911E0720911F0729839A838B83A101EB
:102F500063E271E081E399E00E94EA0473C488307F
:102F6000910509F098C020912707222309F42FC466
:102F700020912807222309F42AC40E94730328EE13
:102F800033E040E050E00E942120CA01B9012FE067
:102F900030E040E050E00E9421209091020296171C
:102FA000A1F060930202653059F028F461110DC060
:102FB000109201020AC06A3029F06F3019F005C082
:102FC00083E001C081E0809301028091B707811105
:102FD0000FC08FEA97E00E9400054092B30750921D
:102FE000B4076092B5077092B60781E08093B70787
:102FF0008FEA97E00E942509882309F4C4C2109142
:103000001A07012F06950E9473039B01AC0160E033
:1030100078E785E090E0D3D7892F0E94920A110FBC
:10302000101B382F319F312D1124832F800F809555
:103030000E94A70F83E291E00E94B40A7C010091F4
:10304000AD071091AE078EEF91E00E94B40A800F99
:10305000911F969587959695879589AB8FEF8AAB4B
:103060008BABB101CE01C1960E94C903C701880F85
:10307000991F8E0D9F1DB1018F5C964F0E940D0907
:1030800080910102080F111D87FD1A951093AE075C
:103090000093AD0778C28330910509F05CC02091A0
:1030A0002707222309F493C320912807222309F438
:1030B0008EC38091C90781110FC081EC97E00E94F7
:1030C00000054092C5075092C6076092C7077092EC
:1030D000C80781E08093C90781EC97E00E94250929
:1030E000882309F450C290911907009103020983C3
:1030F0009A838FEF8B831091C00719AB9AAB8BAB80
:10310000B101CE01C1960E94051080911A07813845
:1031100078F090E0805891096AE070E07FD71F5FF7
:10312000160F1093C0070F5F600F609303022BC24E
:103130009091BF07981748F481E88093BF071F5FFD
:103140001093C0070F5F009303028091BF07815067
:103150008093BF0718C28430910509F091C0209177
:103160002707222309F433C320912807222309F4D7
:103170002EC38091DB0781110FC083ED97E00E9481
:1031800000054092D7075092D8076092D9077092F5
:10319000DA0781E08093DB0783ED97E00E94250941
:1031A000882309F4F0C19091190710910402198342
:1031B0009A838FEF8B830091D20709AB9AAB8BABCD
:1031C000B101CE01C1960E94051020911A07213845
:1031D000A0F130E0C9018B549109FAE0EF2EF12CF7
:1031E000B7011CD7FB013196C90180589109B7017D
:1031F00015D76F5F7F4FAF0185E090E00E94E40D2F
:10320000800F8093D20720911A0730E0C9018B54B8
:103210009109B70103D7FB013196C9018058910983
:10322000B701FCD66F5F7F4FAF0185E090E00E9451
:10323000E40D810F80930402A6C18091D10782170B
:10324000C8F481E88093D10744E050E061E070E089
:1032500083E090E00E94E40D800F8093D20744E069
:1032600050E061E070E083E090E00E94E40D810FA7
:10327000809304028091D10781508093D10783C14C
:103280008530910509F072C020912707222309F4A7
:103290009EC220912807222309F499C28091270811
:1032A000811113C08FE198E00E94000580E991E050
:1032B000A0E0B0E08093230890932408A093250811
:1032C000B093260881E0809327088FE198E00E9460
:1032D0002509882309F4F5C480911708811103C0DA
:1032E00081E08093170828E031E080E090E0F90168
:1032F0004591559165917491FC01E951F84F6083B6
:10330000518342832C5F3F4F03968033910579F7B9
:1033100081E090E09093E6078093E5078091E407D1
:103320008F5F8093E407E12CF12C01E010E02FEF98
:103330004091E30767EE77E0C1010E947804F7014E
:10334000EF5CF64F898180838A8181838B818283C0
:103350008091E3078F5F8093E30743E0E40EF11C65
:1033600059E6E51653E0F50601F7ABC48630910542
:1033700009F05CC020912707222309F428C220917C
:103380002807222309F423C28091380881110FC035
:1033900080E398E00E94000540923408509235087E
:1033A000609236087092370881E08093380880E395
:1033B00098E00E942509882309F4E5C09091190737
:1033C0000091060209839A838FEF8B8310912F0857
:1033D00019AB9AAB8BABB101CE01C1960E9405101F
:1033E00080911A07813878F090E0805891096AE05E
:1033F00070E014D61F5F160F10932F080F5F600F39
:1034000060930602C0C090910502981748F481E8C5
:10341000809305021F5F10932F080F5F0093060231
:1034200080910502815080930502ADC087309105DF
:1034300009F0ADC020912707222309F4C8C12091CB
:103440002807222309F4C3C180914C0881110FC0C1
:1034500084E498E00E940005409248085092490890
:1034600060924A0870924B0881E080934C0884E493
:1034700098E00E942509882309F485C080911A07E5
:10348000813870F06091430821E0260F90E0805869
:1034900091096AE070E0C2D5620F6093430811C0E1
:1034A00090910702981740F481E880930702809179
:1034B00043088F5F80934308809107028150809377
:1034C00007024091420880914008909141084230A3
:1034D000A1F038F4442371F0413039F589831A8220
:1034E00012C0443091F068F04530F9F419821A8224
:1034F0008B8313C089831A8202C019828A831B823C
:1035000007C019828A831B8208C019821A828B83A2
:1035100020914308820F911D04C020914308821B13
:103520009109909341088093400820914008309180
:1035300041082F3F310559F054F02FEF30E0309320
:1035400041082093400881E0840F809342088091D5
:1035500040089091410897FF09C0109241081092CD
:103560004008809142088F5F809342088091420812
:10357000863010F010924208A10163E271E081E30D
:1035800099E00E94EA0481E0809327079AC389307A
:10359000910509F087C020912707222309F417C15C
:1035A00020912807222309F412C10E94730328EEF8
:1035B00033E040E050E045D5CA01B9012FE030E0EA
:1035C00040E050E03ED590910A029617B9F0609322
:1035D0000A02653069F028F4611110C082E390E0BE
:1035E00009C06A3029F06F3049F48AEA90E002C0DD
:1035F0008FEF90E0909309028093080280915C081D
:1036000081110FC084E598E00E940005409258089F
:103610005092590860925A0870925B0881E080933A
:103620005C0884E598E00E942509882309F4ABCF63
:1036300010911A07012F06950E9473039B01AC019C
:1036400060E078E785E090E0BAD4892F0E94920A82
:10365000110F101B282F219F212D1124822F800F45
:1036600080950E94A70F83E291E00E94B40A8C012A
:10367000F09008028FEF90E00E94B40A89ABFAAA9A
:103680008FEF8BABB101CE01C1960E94C903C80177
:10369000880F991F800F911FB1018F5C964F0E9478
:1036A0000D0971CF8A30910509F091C0209127074B
:1036B000222309F48CC020912807222309F487C013
:1036C000109194081C3008F056C0812F8D7F912FE7
:1036D000997F11F0883019F580918C08811113C001
:1036E00084E898E00E94000582E390E0A0E0B0E06A
:1036F0008093880890938908A0938A08B0938B08D8
:1037000081E080938C0884E898E00E942509882352
:1037100009F4D7C28FEF89838A838B8321C080917C
:103720007C08811113C084E798E00E94000582E3C1
:1037300090E0A0E0B0E08093780890937908A0939F
:103740007A08B0937B0881E080937C0884E798E056
:103750000E942509882309F4B4C219821A821B82A7
:10376000A10163E271E081E399E00E94EA041F5F36
:1037700010939408A6C280916C08811113C084E64E
:1037800098E00E94000582E390E0A0E0B0E0809322
:10379000680890936908A0936A08B0936B0881E069
:1037A00080936C0884E698E00E942509882309F438
:1037B00088C28FEF90E00E94B40A810F893C18F014
:1037C000109294087EC28FE0809394087AC29C0184
:1037D0002B50310923303105C0F58091270788230C
:1037E00009F46FC28091190790911A0799AB8AABBF
:1037F0008FEF8BABB101CE01C1960E94C903A1012D
:1038000063E271E081E399E00E94EA048CE892E0CF
:103810000E94480E60911A0770E080E090E04AE054
:103820000E94C50F82EA92E00E94480E609119073B
:1038300070E080E090E04AE00E94C50F85EA92E0E7
:103840000E94480E109227073CC20E9709F039C219
:1038500080912707882309F434C2809128078823A0
:1038600009F42FC28091A608811103C081E08093E2
:10387000A60800E809AB0AAB0BAB0CAB0DAB0EAB6B
:103880001FEF1FAB18AF19AE1AAF1BAF1CAE1DAFA9
:1038900065EAF62EFEAE1FAE21961FAF2197229647
:1038A000FFAE229723961FAE239724961FAF24972F
:1038B0002596FFAE259726961FAE269727961FAF13
:1038C00027977CE8E72E2896EFAE289729961FAE1B
:1038D00029972A961FAF2A972B961FAE2B972C96C7
:1038E0001FAE2C972D961FAF2D972E961FAE2E979D
:1038F0002F961FAE2F9760961FAF609761961FAEF1
:10390000619762961FAE629766961FAE669767963E
:103910001FAF679788E068968FAF6897BE016E5AB1
:103920007F4FCE018B5A9F4F0E94C9036C961FAEEA
:103930006C976D961FAF6D9784E06E968FAF6E9704
:10394000BE01685A7F4FCE01855A9F4F0E94C9031E
:103950006F961FAE6F97A0961FAEA097A1961FAE51
:10396000A197A2961FAEA297A3961FAEA397A49667
:103970001FAEA497A5961FAEA597A6961FAEA697B5
:10398000A7961FAEA79719821A821B821C821D82DE
:103990001E821F821886198669968FAD69978A875D
:1039A0006A968FAD6A978B876B968FAD6B978C8776
:1039B00063968FAD63978D8764968FAD64978E877E
:1039C00065968FAD65978F87188B198A1A8A1B8B1E
:1039D0001C8A1D8A1E8B1F8A188E198FEA8E1B8ED9
:1039E0001C8FFD8E1E8E1F8FF8A219A21AA3FBA298
:1039F0001CA21DA31EA31FA218A719A71AA60BA7D6
:103A00000CA70DA70EA70FA708AB3CE923163CE0B7
:103A1000330629F020F0C1010E948A0E14C09E01D5
:103A20002F5C3F4F80E390E04CEC5CE0F901DA0161
:103A300080FF05C002C002900E9202900E9282504A
:103A4000D0F79040C0F780919E0881110FC086E9A1
:103A500098E00E94000540929A0850929B0860925C
:103A60009C0870929D0881E080939E0886E998E00A
:103A70000E942509882309F486CD53E3C52E59E019
:103A8000D52E812C912CE12CF12CA12CB12C0E9453
:103A900073039B01AC01A3E2B1E02ED32FEF30E022
:103AA00040E050E0CED26F2D7727032F1127FB0186
:103AB000E85BFE4FE491E00F8E2F90E0FC01E85BA5
:103AC000FE4FA491FC01E75BFE4FB491FB01E75B65
:103AD000FE4FE491E00F8E2F90E0FC01E85BFE4F7B
:103AE0007491FC01E75BFE4F04918E2D8695A8969C
:103AF0008FAFA897922F9695892F6E2D669F612D77
:103B0000122F129F112D1124A9961FAFA997A896C5
:103B10002FADA8972058E72FF0E0E85BFE4FE49127
:103B2000E2FD03C0792F322F02C0722F392FE0FD42
:103B30003195E1FD719575953595371FEA2FF0E0C8
:103B4000E85BFE4FE491E2FD05C0192FA8968FAD0A
:103B5000A89703C0A8961FADA897E0FD8195E1FD49
:103B60001195782F15957595711F73173CF4371BB8
:103B7000369F312D1124832F870F08C0472F431BF9
:103B8000342F369F312D1124872F831B9058E02F1F
:103B9000F0E0E85BFE4FE491E2FD03C0322F292FF5
:103BA00001C0392FE0FD3195E1FD21952595359531
:103BB000321FEB2FF0E0E85BFE4FE491E2FD07C01F
:103BC000292FA8969FADA897A8962FAFA897E0FD9C
:103BD0009195E1FF07C0A8965FADA8975195A8966B
:103BE0005FAFA897792FA8961FADA89715957595E3
:103BF000711F73173CF4371B369F312D1124932FFF
:103C0000970F07C0272F231B269F212D1124972FA5
:103C1000921B891754F4981B292FA9963FADA99799
:103C2000239F212D1124820F09C0282F291BA9961B
:103C30004FADA997249F212D1124821B25E4280F25
:103C40005DEE259F212D1124322F330F30939508DF
:103C5000C40163E271E0E2D1262F3A9DA0013B9DB1
:103C6000500D112486E0559547958A95E1F74F3F11
:103C7000510519F014F04FEF50E001E010E06CE94D
:103C80007CE0C1010E947804F6013297898180832B
:103C900031968A8180838B81D6018C93BFEFAB1ADA
:103CA000BB0AE5E0EE0EF11CFFEF8F0E911C13E056
:103CB000C10ED11C23E2A21621E0B20609F0E7CE24
:103CC00062CC8091A507811113C08DE997E00E9415
:103CD000000582E390E0A0E0B0E08093A10790931C
:103CE000A207A093A307B093A40781E08093A50740
:103CF0008DE997E00E942509882309F441C080914D
:103D0000290790912A0781319105B1F480912C0700
:103D100090912B07811102C0992391F1809118078E
:103D2000992331F08B3010F08A501DC085E01BC004
:103D30008630E0F3855017C00B9711F580912C0762
:103D400090912B07811102C09923D1F0809118071F
:103D5000992331F0863F10F4865F05C08FEF03C0D2
:103D6000803FE0F78B5F8093180781E080932707FF
:103D700010922C07809389068091180780938A06F9
:103D8000809118070E943F0A80919507811113C006
:103D90008DE897E00E94000586E390E0A0E0B0E0A7
:103DA0008093910790939207A0939307B093940701
:103DB00081E0809395078DE897E00E94250988238C
:103DC00009F4ADC080912C07882309F4A8C0809124
:103DD0002B078111A4C08091290790912A070E9783
:103DE00009F09DC0809123079091240701970297C5
:103DF00008F08AC080911D0790911E07A0911F07AF
:103E0000B09120078A3A36ED93073FEFA307B1053B
:103E100009F45BC034F5893253E995075FEFA507D4
:103E2000B10509F440C05CF48F3F924EA94CB10536
:103E300009F05AC08FEF9CE9A0E4B0E03DC08C359A
:103E40001CEA91071FEFA107B10591F18F38954C3E
:103E5000AF4FB10509F048C08AEA96EDAFEFB0E088
:103E60002BC0843F3AEF93073FEFA307B10591F1D1
:103E700054F4803E914FAF4FB105B1F584EF9AEF06
:103E8000AFEFB0E019C08B3FEFEF9E07AE07B10573
:103E900031F18F3F9F4FAF4FB10531F58FEF92EE6C
:103EA000A9ECB0E009C08CE59CEAAFEFB0E004C03B
:103EB0008FE895ECAFEFB0E080931D0790931E075D
:103EC000A0931F07B09320071BC020EE31EF4FEFE8
:103ED00050E00EC08BEF9FEFAFEFB0E0EDCF2FEFD4
:103EE0003FEF4FEF50E004C029E233E94FEF50E0DD
:103EF00020931D0730931E0740931F075093200700
:103F000081E08093270706C09091280781E08927E8
:103F10008093280710922C0781E0809389060E94E5
:103F20004F0968EB7BE08AE090E004C062E070E05B
:103F300088EB9BE00E943F080E948E100C945D135A
:103F400088EA92E00E94590E0C946412ECECFCE0BA
:103F50001382128288EE93E0A0E0B0E08483958320
:103F6000A683B78386E592E09183808385EC90E019
:103F70009587848784EC90E09787868780EC90E033
:103F8000918B808B81EC90E0938B828B82EC90E024
:103F9000958B848B86EC90E0978B868B118E128E9E
:103FA000138E148EE9E6FDE08FEF8083128211827A
:103FB00084E690E09093710D8093700D0895DB017D
:103FC0008F939F9399D0BF91AF91A29F800D911D28
:103FD000A39F900DB29F900D11240895991B79E035
:103FE00004C0991F961708F0961B881F7A95C9F789
:103FF00080950895AA1BBB1B51E107C0AA1FBB1FD8
:10400000A617B70710F0A61BB70B881F991F5A9564
:10401000A9F780959095BC01CD01089597FB072ED7
:1040200016F4009406D077FD08D0E4DF07FC05D035
:104030003EF4909581959F4F0895709561957F4FBF
:104040000895A1E21A2EAA1BBB1BFD010DC0AA1FD9
:10405000BB1FEE1FFF1FA217B307E407F50720F0F1
:10406000A21BB30BE40BF50B661F771F881F991F6C
:104070001A9469F760957095809590959B01AC01B5
:10408000BD01CF010895052E97FB16F400940FD0C3
:1040900057FD05D0D6DF07FC02D046F408C0509586
:1040A0004095309521953F4F4F4F5F4F0895909524
:1040B0008095709561957F4F8F4F9F4F0895EE0FBC
:1040C000FF1F881F8BBF0790F691E02D1994A29FC8
:1040D000B001B39FC001A39F700D811D1124911DDC
:1040E000B29F700D811D1124911D0895F0DFB7FF5F
:1040F0000895821B930B0895EADFA59F900DB49F4E
:10410000900DA49F800D911D1124089581E090E0F1
:10411000F89426C0DC01CB01FC01F999FECF06C062
:10412000F2BDE1BDF89A319600B40D924150504075
:10413000B8F70895F999FECF92BD81BDF89A9927F5
:1041400080B50895262FF999FECF1FBA92BD81BD83
:1041500020BD0FB6F894FA9AF99A0FBE0196089509
:04416000F894FFCF01
:104164000103639696800F80FF0063390500020007
:10417400000000640264026402640257020000004A
:104184000084027E02550266025202003131295A2D
:104194001B750A00003100F9183000FB302C001C9C
:1041A400472600825A1F006D6A170041760E008967
:1041B4007D0400000000F90AC710ED0ACB0ADF0AEB
:1041C4003F0B417474656D707420746F207772694D
:1041D4007465206F757473696465206F6620454546
:1041E40050524F4D206D656D6F727900436F6C6F47
:1041F4007220616E642053617475726174696F6EAC
:104204003A002020000D0A0043616E6E6F74206333
:1042140068616E6765206365696C696E672C2062EE
:10422400656C6F772069737375656420616464726B
:104234006573736573004D6F646553656C65637472
:10424400696F6E207C20536176696E672073657494
:1042540074696E677320666F723A004578636565AA
:10426400646564206D6178696D756D206E756D622D
:0E4274006572206F66207772697465730000B2
:00000001FF
