:1000000004C100002FC100002DC100002BC1000061
:1000100029C1000027C1000025C1000023C1000044
:1000200021C100001FC100001DC100001BC1000054
:1000300019C1000017C1000015C1000013C1000064
:1000400011C100000FC100000DC100000BC1000074
:1000500009C1000007C1000005C100000C94711126
:1000600001C100000C9464130C94A814FBC00000A0
:10007000F9C00000F7C00000F5C00000F3C00000A8
:10008000F1C00000EFC00000EDC00000EBC00000B8
:100090000C94A4130C94E714E5C00000E3C0000026
:1000A000E1C00000DFC00000DDC00000DBC00000D8
:1000B000D9C00000D7C00000D5C00000D3C00000E8
:1000C000D1C00000CFC00000CDC000000C94E413EC
:1000D0000C942615C7C000000C9424140C946515CC
:1000E000C1C0000000002100240027002A002D00CC
:1000F0003000330001010000040107010A01000083
:100100002200250028002B002E00310034000201BF
:100110000000050108010B0100002000230026005B
:1001200029002C002F00320000010000030106010D
:10013000090105050505070508080808020202026D
:100140000A0A080804040404010101010101010173
:100150000303030303030303040707070C0C0C0C3E
:100160000C0C0C0C02020202060606060606060627
:100170000B0B0B0B0B0B0B0B0102102020080810B4
:100180002040102040800201020108040201010207
:1001900004081020408080402010080402018004E0
:1001A000020180402010080402010804020101023B
:1001B0000408102040800102040810204080000044
:1001C000090A02080B0C0D070603040100000000D9
:1001D000000000000000000000000000000000001F
:1001E0000000000000000000000011100F000000DF
:1001F00000000000000000000000000000000000FF
:10020000000000007001870FD41611241FBECFEF2D
:10021000D1E2DEBFCDBF00E00CBF14E0A0E0B2E051
:10022000ECE5F7E300E00BBF02C007900D92A039A8
:10023000B107D9F71BBE1BE0A0E9B4E001C01D92D5
:10024000A838B107E1F712E0CAE0D2E004C0229773
:10025000FE010E94A81BC430D107C9F70E940A18EA
:100260000C94AC1BCDCE229A089580E991E00895BC
:100270001F93CF93DF93382F492F8091A8088F5F6A
:1002800087708093A80880FD02C020E001C020E8AC
:1002900081FD206482FD2062122F105F832F942F36
:1002A0009C01F901C0E0D0E06285662331F080E076
:1002B00091E070E00E94561B6F5F6783212F269F9D
:1002C000212D11242483662311F061506783219628
:1002D0003196C330D10541F7DF91CF911F91089539
:1002E0000895CF93DF9386E10E943413892B01F5A3
:1002F00088E10E943413892BD9F48AE10E943413D7
:10030000892BB1F48CE10E943413892B89F48EE19E
:100310000E943413892B61F48AE090E090931508D1
:100320008093140887EE9AE060E072E00E9428193A
:1003300086E10E943413892BD1F488E10E943413A2
:10034000892BA9F48AE10E943413892B81F48CE172
:100350000E943413892B59F48EE10E9434130197C3
:1003600031F48BE090E0909315088093140886E1B7
:100370000E943413892BD1F488E10E943413892B15
:10038000A9F48AE10E943413892B81F48CE10E9444
:100390003413019759F48EE10E943413892B31F400
:1003A0008CE090E0909315088093140886E10E94F9
:1003B0003413892BD1F488E10E943413892BA9F4DA
:1003C0008AE10E943413892B81F48CE10E9434135A
:1003D000019759F48EE10E943413019731F48DE0B6
:1003E00090E0909315088093140886E10E943413DE
:1003F000892BD1F488E10E943413892BA9F48AE176
:100400000E943413019781F48CE10E943413892BEC
:1004100059F48EE10E943413892B31F48EE090E080
:10042000909315088093140886E10E943413892B59
:10043000D1F488E10E943413892BA9F48AE10E9447
:100440003413019781F48CE10E943413892B59F401
:100450008EE10E943413019731F48FE090E0909385
:1004600015088093140886E10E943413892BD1F477
:1004700088E10E943413892BA9F48AE10E94341385
:10048000019781F48CE10E943413019759F48EE1B5
:100490000E943413892B31F480E190E09093150889
:1004A0008093140886E10E943413892BD1F488E1EB
:1004B0000E943413892BA9F48AE10E943413019716
:1004C00081F48CE10E943413019759F48EE10E946B
:1004D0003413019731F481E190E0909315088093F3
:1004E000140886E10E943413892BD1F488E10E941C
:1004F00034130197A9F48AE10E943413892B81F403
:100500008CE10E943413892B59F48EE10E9434133C
:10051000892B31F482E190E09093150880931408C0
:1005200086E10E943413892BC1F488E10E943413C0
:10053000019799F48AE10E943413892B71F48CE1BC
:100540000E943413892B49F48EE10E9434130197E1
:1005500021F4109215081092140886E10E943413B9
:10056000892BD1F488E10E9434130197A9F48AE120
:100570000E943413892B81F48CE10E94341301977B
:1005800059F48EE10E943413892B31F483E190E019
:10059000909315088093140886E10E943413892BE8
:1005A000D1F488E10E9434130197A9F48AE10E94F2
:1005B0003413892B81F48CE10E943413019759F490
:1005C0008EE10E943413019731F484E190E090931E
:1005D00015088093140886E10E943413892BD1F406
:1005E00088E10E9434130197A9F48AE10E94341330
:1005F000EC018130910571F48CE10E943413892B58
:1006000049F48EE10E943413892B21F4D09315080C
:10061000C093140886E10E943413892BD1F488E139
:100620000E9434130197A9F48AE10E9434130197C0
:1006300081F48CE10E943413892B59F48EE10E94DD
:100640003413019731F482E090E090931508809381
:10065000140886E10E943413892BD1F488E10E94AA
:1006600034130197A9F48AE10E943413019781F4AD
:100670008CE10E943413019759F48EE10E943413E7
:10068000892B31F483E090E090931508809314084F
:1006900086E10E943413892BD1F488E10E9434133F
:1006A0000197A9F48AE10E943413019781F48CE147
:1006B0000E943413019759F48EE10E94341301977C
:1006C00031F484E090E0909315088093140886E15B
:1006D0000E9434130197D1F488E10E943413892BCE
:1006E000A9F48AE10E943413892B81F48CE10E94E1
:1006F0003413892B59F48EE10E943413892B31F481
:1007000085E090E0909315088093140886E10E949C
:1007100034130197D1F488E10E943413892BA9F492
:100720008AE10E943413892B81F48CE10E943413F6
:10073000892B59F48EE10E943413019731F486E03D
:1007400090E0909315088093140886E10E9434137A
:100750000197D1F488E10E943413892BA9F48AE12E
:100760000E943413892B81F48CE10E943413019789
:1007700059F48EE10E943413892B31F487E090E024
:10078000909315088093140886E10E943413019712
:10079000D1F488E10E943413892BA9F48AE10E94E4
:1007A0003413892B81F48CE10E943413019759F49E
:1007B0008EE10E943413019731F488E090E0909329
:1007C00015088093140886E10E9434130197D1F430
:1007D00088E10E943413892BA9F48AE10E94341322
:1007E000019781F48CE10E943413892B59F48EE136
:1007F0000E943413892B31F489E090E0909315081E
:1008000080931408DF91CF91089587EE9AE066E017
:1008100072E00E94281981E080932A0880912D08B7
:1008200090912E0890932C0880932B0808951F9385
:10083000CF93DF93EC010E94B91110E02881398138
:100840004A815B81621B730B840B950B2C813D816C
:100850004E815F81621773078407950738F011E0B6
:100860000E94B911688379838A839B83812FDF91EA
:10087000CF911F9108951F9380911808882301F547
:1008800088E198E00E941718892BD1F00E94B911D5
:100890006093210870932208809323089093240882
:1008A00082E390E0A0E0B0E08093250890932608D2
:1008B000A0932708B093280888E198E00E942118A7
:1008C00081E298E0B4DF882311F184E20E943413BE
:1008D0002091200830E08217930779F087EE9AE0A4
:1008E00069E272E00E9428198091200811E08127B6
:1008F00080932008F6DC1093170882E20E943413DC
:1009000010921608892B19F081E0809316081F9128
:10091000089580913208882301F582E398E00E94CF
:100920001718892BD1F00E94B91160933A0870937F
:100930003B0880933C0890933D0881E390E0A0E061
:10094000B0E080933E0890933F08A0934008B09396
:10095000410882E398E00E9421188AE398E067DF6B
:10096000882309F47BC0809117088823D1F18091F6
:100970001408909115080C97A1F580912A088823F6
:1009800011F443DF2EC080912B0890912C08813008
:10099000910569F00397B1F481E090E090932C0801
:1009A00080932B0887EE9AE06FE472E015C082E036
:1009B00090E090932C0880932B0887EE9AE06DE7E7
:1009C00072E00AC083E090E090932C0880932B089B
:1009D00087EE9AE06CEA72E00E94281981E0809329
:1009E0003108809117088823D9F0809114089091DC
:1009F00015080897A9F480912A08882311F405DFC7
:100A00000FC084E090E090932C0880932B0887EE31
:100A10009AE069ED72E00E94281981E08093310824
:100A2000809117088823D1F08091140890911508BF
:100A30000997A1F483E090E090932C0880932B0811
:100A40008FEF809329081092300810922F08809120
:100A50002A08882319F481E080932A0808951F93B7
:100A6000182F80918708882301F587E898E00E9475
:100A70001718892BD1F00E94B91160938F087093D9
:100A8000900880939108909392088FE090E0A0E006
:100A9000B0E08093930890939408A0939508B09346
:100AA000960887E898E00E9421188FE898E0BFDE5A
:100AB000882309F440C03091A908832F90E0811B5E
:100AC00091098B3091052CF42FEF863F92078CF51E
:100AD00003C08531910534F422E04FEF8C3E94073A
:100AE0002CF403C08F31910534F424E04FEF823EA3
:100AF00094072CF403C08932910534F428E04FEFB9
:100B0000883D94072CF403C08734910524F420E138
:100B10008A5B9F4F0CF420E2311718F4320F3093A8
:100B2000A9088091A908181730F4821B8093A9089E
:100B300002C021E0D2CF1F910895809142088823FE
:100B400001F582E498E00E941718892BD1F00E94E9
:100B5000B91160934A0870934B0880934C089093A6
:100B60004D0882E390E0A0E0B0E080934E089093BF
:100B70004F08A0935008B093510882E498E00E9477
:100B800021188AE498E053DE882309F4EDC08091AF
:100B90002B0890912C088330910531F0813091051C
:100BA00019F0029709F06AC080911708882329F488
:100BB00080911608882309F461C0809114089091EF
:100BC00015080F9709F05AC080913008282F30E09F
:100BD00030936A042093690480912F08882331F4AC
:100BE00021503F4F30936A04209369042091690497
:100BF00030916A0481E02A39380768F48091160838
:100C0000882319F42F5F3F4F02C02D5F3F4F309371
:100C10006A04209369042091690430916A042F3F8B
:100C2000310531F028F010922F08822F8F5F05C018
:100C30008FE780932F08822F80958093300881E082
:100C40008093310887EE9AE066E073E00E942619EF
:100C500087EE9AE060912F084AE050E00E94F91870
:100C600087EE9AE06EE273E00E94261987EE9AE022
:100C7000609130084AE050E00E940A1980912B08E8
:100C800090912C088330910531F08130910519F055
:100C9000029709F069C080911708882329F4809190
:100CA0001608882309F460C08091140890911508F3
:100CB0000D9709F059C080913008282F30E030930B
:100CC0006A042093690480912F08882331F421500D
:100CD0003F4F30936A042093690420916904309156
:100CE0006A042739310568F080911608882319F4C1
:100CF0002150304002C02350304030936A0420938A
:100D000069042091690430916A042F3F310531F064
:100D100028F010922F08822F8F5F05C08FE78093F5
:100D20002F08822F80958093300881E080933108CE
:100D300087EE9AE060E373E00E94261987EE9AE05E
:100D400060912F084AE050E00E94F91887EE9AE07F
:100D50006EE273E00E94261987EE9AE060913008F7
:100D60004AE050E00C940A1908958091140890917B
:100D70001508419709F04AC080911708882329F483
:100D800080911608882309F441C0809116088823B1
:100D900061F080912908863040F08A5080932908BC
:100DA00087EE9AE068E573E010C0809129088630EC
:100DB00040F085508093290887EE9AE06FE573E054
:100DC00004C087EE9AE066E673E00E94261981E08F
:100DD0008093310887EE9AE06DE673E00E94261951
:100DE00087EE9AE0609129084AE050E00E94F918E5
:100DF00087EE9AE06EE273E00E94261987EE9AE091
:100E00006091A9084AE050E00E940A1980911408F4
:100E1000909115080B9709F04AC080911708882314
:100E200029F480911608882309F441C0809116089E
:100E3000882361F0809129088B3F40F4865F80937E
:100E4000290887EE9AE06FE873E010C080912908C6
:100E50008B3F40F48B5F8093290887EE9AE066E928
:100E600073E004C087EE9AE066E673E00E942619FC
:100E700081E08093310887EE9AE06DE973E00E948B
:100E8000261987EE9AE0609129084AE050E00E9416
:100E9000F91887EE9AE06EE273E00E94261987EE59
:100EA0009AE06091A9084AE050E00E940A198091F6
:100EB0002908D5CDEF92FF920F931F93CF93DF9325
:100EC0007C01EB010E94B911209153083091540824
:100ED0004091550850915608621B730B840B950B7B
:100EE00000E010E0E616F70608071907B8F480914D
:100EF0005208882399F40E94B911609353087093A3
:100F0000540880935508909356086091520881E0E8
:100F10006827609352088DE00E9402130E94B91165
:100F2000209153083091540840915508509156082B
:100F3000621B730B840B950B9E0140E050E026175B
:100F4000370748075907B8F480915208882399F069
:100F50000E94B91160935308709354088093550808
:100F6000909356086091520881E068276093520878
:100F70008DE00E940213DF91CF911F910F91FF909E
:100F8000EF9008956F927F928F929F92AF92BF924F
:100F9000CF92DF92EF92FF920F931F93DF93CF9345
:100FA00000D000D0CDB7DEB70E94B91128EE33E0F3
:100FB00040E050E00E94691BCA01B9012AE030E01C
:100FC00040E050E00E94691B80916B048617E1F1BC
:100FD00060936B04653061F06A3091F06623A1F58F
:100FE00012E000EC802E912C612CB1E07B2E33C0FE
:100FF00018E0A0E88A2E912CF0E46F2E712C2BC003
:1010000020916C0430916D0485E098E0289FB00138
:10101000299F700D389F700D1124675E794C709375
:101020006D0460936C0480E090E02FEF30E040E0CE
:1010300050E00E94231BBC01882799274B0111E037
:1010400070E1672E712C07C015E062E3862E912CAB
:10105000612C52E0752E80915708882301F587E5B1
:1010600098E00E941718892BD1F00E94B911609363
:101070005F0870936008809361089093620884E130
:1010800090E0A0E0B0E08093630890936408A093A0
:101090006508B093660887E598E00E9421188FE5FF
:1010A00098E0C5DB882309F466C080E994E06CE22F
:1010B00071E0412F93D680916C0490916D0445E0CE
:1010C000A42E48E0B42E8A9D60018B9DD00C9A9D81
:1010D000D00C112489E196E3C80ED91EB60180E038
:1010E00090E02CE231E040E050E00E94231B7C01C4
:1010F00000271127CA9C9001CB9C300DDA9C300D43
:101100001124275E394C30936D0420936C04B30195
:1011100080E090E040E050E00E94231BBC01882763
:101120009927860E971E9694879496948794898221
:101130008FEF8A838B83CE010196BE016C5F7F4F58
:101140000E94BA103C81F701EE0FFF1FEE0DFF1D4C
:10115000E057FB4F2081230F08F42FEF20833D81C0
:101160002181230F08F42FEF21833E812281230F59
:1011700008F42FEF228326960FB6F894DEBF0FBE39
:10118000CDBFCF91DF911F910F91FF90EF90DF9036
:10119000CF90BF90AF909F908F907F906F90089569
:1011A0002F923F924F925F926F927F928F929F9277
:1011B000AF92BF92CF92DF92EF92FF920F931F9365
:1011C000DF93CF93CDB7DEB729970FB6F894DEBF84
:1011D0000FBECDBF87EE9AE06BEB73E00E9428193B
:1011E00071E0C72ED12C6BE2E62E61E0F62E54E6BC
:1011F000252E47E0442E512C4C0E5D1E3EE7632EFB
:10120000712C24E0822E912C8C0E9D1E33243A9456
:101210005E010894A11CB11C84E6C816D1048CF4AC
:101220009091300880912F08865D89839A833B8254
:10123000B701660F771F6E0D7F1D60577B4FC5018D
:1012400040C08701000F111F8EE7C816D1045CF55E
:10125000B3016C197D09882777FD8095982F0E942E
:10126000341A20E030E040E251E40E949E193091AF
:10127000300820912F08265D2C833D8320E030E04C
:101280004FE753E40E94C01A20E030E048EC52E4FB
:101290000E943A190E94061A6E830E0D1F1D0057F8
:1012A0001B4FC4010DC09091300880912F08865DBE
:1012B0008F83988729860E0D1F1D00571B4FC20173
:1012C000B80158D70894C11CD11C0894E108F10852
:1012D0008DE2C81681E0D80609F09ECF1092310841
:1012E00029960FB6F894DEBF0FBECDBFCF91DF9128
:1012F0001F910F91FF90EF90DF90CF90BF90AF9034
:101300009F908F907F906F905F904F903F902F9025
:1013100008954F925F926F927F928F929F92AF92B9
:10132000BF92CF92DF92EF92FF920F931F93DF93C2
:10133000CF93CDB7DEB729970FB6F894DEBF0FBEB7
:10134000CDBF87EE9AE06CEC73E00E942819EE2482
:10135000FF2404E6402E17E0612E712C6C0E7D1EDA
:10136000BDE78B2E912CA4E0AA2EB12CAC0EBD1E95
:1013700055245A946E010894C11CD11C84E6E816C9
:10138000F1048CF49091300880912F08865D898358
:101390009A835B82B701660F771F6E0D7F1D6057C2
:1013A0007B4FC60140C08701000F111F8DE7E81673
:1013B000F1045CF5B4016E197F09882777FD8095EB
:1013C000982F0E94341A20E030E040E251E40E945D
:1013D0009E193091300820912F08265D2C833D8383
:1013E00020E030E04FE753E40E94C01A20E030E0F4
:1013F00048EC52E40E943A190E94061A6E830E0DC0
:101400001F1D00571B4FC5010DC0909130088091E2
:101410002F08865D8F83988749860E0D1F1D005704
:101420001B4FC301B801A6D60894E11CF11C8CE245
:10143000E81681E0F80609F0A1CF1092310829964C
:101440000FB6F894DEBF0FBECDBFCF91DF911F91D5
:101450000F91FF90EF90DF90CF90BF90AF909F9053
:101460008F907F906F905F904F900895DF92EF92F2
:10147000FF920F931F93DF93CF9300D0CDB7DEB7CA
:1014800087EE9AE06CED73E00E94281900E010E00E
:10149000DD24DA947E010894E11CF11C909130085F
:1014A00080912F08865D89839A83DB82B801660F5D
:1014B000771F600F711F60577B4FC7015BD610927B
:1014C00031080F5F1F4F81E00C32180739F70F907A
:1014D0000F900F90CF91DF911F910F91FF90EF90A0
:1014E000DF90089520912B0830912C0880912D08D1
:1014F00090912E082817390739F030932E08209341
:101500002D0881E0809331082330310529F4809142
:1015100031088823C9F0AACF2130310529F4809100
:101520003108882389F0F5CE2230310529F48091E5
:101530003108882349F034CE2430310529F48091D4
:101540003108882309F01ECD0895EF92FF920F9382
:101550001F939EE1E92EF12C012D112D31C08091B8
:1015600067088823D9F487E698E00E941718892B2A
:10157000A9F0FFD660936F0870937008809371088C
:1015800090937208E0927308F092740800937508C3
:101590001093760887E698E00E9421188FE698E07D
:1015A00046D9882341F08091290859DA89EA98E0E0
:1015B0006091A90801D58AE090E064E670E07ADCE9
:1015C0009091A90880912908981749F687EE9AE02A
:1015D0006BEE73E00E9428191F910F91FF90EF901E
:1015E0000895EF92FF920F931F932EE1E22EF12CBC
:1015F000012D112D30C0809177088823D9F487E719
:1016000098E00E941718892BA9F0B3D660937F0841
:10161000709380088093810890938208E0928308F9
:10162000F0928408009385081093860887E798E075
:101630000E9421188FE798E0FAD8882339F080E0DB
:101640000EDA89EA98E06091A908B6D484E690E0C1
:101650006AE070E02FDC8091A908882361F687EEAC
:101660009AE06AEF73E00E9428191F910F91FF9092
:10167000EF9008951F93FFD8809197088823F9F47D
:1016800087E998E00E941718892BC9F072D66093F9
:101690009F087093A0088093A1089093A20882E30A
:1016A00090E0A0E0B0E08093A3089093A408A093FA
:1016B000A508B093A60887E998E00E9421188FE951
:1016C00098E0B5D8882319F18091140890911508F5
:1016D0000A97E9F4809117088823C9F080912A08B5
:1016E00011E0812780932A08882341F487EE9AE04D
:1016F0006BE074E00E94281974DF09C087EE9AE05D
:101700006EE274E00E94281920DF1093310801D99D
:1017100080912A08882369F0E5DE27DB0EDA89EA62
:1017200098E06091A90848D48AE090E068EB7BE0FB
:1017300004C088EB9BE062E070E0BCDB109217080D
:101740001F910895EF92FF920F931F93CF93DF9312
:10175000EC018B017A0180916F0B882309F04DC059
:101760008FE69BE00E941718892B09F446C010925F
:101770007A0B1092790B8FEF80937D0B80937E0B09
:1017800080937F0B8093800B8093810B8093820BDF
:1017900081E08093830B1092850B1092840B109242
:1017A0007C0B10927B0B8091B0089091B108892B33
:1017B00031F487E79BE09093B1088093B008E09103
:1017C000B208F091B308309721F087E79BE095834A
:1017D000848387E79BE09093B3088093B2081092CC
:1017E000870B1092860B86E794E09093780B80939A
:1017F000770B8FE69BE00E94211887E79BE0BE01F4
:10180000A801970146D3DF91CF911F910F91FF90CF
:10181000EF9008950F931F9380E994E06CE271E0DC
:1018200040E050E08FDF1092A90885E048EC50E0DE
:1018300060E070E03FD507EE1AE0C80140E855E2ED
:1018400060E070E00E94A415C80160E574E00E94A9
:10185000281984E260E023D682E260E020D68EE19F
:1018600060E01DD68CE160E01AD68AE160E017D610
:1018700088E160E014D686E160E011D68DE061E099
:101880000ED682E38093290821E020932A0883E082
:1018900090E090932C0880932B0810922E081092C1
:1018A0002D08209331081F910F9108954F925F9258
:1018B0006F927F929F92AF92BF92CF92DF92EF9200
:1018C000FF920F931F93DF93CF93CDB7DEB72E9781
:1018D0000FB6F894DEBF0FBECDBF2C013A01F9015F
:1018E0001E2DDC011C969C917A8369835C834B835B
:1018F00080818B8781818C8782818D87913029F4CB
:10190000CE0101960E94380106C01A8619861886F3
:101910001F821E821D8289819A81810F911D9A8367
:101920008983002311F480E002C0812F8D5F8E87B0
:101930002ED5F20127853089621B730B6A30710541
:10194000B8F3F89459819A80A5B0F4E0AF2AC5B0F5
:101950008BEFC822C5B8B9848E814B2D481B4E83AE
:10196000DE848B813C811C85FB84ED846D819F81AD
:1019700008857A85E981FA812181222319F0240FD3
:1019800008F42FEF219F212D1124A82FB32FE52F2D
:10199000F92D30E0842F532F432F002CA5B800C021
:1019A00027FFC5B840813327889400C000C0002CB1
:1019B000C5B84111460F00C0002CA5B800C026FFD5
:1019C000C5B808F44FEF889400C000C000C0C5B887
:1019D000F0FC340F00C0002CA5B800C025FFC5B82E
:1019E00037958894F1FC340F00C000C0002CC5B8B6
:1019F0003795889400C0002CA5B800C024FFC5B856
:101A0000F2FC340F3795889400C000C0002CC5B894
:101A1000F3FC340F00C0002CA5B800C023FFC5B8EC
:101A200037958894F4FC340F00C000C0002CC5B872
:101A30003795889400C0002CA5B800C022FFC5B817
:101A4000F5FC340F3795889400C000C0002CC5B851
:101A5000F6FC340F00C0002CA5B800C021FFC5B8AB
:101A600037958894F7FC340F00C000C0002CC5B82F
:101A70003795889400C0002CA5B800C020FFC5B8D9
:101A80006195600F00C000C000C0002CC5B8232FB6
:101A900000C000C0A5B800C027FFC5B842813327E9
:101AA000889400C000C0002CC5B84111490F00C087
:101AB000002CA5B800C026FFC5B808F44FEF8894E5
:101AC00000C000C000C0C5B8E0FC340F00C0002C4E
:101AD000A5B800C025FFC5B837958894E1FC340F40
:101AE00000C000C0002CC5B83795889400C0002CF9
:101AF000A5B800C024FFC5B8E2FC340F3795889420
:101B000000C000C0002CC5B8E3FC340F00C0002C9E
:101B1000A5B800C023FFC5B837958894E4FC340FFE
:101B200000C000C0002CC5B83795889400C0002CB8
:101B3000A5B800C022FFC5B8E5FC340F37958894DE
:101B400000C000C0002CC5B8E6FC340F00C0002C5B
:101B5000A5B800C021FFC5B837958894E7FC340FBD
:101B600000C000C0002CC5B83795889400C0002C78
:101B7000A5B800C020FFC5B8ED0DF11D8894232F36
:101B800000C000C0002CC5B89195970F00C0002C74
:101B9000A5B800C027FFC5B841813327889400C08D
:101BA00000C0002CC5B84111480F00C0002CA5B8DA
:101BB00000C026FFC5B808F44FEF889400C000C0ED
:101BC00000C0C5B810FD340F00C0002CA5B800C07F
:101BD00025FFC5B83795889411FD340F00C000C0AB
:101BE000002CC5B83795889400C0002CA5B800C05B
:101BF00024FFC5B812FD340F3795889400C000C08B
:101C0000002CC5B813FD340F00C0002CA5B800C0CF
:101C100023FFC5B83795889414FD340F00C000C069
:101C2000002CC5B83795889400C0002CA5B800C01A
:101C300022FFC5B815FD340F3795889400C000C049
:101C4000002CC5B816FD340F00C0002CA5B800C08C
:101C500021FFC5B83795889417FD340F00C000C028
:101C6000002CC5B83795889400C0002CA5B800C0DA
:101C700020FFC5B881958B0D232F00C000C000C088
:101C8000C5B8119709F08ACEB301882777FD8095F2
:101C9000982F20EE31E040E050E00E94231BB4E09A
:101CA0009695879577956795BA95D1F7E0E0F0E03E
:101CB0009F014AE9649E212D749E200D311D11243F
:101CC00040E050E0260F371F481F591F293EA3E070
:101CD0003A07A0E04A07A0E05A0790F1285E334097
:101CE00040405040A2E05695479537952795AA95D4
:101CF000D1F787E0289FE12D389FE00DF11D1124D9
:101D00008091A708280F311D2E0F3F1F4091C20858
:101D10005091C3086091C4087091C508832F99271A
:101D2000A0E0B0E0840F951FA61FB71F8093C208E4
:101D30009093C308A093C408B093C5082093A70844
:101D4000789425D3F201708B67872E960FB6F8949E
:101D5000DEBF0FBECDBFCF91DF911F910F91FF90DE
:101D6000EF90DF90CF90BF90AF909F907F906F905B
:101D70005F904F900895EF92FF920F93DF93CF9370
:101D800000D0CDB7DEB7AB0119821A821B829E014B
:101D90002F5F3F4FB90100E0EE24FF2487DD0F9055
:101DA0000F900F90CF91DF910F91FF90EF900895DA
:101DB000EF92FF920F9301E0EE24FF2477DD0F9165
:101DC000FF90EF900895EF92FF920F9300E0EE24C2
:101DD000FF246CDD0F91FF90EF9008954095FC017A
:101DE00080E090E00FC02081249F212D208321815D
:101DF000249F212D21832281249F212D22831124A0
:101E0000019633968617970770F30895EF92FF9225
:101E10000F931F93CF93DF93EC014423F1F06115EF
:101E2000710581F19B0140E050E060E472E48FE0D5
:101E300090E00E948B1BEB80FC800D811E81C9010C
:101E4000DA018E159F05A007B10710F4D801C7016C
:101E50008B839C83AD83BE8315C06115710571F0C2
:101E60009B0140E050E060E472E48FE090E00E946B
:101E70008B1B2B833C834D835E8304C01B821C829F
:101E80001D821E82DF91CF911F910F91FF90EF90E5
:101E90000895CF92DF92EF92FF920F931F93CF930B
:101EA000DF938C017B011216130624F06A01C0E057
:101EB000D0E002C06901EA01D801ED91FC910480F3
:101EC000F581E02DC8011995CE01880F991F8C0F5F
:101ED0009D1F8E0D9F1DF80193838283C586D68634
:101EE0000190F081E02D0084F185E02DC801199565
:101EF000BC0189EA98E041E089DFC801DF91CF9118
:101F00001F910F91FF90EF90DF90CF9008958FEF8A
:101F10008093A9081092AB081092AA080895EF9236
:101F2000FF920F931F93CF93DF93EC018091B8083A
:101F30009091B90801969093B9088093B8080197D9
:101F40008617970794F115D29B01AC016091B808F0
:101F50007091B90888EE93E0FB01E89FB001E99F1A
:101F6000700DF89F700D1124882777FD8095982FAC
:101F7000E090B408F090B5080091B6081091B70849
:101F80002E193F09400B510B0E94691B3A8329838C
:101F90001092B9081092B808ECD16093B40870930D
:101FA000B5088093B6089093B708DF91CF911F9141
:101FB0000F91FF90EF9008952F923F924F925F9272
:101FC0006F927F928F929F92AF92BF92CF92DF9249
:101FD000EF92FF920F931F93DF93CF93CDB7DEB7AE
:101FE00029970FB6F894DEBF0FBECDBF5C016F839B
:101FF000F50183819481A581B6810097A105B10582
:1020000009F4A1C0C4D12091BA083091BB08409115
:10201000BC085091BD08621B730B840B950BD50156
:1020200013962D913D914D915C9116976217730710
:102030008407950708F087C0DBCFF801F485FE839D
:10204000D50111968D919C9112978436910510F4CB
:10205000F8011486D801ED91FC911197828193814A
:102060009D838C8312964D905C9013971D962D90B6
:102070003C901E9719821A821B829F81992399F1A5
:1020800068017E010894E11CF11CD60116962C9182
:10209000169719966C912223D9F06623C9F070E047
:1020A00080E090E06F5F7F4F8F4F9F4F30E040E0C8
:1020B00050E02F5F3F4F4F4F5F4F0E94231BA40103
:1020C00093010E94231BBC0188279927F701608395
:1020D0000894C11CD11C0894E11CF11C88859985C9
:1020E000E816F90691F6C801B201A1019E012F5F21
:1020F0003F4FAC81BD81FD0119958E81F801848728
:10210000048115810115110509F097CFC50169E119
:1021100070E005DF29960FB6F894DEBF0FBECDBF85
:10212000CF91DF911F910F91FF90EF90DF90CF90B3
:10213000BF90AF909F908F907F906F905F904F90E7
:102140003F902F90089523D16093BA087093BB08F5
:102150008093BC089093BD080091B0081091B1081D
:102160009F81692E772488249924DE011496B987EB
:10217000A887C8CF1F93FC01DB0180817181128188
:10218000482F4F71440F440F440F642F25E5629F81
:10219000612D1124282F30E087FD24C0C9018072F1
:1021A000907026FD0CC0892B29F4562F509580E0A5
:1021B000462F11C0462F4B5A80E05BEA0CC0892B9A
:1021C00061F4242F3AEA239F212D11245BEA521B4C
:1021D000462F455580E030E02AC080E0462F4095EC
:1021E000362F11C0C9018072907026FD13C0892B53
:1021F00061F480E0242F3AEA239F212D11244BEA39
:10220000421B322F3B5A50E012C080E0362F3095EF
:10221000562F0CC0892B29F4562F5B5A80E03BEADD
:1022200004C0562F555580E035E5361B40E07F3F12
:1022300009F41BC0552321F0579F512D09F05F5F12
:10224000442321F0479F412D09F04F5F332321F0B4
:10225000379F312D09F03F5F1124272F2095229FB2
:10226000212D1124520F420F320F1F3F09F41AC0C3
:1022700020E0112321F0119F212D09F02F5F55231C
:1022800021F0529F512D09F05F5F442321F0429FBE
:10229000412D09F04F5F332321F0329F312D09F09A
:1022A0003F5F11245C9311964C93119712963C93C7
:1022B0001F9108950F931F93082F10E020E030E046
:1022C000CB01BA01A90198010E94231B60936E04FF
:1022D00070936F0480937004909371041F910F9119
:1022E00008951F920F920FB60F9211242F933F93D0
:1022F0008F939F93AF93BF938091C2089091C3082F
:10230000A091C408B091C5083091C6080196A11DDE
:10231000B11D232F2D5F2D3720F02D570196A11DC4
:10232000B11D2093C6088093C2089093C308A09360
:10233000C408B093C5088091BE089091BF08A091D1
:10234000C008B091C1080196A11DB11D8093BE08BF
:102350009093BF08A093C008B093C108BF91AF91FC
:102360009F918F913F912F910F900FBE0F901F90D3
:1023700018958FB7F8942091C2083091C308409106
:10238000C4085091C5088FBFB901CA0108959FB70D
:10239000F8942091BE083091BF084091C008509138
:1023A000C10886B5A89B06C08F3F21F02F5F3F4F25
:1023B0004F4F5F4F9FBF542F432F322F2227280F9D
:1023C000311D411D511D82E0220F331F441F551F37
:1023D0008A95D1F7B901CA010895789484B58260CD
:1023E00084BD84B5816084BD85B5826085BD85B5B9
:1023F000816085BDEEE6F0E0808181608083E1E868
:10240000F0E010828081826080838081816080839F
:10241000E0E8F0E0808181608083E1EBF0E08081A2
:1024200084608083E0EBF0E0808181608083E1E97B
:10243000F0E0808182608083808181608083E0E938
:10244000F0E0808181608083E1EAF0E08081826059
:102450008083808181608083E0EAF0E08081816018
:102460008083E1E2F1E0808182608083808181600D
:102470008083E0E2F1E0808181608083EAE7F0E040
:10248000808184608083808182608083808181609C
:1024900080838081806880831092C1000895CF93EB
:1024A000DF93482F50E0CA0188589E4FFC013491B9
:1024B0004E5C5E4FFA018491882369F190E0880FA9
:1024C000991FFC01EC51FF4FA591B491FC01E25022
:1024D000FF4FC591D491662351F42FB7F8948C9196
:1024E000932F909589238C93888189230BC0623028
:1024F00061F42FB7F8948C91932F909589238C9346
:102500008881832B88832FBF06C09FB7F8948C9156
:10251000832B8C939FBFDF91CF910895893009F46D
:1025200049C08A30A0F4843051F1853040F48230C3
:1025300079F1833000F5813009F063C026C087301F
:1025400079F1883098F5863009F05BC025C08D3070
:1025500009F442C08E3028F48B30B1F18C30C0F5D4
:102560002DC0803109F442C0813109F445C08F305B
:1025700009F047C037C0809180008F7703C08091F9
:1025800080008F7D80938000089584B58F7702C08E
:1025900084B58F7D84BD08958091B0008F7703C08E
:1025A0008091B0008F7D8093B0000895809190005D
:1025B0008F7707C0809190008F7D03C0809190003D
:1025C000877F8093900008958091A0008F7707C047
:1025D0008091A0008F7D03C08091A000877F8093B1
:1025E000A0000895809120018F7703C08091200181
:1025F0008F7D80932001089580912001877F8093B3
:1026000020010895FF920F931F93F62E482F50E05C
:10261000CA0182549E4FFC012491CA0188589E4FE2
:10262000FC0114914E5C5E4FFA0104910023C1F04D
:10263000222311F0822F72DFE02FF0E0EE0FFF1F58
:10264000E250FF4FA591B4919FB7F894FF2021F479
:102650008C911095812302C08C91812B8C939FBF0C
:102660001F910F91FF9008950F931F93482F50E0F3
:10267000CA0182549E4FFC012491CA0188589E4F82
:10268000FC0104914E5C5E4FFA011491112319F480
:1026900020E030E014C0222311F0822F3FDF812F91
:1026A00090E0880F991F885E9E4FFC01A591B49120
:1026B0008C9120E030E0802311F021E030E0C9016E
:1026C0001F910F91089508951F920F920FB60F92C8
:1026D0000BB60F9211242F933F934F938F939F9399
:1026E000EF93FF938091C00082FD1DC04091C60012
:1026F00020910709309108092F5F3F4F2F733070E9
:102700008091090990910A092817390771F0E09121
:102710000709F0910809E953F74F408330930809FE
:102720002093070902C08091C600FF91EF919F910D
:102730008F914F913F912F910F900BBE0F900FBE35
:102740000F901F90189508951F920F920FB60F9239
:102750000BB60F9211242F933F934F938F939F9318
:10276000EF93FF938091C80082FD1DC04091CE0081
:1027700020918F09309190092F5F3F4F2F73307058
:1027800080919109909192092817390771F0E09191
:102790008F09F0919009E15BF64F408330939009E7
:1027A00020938F0902C08091CE00FF91EF919F91FD
:1027B0008F914F913F912F910F900BBE0F900FBEB5
:1027C0000F901F90189508951F920F920FB60F92B9
:1027D0000BB60F9211242F933F934F938F939F9398
:1027E000EF93FF938091D00082FD1DC04091D600F1
:1027F0002091170A3091180A2F5F3F4F2F733070C6
:102800008091190A90911A0A2817390771F0E091FE
:10281000170AF091180AE952F64F40833093180ACC
:102820002093170A02C08091D600FF91EF919F91EB
:102830008F914F913F912F910F900BBE0F900FBE34
:102840000F901F90189508951F920F920FB60F9238
:102850000BB60F9211242F933F934F938F939F9317
:10286000EF93FF938091300182FD1DC040913601AE
:1028700020919F0A3091A00A2F5F3F4F2F73307035
:102880008091A10A9091A20A2817390771F0E0916E
:102890009F0AF091A00AE15AF54F40833093A00AB5
:1028A00020939F0A02C080913601FF91EF919F9182
:1028B0008F914F913F912F910F900BBE0F900FBEB4
:1028C0000F901F901895E091F30AF091F40AE05CE4
:1028D000FF4F8191919120813181821B930B8F73E6
:1028E0009070892B09F0EFDEE091150BF091160B3B
:1028F000E05CFF4F8191919120813181821B930B8C
:102900008F739070892B09F01EDFE091370BF091E7
:10291000380BE05CFF4F8191919120813181821BC6
:10292000930B8F739070892B09F04DDFE091590B59
:10293000F0915A0BE05CFF4F8191919120813181A0
:10294000821B930B8F739070892B09F07CCF0895B5
:102950001F920F920FB60F920BB60F9211242F9366
:102960003F938F939F93EF93FF9320914B09309167
:102970004C0980914D0990914E092817390731F47F
:102980008091C1008F7D8093C10014C0E0914D09FA
:10299000F0914E09E55FF64F208180914D099091AD
:1029A0004E0901968F73907090934E0980934D0954
:1029B0002093C600FF91EF919F918F913F912F91AE
:1029C0000F900BBE0F900FBE0F901F9018951F9287
:1029D0000F920FB60F920BB60F9211242F933F93C5
:1029E0008F939F93EF93FF932091D3093091D40954
:1029F0008091D5099091D6092817390731F4809133
:102A0000C9008F7D8093C90014C0E091D509F09171
:102A1000D609ED56F64F20818091D5099091D609BF
:102A200001968F7390709093D6098093D509209367
:102A3000CE00FF91EF919F918F913F912F910F9039
:102A40000BBE0F900FBE0F901F9018951F920F9204
:102A50000FB60F920BB60F9211242F933F938F93C3
:102A60009F93EF93FF9320915B0A30915C0A8091D2
:102A70005D0A90915E0A2817390731F48091D100E0
:102A80008F7D8093D10014C0E0915D0AF0915E0AC1
:102A9000E55EF54F208180915D0A90915E0A019676
:102AA0008F73907090935E0A80935D0A2093D60096
:102AB000FF91EF919F918F913F912F910F900BBEBE
:102AC0000F900FBE0F901F9018951F920F920FB688
:102AD0000F920BB60F9211242F933F938F939F93D6
:102AE000EF93FF932091E30A3091E40A8091E50A85
:102AF0009091E60A2817390731F4809131018F7DD2
:102B00008093310114C0E091E50AF091E60AED5599
:102B1000F54F20818091E50A9091E60A01968F7326
:102B200090709093E60A8093E50A20933601FF9116
:102B3000EF919F918F913F912F910F900BBE0F902E
:102B40000FBE0F901F901895AF92BF92DF92EF9239
:102B5000FF920F931F93CF93DF93EC017A018B01C8
:102B6000DD24403081EE580780E0680780E0780778
:102B700011F0DD24D39491E0A92EB12CEC89FD89CC
:102B8000DD2069F0C50108A002C0880F991F0A94D2
:102B9000E2F7808360E079E08DE390E005C0108289
:102BA00060E874E88EE190E0A801970192D5215089
:102BB000304040405040569547953795279580E1E5
:102BC0002030380720F0DD2011F0DD24D7CFE88950
:102BD000F9893083EA89FB89208319A2EE89FF896C
:102BE000408121E030E0C9010C8C02C0880F991FA0
:102BF0000A94E2F7482B4083EE89FF894081C9019E
:102C00000D8C02C0880F991F0A94E2F7482B40836D
:102C1000EE89FF894081C9010E8C02C0880F991F7F
:102C20000A94E2F7482B4083EE89FF8980810F8C5C
:102C300002C0220F331F0A94E2F720952823208335
:102C4000DF91CF911F910F91FF90EF90DF90BF9098
:102C5000AF900895DC011C96ED91FC911D97E05C0E
:102C6000FF4F2191319180819181281B390B2F7366
:102C70003070C9010895DC011C96ED91FC911D97FF
:102C8000E05CFF4F20813181E054F040DF01AE5B1A
:102C9000BF4F8D919C9111972817390719F42FEF89
:102CA0003FEF07C08D919C91E80FF91F8081282F7D
:102CB00030E0C9010895DC011C96ED91FC911D974F
:102CC000E05CFF4F20813181E054F040DF01AE5BDA
:102CD000BF4F8D919C9111972817390719F42FEF49
:102CE0003FEF10C08D919C911197E80FF91F208143
:102CF0008D919C91119701968F73907011969C9372
:102D00008E9330E0C9010895DC0191968C919197E2
:102D1000882339F05496ED91FC915597808186FF78
:102D2000F9CF91961C920895CF93DF93EC01EE8535
:102D3000FF85E05CFF4F20813181E054F0402F5F40
:102D40003F4F2F733070DF01AE5BBF4F8D919C9171
:102D5000119728173907D1F3E05CFF4F80819181EB
:102D6000E054F040E80FF91F6083EE85FF85E05CDA
:102D7000FF4F31832083EE89FF89208181E090E03D
:102D80000F8C02C0880F991F0A94E2F7282B20832A
:102D900081E089A3EC89FD8980818064808381E062
:102DA00090E0DF91CF9108951F931092EA0A10925C
:102DB000E90A28EE33E040E050E02093EB0A30933C
:102DC000EC0A4093ED0A5093EE0A64E874E07093C5
:102DD000E80A6093E70A87EC98E09093F40A8093FE
:102DE000F30A8BE099E09093F60A8093F50A85EC5C
:102DF00090E09093F80A8093F70A84EC90E0909327
:102E0000FA0A8093F90A80EC90E09093FC0A809390
:102E1000FB0A81EC90E09093FE0A8093FD0A82EC1D
:102E200090E09093000B8093FF0A86EC90E09093E3
:102E3000020B8093010B14E01093030BB3E0B093EB
:102E4000040BA7E0A093050BF5E0F093060BE1E07F
:102E5000E093070B10920C0B10920B0B20930D0BB1
:102E600030930E0B40930F0B5093100B70930A0B83
:102E70006093090B8FE499E09093160B8093150BE8
:102E800083E999E09093180B8093170B8DEC90E0F9
:102E900090931A0B8093190B8CEC90E090931C0B81
:102EA00080931B0B88EC90E090931E0B80931D0B7E
:102EB00089EC90E09093200B80931F0B8AEC90E0BC
:102EC0009093220B8093210B8EEC90E09093240B37
:102ED0008093230B1093250BB093260BA093270B05
:102EE000F093280BE093290B10922E0B10922D0BD0
:102EF00020932F0B3093300B4093310B5093320BB8
:102F000070932C0B60932B0B87ED99E09093380B0B
:102F10008093370B8BE19AE090933A0B8093390BB7
:102F200085ED90E090933C0B80933B0B84ED90E01B
:102F300090933E0B80933D0B80ED90E09093400B7F
:102F400080933F0B81ED90E09093420B8093410B77
:102F500082ED90E09093440B8093430B86ED90E0DC
:102F60009093460B8093450B1093470BB093480BFF
:102F7000A093490BF0934A0BE0934B0B1092500B2C
:102F800010924F0B2093510B3093520B4093530BE5
:102F90005093540B70934E0B60934D0B8FE59AE05A
:102FA00090935A0B8093590B83EA9AE090935C0BB1
:102FB00080935B0B85E391E090935E0B80935D0BB8
:102FC00084E391E09093600B80935F0B80E391E04A
:102FD0009093620B8093610B81E391E09093640B7B
:102FE0008093630B82E391E09093660B8093650B73
:102FF00086E391E09093680B8093670B1093690BC5
:10300000B0936A0BA0936B0BF0936C0BE0936D0B7A
:103010001F910895CF93DF93E0D90E940A0CC3E675
:10302000D4E10E943A0B2097E1F34DDCFACFFC018A
:1030300020E030E08081882311F421E030E0C901F4
:103040000895FC0181E080830895CF92DF92EF9292
:10305000FF920F931F93CF93DF937C016B018A0143
:10306000C0E0D0E00FC0D6016D916D01D701ED91A8
:10307000FC910190F081E02DC7011995C80FD91F6F
:10308000015010400115110571F7CE01DF91CF916C
:103090001F910F91FF90EF90DF90CF900895EF92E6
:1030A000FF920F931F938C01DC01ED91FC91019035
:1030B000F081E02D6DE019957C01D801ED91FC9136
:1030C0000190F081E02DC8016AE019959C012E0D58
:1030D0003F1DC9011F910F91FF90EF900895CF936D
:1030E000DF93EC016115710519F420E030E00FC0A9
:1030F000DB010D900020E9F71197A61BB70BE881C3
:10310000F9810280F381E02DAD0119959C01C9017F
:10311000DF91CF9108954F925F927F928F929F920D
:10312000AF92BF92CF92DF92EF92FF920F931F93D5
:10313000DF93CF93CDB7DEB7A1970FB6F894DEBF7C
:103140000FBECDBF2C01742ECB01223008F42AE033
:1031500019A231E2C32ED12CCC0EDD1E822E992471
:10316000AA24BB24672D752FA5019401B2D2790141
:103170008A01C801B701A501940165D2472D461BFC
:103180000894C108D1084A3014F4405D01C0495C7C
:10319000F6014083E114F1040105110521F07E2CB4
:1031A0005F2DC801DFCFC201B60199DFA1960FB62E
:1031B000F894DEBF0FBECDBFCF91DF911F910F916D
:1031C000FF90EF90DF90CF90BF90AF909F908F9047
:1031D0007F905F904F900895DC012115310541F4F7
:1031E000ED91FC910190F081E02D642F19950895E7
:1031F00092CFEF92FF920F931F939A01E62EFF2436
:1032000000E010E0B801A701E7DF1F910F91FF90E8
:10321000EF900895CF92DF92EF92FF920F931F935A
:103220006C01E62E9A01FF2400E010E0B801A7012E
:10323000D3DF8C01C60133DF080F191FC8011F91AE
:103240000F91FF90EF90DF90CF90089548CF0895B1
:10325000EF92FF920F931F937C0141DF8C01C70116
:103260001EDF080F191FC8011F910F91FF90EF90EB
:1032700008955058BB27AA270ED048C139D130F045
:103280003ED120F031F49F3F11F41EF42EC10EF414
:10329000E095E7FB24C1E92F4AD180F3BA17620712
:1032A00073078407950718F071F49EF562C10EF458
:1032B000E0950B2EBA2FA02D0B01B90190010C0146
:1032C000CA01A0011124FF27591B99F0593F50F45E
:1032D000503E68F11A16F040A22F232F342F4427B6
:1032E000585FF3CF469537952795A795F0405395AE
:1032F000C9F77EF41F16BA0B620B730B840BBAF07E
:103300009150A1F0FF0FBB1F661F771F881FC2F7E8
:103310000EC0BA0F621F731F841F48F487957795FC
:103320006795B795F7959E3F08F0B3CF9395880FB3
:1033300008F09927EE0F9795879508950CD0E6C071
:10334000DED040F0D5D030F021F45F3F19F0C7C097
:10335000511110C1CAC0EBD098F39923C9F355237A
:10336000B1F3951B550BBB27AA2762177307840778
:1033700038F09F5F5F4F220F331F441FAA1FA9F32E
:1033800033D00E2E3AF0E0E830D091505040E69520
:10339000001CCAF729D0FE2F27D0660F771F881F81
:1033A000BB1F261737074807AB07B0E809F0BB0B70
:1033B000802DBF01FF2793585F4F2AF09E3F510594
:1033C00068F08DC0D7C05F3FECF3983EDCF3869584
:1033D00077956795B795F7959F5FC9F7880F911D0A
:1033E0009695879597F90895E1E0660F771F881FF6
:1033F000BB1F621773078407BA0720F0621B730BA9
:10340000840BBA0BEE1F88F7E095089598D088F0EA
:103410009F5790F0B92F9927B751A0F0D1F0660FC0
:10342000771F881F991F1AF0BA95C9F712C0B130DB
:1034300081F09FD0B1E008959CC0672F782F882736
:10344000B85F39F0B93FCCF3869577956795B3951A
:10345000D9F73EF490958095709561957F4F8F4F89
:103460009F4F0895E89409C097FB3EF4909580958E
:10347000709561957F4F8F4F9F4F9923A9F0F92F3A
:1034800096E9BB279395F695879577956795B795B8
:10349000F111F8CFFAF4BB0F11F460FF1BC06F5F9E
:1034A0007F4F8F4F9F4F16C0882311F096E911C0B0
:1034B000772321F09EE8872F762F05C0662371F0D1
:1034C00096E8862F70E060E02AF09A95660F771FE5
:1034D000881FDAF7880F9695879597F9089597F9D9
:1034E0009F6780E870E060E008959FEF80EC0895AA
:1034F00000240A94161617061806090608950024D3
:103500000A9412161306140605060895092E03944C
:10351000000C11F4882352F0BB0F40F4BF2B11F4C0
:1035200060FF04C06F5F7F4F8F4F9F4F089557FD1F
:103530009058440F551F59F05F3F71F04795880F21
:1035400097FB991F61F09F3F79F0879508951216B8
:1035500013061406551FF2CF4695F1DF08C0161664
:1035600017061806991FF1CF869571056105089415
:103570000895E894BB2766277727CB0197F908952C
:103580000BD0C4CFB5DF28F0BADF18F0952309F0CF
:10359000A6CFABCF1124EECFCADFA0F3959FD1F316
:1035A000950F50E0551F629FF001729FBB27F00DF1
:1035B000B11D639FAA27F00DB11DAA1F649F662746
:1035C000B00DA11D661F829F2227B00DA11D621F95
:1035D000739FB00DA11D621F839FA00D611D221F4F
:1035E000749F3327A00D611D231F849F600D211D33
:1035F000822F762F6A2F11249F5750408AF0E1F0D6
:1036000088234AF0EE0FFF1FBB1F661F771F881F1E
:1036100091505040A9F79E3F510570F060CFAACF5E
:103620005F3FECF3983EDCF3869577956795B79509
:10363000F795E7959F5FC1F7FE2B880F911D969533
:10364000879597F90895629FD001739FF001829F3B
:10365000E00DF11D649FE00DF11D929FF00D839F21
:10366000F00D749FF00D659FF00D9927729FB00DBE
:10367000E11DF91F639FB00DE11DF91FBD01CF01D1
:1036800011240895AA1BBB1B51E107C0AA1FBB1F31
:10369000A617B70710F0A61BB70B881F991F5A95DE
:1036A000A9F780959095BC01CD01089597FB092E4F
:1036B00007260AD077FD04D0E5DF06D000201AF4F3
:1036C000709561957F4F0895F6F7909581959F4F7E
:1036D0000895A1E21A2EAA1BBB1BFD010DC0AA1F53
:1036E000BB1FEE1FFF1FA217B307E407F50720F06B
:1036F000A21BB30BE40BF50B661F771F881F991FE6
:103700001A9469F760957095809590959B01AC012E
:10371000BD01CF01089597FB092E05260ED057FD58
:1037200004D0D7DF0AD0001C38F45095409530956E
:1037300021953F4F4F4F5F4F0895F6F79095809535
:10374000709561957F4F8F4F9F4F0895EE0FFF1F2C
:0C3750000590F491E02D1994F894FFCF3F
:10375C00506F776572004D6F646553656C6563746B
:10376C00696F6E4D61696E207C205475726E656454
:10377C00206F6E204C4544730052656164696E671E
:10378C00206E65772076616C7565732066726F6D3F
:10379C00206F746865722041726475696E6F004D9C
:1037AC006F646553656C656374696F6E4D61696EAA
:1037BC00207C204368616E67656420746F205768B5
:1037CC006974654C6566742D4D6F6465004D6F644E
:1037DC006553656C656374696F6E4D61696E207CB1
:1037EC00204368616E67656420746F205768697444
:1037FC006552696768742D4D6F6465004D6F646523
:10380C0053656C656374696F6E4D61696E207C20C5
:10381C004368616E67656420746F205768697465CE
:10382C00416C6C2D4D6F6465004D6F646553656C18
:10383C00656374696F6E4D61696E207C20436861AD
:10384C006E67656420746F20436F6E66657474696F
:10385C002D4D6F646500496E6372656173696E67A7
:10386C0020436F6C6F7254656D70205B48756520DA
:10387C0053617475726174696F6E5D202000200055
:10388C0044656372656173696E6720436F6C6F7218
:10389C0054656D70205B4875652053617475726159
:1038AC0074696F6E5D2020002D2D2D2D2020002D94
:1038BC002D20202020006F6F2020202000427269D4
:1038CC006768746E657373446F776E205B536574B1
:1038DC00706F696E74202041637475616C5D002B90
:1038EC002B2B2B2020002B2B202020200042726918
:1038FC006768746E657373557020536574706F6967
:10390C006E74202041637475616C00456666656356
:10391C0074576869746552696768740045666665B2
:10392C00637457686974654C6566740045666665B2
:10393C0063745768697465416C6C00506F7765727D
:10394C006564206F6E206E6F7700506F77657265BF
:10395C006420646F776E206E6F7700506F7765729E
:10396C0020627574746F6E20707265737365642059
:10397C002D205475726E696E67206F666600506FED
:10398C0077657220627574746F6E207072657373D4
:10399C006564202D205475726E696E67206F6E0001
:1039AC0053746172746564202D2057616974696E5B
:1039BC0067202D2056312E3000FF00633905D007CB
:1039CC00000000000000E30ED80E3301BB0E3501E1
:1039DC0000000000941625182A165B163B16841658
:00000001FF
