:100000001EC100004DC100004BC1000049C10000ED
:1000100047C1000045C1000043C1000041C10000CC
:100020003FC100003DC100003BC1000039C10000DC
:1000300037C1000035C1000033C1000031C10000EC
:100040002FC100002DC100002BC1000029C10000FC
:1000500027C1000025C1000023C1000051C40000D9
:100060001FC10000C5C100009AC1000019C10000F5
:1000700017C1000015C1000013C1000011C100002C
:100080000FC100000DC100000BC1000009C100003C
:1000900007C1000005C1000003C1000001C100004C
:1000A000FFC00000FDC00000FBC00000F9C0000060
:1000B000F7C00000F5C00000F3C00000F1C0000070
:1000C000EFC00000EDC00000EBC00000E9C0000080
:1000D000E7C00000E5C00000E3C00000E1C0000090
:1000E000DFC000006E2434213721AE21DE22EF2252
:1000F0000023112334231124BE02C102B002B40232
:10010000BA02F802C502C902CF02D302D702DD0249
:10011000E102E502F802EB02EF02F3020000210027
:10012000240027002A002D003000330001010000C8
:10013000040107010A0100002200250028002B000D
:100140002E003100340002010000050108010B01FE
:10015000000020002300260029002C002F00320080
:100160000001000003010601090105050505070559
:1001700008080808020202020A0A08080404040423
:10018000010101010101010103030303030303034F
:10019000040707070C0C0C0C0C0C0C0C02020202DE
:1001A00006060606060606060B0B0B0B0B0B0B0BC7
:1001B0000102102020080810204010204080020179
:1001C000020108040201010204081020408080405E
:1001D000201008040201800402018040201008045D
:1001E00002010804020101020408102040800102FB
:1001F00004081020408000000A0B02090C0D0E08B4
:1002000007030401000000000000000000000000DF
:1002100000000000000000000000000000000000DE
:10022000000012111000000000000000000000009B
:10023000000000000000000000000000F62411246F
:100240001FBECFEFD1E2DEBFCDBF00E00CBF16E096
:10025000A0E0B2E0E6E3FDE400E00BBF02C00790DF
:100260000D92AC34B107D9F720E1ACE4B6E001C09F
:100270001D92A938B207E1F711E0CFE1D1E000E02B
:1002800006C021970109802FFE010E948726CE31EA
:10029000D10780E00807A9F70E94071F0C94992650
:1002A000AFCECF92DF92EF92FF920F931F93CF9337
:1002B000DF936C017A018B01C0E0D0E0CE15DF0541
:1002C00089F0D8016D918D01D601ED91FC910190DD
:1002D000F081E02DC6011995892B11F47E0102C031
:1002E0002196ECCFC701DF91CF911F910F91FF9025
:1002F000EF90DF90CF9008958F929F92AF92BF9230
:10030000CF92DF92EF92FF920F931F93CF93DF93E1
:100310007C01EB016C0182E0C80ED11C4701E5E0D5
:100320008E0E911C00E010E0F60141916F0150E04B
:1003300060E070E02AE0CE010E9491125C01E88149
:10034000F9810190F081E02D6EE2CE0119958A0DC0
:100350009B1D080F191FC814D90431F7F7014581F7
:1003600050E060E070E02AE0CE010E949112800F20
:10037000911FDF91CF911F910F91FF90EF90DF9030
:10038000CF90BF90AF909F908F90089583E69EE0AE
:1003900096D021E0892B09F420E0822F08951F9246
:1003A0000F920FB60F9211240BB60F922F933F931B
:1003B0004F935F936F937F938F939F93AF93BF936D
:1003C000EF93FF9383E69EE017D1FF91EF91BF91EA
:1003D000AF919F918F917F916F915F914F913F91DD
:1003E0002F910F900BBE0F900FBE0F901F9018957E
:1003F0001F920F920FB60F9211240BB60F922F93EC
:100400008F939F93EF93FF93E091730EF091740E8F
:100410008081E091790EF0917A0E82FD12C0908178
:1004200080917C0E8F5F8F7320917D0E821751F02B
:10043000E0917C0EF0E0ED59F14F958F80937C0EAA
:1004400001C08081FF91EF919F918F912F910F902B
:100450000BBE0F900FBE0F901F901895FC01538D8F
:10046000448D252F30E0842F90E0821B930B54178E
:1004700010F0CF96089501970895FC01918D828D1B
:10048000981761F0828DDF01A80FB11D5D968C91E8
:10049000928D9F5F9F73928F90E008958FEF9FEFF3
:1004A0000895FC01918D828D981731F0828DE80FAF
:1004B000F11D858D90E008958FEF9FEF0895FC0169
:1004C000918D228D892F90E0805C9F4F821B910936
:1004D0008F739927089580E090E0892B19F056DFFB
:1004E000811125C080E090E0892B41F080E090E010
:1004F000892B21F00E94000081111CC080E090E057
:10050000892B41F080E090E0892B21F00E940000CF
:10051000811113C080E090E0892BA1F080E090E091
:10052000892B81F00E94000081110AC008950E9469
:100530000000D8CF0E940000E1CF0E940000EACF67
:100540000C940000089590E0FC013197E231F10530
:1005500008F04EC08827E458FF4F8F4F0C94872631
:10056000809180008F7703C0809180008F7D809381
:100570008000089580918000877FF9CF84B58F77C0
:1005800002C084B58F7D84BD08958091B0008F77BF
:1005900003C08091B0008F7D8093B000089580915A
:1005A00090008F7707C0809190008F7D03C080916D
:1005B0009000877F8093900008958091A0008F77AE
:1005C00007C08091A0008F7D03C08091A000877F2D
:1005D0008093A0000895809120018F7707C08091BB
:1005E00020018F7D03C080912001877F80932001AF
:1005F000089508950E949526FC01848DDF01A80FBF
:10060000B11DA35ABF4F2C91848D90E001968F733A
:100610009927848FA689B7892C93A089B1898C9159
:1006200080648C93938D848D981306C00288F3891F
:10063000E02D80818F7D80830895EF92FF920F934C
:100640001F93CF93DF93EC0181E0888F9B8D8C8D7E
:10065000981305C0E889F989808185FD23C0F62EAD
:100660000B8D10E00F5F1F4F0F731127E02E8C8D45
:10067000E8120BC00FB607FCFACFE889F989808130
:1006800085FFF5CFCE01B8DFF2CF8B8DFE01E80FED
:10069000F11DE35AFF4FF0820B8FEA89FB898081BD
:1006A000806207C0EE89FF896083E889F9898081CB
:1006B0008064808381E090E0DF91CF911F910F9162
:1006C000FF90EF900895CF93DF93EC01888D8823FE
:1006D000C1F0EA89FB89808185FD05C0A889B989B7
:1006E0008C9186FD0EC00FB607FCF5CF808185FF8B
:1006F000F2CFA889B9898C9185FFEDCFCE017CDF3F
:10070000E8CFDF91CF910895CF93DF93282F30E08A
:10071000F901EA50FE4F8491F901E055FE4FD49162
:10072000F901E659FE4FC491CC2389F081110BDF0A
:10073000EC2FF0E0EE0FFF1FE05BFE4FA591B491B0
:10074000EC91ED2381E090E021F480E002C080E0B4
:1007500090E0DF91CF9108951F93CF93DF93282FDF
:1007600030E0F901EA50FE4F8491F901E055FE4F67
:10077000D491F901E659FE4FC491CC23C1F0162F54
:100780008111E1DEEC2FF0E0EE0FFF1FEA5CFE4F7F
:10079000A591B4918FB7F894111105C09C91ED2FDC
:1007A000E095E92302C0EC91ED2BEC938FBFDF9134
:1007B000CF911F910895CF93DF9390E0FC01E05516
:1007C000FE4F2491FC01E659FE4F8491882361F18C
:1007D00090E0880F991FFC01E45EFE4FC591D49113
:1007E000FC01EA5CFE4FA591B491611109C09FB76D
:1007F000F8948881209582238883EC912E230BC066
:10080000623061F49FB7F8943881822F80958323FA
:100810008883EC912E2B2C939FBF06C08FB7F89442
:10082000E8812E2B28838FBFDF91CF9108953FB7AA
:10083000F89480911F0A9091200AA091210AB0910A
:10084000220A26B5A89B05C02F3F19F00196A11DCD
:10085000B11D3FBFBA2FA92F982F8827820F911D56
:10086000A11DB11DBC01CD0142E0660F771F881F9D
:10087000991F4A95D1F708958F929F92AF92BF9298
:10088000CF92DF92EF92FF926B017C01D0DF4B01A0
:100890005C01C114D104E104F104E9F0C8DFDC011A
:1008A000CB0188199909AA09BB09883E9340A10583
:1008B000B10578F321E0C21AD108E108F10888EE09
:1008C000880E83E0981EA11CB11CC114D104E10460
:1008D000F10421F7DECFFF90EF90DF90CF90BF9033
:1008E000AF909F908F9008952FB7F8946091180A59
:1008F0007091190A80911A0A90911B0A2FBF0895CE
:100900001F920F920FB60F9211242F933F938F9344
:100910009F93AF93BF938091180A9091190AA09169
:100920001A0AB0911B0A30911E0A23E0230F2D37BB
:1009300020F40196A11DB11D05C026E8230F0296E3
:10094000A11DB11D20931E0A8093180A9093190AC5
:10095000A0931A0AB0931B0A80911F0A9091200A53
:10096000A091210AB091220A0196A11DB11D809388
:100970001F0A9093200AA093210AB093220ABF91E4
:10098000AF919F918F913F912F910F900FBE0F903C
:100990001F901895DC01FB014C9111965C91119709
:1009A00012967C91342F3F71330F330F832F880FB2
:1009B00035E5282F239F020E20E0211D1124642FEE
:1009C0006074942F907247FD21C061110BC091118A
:1009D00004C0822F8095422F11C045E5420F30E0C0
:1009E0002BEA33C091110DC0382F4AEA349F030E11
:1009F00030E0311D11248BEA831B420F282F30E099
:100A000024C080E0422F4095322F0EC0611111C0EA
:100A100091110CC0382F2AEA329F030E30E0311DAD
:100A200011244BEA431B3B5A20E00FC0322F309574
:100A30000BC0911104C085E5820F3BEA03C08AEA2E
:100A4000820F90E0321B282F40E05F3F11F15523C9
:100A5000E9F0222321F0259F020E20E0211D4423EE
:100A600021F0459F040E40E0411D332321F0359FC6
:100A7000030E30E0311D11245095559F050E50E0B6
:100A8000511D1124250F450F350F03C03FEF4FEFC8
:100A90002FEF7F3F09F420C050E0772321F0779FAC
:100AA000512D09F05F5F5523A1F0222321F0259FEE
:100AB000020E20E0211D442321F0459F040E40E05A
:100AC000411D332321F0359F030E30E0311D1124E9
:100AD00003C030E040E020E020834183328308956A
:100AE000FA01029620E030E02617370774F44081BF
:100AF000DC0112974C93418111964C934281DC01A9
:100B00004C932F5F3F4F0396EFCF08952C9A089593
:100B10002C9808951F93CF93DF93182F66E270E00F
:100B20000E94541EC82FD0E067E270E0812F0E941F
:100B3000541EDC2FCC279E01282BC901DF91CF91B9
:100B40001F9108951F93CF93DF93182F60E270E0F9
:100B50000E94541EC82FD0E061E270E0812F0E94F5
:100B6000541EDC2FCC279E01282BC901DF91CF9189
:100B70001F9108958EBD00000DB407FEFDCF8EB508
:100B80000895CF92DF92EF92FF920F931F93CF932E
:100B9000DF93EC017A018B016C01C40ED51ECC15DC
:100BA000DD0579F0B5DF8FE0E5DF8D2FE3DF8C2FFA
:100BB000E1DF219680E0DEDFF80181938F01A6DF7F
:100BC000EECFC701DF91CF911F910F91FF90EF9072
:100BD000DF90CF900895CF92DF92EF92FF920F9324
:100BE0001F93CF93DF93EC017A018B016C01C40E4C
:100BF000D51ECC15DD0571F08BDF80EFBBDF8D2FAF
:100C0000B9DF8C2FB7DF2196F80181918F01B2DF18
:100C10007DDFEFCFC701DF91CF911F910F91FF9043
:100C2000EF90DF90CF900895AF92BF92DF92EF9256
:100C3000FF920F931F93CF93DF93D82E7B018A01EE
:100C400080E590E00E947B1EC0E0D0E08D2D62DF49
:100C50005C01892B19F08D2D5DDFEC01CA15DB05D8
:100C6000A9F7209799F463E070E08D2D0E94541E3F
:100C70008431D9F18823C9F1C1E0D0E08C3111F47D
:100C8000C0E0D0E0D195C195D1092FC00C171D0748
:100C90000CF4E8011C161D0644F568E270E08D2D89
:100CA0000E94541E082F10E069E270E08D2D0E9412
:100CB000541E102F0027082B9E01A701B8018D2D6F
:100CC0000E944B120C0F1D1F412F68E270E08D2D0A
:100CD0000E942B1E402F69E270E08D2D0E942B1E7A
:100CE00060E470E08D2D0E943B120E947A1ECE01BE
:100CF000DF91CF911F910F91FF90EF90DF90BF9008
:100D0000AF900895CF93C82F80E590E00E947B1E9E
:100D100060E170E08C2F0E943B124FEF62E070E0C8
:100D20008C2F0E942B1ECF910C947A1EFF920F9352
:100D30001F93CF93DF931F921F92CDB7DEB7F82E8C
:100D40008A012A836983DEDF80E590E00E947B1EB2
:100D50002A816981462F422B60E070E08F2D0E942E
:100D60002B1E0115110551F400911C0A10911D0A4A
:100D70000F5F1F4F10931D0A00931C0A412F64E060
:100D800070E08F2D0E942B1E402F65E070E08F2DAC
:100D90000E942B1E61E070E08F2D0E943B120E948A
:100DA0007A1E81E00F900F90DF91CF911F910F91EC
:100DB000FF900895BF92CF92DF92EF92FF920F9330
:100DC0001F93CF93DF9300D000D0CDB7DEB7FC01E7
:100DD000208D243009F05AC06A017B018C01B12CAE
:100DE00063E070E08B2D0E94541E811103C0F80156
:100DF000B08E06C08831D9F3B394F4E0BF12F0CFBF
:100E0000F801808D843009F441C096E0EEE2F2E012
:100E1000DE01119601900D929A95E1F7F701938109
:100E20009F779C8394819D8395819E83B7016E5F9C
:100E30007F4F90E0982F882744E050E0845F9B4FDD
:100E4000CADEF801F08C4D2D60E170E08F2D0E941C
:100E50002B1E4C2D61E170E08F2D0E942B1EF8019E
:100E6000808D90E0982F882746E050E0BE016F5FAC
:100E70007F4F8A5F9B4FAFDEF801128E118E20E804
:100E8000A60162E0808D52DF81E001C080E02696FD
:100E90000FB6F894DEBF0FBECDBFDF91CF911F918B
:100EA0000F91FF90EF90DF90CF90BF90089580E971
:100EB00091E00895389A08954F925F926F927F92D1
:100EC0008F92AF92BF92CF92EF92FF920F931F93A8
:100ED000CF93DF933C01EB01AADCF3012785308936
:100EE000621B730B6A307105B8F3F894E881F981DD
:100EF00058B1516088B18E7F88B96A859F81262F4D
:100F0000291B922F2F83BF844A805B807D85FC84C0
:100F1000EE847F5FF394E3943E814885A984CB847B
:100F20001181D20120E0C32F022F322F31811127EE
:100F300088943111390F08F43FEF9195889470FD32
:100F4000130F1795889471FD130F1795889472FDF0
:100F5000130F1795889473FD130F1795889474FDDC
:100F6000130F1795889475FD130F1795889476FDC8
:100F7000130F1795889477FD130F17958894232FD7
:100F80007111212F960F122F002C58B900C017FF96
:100F900088B930812227889400C000C0002C88B90D
:100FA00031113C0F00C0002C58B900C016FF88B9A1
:100FB00008F43FEFC195889400C000C0002C88B9A8
:100FC000F0FC230F00C0002C58B900C015FF88B9F1
:100FD00027958894F1FC230F00C000C0002C88B92D
:100FE0002795889400C0002C58B900C014FF88B918
:100FF000F2FC230F2795889400C000C0002C88B90C
:10100000F3FC230F00C0002C58B900C013FF88B9AF
:1010100027958894F4FC230F00C000C0002C88B9E9
:101020002795889400C0002C58B900C012FF88B9D9
:10103000F5FC230F2795889400C000C0002C88B9C8
:10104000F6FC230F00C0002C58B900C011FF88B96E
:1010500027958894F7FC230F00C000C0002C88B9A6
:101060002795889400C0002C58B900C010FF88B99B
:10107000132FF110122FCA0D00C000C0002C88B928
:1010800000C000C0002C58B900C017FF88B93281D9
:101090002227889400C000C0002C88B93111340F79
:1010A00000C0002C58B900C016FF88B908F43FEF03
:1010B000EB0DF11D00C000C0002C88B9E0FC230F2F
:1010C00000C0002C58B900C015FF88B92795889436
:1010D000E1FC230F00C000C0002C88B9279588943C
:1010E00000C0002C58B900C014FF88B9E2FC230FDF
:1010F0002795889400C000C0002C88B9E3FC230F1A
:1011000000C0002C58B900C013FF88B927958894F7
:10111000E4FC230F00C000C0002C88B927958894F8
:1011200000C0002C58B900C012FF88B9E5FC230F9D
:101130002795889400C000C0002C88B9E6FC230FD6
:1011400000C0002C58B900C011FF88B927958894B9
:10115000E7FC230F00C000C0002C88B927958894B5
:1011600000C0002C58B900C010FF88B9132FE1103F
:10117000122F419500C000C0002C88B94C0D00C052
:1011800000C058B900C017FF88B931812227889460
:1011900000C000C0002C88B93111390F00C0002CEC
:1011A00058B900C016FF88B908F43FEF91958894AC
:1011B00000C000C0002C88B970FD230F00C0002CB7
:1011C00058B900C015FF88B92795889471FD230F81
:1011D00000C000C0002C88B92795889400C0002C5E
:1011E00058B900C014FF88B972FD230F2795889461
:1011F00000C000C0002C88B973FD230F00C0002C74
:1012000058B900C013FF88B92795889474FD230F3F
:1012100000C000C0002C88B92795889400C0002C1D
:1012200058B900C012FF88B975FD230F279588941F
:1012300000C000C0002C88B976FD230F00C0002C30
:1012400058B900C011FF88B92795889477FD230FFE
:1012500000C000C0002C88B92795889400C0002CDD
:1012600058B900C010FF88B9132F7111122F960FB3
:1012700000C000C0002C88B9119709F086CE20EE7E
:1012800031E0D2010E948F26DC01CB01F4E0B6955B
:10129000A79597958795FA95D1F720E030E0A901B9
:1012A0006AE9469E040C411D569E400D511D1124B5
:1012B000450D511D840F951FA11DB11D893E43E0B1
:1012C0009407A105B10508F434C0885E9340A109D4
:1012D000B10942E0B695A795979587954A95D1F7BC
:1012E00047E0849F080E211D949F200D311D11247D
:1012F000290F311D6091230A70E0860F971F820F1E
:10130000931F4091180A5091190A60911A0A70911E
:101310001B0A292F3327420F531F611D711D409354
:10132000180A5093190A60931A0A70931B0A809343
:10133000230A78947CDAF301708B6787DF91CF9171
:101340001F910F91FF90EF90CF90BF90AF908F9033
:101350007F906F905F904F9008950F931F93CF935E
:10136000DF93CDB7DEB762970FB6F894DEBF0FBE3E
:10137000CDBF8C01F901DC011C968C917A836983C5
:101380005C834B835E834D8390819D8791819E8793
:1013900092819F87813029F4CE0101960E94BB1E65
:1013A00006C01C861B861A86198618861F8283E053
:1013B000888B1A8A198AD801ED91FC910484F585ED
:1013C000E02DBE016F5F7F4FC801199562960FB681
:1013D000F894DEBF0FBECDBFDF91CF911F910F916B
:1013E00008950F931F93CF93DF93CDB7DEB7629726
:1013F0000FB6F894DEBF0FBECDBF8C01F901DC0142
:101400001C968C917A8369835C834B835E834D83C6
:1014100090819D8791819E8792819F87813029F459
:10142000CE0101960E94BB1E06C01C861B861A8632
:10143000198618861F82188A1A8A198AD801ED918E
:10144000FC910484F585E02DBE016F5F7F4FC801DC
:10145000199562960FB6F894DEBF0FBECDBFDF912F
:10146000CF911F910F910895DC01ED91FC91048CB7
:10147000F58DE02D199480E090E00895FC018585BC
:1014800096850895CF93DF9300D000D0CDB7DEB717
:10149000AB011C821D821E82DC01ED91FC9101904A
:1014A000F081E02D19821A821B829E012F5F3F4F2F
:1014B000BE016C5F7F4F199526960FB6F894DEBF7C
:1014C0000FBECDBFDF91CF9108954091000F242F23
:1014D00030E0281B3109B901665F7F4F6531710526
:1014E00010F092E001C091E0B9016C5E7F4F69326B
:1014F000710508F094E0B901625E7F4F6D337105AC
:1015000008F098E0B901685D7F4F6135710508F01A
:1015100090E12A5B3F4F2D38310508F090E24817E3
:1015200018F4490F4093000F2091000F821718F410
:10153000291B2093000F0895CF92DF92EF92FF9224
:101540001F93CF93DF93EC01CFD9C880D980EA8075
:10155000FB80DC01CB018C199D09AE09BF0911E0AC
:10156000CC80DD80EE80FF808C159D05AE05BF052B
:1015700010F410E003C0CE010E94AF1E812FDF9156
:10158000CF911F91FF90EF90DF90CF900895BF9281
:10159000CF92DF92EF92FF920F931F93CF93DF933F
:1015A00000D000D0CDB7DEB7E091FE0F8091FF0FE5
:1015B000E81741F0E093FF0F81E080935D0EE33088
:1015C00080F52CC080915D0EE33018F4882331F053
:1015D00025C0E73008F063C0811126C080915D0E00
:1015E000811161C080915D0EEA3009F47BC1EB305E
:1015F00009F41FC280915D0EEC3009F49AC2ED30FF
:1016000009F403C3EE3009F4B7C3EF3009F455C44D
:10161000E03109F020C5882309F41DC50E941C197A
:1016200030C5E73008F03BC01EE01E9FF0011124DA
:10163000E35EF04F828193819C838D838FEF8E8355
:10164000BE016F5F7F4FCE010496A4D9AE014F5FFC
:101650005F4F63E271E081EF9AE042DA85E895E05E
:10166000E2D5E091FE0F1E9FF0011124E35EF04FE2
:10167000438150E060E070E02AE083E69EE051D7CD
:1016800081ED95E0D0D5E091FE0F1E9FF001112471
:10169000E35EF04F82818DD710925D0EF2C4E93087
:1016A00008F0AFC09BCF80915E0E882309F4E2C49E
:1016B0001BD928EE33E040E050E00E941426CA0116
:1016C000B9012FE030E040E050E00E9414269091F4
:1016D00004029617B9F060930402653069F028F4AB
:1016E000611110C082E390E009C06A3029F06F30C8
:1016F00049F48AEA90E002C08FEF90E090930302F1
:101700008093020280912C0A811113C084E29AE036
:101710000E94AF1E88E290E0A0E0B0E08093280A2B
:101720009093290AA0932A0AB0932B0A81E0809310
:101730002C0A84E29AE000DF882309F419C3E091BF
:10174000FE0F8EE0E89FF0011124E35EF04F63810D
:10175000462F440F669585E090E0B8D48095C8D5B3
:1017600080910A0290910B02E5E0F8E08E9FA001C3
:101770008F9F500D9E9F500D1124475E594C9A012A
:10178000A3E2B1E00E9436266C01EE24FF24109102
:1017900002024E9FC0014F9F900D5E9F900D11243D
:1017A0009C01275E394C30930B0220930A02AFEF65
:1017B000B0E00E9436268C831D838FEF8E83BE019E
:1017C0006F5F7F4FCE010496E5D83981F601EE0FA9
:1017D000FF1FCF018C0D9D1DFC01EF50F54F2081A7
:1017E000230F08F42FEF20833A812181230F08F47F
:1017F0002FEF21833B812281230F08F42FEF2283D7
:10180000B7C2E93009F0EECE80915D0E882309F46D
:1018100022C480915E0E882309F41DC480913E0A83
:10182000811113C086E39AE00E94AF1E88E290E027
:10183000A0E0B0E080933A0A90933B0AA0933C0A60
:10184000B0933D0A81E080933E0A86E39AE074DE1D
:10185000882309F48DC2E091FE0F0EE00E9FF00187
:101860001124E35EF04F9281F0900502F9829A8391
:101870008FEF8B831091350A1C839D838E83BE016D
:101880006F5F7F4FCE0104966DD5E091FE0F0E9FE6
:10189000F0011124E35EF04F8381813880F090E005
:1018A000805891096AE070E00E9474261F5F160F4D
:1018B0001093350AF3946F0D6093050259C290910D
:1018C000340A981748F481E88093340A1F5F109314
:1018D000350AF394F09205028091340A8150809386
:1018E000340A46C2882309F4B6C380915E0E882369
:1018F00009F4B1C38091500A811113C088E49AE0C1
:101900000E94AF1E88E290E0A0E0B0E080934C0A15
:1019100090934D0AA0934E0AB0934F0A81E08093B2
:10192000500A88E49AE008DE882309F421C2E09195
:10193000FE0F7EE0D72EDE9EF0011124E35EF04F15
:1019400092811091060219839A838FEF8B83009105
:10195000470A0C839D838E83BE016F5F7F4FCE014C
:10196000049600D5E091FE0FDE9EF0011124E35EA7
:10197000F04F23812138E0F130E0C9018B54910907
:101980006AE0E62EF12CB7010E947426FB01319625
:10199000C90180589109B7010E9474266F5F7F4F7B
:1019A000AF0185E090E0D8D3800F8093470AE091A3
:1019B000FE0FDE9EF0011124E35EF04F238130E044
:1019C000C9018B549109B7010E947426FB0131961D
:1019D000C90180589109B7010E9474266F5F7F4F3B
:1019E000AF0185E090E0B8D3810F80930602C0C1BB
:1019F0008091460A8217B8F481E88093460A44E051
:101A000050E061E070E083E090E0A6D3800F809327
:101A1000470A44E050E061E070E083E090E09CD34E
:101A2000810F809306028091460A81508093460A76
:101A30009FC1882309F40FC380915E0E882309F4A7
:101A40000AC38091600A811113C088E59AE00E9460
:101A5000AF1E84E190E0A0E0B0E080935C0A909338
:101A60005D0AA0935E0AB0935F0A81E08093600AEA
:101A700088E59AE061DD882309F47AC1E091FE0FE0
:101A80001EE01E9FF0011124E35EF04F82816FE0A3
:101A90000E945426082F8381869586954FEF50E04B
:101AA00060E070E090E058D37C01E091FE0F1E9F53
:101AB000F0011124E35EF04F838166E00E9454261A
:101AC0004FEF50E060E070E090E046D3E80EF91E82
:101AD000E091FE0F1E9FF0011124E35EF04F838121
:101AE0006AE00E9454264FEF50E060E070E090E022
:101AF00033D38E0D9F1D63E070E00E9460266983E2
:101B00008FEF8B8380EF8A8351EFE52E5AE0F52E1D
:101B1000B701CE0101960E94CA048981800F898392
:101B200083E0E80EF11C8AE5E8168EE0F80681F7FE
:101B30001FC1882309F48FC280915E0E882309F4A7
:101B40008AC28091710A811113C089E69AE00E94CD
:101B5000AF1E88E290E0A0E0B0E080936D0A909321
:101B60006E0AA0936F0AB093700A81E08093710AA5
:101B700089E69AE0E1DC882309F4FAC0E091FE0FDF
:101B80000EE00E9FF0011124E35EF04F9281F09081
:101B90000802F9829A838FEF8B831091680A1C8365
:101BA0009D838E83BE016F5F7F4FCE010496DAD393
:101BB000E091FE0F0E9FF0011124E35EF04F838150
:101BC000813880F090E0805891096AE070E00E94CE
:101BD00074261F5F160F1093680AF3946F0D6093BD
:101BE0000802C6C090910702981748F481E88093D4
:101BF00007021F5F1093680AF394F0920802809125
:101C00000702815080930702B3C0882309F423C2DE
:101C100080915E0E882309F41EC28091850A81118D
:101C200013C08DE79AE00E94AF1E88E290E0A0E02A
:101C3000B0E08093810A9093820AA093830AB093C4
:101C4000840A81E08093850A8DE79AE075DC882319
:101C500009F48EC0E091FE0F8EE0E89FF0011124A0
:101C6000E35EF04F8381813878F060917C0A21E057
:101C7000260F90E0805891096AE070E00E94742677
:101C8000620F60937C0A11C090910902981740F48A
:101C900081E88093090280917C0A8F5F80937C0A9F
:101CA0008091090281508093090220917B0A8091E2
:101CB000790A90917A0A2230A1F038F4222371F047
:101CC000213039F589831A8212C0243091F068F0EE
:101CD0002530F9F419821A828B8313C089831A8202
:101CE00002C019828A831B8207C019828A831B82E1
:101CF00008C019821A828B8330917C0A830F911D50
:101D000004C030917C0A831B910990937A0A8093D6
:101D1000790A8091790A90917A0A8F3F910551F062
:101D20004CF08FEF90E090937A0A8093790A2F5FBE
:101D300020937B0A8091790A90917A0A97FF09C0D3
:101D400010927A0A1092790A80917B0A8F5F8093B1
:101D50007B0A80917B0A863010F010927B0AAE01DC
:101D60004F5F5F4F63E271E081EF9AE00E94700580
:101D700081E080935D0E85C1882309F46CC1809158
:101D80005E0E882309F467C11091BD0A1C3008F06B
:101D900056C0812F8D7F912F997F11F0883011F5DA
:101DA0008091B50A811113C08DEA9AE00E94AF1E9E
:101DB00082E390E0A0E0B0E08093B10A9093B20A91
:101DC000A093B30AB093B40A81E08093B50A8DEA78
:101DD0009AE0B2DB882309F454C18FEF89838A83A8
:101DE0008B8320C08091A50A811113C08DE99AE0F0
:101DF0000E94AF1E82E390E0A0E0B0E08093A10AD1
:101E00009093A20AA093A30AB093A40A81E08093BE
:101E1000A50A8DE99AE090DB882309F432C1198282
:101E20001A821B82AE014F5F5F4F63E271E081EF68
:101E30009AE00E9470051F5F1093BD0A22C1809135
:101E4000950A811113C08DE89AE00E94AF1E82E3CB
:101E500090E0A0E0B0E08093910A9093920AA09362
:101E6000930AB093940A81E08093950A8DE89AE0F2
:101E700063DB882309F405C140910A0250910B02EB
:101E800085E098E0489F9001499F300D589F300DA4
:101E90001124275E394C30930B0220930A02AFEFD6
:101EA000B0E00E943626180F193C18F01092BD0AB7
:101EB000E8C08FE08093BD0AE4C0882309F4CBC05A
:101EC00080915E0E882309F4C6C08091D70A8111E3
:101ED00013C08FEC9AE00E94AF1E88E290E0A0E071
:101EE000B0E08093D30A9093D40AA093D50AB0931C
:101EF000D60A81E08093D70A8FEC9AE01DDB882315
:101F000009F436CFE091FE0F8EE0E89FF001112436
:101F1000E35EF04F1381163008F416E08091C70A93
:101F2000811113C08FEB9AE00E94AF1E88EE93E000
:101F3000A0E0B0E08093C30A9093C40AA093C50ABE
:101F4000B093C60A81E08093C70A8FEB9AE0F4DA77
:101F5000882389F080915E0E882369F00091BE0A83
:101F6000812F6AE00E9454264AE061E090E0AED002
:101F7000800F8093BE0A812F66E00E945426082FAE
:101F800010E048ED50E068E470E0C801E5D06C0175
:101F900042E251E060E070E0C801DED07C0142EC3A
:101FA00050E061E670E0C801D7D0E091FE0F1EE07E
:101FB0001E9FF0011124E35EF04F2281B090BE0A13
:101FC00038E23B0D39832A830FEF0B83BC01660F88
:101FD000771F860F971FBC016F50754FCE0101967A
:101FE0000E94CA04E091FE0F1E9FF0011124E35EDF
:101FF000F04F828194E19B0D99838A830B83B60114
:10200000660F771F6C0D7D1D6F50754FCE010196C9
:102010000E94CA04E091FE0F1E9FF0011124E35EAE
:10202000F04F8281B9828A830B83B701660F771FD5
:102030006E0D7F1D6F50754FCE0101960E94CA0430
:10204000E091FE0F1E9FF0011124E35EF04F8485A6
:1020500086504ED18DCE80915D0E882391F0809177
:102060005E0E882371F08BE995E0DDD08091FE0F44
:10207000A0D207C0EA3009F438CCEB3009F0BACA74
:10208000DBCC26960FB6F894DEBF0FBECDBFDF9136
:10209000CF911F910F91FF90EF90DF90CF90BF9065
:1020A00008956115710579F0FB0101900020E9F7B1
:1020B0003197AF01461B570BDC01ED91FC9102807B
:1020C000F381E02D199480E090E008950F931F9321
:1020D000CF93DF938C01C62FD42F8F3F910509F04A
:1020E00010F4102F00270E9474049B01AC01A8E19A
:1020F000B1E00E940A269B01AC01D8010E940A2689
:10210000292F96FD2095E22FEF732F7096FD2F5FFC
:10211000E695E695E695E670F0E0ED5AFD4F3181E3
:10212000329F202D312D112422952F703295307F32
:10213000232B3081230F97FD21953D2F3C1B2058E9
:10214000239F020E20E0211D1124822F8C0FDF918E
:10215000CF911F910F910895EF92FF920F931F93CC
:10216000CF93DF937C01EB018A018FEFE816F10436
:1021700009F010F4FE2CEE240E9474049B01AC01C3
:10218000A8E1B1E00E940A269B01AC01D7010E94A0
:102190000A26AC0166277727CA019F739695879513
:1021A00096958795969587959A0122273074232BCB
:1021B00031F02FEF37E0F901E81BF90BCF01E92FE0
:1021C000EE0FEE0FF0E0EC5CFD4F2081318192814B
:1021D0008695989F200D311D112457FF03C031951E
:1021E000219531093058A8014C1B5D0B249FC0017B
:1021F000359FD001E0E0349F900DA11DBE1F259FAB
:10220000900DA11DBE1F1124BC01CD01620F731FD3
:102210008E1F9E1F8C0F9D1FDF91CF911F910F91DD
:10222000FF90EF900895BC0183E69EE03ACFCF93F4
:10223000DF93BC0183E69EE034DFEC016CE073E0E9
:1022400083E69EE02EDF8C0F9D1FDF91CF910895D6
:10225000CF92DF92EF92FF920F931F93CF93DF9372
:102260008091041090910510EC012196D0930510F7
:10227000C093041049979CF10E9474048B019C0147
:1022800088EE93E0C89FB001C99F700DD89F700D74
:102290001124072E000C880B990BC0900010D090D1
:1022A0000110E0900210F0900310A90198012C1980
:1022B0003D094E095F090E9414263093020F2093B6
:1022C000010F10920510109204100E947404609384
:1022D0000010709301108093021090930310DF910F
:1022E000CF911F910F91FF90EF90DF90CF900895C5
:1022F000CF93DF93382FE1EFFAE0A3EFBAE020812C
:10230000239F020E20E0211D2083ED012A91239FAF
:10231000020E20E0211D28832C91239F020E20E035
:10232000211D2C931124339613968EE0EA35F8077D
:1023300031F7DF91CF910895DC01E091EF0AF09140
:10234000F00A309771F02C9111969C91119712968A
:102350008C9112972683978380870480F581E02DE6
:10236000F0CF08954F925F926F927F928F929F92DB
:10237000AF92BF92CF92DF92EF92FF920F931F9393
:10238000CF93DF9300D0CDB7DEB7DC01FB019081A6
:1023900041810C911196EC91119712962C9141115B
:1023A00001C0902F222311F0E11101C0092FF0E0AC
:1023B00030E0901B50E8959FC001112452E2E52EB9
:1023C000FF24F394B7010E9474265B01842F90E0F0
:1023D0008E1B9F0B9695982F882797958795B70109
:1023E0000E9474266B018FEF90E0821B930B9695F1
:1023F000982F882797958795B7010E947426AA0C75
:10240000BB1CCC0CDD1C7B01EE0CFF1C10E0102F64
:1024100000277E2E6624922E882451EF452E5AE006
:10242000552E19837A829B82B201CE0101960E94B9
:10243000CA040A0D1B1D6C0C7D1C8E0C9F1C83E0B6
:10244000480E511CEAE54E16EEE05E0651F70F907D
:102450000F900F90DF91CF911F910F91FF90EF9010
:10246000DF90CF90BF90AF909F908F907F906F90B4
:102470005F904F900895CF93C82F462F61E070E092
:102480000E942B1E61E070E08C2F0E94541E81116F
:10249000F9CFCF910895AF92BF92CF92DF92EF9292
:1024A000FF920F931F93CF93DF931F921F92CDB78D
:1024B000DEB77A836983BA01A901E981FA81F770ED
:1024C000082F10E0000F111F0951154FD8018D91F1
:1024D0009C918E0F9F1F2E0F3F1F2130384098F088
:1024E0007A015B0120E038E06901CE1ADF0AA6011B
:1024F0000E94C105A7014C195D09B5016C0D7D1D38
:10250000F801808191810F900F90DF91CF911F9101
:102510000F91FF90EF90DF90CF90BF90AF900C9411
:10252000C1054F925F926F927F92EF92FF920F934D
:102530001F93CF93DF93CDB7DEB7A1970FB6F89473
:10254000DEBF0FBECDBF7C01FA01CB0119A2223044
:1025500008F42AE08E010F5D1F4F422E512C612C92
:10256000712CBF01A30192010E941426F901CA0136
:10257000015011096A3014F4605D01C0695CD80132
:102580006C93232B242B252B61F7B801C70189DD20
:10259000A1960FB6F894DEBF0FBECDBFDF91CF91ED
:1025A0001F910F91FF90EF907F906F905F904F90F1
:1025B0000895CF93DF93482F50E060E070E02AE069
:1025C00083E69EE0AEDFEC016CE073E083E69EE024
:1025D00068DD8C0F9D1FDF91CF910895AF92BF9260
:1025E000CF92EF920F931F93CF93DF93B62EEA0112
:1025F00090E040915F0E5091600E4817590709F026
:102600003FC08091620E9091610E811102C09923AA
:10261000B9F18881422F50E0682F70E0992371F062
:102620004C0D511D461757072CF48C1988838FEBDE
:1026300095E00DC0288386EC95E009C04E0D511D34
:1026400046175707BCF78E1988838DEC95E0EBDDB4
:1026500011E010935D0E84ED95E0E5DD8881A9DF42
:1026600010935A0E602F70E08FEF90E00E94742656
:102670008881869F602D112460935B0E1092620EFC
:102680006B2D70E080915F0E9091600E861797071A
:1026900009F03FC08091620E9091610E811102C0DD
:1026A0009923B9F18881A02EB12C282F30E0A50103
:1026B000992371F04C195109241735072CF4C80ED1
:1026C000C8828FEB95E00DC0088386EC95E009C0C9
:1026D0004E19510924173507BCF7E80EE8828DEC36
:1026E00095E0A1DD01E000935D0E84ED95E09BDDBA
:1026F00088815FDF00935A0E8FEF90E0B5010E9452
:1027000074268881869F602D112460935B0E109241
:10271000620EDF91CF911F910F91EF90CF90BF90FC
:10272000AF900895CF92DF92EF92FF92CF93DF9315
:102730006B017C01E091630EF091640E0190F081D9
:10274000E02D6DE283E69EE01995EC0144275527C4
:10275000BA014C195D096E097F092AE083E69EE003
:10276000E0DE8C0F9D1FDF91CF91FF90EF90DF9007
:10277000CF900895CF93DF93AC01990F660B770B41
:1027800077FF04C0CB01BA01CDDF04C02AE083E6A5
:102790009EE0C7DEEC016CE073E083E69EE081DC46
:1027A0008C0F9D1FDF91CF910895CF93DF9384E22B
:1027B0000E94840320917F1030E08217930709F470
:1027C0002FC284EE95E033DD90917F1081E0892760
:1027D00080937F1086E10E948403892BA9F488E10D
:1027E0000E948403892B81F48AE10E948403892B4F
:1027F00059F48CE10E948403892B31F48EE10E940C
:102800008403892B09F418C286E10E948403892B72
:10281000A9F488E10E948403892B81F48AE10E9453
:102820008403892B59F48CE10E948403892B31F4B1
:102830008EE10E948403019709F405C286E10E949B
:102840008403892BA9F488E10E948403892B81F4F5
:102850008AE10E948403892B59F48CE10E9484034D
:10286000019731F48EE10E948403892B09F4F2C1AF
:1028700086E10E948403892BA9F488E10E948403E5
:10288000892B81F48AE10E948403892B59F48CE11D
:102890000E948403019731F48EE10E948403019722
:1028A00009F4DFC186E10E948403892BA9F488E141
:1028B0000E948403892B81F48AE10E94840301979A
:1028C00059F48CE10E948403892B31F48EE10E943B
:1028D0008403892B09F4CCC186E10E948403892BEF
:1028E000A9F488E10E948403892B81F48AE10E9483
:1028F0008403019759F48CE10E948403892B31F4FD
:102900008EE10E948403019709F4B9C186E10E9417
:102910008403892BA9F488E10E948403892B81F424
:102920008AE10E948403019759F48CE10E94840398
:10293000019731F48EE10E948403892B09F4A6C12A
:1029400086E10E948403892BA9F488E10E94840314
:10295000892B81F48AE10E948403019759F48CE168
:102960000E948403019731F48EE10E948403019751
:1029700009F493C186E10E948403892BA9F488E1BC
:102980000E948403019781F48AE10E948403892BC9
:1029900059F48CE10E948403892B31F48EE10E946A
:1029A0008403892B09F480C186E10E948403892B6A
:1029B000A9F488E10E948403019781F48AE10E94CE
:1029C0008403892B59F48CE10E948403892B31F410
:1029D0008EE10E948403019709F46DC186E10E9493
:1029E0008403892BA9F488E10E948403019781F470
:1029F0008AE10E948403892B59F48CE10E948403AC
:102A0000019731F48EE10E948403892B09F458C1A7
:102A100086E10E948403892BA9F488E10E94840343
:102A2000019781F48AE10E948403892B59F48CE197
:102A30000E948403019731F48EE10E948403019780
:102A400009F445C186E10E948403892BB1F488E131
:102A50000E948403019789F48AE10E948403EC01B7
:102A6000019759F48CE10E948403892B31F48EE1A3
:102A70000E948403892B09F431C186E10E948403FA
:102A8000892BA9F488E10E948403019781F48AE1EB
:102A90000E948403019759F48CE10E948403892BDE
:102AA00031F48EE10E948403019709F41CC186E190
:102AB0000E948403892BA9F488E10E948403019772
:102AC00081F48AE10E948403019759F48CE10E9409
:102AD0008403019731F48EE10E948403892B09F469
:102AE00009C186E10E948403892BA9F488E10E9430
:102AF0008403019781F48AE10E948403019759F4C9
:102B00008CE10E948403019731F48EE10E948403DA
:102B1000019709F4F6C086E10E9484030197A9F4A5
:102B200088E10E948403892B81F48AE10E94840356
:102B3000892B59F48CE10E948403892B31F48EE1B6
:102B40000E948403892B09F4E3C086E10E94840378
:102B50000197A9F488E10E948403892B81F48AE11A
:102B60000E948403892B59F48CE10E948403892BF1
:102B700031F48EE10E948403019709F4D0C086E10C
:102B80000E9484030197A9F488E10E948403892BA1
:102B900081F48AE10E948403892B59F48CE10E941C
:102BA0008403019731F48EE10E948403892B09F498
:102BB000BDC086E10E9484030197A9F488E10E94C8
:102BC0008403892B81F48AE10E948403892B59F4C0
:102BD0008CE10E948403019731F48EE10E9484030A
:102BE000019709F4AAC086E10E9484030197A9F421
:102BF00088E10E948403892B81F48AE10E94840386
:102C0000019759F48CE10E948403892B31F48EE101
:102C10000E948403892B09F497C081E08093620E9F
:102C200082E20E94840321E0892B09F420E02093B2
:102C3000610EDF91CF9108958AE090E09093600E4D
:102C400080935F0EE1CD8BE090E09093600E8093D7
:102C50005F0EF4CD8CE090E09093600E80935F0E59
:102C600007CE8DE090E09093600E80935F0E1ACEB9
:102C70008EE090E09093600E80935F0E2DCE8FE0FB
:102C800090E09093600E80935F0E40CE80E190E0E4
:102C90009093600E80935F0E53CE81E190E090930D
:102CA000600E80935F0E66CE82E190E09093600E9E
:102CB00080935F0E79CE1092600E10925F0E8ECED2
:102CC00083E190E09093600E80935F0EA1CE84E14B
:102CD00090E09093600E80935F0EB4CED093600E20
:102CE000C0935F0ECACE82E090E09093600E809316
:102CF0005F0EDDCE83E090E09093600E80935F0ED8
:102D0000F0CE84E090E09093600E80935F0E03CF4E
:102D100085E090E09093600E80935F0E16CF86E082
:102D200090E09093600E80935F0E29CF87E090E053
:102D30009093600E80935F0E3CCF88E090E090937C
:102D4000600E80935F0E4FCF89E090E09093600E0D
:102D500080935F0E62CF3F924F925F926F927F920D
:102D60008F929F92AF92BF92CF92DF92EF92FF929B
:102D70000F931F93CF93DF9300D000D0CDB7DEB772
:102D800089E693E0E1EFFAE0AEE4B6E001900D925F
:102D90000197E1F7E091FE0F8EE0E89FF00111242A
:102DA000E35EF04F85819681892B99F41C821D8208
:102DB0001E82BE016F5F7F4FCE0104960E94CA043F
:102DC000AE014F5F5F4F67EB70E082E997E00E94D2
:102DD0007005E091FE0F9EE0E99FF0011124E35E93
:102DE000F04F85819681019799F41C821D821E8285
:102DF000BE016F5F7F4FCE0104960E94CA04AE01F0
:102E00004F5F5F4F64EC70E08EE496E00E947005C7
:102E1000E091FE0FAEE0EA9FF0011124E35EF04F77
:102E200085819681039769F080915A0E882351F12C
:102E300089E180937A1010925A0E82E196E0F7D9D8
:102E400021C000E516E020E030E03B962332B1E0FF
:102E50003B0799F0608170E0C9010E946026892BD0
:102E600039F0D80112971C9211961C92D8011C922D
:102E70002F5F3F4F0D5F1F4FE9CF309369102093B5
:102E80006810D2CF80917A10882309F470C08091A5
:102E90005B0E882391F1198290E89A831B821AE0D5
:102EA000612F0E945426682F70E0AE014F5F5F4F84
:102EB0008EE496E00E94700519821A821B8280912E
:102EC0005B0E612F0E94542690E069E170E0681B60
:102ED000790B9C01220F331F820F931FAE014F5FAE
:102EE0005F4F825B994F0E9470058FEF8093990628
:102EF00010929A0610929B060EC01092510680E81E
:102F000080935206109253068FEF809354061092CE
:102F10005506109256068FEF80934E0610924F067C
:102F20001092500680917210811112C08AE690E1D1
:102F300016D784E690E0A0E0B0E080936E10909306
:102F40006F10A0937010B093711081E08093721095
:102F50008AE690E10E949C0A882349F080917A10C9
:102F6000815080937A10811102C010925B0EF09014
:102F7000000F8091030F9091040FA091050FB09165
:102F8000060F892B8A2B8B2BE9F00E9417040091E6
:102F90007B1010917C1020917D1030917E10DC010F
:102FA000CB01801B910BA20BB30B0091030F10916F
:102FB000040F2091050F3091060F80179107A2078B
:102FC000B307B8F20E94170460937B1070937C10D3
:102FD00080937D1090937E10E0910B0FF0910C0F79
:102FE000309759F04091070F5091080F6091090FE9
:102FF00070910A0F8F2D1995F82E0091EF0A1091FC
:10300000F00A4F2C512C612C712C0115110509F47B
:103010005EC0F801E4848091010F9091020F843624
:10302000910508F41486D801ED91FC91A280B3803B
:1030300019821A821B82F11014C0F8014585568549
:10304000628173819E012F5F3F4FC801F501199581
:10305000D8011C96EC921C9714960D911C91159713
:10306000D4CFF8013996CE0101966C0148019CE05D
:10307000890E911CDF0113973C902191332001F1BF
:103080002223F1F0822F90E0A0E0B0E09C01AD019E
:103090002F5F3F4F4F4F5F4FC301B2010E94452644
:1030A0009B01AC01832D90E0A0E0B0E0BC01CD011C
:1030B0006F5F7F4F8F4F9F4F0E944526D6018C93A5
:1030C000BFEFCB1ADB0AE815F905A1F6B6CFC0D8D9
:1030D00026960FB6F894DEBF0FBECDBFDF91CF911D
:1030E0001F910F91FF90EF90DF90CF90BF90AF9026
:1030F0009F908F907F906F905F904F903F9008953A
:10310000CF92DF92EF92FF920F931F93CF93DF93B3
:103110008C01EB0180915A0E811104C080915B0EED
:10312000882321F0C2E3D0E002E310E00E9474049F
:10313000C0906410D0906510E0906610F090671019
:10314000AB01BC014C195D096E097F09C801A0E003
:10315000B0E084179507A607B70720F480916310A5
:103160008823A1F00E947404AB01BC014C195D09D5
:103170006E097F09CE01A0E0B0E084179507A6078D
:10318000B707F8F4809163108823D9F00E94740483
:10319000609364107093651080936610909367102D
:1031A0006091631081E06827609363108DE0DF9188
:1031B000CF911F910F91FF90EF90DF90CF900C94E3
:1031C000AC03DF91CF911F910F91FF90EF90DF90B3
:1031D000CF900895EF92FF920F931F93CF93DF93B9
:1031E000C0914C06D0914D060DE11FE07E0183EEAB
:1031F000E80EF11CCE010E94D825F80161918F01E3
:10320000861719F0CE010E94E0252196CE15DF0524
:1032100089F785E396E00BD8E091FE0F8EE0E89FFA
:10322000F0011124E35EF04F8181DF91CF911F9176
:103230000F91FF90EF90BDC9CF93DF9300D0CDB732
:10324000DEB78FEF89838A838B83AE014F5F5F4F39
:1032500063E271E081EF9AE00E94700510925D0ECA
:103260000F900F900F90DF91CF910895FC01818D09
:10327000928D0895CF93FC01C08D80E590E03BD501
:1032800060E270E08C2FF7D862E070E08C2F0CD5F4
:1032900084FD14C062E070E08C2F06D583FF09C066
:1032A00048E162E070E08C2FD6D424D580E090E035
:1032B0000DC020D580E590E01ED5E6CF40E162E06C
:1032C00070E08C2FC8D416D581E090E0CF9108959E
:1032D000EF92FF921F93CF93DF93EB017A01FC01F2
:1032E000178A168A108D8A81811109C08B818111FC
:1032F00006C08C81811103C08D81882309F1E114FE
:10330000F104F1F080E590E0F6D4BE016E5F7F4FEE
:10331000812F90E0982F882744E050E0845F9B4FF6
:103320000E94EB054F2D60E170E0812F94D44E2D6B
:1033300061E170E0812F8FD4DDD481E090E002C0A4
:1033400080E090E0DF91CF911F91FF90EF90089582
:10335000CF93DF93EC01888D843061F00E94820668
:10336000E88DF0E0EE0FFF1FE058FF4E1182108253
:1033700084E0888FDF91CF9108954F925F926F9292
:103380007F928F929F92AF92BF92CF92DF92EF92F5
:10339000FF920F931F93CF93DF93CDB7DEB7EE97D6
:1033A0000FB6F894DEBF0FBECDBF5C018B014A01A2
:1033B0008FED92E09A8389831C861B8648EE53E04A
:1033C00060E070E04D875E876F87788B27EB32E097
:1033D0003A872987988F8F8B198E1A8E1B8E1C8E99
:1033E00024E029A399AB88AB1AAA1BAA1CAA1DAA80
:1033F0008091110F9091120FA091130FB091140FA3
:103400008EA39FA3A8A7B9A78B839C83AD83BE83FC
:1034100018861F82F80120E080E090E06AE0319198
:10342000332319F140ED430F4A3080F4689FA00127
:10343000699F500D1124CA01C097830F911D37FD5C
:103440009A958F3F910559F350F32BC03E3249F5C1
:10345000233039F1A2E3B0E0AC0FBD1FA20FB11DC4
:103460008C932F5F80E090E0DACF2330D1F48DABE6
:10347000D501ED91FC910488F589E02D8FED92E066
:103480009DA38CA38AA99BA9ACA9BDA98EA39FA328
:10349000A8A7B9A7A401BE016C5D7F4FC50119950E
:1034A0000DC24B815C816D817E818091190F90915D
:1034B0001A0FA0911B0FB0911C0F481759076A07EC
:1034C0007B0709F4F9C10E9474046F7077277C5F51
:1034D000CE01099613D4813009F0EBC18FED92E053
:1034E0009DA38CA38B819C81AD81BE818EA39FA364
:1034F000A8A7B9A745E350E0BE016C5D7F4FCE01A0
:103500000996E6DE892B19F400E010E067C10E94FD
:10351000740478876F837627672776277DA36CA34B
:1035200042E050E0BE016C5D7F4FCE010996E2D2D1
:1035300081E090E09FAB8EAB42E050E0BE016A5C60
:103540007F4FCE010996D6D280E091E09FAB8EAB43
:1035500042E050E0BE016A5C7F4FCE010996CAD2BC
:103560001FAA1EAA42E050E0BE016A5C7F4FCE0156
:103570000996C0D242E050E0BE016A5C7F4FCE01A6
:103580000996B8D242E050E0BE016A5C7F4FCE019E
:103590000996B0D27801D7018C91882309F1F801FE
:1035A0007F018191811115C06701C01AD10A1C14D5
:1035B0001D0494F4C8AE41E050E0BE01685C7F4F4A
:1035C000CE01099697D2A601B801CE01099692D2F2
:1035D00003C08E3229F7E8CF87010F5F1F4FDBCF83
:1035E00018AE41E050E0BE01685C7F4FCE01099605
:1035F00081D200E011E01FAB0EAB42E050E0BE0113
:103600006A5C7F4FCE01099675D21FAB0EAB42E0CC
:1036100050E0BE016A5C7F4FCE0109966BD2CE01AD
:10362000099628DE892B09F46FCF63E0E62EF12C92
:103630000E9474042B013C01CE010996E7D11816B3
:103640001906A4F00E947404DC01CB0184199509C9
:10365000A609B70989389341A105B105C8F462E309
:1036600070E080E090E00E943C04E6CF4B815C81FA
:103670006D817E81898D9A8DAB8DBC8D48175907E0
:103680006A077B0741F48D8D9E8DC59721F406C096
:103690002FEF3FEF9AC02EEF3FEF97C08AA19BA17B
:1036A0000C970CF4A7C04CE050E0BE016C5D7F4F5E
:1036B000CE01099663D18EA190E0982F88272FA183
:1036C000822B9BAF8AAF2CA130E0322F22274DA155
:1036D000242B4F8158854217530709F088C097FF64
:1036E00086C08F709270892B09F0E0C00AA510E0A7
:1036F000102F00278BA5082B0115110509F4D3C045
:10370000C12CD12C88A590E0982F882729A5822B41
:10371000C816D90608F471C0C12CD12C41E050E084
:10372000BE01645C7F4FCE01099628D18CAD982FE5
:10373000907C09F095C0811188C08CAD8111EECFCD
:1037400042E050E0BE01685C7F4FCE01099616D181
:1037500042E050E0BE016A5C7F4FCE0109960ED177
:10376000CE0109962AD1CE01099627D1CE0109961C
:1037700024D1CE01099621D142E050E0BE01665C21
:103780007F4FCE010996FAD088AD99AD8115914051
:1037900009F06BC02EA93FA93227232732272130F9
:1037A000310509F062C08AAD9BAD8115944009F0E6
:1037B00077C044E050E0BE016E5C7F4FCE010996B9
:1037C0002DAF3EAFDBD02DAD3EAD8901B1E0EB1AA0
:1037D000F10821F02F3F3F4F09F42ACFCE0109967F
:1037E000B7DD0130110509F443CEC80167C02CEFE5
:1037F0003FEFEBCF2DEF3FEFE8CF41E050E0BE01D0
:103800006A5C7F4FCE010996B9D08EA9811113C091
:103810008EA98111F2CFCE010996CFD0CE010996A3
:10382000CCD0CE010996C9D0CE010996C6D0FFEF03
:10383000CF1ADF0A67CF8EA99FEF980F9EAB882320
:1038400039F3CE010996B9D0F6CF8CAD9FEF980F22
:103850009CAF882309F471CFCE010996AED0F5CF85
:10386000CE010996AAD01CAE68CF612C712C8AAD0E
:103870009BAD9827892798276816790638F4CE01DA
:1038800009969BD08FEF681A780AF1CFAFEFCA1A6A
:10389000DA0AC016D10609F041CF26EF3FEF95CFE7
:1038A00027EF3FEF92CF2AEF3FEF8FCF2BEF3FEF86
:1038B0008CCF80E090E002C08EEF9FEFEE960FB6C7
:1038C000F894DEBF0FBECDBFDF91CF911F910F9156
:1038D000FF90EF90DF90CF90BF90AF909F908F9030
:1038E0007F906F905F904F900895CF93DF931F92DA
:1038F000CDB7DEB76983DC01ED91FC910280F381E5
:10390000E02D41E050E0BE016F5F7F4F19950F90B1
:10391000DF91CF910895FF920F931F93CF93DF9381
:103920001F92CDB7DEB7FC01218D328D232BE9F03C
:10393000F08C80E590E0DFD168E270E08F2DB4D1AB
:10394000082F10E069E270E08F2DAED1702F66274E
:10395000682B21E030E0AE014F5F5F4F8F2D0E945A
:103960004B12C8D1898190E002C08FEF9FEF0F907A
:10397000DF91CF911F910F91FF900895CF93DF9327
:10398000FC01218D328D2115310519F48FEF9FEF48
:1039900011C0EC014217530708F0A901888D0E945D
:1039A00014061816190694F7298D3A8D281B390B21
:1039B0003A8F298FDF91CF9108950F931F93CF9363
:1039C000DF931F92CDB7DEB7FC01218D328D232B03
:1039D00061F08C0141E050E0BE016F5F7F4F808D50
:1039E0000E941406181619061CF08FEF9FEF08C0EE
:1039F000F801818D928D0197928F818F898190E05E
:103A00000F90DF91CF911F910F910895BF92CF92A8
:103A1000DF92EF92FF920F931F93CF93DF93CDB777
:103A2000DEB728970FB6F894DEBF0FBECDBF8C016E
:103A3000F801818D928D892B49F0D801ED91FC918F
:103A40000284F385E02DC8011995F2CFB08C80E592
:103A500090E051D1E12CF12C8B2D0E948A056C0154
:103A6000892B21F08B2D0E948A057C01EC14FD042A
:103A700099F740D11E141F045CF548E050E0BE01E8
:103A80006F5F7F4FD80158968C910E9414069C015D
:103A900018161906DCF489819A81AB81BC81F80182
:103AA000808B918BA28BB38B8D8190E0982F882790
:103AB0002E81820F911D958B848B2F8130E0322FC8
:103AC00022278885280F311D328F218FC90102C01E
:103AD00080E090E028960FB6F894DEBF0FBECDBF11
:103AE000DF91CF911F910F91FF90EF90DF90CF90DA
:103AF000BF9008957F928F929F92AF92BF92CF9284
:103B0000DF92EF92FF920F931F93CF93DF935C01AD
:103B10004B016A01FC0106891789708C80E590E0F1
:103B2000EAD0C0E0D0E0872D0E94A2057C01892B5D
:103B300021F0872D0E94A205EC01CE15DF0599F733
:103B4000CC15DD0578F4C0E0D0E0872D0E94A205F9
:103B50006C01892B21F0872D0E94A205EC01CC1568
:103B6000DD0599F764E270E0872D9ED0E82EF12CF8
:103B700065E270E0872D98D0FE2CEE24E82AE7015C
:103B8000C00FD11F9E013770E72CF12CC701880FA1
:103B9000991FAC014152554F7A01FA018081918100
:103BA000820F931FA9014C0D5D1D4130584090F0CC
:103BB00000E018E0021B130BA801B4010E94EB0502
:103BC000A601401B510BB401600F711FF7018081EA
:103BD000918102C0A601B4010E94EB05CC0DDD1D50
:103BE0004D2F64E270E0872D36D04C2F65E270E0F7
:103BF000872D31D07FD0F501868997898C0D9D1D49
:103C0000978B868BC601DF91CF911F910F91FF900B
:103C1000EF90DF90CF90BF90AF909F908F907F906C
:103C20000895FC018489958908952FED32E0FC0107
:103C300031832083FB014089518962897389FC01AA
:103C40004283538364837583089580E008950895C3
:103C500080E090E008950F931F93CF93DF931F921E
:103C6000CDB7DEB7282F30E02C5F3F4F322F222711
:103C70008901060F171F49830E94880580EF0E9463
:103C8000BA05812F0E94BA05802F0E94BA0549818A
:103C9000842F0E94BA050E94860581E00F90DF9173
:103CA000CF911F910F9108950F931F93CF93DF939F
:103CB0001F92CDB7DEB790E00496982F88278C012D
:103CC000060F171F0E9488058FE00E94BA05812FFA
:103CD0000E94BA05802F0E94BA0580E00E94BA05B2
:103CE00089830E94860589810F90DF91CF911F9172
:103CF0000F91089508958CBD9DBD0895EF92FF9298
:103D00001F93CF93DF93FC01208D243011F080E0CE
:103D100020C07B01EC0110E080E590E0ECDF63E087
:103D200070E0812FC1DF811102C0188F05C088317A
:103D3000E1F31F5F143081F7888D843041F3FD86F5
:103D4000EC861A8E198E20E0A70162E00E9496068A
:103D500081E0DF91CF911F91FF90EF900895CF9375
:103D6000DF93EC010E947404688379838A839B83C8
:103D7000DF91CF910895EF92FF920F931F93CF930E
:103D8000DF93EC01909188109F5F292F277020937B
:103D9000881090FF02C090E801C090E021FD90647F
:103DA000247009F0906220E1290FFE013C967E010B
:103DB0008FE0E80EF11C00E011E06191662329F02C
:103DC00070E0C80191D76F5F01C060E0DF01149718
:103DD0006C93322F369F030E30E0311D1124CF013A
:103DE0000797311103C0EC01188203C03150EC0178
:103DF0003883662311F061506C93EE15FF05E9F6E8
:103E0000DF91CF911F910F91FF90EF900895CF9385
:103E1000DF9300D0CDB7DEB7789484B5826084BDDF
:103E200084B5816084BD85B5826085BD85B58160BE
:103E300085BD80916E00816080936E00109281003C
:103E400080918100826080938100809181008160F7
:103E500080938100809180008160809380008091B8
:103E6000B10084608093B1008091B0008160809344
:103E7000B0008091910082608093910080919100C8
:103E80008160809391008091900081608093900088
:103E90008091A10082608093A1008091A100816047
:103EA0008093A1008091A00081608093A000809108
:103EB00021018260809321018091210181608093A2
:103EC00021018091200181608093200180917A00FE
:103ED000846080937A0080917A00826080937A0077
:103EE00080917A00816080937A0080917A00806866
:103EF00080937A001092C1008091CA09811145C057
:103F00001092BC091092BB098FEF8093BF09809378
:103F1000C0098093C1098093C2098093C30980932B
:103F2000C40981E08093C5091092C7091092C6099F
:103F30001092BE091092BD098091EF0A9091F00A8B
:103F4000892B31F489EB99E09093F00A8093EF0A82
:103F5000E091B709F091B809309721F089EB99E029
:103F60009583848389EB99E09093B8098093B7098E
:103F70001092C9091092C80980E292E09093BA09A0
:103F80008093B90981E08093CA09E091B909F09161
:103F9000BA090480F581E02D89EB99E019958EE44A
:103FA00096E09093BC098093BB0983E291E09093E3
:103FB000C7098093C609E091B909F091BA09028452
:103FC000F385E02D89EB99E01995009709F19C01A3
:103FD00040E050E060E472E48FE090E0FFD5809034
:103FE000030F9090040FA090050FB090060FC90129
:103FF000DA0188159905AA05BB0510F4D501C4019D
:104000008093030F9093040FA093050FB093060FB6
:104010001092000FE091EF0AF091F00A81E03097E2
:1040200029F084870480F581E02DF9CF8FEF898313
:1040300080EB8A8380EF8B83CE0101960E949C11D6
:10404000E091730EF091740E82E08083E0916F0E28
:10405000F091700E1082E091710EF091720E80E17D
:10406000808310927B0EE091770EF091780E86E0BF
:104070008083E091750EF091760E8081806180835F
:10408000E091750EF091760E808188608083E091DA
:10409000750EF091760E808180688083E091750EB8
:1040A000F091760E80818F7D808387EE92E00E9472
:1040B000131189EF92E00E9417118DEF92E00E9498
:1040C00013112AE04DEA5AEC6DE270E083E69EE0BF
:1040D0000E9491126CE073E083E69EE00E94511012
:1040E00060E084E20E94DB0360E082E20E94DB0386
:1040F00060E08EE10E94DB0360E08CE10E94DB0364
:1041000060E08AE10E94DB0360E088E10E94DB035B
:1041100060E086E10E94DB0361E08DE00E94DB034A
:1041200061E085E30E94DB032091D4093091D50939
:104130008091D2099091D3092817390731F480E290
:1041400090E09093D3098093D2096091D209709145
:10415000D309613020E1720734F480E090E190935C
:10416000010280930002CB018D519F4F9093D5099E
:104170008093D40970934D0660934C0643EE50E053
:104180008DE19FE005D580911D0F8A3011F11092CD
:10419000FE0FE8E2FFE080E090E050E843E03FE718
:1041A00021E0DF011A975C93408311963C931196AE
:1041B0002C9311961C929383828301963E968131B3
:1041C000910579F78AE080931D0F04D88FE093E082
:1041D00002C08EE393E00E94171160E085E30E9425
:1041E000AC036AEF70E080E090E00E943C0481E064
:1041F00080935D0E80935C0E88248A94982CA82C62
:10420000B12C44244A940CE9502E00E4602E712C09
:104210000E94D5138091100A811112C088E09AE0A3
:104220009EDD8AE090E0A0E0B0E080930C0A9093DD
:104230000D0AA0930E0AB0930F0A81E08093100A32
:1042400088E09AE00E949C0A882309F45DC3E0910B
:10425000060AF091070AEA30F10508F03BC3882707
:10426000EE58FF4F8F4F53C50E94D51337C380912F
:104270005F0E9091600E0A9709F030C38091620E34
:10428000882309F42BC380915C0E11E08127809371
:104290005C0E811147C084E593E00E941311809168
:1042A0005C0E90E00E94BA130E94EA188091000F01
:1042B000882349F18091DE09811111C086ED99E0D2
:1042C0004EDD8EE190E0A0E0B0E08093DA099093BB
:1042D000DB09A093DC09B093DD091093DE0986EDBC
:1042E00099E00E949C0A882339F080E00E94650AC8
:1042F0000E94C70A0E94AB166AE070E084E690E074
:104300000E948018D3CF89E793E00E9417116AEFCB
:1043100070E080E090E00E943C0461E085E30E9450
:10432000AC0319C08EE993E00E94131180915C0EDA
:1043300090E00E94BA1360E085E30E94AC0362E360
:1043400070E080E090E00E943C0482EC93E00E94E8
:10435000171110935D0E1092620EC0C28091620E12
:10436000882309F180915F0E9091600E0697D9F431
:1043700084EE93E00E9413118091FE0F813031F0A2
:1043800018F01092FE0F05C081E001C082E080931A
:10439000FE0F8FEF898380EB8A8380EF8B83CE01C2
:1043A00001960E949C118091620E882311F18091E8
:1043B0005F0E9091600E0997E1F48CE094E00E940A
:1043C00013118FEF8093FE0F22E030E03093151D24
:1043D0002093141D8092161D9092171DA092181DF7
:1043E000B092191D89838A838B83CE0101960E9426
:1043F0009C118091620E8823B9F080915F0E90919C
:10440000600E049789F486E394E00E9413118FE014
:104410008093FE0F8FEF898380EB8A8380EF8B83FD
:10442000CE0101960E949C118091620E882319F1A1
:1044300080915F0E9091600E0897E9F48AE594E010
:104440000E9413118091FE0F8A3031F08B3031F0D1
:10445000893021F48AE003C08BE001C089E08093B9
:10446000FE0F8FEF898380EB8A8380EF8B83CE01F1
:1044700001960E949C118091620E8823E9F0809140
:104480005F0E9091600E0597B9F481E894E00E9468
:1044900013118091FE0F8C3011F48DE001C08CE07F
:1044A0008093FE0F8FEF898380EB8A8380EF8B836D
:1044B000CE0101960E949C118091620E882309F121
:1044C00080915F0E9091600E0297D9F485EA94E096
:1044D0000E9413118091FE0F873021F0883021F463
:1044E0008EE003C088E001C087E08093FE0F8FEF6D
:1044F000898380EB8A8380EF8B83CE0101960E94B3
:104500009C118091620E882329F180915F0E909119
:10451000600E0797F9F48CEC94E00E9413118091DF
:10452000FE0F843031F0853031F0833031F484E097
:1045300005C085E003C086E001C083E08093FE0FE4
:104540008FEF898380EB8A8380EF8B83CE01019686
:104550000E949C119091FE0F8091FF0F981709F413
:10456000BDC180915C0E811115C060E085E30E94A1
:10457000AC0362E370E080E090E00E943C0486EFD0
:1045800094E00E94171181E080935C0E8091FE0FF1
:104590008093FF0F81E080935D0E80935E0E1092FA
:1045A000620E80935A0E10925B0E8BE195E00E9492
:1045B00013118091FE0F0E94D91290C14091FE0FFD
:1045C0009EE0499FA0011124415E504FAAE0CA2EEF
:1045D000B5E0EB2E0FEF2AE062E180E142C04091AE
:1045E000FE0FAEE04A9FA0011124405E504FEAE06A
:1045F000CE2EF5E0EF2E0FEF21E06FE08DE031C021
:104600004091FE0FBEE04B9FA0011124425E504F2F
:104610006AE0C62E75E0E72E0FEF25E06BE081E142
:1046200020C04091FE0F2EE0429FA0011124FA010C
:10463000E35EF04F85819681039749F4485D504FC2
:1046400022E0C22E32E0E32E02E322E008C0475D02
:10465000504F8AE0C82E95E0E92E0FEF21E064E18B
:1046600080E00E94EE123AC18091620E882309F424
:10467000D8C08091610E8111D4C080915F0E90915D
:10468000600E0E9709F0CDC0E091FE0FE33008F008
:10469000BDC08E2F90E0AEE0EA9FF0011124E35EF2
:1046A000F04F47815085618572854A3AB6ED5B07C8
:1046B000BFEF6B07710509F464C07CF54932A3E9CB
:1046C0005A07AFEF6A07710509F451C05CF44F3F18
:1046D000524E694C710509F063C04782508661866D
:1046E00072866EC04C35ACEA5A07AFEF6A077105A7
:1046F00009F442C04F38554C6F4F710509F050C056
:104700002EE0289FF001299FF00D1124E35EF04F69
:104710008AEA96EDAFEFB0E04FC0443F2AEF520770
:104720002FEF6207710591F154F4403E514F6F4FE6
:104730007105B1F584EF9AEFAFEFB0E03DC04B3FAC
:104740002FEF52076207710531F14F3F5F4F6F4FF7
:10475000710531F52EE0289FF001299FF00D1124FD
:10476000E35EF04F8FEF92EEA9ECB0E025C08CE550
:104770009CEAAFEFB0E020C08FE895ECAFEFB0E07F
:104780001BC080EE91EFAFEFB0E016C08BEF9FEF54
:10479000AFEFB0E011C087829086A186B28610C0CC
:1047A0002EE0289FF001299FF00D1124E35EF04FC9
:1047B00089E293E9AFEFB0E087839087A187B28762
:1047C00087E295E00E941311E091FE0F9EE0E99FC1
:1047D000F0011124E35EF04F4781508561857285B9
:1047E00077FF05C0CB01BA010E94921305C02AE0F1
:1047F00083E69EE00E9491126CE073E083E69EE007
:104800000E94511081E080935D0E06C090915E0E73
:1048100081E0892780935E0E1092620E81E0809382
:104820005A0E8091620E882309F458C080915F0E61
:104830009091600E0C9709F051C089E395E00E94B9
:104840001311E091FE0F2E2F30E0AEE0EA9FF00151
:104850001124E35EF04F8581968181309105B1F09E
:104860004CF4892BF9F481E090E09683858384E50C
:1048700095E024C08230910581F0039799F482E09D
:1048800090E09683858380E695E018C083E090E011
:10489000968385838AE595E011C01682158284E6A9
:1048A00095E00CC08EE0829FF001839FF00D1124F3
:1048B000E35EF04F1682158289E695E00E9417119B
:1048C0001092620E81E080935D0E80935A0E1092DA
:1048D0005B0E04C01092070A1092060A8091060A25
:1048E0009091070A01969093070A8093060A2091F7
:1048F0005C0E8A30910521F0049734F0211104C038
:104900001092070A1092060A80915C0E8823A1F18A
:104910000E94281168EB7BE08AE090E00E948018FA
:104920008091FE09811112C086EF99E018DA84E1C6
:1049300090E0A0E0B0E08093FA099093FB09A09387
:10494000FC09B093FD0981E08093FE0986EF99E0B0
:104950000E949C0A882369F0E091FE0FBEE0EB9F65
:10496000F0011124E35EF04F81810E94650A0E94EC
:10497000C70A0E94AB1606C062E070E088EB9BE0BD
:104980000E9480188091EE09811112C086EE99E094
:10499000E6D988E893E1A0E0B0E08093EA0990933B
:1049A000EB09A093EC09B093ED0981E08093EE0947
:1049B00086EE99E00E949C0A8823A9F088E795E09A
:1049C0000E9413114091010F5091020F60E070E0BE
:1049D0002AE083E69EE00E9491126CE073E083E699
:1049E0009EE00E9451100E946B0212CCCF92DF9287
:1049F000EF92FF92E6E0F0E18FED92E09183808309
:104A00001282138214821582E3E6FEE01382128280
:104A100048EE53E060E070E044835583668377831B
:104A20002FE532E03183208325EC30E03587248781
:104A300024EC30E03787268720EC30E0318B208B68
:104A400021EC30E0338B228B22EC30E0358B248B51
:104A500026EC30E0378B268B118E128E138E148E3F
:104A6000E0E0FFE02FEF208312821182148613868C
:104A7000CC24CA94DC2C7601C782D086E186F286EB
:104A8000E4E6F0E0F0930E0FE0930D0FECE0F0E1C0
:104A9000918380831282138214821582E2E1F0E115
:104AA000918380831282138214821582E8E1F0E1FF
:104AB000918380831282138214821582EEE1F0E1E9
:104AC000918380831282138214821582EFE0FFE0CB
:104AD000918380831282138214821582E7E1FFE0C2
:104AE000918380831282138214821582E4E2F0E1C2
:104AF0009183808312821382148215821092FE0F9A
:104B00003FE73093FF0FEDE5F0E191838083128260
:104B1000138214821582E7E5F0E191838083A0EC93
:104B2000A28338EA33831482B1EBB583E1E5F0E187
:104B300091838083A28333831482B1E0B583EBE455
:104B4000F0E191838083A28333831482B583E5E40B
:104B5000F0E1918380832283238324831582EAE218
:104B6000F0E113821282448355836683778327EBB7
:104B700032E03183208397878687108A118A128AD0
:104B8000138A84E0808FFF90EF90DF90CF9008959C
:104B9000DC01CB01FC01F999FECF06C0F2BDE1BDFD
:104BA000F89A319600B40D9241505040B8F70895EC
:104BB000F999FECF92BD81BDF89A992780B50895E5
:104BC000262FF999FECF1FBA92BD81BD20BD0FB629
:104BD000F894FA9AF99A0FBE01960895052E97FB5C
:104BE00016F400940FD057FD05D01ED007FC02D05C
:104BF00046F408C050954095309521953F4F4F4F52
:104C00005F4F089590958095709561957F4F8F4F78
:104C10009F4F08952BD0A59F900DB49F900DA49FFA
:104C2000800D911D11240895A1E21A2EAA1BBB1B11
:104C3000FD010DC0AA1FBB1FEE1FFF1FA217B30768
:104C4000E407F50720F0A21BB30BE40BF50B661F7E
:104C5000771F881F991F1A9469F760957095809542
:104C600090959B01AC01BD01CF010895A29FB001B9
:104C7000B39FC001A39F700D811D1124911DB29F90
:104C8000700D811D1124911D0895DB018F939F9359
:104C9000C1DFBF91AF91A29F800D911DA39F900D89
:104CA000B29F900D11240895991B79E004C0991FBB
:104CB000961708F0961B881F7A95C9F78095089576
:104CC000AA1BBB1B51E107C0AA1FBB1FA617B70732
:104CD00010F0A61BB70B881F991F5A95A9F780954E
:104CE0009095BC01CD01089597FB072E16F4009412
:104CF00006D077FD08D0E4DF07FC05D03EF49095A0
:104D000081959F4F0895709561957F4F0895EE0F9F
:104D1000FF1F881F8BBF0790F691E02D1994A6DF27
:104D2000B7FF0895821B930B089581E090E0F894FB
:064D300000C0F894FFCF63
:104D36000002FF00639696800F8039050000000090
:104D4600FA02FA02FA02420A3E0A3B0A0000000090
:104D5600F109AD095A07420A3E0A57075C070100E6
:104D66005E00000000003100F9183000FB302C0016
:104D76001C472600825A1F006D6A170041760E00F6
:104D8600897D04003131295A1B750A000000001D77
:104D96000351012E0263035F023D0251020000002F
:104DA60000FA02FA02281EFA02FA02FA02FA02FAD5
:104DB60002251EFA02FA02FA02FA02FA02FA02FAC6
:104DC60002FA02FA0200000000FA025101281E2728
:104DD6001EFA02FA02FA0200000000FA0251012845
:104DE6001E271E00000000751C7A1D281EF90236BB
:104DF60019DD1C8B1C7E1EDA06A8196819BD193A26
:104E060019061DBE1C340A151E111E000000007C6A
:104E16000100000000FA025374617274696E672023
:104E26002D204170703A205600322E33004C4544F6
:104E3600204C6962726172793A2056000D0A00456B
:104E46004550524F4D3A20496E76616C6964204D4B
:104E5600656D6F72792E20526573746F72696E6715
:104E66002073746F636B2076616C756573004545BE
:104E760050524F4D3A2056616C6964204D656D6FF6
:104E860072792E00506F77657220627574746F6E3A
:104E96002070726573736564202D205475726E6977
:104EA6006E67206F66663A20004272696768746EA4
:104EB6006573735475726E4F6666207C20506F77EB
:104EC6006572656420646F776E206E6F7700506F31
:104ED60077657220627574746F6E20707265737375
:104EE6006564202D205475726E696E67206F6E3A68
:104EF60020004272696768746E6573735475726ECA
:104F06004F6E207C20506F7765726564206F6E202F
:104F16006E6F77004D6F646553656C656374696F7A
:104F26006E4D61696E207C204368616E6765642002
:104F3600746F205768697465302D32004D6F646553
:104F460053656C656374696F6E4D61696E207C2074
:104F56004368616E67656420746F20546F74616C7A
:104F66005768697465004D6F646553656C65637455
:104F7600696F6E4D61696E207C204368616E67655E
:104F86006420746F2042616C6C004D6F64655365DC
:104F96006C656374696F6E4D61696E207C20436831
:104FA600616E67656420746F205261696E626F7707
:104FB600004D6F646553656C656374696F6E4D6112
:104FC600696E207C204368616E67656420746F207B
:104FD60046616465004D6F646553656C656374690D
:104FE6006F6E4D61696E207C204368616E676564F3
:104FF60020746F2045666665637431004D6F646585
:1050060053656C656374696F6E4D61696E207C20B3
:105016004368616E67656420746F204669786564CD
:10502600436F6C6F72004D6F646553656C65637496
:10503600696F6E5475726E4F6E207C205475726E59
:105046006564206F6E204C45447300206E657720A2
:105056004D6F64653A2000536574436F6C6F7254EC
:10506600656D7020746F3A2000446973706C6179C5
:105076004D6F6465207C204368616E6765642074AB
:105086006F3A20005269676874004E696768740059
:10509600416C6C004C656674004C6566742028642F
:1050A600656661756C74290043757272656E74204D
:1050B6004650533A00436F6C6F7220616E64205302
:1050C600617475726174696F6E3A00446973706CCD
:1050D600794566666563743A204572726F722E2052
:1050E6004566666563744E756D6265723A20002D7D
:1050F6002D2D2D2020006F6F20202020002D2D200B
:10510600202020004368616E6765506172616D20E2
:105116007C203A005265616442696E6172793A2078
:1051260052656164696E67206E65772076616C757D
:105136006573206F6E2042696E6172792D506F72B1
:1051460074004F7574707574546F4C4544207C2000
:10515600446973706C6179496E666F20757064611D
:105166007465642000454550524F4D3A2053617690
:0C51760065642073657474696E677300D3
:020000023000CC
:10E000000D9489F10D94B2F10D94B2F10D94B2F129
:10E010000D94B2F10D94B2F10D94B2F10D94B2F1F0
:10E020000D94B2F10D94B2F10D94B2F10D94B2F1E0
:10E030000D94B2F10D94B2F10D94B2F10D94B2F1D0
:10E040000D94B2F10D94B2F10D94B2F10D94B2F1C0
:10E050000D94B2F10D94B2F10D94B2F10D94B2F1B0
:10E060000D94B2F10D94B2F10D94B2F10D94B2F1A0
:10E070000D94B2F10D94B2F10D94B2F10D94B2F190
:10E080000D94B2F10D94B2F10D94B2F10D94B2F180
:10E090000D94B2F10D94B2F10D94B2F10D94B2F170
:10E0A0000D94B2F10D94B2F10D94B2F10D94B2F160
:10E0B0000D94B2F10D94B2F10D94B2F10D94B2F150
:10E0C0000D94B2F10D94B2F10D94B2F10D94B2F140
:10E0D0000D94B2F10D94B2F10D94B2F10D94B2F130
:10E0E0000D94B2F141546D656761323536300041AF
:10E0F000726475696E6F206578706C6F72657220DE
:10E1000073746B3530305632206279204D4C530099
:10E11000426F6F746C6F616465723E004875683F52
:10E1200000436F6D70696C6564206F6E203D200048
:10E130004350552054797065202020203D20005FF9
:10E140005F4156525F415243485F5F3D2000415658
:10E1500052204C696243205665723D20004743437C
:10E160002056657273696F6E203D20004350552024
:10E1700049442020202020203D20004C6F7720663D
:10E18000757365202020203D20004869676820665F
:10E190007573652020203D200045787420667573D6
:10E1A00065202020203D20004C6F636B2066757336
:10E1B000652020203D20004D617220203720323024
:10E1C000313300312E362E3800342E332E350056A2
:10E1D00023202020414444522020206F7020636F70
:10E1E00064652020202020696E73747275637469E1
:10E1F0006F6E2061646472202020496E74657272B3
:10E20000757074006E6F20766563746F7200726A49
:10E210006D702020006A6D70200057686174207056
:10E220006F72743A00506F7274206E6F7420737541
:10E2300070706F72746564004D7573742062652030
:10E2400061206C6574746572002000577269747483
:10E25000696E672045450052656164696E672045B7
:10E26000450045452065727220636E743D00504F35
:10E27000525400303D5A65726F2061646472003FF1
:10E280003D43505520737461747300403D454550C3
:10E29000524F4D207465737400423D426C696E6B41
:10E2A000204C454400453D44756D70204545505215
:10E2B0004F4D00463D44756D7020464C415348001B
:10E2C000483D48656C70004C3D4C69737420492F83
:10E2D0004F20506F72747300513D51756974005234
:10E2E0003D44756D702052414D00563D73686F7707
:10E2F00020696E7465727275707420566563746FF0
:10E30000727300593D506F727420626C696E6B00BD
:10E310002A0011241FBECFEFD1E2DEBFCDBF01E046
:10E320000CBF12E0A0E0B2E0EEE1FDEF03E00BBFB6
:10E3300002C007900D92A030B107D9F712E0A0E01B
:10E34000B2E001C01D92AE30B107E1F70F9460F367
:10E350000D948DFE01E20EBF0FEF0DBF11241FBE05
:10E360000D9460F30D9400F020E030E040ED57E0B4
:10E3700005C0FA013197F1F72F5F3F4F2817390792
:10E38000C0F308959C01260F311DC901A0E0B0E043
:10E390002F5F3F4FABBFFC018791882361F08093D3
:10E3A000C6008091C00086FFFCCF8091C0008064D1
:10E3B0008093C000EACF08958DE08093C6008091DD
:10E3C000C00086FFFCCF8091C00080648093C000B5
:10E3D0008AE08093C6008091C00086FFFCCF8091C8
:10E3E000C00080648093C00008950F94C2F10F9420
:10E3F000DCF10895FC019081992359F09093C600B7
:10E400008091C00086FFFCCF8091C0008064809323
:10E41000C0003196992379F70895282F982F929567
:10E420009F70892F805D8A3308F0895F8093C600D2
:10E430008091C00086FFFCCF8091C00080648093F3
:10E44000C000822F8F70982F905D9A3308F0995FEB
:10E450009093C6008091C00086FFFCCF8091C000E1
:10E4600080648093C00008959C01FB01853691056E
:10E470001CF46330710594F0C90164E670E00F94F8
:10E480002EFE605D7F4F6093C6008091C00086FFC6
:10E49000FCCF8091C00080648093C0002B30310598
:10E4A00014F43297B4F0C90164E670E00F942EFEC4
:10E4B0006AE070E00F942EFE605D7F4F6093C600AF
:10E4C0008091C00086FFFCCF8091C0008064809363
:10E4D000C000C9016AE070E00F942EFEC0968093E0
:10E4E000C6008091C00086FFFCCF8091C000806490
:10E4F0008093C00008951F93182F8EE692EE60E07F
:10E500000F94C2F11093C6008091C00086FFFCCF2B
:10E510008091C00080648093C0000F94DCF11F9153
:10E5200008952F923F924F925F926F927F928F92B7
:10E530009F92AF92BF92CF92DF92EF92FF920F9392
:10E540001F93DF93CF93CDB7DEB762970FB6F894E2
:10E55000DEBF0FBECDBF382E622ECA01DB015C01CB
:10E560006D01772420E2222E2E010894411C511CBB
:10E570008BC081E0A81680E0B80681E0C80680E084
:10E58000D80628F0C601AA27BB270F940DF2BB2797
:10E59000AD2D9C2D8B2D0F940DF28A2D0F940DF225
:10E5A0002092C6008091C00086FFFCCF8091C00001
:10E5B00080648093C0009DE29093C6008091C0006B
:10E5C00086FFFCCF8091C00080648093C0002092C1
:10E5D000C6008091C00086FFFCCF8091C00080649F
:10E5E0008093C00019828601750188249924A1E0D6
:10E5F0003A1651F03A1620F0B2E03B1661F409C029
:10E600000BBFF701779007C0C7010F9477FE782EF4
:10E6100002C0F7017080872D0F940DF22092C60082
:10E620008091C00086FFFCCF8091C0008064809301
:10E63000C000872D8052F401EF70F0708F3520F408
:10E64000E40DF51D708204C0E40DF51D8EE280839B
:10E650000894E11CF11C011D111D0894811C911CE2
:10E6600090E18916910409F0C2CF80E190E0A0E02A
:10E67000B0E0A80EB91ECA1EDB1E198AC2010F9493
:10E68000FAF10F94DCF16A94662009F072CF629679
:10E690000FB6F894DEBF0FBECDBFCF91DF911F91B3
:10E6A0000F91FF90EF90DF90CF90BF90AF909F9031
:10E6B0008F907F906F905F904F903F902F90089534
:10E6C0002F923F924F925F926F927F928F929F9282
:10E6D000AF92BF92CF92DF92EF92FF920F931F9370
:10E6E000DF93CF93CDB7DEB7CD53D1400FB6F894BB
:10E6F000DEBF0FBECDBF01E20EBF0FEF0DBF94B75F
:10E70000F894A89514BE80916000886180936000A1
:10E7100010926000789493FF05C0E0910002F091A0
:10E7200001021995279A2F9A8091C00082608093E8
:10E73000C00080E18093C40088E18093C1000000A4
:10E74000EE24FF24870144E0A42EB12CCC24DD2448
:10E7500024C0C5010197F1F70894E11CF11C011DCB
:10E76000111D21E2E2162EE4F20620E0020720E06D
:10E77000120718F031E0C32ED12CC801B70127ECE5
:10E780003BE140E050E00F9441FE611571058105C9
:10E79000910519F485B1805885B98091C00087FD35
:10E7A00003C0C114D104A9F2A6014F5F5F4FC25E3E
:10E7B000DE4F59834883CE51D140C25EDE4F8881FF
:10E7C0009981CE51D140019711F00D9410FEC05D9A
:10E7D000DE4F19821882C053D14060E0C15DDE4F28
:10E7E0001882CF52D14088249924C35DDE4F19820C
:10E7F0001882CD52D140C05EDE4F188219821A8233
:10E800001B82C052D140CE5CDE4F188219821A8220
:10E810001B82C253D140EE24FF2487010BBFF701B6
:10E8200007911691C45CDE4F19830883CC53D14005
:10E830000D940BFEC25EDE4F28813981CE51D1404E
:10E840002130310509F52091C600C25EDE4F1982E4
:10E850001882CE51D14022C02F5F3F4F4F4F5F4FA4
:10E86000213082E138078AE7480780E0580780F0C6
:10E87000C45CDE4FE881F981CC53D140EF5FFF4F9C
:10E8800019F0EE27FF27099420E030E040E050E047
:10E890008091C00087FFE0CF2091C600C35DDE4FAE
:10E8A00048815981CD52D1404F5F5F4FC35DDE4FEC
:10E8B00059834883CD52D140213209F063C64A3092
:10E8C000510508F05FC60894811C911C53E0851621
:10E8D000910409F059C600E010E018C081E280936D
:10E8E000C6008091C00086FFFCCF8091C00080648C
:10E8F0008093C0002F5F3F4F2931310579F70F9486
:10E90000DCF10F5F1F4F0530110519F020E030E0FA
:10E91000E5CF10920A0210920B0210920C02109294
:10E920000D02109206021092070210920802109235
:10E930000902109202021092030210920402109235
:10E9400005028FEE90EE60E00F94F5F180E191EE1C
