:1000000004C100002FC100002DC100002BC1000061
:1000100029C1000027C1000025C1000023C1000044
:1000200021C100001FC100001DC100001BC1000054
:1000300019C1000017C1000015C1000013C1000064
:1000400011C100000FC100000DC100000BC1000074
:1000500009C1000007C1000005C100000C946F1227
:1000600001C100000C9462140C94A615FBC00000A2
:10007000F9C00000F7C00000F5C00000F3C00000A8
:10008000F1C00000EFC00000EDC00000EBC00000B8
:100090000C94A2140C94E515E5C00000E3C0000028
:1000A000E1C00000DFC00000DDC00000DBC00000D8
:1000B000D9C00000D7C00000D5C00000D3C00000E8
:1000C000D1C00000CFC00000CDC000000C94E214ED
:1000D0000C942416C7C000000C9422150C946316CF
:1000E000C1C0000000002100240027002A002D00CC
:1000F0003000330001010000040107010A01000083
:100100002200250028002B002E00310034000201BF
:100110000000050108010B0100002000230026005B
:1001200029002C002F00320000010000030106010D
:10013000090105050505070508080808020202026D
:100140000A0A080804040404010101010101010173
:100150000303030303030303040707070C0C0C0C3E
:100160000C0C0C0C02020202060606060606060627
:100170000B0B0B0B0B0B0B0B0102102020080810B4
:100180002040102040800201020108040201010207
:1001900004081020408080402010080402018004E0
:1001A000020180402010080402010804020101023B
:1001B0000408102040800102040810204080000044
:1001C000090A02080B0C0D070603040100000000D9
:1001D000000000000000000000000000000000001F
:1001E0000000000000000000000011100F000000DF
:1001F00000000000000000000000000000000000FF
:100200000000000070018510D21711241FBECFEF2F
:10021000D1E2DEBFCDBF00E00CBF15E0A0E0B2E050
:10022000EEEDF8E300E00BBF02C007900D92A030A6
:10023000B107D9F71BBE1BE0A0E0B5E001C01D92DD
:10024000A83FB107E1F712E0CAE0D2E004C022976C
:10025000FE010E94691CC430D107C9F70E94081929
:100260000C946D1CCDCE229A089580E991E00895FA
:100270001F93CF93DF93382F492F809118098F5FF9
:1002800087708093180980FD02C020E001C020E83B
:1002900081FD206482FD2062122F105F832F942F36
:1002A0009C01F901C0E0D0E06285662331F080E076
:1002B00091E070E00E94171C6F5F6783212F269FDB
:1002C000212D11242483662311F061506783219628
:1002D0003196C330D10541F7DF91CF911F91089539
:1002E0000895CF93DF9386E10E943214892B01F5A4
:1002F00088E10E943214892BD9F48AE10E943214D9
:10030000892BB1F48CE10E943214892B89F48EE19F
:100310000E943214892B61F48AE090E09093850862
:100320008093840887E59BE060E072E00E94261AD3
:1003300086E10E943214892BD1F488E10E943214A4
:10034000892BA9F48AE10E943214892B81F48CE173
:100350000E943214892B59F48EE10E9432140197C5
:1003600031F48BE090E0909385088093840886E1D7
:100370000E943214892BD1F488E10E943214892B17
:10038000A9F48AE10E943214892B81F48CE10E9445
:100390003214019759F48EE10E943214892B31F402
:1003A0008CE090E0909385088093840886E10E9419
:1003B0003214892BD1F488E10E943214892BA9F4DC
:1003C0008AE10E943214892B81F48CE10E9432145C
:1003D000019759F48EE10E943214019731F48DE0B7
:1003E00090E0909385088093840886E10E943214FF
:1003F000892BD1F488E10E943214892BA9F48AE177
:100400000E943214019781F48CE10E943214892BEE
:1004100059F48EE10E943214892B31F48EE090E081
:10042000909385088093840886E10E943214892B7A
:10043000D1F488E10E943214892BA9F48AE10E9448
:100440003214019781F48CE10E943214892B59F403
:100450008EE10E943214019731F48FE090E0909386
:1004600085088093840886E10E943214892BD1F498
:1004700088E10E943214892BA9F48AE10E94321487
:10048000019781F48CE10E943214019759F48EE1B6
:100490000E943214892B31F480E190E0909385081A
:1004A0008093840886E10E943214892BD1F488E17C
:1004B0000E943214892BA9F48AE10E943214019718
:1004C00081F48CE10E943214019759F48EE10E946C
:1004D0003214019731F481E190E090938508809384
:1004E000840886E10E943214892BD1F488E10E94AD
:1004F00032140197A9F48AE10E943214892B81F405
:100500008CE10E943214892B59F48EE10E9432143E
:10051000892B31F482E190E09093850880938408E0
:1005200086E10E943214892BC1F488E10E943214C2
:10053000019799F48AE10E943214892B71F48CE1BD
:100540000E943214892B49F48EE10E9432140197E3
:1005500021F4109285081092840886E10E943214DA
:10056000892BD1F488E10E9432140197A9F48AE121
:100570000E943214892B81F48CE10E94321401977D
:1005800059F48EE10E943214892B31F483E190E01A
:10059000909385088093840886E10E943214892B09
:1005A000D1F488E10E9432140197A9F48AE10E94F3
:1005B0003214892B81F48CE10E943214019759F492
:1005C0008EE10E943214019731F484E190E090931F
:1005D00085088093840886E10E943214892BD1F427
:1005E00088E10E9432140197A9F48AE10E94321432
:1005F000EC018130910571F48CE10E943214892B59
:1006000049F48EE10E943214892B21F4D09385089D
:10061000C093840886E10E943214892BD1F488E1CA
:100620000E9432140197A9F48AE10E9432140197C2
:1006300081F48CE10E943214892B59F48EE10E94DE
:100640003214019731F482E090E090938508809312
:10065000840886E10E943214892BD1F488E10E943B
:1006600032140197A9F48AE10E943214019781F4AF
:100670008CE10E943214019759F48EE10E943214E9
:10068000892B31F483E090E090938508809384086F
:1006900086E10E943214892BD1F488E10E94321441
:1006A0000197A9F48AE10E943214019781F48CE148
:1006B0000E943214019759F48EE10E94321401977E
:1006C00031F484E090E0909385088093840886E17B
:1006D0000E9432140197D1F488E10E943214892BD0
:1006E000A9F48AE10E943214892B81F48CE10E94E2
:1006F0003214892B59F48EE10E943214892B31F483
:1007000085E090E0909385088093840886E10E94BC
:1007100032140197D1F488E10E943214892BA9F494
:100720008AE10E943214892B81F48CE10E943214F8
:10073000892B59F48EE10E943214019731F486E03E
:1007400090E0909385088093840886E10E9432149B
:100750000197D1F488E10E943214892BA9F48AE12F
:100760000E943214892B81F48CE10E94321401978B
:1007700059F48EE10E943214892B31F487E090E025
:10078000909385088093840886E10E943214019733
:10079000D1F488E10E943214892BA9F48AE10E94E5
:1007A0003214892B81F48CE10E943214019759F4A0
:1007B0008EE10E943214019731F488E090E090932A
:1007C00085088093840886E10E9432140197D1F451
:1007D00088E10E943214892BA9F48AE10E94321424
:1007E000019781F48CE10E943214892B59F48EE137
:1007F0000E943214892B31F489E090E090938508AF
:1008000080938408DF91CF91089587E59BE066E0AF
:1008100072E00E94261A81E080939A0880919D08D8
:1008200090919E0890939C0880939B0808951F9335
:10083000CF93DF93EC010E94B71210E02881398139
:100840004A815B81621B730B840B950B2C813D816C
:100850004E815F81621773078407950738F011E0B6
:100860000E94B712688379838A839B83812FDF91EB
:10087000CF911F9108951F9380918808882301F5D7
:1008800088E898E00E941519892BD1F00E94B712D0
:1008900060939108709392088093930890939408C2
:1008A00082E390E0A0E0B0E08093950890939608F2
:1008B000A0939708B093980888E898E00E941F19C1
:1008C00081E998E0B4DF882311F184E20E943214B8
:1008D0002091900830E08217930779F087E59BE03C
:1008E00069E272E00E94261A8091900811E0812747
:1008F00080939008F6DC1093870882E20E943214FD
:1009000010928608892B19F081E0809386081F9148
:1009100008958091A208882301F582EA98E00E9458
:100920001519892BD1F00E94B7126093AA08709311
:10093000AB088093AC089093AD0881E390E0A0E011
:10094000B0E08093AE089093AF08A093B008B09346
:10095000B10882EA98E00E941F198AEA98E067DFEE
:10096000882309F49CC0809187088823D1F1809165
:100970008408909185080C97A1F580919A088823A6
:1009800011F443DF2EC080919B0890919C08813028
:10099000910569F00397B1F481E090E090939C0891
:1009A00080939B0887E59BE06FE472E015C082E0CE
:1009B00090E090939C0880939B0887E59BE06DE70F
:1009C00072E00AC083E090E090939C0880939B08BB
:1009D00087E59BE06CEA72E00E94261A81E0809332
:1009E000A108809187088823D1F180918408909193
:1009F00085080897A1F580919A08882311F405DFEE
:100A00002EC080919B0890919C088430910569F0DC
:100A10000597B1F486E090E090939C0880939B0842
:100A200087E59BE069ED72E015C085E090E090936A
:100A30009C0880939B0887E59BE06AE073E00AC00E
:100A400084E090E090939C0880939B0887E59BE06E
:100A50006BE373E00E94261A81E08093A1088091E5
:100A600087088823E1F08091840890918508099790
:100A7000B1F483E090E090939C0880939B088FEF03
:100A8000809399081092A00810929F0891E090938B
:100A9000A10880919A08882311F490939A080895E8
:100AA0001F93182F8091F708882301F587EF98E0AE
:100AB0000E941519892BD1F00E94B7126093FF088C
:100AC0007093000980930109909302098FE090E0F0
:100AD000A0E0B0E08093030990930409A093050976
:100AE000B093060987EF98E00E941F198FEF98E0F6
:100AF0009EDE882309F440C030911909832F90E0CD
:100B0000811B91098B3091052CF42FEF863F9207C2
:100B10008CF503C08531910534F422E04FEF8C3E13
:100B200094072CF403C08F31910534F424E04FEF87
:100B3000823E94072CF403C08932910534F428E0F6
:100B40004FEF883D94072CF403C08734910524F4BB
:100B500020E18A5B9F4F0CF420E2311718F4320F2A
:100B60003093190980911909181730F4821B80936A
:100B7000190902C021E0D2CF1F9108959F92AF9230
:100B8000BF92CF92DF92EF92FF920F931F93CF937A
:100B9000DF93EC01962EF42E580169018F3F9105E9
:100BA00009F010F4D82FCC270E94B7126A197B09DC
:100BB0008C099D0928E131E040E050E00E94E41BEF
:100BC0009E0140E050E00E94E41BBC018827992769
:100BD000672F7727E60E8E2DE6FC8095E82FEF73C2
:100BE000982F9F70E6FC9F5FE295EF70EE0FF0E0AC
:100BF000E752FB4F8181899F802D912D1124829591
:100C00008F709295907F892B2081280FE7FC21958A
:100C1000F91820583F2D239F212D1124822F890D53
:100C2000DF91CF911F910F91FF90EF90DF90CF90C8
:100C3000BF90AF909F9008958091B208882301F5EE
:100C400082EB98E00E941519892BD1F00E94B7120F
:100C50006093BA087093BB088093BC089093BD085A
:100C600082E390E0A0E0B0E08093BE089093BF08DC
:100C7000A093C008B093C10882EB98E00E941F19AE
:100C80008AEB98E0D4DD882309F4F0C080919B08BA
:100C900090919C088330910531F08130910519F0D5
:100CA000029709F06AC080918708882329F480910F
:100CB0008608882309F461C0809184089091850892
:100CC0000F9709F05AC08091A008282F30E0309388
:100CD000D1042093D00480919F08882331F42150BF
:100CE0003F4F3093D1042093D0042091D004309111
:100CF000D10481E02A39380768F480918608882376
:100D000019F42F5F3F4F02C02D5F3F4F3093D10446
:100D10002093D0042091D0043091D1042F3F31058D
:100D200031F028F010929F08822F8F5F05C08FE767
:100D300080939F08822F80958093A00881E0809304
:100D4000A10887E59BE068E673E00E94241A87E526
:100D50009BE060919F084AE050E00E94F71987E508
:100D60009BE060E973E00E94241A87E59BE06091B4
:100D7000A0084AE050E00E94081A80919B089091D8
:100D80009C088330910531F08130910519F002976C
:100D900009F06CC080918708882329F48091860827
:100DA000882309F463C080918408909185080D9789
:100DB00009F05CC08091A008282F30E03093D10466
:100DC0002093D00480919F08882331F421503F4F15
:100DD0003093D1042093D0042091D0043091D104D9
:100DE0002739310580F080918608882319F4215035
:100DF000304005C02939310530F023503040309360
:100E0000D1042093D0042091D0043091D1042F3FFD
:100E1000310531F028F010929F08822F8F5F05C0B6
:100E20008FE780939F08822F80958093A00881E0B0
:100E30008093A10887E59BE062E973E00E94241A91
:100E400087E59BE060919F084AE050E00E94F71917
:100E500087E59BE060E973E00E94241A87E59BE048
:100E60006091A0084AE050E00C94081A089580911F
:100E7000840890918508419709F055C080918708B2
:100E8000882329F480918608882309F44CC0809136
:100E900086088823A1F0809199088B3040F08A5011
:100EA0008093990887E59BE06AEB73E01BC085E0BF
:100EB0008093990887E59BE061EC73E013C0809113
:100EC0009908863040F085508093990887E59BE02B
:100ED00066EC73E007C085E08093990887E59BE0A6
:100EE0006DEC73E00E94241A81E08093A10887E5ED
:100EF0009BE064ED73E00E94241A87E59BE060911B
:100F000099084AE050E00E94F71987E59BE060E904
:100F100073E00E94241A87E59BE0609119094AE07A
:100F200050E00E94081A80918408909185080B97E0
:100F300009F04DC080918708882329F480918608A4
:100F4000882309F444C080918608882361F0809149
:100F50009908863FA0F4865F8093990887E59BE017
:100F600066EF73E013C080919908803F40F48B5F77
:100F70008093990887E59BE06DEF73E007C08FEFE2
:100F80008093990887E59BE06DEC73E00E94241A3A
:100F900081E08093A10887E59BE064E074E00E9413
:100FA000241A87E59BE0609199084AE050E00E948E
:100FB000F71987E59BE060E973E00E94241A87E552
:100FC0009BE0609119094AE050E00E94081A809164
:100FD000990866CDEF92FF920F931F93CF93DF9303
:100FE0007C01EB010E94B7122091C3083091C40824
:100FF0004091C5085091C608621B730B840B950B7A
:1010000000E010E0E616F70608071907B8F480912B
:10101000C208882399F40E94B7126093C3087093A2
:10102000C4088093C5089093C6086091C20881E007
:1010300068276093C2088DE00E9400140E94B712D6
:101040002091C3083091C4084091C5085091C6084A
:10105000621B730B840B950B9E0140E050E026173A
:10106000370748075907B8F48091C208882399F0D8
:101070000E94B7126093C3087093C4088093C50898
:101080009093C6086091C20881E068276093C20807
:101090008DE00E940014DF91CF911F910F91FF907E
:1010A000EF900895EF92FF920F931F9385E090E0E9
:1010B00060E04FEF00E010E020E030E0EE245EDD85
:1010C000F82E8FE090E064E044E100E010E020E0E2
:1010D00030E054DD282F80E095E06CE271E04F2D88
:1010E00058D781E08093A1081F910F91FF90EF9056
:1010F000089580E095E06CE271E041E02AE049D794
:1011000081E08093A10808956F927F928F929F92C1
:10111000AF92BF92CF92DF92EF92FF920F931F9305
:10112000DF93CF9300D000D0CDB7DEB70E94B712C7
:1011300028EE33E040E050E00E942A1CCA01B901C9
:101140002AE030E040E050E00E942A1C8091D20466
:101150008617E1F16093D204653061F06A3091F056
:101160006623A1F512E060EC862E912C612C51E0F3
:10117000752E33C018E040E8842E912C30E4632EA5
:10118000712C2BC02091D3043091D40485E098E0D9
:10119000289FB001299F700D389F700D1124675E44
:1011A000794C7093D4046093D30480E090E02FEFE7
:1011B00030E040E050E00E94E41BBC018827992702
:1011C0004B0111E080E1682E712C07C015E002E3AD
:1011D000802E912C612CB2E07B2E8091C708882351
:1011E00001F587EC98E00E941519892BD1F00E9437
:1011F000B7126093CF087093D0088093D108909372
:10120000D20884E190E0A0E0B0E08093D30890930E
:10121000D408A093D508B093D60887EC98E00E9434
:101220001F198FEC98E003DB882309F466C080E087
:1012300095E06CE271E0412F94D68091D3049091B7
:10124000D404A5E0AA2EA8E0BA2E8A9D60018B9D49
:10125000D00C9A9DD00C112489E196E3C80ED91EBA
:10126000B60180E090E02CE231E040E050E00E94E6
:10127000E41B7C0100271127CA9C9001CB9C300DF8
:10128000DA9C300D1124275E394C3093D40420931E
:10129000D304B30180E090E040E050E00E94E41B02
:1012A000BC0188279927860E971E9694879496945A
:1012B000879489828FEF8A838B83CE010196BE014A
:1012C0006C5F7F4F0E94B8113C81F701EE0FFF1F4A
:1012D000EE0DFF1DE050FB4F2081230F08F42FEF90
:1012E00020833D812181230F08F42FEF21833E814C
:1012F0002281230F08F42FEF228381E08093A1083D
:1013000026960FB6F894DEBF0FBECDBFCF91DF910A
:101310001F910F91FF90EF90DF90CF90BF90AF9013
:101320009F908F907F906F9008952F923F924F9251
:101330005F926F927F928F929F92AF92BF92CF9265
:10134000DF92EF92FF920F931F93DF93CF93CDB76E
:10135000DEB729970FB6F894DEBF0FBECDBF87E585
:101360009BE062E274E00E94261A91E0A92EB12C63
:101370008BE2C82E81E0D82E22242A9407E0402E4A
:10138000512C4C0E5D1E14E0612E712C6C0E7D1ED6
:10139000B4E63B2E4E010894811C911C8FEAA816DE
:1013A000B1048CF49091A00880919F08865D898398
:1013B0009A833B82B601660F771F6C0D7D1D6050CE
:1013C0007B4FC40159C088ECA816B1040CF044C08E
:1013D0006A2D6E5A70E0882777FD8095982F0E94BD
:1013E000D11A20E030E040E850E40E94811B20E068
:1013F00030E048EC52E40E943B1A20E030E04FE736
:1014000053E40E94811B7B018C0120E030E048EC1A
:1014100052E40E94371A882354F40F2EF0E0EF2E86
:10142000F0E0FF2EF8EC0F2FF2E41F2FF02D90913B
:10143000A00880919F08865D8C839D83C801B701B9
:101440000E94A31A6E83B601660F771F6C0D7D1D77
:1014500060507B4FC30110C09091A00880919F08FD
:10146000865D8F8398872986B601660F771F6C0D7E
:101470007D1D60507B4FC2017BD70894A11CB11C1D
:101480000894C108D1088DE2A81681E0B80609F0D9
:1014900085CF1092A10829960FB6F894DEBF0FBE33
:1014A000CDBFCF91DF911F910F91FF90EF90DF9013
:1014B000CF90BF90AF909F908F907F906F905F90F4
:1014C0004F903F902F9008957F928F929F92AF926E
:1014D000BF92CF92DF92EF92FF920F931F93DF9311
:1014E000CF93CDB7DEB729970FB6F894DEBF0FBE06
:1014F000CDBF87E59BE063E374E00E94261A00E01D
:1015000010E07DE7F72E64E6762E57E0852E912CCD
:101510008C0E9D1E44E0A42EB12CAC0EBD1EEE24FC
:10152000EA946E010894C11CD11C043611058CF498
:101530009091A00880919F08865D89839A83EB82B1
:10154000B801660F771F600F711F60507B4FC60197
:1015500021C0B801660F771F0D37110574F4909103
:10156000A00880919F08865D8C839D83FE82600F1A
:10157000711F60507B4FC5010DC09091A0088091F4
:101580009F08865D8F8398877986600F711F6050F2
:101590007B4FC401EDD60F5F1F4FFA9481E00C32F0
:1015A000180719F61092A10829960FB6F894DEBF15
:1015B0000FBECDBFCF91DF911F910F91FF90EF90A4
:1015C000DF90CF90BF90AF909F908F907F900895C5
:1015D000DF92EF92FF920F931F93DF93CF9300D090
:1015E000CDB7DEB787E59BE063E474E00E94261A7E
:1015F00000E010E0DD24DA947E010894E11CF11C87
:101600009091A00880919F08865D89839A83DB82F0
:10161000B801660F771F600F711F60507B4FC701C5
:10162000A7D61092A1080F5F1F4F81E00C32180758
:1016300039F70F900F900F90CF91DF911F910F917D
:10164000FF90EF90DF90089520919B0830919C08C7
:1016500080919D0890919E082817390739F03093A2
:101660009E0820939D0881E08093A10823303105D6
:1016700029F48091A1088823C9F0AACF213031052F
:1016800029F48091A1088823C9F01ECF22303105AA
:1016900029F48091A1088823C9F047CE2430310570
:1016A00029F48091A108882389F02ECD25303105B9
:1016B00029F48091A108882349F01BCD26303105FB
:1016C00029F48091A108882309F0ECCC0895EF92C9
:1016D000FF920F931F93FEE1EF2EF12C012D112DA0
:1016E00031C08091D7088823D9F487ED98E00E9413
:1016F0001519892BA9F03BD76093DF087093E00898
:101700008093E1089093E208E092E308F092E40805
:101710000093E5081093E60887ED98E00E941F19F2
:101720008FED98E084D8882341F080919908B8D94A
:1017300089E199E0609119093DD58AE090E064E67D
:1017400070E048DC9091190980919908981749F642
:1017500087E59BE062E574E00E94261A1F910F91D5
:10176000FF90EF900895EF92FF920F931F93AEE1D9
:10177000EA2EF12C012D112D30C08091E70888232D
:10178000D9F487EE98E00E941519892BA9F0EFD6BD
:101790006093EF087093F0088093F1089093F2083B
:1017A000E092F308F092F4080093F5081093F6081D
:1017B00087EE98E00E941F198FEE98E038D88823B2
:1017C00039F080E06DD989E199E060911909F2D48E
:1017D00084E690E06AE070E0FDDB809119098823DF
:1017E00061F687E59BE061E674E00E94261A1F918E
:1017F0000F91FF90EF9008951F933DD880910709B6
:101800008823F9F487E099E00E941519892BC9F023
:10181000AED660930F0970931009809311099093CD
:10182000120982E390E0A0E0B0E080931309909366
:101830001409A0931509B093160987E099E00E9456
:101840001F198FE099E00E941704882319F18091F5
:101850008408909185080A97E9F480918708882385
:10186000C9F080919A0811E0812780939A08882313
:1018700041F487E59BE062E774E00E94261A73DF7B
:1018800009C087E59BE065E974E00E94261A1FDF26
:101890001093A1083ED880919A08882369F0D4DE7D
:1018A000E6DACAD989E199E06091190983D48AE01E
:1018B00090E068EB7BE004C088EB9BE062E070E0C6
:1018C00089DB109287081F910895EF92FF920F9382
:1018D0001F93CF93DF93EC018B017A018091DF0B93
:1018E000882309F04DC08FED9BE00E941519892BCC
:1018F00009F446C01092EA0B1092E90B8FEF809327
:10190000ED0B8093EE0B8093EF0B8093F00B8093A5
:10191000F10B8093F20B81E08093F30B1092F50BA7
:101920001092F40B1092EC0B1092EB0B80912009AB
:1019300090912109892B31F487EE9BE09093210946
:1019400080932009E0912209F0912309309721F03A
:1019500087EE9BE09583848387EE9BE09093230939
:10196000809322091092F70B1092F60B85EE94E00B
:101970009093E80B8093E70B8FED9BE00E941F197B
:1019800087EE9BE0BE01A801970181D3DF91CF9143
:101990001F910F91FF90EF9008950F931F9380E098
:1019A00095E06CE271E040E050E08FDF10921909A1
:1019B00085E048EC50E060E070E07AD507E51BE098
:1019C000C80140E855E260E070E00E94A216C8013C
:1019D00067EB74E00E94261A84E260E05ED682E241
:1019E00060E05BD68EE160E058D68CE160E055D6D1
:1019F0008AE160E052D688E160E04FD686E160E09F
:101A00004CD68DE061E049D682E38093990821E0CD
:101A100020939A0883E090E090939C0880939B0821
:101A200010929E0810929D082093A1081F910F917B
:101A300008954F925F926F927F929F92AF92BF9262
:101A4000CF92DF92EF92FF920F931F93DF93CF938A
:101A5000CDB7DEB72E970FB6F894DEBF0FBECDBF61
:101A60002C013A01F9011E2DDC011C969C917A8310
:101A700069835C834B8380818B8781818C878281A2
:101A80008D87913029F4CE0101960E94380106C05D
:101A90001A86198618861F821E821D8289819A8164
:101AA000810F911D9A838983002311F480E002C085
:101AB000812F8D5F8E8769D5F20127853089621B62
:101AC000730B6A307105B8F3F89459819A80A5B008
:101AD000F4E0AF2AC5B08BEFC822C5B8B9848E81B7
:101AE0004B2D481B4E83DE848B813C811C85FB84FF
:101AF000ED846D819F8108857A85E981FA81218154
:101B0000222319F0240F08F42FEF219F212D1124F7
:101B1000A82FB32FE52FF92D30E0842F532F432F1B
:101B2000002CA5B800C027FFC5B840813327889492
:101B300000C000C0002CC5B84111460F00C0002CE9
:101B4000A5B800C026FFC5B808F44FEF889400C0C0
:101B500000C000C0C5B8F0FC340F00C0002CA5B810
:101B600000C025FFC5B837958894F1FC340F00C03C
:101B700000C0002CC5B83795889400C0002CA5B8CB
:101B800000C024FFC5B8F2FC340F3795889400C01C
:101B900000C0002CC5B8F3FC340F00C0002CA5B861
:101BA00000C023FFC5B837958894F4FC340F00C0FB
:101BB00000C0002CC5B83795889400C0002CA5B88B
:101BC00000C022FFC5B8F5FC340F3795889400C0DB
:101BD00000C0002CC5B8F6FC340F00C0002CA5B81E
:101BE00000C021FFC5B837958894F7FC340F00C0BA
:101BF00000C0002CC5B83795889400C0002CA5B84B
:101C000000C020FFC5B86195600F00C000C000C0D3
:101C1000002CC5B8232F00C000C0A5B800C027FF06
:101C2000C5B842813327889400C000C0002CC5B8D5
:101C30004111490F00C0002CA5B800C026FFC5B84F
:101C400008F44FEF889400C000C000C0C5B8E0FCA5
:101C5000340F00C0002CA5B800C025FFC5B83795CB
:101C60008894E1FC340F00C000C0002CC5B8379543
:101C7000889400C0002CA5B800C024FFC5B8E2FCC1
:101C8000340F3795889400C000C0002CC5B8E3FC21
:101C9000340F00C0002CA5B800C023FFC5B837958D
:101CA0008894E4FC340F00C000C0002CC5B8379500
:101CB000889400C0002CA5B800C022FFC5B8E5FC80
:101CC000340F3795889400C000C0002CC5B8E6FCDE
:101CD000340F00C0002CA5B800C021FFC5B837954F
:101CE0008894E7FC340F00C000C0002CC5B83795BD
:101CF000889400C0002CA5B800C020FFC5B8ED0D29
:101D0000F11D8894232F00C000C0002CC5B8919508
:101D1000970F00C0002CA5B800C027FFC5B84181AF
:101D20003327889400C000C0002CC5B84111480F6B
:101D300000C0002CA5B800C026FFC5B808F44FEFBE
:101D4000889400C000C000C0C5B810FD340F00C0AA
:101D5000002CA5B800C025FFC5B83795889411FDA3
:101D6000340F00C000C0002CC5B83795889400C05F
:101D7000002CA5B800C024FFC5B812FD340F37955C
:101D8000889400C000C0002CC5B813FD340F00C0FB
:101D9000002CA5B800C023FFC5B83795889414FD62
:101DA000340F00C000C0002CC5B83795889400C01F
:101DB000002CA5B800C022FFC5B815FD340F37951B
:101DC000889400C000C0002CC5B816FD340F00C0B8
:101DD000002CA5B800C021FFC5B83795889417FD21
:101DE000340F00C000C0002CC5B83795889400C0DF
:101DF000002CA5B800C020FFC5B881958B0D232FFE
:101E000000C000C000C0C5B8119709F08ACEB30168
:101E1000882777FD8095982F20EE31E040E050E054
:101E20000E94E41B04E096958795779567950A953F
:101E3000D1F7E0E0F0E09F014AE9649E212D749E15
:101E4000200D311D112440E050E0260F371F481FA0
:101E5000591F293EA3E03A07A0E04A07A0E05A072D
:101E600090F1285E33404040504012E0569547952F
:101E7000379527951A95D1F787E0289FE12D389F50
:101E8000E00DF11D112480911709280F311D2E0F2F
:101E90003F1F40913209509133096091340970918C
:101EA0003509832F9927A0E0B0E0840F951FA61F66
:101EB000B71F8093320990933309A0933409B093EC
:101EC000350920931709789460D3F201708B6787E6
:101ED0002E960FB6F894DEBF0FBECDBFCF91DF9127
:101EE0001F910F91FF90EF90DF90CF90BF90AF9038
:101EF0009F907F906F905F904F900895EF92FF9228
:101F00000F93DF93CF9300D0CDB7DEB7AB0119822B
:101F10001A821B829E012F5F3F4FB90100E0EE2421
:101F2000FF2487DD0F900F900F90CF91DF910F91DD
:101F3000FF90EF900895EF92FF920F9301E0EE244F
:101F4000FF2477DD0F91FF90EF900895EF92FF92BD
:101F50000F9300E0EE24FF246CDD0F91FF90EF90D3
:101F600008954095FC0180E090E00FC02081249FFF
:101F7000212D20832181249F212D21832281249FB3
:101F8000212D22831124019633968617970770F32B
:101F900008959F92AF92BF92CF92DF92EF92FF92FD
:101FA0000F931F93DF93CF9300D0CDB7DEB75B01C4
:101FB000922E49832FEF2B8320EF2A837C0100E0B0
:101FC00010E06E010894C11CD11C0CC0C601B70101
:101FD000CFD18981890D89830F5F1F4F83E090E006
:101FE000E80EF91E0A151B058CF30F900F900F9049
:101FF000CF91DF911F910F91FF90EF90DF90CF90E5
:10200000BF90AF909F900895EF92FF920F931F9310
:10201000CF93DF93EC014423F1F06115710581F159
:102020009B0140E050E060E472E48FE090E00E94A9
:102030004C1CEB80FC800D811E81C901DA018E15DC
:102040009F05A007B10710F4D801C7018B839C83BB
:10205000AD83BE8315C06115710571F09B0140E031
:1020600050E060E472E48FE090E00E944C1C2B830F
:102070003C834D835E8304C01B821C821D821E82B2
:10208000DF91CF911F910F91FF90EF900895CF9224
:10209000DF92EF92FF920F931F93CF93DF938C0108
:1020A0007B011216130624F06A01C0E0D0E002C0E2
:1020B0006901EA01D801ED91FC910480F581E02DE0
:1020C000C8011995CE01880F991F8C0F9D1F8E0D89
:1020D0009F1DF80193838283C586D6860190F08187
:1020E000E02D0084F185E02DC8011995BC0189E13E
:1020F00099E041E089DFC801DF91CF911F910F91F5
:10210000FF90EF90DF90CF9008958FEF80931909A3
:1021100010921B0910921A090895EF92FF920F93E3
:102120001F93CF93DF93EC018091280990912909A7
:10213000019690932909809328090197861797079C
:1021400094F115D29B01AC01609128097091290985
:1021500088EE93E0FB01E89FB001E99F700DF89FC6
:10216000700D1124882777FD8095982FE090240921
:10217000F090250900912609109127092E193F0991
:10218000400B510B0E942A1C3A8329831092290983
:1021900010922809ECD1609324097093250980934B
:1021A000260990932709DF91CF911F910F91FF90FE
:1021B000EF9008952F923F924F925F926F927F928D
:1021C0008F929F92AF92BF92CF92DF92EF92FF9247
:1021D0000F931F93DF93CF93CDB7DEB729970FB639
:1021E000F894DEBF0FBECDBF5C016F83F501838124
:1021F0009481A581B6810097A105B10509F4A1C01C
:10220000C4D120912A0930912B0940912C09509179
:102210002D09621B730B840B950BD50113962D9121
:102220003D914D915C91169762177307840795074E
:1022300008F087C0DBCFF801F485FE83D501119645
:102240008D919C9112978436910510F4F8011486B3
:10225000D801ED91FC911197828193819D838C83AC
:1022600012964D905C9013971D962D903C901E9762
:1022700019821A821B829F81992399F168017E013C
:102280000894E11CF11CD60116962C91169719960C
:102290006C912223D9F06623C9F070E080E090E0D1
:1022A0006F5F7F4F8F4F9F4F30E040E050E02F5FD8
:1022B0003F4F4F4F5F4F0E94E41BA40193010E94C8
:1022C000E41BBC0188279927F70160830894C11C8F
:1022D000D11C0894E11CF11C88859985E816F90643
:1022E00091F6C801B201A1019E012F5F3F4FAC8161
:1022F000BD81FD0119958E81F801848704811581C6
:102300000115110509F097CFC50169E170E005DFFE
:1023100029960FB6F894DEBF0FBECDBFCF91DF91E7
:102320001F910F91FF90EF90DF90CF90BF90AF90F3
:102330009F908F907F906F905F904F903F902F90E5
:10234000089523D160932A0970932B0980932C0957
:1023500090932D0900912009109121099F81692EE8
:10236000772488249924DE011496B987A887C8CFDA
:102370001F93FC01DB01808171811281482F4F7115
:10238000440F440F440F642F25E5629F612D1124F3
:10239000282F30E087FD24C0C9018072907026FD8F
:1023A0000CC0892B29F4562F509580E0462F11C080
:1023B000462F4B5A80E05BEA0CC0892B61F4242F36
:1023C0003AEA239F212D11245BEA521B462F4555E3
:1023D00080E030E02AC080E0462F4095362F11C0C3
:1023E000C9018072907026FD13C0892B61F480E0D2
:1023F000242F3AEA239F212D11244BEA421B322F2E
:102400003B5A50E012C080E0362F3095562F0CC05A
:10241000892B29F4562F5B5A80E03BEA04C0562FE3
:10242000555580E035E5361B40E07F3F09F41BC081
:10243000552321F0579F512D09F05F5F442321F070
:10244000479F412D09F04F5F332321F0379F312DF6
:1024500009F03F5F1124272F2095229F212D112461
:10246000520F420F320F1F3F09F41AC020E0112310
:1024700021F0119F212D09F02F5F552321F0529F4C
:10248000512D09F05F5F442321F0429F412D09F057
:102490004F5F332321F0329F312D09F03F5F11242C
:1024A0005C9311964C93119712963C931F9108954B
:1024B0000F931F93082F10E020E030E0CB01BA010A
:1024C000A90198010E94E41B6093D5047093D6047F
:1024D0008093D7049093D8041F910F9108951F9271
:1024E0000F920FB60F9211242F933F938F939F93C8
:1024F000AF93BF938091320990913309A091340931
:10250000B0913509309136090196A11DB11D232FD7
:102510002D5F2D3720F02D570196A11DB11D209361
:1025200036098093320990933309A0933409B0930C
:10253000350980912E0990912F09A0913009B09111
:1025400031090196A11DB11D80932E0990932F0989
:10255000A0933009B0933109BF91AF919F918F91B2
:102560003F912F910F900FBE0F901F9018958FB72E
:10257000F8942091320930913309409134095091F7
:1025800035098FBFB901CA0108959FB7F89420910A
:102590002E0930912F09409130095091310986B5AB
:1025A000A89B06C08F3F21F02F5F3F4F4F4F5F4FDB
:1025B0009FBF542F432F322F2227280F311D411D3B
:1025C000511D82E0220F331F441F551F8A95D1F7FA
:1025D000B901CA010895789484B5826084BD84B538
:1025E000816084BD85B5826085BD85B5816085BD0E
:1025F000EEE6F0E0808181608083E1E8F0E0108227
:10260000808182608083808181608083E0E8F0E067
:10261000808181608083E1EBF0E080818460808351
:10262000E0EBF0E0808181608083E1E9F0E080818F
:1026300082608083808181608083E0E9F0E0808136
:1026400081608083E1EAF0E0808182608083808124
:1026500081608083E0EAF0E0808181608083E1E254
:10266000F1E0808182608083808181608083E0E20C
:10267000F1E0808181608083EAE7F0E0808184601E
:10268000808380818260808380818160808380817B
:10269000806880831092C1000895CF93DF93482F04
:1026A00050E0CA0188589E4FFC0134914E5C5E4F49
:1026B000FA018491882369F190E0880F991FFC0149
:1026C000EC51FF4FA591B491FC01E250FF4FC59131
:1026D000D491662351F42FB7F8948C91932F909551
:1026E00089238C93888189230BC0623061F42FB7D2
:1026F000F8948C91932F909589238C938881832BC8
:1027000088832FBF06C09FB7F8948C91832B8C933E
:102710009FBFDF91CF910895893009F449C08A3075
:10272000A0F4843051F1853040F4823079F1833067
:1027300000F5813009F063C026C0873079F1883018
:1027400098F5863009F05BC025C08D3009F442C091
:102750008E3028F48B30B1F18C30C0F52DC0803133
:1027600009F442C0813109F445C08F3009F047C0F7
:1027700037C0809180008F7703C0809180008F7D6B
:1027800080938000089584B58F7702C084B58F7DD3
:1027900084BD08958091B0008F7703C08091B00010
:1027A0008F7D8093B0000895809190008F7707C04F
:1027B000809190008F7D03C080919000877F8093EF
:1027C000900008958091A0008F7707C08091A000AD
:1027D0008F7D03C08091A000877F8093A000089523
:1027E000809120018F7703C0809120018F7D80939D
:1027F0002001089580912001877F80932001089512
:10280000FF920F931F93F62E482F50E0CA01825477
:102810009E4FFC012491CA0188589E4FFC011491DF
:102820004E5C5E4FFA0104910023C1F0222311F0A7
:10283000822F72DFE02FF0E0EE0FFF1FE250FF4F1C
:10284000A591B4919FB7F894FF2021F48C91109535
:10285000812302C08C91812B8C939FBF1F910F917C
:10286000FF9008950F931F93482F50E0CA018254A0
:102870009E4FFC012491CA0188589E4FFC0104918F
:102880004E5C5E4FFA011491112319F420E030E000
:1028900014C0222311F0822F3FDF812F90E0880F98
:1028A000991F885E9E4FFC01A591B4918C9120E008
:1028B00030E0802311F021E030E0C9011F910F9139
:1028C000089508951F920F920FB60F920BB60F92B4
:1028D00011242F933F934F938F939F93EF93FF93E5
:1028E0008091C00082FD1DC04091C60020917709F3
:1028F000309178092F5F3F4F2F73307080917909A5
:1029000090917A092817390771F0E0917709F091D1
:102910007809E95CF64F4083309378092093770972
:1029200002C08091C600FF91EF919F918F914F91CE
:102930003F912F910F900BBE0F900FBE0F901F90E5
:10294000189508951F920F920FB60F920BB60F9223
:1029500011242F933F934F938F939F93EF93FF9364
:102960008091C80082FD1DC04091CE002091FF09DA
:102970003091000A2F5F3F4F2F7330708091010A12
:102980009091020A2817390771F0E091FF09F09140
:10299000000AE154F64F40833093000A2093FF0968
:1029A00002C08091CE00FF91EF919F918F914F9146
:1029B0003F912F910F900BBE0F900FBE0F901F9065
:1029C000189508951F920F920FB60F920BB60F92A3
:1029D00011242F933F934F938F939F93EF93FF93E4
:1029E0008091D00082FD1DC04091D6002091870AC1
:1029F0003091880A2F5F3F4F2F7330708091890A82
:102A000090918A0A2817390771F0E091870AF091AE
:102A1000880AE95BF54F40833093880A2093870A40
:102A200002C08091D600FF91EF919F918F914F91BD
:102A30003F912F910F900BBE0F900FBE0F901F90E4
:102A4000189508951F920F920FB60F920BB60F9222
:102A500011242F933F934F938F939F93EF93FF9363
:102A60008091300182FD1DC04091360120910F0BF5
:102A70003091100B2F5F3F4F2F7330708091110BEF
:102A80009091120B2817390771F0E0910F0BF0911C
:102A9000100BE153F54F40833093100B20930F0B35
:102AA00002C080913601FF91EF919F918F914F91DC
:102AB0003F912F910F900BBE0F900FBE0F901F9064
:102AC0001895E091630BF091640BE05CFF4F8191EE
:102AD000919120813181821B930B8F739070892B90
:102AE00009F0EFDEE091850BF091860BE05CFF4F83
:102AF0008191919120813181821B930B8F73907012
:102B0000892B09F01EDFE091A70BF091A80BE05C88
:102B1000FF4F8191919120813181821B930B8F73A3
:102B20009070892B09F04DDFE091C90BF091CA0B31
:102B3000E05CFF4F8191919120813181821B930B49
:102B40008F739070892B09F07CCF08951F920F929C
:102B50000FB60F920BB60F9211242F933F938F93C2
:102B60009F93EF93FF932091BB093091BC09809113
:102B7000BD099091BE092817390731F48091C10031
:102B80008F7D8093C10014C0E091BD09F091BE0912
:102B9000E558F64F20818091BD099091BE090196BC
:102BA0008F7390709093BE098093BD092093C600E7
:102BB000FF91EF919F918F913F912F910F900BBEBD
:102BC0000F900FBE0F901F9018951F920F920FB687
:102BD0000F920BB60F9211242F933F938F939F93D5
:102BE000EF93FF932091430A3091440A8091450A64
:102BF0009091460A2817390731F48091C9008F7DDA
:102C00008093C90014C0E091450AF091460AED5F37
:102C1000F54F20818091450A9091460A01968F7365
:102C200090709093460A8093450A2093CE00FF91BE
:102C3000EF919F918F913F912F910F900BBE0F902D
:102C40000FBE0F901F9018951F920F920FB60F9204
:102C50000BB60F9211242F933F938F939F93EF9373
:102C6000FF932091CB0A3091CC0A8091CD0A9091AC
:102C7000CE0A2817390731F48091D1008F7D8093D7
:102C8000D10014C0E091CD0AF091CE0AE557F54F7E
:102C900020818091CD0A9091CE0A01968F73907019
:102CA0009093CE0A8093CD0A2093D600FF91EF91A6
:102CB0009F918F913F912F910F900BBE0F900FBE60
:102CC0000F901F9018951F920F920FB60F920BB690
:102CD0000F9211242F933F938F939F93EF93FF9322
:102CE0002091530B3091540B8091550B9091560BC2
:102CF0002817390731F4809131018F7D809331019C
:102D000014C0E091550BF091560BED5EF44F20810D
:102D10008091550B9091560B01968F739070909304
:102D2000560B8093550B20933601FF91EF919F91A5
:102D30008F913F912F910F900BBE0F900FBE0F9070
:102D40001F901895AF92BF92DF92EF92FF920F9370
:102D50001F93CF93DF93EC017A018B01DD24403088
:102D600081EE580780E0680780E0780711F0DD24E5
:102D7000D39491E0A92EB12CEC89FD89DD2069F076
:102D8000C50108A002C0880F991F0A94E2F780834A
:102D900060E079E08DE390E005C0108260E874E8BF
:102DA0008EE190E0A801970155D521503040404078
:102DB0005040569547953795279580E12030380744
:102DC00020F0DD2011F0DD24D7CFE889F9893083A8
:102DD000EA89FB89208319A2EE89FF89408121E0DD
:102DE00030E0C9010C8C02C0880F991F0A94E2F7E9
:102DF000482B4083EE89FF894081C9010D8C02C0B8
:102E0000880F991F0A94E2F7482B4083EE89FF89C7
:102E10004081C9010E8C02C0880F991F0A94E2F705
:102E2000482B4083EE89FF8980810F8C02C0220FDE
:102E3000331F0A94E2F7209528232083DF91CF9156
:102E40001F910F91FF90EF90DF90BF90AF9008958A
:102E5000DC011C96ED91FC911D97E05CFF4F2191E8
:102E6000319180819181281B390B2F733070C901FA
:102E70000895DC011C96ED91FC911D97E05CFF4FDD
:102E800020813181E054F040DF01AE5BBF4F8D9176
:102E90009C9111972817390719F42FEF3FEF07C0BE
:102EA0008D919C91E80FF91F8081282F30E0C90196
:102EB0000895DC011C96ED91FC911D97E05CFF4F9D
:102EC00020813181E054F040DF01AE5BBF4F8D9136
:102ED0009C9111972817390719F42FEF3FEF10C075
:102EE0008D919C911197E80FF91F20818D919C91F4
:102EF000119701968F73907011969C938E9330E08A
:102F0000C9010895DC0191968C919197882339F03D
:102F10005496ED91FC915597808186FFF9CF91965B
:102F20001C920895CF93DF93EC01EE85FF85E05C62
:102F3000FF4F20813181E054F0402F5F3F4F2F73CE
:102F40003070DF01AE5BBF4F8D919C9111972817B8
:102F50003907D1F3E05CFF4F80819181E054F0406C
:102F6000E80FF91F6083EE85FF85E05CFF4F31833A
:102F70002083EE89FF89208181E090E00F8C02C0E0
:102F8000880F991F0A94E2F7282B208381E089A3F8
:102F9000EC89FD8980818064808381E090E0DF910D
:102FA000CF9108951F9310925A0B1092590B28EE4F
:102FB00033E040E050E020935B0B30935C0B409398
:102FC0005D0B50935E0B63EF74E07093580B60934E
:102FD000570B87E399E09093640B8093630B8BE727
:102FE00099E09093660B8093650B85EC90E090934D
:102FF000680B8093670B84EC90E090936A0B80934E
:10300000690B80EC90E090936C0B80936B0B81ECE0
:1030100090E090936E0B80936D0B82EC90E0909318
:10302000700B80936F0B86EC90E09093720B809303
:10303000710B14E01093730BB3E0B093740BA7E023
:10304000A093750BF5E0F093760BE1E0E093770B3E
:1030500010927C0B10927B0B20937D0B30937E0B98
:1030600040937F0B5093800B70937A0B6093790B96
:103070008FEB99E09093860B8093850B83E09AE029
:103080009093880B8093870B8DEC90E090938A0B44
:103090008093890B8CEC90E090938C0B80938B0B3E
:1030A00088EC90E090938E0B80938D0B89EC90E0F0
:1030B0009093900B80938F0B8AEC90E09093920BFF
:1030C0008093910B8EEC90E09093940B8093930BF4
:1030D0001093950BB093960BA093970BF093980BCE
:1030E000E093990B10929E0B10929D0B20939F0BD7
:1030F0003093A00B4093A10B5093A20B70939C0BA9
:1031000060939B0B87E49AE09093A80B8093A70BA6
:103110008BE89AE09093AA0B8093A90B85ED90E041
:103120009093AC0B8093AB0B84ED90E09093AE0B3F
:103130008093AD0B80ED90E09093B00B8093AF0B3C
:1031400081ED90E09093B20B8093B10B82ED90E013
:103150009093B40B8093B30B86ED90E09093B60BF5
:103160008093B50B1093B70BB093B80BA093B90B2A
:10317000F093BA0BE093BB0B1092C00B1092BF0BF5
:103180002093C10B3093C20B4093C30B5093C40BDD
:103190007093BE0B6093BD0B8FEC9AE09093CA0BBB
:1031A0008093C90B83E19BE09093CC0B8093CB0B76
:1031B00085E391E09093CE0B8093CD0B84E391E077
:1031C0009093D00B8093CF0B80E391E09093D20B40
:1031D0008093D10B81E391E09093D40B8093D30B38
:1031E00082E391E09093D60B8093D50B86E391E038
:1031F0009093D80B8093D70B1093D90BB093DA0B25
:10320000A093DB0BF093DC0BE093DD0B1F91089593
:10321000CF93DF93E0D90E94CD0CC1E6D5E10E94A7
:10322000FC0B2097E1F34DDCFACFFC0120E030E00D
:103230008081882311F421E030E0C9010895FC0168
:1032400081E080830895CF92DF92EF92FF920F93F7
:103250001F93CF93DF937C016B018A01C0E0D0E024
:103260000FC0D6016D916D01D701ED91FC910190D8
:10327000F081E02DC7011995C80FD91F01501040EA
:103280000115110571F7CE01DF91CF911F910F91BB
:10329000FF90EF90DF90CF900895EF92FF920F9301
:1032A0001F938C01DC01ED91FC910190F081E02DE8
:1032B0006DE019957C01D801ED91FC910190F081B0
:1032C000E02DC8016AE019959C012E0D3F1DC90132
:1032D0001F910F91FF90EF900895CF93DF93EC0132
:1032E0006115710519F420E030E00FC0DB010D908D
:1032F0000020E9F71197A61BB70BE881F98102803E
:10330000F381E02DAD0119959C01C901DF91CF91A9
:1033100008954F925F927F928F929F92AF92BF9249
:10332000CF92DF92EF92FF920F931F93DF93CF9391
:10333000CDB7DEB7A1970FB6F894DEBF0FBECDBFF5
:103340002C01742ECB01223008F42AE019A231E2BC
:10335000C32ED12CCC0EDD1E822E9924AA24BB2490
:10336000672D752FA501940175D279018A01C801D5
:10337000B701A501940128D2472D461B0894C10826
:10338000D1084A3014F4405D01C0495CF601408325
:10339000E114F1040105110521F07E2C5F2DC80117
:1033A000DFCFC201B60199DFA1960FB6F894DEBF58
:1033B0000FBECDBFCF91DF911F910F91FF90EF9086
:1033C000DF90CF90BF90AF909F908F907F905F9055
:1033D0004F900895DC012115310541F4ED91FC91E8
:1033E0000190F081E02D642F1995089592CFEF920E
:1033F000FF920F931F939A01E62EFF2400E010E046
:10340000B801A701E7DF1F910F91FF90EF9008959A
:10341000CF92DF92EF92FF920F931F936C01E62EF3
:103420009A01FF2400E010E0B801A701D3DF8C016E
:10343000C60133DF080F191FC8011F910F91FF90BC
:10344000EF90DF90CF90089548CF0895EF92FF92CC
:103450000F931F937C0141DF8C01C7011EDF080F12
:10346000191FC8011F910F91FF90EF900895D4D0BC
:1034700008F481E008950CD00AC102D140F0F9D0DF
:1034800030F021F45F3F19F0EBC0511134C1EEC0B0
:103490000FD198F39923C9F35523B1F3951B550B1D
:1034A000BB27AA2762177307840738F09F5F5F4F17
:1034B000220F331F441FAA1FA9F333D00E2E3AF058
:1034C000E0E830D091505040E695001CCAF729D072
:1034D000FE2F27D0660F771F881FBB1F26173707C1
:1034E0004807AB07B0E809F0BB0B802DBF01FF27F1
:1034F00093585F4F2AF09E3F510568F0B1C0FBC062
:103500005F3FECF3983EDCF3869577956795B7952A
:10351000F7959F5FC9F7880F911D9695879597F945
:103520000895E1E0660F771F881FBB1F62177307BE
:103530008407BA0720F0621B730B840BBA0BEE1FD3
:1035400088F7E0950895BCD088F09F5790F0B92F88
:103550009927B751A0F0D1F0660F771F881F991FE8
:103560001AF0BA95C9F712C0B13081F0C3D0B1E0FA
:103570000895C0C0672F782F8827B85F39F0B93F0A
:10358000CCF3869577956795B395D9F73EF49095EA
:103590008095709561957F4F8F4F9F4F0895E89468
:1035A00009C097FB3EF490958095709561957F4F8B
:1035B0008F4F9F4F9923A9F0F92F96E9BB27939539
:1035C000F695879577956795B795F111F8CFFAF449
:1035D000BB0F11F460FF1BC06F5F7F4F8F4F9F4F7A
:1035E00016C0882311F096E911C0772321F09EE8D8
:1035F000872F762F05C0662371F096E8862F70E03E
:1036000060E02AF09A95660F771F881FDAF7880F17
:103610009695879597F90895990F0008550FAA0B6D
:10362000E0E8FEEF16161706E807F907C0F01216D5
:103630001306E407F50798F0621B730B840B950BD8
:1036400039F40A2661F0232B242B252B21F408952D
:103650000A2609F4A140A6958FEF811D811D0895CA
:1036600097F99F6780E870E060E008959FEF80EC35
:10367000089500240A9416161706180609060895D8
:1036800000240A9412161306140605060895092E3E
:103690000394000C11F4882352F0BB0F40F4BF2BAD
:1036A00011F460FF04C06F5F7F4F8F4F9F4F0895ED
:1036B00057FD9058440F551F59F05F3F71F04795E3
:1036C000880F97FB991F61F09F3F79F087950895C8
:1036D000121613061406551FF2CF4695F1DF08C0E7
:1036E000161617061806991FF1CF86957105610504
:1036F00008940895E894BB2766277727CB0197F9AC
:1037000008950BD0C4CFB5DF28F0BADF18F09523A9
:1037100009F0A6CFABCF1124EECFCADFA0F3959F5F
:10372000D1F3950F50E0551F629FF001729FBB27A8
:10373000F00DB11D639FAA27F00DB11DAA1F649F54
:103740006627B00DA11D661F829F2227B00DA11D07
:10375000621F739FB00DA11D621F839FA00D611D8D
:10376000221F749F3327A00D611D231F849F600DAE
:10377000211D822F762F6A2F11249F5750408AF0E7
:10378000E1F088234AF0EE0FFF1FBB1F661F771F73
:10379000881F91505040A9F79E3F510570F060CFAF
:1037A000AACF5F3FECF3983EDCF38695779567955B
:1037B000B795F795E7959F5FC1F7FE2B880F911D91
:1037C0009695879597F90895629FD001739FF001B0
:1037D000829FE00DF11D649FE00DF11D929FF00DA1
:1037E000839FF00D749FF00D659FF00D9927729FD8
:1037F000B00DE11DF91F639FB00DE11DF91FBD0163
:10380000CF0111240895AA1BBB1B51E107C0AA1FB9
:10381000BB1FA617B70710F0A61BB70B881F991F71
:103820005A95A9F780959095BC01CD01089597FB15
:10383000092E07260AD077FD04D0E5DF06D0002048
:103840001AF4709561957F4F0895F6F790958195DC
:103850009F4F0895A1E21A2EAA1BBB1BFD010DC0AC
:10386000AA1FBB1FEE1FFF1FA217B307E407F50730
:1038700020F0A21BB30BE40BF50B661F771F881F0C
:10388000991F1A9469F760957095809590959B01A2
:10389000AC01BD01CF01089597FB092E05260ED07E
:1038A00057FD04D0D7DF0AD0001C38F4509540955E
:1038B000309521953F4F4F4F5F4F0895F6F7909504
:1038C0008095709561957F4F8F4F9F4F0895EE0FB4
:0E38D000FF1F0590F491E02D1994F894FFCF9E
:1038DE00506F776572004D6F646553656C656374E8
:1038EE00696F6E4D61696E207C205475726E6564D1
:1038FE00206F6E204C4544730052656164696E679B
:10390E00206E65772076616C7565732066726F6DBB
:10391E00206F746865722041726475696E6F004D18
:10392E006F646553656C656374696F6E4D61696E26
:10393E00207C204368616E67656420746F20576831
:10394E006974654C6566742D4D6F6465004D6F64CA
:10395E006553656C656374696F6E4D61696E207C2D
:10396E00204368616E67656420746F2057686974C0
:10397E006552696768742D4D6F6465004D6F64659F
:10398E0053656C656374696F6E4D61696E207C2042
:10399E004368616E67656420746F2057686974654B
:1039AE00416C6C2D4D6F6465004D6F646553656C95
:1039BE00656374696F6E4D61696E207C204368612A
:1039CE006E67656420746F205261696E626F772D29
:1039DE00426561742D4D6F6465004D6F646553656E
:1039EE006C656374696F6E4D61696E207C204368EF
:1039FE00616E67656420746F205261696E626F77C5
:103A0E004D617263682D4D6F6465004D6F64655333
:103A1E00656C656374696F6E4D61696E207C2043C1
:103A2E0068616E67656420746F20436F6E6665749F
:103A3E0074692D4D6F646500496E637265617369BB
:103A4E006E6720436F6C6F7254656D70205B4875A6
:103A5E00652053617475726174696F6E5D2020000C
:103A6E00200044656372656173696E6720436F6CF5
:103A7E006F7254656D70205B487565205361747567
:103A8E00726174696F6E5D2020002D2D2D2D20200A
:103A9E00006F6F2020002D2D20202020006F6F2022
:103AAE00202020004272696768746E657373446FDC
:103ABE00776E205B536574706F696E74202041635E
:103ACE007475616C5D002B2B2B2B2020002B2B2073
:103ADE00202020004272696768746E65737355709A
:103AEE0020536574706F696E742020416374756124
:103AFE006C004566666563745768697465526967DC
:103B0E0068740045666665637457686974654C65CC
:103B1E006674004566666563745768697465416CC2
:103B2E006C00506F7765726564206F6E206E6F77D4
:103B3E0000506F776572656420646F776E206E6FCC
:103B4E007700506F77657220627574746F6E207097
:103B5E00726573736564202D205475726E696E677D
:103B6E00206F666600506F77657220627574746F91
:103B7E006E2070726573736564202D205475726E9D
:103B8E00696E67206F6E0053746172746564202DC8
:103B9E002057616974696E67202D2056312E3000D2
:103BAE00FF00633905D0070000003131295A1B751B
:103BBE000A00000000A60F9B0F33017E0F35010097
:103BCE00000000921723192817591739178217006A
:00000001FF
