:1000000004C100002FC100002DC100002BC1000061
:1000100029C1000027C1000025C1000023C1000044
:1000200021C100001FC100001DC100001BC1000054
:1000300019C1000017C1000015C1000013C1000064
:1000400011C100000FC100000DC100000BC1000074
:1000500009C1000007C1000005C100000C946D0A31
:1000600001C100000C94870C0C94CB0DFBC0000068
:10007000F9C00000F7C00000F5C00000F3C00000A8
:10008000F1C00000EFC00000EDC00000EBC00000B8
:100090000C94C70C0C940A0EE5C00000E3C00000ED
:1000A000E1C00000DFC00000DDC00000DBC00000D8
:1000B000D9C00000D7C00000D5C00000D3C00000E8
:1000C000D1C00000CFC00000CDC000000C94070DCF
:1000D0000C94490EC7C000000C94470D0C94880E78
:1000E000C1C0000000002100240027002A002D00CC
:1000F0003000330001010000040107010A01000083
:100100002200250028002B002E00310034000201BF
:100110000000050108010B0100002000230026005B
:1001200029002C002F00320000010000030106010D
:10013000090105050505070508080808020202026D
:100140000A0A080804040404010101010101010173
:100150000303030303030303040707070C0C0C0C3E
:100160000C0C0C0C02020202060606060606060627
:100170000B0B0B0B0B0B0B0B0102102020080810B4
:100180002040102040800201020108040201010207
:1001900004081020408080402010080402018004E0
:1001A000020180402010080402010804020101023B
:1001B0000408102040800102040810204080000044
:1001C000090A02080B0C0D070603040100000000D9
:1001D000000000000000000000000000000000001F
:1001E0000000000000000000000011100F000000DF
:1001F00000000000000000000000000000000000FF
:1002000000000000A8013A09F70F11241FBECFEF2C
:10021000D1E2DEBFCDBF00E00CBF12E0A0E0B2E053
:10022000EEECF5E200E00BBF02C007900D92A43E99
:10023000B107D9F71BBE15E0A4EEB2E001C01D92D4
:10024000A33EB107E1F712E0CAE0D2E004C0229772
:10025000FE010E94E112C430D107C9F70E942D119E
:100260000C94E512CDCE90910403292F30E0281B89
:100270003109263031052CF44FEF2B3F340744F57C
:1002800003C02B30310534F442E05FEF263F3507E1
:100290002CF403C02531310534F445E05FEF2C3EEA
:1002A00035072CF403C02932310524F44AE0285DD7
:1002B0003F4F0CF444E1981718F4940F9093040303
:1002C00090910403891730F4941B909304030895CC
:1002D00041E0DBCF0895229A089580E991E00895E6
:1002E0001F93CF93DF93382F492F809103038F5FA4
:1002F00087708093030380FD02C020E001C020E8E6
:1003000081FD206482FD2062122F105F832F942FC5
:100310009C01F901C0E0D0E06285662331F080E005
:1003200091E070E00E948F126F5F6783212F269FFC
:10033000212D11242483662311F0615067832196B7
:100340003196C330D10541F7DF91CF911F910895C8
:100350000895CF93DF9386E10E94570C892BD1F447
:1003600088E10E94570C892BA9F48AE10E94570C5E
:10037000892B81F48CE10E94570C892B59F48EE172
:100380000E94570C892B31F48AE090E09093FD0293
:100390008093FC0286E10E94570C892B01F588E1CD
:1003A0000E94570C892BD9F48AE10E94570C892BA3
:1003B000B1F48CE10E94570C892B89F48EE10E94E4
:1003C000570C019761F48BE090E09093FD028093CD
:1003D000FC0282E495E060E072E00E944B1286E14C
:1003E0000E94570C892BD1F488E10E94570C892B6D
:1003F000A9F48AE10E94570C892B81F48CE10E94B8
:10040000570C019759F48EE10E94570C892B31F457
:100410008CE090E09093FD028093FC0286E10E94C4
:10042000570C892BD1F488E10E94570C892BA9F431
:100430008AE10E94570C892B81F48CE10E94570CB1
:10044000019759F48EE10E94570C019731F48DE029
:1004500090E09093FD028093FC0286E10E94570C8D
:10046000892BD1F488E10E94570C892BA9F48AE1E9
:100470000E94570C019781F48CE10E94570C892B44
:1004800059F48EE10E94570C892B31F48EE090E0F4
:100490009093FD028093FC0286E10E94570C892B09
:1004A000D1F488E10E94570C892BA9F48AE10E94BB
:1004B000570C019781F48CE10E94570C892B59F459
:1004C0008EE10E94570C019731F48FE090E09093F9
:1004D000FD028093FC0286E10E94570C892BD1F427
:1004E00088E10E94570C892BA9F48AE10E94570CDD
:1004F000019781F48CE10E94570C019759F48EE129
:100500000E94570C892B31F480E190E09093FD021A
:100510008093FC0286E10E94570C892B01F588E14B
:100520000E94570C892BD9F48AE10E94570C01973D
:10053000B1F48CE10E94570C019789F48EE10E947E
:10054000570C019761F481E190E09093FD02809354
:10055000FC0282E495E066E072E00E944B1286E1C4
:100560000E94570C892BD1F488E10E94570C019707
:10057000A9F48AE10E94570C892B81F48CE10E9436
:10058000570C892B59F48EE10E94570C892B31F4BA
:1005900082E190E09093FD028093FC0286E10E944C
:1005A000570C892BC1F488E10E94570C019799F4EC
:1005B0008AE10E94570C892B71F48CE10E94570C40
:1005C000892B49F48EE10E94570C019721F4109277
:1005D000FD021092FC0286E10E94570C892BD1F497
:1005E00088E10E94570C0197A9F48AE10E94570CF8
:1005F000892B81F48CE10E94570C019759F48EE10C
:100600000E94570C892B31F483E190E09093FD0216
:100610008093FC0286E10E94570C892BD1F488E17B
:100620000E94570C0197A9F48AE10E94570C892B6C
:1006300081F48CE10E94570C019759F48EE10E94DD
:10064000570C019731F484E190E09093FD02809380
:10065000FC0286E10E94570C892BD1F488E10E94AC
:10066000570C0197A9F48AE10E94570CEC018130E4
:10067000910571F48CE10E94570C892B49F48EE1AD
:100680000E94570C892B21F4D093FD02C093FC02E9
:1006900086E10E94570C892BD1F488E10E94570C07
:1006A0000197A9F48AE10E94570C019781F48CE12B
:1006B0000E94570C892B59F48EE10E94570C019728
:1006C00031F482E090E09093FD028093FC0286E199
:1006D0000E94570C892BD1F488E10E94570C019796
:1006E000A9F48AE10E94570C019781F48CE10E94E1
:1006F000570C019759F48EE10E94570C892B31F465
:1007000083E090E09093FD028093FC0286E10E94DA
:10071000570C892BD1F488E10E94570C0197A9F45A
:100720008AE10E94570C019781F48CE10E94570CDA
:10073000019759F48EE10E94570C019731F484E03F
:1007400090E09093FD028093FC0286E10E94570C9A
:100750000197D1F488E10E94570C892BA9F48AE112
:100760000E94570C892B81F48CE10E94570C892B35
:1007700059F48EE10E94570C892B31F485E090E00A
:100780009093FD028093FC0286E10E94570C019732
:10079000D1F488E10E94570C892BA9F48AE10E94C8
:1007A000570C892B81F48CE10E94570C892B59F44A
:1007B0008EE10E94570C019731F486E090E090930F
:1007C000FD028093FC0286E10E94570C0197D1F450
:1007D00088E10E94570C892BA9F48AE10E94570CEA
:1007E000892B81F48CE10E94570C019759F48EE11A
:1007F0000E94570C892B31F487E090E09093FD0222
:100800008093FC0286E10E94570C0197D1F488E1A5
:100810000E94570C892BA9F48AE10E94570C892B5E
:1008200081F48CE10E94570C019759F48EE10E94EB
:10083000570C019731F488E090E09093FD0280938B
:10084000FC0286E10E94570C0197D1F488E10E94D6
:10085000570C892BA9F48AE10E94570C019781F467
:100860008CE10E94570C892B59F48EE10E94570CA1
:10087000892B31F489E090E09093FD028093FC0293
:10088000DF91CF91089584E20E94570C2091C50218
:1008900030E08217930771F084E20E94570C1092A7
:1008A000C502892B19F081E08093C50252DD81E0F9
:1008B0008093FF0282E2FBD71092FE02892B19F08F
:1008C00081E08093FE02089512C0892FCCDC84E081
:1008D00093E06091040323D568E270E080E090E04B
:1008E00078D682E495E06EE072E00E944912909121
:1008F000000380910403891741F782E495E060E1E9
:1009000072E00C944B1212C080E0ADDC84E093E006
:100910006091040304D568E270E080E090E059D66D
:1009200082E495E06FE172E00E9449128091040335
:10093000882351F782E495E061E272E00C944B1257
:100940008091FC029091FD02419709F046C0809190
:10095000FF02882321F48091FE028823F1F1809127
:10096000FE02882361F080910003863040F08550BC
:100970008093000382E495E062E372E010C080910E
:100980000003863040F085508093000382E495E0B8
:1009900069E372E004C082E495E060E472E00E94E2
:1009A000491282E495E067E472E00E94491282E411
:1009B00095E0609100034AE050E00E941C1282E43E
:1009C00095E069E672E00E94491282E495E0609148
:1009D00004034AE050E00E942D128091FC029091A5
:1009E000FD020B9709F046C08091FF02882321F495
:1009F0008091FE028823F1F18091FE02882361F04C
:100A0000809100038B3F40F48B5F8093000382E46E
:100A100095E06BE672E010C0809100038B3F40F4DC
:100A20008B5F8093000382E495E062E772E004C08C
:100A300082E495E060E472E00E94491282E495E06D
:100A400069E772E00E94491282E495E06091000338
:100A50004AE050E00E941C1282E495E069E672E0F0
:100A60000E94491282E495E0609104034AE050E05C
:100A70000E942D1280910003F6CBFF920F931F93DB
:100A8000CF93DF9300DF8091FC029091FD020A97E3
:100A9000A9F48091FF02882389F082E495E067E958
:100AA00072E00E944B128091010391E089278093AC
:100AB0000103882311F427DF01C006DF80910103C1
:100AC000882309F03DDF1092FF0284E093E06091FB
:100AD000040325D4C4EED2E0FF24FA940FEE15ED02
:100AE000F88209831A8384E093E06091040317D4A9
:100AF000239682E0CC3FD80799F7DF91CF911F91E1
:100B00000F91FF900895EF92FF920F931F93CF9351
:100B1000DF93EC018B017A018091CA05882309F0EB
:100B20004DC08AEC95E00E943A11892B09F446C029
:100B30001092D5051092D4058FEF8093D80580933D
:100B4000D9058093DA058093DB058093DC058093DB
:100B5000DD0581E08093DE051092E0051092DF054F
:100B60001092D7051092D60580910B0390910C033B
:100B7000892B31F482ED95E090930C0380930B0365
:100B8000E0910D03F0910E03309721F082ED95E096
:100B90009583848382ED95E090930E0380930D03FB
:100BA0001092E2051092E1058AEC92E09093D30551
:100BB0008093D2058AEC95E00E94441182ED95E085
:100BC000BE01A801970118D3DF91CF911F910F911A
:100BD000FF90EF9008950F931F9384EE92E068E0EA
:100BE00070E040E050E08FDF1092040302E415E073
:100BF000C80140E855E260E070E00E94C70EC801FD
:100C00006CEA72E00E944B1284E260E09DD582E2C1
:100C100060E09AD58EE160E097D58CE160E094D5F4
:100C20008AE160E091D588E160E08ED586E160E000
:100C30008BD58FEF8093000381E0809301031F9198
:100C40000F9108954F925F926F927F929F92AF9211
:100C5000BF92CF92DF92EF92FF920F931F93DF9399
:100C6000CF93CDB7DEB72E970FB6F894DEBF0FBE89
:100C7000CDBF2C013A01F9011E2DDC011C969C917F
:100C80007A8369835C834B8380818B8781818C87A6
:100C900082818D87913021F4CE01019621DB06C03F
:100CA0001A86198618861F821E821D8289819A8162
:100CB000810F911D9A838983002311F480E002C083
:100CC000812F8D5F8E875FD4F20127853089621B6B
:100CD000730B6A307105B8F3F89459819A80A5B006
:100CE000F4E0AF2AC5B08BEFC822C5B8B9848E81B5
:100CF0004B2D481B4E83DE848B813C811C85FB84FD
:100D0000ED846D819F8108857A85E981FA81218151
:100D1000222319F0240F08F42FEF219F212D1124F5
:100D2000A82FB32FE52FF92D30E0842F532F432F19
:100D3000002CA5B800C027FFC5B840813327889490
:100D400000C000C0002CC5B84111460F00C0002CE7
:100D5000A5B800C026FFC5B808F44FEF889400C0BE
:100D600000C000C0C5B8F0FC340F00C0002CA5B80E
:100D700000C025FFC5B837958894F1FC340F00C03A
:100D800000C0002CC5B83795889400C0002CA5B8C9
:100D900000C024FFC5B8F2FC340F3795889400C01A
:100DA00000C0002CC5B8F3FC340F00C0002CA5B85F
:100DB00000C023FFC5B837958894F4FC340F00C0F9
:100DC00000C0002CC5B83795889400C0002CA5B889
:100DD00000C022FFC5B8F5FC340F3795889400C0D9
:100DE00000C0002CC5B8F6FC340F00C0002CA5B81C
:100DF00000C021FFC5B837958894F7FC340F00C0B8
:100E000000C0002CC5B83795889400C0002CA5B848
:100E100000C020FFC5B86195600F00C000C000C0D1
:100E2000002CC5B8232F00C000C0A5B800C027FF04
:100E3000C5B842813327889400C000C0002CC5B8D3
:100E40004111490F00C0002CA5B800C026FFC5B84D
:100E500008F44FEF889400C000C000C0C5B8E0FCA3
:100E6000340F00C0002CA5B800C025FFC5B83795C9
:100E70008894E1FC340F00C000C0002CC5B8379541
:100E8000889400C0002CA5B800C024FFC5B8E2FCBF
:100E9000340F3795889400C000C0002CC5B8E3FC1F
:100EA000340F00C0002CA5B800C023FFC5B837958B
:100EB0008894E4FC340F00C000C0002CC5B83795FE
:100EC000889400C0002CA5B800C022FFC5B8E5FC7E
:100ED000340F3795889400C000C0002CC5B8E6FCDC
:100EE000340F00C0002CA5B800C021FFC5B837954D
:100EF0008894E7FC340F00C000C0002CC5B83795BB
:100F0000889400C0002CA5B800C020FFC5B8ED0D26
:100F1000F11D8894232F00C000C0002CC5B8919506
:100F2000970F00C0002CA5B800C027FFC5B84181AD
:100F30003327889400C000C0002CC5B84111480F69
:100F400000C0002CA5B800C026FFC5B808F44FEFBC
:100F5000889400C000C000C0C5B810FD340F00C0A8
:100F6000002CA5B800C025FFC5B83795889411FDA1
:100F7000340F00C000C0002CC5B83795889400C05D
:100F8000002CA5B800C024FFC5B812FD340F37955A
:100F9000889400C000C0002CC5B813FD340F00C0F9
:100FA000002CA5B800C023FFC5B83795889414FD60
:100FB000340F00C000C0002CC5B83795889400C01D
:100FC000002CA5B800C022FFC5B815FD340F379519
:100FD000889400C000C0002CC5B816FD340F00C0B6
:100FE000002CA5B800C021FFC5B83795889417FD1F
:100FF000340F00C000C0002CC5B83795889400C0DD
:10100000002CA5B800C020FFC5B881958B0D232FFB
:1010100000C000C000C0C5B8119709F08ACEB30166
:10102000882777FD8095982F20EE31E040E050E052
:101030000E945C1224E096958795779567952A958E
:10104000D1F7E0E0F0E09F014AE9649E212D749E13
:10105000200D311D112440E050E0260F371F481F9E
:10106000591F293EA3E03A07A0E04A07A0E05A072B
:1010700090F1285E33404040504092E056954795AD
:10108000379527959A95D1F787E0289FE12D389FCE
:10109000E00DF11D112480910203280F311D2E0F48
:1010A0003F1F40911D0350911E0360911F037091DB
:1010B0002003832F9927A0E0B0E0840F951FA61F7F
:1010C000B71F80931D0390931E03A0931F03B0933B
:1010D000200320930203789456D2F201708B678725
:1010E0002E960FB6F894DEBF0FBECDBFCF91DF9125
:1010F0001F910F91FF90EF90DF90CF90BF90AF9036
:101100009F907F906F905F904F900895EF92FF9225
:101110000F93DF93CF9300D0CDB7DEB7AB01198229
:101120001A821B829E012F5F3F4FB90100E0EE241F
:10113000FF2488DD0F900F900F90CF91DF910F91DA
:10114000FF90EF900895EF92FF920F9301E0EE244D
:10115000FF2478DD0F91FF90EF900895EF92FF92BA
:101160000F9300E0EE24FF246DDD0F91FF90EF90D0
:101170000895EF92FF920F931F93CF93DF93EC01AB
:101180004423F1F06115710581F19B0140E050E0CD
:1011900060E472E48FE090E00E94C412EB80FC8077
:1011A0000D811E81C901DA018E159F05A007B107C7
:1011B00010F4D801C7018B839C83AD83BE8315C017
:1011C0006115710571F09B0140E050E060E472E44C
:1011D0008FE090E00E94C4122B833C834D835E839A
:1011E00004C01B821C821D821E82DF91CF911F9141
:1011F0000F91FF90EF900895CF92DF92EF92FF92C0
:101200000F931F93CF93DF938C017B01121613066C
:1012100024F06A01C0E0D0E002C06901EA01D8010F
:10122000ED91FC910480F581E02DC8011995CE0166
:10123000880F991F8C0F9D1F8E0D9F1DF8019383A2
:101240008283C586D6860190F081E02D0084F185E9
:10125000E02DC8011995BC0184E093E041E089DFED
:10126000C801DF91CF911F910F91FF90EF90DF9018
:10127000CF9008958FEF809304031092060310928D
:1012800005030895EF92FF920F931F93CF93DF937F
:10129000EC01809113039091140301969093140331
:1012A0008093130301978617970794F15ED19B01F2
:1012B000AC01609113037091140388EE93E0FB017D
:1012C000E89FB001E99F700DF89F700D11248827E9
:1012D00077FD8095982FE0900F03F0901003009118
:1012E0001103109112032E193F09400B510B0E945C
:1012F000A2123A832983109214031092130335D15A
:1013000060930F0370931003809311039093120363
:10131000DF91CF911F910F91FF90EF9008952F9241
:101320003F924F925F926F927F928F929F92AF9275
:10133000BF92CF92DF92EF92FF920F931F93DF93B2
:10134000CF93CDB7DEB729970FB6F894DEBF0FBEA7
:10135000CDBF5C016F83F50183819481A581B68146
:101360000097A105B10509F4A1C00DD12091150385
:10137000309116034091170350911803621B730BB1
:10138000840B950BD50113962D913D914D915C9158
:101390001697621773078407950708F087C0DBCF9D
:1013A000F801F485FE83D50111968D919C911297D9
:1013B0008436910510F4F8011486D801ED91FC9162
:1013C0001197828193819D838C8312964D905C90BE
:1013D00013971D962D903C901E9719821A821B829E
:1013E0009F81992399F168017E010894E11CF11C09
:1013F000D60116962C91169719966C912223D9F046
:101400006623C9F070E080E090E06F5F7F4F8F4F00
:101410009F4F30E040E050E02F5F3F4F4F4F5F4F16
:101420000E945C12A40193010E945C12BC018827F7
:101430009927F70160830894C11CD11C0894E11C12
:10144000F11C88859985E816F90691F6C801B20164
:10145000A1019E012F5F3F4FAC81BD81FD01199518
:101460008E81F8018487048115810115110509F029
:1014700097CFC50169E170E005DF29960FB6F894B2
:10148000DEBF0FBECDBFCF91DF911F910F91FF90B7
:10149000EF90DF90CF90BF90AF909F908F907F9014
:1014A0006F905F904F903F902F9008956CD0609315
:1014B00015037093160380931703909318030091FC
:1014C0000B0310910C039F81692E772488249924A3
:1014D000DE011496B987A887C8CF1F920F920FB666
:1014E0000F9211242F933F938F939F93AF93BF93AA
:1014F00080911D0390911E03A0911F03B0912003C2
:10150000309121030196A11DB11D232F2D5F2D3791
:1015100020F02D570196A11DB11D2093210380932A
:101520001D0390931E03A0931F03B093200380918B
:10153000190390911A03A0911B03B0911C0301960B
:10154000A11DB11D8093190390931A03A0931B034F
:10155000B0931C03BF91AF919F918F913F912F91B9
:101560000F900FBE0F901F9018958FB7F894209191
:101570001D0330911E0340911F03509120038FBF24
:10158000B901CA0108959FB7F894209119033091C9
:101590001A0340911B0350911C0386B5A89B06C0FB
:1015A0008F3F21F02F5F3F4F4F4F5F4F9FBF542F13
:1015B000432F322F2227280F311D411D511D82E05C
:1015C000220F331F441F551F8A95D1F7B901CA0155
:1015D00008959B01AC017FB7F89480911903909115
:1015E0001A03A0911B03B0911C0366B5A89B05C00C
:1015F0006F3F19F00196A11DB11D7FBFBA2FA92F12
:10160000982F8827860F911DA11DB11D62E0880FBC
:10161000991FAA1FBB1F6A95D1F7BC012DC0FFB748
:10162000F8948091190390911A03A0911B03B09133
:101630001C03E6B5A89B05C0EF3F19F00196A11D5C
:10164000B11DFFBFBA2FA92F982F88278E0F911D8C
:10165000A11DB11DE2E0880F991FAA1FBB1FEA95CB
:10166000D1F7861B970B885E9340C8F2215030401B
:101670004040504068517C4F2115310541055105CE
:1016800071F60895789484B5826084BD84B58160D4
:1016900084BD85B5826085BD85B5816085BDEEE67A
:1016A000F0E0808181608083E1E8F0E01082808159
:1016B00082608083808181608083E0E8F0E08081C7
:1016C00081608083E1EBF0E0808184608083E0EBE7
:1016D000F0E0808181608083E1E9F0E080818260D8
:1016E0008083808181608083E0E9F0E08081816097
:1016F0008083E1EAF0E08081826080838081816084
:101700008083E0EAF0E0808181608083E1E2F1E0C3
:10171000808182608083808181608083E0E2F1E06B
:10172000808181608083EAE7F0E08081846080834B
:1017300080818260808380818160808380818068F5
:1017400080831092C1000895CF93DF93482F50E01B
:10175000CA0188589E4FFC0134914E5C5E4FFA01DD
:101760008491882369F190E0880F991FFC01EC5166
:10177000FF4FA591B491FC01E250FF4FC591D49168
:10178000662351F42FB7F8948C91932F9095892369
:101790008C93888189230BC0623061F42FB7F89451
:1017A0008C91932F909589238C938881832B8883A8
:1017B0002FBF06C09FB7F8948C91832B8C939FBF4B
:1017C000DF91CF910895893009F449C08A30A0F49F
:1017D000843051F1853040F4823079F1833000F566
:1017E000813009F063C026C0873079F1883098F5E0
:1017F000863009F05BC025C08D3009F442C08E30C0
:1018000028F48B30B1F18C30C0F52DC0803109F453
:1018100042C0813109F445C08F3009F047C037C05C
:10182000809180008F7703C0809180008F7D8093AE
:101830008000089584B58F7702C084B58F7D84BD04
:1018400008958091B0008F7703C08091B0008F7DA4
:101850008093B0000895809190008F7707C08091A9
:1018600090008F7D03C080919000877F80939000CF
:1018700008958091A0008F7707C08091A0008F7D90
:1018800003C08091A000877F8093A000089580917D
:1018900020018F7703C0809120018F7D80932001EC
:1018A000089580912001877F8093200108950F93F0
:1018B0001F93482F50E0CA0182549E4FFC0124918F
:1018C000CA0188589E4FFC0104914E5C5E4FFA019C
:1018D0001491112319F420E030E014C0222311F0F8
:1018E000822F71DF812F90E0880F991F885E9E4FB5
:1018F000FC01A591B4918C9120E030E0802311F09F
:1019000021E030E0C9011F910F91089508951F92C1
:101910000F920FB60F920BB60F9211242F933F9395
:101920004F938F939F93EF93FF938091C00082FD1D
:101930001DC04091C60020916203309163032F5F68
:101940003F4F2F7330708091640390916503281787
:10195000390771F0E0916203F0916303EE5DFC4F93
:101960004083309363032093620302C08091C600DA
:10197000FF91EF919F918F914F913F912F910F90F8
:101980000BBE0F900FBE0F901F90189508951F92D9
:101990000F920FB60F920BB60F9211242F933F9315
:1019A0004F938F939F93EF93FF938091C80082FD95
:1019B0001DC04091CE002091EA033091EB032F5FD0
:1019C0003F4F2F7330708091EC039091ED032817F7
:1019D000390771F0E091EA03F091EB03E655FC4F13
:1019E00040833093EB032093EA0302C08091CE0042
:1019F000FF91EF919F918F914F913F912F910F9078
:101A00000BBE0F900FBE0F901F90189508951F9258
:101A10000F920FB60F920BB60F9211242F933F9394
:101A20004F938F939F93EF93FF938091D00082FD0C
:101A30001DC04091D60020917204309173042F5F35
:101A40003F4F2F7330708091740490917504281764
:101A5000390771F0E0917204F0917304EE5CFB4F72
:101A60004083309373042093720402C08091D600A7
:101A7000FF91EF919F918F914F913F912F910F90F7
:101A80000BBE0F900FBE0F901F90189508951F92D8
:101A90000F920FB60F920BB60F9211242F933F9314
:101AA0004F938F939F93EF93FF938091300182FD2B
:101AB0001DC0409136012091FA043091FB042F5F44
:101AC0003F4F2F7330708091FC049091FD042817D4
:101AD000390771F0E091FA04F091FB04E654FB4FF2
:101AE00040833093FB042093FA0402C080913601B6
:101AF000FF91EF919F918F914F913F912F910F9077
:101B00000BBE0F900FBE0F901F901895E0914E05E1
:101B1000F0914F05E05CFF4F8191919120813181DF
:101B2000821B930B8F739070892B09F0EFDEE0918D
:101B30007005F0917105E05CFF4F819191912081DA
:101B40003181821B930B8F739070892B09F01EDFFC
:101B5000E0919205F0919305E05CFF4F81919191A6
:101B600020813181821B930B8F739070892B09F038
:101B70004DDFE091B405F091B505E05CFF4F819138
:101B8000919120813181821B930B8F739070892BEF
:101B900009F07CCF08951F920F920FB60F920BB6EB
:101BA0000F9211242F933F938F939F93EF93FF9363
:101BB0002091A6033091A7038091A8039091A903D7
:101BC0002817390731F48091C1008F7D8093C100BF
:101BD00014C0E091A803F091A903EA59FC4F2081B9
:101BE0008091A8039091A90301968F7390709093B0
:101BF000A9038093A8032093C600FF91EF919F91C2
:101C00008F913F912F910F900BBE0F900FBE0F90B1
:101C10001F9018951F920F920FB60F920BB60F924E
:101C200011242F933F938F939F93EF93FF932091D2
:101C30002E0430912F0480913004909131042817A4
:101C4000390731F48091C9008F7D8093C90014C099
:101C5000E0913004F0913104E251FC4F20818091F9
:101C600030049091310401968F73907090933104F9
:101C7000809330042093CE00FF91EF919F918F913C
:101C80003F912F910F900BBE0F900FBE0F901F90A2
:101C900018951F920F920FB60F920BB60F92112448
:101CA0002F933F938F939F93EF93FF932091B604CD
:101CB0003091B7048091B8049091B904281739077E
:101CC00031F48091D1008F7D8093D10014C0E091D8
:101CD000B804F091B904EA58FB4F20818091B80410
:101CE0009091B90401968F7390709093B90480938A
:101CF000B8042093D600FF91EF919F918F913F916F
:101D00002F910F900BBE0F900FBE0F901F90189544
:101D10001F920F920FB60F920BB60F9211242F93B2
:101D20003F938F939F93EF93FF9320913E053091C4
:101D30003F0580914005909141052817390731F4FE
:101D4000809131018F7D8093310114C0E091400575
:101D5000F0914105E250FB4F208180914005909128
:101D6000410501968F7390709093410580934005D3
:101D700020933601FF91EF919F918F913F912F9189
:101D80000F900BBE0F900FBE0F901F901895AF9243
:101D9000BF92DF92EF92FF920F931F93CF93DF9347
:101DA000EC017A018B01DD24403081EE580780E0A0
:101DB000680780E0780711F0DD24D39491E0A92E24
:101DC000B12CEC89FD89DD2069F0C50108A002C0B5
:101DD000880F991F0A94E2F7808360E079E08DE331
:101DE00090E005C0108260E874E88EE190E0A80100
:101DF0009701A8D321503040404050405695479518
:101E00003795279580E12030380720F0DD2011F04C
:101E1000DD24D7CFE889F9893083EA89FB892083DB
:101E200019A2EE89FF89408121E030E0C9010C8CC4
:101E300002C0880F991F0A94E2F7482B4083EE896D
:101E4000FF894081C9010D8C02C0880F991F0A9437
:101E5000E2F7482B4083EE89FF894081C9010E8C4F
:101E600002C0880F991F0A94E2F7482B4083EE893D
:101E7000FF8980810F8C02C0220F331F0A94E2F782
:101E8000209528232083DF91CF911F910F91FF9000
:101E9000EF90DF90BF90AF900895DC011C96ED911C
:101EA000FC911D97E05CFF4F2191319180819181E0
:101EB000281B390B2F733070C9010895DC011C9663
:101EC000ED91FC911D97E05CFF4F20813181E05442
:101ED000F040DF01AE5BBF4F8D919C9111972817A9
:101EE000390719F42FEF3FEF07C08D919C91E80F50
:101EF000F91F8081282F30E0C9010895DC011C966C
:101F0000ED91FC911D97E05CFF4F20813181E05401
:101F1000F040DF01AE5BBF4F8D919C911197281768
:101F2000390719F42FEF3FEF10C08D919C91119755
:101F3000E80FF91F20818D919C91119701968F7365
:101F4000907011969C938E9330E0C9010895DC0146
:101F500091968C919197882339F05496ED91FC914C
:101F60005597808186FFF9CF91961C920895CF9363
:101F7000DF93EC01EE85FF85E05CFF4F208131812E
:101F8000E054F0402F5F3F4F2F733070DF01AE5BA6
:101F9000BF4F8D919C91119728173907D1F3E05CC1
:101FA000FF4F80819181E054F040E80FF91F60837A
:101FB000EE85FF85E05CFF4F31832083EE89FF894A
:101FC000208181E090E00F8C02C0880F991F0A9455
:101FD000E2F7282B208381E089A3EC89FD898081A9
:101FE0008064808381E090E0DF91CF9108951F931A
:101FF000109245051092440528EE33E040E050E091
:102000002093460530934705409348055093490572
:1020100068ED72E0709343056093420582E293E0BD
:1020200090934F0580934E0586E693E0909351057B
:102030008093500585EC90E0909353058093520572
:1020400084EC90E0909355058093540580EC90E0EB
:10205000909357058093560581EC90E09093590535
:102060008093580582EC90E090935B0580935A052D
:1020700086EC90E090935D0580935C0514E01093EE
:102080005E05B3E0B0935F05A7E0A0936005F5E0BF
:10209000F0936105E1E0E09362051092670510920C
:1020A0006605209368053093690540936A0550934F
:1020B0006B0570936505609364058AEA93E09093DD
:1020C0007105809370058EEE93E090937305809375
:1020D00072058DEC90E090937505809374058CECFF
:1020E00090E0909377058093760588EC90E090934C
:1020F00079058093780589EC90E090937B05809337
:102100007A058AEC90E090937D0580937C058EECB7
:1021100090E090937F0580937E0510938005B093A7
:102120008105A0938205F0938305E09384051092C6
:1021300089051092880520938A0530938B0540937A
:102140008C0550938D05709387056093860582E317
:1021500094E0909393058093920586E794E09093A2
:1021600095058093940585ED90E090939705809375
:10217000960584ED90E0909399058093980580ED05
:1021800090E090939B0580939A0581ED90E0909369
:102190009D0580939C0582ED90E090939F05809330
:1021A0009E0586ED90E09093A1058093A005109385
:1021B000A205B093A305A093A405F093A505E09311
:1021C000A6051092AB051092AA052093AC0530939A
:1021D000AD054093AE055093AF057093A90560938C
:1021E000A8058AEB94E09093B5058093B4058EEF33
:1021F00094E09093B7058093B60585E391E09093C2
:10220000B9058093B80584E391E09093BB05809372
:10221000BA0580E391E09093BD058093BC0581E30E
:1022200091E09093BF058093BE0582E391E0909387
:10223000C1058093C00586E391E09093C305809328
:10224000C2051093C405B093C505A093C605F093CD
:10225000C705E093C8051F910895CF93DF9312DA65
:102260000E94EB05C6E8DDE00E943D052097E1F302
:102270004DDCFACFFC0120E030E08081882311F4AE
:1022800021E030E0C9010895FC0181E080830895D8
:10229000CF92DF92EF92FF920F931F93CF93DF9332
:1022A0007C016B018A01C0E0D0E00FC0D6016D91C6
:1022B0006D01D701ED91FC910190F081E02DC701F6
:1022C0001995C80FD91F015010400115110571F75C
:1022D000CE01DF91CF911F910F91FF90EF90DF9092
:1022E000CF900895EF92FF920F931F938C01DC0122
:1022F000ED91FC910190F081E02D6DE019957C014C
:10230000D801ED91FC910190F081E02DC8016AE0C7
:1023100019959C012E0D3F1DC9011F910F91FF9032
:10232000EF900895CF93DF93EC016115710519F4D7
:1023300020E030E00FC0DB010D900020E9F711979D
:10234000A61BB70BE881F9810280F381E02DAD0176
:1023500019959C01C901DF91CF9108954F925F9229
:102360007F928F929F92AF92BF92CF92DF92EF9225
:10237000FF920F931F93DF93CF93CDB7DEB7A19753
:102380000FB6F894DEBF0FBECDBF2C01742ECB016B
:10239000223008F42AE019A231E2C32ED12CCC0E4F
:1023A000DD1E822E9924AA24BB24672D752FA5013A
:1023B0009401C8D079018A01C801B701A50194012F
:1023C0007BD0472D461B0894C108D1084A3014F42D
:1023D000405D01C0495CF6014083E114F104010550
:1023E000110521F07E2C5F2DC801DFCFC201B6019F
:1023F00099DFA1960FB6F894DEBF0FBECDBFCF9187
:10240000DF911F910F91FF90EF90DF90CF90BF90E1
:10241000AF909F908F907F905F904F900895DC01D8
:102420002115310541F4ED91FC910190F081E02DF1
:10243000642F1995089592CFEF92FF920F931F93F7
:102440009A01E62EFF2400E010E0B801A701E7DFC3
:102450001F910F91FF90EF900895CF92DF92EF922E
:10246000FF920F931F936C01E62E9A01FF2400E068
:1024700010E0B801A701D3DF8C01C60133DF080FDC
:10248000191FC8011F910F91FF90EF90DF90CF901F
:10249000089548CF0895EF92FF920F931F937C0108
:1024A00041DF8C01C7011EDF080F191FC8011F91F2
:1024B0000F91FF90EF900895629FD001739FF001FC
:1024C000829FE00DF11D649FE00DF11D929FF00DC4
:1024D000839FF00D749FF00D659FF00D9927729FFB
:1024E000B00DE11DF91F639FB00DE11DF91FBD0186
:1024F000CF0111240895AA1BBB1B51E107C0AA1FDD
:10250000BB1FA617B70710F0A61BB70B881F991F94
:102510005A95A9F780959095BC01CD01089597FB38
:10252000092E07260AD077FD04D0E5DF06D000206B
:102530001AF4709561957F4F0895F6F790958195FF
:102540009F4F0895A1E21A2EAA1BBB1BFD010DC0CF
:10255000AA1FBB1FEE1FFF1FA217B307E407F50753
:1025600020F0A21BB30BE40BF50B661F771F881F2F
:10257000991F1A9469F760957095809590959B01C5
:10258000AC01BD01CF01089597FB092E05260ED0A1
:1025900057FD04D0D7DF0AD0001C38F45095409581
:1025A000309521953F4F4F4F5F4F0895F6F7909527
:1025B0008095709561957F4F8F4F9F4F0895EE0FD7
:0E25C000FF1F0590F491E02D1994F894FFCFC1
:1025CE00566F6C557000566F6C446F776E002B0013
:1025DE00506F7765726564206F6E206E6F77002D79
:1025EE0000506F776572656420646F776E206E6F32
:1025FE0077002D2D2D2D2020002D2D202020200088
:10260E006F6F20202020004272696768746E6573B8
:10261E0073446F776E205B536574706F696E7420B0
:10262E002041637475616C5D0020002B2B2B2B20D9
:10263E0020002B2B20202020004272696768746EC8
:10264E00657373557020536574706F696E742020B6
:10265E0041637475616C00506F776572206275749A
:10266E00746F6E207072657373656400537461725B
:10267E00746564202D2057616974696E67202D2062
:10268E0056312E30000100000000AE08A3086B0189
:10269E0086086D0100000000B70F48114D0F7E0F28
:0426AE005E0FA70F05
:00000001FF
