:1000000014C1000043C1000041C100003FC1000015
:100010003DC100003BC1000039C1000037C10000F4
:1000200035C1000033C1000031C100002FC1000004
:100030002DC100002BC1000029C1000027C1000014
:1000400025C1000023C1000021C100001FC1000024
:100050001DC100001BC1000019C100000C94F30E6B
:1000600015C100000C94C10D0C94980D0FC1000037
:100070000DC100000BC1000009C1000007C1000054
:1000800005C1000003C1000001C10000FFC0000065
:10009000FDC00000FBC00000F9C00000F7C0000078
:1000A000F5C00000F3C00000F1C00000EFC0000088
:1000B000EDC00000EBC00000E9C00000E7C0000098
:1000C000E5C00000E3C00000E1C00000DFC00000A8
:1000D000DDC00000DBC00000D9C00000D7C00000B8
:1000E000D5C00000110D140D030D070D0D0D4B0DA6
:1000F000180D1C0D220D260D2A0D300D340D380D56
:100100004B0D3E0D420D460D00002100240027003E
:100110002A002D0030003300010100000401070116
:100120000A0100002200250028002B002E003100CB
:10013000340002010000050108010B01000020004D
:100140002300260029002C002F00320000010000AF
:10015000030106010901050505050705080808084A
:10016000020202020A0A080804040404010101014F
:10017000010101010303030303030303040707074A
:100180000C0C0C0C0C0C0C0C0202020206060606EF
:10019000060606060B0B0B0B0B0B0B0B01021020BC
:1001A00020080810204010204080020102010804AD
:1001B0000201010204081020408080402010080441
:1001C000020180040201804020100804020108049A
:1001D00002010102040810204080010204081020DE
:1001E000408000000A0B02090C0D0E0807030401F1
:1001F00000000000000000000000000000000000FF
:1002000000000000000000000000000000001211CB
:1002100010000000000000000000000000000000CE
:100220000000000000000000F32611241FBECFEFE5
:10023000D1E2DEBFCDBF00E00CBF17E0A0E0B2E02E
:10024000E6E2F1E500E00BBF02C007900D92AC368C
:10025000B107D9F721E1ACE6B7E001C01D92AB3C94
:10026000B207E1F711E0C5E1D1E000E006C0219757
:100270000109802FFE010E947F28C431D10780E050
:100280000807A9F70E945D170C949128B9CE80E960
:1002900091E00895389A0895DC01ED91FC91048C69
:1002A000F58DE02D199480E090E00895FC0185859E
:1002B00096850895CF93DF9300D000D0CDB7DEB7F9
:1002C000AB011C821D821E82DC01ED91FC9101902C
:1002D000F081E02D19821A821B829E012F5F3F4F11
:1002E000BE016C5F7F4F199526960FB6F894DEBF5E
:1002F0000FBECDBFDF91CF9108954F925F926F9265
:100300007F928F92AF92BF92CF92EF92FF920F9314
:100310001F93CF93DF933C01EB010E948A0EF30100
:1003200027853089621B730B6A307105B0F3F8942E
:10033000E881F98158B1516088B18E7F88B96A85AA
:100340009F81262F291B922F2F83BF844A805B8099
:100350007D85FC84EE847F5FF394E3943E81488541
:10036000A984CB841181D20120E0C32F022F322F28
:100370003181112788943111390F08F43FEF91959D
:10038000889470FD130F1795889471FD130F1795BE
:10039000889472FD130F1795889473FD130F1795AA
:1003A000889474FD130F1795889475FD130F179596
:1003B000889476FD130F1795889477FD130F179582
:1003C0008894232F7111212F960F122F002C58B9CA
:1003D00000C017FF88B930812227889400C000C070
:1003E000002C88B931113C0F00C0002C58B900C056
:1003F00016FF88B908F43FEFC195889400C000C08B
:10040000002C88B9F0FC230F00C0002C58B900C0A4
:1004100015FF88B927958894F1FC230F00C000C010
:10042000002C88B92795889400C0002C58B900C0CA
:1004300014FF88B9F2FC230F2795889400C000C0F0
:10044000002C88B9F3FC230F00C0002C58B900C061
:1004500013FF88B927958894F4FC230F00C000C0CF
:10046000002C88B92795889400C0002C58B900C08A
:1004700012FF88B9F5FC230F2795889400C000C0AF
:10048000002C88B9F6FC230F00C0002C58B900C01E
:1004900011FF88B927958894F7FC230F00C000C08E
:1004A000002C88B92795889400C0002C58B900C04A
:1004B00010FF88B9132FF110122FCA0D00C000C011
:1004C000002C88B900C000C0002C58B900C017FF2C
:1004D00088B932812227889400C000C0002C88B9D6
:1004E0003111340F00C0002C58B900C016FF88B974
:1004F00008F43FEFEB0DF11D00C000C0002C88B9DF
:10050000E0FC230F00C0002C58B900C015FF88B9CB
:1005100027958894E1FC230F00C000C0002C88B907
:100520002795889400C0002C58B900C014FF88B9E2
:10053000E2FC230F2795889400C000C0002C88B9E6
:10054000E3FC230F00C0002C58B900C013FF88B98A
:1005500027958894E4FC230F00C000C0002C88B9C4
:100560002795889400C0002C58B900C012FF88B9A4
:10057000E5FC230F2795889400C000C0002C88B9A3
:10058000E6FC230F00C0002C58B900C011FF88B949
:1005900027958894E7FC230F00C000C0002C88B981
:1005A0002795889400C0002C58B900C010FF88B966
:1005B000132FE110122F419500C000C0002C88B904
:1005C0004C0D00C000C058B900C017FF88B9318178
:1005D0002227889400C000C0002C88B93111390F3F
:1005E00000C0002C58B900C016FF88B908F43FEFCE
:1005F0009195889400C000C0002C88B970FD230F2D
:1006000000C0002C58B900C015FF88B92795889400
:1006100071FD230F00C000C0002C88B92795889475
:1006200000C0002C58B900C014FF88B972FD230F18
:100630002795889400C000C0002C88B973FD230F53
:1006400000C0002C58B900C013FF88B927958894C2
:1006500074FD230F00C000C0002C88B92795889432
:1006600000C0002C58B900C012FF88B975FD230FD7
:100670002795889400C000C0002C88B976FD230F10
:1006800000C0002C58B900C011FF88B92795889484
:1006900077FD230F00C000C0002C88B927958894EF
:1006A00000C0002C58B900C010FF88B9132F711179
:1006B000122F960F00C000C0002C88B9119709F0C6
:1006C00086CE20EE31E0D2010E948728DC01CB01EA
:1006D000F4E0B695A79597958795FA95D1F720E020
:1006E00030E0A9016AE9469E040C411D569E400D6A
:1006F000511D1124450D511D840F951FA11DB11DC4
:10070000893E43E09407A105B10508F434C0885E32
:100710009340A109B10942E0B695A79597958795B1
:100720004A95D1F747E0849F080E211D949F200D24
:10073000311D1124290F311D60915C0C70E0860F72
:10074000971F820F931F4091650C5091660C60912A
:10075000670C7091680C292F3327420F531F611DBE
:10076000711D4093650C5093660C6093670C7093F9
:10077000680C80935C0C78940E948A0EF301708B55
:100780006787DF91CF911F910F91FF90EF90CF90EE
:10079000BF90AF908F907F906F905F904F90089533
:1007A0000F931F93CF93DF93CDB7DEB762970FB64A
:1007B000F894DEBF0FBECDBF8C01F901DC011C96A1
:1007C0008C917A8369835C834B835E834D839081B4
:1007D0009D8791819E8792819F87813029F4CE01E8
:1007E00001960E94101706C01C861B861A86198661
:1007F00018861F82188A1A8A198AD801ED91FC91ED
:100800000484F585E02DBE016F5F7F4FC801199507
:1008100062960FB6F894DEBF0FBECDBFDF91CF91C9
:100820001F910F9108950F931F93CF93DF93CDB72F
:10083000DEB762970FB6F894DEBF0FBECDBF8C0156
:10084000F901DC011C968C917A8369835C834B836C
:100850005E834D8390819D8791819E8792819F8742
:10086000813029F4CE0101960E94101706C01C8623
:100870001B861A86198618861F8283E0888B1A8A3F
:10088000198AD801ED91FC910484F585E02DBE0113
:100890006F5F7F4FC801199562960FB6F894DEBF5F
:1008A0000FBECDBFDF91CF911F910F91089582ECC4
:1008B00096E00E94D4128091C0119091C1110E94C3
:1008C00057168091C0119091C1118B30910531F470
:1008D0002BE0E4EBF1E1AFE0B1E108C08430910539
:1008E00051F42BE0E4EBF1E1A5E2B1E101900D92CE
:1008F0002A95E1F727C08330910551F42BE0E4EB12
:10090000F1E1AAE1B1E101900D922A95E1F727C04A
:100910008530910551F42BE0E4EBF1E1A0E3B1E186
:1009200001900D922A95E1F727C08630910551F488
:100930002BE0E4EBF1E1ABE3B1E101900D922A95FC
:10094000E1F734C08730910551F42BE0E4EBF1E19D
:10095000A6E4B1E101900D922A95E1F734C0883008
:10096000910551F42BE0E4EBF1E1ACE5B1E101904C
:100970000D922A95E1F730C08930910551F42BE0B2
:10098000E4EBF1E1A7E6B1E101900D922A95E1F7E0
:100990002CC08A30910551F42BE0E4EBF1E1A2E7A1
:1009A000B1E101900D922A95E1F728C081309105BF
:1009B00051F42BE0E4EBF1E1A1E5B1E101900D92FE
:1009C0002A95E1F724C08230910531F48BE0E4EB05
:1009D000F1E1A3E9B1E122C08C30910531F48BE063
:1009E000E4EBF1E1ADE7B1E119C08D30910531F4EF
:1009F0008BE0E4EBF1E1A8E8B1E110C08E309105A5
:100A000031F48BE0E4EBF1E1AEE9B1E107C00F971F
:100A100049F48BE0E4EBF1E1A9EAB1E101900D9238
:100A20008A95E1F7089560E085E30E941F0E62E376
:100A300070E080E090E00E94AF0E87EE96E00E94AA
:100A4000D91281E08093BF118091C2119091C3119E
:100A50009093C1118093C0110895CF92DF92EF92CD
:100A6000FF920F931F93CF93DF938C01EB01809143
:100A70000C11811104C080910D11882321F0C2E373
:100A8000D0E002E310E00E94E70EC090450CD09049
:100A9000460CE090470CF090480CAB01BC014C199F
:100AA0005D096E097F09C801A0E0B0E084179507D1
:100AB000A607B70720F48091440C8823A1F00E9478
:100AC000E70EAB01BC014C195D096E097F09CE012F
:100AD000A0E0B0E084179507A607B707F8F4809167
:100AE000440C8823D9F00E94E70E6093450C709364
:100AF000460C8093470C9093480C6091440C81E025
:100B000068276093440C8DE0DF91CF911F910F9186
:100B1000FF90EF90DF90CF900C941F0EDF91CF915C
:100B20001F910F91FF90EF90DF90CF900895EF927B
:100B3000FF920F931F93CF93DF93C0916C07D091D7
:100B40006D070EE011E17E0188EBE80EF11CCE018D
:100B50000E94D027F80161918F01861719F0CE010C
:100B60000E94D8272196CE15DF0589F78CE097E003
:100B70000E94D9128091B411DF91CF911F910F91F2
:100B8000FF90EF900C940314FC01DB013C91208159
:100B9000230F08F42FEF208311963C9111972181A8
:100BA000230F08F42FEF218312963C912281230F0B
:100BB00008F42FEF22830895CF92DF92EF92FF92F5
:100BC0001F93CF93DF93EC010E94E70EC880D9807A
:100BD000EA80FB80DC01CB018C199D09AE09BF09BD
:100BE00011E0CC80DD80EE80FF808C159D05AE0588
:100BF000BF0510F410E003C0CE010E940417812F3E
:100C0000DF91CF911F91FF90EF90DF90CF900895EB
:100C10000F931F93CF93DF9300D000D0CDB7DEB7F3
:100C200089E693E0E3EAFDE0AEE6B7E001900D92DD
:100C30000197E1F78091B7119091B811892B99F440
:100C40001C821D821E82BE016F5F7F4FCE01049603
:100C50000E943D0FAE014F5F5F4F66EB70E085EB8A
:100C600098E00E94E30F8091B7119091B81101971D
:100C700099F41C821D821E82BE016F5F7F4FCE01E0
:100C800004960E943D0FAE014F5F5F4F64EC70E031
:100C90008EE697E00E94E30F8091B7119091B81112
:100CA000039771F080910C11882351F189E18093B1
:100CB0005B0C10920C1184E297E00E94D91220C0C4
:100CC0000091BD1110E0E0E7F7E020E030E02332D2
:100CD00081E0380781F0C901B8010E945828892BAA
:100CE00031F0DF0112971C9211961C9210822F5F37
:100CF0003F4F3396ECCF30934A0C2093490CD2CF20
:100D000080915B0C882309F470C080910D118823B9
:100D100091F1198290E89A831B821AE0612F0E9458
:100D20004C28682F70E0AE014F5F5F4F8EE697E072
:100D30000E94E30F19821A821B8280910D11612F8C
:100D40000E944C2890E069E170E0681B790B9C01DF
:100D5000220F331F820F931FAE014F5F5F4F8259E7
:100D6000984F0E94E30F8FEF8093B9071092BA0754
:100D70001092BB070EC01092710780E88093720733
:100D8000109273078FEF809374071092750710927B
:100D900076078FEF80936E0710926F07109270079F
:100DA0008091530C811113C08BE49CE00E940417C6
:100DB00084E690E0A0E0B0E080934F0C9093500C5C
:100DC000A093510CB093520C81E08093530C8BE4B0
:100DD0009CE0F2DE882349F080915B0C8150809387
:100DE0005B0C811102C010920D1180910F0D0E94B9
:100DF000EC1226960FB6F894DEBF0FBECDBFDF9182
:100E0000CF911F910F910895CF93C82F80913C0CE3
:100E1000811113C084E39CE00E94041784E190E0F8
:100E2000A0E0B0E08093380C9093390CA0933A0C7A
:100E3000B0933B0C81E080933C0C84E39CE0BCDEEF
:100E40008823A1F140910F0D242F30E02C1B310994
:100E5000C9010A96459710F092E001C091E0B901EE
:100E60006C5E7F4F6932710508F094E0B901625EF3
:100E70007F4F6D33710508F098E0B901685D7F4FD1
:100E80006135710508F090E12A5B3F4F2D3831053F
:100E900008F090E24C1718F4490F40930F0D209181
:100EA0000F0DC21718F4291B20930F0DCF91089531
:100EB00040910D0250910E0225E038E0429FD00192
:100EC000439FB00D529FB00D1124A75EB94CB09353
:100ED0000E02A0930D029C010C942E28089561151A
:100EE000710579F0FB0101900020E9F73197AF011E
:100EF000461B570BDC01ED91FC910280F381E02D44
:100F0000199480E090E00895CF93DF931F92CDB7BE
:100F1000DEB76983DC01ED91FC910280F381E02D65
:100F200041E050E0BE016F5F7F4F19950F90DF9158
:100F3000CF910895FC01818D928D0895BF92CF923B
:100F4000DF92EF92FF920F931F93CF93DF93CDB772
:100F5000DEB728970FB6F894DEBF0FBECDBF8C0169
:100F6000F801818D928D892B49F0D801ED91FC918A
:100F70000284F385E02DC8011995F2CFB08C80E58D
:100F800090E00E94D116E12CF12C8B2D0E94FD0FD8
:100F90006C01892B21F08B2D0E94FD0F7C01EC143C
:100FA000FD0499F70E94D0161E141F045CF548E05A
:100FB00050E0BE016F5F7F4FD80158968C910E9420
:100FC000B6109C0118161906DCF489819A81AB8150
:100FD000BC81F801808B918BA28BB38B8D8190E0CB
:100FE000982F88272E81820F911D958B848B2F81BE
:100FF00030E0322F22278885280F311D328F218F34
:10100000C90102C080E090E028960FB6F894DEBFD8
:101010000FBECDBFDF91CF911F910F91FF90EF9049
:10102000DF90CF90BF900895EF92FF921F93CF93E0
:10103000DF93EB017A01FC01178A168A108D8A81F1
:10104000811109C08B81811106C08C81811103C07F
:101050008D81882329F1E114F10411F180E590E0FC
:101060000E94D116BE016E5F7F4F812F90E0982FB6
:10107000882744E050E0845F9B4F0E945A104F2D18
:1010800060E170E0812F0E948D164E2D61E170E0CD
:10109000812F0E948D160E94D01681E090E002C040
:1010A00080E090E0DF91CF911F91FF90EF90089545
:1010B0007F928F929F92AF92BF92CF92DF92EF92E8
:1010C000FF920F931F93CF93DF935C014B016A0153
:1010D000FC0106891789708C80E590E00E94D1168A
:1010E000C0E0D0E0872D9FD77C01892B19F0872D98
:1010F0009AD7EC01CE15DF05A9F7CC15DD0568F40C
:10110000C0E0D0E0872D8FD76C01892B19F0872D97
:101110008AD7EC01CC15DD05A9F764E270E0872DD4
:101120000E94B016E82EF12C65E270E0872D0E9437
:10113000B016FE2CEE24E82AE701C00FD11F9E0155
:101140003770E72CF12CC701880F991FAC014D5661
:10115000524F7A01FA0180819181820F931FA90178
:101160004C0D5D1D4130584088F000E018E0021B36
:10117000130BA801B4019ED7A601401B510BB4016B
:10118000600F711FF7018081918102C0A601B40137
:1011900091D7CC0DDD1D4D2F64E270E0872D0E94AC
:1011A0008D164C2F65E270E0872D0E948D160E94EF
:1011B000D016F501868997898C0D9D1D978B868B9E
:1011C000C601DF91CF911F910F91FF90EF90DF90BB
:1011D000CF90BF90AF909F908F907F900895CF93C6
:1011E000FC01C08D80E590E00E94D11660E270E0C5
:1011F0008C2F0E94941562E070E08C2F0E94B01634
:1012000084FD19C062E070E08C2F0E94B01683FF4D
:101210000BC048E162E070E08C2F0E948D160E94A6
:10122000D01680E090E011C00E94D01680E590E0DA
:101230000E94D116E0CF40E162E070E08C2F0E9466
:101240008D160E94D01681E090E0CF910895CF9343
:10125000DF93EC01888D843061F00E946111E88D8C
:10126000F0E0EE0FFF1FE35AF34F1182108284E08B
:10127000888FDF91CF9108954F925F926F927F9206
:101280008F929F92AF92BF92CF92DF92EF92FF9296
:101290000F931F93CF93DF93CDB7DEB7EE970FB6C3
:1012A000F894DEBF0FBECDBF5C018B014A0182EE18
:1012B00092E09A8389831C861B8648EE53E060E0A7
:1012C00070E04D875E876F87788B2AEB32E03A8734
:1012D0002987988F8F8B198E1A8E1B8E1C8E24E077
:1012E00029A399AB88AB1AAA1BAA1CAA1DAA809194
:1012F000200D9091210DA091220DB091230D8EA370
:101300009FA3A8A7B9A78B839C83AD83BE831886B0
:101310001F82F80120E080E090E06AE03191332301
:1013200019F140ED430F4A3080F4689FA001699F96
:10133000500D1124CA01C097830F911D37FD9A9556
:101340008F3F910559F350F32BC03E3249F52330BE
:1013500039F1A2E3B0E0AC0FBD1FA20FB11D8C9319
:101360002F5F80E090E0DACF2330D1F48DABD50150
:10137000ED91FC910488F589E02D82EE92E09DA329
:101380008CA38AA99BA9ACA9BDA98EA39FA3A8A73A
:10139000B9A7A401BE016C5D7F4FC501199509C2B3
:1013A0004B815C816D817E818091280D9091290D0A
:1013B000A0912A0DB0912B0D481759076A077B079A
:1013C00009F4F5C104D56F7077277C5FCE010996CB
:1013D0000E94D416813009F0E7C182EE92E09DA30D
:1013E0008CA38B819C81AD81BE818EA39FA3A8A776
:1013F000B9A745E350E0BE016C5D7F4FCE01099671
:1014000013DE892B19F400E010E063C1E0D4788783
:101410006F837627672776277DA36CA342E050E091
:10142000BE016C5D7F4FCE01099642DE81E090E007
:101430009FAB8EAB42E050E0BE016A5C7F4FCE01B5
:10144000099636DE80E091E09FAB8EAB42E050E043
:10145000BE016A5C7F4FCE0109962ADE1FAA1EAA32
:1014600042E050E0BE016A5C7F4FCE01099620DE6B
:1014700042E050E0BE016A5C7F4FCE01099618DE63
:1014800042E050E0BE016A5C7F4FCE01099610DE5B
:101490007801D7018C91882309F1F8017F018191AE
:1014A000811115C06701C01AD10A1C141D0494F4DF
:1014B000C8AE41E050E0BE01685C7F4FCE010996A6
:1014C000F7DDA601B801CE010996F2DD03C08E3228
:1014D00029F7E8CF87010F5F1F4FDBCF18AE41E040
:1014E00050E0BE01685C7F4FCE010996E1DD00E06F
:1014F00011E01FAB0EAB42E050E0BE016A5C7F4FD3
:10150000CE010996D5DD1FAB0EAB42E050E0BE0127
:101510006A5C7F4FCE010996CBDDCE0109965FDE76
:10152000892B09F470CF63E0E62EF12C50D42B0107
:101530003C01CE01099602DD1816190694F047D435
:10154000DC01CB0184199509A609B70989389341B3
:10155000A105B105C0F462E370E080E090E0FFD344
:10156000E8CF4B815C816D817E81898D9A8DAB8DB9
:10157000BC8D481759076A077B0741F48D8D9E8DF6
:10158000C59721F406C02FEF3FEF9AC02EEF3FEF33
:1015900097C08AA19BA10C970CF4A7C04CE050E027
:1015A000BE016C5D7F4FCE01099645D68EA190E0BD
:1015B000982F88272FA1822B9BAF8AAF2CA130E0D8
:1015C000322F22274DA1242B4F81588542175307D4
:1015D00009F088C097FF86C08F709270892B09F040
:1015E000E0C00AA510E0102F00278BA5082B0115DD
:1015F000110509F4D3C0C12CD12C88A590E0982FF7
:10160000882729A5822BC816D90608F471C0C12CD9
:10161000D12C41E050E0BE01645C7F4FCE010996C1
:101620000AD68CAD982F907C09F095C0811188C0A6
:101630008CAD8111EECF42E050E0BE01685C7F4F7F
:10164000CE010996F8D542E050E0BE016A5C7F4FBA
:10165000CE010996F0D5CE0109960BD6CE0109969A
:1016600008D6CE01099605D6CE01099602D642E0EB
:1016700050E0BE01665C7F4FCE010996DCD588AD97
:1016800099AD8115914009F06BC02EA93FA9322771
:10169000232732272130310509F062C08AAD9BAD86
:1016A0008115944009F077C044E050E0BE016E5CC3
:1016B0007F4FCE0109962DAF3EAFBDD52DAD3EADCE
:1016C0008901B1E0EB1AF10821F02F3F3F4F09F4F7
:1016D0002DCFCE010996BBDD0130110509F447CEAF
:1016E000C80167C02CEF3FEFEBCF2DEF3FEFE8CF06
:1016F00041E050E0BE016A5C7F4FCE0109969BD568
:101700008EA9811113C08EA98111F2CFCE01099645
:10171000B0D5CE010996ADD5CE010996AAD5CE0198
:101720000996A7D5FFEFCF1ADF0A67CF8EA99FEFE3
:10173000980F9EAB882339F3CE0109969AD5F6CF40
:101740008CAD9FEF980F9CAF882309F471CFCE0129
:1017500009968FD5F5CFCE0109968BD51CAE68CFF3
:10176000612C712C8AAD9BAD982789279827681624
:10177000790638F4CE0109967CD58FEF681A780A7D
:10178000F1CFAFEFCA1ADA0AC016D10609F041CF7D
:1017900026EF3FEF95CF27EF3FEF92CF2AEF3FEFB6
:1017A0008FCF2BEF3FEF8CCF80E090E002C08EEF29
:1017B0009FEFEE960FB6F894DEBF0FBECDBFDF9160
:1017C000CF911F910F91FF90EF90DF90CF90BF903E
:1017D000AF909F908F907F906F905F904F90089503
:1017E000FC01538D448D252F30E0842F90E0821B27
:1017F000930B541710F0CF96089501970895FC01AC
:10180000918D828D981761F0828DDF01A80FB11D37
:101810005D968C91928D9F5F9F73928F90E008955B
:101820008FEF9FEF0895FC01918D828D981731F015
:10183000828DE80FF11D858D90E008958FEF9FEF69
:101840000895FC01918D228D892F90E0805C9F4F3F
:10185000821B91098F739927089582E79CE0F1DF3D
:1018600021E0892B09F420E0822F0895FC01848D6A
:10187000DF01A80FB11DA35ABF4F2C91848D90E0BA
:1018800001968F739927848FA689B7892C93A08995
:10189000B1898C9180648C93938D848D981306C04C
:1018A0000288F389E02D80818F7D80830895EF92F7
:1018B000FF920F931F93CF93DF93EC0181E0888F0A
:1018C0009B8D8C8D981305C0E889F989808185FDF1
:1018D00023C0F62E0B8D10E00F5F1F4F0F731127E3
:1018E000E02E8C8DE8120BC00FB607FCFACFE8890A
:1018F000F989808185FFF5CFCE01B8DFF2CF8B8DDE
:10190000FE01E80FF11DE35AFF4FF0820B8FEA89C9
:10191000FB898081806207C0EE89FF896083E88946
:10192000F98980818064808381E090E0DF91CF91AC
:101930001F910F91FF90EF900895CF93DF93EC01EB
:10194000888D8823C1F0EA89FB89808185FD05C0E7
:10195000A889B9898C9186FD0EC00FB607FCF5CF1A
:10196000808185FFF2CFA889B9898C9185FFEDCF61
:10197000CE017CDFE8CFDF91CF91089580E090E049
:10198000892B19F06ADF811125C080E090E0892B56
:1019900041F080E090E0892B21F00E94000081114D
:1019A0001CC080E090E0892B41F080E090E0892B22
:1019B00021F00E940000811113C080E090E0892B8B
:1019C000A1F080E090E0892B81F00E94000081115D
:1019D0000AC008950E940000D8CF0E940000E1CF05
:1019E0000E940000EACF0C940000089590E0FC01F2
:1019F0003197E231F10508F04EC08827EE58FF4FCD
:101A00008F4F0C947F28809180008F7703C0809146
:101A100080008F7D80938000089580918000877F73
:101A2000F9CF84B58F7702C084B58F7D84BD0895CA
:101A30008091B0008F7703C08091B0008F7D80933C
:101A4000B0000895809190008F7707C0809190003A
:101A50008F7D03C080919000877F809390000895D0
:101A60008091A0008F7707C08091A0008F7D03C078
:101A70008091A000877F8093A0000895809120012D
:101A80008F7707C0809120018F7D03C08091200156
:101A9000877F8093200108958F929F92AF92BF928B
:101AA000CF92DF92EF92FF920F931F93CF93DF932A
:101AB0007C01EB016C0182E0C80ED11C4701E5E01E
:101AC0008E0E911C00E010E0F60141916F0150E094
:101AD00060E070E02AE0CE010E94E6155C01E8813A
:101AE000F9810190F081E02D6EE2CE0119958A0D09
:101AF0009B1D080F191FC814D90431F7F701458140
:101B000050E060E070E02AE0CE010E94E615800F10
:101B1000911FDF91CF911F910F91FF90EF90DF9078
:101B2000CF90BF90AF909F908F9008950E948D2886
:101B30001F920F920FB60F9211240BB60F922F9394
:101B40003F934F935F936F937F938F939F93AF9345
:101B5000BF93EF93FF9382E79CE088DEFF91EF91C4
:101B6000BF91AF919F918F917F916F915F914F91B5
:101B70003F912F910F900BBE0F900FBE0F901F90B3
:101B800018951F920F920FB60F9211240BB60F9259
:101B90002F938F939F93EF93FF93E091820CF0919B
:101BA000830C8081E091880CF091890C82FD12C039
:101BB000908180918B0C8F5F8F7320918C0C82179A
:101BC00051F0E0918B0CF0E0EE58F34F958F80933D
:101BD0008B0C01C08081FF91EF919F918F912F918C
:101BE0000F900BBE0F900FBE0F901F901895CF93C4
:101BF000DF93282F30E0F901EE51FE4F8491F90177
:101C0000E456FE4FD491F901EA5AFE4FC491CC2319
:101C100089F08111EBDEEC2FF0E0EE0FFF1FE45CAA
:101C2000FE4FA591B491EC91ED2381E090E021F479
:101C300080E002C080E090E0DF91CF9108951F9393
:101C4000CF93DF93282F30E0F901EE51FE4F8491BE
:101C5000F901E456FE4FD491F901EA5AFE4FC491BE
:101C6000CC23C1F0162F8111C1DEEC2FF0E0EE0F76
:101C7000FF1FEE5DFE4FA591B4918FB7F89411113F
:101C800005C09C91ED2FE095E92302C0EC91ED2B6E
:101C9000EC938FBFDF91CF911F910895CF93DF9386
:101CA00090E0FC01E456FE4F2491FC01EA5AFE4FFD
:101CB0008491882361F190E0880F991FFC01E85F0F
:101CC000FE4FC591D491FC01EE5DFE4FA591B491FC
:101CD000611109C09FB7F894888120958223888379
:101CE000EC912E230BC0623061F49FB7F8943881D9
:101CF000822F809583238883EC912E2B2C939FBF7A
:101D000006C08FB7F894E8812E2B28838FBFDF9110
:101D1000CF9108953FB7F89480916A0C90916B0C25
:101D2000A0916C0CB0916D0C26B5A89B05C02F3FFF
:101D300019F00196A11DB11D3FBFBA2FA92F982FF1
:101D40008827820F911DA11DB11DBC01CD0142E06C
:101D5000660F771F881F991F4A95D1F708958F92B4
:101D60009F92AF92BF92CF92DF92EF92FF926B0160
:101D70007C01D0DF4B015C01C114D104E104F1040A
:101D8000E9F0C8DFDC01CB0188199909AA09BB0970
:101D9000883E9340A105B10578F321E0C21AD1082D
:101DA000E108F10888EE880E83E0981EA11CB11CA2
:101DB000C114D104E104F10421F7DECFFF90EF90CC
:101DC000DF90CF90BF90AF909F908F9008952FB7E6
:101DD000F8946091650C7091660C8091670C9091FD
:101DE000680C2FBF08951F920F920FB60F92112407
:101DF0002F933F938F939F93AF93BF938091650CE5
:101E00009091660CA091670CB091680C3091690CB0
:101E100023E0230F2D3720F40196A11DB11D05C02D
:101E200026E8230F0296A11DB11D2093690C809313
:101E3000650C9093660CA093670CB093680C80912E
:101E40006A0C90916B0CA0916C0CB0916D0C01968A
:101E5000A11DB11D80936A0C90936B0CA0936C0C28
:101E6000B0936D0CBF91AF919F918F913F912F9146
:101E70000F900FBE0F901F901895DC01FB014C9145
:101E800011965C91119712967C91342F3F71330F0C
:101E9000330F832F880F35E5282F239F020E20E074
:101EA000211D1124642F6074942F907247FD21C06E
:101EB00061110BC0911104C0822F8095422F11C077
:101EC00045E5420F30E02BEA33C091110DC0382FA9
:101ED0004AEA349F030E30E0311D11248BEA831B44
:101EE000420F282F30E024C080E0422F4095322F4F
:101EF0000EC0611111C091110CC0382F2AEA329F17
:101F0000030E30E0311D11244BEA431B3B5A20E005
:101F10000FC0322F30950BC0911104C085E5820FA0
:101F20003BEA03C08AEA820F90E0321B282F40E090
:101F30005F3F11F15523E9F0222321F0259F020E86
:101F400020E0211D442321F0459F040E40E0411D67
:101F5000332321F0359F030E30E0311D11245095BD
:101F6000559F050E50E0511D1124250F450F350FCB
:101F700003C03FEF4FEF2FEF7F3F09F420C050E049
:101F8000772321F0779F512D09F05F5F5523A1F052
:101F9000222321F0259F020E20E0211D442321F061
:101FA000459F040E40E0411D332321F0359F030E71
:101FB00030E0311D112403C030E040E020E02083F8
:101FC000418332830895FA01029620E030E026171B
:101FD000370774F44081DC0112974C9341811196CC
:101FE0004C934281DC014C932F5F3F4F0396EFCF20
:101FF00008952C9A08952C9808951F93CF93DF93FA
:10200000182F66E270E0ACD6C82FD0E067E270E02F
:10201000812FA6D6DC2FCC279E01282BC901DF916A
:10202000CF911F9108951F93CF93DF93182F60E2F4
:1020300070E096D6C82FD0E061E270E0812F90D694
:10204000DC2FCC279E01282BC901DF91CF911F9156
:1020500008958EBD00000DB407FEFDCF8EB5089526
:10206000CF92DF92EF92FF920F931F93CF93DF9364
:10207000EC017A018B016C01C40ED51ECC15DD0577
:1020800079F0B9DF8FE0E5DF8D2FE3DF8C2FE1DF23
:10209000219680E0DEDFF80181938F01AADFEECF89
:1020A000C701DF91CF911F910F91FF90EF90DF90CB
:1020B000CF900895CF92DF92EF92FF920F931F93EC
:1020C000CF93DF93EC017A018B016C01C40ED51E16
:1020D000CC15DD0571F08FDF80EFBBDF8D2FB9DF11
:1020E0008C2FB7DF2196F80181918F01B2DF81DF5C
:1020F000EFCFC701DF91CF911F910F91FF90EF902C
:10210000DF90CF9008950895FF920F931F93CF9380
:10211000DF931F92CDB7DEB7FC01218D328D232BCB
:10212000E1F0F08C80E590E03CD668E270E08F2D25
:1021300017D6082F10E069E270E08F2D11D6702FAE
:102140006627682B21E030E0AE014F5F5F4F8F2D97
:10215000F9D426D6898190E002C08FEF9FEF0F90CF
:10216000DF91CF911F910F91FF900895AF92BF9291
:10217000DF92EF92FF920F931F93CF93DF93D82EAE
:102180007B018A0180E590E00CD6C0E0D0E08D2D87
:1021900034DF5C01892B19F08D2D2FDFEC01CA157E
:1021A000DB05A9F7209791F463E070E08D2DD8D579
:1021B0008431A9F1882399F1C1E0D0E08C3111F488
:1021C000C0E0D0E0D195C195D10929C00C171D07F9
:1021D0000CF4E8011C161D0614F568E270E08D2D64
:1021E000BFD5082F10E069E270E08D2DB9D5102F12
:1021F0000027082B9E01A701B8018D2DA3D40C0F39
:102200001D1F412F68E270E08D2D87D5402F69E2B8
:1022100070E08D2D82D560E470E08D2D85D4C0D521
:10222000CE01DF91CF911F910F91FF90EF90DF9042
:10223000BF90AF900895CF93DF93FC01218D328D35
:102240002115310519F48FEF9FEF10C0EC014217F3
:10225000530708F0A901888D89DF181619069CF725
:10226000298D3A8D281B390B3A8F298FDF91CF9119
:1022700008950F931F93CF93DF931F92CDB7DEB7CF
:10228000FC01218D328D232B59F08C0141E050E06F
:10229000BE016F5F7F4F808D69DF181619061CF035
:1022A0008FEF9FEF08C0F801818D928D0197928F7B
:1022B000818F898190E00F90DF91CF911F910F91D5
:1022C0000895CF93C82F80E590E06BD560E170E072
:1022D0008C2F2AD44FEF62E070E08C2F1ED5CF9167
:1022E0005FC5FF920F931F93CF93DF931F921F92AF
:1022F000CDB7DEB7F82E8A012A836983E2DF80E555
:1023000090E04FD52A816981462F422B60E070E032
:102310008F2D03D50115110551F400916E0C10910C
:102320006F0C0F5F1F4F10936F0C00936E0C412FBB
:1023300064E070E08F2DF1D4402F65E070E08F2DC8
:10234000ECD461E070E08F2DEFD32AD581E00F90BF
:102350000F90DF91CF911F910F91FF900895BF9241
:10236000CF92DF92EF92FF920F931F93CF93DF9361
:1023700000D000D0CDB7DEB7FC01208D243009F0AD
:1023800057C06A017B018C01B12C63E070E08B2D9A
:10239000E7D4811103C0F801B08E06C08831D9F3AB
:1023A000B394F4E0BF12F1CFF801808D843009F4CA
:1023B0003FC096E0E1E3F2E0DE01119601900D925C
:1023C0009A95E1F7F70193819F779C8394819D8390
:1023D00095819E83B7016E5F7F4F90E0982F88278D
:1023E00044E050E0845F9B4F65DEF801F08C4D2D9A
:1023F00060E170E08F2D91D44C2D61E170E08F2D64
:102400008CD4F801808D90E0982F882746E050E02A
:10241000BE016F5F7F4F8A5F9B4F4CDEF801128ECB
:10242000118E20E8A60162E0808D5BDF81E001C0B3
:1024300080E026960FB6F894DEBF0FBECDBFDF91C9
:10244000CF911F910F91FF90EF90DF90CF90BF90B1
:1024500008950F931F93CF93DF938C01C62FD42F32
:102460008F3F910509F010F4102F0027B0DC9B017D
:10247000AC01A8E1B1E00E9402289B01AC01D801A7
:102480000E940228292F96FD2095E22FEF732F70CE
:1024900096FD2F5FE695E695E695E670F0E0EA5A40
:1024A000FD4F3181329F202D312D112422952F7027
:1024B0003295307F232B3081230F97FD21953D2FBF
:1024C0003C1B2058239F020E20E0211D1124822F47
:1024D0008C0FDF91CF911F910F910895EF92FF9292
:1024E0000F931F93CF93DF937C01EB018A018FEF52
:1024F000E816F10409F010F4FE2CEE2468DC9B01D0
:10250000AC01A8E1B1E00E9402289B01AC01D70117
:102510000E940228AC0166277727CA019F7396950F
:10252000879596958795969587959A012227307479
:10253000232B31F02FEF37E0F901E81BF90BCF0126
:10254000E92FEE0FEE0FF0E0E95CFD4F20813181C5
:1025500092818695989F200D311D112457FF03C04D
:102560003195219531093058A8014C1B5D0B249FF2
:10257000C001359FD001E0E0349F900DA11DBE1F2A
:10258000259F900DA11DBE1F1124BC01CD01620F1E
:10259000731F8E1F9E1F8C0F9D1FDF91CF911F9168
:1025A0000F91FF90EF900895BC0182E79CE00C949E
:1025B0006F07CF93DF93BC0182E79CE00E946F0717
:1025C000EC0168E173E082E79CE00E946F078C0FEA
:1025D0009D1FDF91CF9108953F924F925F926F922E
:1025E0007F928F929F92AF92BF92CF92DF92EF92A3
:1025F000FF920F931F93CF93DF9300D0CDB7DEB739
:10260000F82E8091120D9091130DA091140DB091A0
:10261000150D892B8A2B8B2BE1F07CDB0091320D81
:102620001091330D2091340D3091350DDC01CB012B
:10263000801B910BA20BB30B0091120D1091130D87
:102640002091140D3091150D80179107A207B30743
:10265000C0F260DB6093320D7093330D8093340DC4
:102660009093350DE0911A0DF0911B0D309759F0B4
:102670004091160D5091170D6091180D7091190D24
:102680008F2D1995F82E0091700C1091710C4F2C14
:10269000512C612C712C0115110509F461C0D80170
:1026A0001C96EC901C978091100D9091110D843622
:1026B000910510F41C961C92D801ED91FC91A2801A
:1026C000B38019821A821B82F11014C0F80145856B
:1026D0005685628173819E012F5F3F4FC801F501CE
:1026E0001995D8011C96EC921C9714960D911C918B
:1026F0001597D1CFF8013996CE0101966C014801AA
:102700009CE0890E911CDF0113973C9021913320AE
:1027100001F12223F1F0822F90E0A0E0B0E09C01D3
:10272000AD012F5F3F4F4F4F5F4FC301B2010E947A
:102730003D289B01AC01832D90E0A0E0B0E0BC01FE
:10274000CD016F5F7F4F8F4F9F4F0E943D28D60175
:102750008C93BFEFCB1ADB0AE815F905A1F6B6CFCB
:102760008091300D9091310D8C010F5F1F4F1093B0
:10277000310D0093300D49978CF129DB4B015C0141
:1027800088EE93E0089FB001099F700D189F700DAF
:102790001124072E000C880B990BC0902C0DD090A3
:1027A0002D0DE0902E0DF0902F0DA50194012C1908
:1027B0003D094E095F090E940C283093110D2093AA
:1027C000100D1092310D1092300D01DB60932C0D25
:1027D00070932D0D80932E0D90932F0D0F900F90D1
:1027E0000F90DF91CF911F910F91FF90EF90DF90AD
:1027F000CF90BF90AF909F908F907F906F905F90A1
:102800004F903F900895CF93DF93482F50E060E0C2
:1028100070E02AE082E79CE0D9D1EC0168E173E046
:1028200082E79CE00E946F078C0F9D1FDF91CF9184
:102830000895CF92DF92EF92FF920F931F93CF9361
:10284000DF936C017A018B01C0E0D0E0CE15DF058B
:1028500089F0D8016D918D01D601ED91FC91019027
:10286000F081E02DC6011995892B11F47E0102C07B
:102870002196ECCFC701DF91CF911F910F91FF906F
:10288000EF90DF90CF900895AF92BF92CF92EF92EA
:102890000F931F93CF93DF93B62EEA0190E0409100
:1028A000C6115091C7114817590709F03FC08091D0
:1028B000C9119091C811811102C09923B9F1888181
:1028C000422F50E0682F70E0992371F04C0D511D9C
:1028D000461757072CF48C19888387E497E00DC0BE
:1028E00028838EE497E009C04E0D511D4617570707
:1028F000BCF78E19888385E597E056DE11E01093CA
:10290000C4118CE597E050DE88817DDF10930C11B7
:10291000602F70E08FEF90E00E946C288881869F86
:10292000602D112460930D111092C9116B2D70E070
:102930008091C6119091C7118617970709F03FC083
:102940008091C9119091C811811102C09923B9F1E8
:102950008881A02EB12C282F30E0A501992371F099
:102960004C195109241735072CF4C80EC88287E486
:1029700097E00DC008838EE497E009C04E19510915
:1029800024173507BCF7E80EE88285E597E00CDEF2
:1029900001E00093C4118CE597E006DE888133DF07
:1029A00000930C118FEF90E0B5010E946C28888194
:1029B000869F602D112460930D111092C911DF9133
:1029C000CF911F910F91EF90CF90BF90AF9008954E
:1029D000CF93DF93382FE3EAFDE0A5EABDE0208145
:1029E000239F020E20E0211D2083ED012A91239FC9
:1029F000020E20E0211D28832C91239F020E20E04F
:102A0000211D2C9311243396139681E1EC30F807A5
:102A100031F7DF91CF9108954F925F926F927F923D
:102A20008F929F92AF92BF92CF92DF92EF92FF92DE
:102A30000F931F93CF93DF9300D0CDB7DEB7DC01A8
:102A4000FB01908141810C911196EC9111971296A6
:102A50002C91411101C0902F222311F0E11101C0EE
:102A6000092FF0E030E0901B50E8959FC001112441
:102A700052E2E52EFF24F394B7010E946C285B011B
:102A8000842F90E08E1B9F0B9695982F8827979503
:102A90008795B7010E946C286B018FEF90E0821B35
:102AA000930B9695982F882797958795B7010E9445
:102AB0006C28AA0CBB1CCC0CDD1C7B01EE0CFF1C93
:102AC00010E0102F00277E2E6624922E882453EAD1
:102AD000452E5DE0552E19837A829B82B201CE018C
:102AE0000196CBD90A0D1B1D6C0C7D1C8E0C9F1CF6
:102AF00083E0480E511CECE04E16E1E15E0659F70A
:102B00000F900F900F90DF91CF911F910F91FF9039
:102B1000EF90DF90CF90BF90AF909F908F907F907D
:102B20006F905F904F900895CF93C82F462F61E02C
:102B300070E0F3D061E070E08C2F12D18111FACFF8
:102B4000CF910895AF92BF92CF92DF92EF92FF9212
:102B50000F931F93CF93DF931F921F92CDB7DEB7D2
:102B60007A836983BA01A901E981FA81F770082F94
:102B700010E0000F111F0556124FD8018D919C9146
:102B80008E0F9F1F2E0F3F1F2130384090F07A018B
:102B90005B0120E038E06901CE1ADF0AA60160DAA5
:102BA000A7014C195D09B5016C0D7D1DF8018081EF
:102BB00091810F900F90DF91CF911F910F91FF9016
:102BC000EF90DF90CF90BF90AF904ACA4F925F9244
:102BD0006F927F92EF92FF920F931F93CF93DF93A9
:102BE000CDB7DEB7A1970FB6F894DEBF0FBECDBF4D
:102BF0007C01FA01CB0119A2223008F42AE08E01EF
:102C00000F5D1F4F422E512C612C712CBF01A3016F
:102C100092010E940C28F901CA01015011096A3081
:102C200014F4605D01C0695CD8016C93232B242BE4
:102C3000252B61F7B801C7010E946F07A1960FB657
:102C4000F894DEBF0FBECDBFDF91CF911F910F91E2
:102C5000FF90EF907F906F905F904F900895CF928C
:102C6000DF92EF92FF92CF93DF936B017C01E091B3
:102C7000720CF091730C0190F081E02D6DE282E70F
:102C80009CE01995EC0144275527BA014C195D09C0
:102C90006E097F092AE082E79CE098DF8C0F9D1F78
:102CA000DF91CF91FF90EF90DF90CF900895CF9379
:102CB000DF93AC01990F660B770B77FF04C0CB0154
:102CC000BA01CDDF04C02AE082E79CE07FDFEC019F
:102CD00068E173E082E79CE00E946F078C0F9D1F04
:102CE000DF91CF910895FC0184899589089522EEA2
:102CF00032E0FC0131832083FB01408951896289E4
:102D00007389FC014283538364837583089580E053
:102D10000895089580E090E008950F931F93CF9356
:102D2000DF931F92CDB7DEB7282F30E02C5F3F4FE7
:102D3000322F22278901060F171F49835CD980EFA4
:102D400088D9812F86D9802F84D94981842F81D930
:102D500050D981E00F90DF91CF911F910F9108958D
:102D60000F931F93CF93DF931F92CDB7DEB790E001
:102D70000496982F88278C01060F171F3CD98FE0E7
:102D800068D9812F66D9802F64D980E062D9898380
:102D900030D989810F90DF91CF911F910F910895C4
:102DA00008958CBD9DBD0895EF92FF921F93CF9320
:102DB000DF93FC01208D243011F080E01FC07B01E7
:102DC000EC0110E080E590E0ECDF63E070E0812F43
:102DD000C7DF811102C0188F05C08831E1F31F5F82
:102DE000143081F7888D843041F3FD86EC861A8E8D
:102DF000198E20E0A70162E074DA81E0DF91CF91C3
:102E00001F91FF90EF900895CF93DF93EC010E9404
:102E1000E70E688379838A839B83DF91CF9108953E
:102E2000EF92FF920F931F93CF93DF93EC0190915A
:102E3000CA119F5F292F27702093CA1190FF02C0EB
:102E400090E801C090E021FD9064247009F0906248
:102E500020E1290FFE013C967E018FE0E80EF11C77
:102E600000E011E06191662331F070E0C8010E943A
:102E70006C286F5F01C060E0DF0114976C93322F04
:102E8000369F030E30E0311D1124CF010797311119
:102E900003C0EC01188203C03150EC013883662373
:102EA00011F061506C93EE15FF05E1F6DF91CF91C3
:102EB0001F910F91FF90EF900895CF93DF9300D073
:102EC00000D0CDB7DEB7789484B5826084BD84B578
:102ED000816084BD85B5826085BD85B5816085BD15
:102EE00080916E00816080936E00109281008091CD
:102EF0008100826080938100809181008160809355
:102F00008100809180008160809380008091B10079
:102F100084608093B1008091B00081608093B000A4
:102F200080919100826080939100809191008160F6
:102F300080939100809190008160809390008091B7
:102F4000A10082608093A1008091A10081608093A4
:102F5000A1008091A00081608093A0008091210158
:102F60008260809321018091210181608093210101
:102F70008091200181608093200180917A0084609B
:102F800080937A0080917A00826080937A008091A9
:102F90007A00816080937A0080917A0080688093C3
:102FA0007A001092C1008091EA0A811145C0109206
:102FB000DC0A1092DB0A8FEF8093DF0A8093E00A2D
:102FC0008093E10A8093E20A8093E30A8093E40A03
:102FD00081E08093E50A1092E70A1092E60A1092C7
:102FE000DE0A1092DD0A8091700C9091710C892B91
:102FF00031F489ED9AE09093710C8093700CE0911C
:10300000D70AF091D80A309721F089ED9AE095839C
:10301000848389ED9AE09093D80A8093D70A10921E
:10302000E90A1092E80A83E292E09093DA0A809328
:10303000D90A81E08093EA0AE091D90AF091DA0A8C
:103040000480F581E02D89ED9AE019958EE697E0F0
:103050009093DC0A8093DB0A83E291E09093E70A85
:103060008093E60AE091D90AF091DA0A0284F385A6
:10307000E02D89ED9AE01995009729F19C0140E037
:1030800050E060E472E48FE090E00E94E627722F47
:10309000632F0091120D1091130D2091140D30919A
:1030A000150D872F962FDA0180179107A207B30716
:1030B00010F4D901C8018093120D9093130DA093C1
:1030C000140DB093150D10920F0DE091820CF0913C
:1030D000830C82E08083E0917E0CF0917F0C108263
:1030E000E091800CF091810C80E1808310928A0C39
:1030F000E091860CF091870C86E08083E091840C4F
:10310000F091850C808180618083E091840CF09146
:10311000850C808188608083E091840CF091850C1F
:10312000808180688083E091840CF091850C80819F
:103130008F7D80838AEE92E037DA85E093E039DA9A
:1031400089E093E031DA2AE04DEA5AEC6DE270E072
:1031500082E79CE03BDD68E173E082E79CE00E944F
:103160006F0760E084E20E944E0E60E082E20E94FF
:103170004E0E60E08EE10E944E0E60E08CE10E94F7
:103180004E0E60E08AE10E944E0E60E088E10E94EF
:103190004E0E60E086E10E944E0E61E08DE00E94DE
:1031A0004E0E61E085E30E944E0E2091F40A3091AC
:1031B000F50A8091F20A9091F30A2817390731F441
:1031C00080E290E09093F30A8093F20A6091F20A11
:1031D0007091F30A613020E1720734F480E090E1ED
:1031E0009093010280930002CB0188549F4F9093EB
:1031F000F50A8093F40A70936D0760936C0748EBAF
:1032000050E08EE091E10E94C02781E090910E1184
:10321000983009F080E0809302028111B4C080E808
:103220008093B41182E090E09093B8118093B7112D
:1032300083E08093BD118FEF8093B51181E080937F
:10324000B61140EE51EF6FEF70E04093B91150931B
:10325000BA116093BB117093BC118093C41121E02B
:1032600030E03093C1112093C0111092C31110921D
:10327000C2118093BF118093C5118BE0E4EBF1E1A3
:10328000A0E3B1E101900D928A95E1F78BE0E4EBC8
:10329000F1E1ACE5B1E101900D928A95E1F78BE0A7
:1032A000E4EBF1E1A7E6B1E101900D928A95E1F737
:1032B0008BE0E4EBF1E1ABE3B1E101900D928A9593
:1032C000E1F78BE0E4EBF1E1AFE0B1E101900D92C9
:1032D0008A95E1F78BE0E4EBF1E1ADE7B1E1019034
:1032E0000D928A95E1F78BE0E4EBF1E1A8E8B1E11A
:1032F00001900D928A95E1F78BE0E4EBF1E1A1E515
:10330000B1E101900D928A95E1F78BE0E4EBF1E1F8
:10331000A3E9B1E101900D928A95E1F78BE0E4EB2E
:10332000F1E1A2E7B1E101900D928A95E1F78BE01E
:10333000E4EBF1E1A6E4B1E101900D928A95E1F7A9
:103340008BE0E4EBF1E1AAE1B1E101900D928A9505
:10335000E1F78BE0E4EBF1E1A5E2B1E101900D9240
:103360008A95E1F78BE0E4EBF1E1AEE9B1E10190A0
:103370000D928A95E1F788E080930E110E949705DF
:103380008BE193E002C08DE293E013D981E080935A
:10339000C4118093BF11E091700CF091710C3097C3
:1033A00029F084870480F581E02DF9CF60E085E382
:1033B0000E941F0E28E2822E912CA12CB12C38EEF7
:1033C000432E33E0532E612C712C8091FF0A811122
:1033D0000EC087EF9AE018DD8092FB0A9092FC0AFB
:1033E000A092FD0AB092FE0A81E08093FF0A87EF67
:1033F0009AE00E94DC05882309F457C284E20E9407
:10340000F70D2091F60A30E08217930709F444C2C1
:103410008EE393E0CED89091F60A81E089278093DD
:10342000F60A86E10E94F70D892BB1F488E10E942B
:10343000F70D892B89F48AE10E94F70D892B61F43D
:103440008CE10E94F70D892B39F48EE10E94F70D73
:10345000892B11F40C944F2686E10E94F70D892BDD
:10346000B1F488E10E94F70D892B89F48AE10E946A
:10347000F70D892B61F48CE10E94F70D892B39F44B
:103480008EE10E94F70D019711F40C94572686E106
:103490000E94F70D892BB1F488E10E94F70D892B6A
:1034A00089F48AE10E94F70D892B61F48CE10E9476
:1034B000F70D019739F48EE10E94F70D892B11F475
:1034C0000C945F2686E10E94F70D892BB1F488E108
:1034D0000E94F70D892B89F48AE10E94F70D892B50
:1034E00061F48CE10E94F70D019739F48EE10E949E
:1034F000F70D019711F40C94672686E10E94F70DF1
:10350000892BB1F488E10E94F70D892B89F48AE1B7
:103510000E94F70D019761F48CE10E94F70D892B51
:1035200039F48EE10E94F70D892B11F40C946F266B
:1035300086E10E94F70D892BB1F488E10E94F70D16
:10354000892B89F48AE10E94F70D019761F48CE1DF
:103550000E94F70D892B39F48EE10E94F70D019737
:1035600011F40C94772686E10E94F70D892BB1F4B3
:1035700088E10E94F70D892B89F48AE10E94F70DFA
:10358000019761F48CE10E94F70D019739F48EE107
:103590000E94F70D892B11F40C947F2686E10E947E
:1035A000F70D892BB1F488E10E94F70D892B89F47E
:1035B0008AE10E94F70D019761F48CE10E94F70DFA
:1035C000019739F48EE10E94F70D019711F40C94E4
:1035D000872686E10E94F70D892BB1F488E10E94CD
:1035E000F70D019789F48AE10E94F70D892B61F4A8
:1035F0008CE10E94F70D892B39F48EE10E94F70DC2
:10360000892B11F40C948F2686E10E94F70D892BEB
:10361000B1F488E10E94F70D019789F48AE10E94D4
:10362000F70D892B61F48CE10E94F70D892B39F499
:103630008EE10E94F70D019711F40C94972686E114
:103640000E94F70D892BB1F488E10E94F70D0197D4
:1036500089F48AE10E94F70D892B61F48CE10E94C4
:10366000F70D019739F48EE10E94F70D892B11F4C3
:103670000C949D2686E10E94F70D892BB1F488E118
:103680000E94F70D019789F48AE10E94F70D892BBA
:1036900061F48CE10E94F70D019739F48EE10E94EC
:1036A000F70D019711F40C94A52686E10E94F70D01
:1036B000892BB9F488E10E94F70D019791F48AE112
:1036C0000E94F70D8C01019761F48CE10E94F70DC7
:1036D000892B39F48EE10E94F70D892B11F40C949B
:1036E000AD2686E10E94F70D892BB1F488E10E9496
:1036F000F70D019789F48AE10E94F70D019761F4B3
:103700008CE10E94F70D892B39F48EE10E94F70DB0
:10371000019711F40C94B32686E10E94F70D892BD2
:10372000B1F488E10E94F70D019789F48AE10E94C3
:10373000F70D019761F48CE10E94F70D019739F4C0
:103740008EE10E94F70D892B11F40C94BB2686E1C3
:103750000E94F70D892BB1F488E10E94F70D0197C3
:1037600089F48AE10E94F70D019761F48CE10E94CF
:10377000F70D019739F48EE10E94F70D019711F4CE
:103780000C94C32686E10E94F70D0197B1F488E1FD
:103790000E94F70D892B89F48AE10E94F70D892B8D
:1037A00061F48CE10E94F70D892B39F48EE10E94BF
:1037B000F70D892B11F40C94CB2686E10E94F70DAE
:1037C0000197B1F488E10E94F70D892B89F48AE111
:1037D0000E94F70D892B61F48CE10E94F70D892B73
:1037E00039F48EE10E94F70D019711F40C94D32661
:1037F00086E10E94F70D0197B1F488E10E94F70D70
:10380000892B89F48AE10E94F70D892B61F48CE100
:103810000E94F70D019739F48EE10E94F70D892B74
:1038200011F40C94DB2686E10E94F70D0197B1F4A8
:1038300088E10E94F70D892B89F48AE10E94F70D37
:10384000892B61F48CE10E94F70D019739F48EE128
:103850000E94F70D019711F40C94E32686E10E9473
:10386000F70D0197B1F488E10E94F70D892B89F4D7
:103870008AE10E94F70D019761F48CE10E94F70D37
:10388000892B39F48EE10E94F70D892B11F40C94E9
:10389000EB2681E08093C91182E20E94F70D21E0BE
:1038A000892B09F420E02093C81180912C0C811100
:1038B00012C084E29CE0A8DA84E690E0A0E0B0E0E8
:1038C0008093280C9093290CA0932A0CB0932B0C76
:1038D00081E080932C0C84E29CE00E94DC0588232C
:1038E00009F4A1C08091C6119091C7110A9709F0FF
:1038F0009AC08091C911882309F495C09091BF1195
:1039000081E089278093BF11811145C084E693E04F
:103910000E94D4128091BF1190E0C9D90E949705EE
:1039200011E080910F0D882339F180910F0B8111E7
:1039300011C087E09BE068DA2EE130E040E050E023
:1039400020930B0B30930C0B40930D0B50930E0BED
:1039500010930F0B87E09BE00E94DC05882329F081
:1039600080E00E9404070E9408066AE070E084E696
:1039700090E00E942D05D5CF89E893E00E94D912EE
:103980006AEF70E080E090E00E94AF0E61E085E3B6
:103990000E941F0E46C08EEA93E00E94D4128091CE
:1039A000BF1190E084D960E085E30E941F0E62E3BE
:1039B00070E080E090E00E94AF0E11E090910F0D5A
:1039C0008091B411981731F180911F0B81110DC0B6
:1039D00087E19BE019DA80921B0B90921C0BA0925E
:1039E0001D0BB0921E0B10931F0B87E19BE00E94F2
:1039F000DC05882341F08091B4110E940407809176
:103A00000F0D0E94EC1264E670E08AE090E00E94E4
:103A10002D05D4CF82ED93E00E94D91281E08093EE
:103A2000C4111092C91180912F0B81110EC087E231
:103A30009BE0EAD980922B0B90922C0BA0922D0B3D
:103A4000B0922E0B81E080932F0B87E29BE00E94C7
:103A5000DC05882309F441C28091C911882309F447
:103A600042C08091C6119091C7110697E1F50E945E
:103A700057048091BF11811102C00E9413058091EB
:103A8000C0119091C111019791F482E090E0909360
:103A9000C1118093C0118BE0E3E9F1E1A4EBB1E146
:103AA00001900D928A95E1F784EF93E011C081E0D7
:103AB00090E09093C1118093C0118BE0E1E5F1E1BA
:103AC000A4EBB1E101900D928A95E1F78AE194E0CF
:103AD0000E94D91281E08093C4111092C911809381
:103AE0000C1110920D118091C911882351F1809110
:103AF000C6119091C711049721F50E945704809137
:103B0000BF11811102C00E9413058EE090E09093D6
:103B1000C1118093C0118BE0EEE9F1E1A4EBB1E1BA
:103B200001900D928A95E1F78FE394E00E94D912FB
:103B300081E08093C4111092C91180930C111092EE
:103B40000D118091C911882309F45DC08091C611BF
:103B50009091C711089709F056C00E9457048091B0
:103B6000BF11811102C00E9413058091C011909174
:103B7000C11184309105B9F08530910531F1039779
:103B800021F584E090E09093C1118093C0118BE007
:103B9000E5E2F1E1A4EBB1E101900D928A95E1F744
:103BA0008FE894E023C085E090E09093C11180936A
:103BB000C0118BE0E0E3F1E1A4EBB1E101900D92E3
:103BC0008A95E1F783E694E011C083E090E090935A
:103BD000C1118093C0118BE0EAE1F1E1A4EBB1E106
:103BE00001900D928A95E1F78AEB94E00E94D91238
:103BF00081E08093C4118093C5111092C911809304
:103C00000C1110920D118091C911882309F440C044
:103C10008091C6119091C7110597D1F50E94570464
:103C20008091BF11811102C00E9413058091C011C3
:103C30009091C111069771F487E090E09093C111C3
:103C40008093C01186EE94E00E94D9128BE0E6E4E6
:103C5000F1E10DC086E090E09093C1118093C01116
:103C60008DE095E00E94D9128BE0EBE3F1E1A4EB4B
:103C7000B1E101900D928A95E1F781E08093C41142
:103C80008093C5111092C91180930C1110920D11DF
:103C90008091C911882361F18091C6119091C7115B
:103CA000019731F50E9457048091BF11811102C024
:103CB0000E9413058FE090E09093C1118093C01192
:103CC0008BE0E9EAF1E1A4EBB1E101900D928A9574
:103CD000E1F781E395E00E94D91281E08093C4115D
:103CE0008093C5111092C91180930C1110920D117F
:103CF0008091C911882309F45AC08091C61190910E
:103D0000C711029709F053C00E9457048091BF1158
:103D1000811102C00E9413058091C0119091C111C0
:103D200088309105A1F0099721F58AE090E0909301
:103D3000C1118093C0118BE0E2E7F1E1A4EBB1E1A6
:103D400001900D928A95E1F78BE595E023C089E01B
:103D500090E09093C1118093C0118BE0E7E6F1E110
:103D6000A4EBB1E101900D928A95E1F781E895E02D
:103D700011C088E090E09093C1118093C0118BE056
:103D8000ECE5F1E1A4EBB1E101900D928A95E1F748
:103D900083EB95E00E94D91281E08093C411809357
:103DA000C5111092C91180930C1110920D118091C0
:103DB000C911882309F457C08091C6119091C71189
:103DC000079709F050C00E9457048091BF118111DC
:103DD00002C00E9413058091C0119091C1118B30D7
:103DE0009105A1F00C9721F58DE090E09093C11121
:103DF0008093C0118BE0E8E8F1E1A4EBB1E1019020
:103E00000D928A95E1F786E096E022C08CE090E082
:103E10009093C1118093C0118BE0EDE7F1E1A4EB29
:103E2000B1E101900D928A95E1F78BED95E010C01C
:103E30008BE090E09093C1118093C011EFE0F1E12D
:103E4000A4EBB1E101900D928A95E1F781E396E050
:103E50000E94D91281E08093C4111092C9118093FD
:103E60000C1110920D118091C9118823B1F180912C
:103E7000C6119091C711099781F50E94570481E0FE
:103E800090E09093C1118093C0118BE0E1E5F1E1E6
:103E9000A4EBB1E101900D928A95E1F78FEF809349
:103EA000B41181E08093C4112FEF3FEF4FEF50E04A
:103EB0002093B9113093BA114093BB115093BC11A8
:103EC0009091BF11911102C08093BF111092C9113E
:103ED00081E080930C1110920D118091BF11882305
:103EE00009F4D3C680911C0C811113C084E19CE0BD
:103EF0000E94041784E690E0A0E0B0E08093180CE4
:103F00009093190CA0931A0CB0931B0C81E0809332
:103F10001C0C84E19CE00E94DC05882309F459C153
:103F20000AE0C02E85E0E82E0FEF2AE045EB51E1D4
:103F300062E180E10E94441492E0C92EEE24E394F1
:103F400021E046EB51E16FE08DE00E944414809146
:103F5000B7119091B811039739F4CC24C39409E1B7
:103F600022E04DEB51E108C0BAE0CB2E15E0E12E86
:103F70000FEF21E04EEB51E164E180E00E94441438
:103F8000FAE0CF2EA5E0EA2E0FEF25E044EB51E159
:103F90006BE081E10E9444148091C911882309F4E7
:103FA0004DC08091C6119091C7110C9709F046C081
:103FB0008BE596E00E94D4128091B7119091B811D0
:103FC00081309105D1F05CF4892B39F581E090E0E6
:103FD0009093B8118093B71186E796E024C08230A1
:103FE0009105A1F00397C9F482E090E09093B81195
:103FF0008093B71182E896E016C083E090E090933A
:10400000B8118093B7118CE796E00DC01092B811EB
:104010001092B71186E896E006C01092B81110927F
:10402000B7118BE896E00E94D9121092C91181E075
:104030008093C41180930C1110920D118091C911BD
:10404000882309F4C6C08091C8118111C2C0809133
:10405000C6119091C7110E9709F0BBC08091C01195
:104060009091C1110197029708F0A8C08091B911F1
:104070009091BA11A091BB11B091BC118A3A26ED72
:1040800092072FEFA207B10509F45BC034F589321E
:1040900043E994074FEFA407B10509F440C05CF46D
:1040A0008F3F924EA94CB10509F05AC08FEF9CE9A1
:1040B000A0E4B0E03DC08C353CEA93073FEFA30796
:1040C000B10591F18F38954CAF4FB10509F048C05B
:1040D0008AEA96EDAFEFB0E02BC0843F5AEF950728
:1040E0005FEFA507B10591F154F4803E914FAF4FBA
:1040F000B105B1F524EF3AEF4FEF50E035C08B3FFB
:104100004FEF9407A407B10531F18F3F9F4FAF4F99
:10411000B10531F58FEF92EEA9ECB0E009C08CE566
:104120009CEAAFEFB0E004C08FE895ECAFEFB0E0F1
:104130008093B9119093BA11A093BB11B093BC11A5
:104140001BC080EE91EFAFEFB0E0F2CF8BEF9FEFAF
:10415000AFEFB0E0EDCF2FEF3FEF4FEF50E004C0F7
:1041600029E233E94FEF50E02093B9113093BA11AF
:104170004093BB115093BC118AE996E00E94D4127F
:104180004091B9115091BA116091BB117091BC115D
:1041900077FF05C0CB01BA010E942F1605C02AE0A7
:1041A00082E79CE00E94E61568E173E082E79CE00C
:1041B0000E946F0781E08093C41106C09091C511E1
:1041C00081E089278093C5111092C91181E0809305
:1041D0000C1180910C0C81110FC084E09CE00E94B6
:1041E00004178092080C9092090CA0920A0CB092CD
:1041F0000B0C81E080930C0C84E09CE00E94DC05B9
:10420000882321F08091B4110E9404078091C0118D
:104210009091C1112091C2113091C311821793075F
:1042200039F09093C3118093C21121E02093C411FF
:104230009C012150310922303105C0F42091C41174
:10424000222309F402C18091B9119091BA112091F1
:10425000BB1129839A838B83AE014F5F5F4F63E26B
:1042600071E083EA9DE00E94E30F59C48830910514
:1042700009F089C02091C411222309F417C42091A8
:10428000C511222309F412C40E94E70EA301920172
:10429000C3D6CA01B9012FE030E040E050E0BCD6FF
:1042A000909104029617A1F060930402653059F0D2
:1042B00028F461110DC0109203020AC06A3029F07F
:1042C0006F3019F005C083E001C081E080930302E4
:1042D0008091410B81110FC089E39BE00E9404177C
:1042E00080923D0B90923E0BA0923F0BB092400B00
:1042F00081E08093410B89E39BE00E94DC058823E9
:1043000009F4BBC26091B611462F440F669585E053
:1043100090E00E94291280950E94E81483E291E0C7
:104320000E9458077C010091370B1091380B8EEFDB
:1043300091E00E945807800F911F9695879596955A
:1043400087958C838FEF8D838E83BE016F5F7F4F48
:10435000CE0104960E943D0FC701880F991F8E0D54
:104360009F1DBE016F5F7F4F8D55924F0E94C40508
:1043700080910302080F111D87FD1A951093380BC9
:104380000093370B7AC28330910509F05EC020910B
:10439000C411222309F48AC32091C511222309F4F0
:1043A00085C38091530B81110FC08BE49BE00E9469
:1043B000041780924F0B9092500BA092510BB09229
:1043C000520B81E08093530B8BE49BE00E94DC0551
:1043D000882309F452C29091B51100910502098316
:1043E0009A838FEF8B8310914A0B1C839D838E835E
:1043F000BE016F5F7F4FCE0104960E940C15809125
:10440000B611813878F090E0805891096AE070E048
:1044100063D61F5F160F10934A0B0F5F600F6093F8
:1044200005022BC29091490B981748F481E88093BC
:10443000490B1F5F10934A0B0F5F00930502809199
:10444000490B81508093490B18C28430910509F0C3
:1044500093C02091C411222309F428C32091C511CF
:10446000222309F423C38091650B81110FC08DE5D0
:104470009BE00E9404178092610B9092620BA092C5
:10448000630BB092640B81E08093650B8DE59BE03C
:104490000E94DC05882309F4F0C19091B5111091B8
:1044A000060219839A838FEF8B8300915C0B0C8338
:1044B0009D838E83BE016F5F7F4FCE0104960E9465
:1044C0000C152091B6112138A0F130E0C9018B54B0
:1044D00091096AE0E62EF12CB701FED5FB01319679
:1044E000C90180589109B701F7D56F5F7F4FAF01C0
:1044F00085E090E00E946E12800F80935C0B20910B
:10450000B61130E0C9018B549109B701E5D5FB0123
:104510003196C90180589109B701DED56F5F7F4F91
:10452000AF0185E090E00E946E12810F8093060239
:10453000A4C180915B0B8217C8F481E880935B0B68
:1045400044E050E061E070E083E090E00E946E1291
:10455000800F80935C0B44E050E061E070E083E00A
:1045600090E00E946E12810F8093060280915B0B97
:10457000815080935B0B81C18530910509F06CC03F
:104580002091C411222309F491C22091C511222344
:1045900009F48CC28091750B811113C08DE69BE0EC
:1045A0000E94041784E190E0A0E0B0E08093710BDA
:1045B0009093720BA093730BB093740B81E0809374
:1045C000750B8DE69BE00E94DC05882309F455C13C
:1045D0008091B5116FE060D5F82E8091B611869567
:1045E00086954FEF50E060E070E090E00E946E1220
:1045F0008C018091B61166E04FD54FEF50E060E03E
:1046000070E090E00E946E12080F191F8091B611A1
:104610006AE042D54FEF50E060E070E090E00E9429
:104620006E12800F911F63E070E042D569838FEFB7
:104630008B8380EF8A8303EA1DE0B801CE010196E7
:104640000E943D0F89818F0D89830D5F1F4F91E17E
:104650000C30190791F711C18630910509F05EC041
:104660002091C411222309F421C22091C5112223D3
:1046700009F41CC28091860B81110FC08EE79BE06C
:104680000E9404178092820B9092830BA092840B5D
:10469000B092850B81E08093860B8EE79BE00E94B1
:1046A000DC05882309F4E9C09091B5110091080256
:1046B00009839A838FEF8B8310917D0B1C839D83DD
:1046C0008E83BE016F5F7F4FCE0104960E940C1552
:1046D0008091B611813878F090E0805891096AE0B5
:1046E00070E0FAD41F5F160F10937D0B0F5F600F01
:1046F00060930802C2C090910702981748F481E8BD
:10470000809307021F5F10937D0B0F5F00930802D9
:1047100080910702815080930702AFC087309105D6
:1047200009F0AFC02091C411222309F4BFC1209128
:10473000C511222309F4BAC180919A0B81110FC0CF
:1047400082E99BE00E9404178092960B9092970B4F
:10475000A092980BB092990B81E080939A0B82E91A
:104760009BE00E94DC05882309F487C08091B61184
:10477000813870F06091910B21E0260F90E0805815
:1047800091096AE070E0A8D4620F6093910B11C0A8
:1047900090910902981740F481E880930902809172
:1047A000910B8F5F8093910B8091090281508093D0
:1047B00009024091900B80918E0B90918F0B4230AB
:1047C000A1F038F4442371F0413039F589831A821D
:1047D00012C0443091F068F04530F9F419821A8221
:1047E0008B8313C089831A8202C019828A831B8239
:1047F00007C019828A831B8208C019821A828B83A0
:104800002091910B820F911D04C02091910B821B6E
:10481000910990938F0B80938E0B20918E0B30918A
:104820008F0B2F3F310559F054F02FEF30E03093CC
:104830008F0B20938E0B81E0840F8093900B8091DF
:104840008E0B90918F0B97FF09C010928F0B1092D7
:104850008E0B8091900B8F5F8093900B8091900BCB
:10486000863010F01092900BAE014F5F5F4F63E205
:1048700071E083EA9DE00E94E30F81E08093C41120
:10488000FDC18930910509F07AC02091C41122231D
:1048900009F40CC12091C511222309F407C10E941B
:1048A000E70EA3019201B8D3CA01B9012FE030E0AD
:1048B00040E050E0B1D390910C029617B9F06093AC
:1048C0000C02653069F028F4611110C082E390E0B9
:1048D00009C06A3029F06F3049F48AEA90E002C0DA
:1048E0008FEF90E090930B0280930A028091AA0BC5
:1048F00081110FC082EA9BE00E9404178092A60BF0
:104900009092A70BA092A80BB092A90B81E0809384
:10491000AA0B82EA9BE00E94DC05882309F4ADCF54
:104920006091B611462F440F669585E090E00E9495
:10493000291280950E94E81483E291E00E945807B2
:104940008C01F0900A028FEF90E00E9458078C8350
:10495000FD828FEF8E83BE016F5F7F4FCE01049685
:104960000E943D0FC801880F991F800F911FBE0143
:104970006F5F7F4F8D55924F0E94C4057ECF8A3066
:10498000910509F093C02091C411222309F48EC02F
:104990002091C511222309F489C01091E20B1C302B
:1049A00008F058C0812F8D7F912F997F11F08830AA
:1049B00019F58091DA0B811113C082ED9BE00E9402
:1049C000041782E390E0A0E0B0E08093D60B9093D0
:1049D000D70BA093D80BB093D90B81E08093DA0B5F
:1049E00082ED9BE00E94DC05882309F447C18FEF2C
:1049F00089838A838B8321C08091CA0B811113C064
:104A000082EC9BE00E94041782E390E0A0E0B0E01B
:104A10008093C60B9093C70BA093C80BB093C90BA0
:104A200081E08093CA0B82EC9BE00E94DC05882326
:104A300009F424C119821A821B82AE014F5F5F4FB5
:104A400063E271E083EA9DE00E94E30F1F5F109331
:104A5000E20B14C18091BA0B811113C082EB9BE071
:104A60000E94041782E390E0A0E0B0E08093B60BD0
:104A70009093B70BA093B80BB093B90B81E08093E0
:104A8000BA0B82EB9BE00E94DC05882309F4F6C098
:104A90008FEF90E00E945807810F893C18F0109228
:104AA000E20BECC08FE08093E20BE8C09C012B503E
:104AB000310923303105B0F58091C411882309F400
:104AC000DDC08091B5119091B6119C838D838FEFDD
:104AD0008E83BE016F5F7F4FCE0104960E943D0F13
:104AE000AE014F5F5F4F63E271E083EA9DE00E9499
:104AF000E30F8CEA96E00E94D4124091B61150E088
:104B000060E070E02AE082E79CE00E94E61589E51B
:104B100097E00E94D4128091B5110E940314109264
:104B2000C411ACC00E9709F0A9C08091C4118823AC
:104B300009F4A4C08091FC0B81110FC084EF9BE0AD
:104B40000E9404178092F80B9092F90BA092FA0B36
:104B5000B092FB0B81E08093FC0B84EF9BE00E9402
:104B6000DC05882309F489CE0091B611063008F4DB
:104B700006E08091EC0B81110FC084EE9BE00E9457
:104B800004174092E80B5092E90B6092EA0B709286
:104B9000EB0B81E08093EC0B84EE9BE00E94DC0544
:104BA000882389F08091C511882369F01091E30B67
:104BB000802F6AE071D24AE061E090E00E94291201
:104BC000810F8093E30B802F66E066D2C82ED12C34
:104BD00048ED50E068E470E0C6010E946E127C016E
:104BE00042E251E060E070E0C6010E946E128C016A
:104BF00042EC50E061E670E0C6010E946E12209126
:104C0000B511C090E30B38E23C0D39832A83DD24D3
:104C1000DA94DB82BC01660F771F860F971FBC01F9
:104C20006D55724FCE0101960E943D0F8091B511D6
:104C300094E19C0D99838A83DB82B701660F771F0D
:104C40006E0D7F1D6D55724FCE0101960E943D0F76
:104C50008091B511C9828A83DB82B801660F771F04
:104C6000600F711F6D55724FCE0101960E943D0F6E
:104C70008091BE1186500E94E814FFCD0E94080664
:104C800068EB7BE08AE090E004C062E070E088EBD3
:104C90009BE00E942D050E94BE0C0C94E5198AE051
:104CA00090E09093C7118093C6110C942C1A8BE05E
:104CB00090E09093C7118093C6110C94471A8CE032
:104CC00090E09093C7118093C6110C94621A8DE006
:104CD00090E09093C7118093C6110C947D1A8EE0DA
:104CE00090E09093C7118093C6110C94981A8FE0AE
:104CF00090E09093C7118093C6110C94B31A80E191
:104D000090E09093C7118093C6110C94CE1A81E164
:104D100090E09093C7118093C6110C94E91A82E138
:104D200090E09093C7118093C6110C94041B1092CD
:104D3000C7111092C6110C941F1B83E190E0909351
:104D4000C7118093C6110C943A1B84E190E09093B4
:104D5000C7118093C6110C94551B1093C711009373
:104D6000C6110C94711B82E090E09093C711809360
:104D7000C6110C948C1B83E090E09093C711809334
:104D8000C6110C94A71B84E090E09093C711809308
:104D9000C6110C94C21B85E090E09093C7118093DC
:104DA000C6110C94DD1B86E090E09093C7118093B0
:104DB000C6110C94F81B87E090E09093C711809384
:104DC000C6110C94131C88E090E09093C711809357
:104DD000C6110C942E1C89E090E09093C71180932B
:104DE000C6110C94491CCF92DF92EF92FF92E6E33A
:104DF000FDE082EE92E0918380831282138214821E
:104E00001582E2E7FCE01382128248EE53E060E094
:104E100070E0448355836683778322E632E03183F2
:104E2000208325EC30E03587248724EC30E0378779
:104E3000268720EC30E0318B208B21EC30E0338B67
:104E4000228B22EC30E0358B248B26EC30E0378B44
:104E5000268B118E128E138E148EEFE0FDE02FEF55
:104E600020831282118214861386CC24CA94DC2CEF
:104E70007601C782D086E186F286E4E6F0E0F09320
:104E80001D0DE0931C0DECE3FDE091838083128205
:104E9000138214821582E2E4FDE091838083128202
:104EA000138214821582E8E4FDE0918380831282EC
:104EB000138214821582EEE4FDE0918380831282D6
:104EC000138214821582EEE1FDE0918380831282C9
:104ED000138214821582E6E2FDE0918380831282C0
:104EE000138214821582E4E5FDE0918380831282AF
:104EF000138214821582EDE8FDE091838083128293
:104F0000138214821582E7E8FDE091838083A0EC90
:104F1000A28338EA33831482B1EBB583E1E8FDE084
:104F200091838083A28333831482B1E0B583EBE75E
:104F3000FDE091838083A28333831482B583E5E708
:104F4000FDE0918380832283238324831582EAE515
:104F5000FDE01382128244835583668377832AEBB4
:104F600032E03183208397878687108A118A128ADC
:104F7000138A84E0808FFF90EF90DF90CF900895A8
:104F8000DC01CB01FC01F999FECF06C0F2BDE1BD09
:104F9000F89A319600B40D9241505040B8F70895F8
:104FA000F999FECF92BD81BDF89A992780B50895F1
:104FB000262FF999FECF1FBA92BD81BD20BD0FB635
:104FC000F894FA9AF99A0FBE01960895052E97FB68
:104FD00016F400940FD057FD05D01ED007FC02D068
:104FE00046F408C050954095309521953F4F4F4F5E
:104FF0005F4F089590958095709561957F4F8F4F85
:105000009F4F08952BD0A59F900DB49F900DA49F06
:10501000800D911D11240895A1E21A2EAA1BBB1B1D
:10502000FD010DC0AA1FBB1FEE1FFF1FA217B30774
:10503000E407F50720F0A21BB30BE40BF50B661F8A
:10504000771F881F991F1A9469F76095709580954E
:1050500090959B01AC01BD01CF010895A29FB001C5
:10506000B39FC001A39F700D811D1124911DB29F9C
:10507000700D811D1124911D0895DB018F939F9365
:10508000C1DFBF91AF91A29F800D911DA39F900D95
:10509000B29F900D11240895991B79E004C0991FC7
:1050A000961708F0961B881F7A95C9F78095089582
:1050B000AA1BBB1B51E107C0AA1FBB1FA617B7073E
:1050C00010F0A61BB70B881F991F5A95A9F780955A
:1050D0009095BC01CD01089597FB072E16F400941E
:1050E00006D077FD08D0E4DF07FC05D03EF49095AC
:1050F00081959F4F0895709561957F4F0895EE0FAC
:10510000FF1F881F8BBF0790F691E02D1994A6DF33
:10511000B7FF0895821B930B089581E090E0F89407
:0651200000C0F894FFCF6F
:1051260000020103639696800F80FF006339050035
:10513600000000960D960D960D5A0156015301007A
:10514600000000D00313044A015A01560147017DAD
:105156000101005E00000000003100F9183000FB7C
:10516600302C001C472600825A1F006D6A1700412A
:10517600760E00897D04003131295A1B750A00001C
:105186000000570C1914F00B9D0C210CFF0B130C8F
:1051960000000000960D960D8A16960D960D960D3A
:1051A600960D960D8716960D960D960D960D960DE7
:1051B600960D960D960D960D00000000960D19148D
:1051C6008A168916960D960D960D00000000960D0E
:1051D60019148A16891600000000840758088A16D2
:1051E60083109A0739118410D416AF1127091408B1
:1051F6003C09EF089E071B114C0177167316000039
:1052060000004C0D00000000960D53746172746529
:1052160064202D2057616974696E67202D204170C6
:10522600703A205600322E33004C4544204C6962B9
:10523600726172793A2056000D0A004D656D6F72E3
:105246007920697320696E76616C6964004D656DBD
:105256006F72792069732076616C69642E005265DD
:105266006164696E67206E65772076616C7565731B
:105276002066726F6D206F74686572204172647566
:10528600696E6F00506F77657220627574746F6E09
:105296002070726573736564202D205475726E6973
:1052A6006E67206F66663A20004272696768746EA0
:1052B6006573735475726E4F6666207C20506F77E7
:1052C6006572656420646F776E206E6F7700506F2D
:1052D60077657220627574746F6E20707265737371
:1052E6006564202D205475726E696E67206F6E3A64
:1052F60020004272696768746E6573735475726EC6
:105306004F6E207C20506F7765726564206F6E202B
:105316006E6F77004D6F646553656C656374696F76
:105326006E4D61696E207C204368616E67656420FE
:10533600746F20576869746532004D6F64655365F4
:105346006C656374696F6E4D61696E207C2043687D
:10535600616E67656420746F205768697465004DD7
:105366006F646553656C656374696F6E4D61696ED4
:10537600207C204368616E67656420746F204261FB
:105386006C6C004D6F646553656C656374696F6E14
:105396004D61696E207C204368616E676564207488
:1053A6006F20436F6C6F7250616C42656174004D83
:1053B6006F646553656C656374696F6E4D61696E84
:1053C600207C204368616E67656420746F2052619B
:1053D600696E626F7742656174004D6F64655365EF
:1053E6006C656374696F6E4D61696E207C204368DD
:1053F600616E67656420746F205261696E626F77B3
:105406004D61726368004D6F646553656C656374C6
:10541600696F6E4D61696E207C204368616E6765B9
:105426006420746F2052474246616465004D6F6484
:105436006553656C656374696F6E4D61696E207C3A
:10544600204368616E67656420746F2046616465F9
:10545600004D6F646553656C656374696F6E4D616D
:10546600696E207C204368616E67656420746F20D6
:10547600417564696F4D65746572004D6F6465535F
:10548600656C656374696F6E4D61696E207C20433F
:1054960068616E67656420746F205374726F62650D
:1054A600004D6F646553656C656374696F6E4D611D
:1054B600696E207C204368616E67656420746F2086
:1054C600436F6C6F7266756C6C20436F6E666574A5
:1054D6007469004D6F646553656C656374696F6EBE
:1054E6004D61696E207C204368616E676564207437
:1054F6006F20436F6E6665747469004D6F64655303
:10550600656C656374696F6E4D61696E207C2043BE
:1055160068616E67656420746F20466978656443C8
:105526006F6C6F7232004D6F646553656C656374A2
:10553600696F6E4D61696E207C204368616E676598
:105546006420746F204669786564436F6C6F7233AC
:10555600004D6F646553656C656374696F6E4D616C
:10556600696E207C204368616E67656420746F20D5
:105576004669786564436F6C6F7200446973706C3A
:1055860061794D6F6465207C204368616E67656450
:1055960020746F3A20005269676874004E69676824
:1055A6007400416C6C004C656674004C6566742032
:1055B6002864656661756C742900536574436F6C65
:1055C6006F7254656D7020746F3A2000436F6C6F74
:1055D6007220616E642053617475726174696F6EB6
:1055E6003A004D6F646553656C656374696F6E2030
:1055F6007C20536176696E672073657474696E6783
:105606007320666F723A004D6F646553656C65630F
:1056160074696F6E5475726E4F6E207C205475726D
:105626006E6564206F6E204C4544730045455052AC
:105636004F4D207C205361766564207365747469D0
:105646006E6773004F7574707574546F4C454420C3
:105656007C20446973706C6179496E666F20757041
:10566600646174656420002D2D2D2D2020006F6F40
:1056760020202020002D2D20202020004368616E50
:0C5686006765506172616D207C203A0065
:00000001FF
