:100000001EC100004DC100004BC1000049C10000ED
:1000100047C1000045C1000043C1000041C10000CC
:100020003FC100003DC100003BC1000039C10000DC
:1000300037C1000035C1000033C1000031C10000EC
:100040002FC100002DC100002BC1000029C10000FC
:1000500027C1000025C1000023C100002DC70000FA
:100060001FC10000F7C50000CCC5000019C1000089
:1000700017C1000015C1000013C1000011C100002C
:100080000FC100000DC100000BC1000009C100003C
:1000900007C1000005C1000003C1000001C100004C
:1000A000FFC00000FDC00000FBC00000F9C0000060
:1000B000F7C00000F5C00000F3C00000F1C0000070
:1000C000EFC00000EDC00000EBC00000E9C0000080
:1000D000E7C00000E5C00000E3C00000E1C0000090
:1000E000DFC000004A2455215821CD21BA22CB225D
:1000F000DC22ED221023ED23C405C705B605BA05A1
:10010000C005FE05CB05CF05D505D905DD05E30501
:10011000E705EB05FE05F105F505F90500002100F1
:10012000240027002A002D003000330001010000C8
:10013000040107010A0100002200250028002B000D
:100140002E003100340002010000050108010B01FE
:10015000000020002300260029002C002F00320080
:100160000001000003010601090105050505070559
:1001700008080808020202020A0A08080404040423
:10018000010101010101010103030303030303034F
:10019000040707070C0C0C0C0C0C0C0C02020202DE
:1001A00006060606060606060B0B0B0B0B0B0B0BC7
:1001B0000102102020080810204010204080020179
:1001C000020108040201010204081020408080405E
:1001D000201008040201800402018040201008045D
:1001E00002010804020101020408102040800102FB
:1001F00004081020408000000A0B02090C0D0E08B4
:1002000007030401000000000000000000000000DF
:1002100000000000000000000000000000000000DE
:10022000000012111000000000000000000000009B
:10023000000000000000000000000000D224112493
:100240001FBECFEFD1E2DEBFCDBF00E00CBF16E096
:10025000A0E0B2E0EEEEFCE400E00BBF02C00790CD
:100260000D92AC34B107D9F720E1ACE4B6E001C09F
:100270001D92A938B207E1F711E0CFE1D1E000E02B
:1002800006C021970109802FFE010E946326CE310E
:10029000D10780E00807A9F70E94271F0C94752654
:1002A000AFCE80E991E00895389A08954F925F9219
:1002B0006F927F928F92AF92BF92CF92EF92FF9206
:1002C0000F931F93CF93DF933C01EB018CD5F30188
:1002D00027853089621B730B6A307105B8F3F89477
:1002E000E881F98158B1516088B18E7F88B96A85FB
:1002F0009F81262F291B922F2F83BF844A805B80EA
:100300007D85FC84EE847F5FF394E3943E81488591
:10031000A984CB841181D20120E0C32F022F322F78
:100320003181112788943111390F08F43FEF9195ED
:10033000889470FD130F1795889471FD130F17950E
:10034000889472FD130F1795889473FD130F1795FA
:10035000889474FD130F1795889475FD130F1795E6
:10036000889476FD130F1795889477FD130F1795D2
:100370008894232F7111212F960F122F002C58B91A
:1003800000C017FF88B930812227889400C000C0C0
:10039000002C88B931113C0F00C0002C58B900C0A6
:1003A00016FF88B908F43FEFC195889400C000C0DB
:1003B000002C88B9F0FC230F00C0002C58B900C0F5
:1003C00015FF88B927958894F1FC230F00C000C061
:1003D000002C88B92795889400C0002C58B900C01B
:1003E00014FF88B9F2FC230F2795889400C000C041
:1003F000002C88B9F3FC230F00C0002C58B900C0B2
:1004000013FF88B927958894F4FC230F00C000C01F
:10041000002C88B92795889400C0002C58B900C0DA
:1004200012FF88B9F5FC230F2795889400C000C0FF
:10043000002C88B9F6FC230F00C0002C58B900C06E
:1004400011FF88B927958894F7FC230F00C000C0DE
:10045000002C88B92795889400C0002C58B900C09A
:1004600010FF88B9132FF110122FCA0D00C000C061
:10047000002C88B900C000C0002C58B900C017FF7C
:1004800088B932812227889400C000C0002C88B926
:100490003111340F00C0002C58B900C016FF88B9C4
:1004A00008F43FEFEB0DF11D00C000C0002C88B92F
:1004B000E0FC230F00C0002C58B900C015FF88B91C
:1004C00027958894E1FC230F00C000C0002C88B958
:1004D0002795889400C0002C58B900C014FF88B933
:1004E000E2FC230F2795889400C000C0002C88B937
:1004F000E3FC230F00C0002C58B900C013FF88B9DB
:1005000027958894E4FC230F00C000C0002C88B914
:100510002795889400C0002C58B900C012FF88B9F4
:10052000E5FC230F2795889400C000C0002C88B9F3
:10053000E6FC230F00C0002C58B900C011FF88B999
:1005400027958894E7FC230F00C000C0002C88B9D1
:100550002795889400C0002C58B900C010FF88B9B6
:10056000132FE110122F419500C000C0002C88B954
:100570004C0D00C000C058B900C017FF88B93181C8
:100580002227889400C000C0002C88B93111390F8F
:1005900000C0002C58B900C016FF88B908F43FEF1E
:1005A0009195889400C000C0002C88B970FD230F7D
:1005B00000C0002C58B900C015FF88B92795889451
:1005C00071FD230F00C000C0002C88B927958894C6
:1005D00000C0002C58B900C014FF88B972FD230F69
:1005E0002795889400C000C0002C88B973FD230FA4
:1005F00000C0002C58B900C013FF88B92795889413
:1006000074FD230F00C000C0002C88B92795889482
:1006100000C0002C58B900C012FF88B975FD230F27
:100620002795889400C000C0002C88B976FD230F60
:1006300000C0002C58B900C011FF88B927958894D4
:1006400077FD230F00C000C0002C88B9279588943F
:1006500000C0002C58B900C010FF88B9132F7111C9
:10066000122F960F00C000C0002C88B9119709F016
:1006700086CE20EE31E0D2010E946B26DC01CB0158
:10068000F4E0B695A79597958795FA95D1F720E070
:1006900030E0A9016AE9469E040C411D569E400DBA
:1006A000511D1124450D511D840F951FA11DB11D14
:1006B000893E43E09407A105B10508F434C0885E83
:1006C0009340A109B10942E0B695A7959795879502
:1006D0004A95D1F747E0849F080E211D949F200D75
:1006E000311D1124290F311D60914C0670E0860FD9
:1006F000971F820F931F40911B0A50911C0A609113
:100700001D0A70911E0A292F3327420F531F611DA6
:10071000711D40931B0A50931C0A60931D0A70932D
:100720001E0A80934C0678945ED3F301708B678722
:10073000DF91CF911F910F91FF90EF90CF90BF90DD
:10074000AF908F907F906F905F904F9008950F9330
:100750001F93CF93DF93CDB7DEB762970FB6F894B0
:10076000DEBF0FBECDBF8C01F901DC011C968C9160
:100770007A8369835C834B835E834D8390819D87FD
:1007800091819E8792819F87813029F4CE010196C5
:100790000E94DB1E06C01C861B861A8619861886D8
:1007A0001F82188A1A8A198AD801ED91FC91048453
:1007B000F585E02DBE016F5F7F4FC80119956296E8
:1007C0000FB6F894DEBF0FBECDBFDF91CF911F9162
:1007D0000F9108950F931F93CF93DF93CDB7DEB79B
:1007E00062970FB6F894DEBF0FBECDBF8C01F90142
:1007F000DC011C968C917A8369835C834B835E83D6
:100800004D8390819D8791819E8792819F878130C2
:1008100029F4CE0101960E94DB1E06C01C861B86B1
:100820001A86198618861F8283E0888B1A8A198A8D
:10083000D801ED91FC910484F585E02DBE016F5F38
:100840007F4FC801199562960FB6F894DEBF0FBEB0
:10085000CDBFDF91CF911F910F910895CF92DF927D
:10086000EF92FF920F931F93CF93DF936C017A0166
:100870008B01C0E0D0E0CE15DF0589F0D8016D9185
:100880008D01D601ED91FC910190F081E02DC60122
:100890001995892B11F47E0102C02196ECCFC70176
:1008A000DF91CF911F910F91FF90EF90DF90CF904C
:1008B00008958F929F92AF92BF92CF92DF92EF9264
:1008C000FF920F931F93CF93DF937C01EB016C0199
:1008D00082E0C80ED11C4701E5E08E0E911C00E0BD
:1008E00010E0F60141916F0150E060E070E02AE015
:1008F000CE010E9490145C01E881F9810190F081A1
:10090000E02D6EE2CE0119958A0D9B1D080F191F6F
:10091000C814D90431F7F701458150E060E070E078
:100920002AE0CE010E949014800F911FDF91CF9199
:100930001F910F91FF90EF90DF90CF90BF90AF90FD
:100940009F908F90089583E69EE037D021E0892B19
:1009500009F420E0822F0895FC01538D448D252F4A
:1009600030E0842F90E0821B930B541710F0CF9649
:10097000089501970895FC01918D828D981761F07B
:10098000828DDF01A80FB11D5D968C91928D9F5FC6
:100990009F73928F90E008958FEF9FEF0895FC0171
:1009A000918D828D981731F0828DE80FF11D858D24
:1009B00090E008958FEF9FEF0895FC01918D228DB7
:1009C000892F90E0805C9F4F821B91098F7399273C
:1009D0000895FC01848DDF01A80FB11DA35ABF4FFC
:1009E0002C91848D90E001968F739927848FA6892E
:1009F000B7892C93A089B1898C9180648C93938D55
:100A0000848D981306C00288F389E02D80818F7D44
:100A100080830895EF92FF920F931F93CF93DF93FC
:100A2000EC0181E0888F9B8D8C8D981305C0E8893F
:100A3000F989808185FD23C0F62E0B8D10E00F5FB4
:100A40001F4F0F731127E02E8C8DE8120BC00FB6CD
:100A500007FCFACFE889F989808185FFF5CFCE01BF
:100A6000B8DFF2CF8B8DFE01E80FF11DE35AFF4F87
:100A7000F0820B8FEA89FB898081806207C0EE8952
:100A8000FF896083E889F98980818064808381E0BF
:100A900090E0DF91CF911F910F91FF90EF9008951B
:100AA000CF93DF93EC01888D8823C1F0EA89FB891D
:100AB000808185FD05C0A889B9898C9186FD0EC00D
:100AC0000FB607FCF5CF808185FFF2CFA889B989E1
:100AD0008C9185FFEDCFCE017CDFE8CFDF91CF9108
:100AE000089580E090E0892B19F02DDF811125C059
:100AF00080E090E0892B41F080E090E0892B21F0AC
:100B00000E94000081111CC080E090E0892B41F020
:100B100080E090E0892B21F00E940000811113C039
:100B200080E090E0892BA1F080E090E0892B81F0BB
:100B30000E94000081110AC008950E940000D8CFD1
:100B40000E940000E1CF0E940000EACF0C94000058
:100B5000089590E0FC013197E231F10508F04EC0B4
:100B60008827E458FF4F8F4F0C94632680918000B4
:100B70008F7703C0809180008F7D809380000895DF
:100B800080918000877FF9CF84B58F7702C084B5CC
:100B90008F7D84BD08958091B0008F7703C08091D0
:100BA000B0008F7D8093B0000895809190008F7782
:100BB00007C0809190008F7D03C080919000877F57
:100BC0008093900008958091A0008F7707C0809156
:100BD000A0008F7D03C08091A000877F8093A0003C
:100BE0000895809120018F7707C0809120018F7D2B
:100BF00003C080912001877F8093200108950E9487
:100C000071261F920F920FB60F9211240BB60F92FE
:100C10002F933F934F935F936F937F938F939F9304
:100C2000AF93BF93EF93FF9383E69EE0D2DEFF91F5
:100C3000EF91BF91AF919F918F917F916F915F9154
:100C40004F913F912F910F900BBE0F900FBE0F90C1
:100C50001F9018951F920F920FB60F9211240BB68A
:100C60000F922F938F939F93EF93FF93E091730EC7
:100C7000F091740E8081E091790EF0917A0E82FDF0
:100C800012C0908180917C0E8F5F8F7320917D0EBA
:100C9000821751F0E0917C0EF0E0ED59F14F958F05
:100CA00080937C0E01C08081FF91EF919F918F9185
:100CB0002F910F900BBE0F900FBE0F901F901895A5
:100CC000CF93DF93282F30E0F901EA50FE4F849153
:100CD000F901E055FE4FD491F901E659FE4FC49158
:100CE000CC2389F0811135DFEC2FF0E0EE0FFF1FF0
:100CF000E05BFE4FA591B491EC91ED2381E090E093
:100D000021F480E002C080E090E0DF91CF9108956F
:100D10001F93CF93DF93282F30E0F901EA50FE4F65
:100D20008491F901E055FE4FD491F901E659FE4F47
:100D3000C491CC23C1F0162F81110BDFEC2FF0E012
:100D4000EE0FFF1FEA5CFE4FA591B4918FB7F894A8
:100D5000111105C09C91ED2FE095E92302C0EC91A3
:100D6000ED2BEC938FBFDF91CF911F910895CF931F
:100D7000DF9390E0FC01E055FE4F2491FC01E65921
:100D8000FE4F8491882361F190E0880F991FFC0148
:100D9000E45EFE4FC591D491FC01EA5CFE4FA59143
:100DA000B491611109C09FB7F8948881209582237E
:100DB0008883EC912E230BC0623061F49FB7F894C6
:100DC0003881822F809583238883EC912E2B2C935E
:100DD0009FBF06C08FB7F894E8812E2B28838FBF62
:100DE000DF91CF9108953FB7F8948091220A9091B6
:100DF000230AA091240AB091250A26B5A89B05C014
:100E00002F3F19F00196A11DB11D3FBFBA2FA92F89
:100E1000982F8827820F911DA11DB11DBC01CD0106
:100E200042E0660F771F881F991F4A95D1F70895F2
:100E30008F929F92AF92BF92CF92DF92EF92FF92EA
:100E40006B017C01D0DF4B015C01C114D104E104D2
:100E5000F104E9F0C8DFDC01CB0188199909AA097E
:100E6000BB09883E9340A105B10578F321E0C21A81
:100E7000D108E108F10888EE880E83E0981EA11CD5
:100E8000B11CC114D104E104F10421F7DECFFF90BD
:100E9000EF90DF90CF90BF90AF909F908F9008958C
:100EA0002FB7F89460911B0A70911C0A80911D0A5B
:100EB00090911E0A2FBF08951F920F920FB60F92A6
:100EC00011242F933F938F939F93AF93BF93809160
:100ED0001B0A90911C0AA0911D0AB0911E0A309124
:100EE000210A23E0230F2D3720F40196A11DB11D07
:100EF00005C026E8230F0296A11DB11D2093210AEB
:100F000080931B0A90931C0AA0931D0AB0931E0A9B
:100F10008091220A9091230AA091240AB091250A77
:100F20000196A11DB11D8093220A9093230AA093DC
:100F3000240AB093250ABF91AF919F918F913F9161
:100F40002F910F900FBE0F901F901895DC01FB01A1
:100F50004C9111965C91119712967C91342F3F71B0
:100F6000330F330F832F880F35E5282F239F020E71
:100F700020E0211D1124642F6074942F907247FD8E
:100F800021C061110BC0911104C0822F8095422FA6
:100F900011C045E5420F30E02BEA33C091110DC07E
:100FA000382F4AEA349F030E30E0311D11248BEABA
:100FB000831B420F282F30E024C080E0422F409551
:100FC000322F0EC0611111C091110CC0382F2AEAC6
:100FD000329F030E30E0311D11244BEA431B3B5A74
:100FE00020E00FC0322F30950BC0911104C085E571
:100FF000820F3BEA03C08AEA820F90E0321B282F5F
:1010000040E05F3F11F15523E9F0222321F0259FB5
:10101000020E20E0211D442321F0459F040E40E0F4
:10102000411D332321F0359F030E30E0311D112483
:101030005095559F050E50E0511D1124250F450F69
:10104000350F03C03FEF4FEF2FEF7F3F09F420C074
:1010500050E0772321F0779F512D09F05F5F5523F2
:10106000A1F0222321F0259F020E20E0211D442320
:1010700021F0459F040E40E0411D332321F0359FB0
:10108000030E30E0311D112403C030E040E020E0C9
:101090002083418332830895FA01029620E030E0F4
:1010A0002617370774F44081DC0112974C93418175
:1010B00011964C934281DC014C932F5F3F4F039676
:1010C000EFCF08952C9A08952C9808951F93CF93ED
:1010D000DF93182F66E270E00E949B1BC82FD0E0C0
:1010E00067E270E0812F0E949B1BDC2FCC279E01C2
:1010F000282BC901DF91CF911F9108951F93CF93A2
:10110000DF93182F60E270E00E949B1BC82FD0E095
:1011100061E270E0812F0E949B1BDC2FCC279E0197
:10112000282BC901DF91CF911F9108958EBD00003A
:101130000DB407FEFDCF8EB50895CF92DF92EF92EA
:10114000FF920F931F93CF93DF93EC017A018B01F2
:101150006C01C40ED51ECC15DD0579F0B5DF8FE02E
:10116000E5DF8D2FE3DF8C2FE1DF219680E0DEDFEE
:10117000F80181938F01A6DFEECFC701DF91CF91F8
:101180001F910F91FF90EF90DF90CF900895CF9235
:10119000DF92EF92FF920F931F93CF93DF93EC01B7
:1011A0007A018B016C01C40ED51ECC15DD0571F0E2
:1011B0008BDF80EFBBDF8D2FB9DF8C2FB7DF219660
:1011C000F80181918F01B2DF7DDFEFCFC701DF91A1
:1011D000CF911F910F91FF90EF90DF90CF900895E6
:1011E000AF92BF92DF92EF92FF920F931F93CF9334
:1011F000DF93D82E7B018A0180E590E00E94C21B1C
:10120000C0E0D0E08D2D62DF5C01892B19F08D2DBF
:101210005DDFEC01CA15DB05A9F7209799F463E0BF
:1012200070E08D2D0E949B1B8431D9F18823C9F178
:10123000C1E0D0E08C3111F4C0E0D0E0D195C1958F
:10124000D1092FC00C171D070CF4E8011C161D0650
:1012500044F568E270E08D2D0E949B1B082F10E082
:1012600069E270E08D2D0E949B1B102F0027082B38
:101270009E01A701B8018D2D0E944A140C0F1D1F5D
:10128000412F68E270E08D2D0E94721B402F69E2B1
:1012900070E08D2D0E94721B60E470E08D2D0E9425
:1012A0003C140E94C11BCE01DF91CF911F910F9181
:1012B000FF90EF90DF90BF90AF900895CF93C82F2D
:1012C00080E590E00E94C21B60E170E08C2F0E94DC
:1012D0003C144FEF62E070E08C2F0E94721BCF91A4
:1012E0000C94C11BFF920F931F93CF93DF931F9218
:1012F0001F92CDB7DEB7F82E8A012A836983DEDF1D
:1013000080E590E00E94C21B2A816981462F422B12
:1013100060E070E08F2D0E94721B0115110551F4E1
:1013200000911F0A1091200A0F5F1F4F1093200A8F
:1013300000931F0A412F64E070E08F2D0E94721B02
:10134000402F65E070E08F2D0E94721B61E070E01D
:101350008F2D0E943C140E94C11B81E00F900F90C2
:10136000DF91CF911F910F91FF9008950895CF9332
:10137000DF931F92CDB7DEB76983DC01ED91FC915D
:101380000280F381E02D41E050E0BE016F5F7F4FAE
:1013900019950F90DF91CF910895BF92CF92DF9270
:1013A000EF92FF920F931F93CF93DF9300D000D063
:1013B000CDB7DEB7FC01208D243009F05AC06A0198
:1013C0007B018C01B12C63E070E08B2D0E949B1B94
:1013D000811103C0F801B08E06C08831D9F3B394EF
:1013E000F4E0BF12F0CFF801808D843009F441C0E1
:1013F00096E0EEE2F2E0DE01119601900D929A95F0
:10140000E1F7F70193819F779C8394819D83958178
:101410009E83B7016E5F7F4F90E0982F882744E04E
:1014200050E0845F9B4FB3DEF801F08C4D2D60E1FE
:1014300070E08F2D0E94721B4C2D61E170E08F2DAA
:101440000E94721BF801808D90E0982F882746E05B
:1014500050E0BE016F5F7F4F8A5F9B4F98DEF801BF
:10146000128E118E20E8A60162E0808D3BDF81E0C4
:1014700001C080E026960FB6F894DEBF0FBECDBF48
:10148000DF91CF911F910F91FF90EF90DF90CF9060
:10149000BF900895FF920F931F93CF93DF931F92F6
:1014A000CDB7DEB7FC01218D328D232B09F1F08CF5
:1014B00080E590E00E94C21B68E270E08F2D0E94E0
:1014C0009B1B082F10E069E270E08F2D0E949B1B90
:1014D000702F6627682B21E030E0AE014F5F5F4F31
:1014E0008F2D0E944A140E94C11B898190E002C086
:1014F0008FEF9FEF0F90DF91CF911F910F91FF9092
:101500000895EF92FF921F93CF93DF93EB017A013F
:10151000FC01178A168A108D8A81811109C08B817E
:10152000811106C08C81811103C08D81882321F136
:10153000E114F10409F180E590E00E94C21BBE01B4
:101540006E5F7F4F812F90E0982F882744E050E016
:10155000845F9B4F1CDE4F2D60E170E0812F0E9465
:10156000721B4E2D61E170E0812F0E94721B0E9460
:10157000C11B81E090E002C080E090E0DF91CF915C
:101580001F91FF90EF900895CF93DF93FC01218D81
:10159000328D2115310519F48FEF9FEF10C0EC014A
:1015A0004217530708F0A901888D1ADE181619068C
:1015B0009CF7298D3A8D281B390B3A8F298FDF91A3
:1015C000CF9108950F931F93CF93DF931F92CDB7C1
:1015D000DEB7FC01218D328D232B59F08C0141E0C7
:1015E00050E0BE016F5F7F4F808DFADD181619063F
:1015F0001CF08FEF9FEF08C0F801818D928D01974D
:10160000928F818F898190E00F90DF91CF911F9110
:101610000F910895BF92CF92DF92EF92FF920F93B6
:101620001F93CF93DF93CDB7DEB728970FB6F8940B
:10163000DEBF0FBECDBF8C01F801818D928D892B4D
:1016400049F0D801ED91FC910284F385E02DC801A9
:101650001995F2CFB08C80E590E00E94C21BE12C7E
:10166000F12C8B2D33DD6C01892B19F08B2D2EDDA8
:101670007C01EC14FD04A9F70E94C11B1E141F0479
:1016800054F548E050E0BE016F5F7F4FD801589697
:101690008C91A6DD9C0118161906DCF489819A81CB
:1016A000AB81BC81F801808B918BA28BB38B8D8138
:1016B00090E0982F88272E81820F911D958B848B27
:1016C0002F8130E0322F22278885280F311D328F5D
:1016D000218FC90102C080E090E028960FB6F894EF
:1016E000DEBF0FBECDBFDF91CF911F910F91FF9055
:1016F000EF90DF90CF90BF9008957F928F929F924E
:10170000AF92BF92CF92DF92EF92FF920F931F930F
:10171000CF93DF935C014B016A01FC0106891789B5
:10172000708C80E590E00E94C21BC0E0D0E0872D65
:10173000E5DC7C01892B19F0872DE0DCEC01CE156E
:10174000DF05A9F7CC15DD0568F4C0E0D0E0872DF2
:10175000D5DC6C01892B19F0872DD0DCEC01CC1580
:10176000DD05A9F764E270E0872D0E949B1BE82E3F
:10177000F12C65E270E0872D0E949B1BFE2CEE246D
:10178000E82AE701C00FD11F9E013770E72CF12C2A
:10179000C701880F991FAC014F51554F7A01FA01CB
:1017A00080819181820F931FA9014C0D5D1D4130F5
:1017B000584088F000E018E0021B130BA801B401A8
:1017C000E6DCA601401B510BB401600F711FF7014D
:1017D0008081918102C0A601B401D9DCCC0DDD1D50
:1017E0004D2F64E270E0872D0E94721B4C2F65E242
:1017F00070E0872D0E94721B0E94C11BF501868933
:1018000097898C0D9D1D978B868BC601DF91CF919B
:101810001F910F91FF90EF90DF90CF90BF90AF900E
:101820009F908F907F900895CF93FC01C08D80E5AD
:1018300090E00E94C21B60E270E08C2F0E943C147A
:1018400062E070E08C2F0E949B1B84FD19C062E057
:1018500070E08C2F0E949B1B83FF0BC048E162E06D
:1018600070E08C2F0E94721B0E94C11B80E090E0F0
:1018700011C00E94C11B80E590E00E94C21BE0CF16
:1018800040E162E070E08C2F0E94721B0E94C11B3D
:1018900081E090E0CF910895DC01ED91FC91048C02
:1018A000F58DE02D199480E090E00895FC01858588
:1018B00096850895CF93DF9300D000D0CDB7DEB7E3
:1018C000AB011C821D821E82DC01ED91FC91019016
:1018D000F081E02D19821A821B829E012F5F3F4FFB
:1018E000BE016C5F7F4F199526960FB6F894DEBF48
:1018F0000FBECDBFDF91CF9108954091000F242FEF
:1019000030E0281B3109B901665F7F4F65317105F1
:1019100010F092E001C091E0B9016C5E7F4F693236
:10192000710508F094E0B901625E7F4F6D33710577
:1019300008F098E0B901685D7F4F6135710508F0E6
:1019400090E12A5B3F4F2D38310508F090E24817AF
:1019500018F4490F4093000F2091000F821718F4DC
:10196000291B2093000F0895CF92DF92EF92FF92F0
:101970001F93CF93DF93EC0193DAC880D980EA807C
:10198000FB80DC01CB018C199D09AE09BF0911E078
:10199000CC80DD80EE80FF808C159D05AE05BF05F7
:1019A00010F410E003C0CE010E94CF1E812FDF9102
:1019B000CF911F91FF90EF90DF90CF900895BF924D
:1019C000CF92DF92EF92FF920F931F93CF93DF930B
:1019D00000D000D0CDB7DEB7E091FE0F8091FF0FB1
:1019E000E81741F0E093FF0F81E080935D0EE33054
:1019F00080F52CC080915D0EE33018F4882331F01F
:101A000025C0E73008F063C0811126C080915D0ECB
:101A1000811161C080915D0EEA3009F47BC1EB3029
:101A200009F41FC280915D0EEC3009F499C2ED30CB
:101A300009F402C3EE3009F4B6C3EF3009F454C41C
:101A4000E03109F01FC5882309F41CC50E941B1B47
:101A50002FC5E73008F03BC01EE01E9FF0011124A7
:101A6000E35EF04F828193819C838D838FEF8E8321
:101A7000BE016F5F7F4FCE01049668DAAE014F5F03
:101A80005F4F63E271E081EF9AE006DB85E895E065
:101A9000E1D5E091FE0F1E9FF0011124E35EF04FAF
:101AA000438150E060E070E02AE083E69EE038D7B2
:101AB00081ED95E0CFD5E091FE0F1E9FF00111243E
:101AC000E35EF04F828174D710925D0EF1C4E9306D
:101AD00008F0AFC09BCF80915E0E882309F4E1C46B
:101AE000DFD928EE33E040E050E00E94F025CA0143
:101AF000B9012FE030E040E050E00E94F0259091E5
:101B000004029617B9F060930402653069F028F476
:101B1000611110C082E390E009C06A3029F06F3093
:101B200049F48AEA90E002C08FEF90E090930302BC
:101B30008093020280912E0A811113C086E29AE0FE
:101B40000E94CF1E88E290E0A0E0B0E080932A0AD5
:101B500090932B0AA0932C0AB0932D0A81E08093D6
:101B60002E0A86E29AE000DF882309F418C3E09188
:101B7000FE0F8EE0E89FF0011124E35EF04F6381D9
:101B8000462F440F669585E090E0B7D48095C7D581
:101B900080910A0290910B02E5E0F8E08E9FA0018F
:101BA0008F9F500D9E9F500D1124475E594C9A01F6
:101BB000A3E2B1E00E9412266C01EE24FF241091F2
:101BC00002024E9FC0014F9F900D5E9F900D112409
:101BD0009C01275E394C30930B0220930A02AFEF31
:101BE000B0E00E9412268C831D838FEF8E83BE018E
:101BF0006F5F7F4FCE010496A9D93981F601EE0FB0
:101C0000FF1FCF018C0D9D1DFC01EF50F54F208172
:101C1000230F08F42FEF20833A812181230F08F44A
:101C20002FEF21833B812281230F08F42FEF2283A2
:101C3000B6C2E93009F0EECE80915D0E882309F43A
:101C400021C480915E0E882309F41CC48091400A4F
:101C5000811113C088E39AE00E94CF1E88E290E0D1
:101C6000A0E0B0E080933C0A90933D0AA0933E0A26
:101C7000B0933F0A81E08093400A88E39AE074DEE3
:101C8000882309F48CC2E091FE0F0EE00E9FF00154
:101C90001124E35EF04F9281F0900502F9829A835D
:101CA0008FEF8B831091370A1C839D838E83BE0137
:101CB0006F5F7F4FCE01049656D5E091FE0F0E9FC9
:101CC000F0011124E35EF04F8381813880F090E0D1
:101CD000805891096AE070E00E9450261F5F160F3D
:101CE0001093370AF3946F0D6093050258C29091D8
:101CF000360A981748F481E88093360A1F5F1093DC
:101D0000370AF394F09205028091360A815080934D
:101D1000360A45C2882309F4B5C380915E0E882334
:101D200009F4B0C38091520A811113C08AE49AE089
:101D30000E94CF1E88E290E0A0E0B0E080934E0ABF
:101D400090934F0AA093500AB093510A81E0809378
:101D5000520A8AE49AE008DE882309F420C2E0915E
:101D6000FE0F7EE0D72EDE9EF0011124E35EF04FE1
:101D700092811091060219839A838FEF8B830091D1
:101D8000490A0C839D838E83BE016F5F7F4FCE0116
:101D90000496E9D4E091FE0FDE9EF0011124E35E8B
:101DA000F04F23812138E0F130E0C9018B549109D3
:101DB0006AE0E62EF12CB7010E945026FB01319615
:101DC000C90180589109B7010E9450266F5F7F4F6B
:101DD000AF0185E090E0D7D3800F8093490AE0916E
:101DE000FE0FDE9EF0011124E35EF04F238130E010
:101DF000C9018B549109B7010E945026FB0131960D
:101E0000C90180589109B7010E9450266F5F7F4F2A
:101E1000AF0185E090E0B7D3810F80930602BFC188
:101E20008091480A8217B8F481E88093480A44E018
:101E300050E061E070E083E090E0A5D3800F8093F4
:101E4000490A44E050E061E070E083E090E09BD319
:101E5000810F809306028091480A81508093480A3E
:101E60009EC1882309F40EC380915E0E882309F475
:101E700009C38091620A811113C08AE59AE00E9429
:101E8000CF1E84E190E0A0E0B0E080935E0A9093E2
:101E90005F0AA093600AB093610A81E08093620AAE
:101EA0008AE59AE061DD882309F479C1E091FE0FAB
:101EB0001EE01E9FF0011124E35EF04F82816FE06F
:101EC0000E943026082F8381869586954FEF50E03B
:101ED00060E070E090E057D37C01E091FE0F1E9F20
:101EE000F0011124E35EF04F838166E00E9430260A
:101EF0004FEF50E060E070E090E045D3E80EF91E4F
:101F0000E091FE0F1E9FF0011124E35EF04F8381EC
:101F10006AE00E9430264FEF50E060E070E090E011
:101F200032D38E0D9F1D63E070E00E943C266983D2
:101F30008FEF8B8380EF8A8351EFE52E5AE0F52EE9
:101F4000B701CE01019602D88981800F898383E091
:101F5000E80EF11C8AE5E8168EE0F80689F71FC145
:101F6000882309F48FC280915E0E882309F48AC207
:101F70008091730A811113C08BE69AE00E94CF1EF4
:101F800088E290E0A0E0B0E080936F0A9093700A3E
:101F9000A093710AB093720A81E08093730A8BE672
:101FA0009AE0E2DC882309F4FAC0E091FE0F0EE02B
:101FB0000E9FF0011124E35EF04F9281F090080231
:101FC000F9829A838FEF8B8310916A0A1C839D8319
:101FD0008E83BE016F5F7F4FCE010496C4D3E09124
:101FE000FE0F0E9FF0011124E35EF04F83818138D4
:101FF00080F090E0805891096AE070E00E945026DD
:102000001F5F160F10936A0AF3946F0D6093080216
:10201000C6C090910702981748F481E880930702A0
:102020001F5F10936A0AF394F092080280910702EE
:10203000815080930702B3C0882309F423C28091A2
:102040005E0E882309F41EC28091870A811113C095
:102050008FE79AE00E94CF1E88E290E0A0E0B0E017
:102060008093830A9093840AA093850AB093860A8A
:1020700081E08093870A8FE79AE076DC882309F471
:102080008EC0E091FE0F8EE0E89FF0011124E35E28
:10209000F04F8381813878F060917E0A21E0260F2D
:1020A00090E0805891096AE070E00E945026620F2B
:1020B00060937E0A11C090910902981740F481E85C
:1020C0008093090280917E0A8F5F80937E0A8091BF
:1020D000090281508093090220917D0A80917B0A38
:1020E00090917C0A2230A1F038F4222371F0213043
:1020F00039F589831A8212C0243091F068F02530B6
:10210000F9F419821A828B8313C089831A8202C060
:1021100019828A831B8207C019828A831B8208C0A6
:1021200019821A828B8330917E0A830F911D04C01D
:1021300030917E0A831B910990937C0A80937B0ADD
:1021400080917B0A90917C0A8F3F910551F04CF071
:102150008FEF90E090937C0A80937B0A2F5F20930F
:102160007D0A80917B0A90917C0A97FF09C01092AA
:102170007C0A10927B0A80917D0A8F5F80937D0A92
:1021800080917D0A863010F010927D0AAE014F5F7B
:102190005F4F63E271E081EF9AE00E944C0881E0BA
:1021A00080935D0E85C1882309F46CC180915E0E19
:1021B000882309F467C11091BF0A1C3008F056C08B
:1021C000812F8D7F912F997F11F0883011F58091AB
:1021D000B70A811113C08FEA9AE00E94CF1E82E3F2
:1021E00090E0A0E0B0E08093B30A9093B40AA0938B
:1021F000B50AB093B60A81E08093B70A8FEA9AE0F5
:10220000B3DB882309F454C18FEF89838A838B83DE
:1022100020C08091A70A811113C08FE99AE00E9423
:10222000CF1E82E390E0A0E0B0E08093A30A9093F9
:10223000A40AA093A50AB093A60A81E08093A70AF6
:102240008FE99AE091DB882309F432C119821A825E
:102250001B82AE014F5F5F4F63E271E081EF9AE056
:102260000E944C081F5F1093BF0A22C18091970AF9
:10227000811113C08FE89AE00E94CF1E82E390E0A4
:10228000A0E0B0E08093930A9093940AA093950AFB
:10229000B093960A81E08093970A8FE89AE064DB16
:1022A000882309F405C140910A0250910B0285E090
:1022B00098E0489F9001499F300D589F300D1124A0
:1022C000275E394C30930B0220930A02AFEFB0E047
:1022D0000E941226180F193C18F01092BF0AE8C08D
:1022E0008FE08093BF0AE4C0882309F4CBC08091BB
:1022F0005E0E882309F4C6C08091D90A811113C0EB
:1023000081ED9AE00E94CF1E88E290E0A0E0B0E06C
:102310008093D50A9093D60AA093D70AB093D80A8F
:1023200081E08093D90A81ED9AE01EDB882309F4CD
:1023300036CFE091FE0F8EE0E89FF0011124E35EBE
:10234000F04F1381163008F416E08091C90A81110C
:1023500013C081EC9AE00E94CF1E88EE93E0A0E0CB
:10236000B0E08093C50A9093C60AA093C70AB093C1
:10237000C80A81E08093C90A81EC9AE0F5DA8823E3
:1023800089F080915E0E882369F00091C00A812F48
:102390006AE00E9430264AE061E090E0AED0800F13
:1023A0008093C00A812F66E00E943026082F10E03B
:1023B00048ED50E068E470E0C801E5D06C0142E20D
:1023C00051E060E070E0C801DED07C0142EC50E0FA
:1023D00061E670E0C801D7D0E091FE0F1EE01E9FBD
:1023E000F0011124E35EF04F2281B090C00A38E280
:1023F0003B0D39832A830FEF0B83BC01660F771FD8
:10240000860F971FBC016F50754FCE0101960E9439
:10241000A607E091FE0F1E9FF0011124E35EF04F2E
:10242000828194E19B0D99838A830B83B601660FA9
:10243000771F6C0D7D1D6F50754FCE0101960E9468
:10244000A607E091FE0F1E9FF0011124E35EF04FFE
:102450008281B9828A830B83B701660F771F6E0D65
:102460007F1D6F50754FCE0101960E94A607E09127
:10247000FE0F1E9FF0011124E35EF04F848586500D
:102480004ED18DCE80915D0E882391F080915E0EAD
:10249000882371F08BE995E0DDD08091FE0F88D222
:1024A00007C0EA3009F439CCEB3009F0BBCADCCC08
:1024B00026960FB6F894DEBF0FBECDBFDF91CF9149
:1024C0001F910F91FF90EF90DF90CF90BF900895F4
:1024D0006115710579F0FB0101900020E9F7319752
:1024E000AF01461B570BDC01ED91FC910280F3819B
:1024F000E02D199480E090E008950F931F93CF93FF
:10250000DF938C01C62FD42F8F3F910509F010F473
:10251000102F00270E9450079B01AC01A8E1B1E0F9
:102520000E94E6259B01AC01D8010E94E625292FD7
:1025300096FD2095E22FEF732F7096FD2F5FE695A5
:10254000E695E695E670F0E0ED5AFD4F3181329F59
:10255000202D312D112422952F703295307F232B81
:102560003081230F97FD21953D2F3C1B2058239F41
:10257000020E20E0211D1124822F8C0FDF91CF91BC
:102580001F910F910895EF92FF920F931F93CF9396
:10259000DF937C01EB018A018FEFE816F10409F06B
:1025A00010F4FE2CEE240E9450079B01AC01A8E120
:1025B000B1E00E94E6259B01AC01D7010E94E6250F
:1025C000AC0166277727CA019F73969587959695E4
:1025D0008795969587959A0122273074232B31F0A1
:1025E0002FEF37E0F901E81BF90BCF01E92FEE0FD0
:1025F000EE0FF0E0EC5CFD4F2081318192818695F9
:10260000989F200D311D112457FF03C0319521954E
:1026100031093058A8014C1B5D0B249FC001359F28
:10262000D001E0E0349F900DA11DBE1F259F900DAD
:10263000A11DBE1F1124BC01CD01620F731F8E1F8F
:102640009E1F8C0F9D1FDF91CF911F910F91FF90C7
:10265000EF900895BC0183E69EE03ACFCF93DF93DD
:10266000BC0183E69EE034DFEC016CE073E083E6BE
:102670009EE02EDF8C0F9D1FDF91CF910895CF92AA
:10268000DF92EF92FF920F931F93CF93DF9380918E
:10269000041090910510EC012196D0930510C09381
:1026A000041049979CF10E9450078B019C0188EE11
:1026B00093E0C89FB001C99F700DD89F700D112481
:1026C000072E000C880B990BC0900010D0900110C1
:1026D000E0900210F0900310A90198012C193D0917
:1026E0004E095F090E94F0253093020F2093010FDD
:1026F00010920510109204100E9450076093001071
:10270000709301108093021090930310DF91CF918A
:102710001F910F91FF90EF90DF90CF900895CF938E
:10272000DF93382FE1EFFAE0A3EFBAE02081239F97
:10273000020E20E0211D2083ED012A91239F020E2D
:1027400020E0211D28832C91239F020E20E0211DD3
:102750002C931124339613968EE0EA35F80731F75F
:10276000DF91CF9108954F925F926F927F928F92F7
:102770009F92AF92BF92CF92DF92EF92FF920F9310
:102780001F93CF93DF9300D0CDB7DEB7DC01FB0101
:10279000908141810C911196EC91119712962C9198
:1027A000411101C0902F222311F0E11101C0092F26
:1027B000F0E030E0901B50E8959FC001112452E2F8
:1027C000E52EFF24F394B7010E9450265B01842F6D
:1027D00090E08E1B9F0B9695982F8827979587954D
:1027E000B7010E9450266B018FEF90E0821B930B84
:1027F0009695982F882797958795B7010E94502620
:10280000AA0CBB1CCC0CDD1C7B01EE0CFF1C10E0E9
:10281000102F00277E2E6624922E882451EF452EFD
:102820005AE0552E19837A829B82B201CE0101961D
:102830000E94A6070A0D1B1D6C0C7D1C8E0C9F1C94
:1028400083E0480E511CEAE54E16EEE05E0651F7B5
:102850000F900F900F90DF91CF911F910F91FF90EC
:10286000EF90DF90CF90BF90AF909F908F907F9030
:102870006F905F904F900895CF93C82F462F61E0DF
:1028800070E030D761E070E08C2F55D78111FACF1E
:10289000CF910895AF92BF92CF92DF92EF92FF92C5
:1028A0000F931F93CF93DF931F921F92CDB7DEB785
:1028B0007A836983BA01A901E981FA81F770082F47
:1028C00010E0000F111F0751154FD8018D919C91F9
:1028D0008E0F9F1F2E0F3F1F2130384098F07A0136
:1028E0005B0120E038E06901CE1ADF0AA6010E94F0
:1028F0009D08A7014C195D09B5016C0D7D1DF801FE
:10290000808191810F900F90DF91CF911F910F9156
:10291000FF90EF90DF90CF90BF90AF900C949D0808
:102920004F925F926F927F92EF92FF920F931F935D
:10293000CF93DF93CDB7DEB7A1970FB6F894DEBF84
:102940000FBECDBF7C01FA01CB0119A2223008F4E1
:102950002AE08E010F5D1F4F422E512C612C712CED
:10296000BF01A30192010E94F025F901CA010150A3
:1029700011096A3014F4605D01C0695CD8016C9380
:10298000232B242B252B61F7B801C701A1DDA196CC
:102990000FB6F894DEBF0FBECDBFDF91CF911F9170
:1029A0000F91FF90EF907F906F905F904F90089500
:1029B000CF93DF93482F50E060E070E02AE083E699
:1029C0009EE0AEDFEC016CE073E083E69EE080DD2C
:1029D0008C0F9D1FDF91CF910895AF92BF92CF9240
:1029E000EF920F931F93CF93DF93B62EEA0190E0FF
:1029F00040915F0E5091600E4817590709F03FC093
:102A00008091620E9091610E811102C09923B9F1FB
:102A10008881422F50E0682F70E0992371F04C0DAF
:102A2000511D461757072CF48C1988838FEB95E0BE
:102A30000DC0288386EC95E009C04E0D511D461748
:102A40005707BCF78E1988838DEC95E003DE11E003
:102A500010935D0E84ED95E0FDDD8881A9DF109374
:102A60005A0E602F70E08FEF90E00E945026888110
:102A7000869F602D112460935B0E1092620E6B2D69
:102A800070E080915F0E9091600E8617970709F0B5
:102A90003FC08091620E9091610E811102C0992316
:102AA000B9F18881A02EB12C282F30E0A5019923FF
:102AB00071F04C195109241735072CF4C80EC8823F
:102AC0008FEB95E00DC0088386EC95E009C04E19A8
:102AD000510924173507BCF7E80EE8828DEC95E024
:102AE000B9DD01E000935D0E84ED95E0B3DD8881F2
:102AF0005FDF00935A0E8FEF90E0B5010E945026E1
:102B00008881869F602D112460935B0E1092620E67
:102B1000DF91CF911F910F91EF90CF90BF90AF9029
:102B20000895CF92DF92EF92FF92CF93DF936B01E4
:102B30007C01E091630EF091640E0190F081E02D34
:102B40006DE283E69EE01995EC0144275527BA0112
:102B50004C195D096E097F092AE083E69EE0E0DEFC
:102B60008C0F9D1FDF91CF91FF90EF90DF90CF9062
:102B70000895CF93DF93AC01990F660B770B77FF26
:102B800004C0CB01BA01CDDF04C02AE083E69EE099
:102B9000C7DEEC016CE073E083E69EE099DC8C0F0D
:102BA0009D1FDF91CF910895CF93DF9384E20E9420
:102BB000600620917F1030E08217930709F42FC23E
:102BC00084EE95E04BDD90917F1081E08927809322
:102BD0007F1086E10E946006892BA9F488E10E949B
:102BE0006006892B81F48AE10E946006892B59F4E2
:102BF0008CE10E946006892B31F48EE10E94600610
:102C0000892B09F418C286E10E946006892BA9F479
:102C100088E10E946006892B81F48AE10E946006A7
:102C2000892B59F48CE10E946006892B31F48EE1E6
:102C30000E946006019709F405C286E10E946006C1
:102C4000892BA9F488E10E946006892B81F48AE12E
:102C50000E946006892B59F48CE10E94600601975E
:102C600031F48EE10E946006892B09F4F2C186E1FD
:102C70000E946006892BA9F488E10E946006892BD6
:102C800081F48AE10E946006892B59F48CE10E944C
:102C90006006019731F48EE10E946006019709F405
:102CA000DFC186E10E946006892BA9F488E10E94B9
:102CB0006006892B81F48AE10E946006019759F42D
:102CC0008CE10E946006892B31F48EE10E9460063F
:102CD000892B09F4CCC186E10E946006892BA9F4F6
:102CE00088E10E946006892B81F48AE10E946006D7
:102CF000019759F48CE10E946006892B31F48EE132
:102D00000E946006019709F4B9C186E10E9460063D
:102D1000892BA9F488E10E946006892B81F48AE15D
:102D20000E946006019759F48CE10E9460060197A9
:102D300031F48EE10E946006892B09F4A6C186E178
:102D40000E946006892BA9F488E10E946006892B05
:102D500081F48AE10E946006019759F48CE10E9497
:102D60006006019731F48EE10E946006019709F434
:102D700093C186E10E946006892BA9F488E10E9434
:102D80006006019781F48AE10E946006892B59F45C
:102D90008CE10E946006892B31F48EE10E9460066E
:102DA000892B09F480C186E10E946006892BA9F471
:102DB00088E10E946006019781F48AE10E94600622
:102DC000892B59F48CE10E946006892B31F48EE145
:102DD0000E946006019709F46DC186E10E946006B9
:102DE000892BA9F488E10E946006019781F48AE1A9
:102DF0000E946006892B59F48CE10E9460060197BD
:102E000031F48EE10E946006892B09F458C186E1F5
:102E10000E946006892BA9F488E10E946006019750
:102E200081F48AE10E946006892B59F48CE10E94AA
:102E30006006019731F48EE10E946006019709F463
:102E400045C186E10E946006892BB1F488E10E94A9
:102E50006006019789F48AE10E946006EC010197FF
:102E600059F48CE10E946006892B31F48EE10E94B6
:102E70006006892B09F431C186E10E946006892B26
:102E8000A9F488E10E946006019781F48AE10E941A
:102E90006006019759F48CE10E946006892B31F499
:102EA0008EE10E946006019709F41CC186E10E9430
:102EB0006006892BA9F488E10E946006019781F4DD
:102EC0008AE10E946006019759F48CE10E94600635
:102ED000019731F48EE10E946006892B09F409C143
:102EE00086E10E946006892BA9F488E10E946006B1
:102EF000019781F48AE10E946006019759F48CE100
:102F00000E946006019731F48EE10E9460060197ED
:102F100009F4F6C086E10E9460060197A9F488E1F1
:102F20000E946006892B81F48AE10E946006892B49
:102F300059F48CE10E946006892B31F48EE10E94E5
:102F40006006892B09F4E3C086E10E9460060197C0
:102F5000A9F488E10E946006892B81F48AE10E942D
:102F60006006892B59F48CE10E946006892B31F4AC
:102F70008EE10E946006019709F4D0C086E10E94AC
:102F800060060197A9F488E10E946006892B81F40C
:102F90008AE10E946006892B59F48CE10E94600648
:102FA000019731F48EE10E946006892B09F4BDC0BF
:102FB00086E10E9460060197A9F488E10E946006FC
:102FC000892B81F48AE10E946006892B59F48CE1F7
:102FD0000E946006019731F48EE10E94600601971D
:102FE00009F4AAC086E10E9460060197A9F488E16D
:102FF0000E946006892B81F48AE10E946006019795
:1030000059F48CE10E946006892B31F48EE10E9414
:103010006006892B09F497C081E08093620E82E2FA
:103020000E94600621E0892B09F420E02093610EC4
:10303000DF91CF9108958AE090E09093600E8093A5
:103040005F0EE1CD8BE090E09093600E80935F0E79
:10305000F4CD8CE090E09093600E80935F0E07CEED
:103060008DE090E09093600E80935F0E1ACE8EE01C
:1030700090E09093600E80935F0E2DCE8FE090E0F5
:103080009093600E80935F0E40CE80E190E090932D
:10309000600E80935F0E53CE81E190E09093600EBE
:1030A00080935F0E66CE82E190E09093600E8093F5
:1030B0005F0E79CE1092600E10925F0E8ECE83E17D
:1030C00090E09093600E80935F0EA1CE84E190E03B
:1030D0009093600E80935F0EB4CED093600EC09339
:1030E0005F0ECACE82E090E09093600E80935F0EF8
:1030F000DDCE83E090E09093600E80935F0EF0CE83
:1031000084E090E09093600E80935F0E03CF85E0A3
:1031100090E09093600E80935F0E16CF86E090E073
:103120009093600E80935F0E29CF87E090E090939C
:10313000600E80935F0E3CCF88E090E09093600E2D
:1031400080935F0E4FCF89E090E09093600E809364
:103150005F0E62CF3F924F925F926F927F928F92FB
:103160009F92AF92BF92CF92DF92EF92FF920F9316
:103170001F93CF93DF9300D000D0CDB7DEB789E6A1
:1031800093E0E1EFFAE0A1E5B6E001900D9201973E
:10319000E1F7E091FE0F8EE0E89FF0011124E35E7D
:1031A000F04F85819681892B99F41C821D821E82A5
:1031B000BE016F5F7F4FCE0104960E94A607AE014D
:1031C0004F5F5F4F66EB70E088E997E00E944C0824
:1031D000E091FE0F9EE0E99FF0011124E35EF04FC5
:1031E00085819681019799F41C821D821E82BE0101
:1031F0006F5F7F4FCE0104960E94A607AE014F5F1E
:103200005F4F64EC70E081E596E00E944C08E0912D
:10321000FE0FAEE0EA9FF0011124E35EF04F8581DE
:103220009681039769F080915A0E882351F189E1C4
:1032300080937A1010925A0E82E196E00FDA21C044
:1032400003E516E020E030E03B962332B1E03B0797
:1032500099F0608170E0C9010E943C26892B39F009
:10326000D80112971C9211961C92D8011C922F5FC4
:103270003F4F0D5F1F4FE9CF3093691020936810C7
:10328000D2CF80917A10882309F470C080915B0EB0
:10329000882391F1198290E89A831B821AE0612FAA
:1032A0000E943026682F70E0AE014F5F5F4F81E5CE
:1032B00096E00E944C0819821A821B8280915B0E54
:1032C000612F0E94302690E069E170E0681B790B65
:1032D0009C01220F331F820F931FAE014F5F5F4F80
:1032E0008F5A994F0E944C088FEF80939C06109242
:1032F0009D0610929E060EC01092540680E88093A0
:103300005506109256068FEF809357061092580676
:10331000109259068FEF8093510610925206109228
:10332000530680917210811112C08AE690E137D560
:1033300084E690E0A0E0B0E080936E1090936F1070
:10334000A0937010B093711081E0809372108AE6A0
:1033500090E10E94B40C882349F080917A1081504A
:1033600080937A10811102C010925B0EF090000FD2
:103370008091030F9091040FA091050FB091060F5B
:10338000892B8A2B8B2BE9F00E94F30600917B108E
:1033900010917C1020917D1030917E10DC01CB01CA
:1033A000801B910BA20BB30B0091030F1091040F24
:1033B0002091050F3091060F80179107A207B307E0
:1033C000B8F20E94F30660937B1070937C10809398
:1033D0007D1090937E10E0910B0FF0910C0F3097C1
:1033E00059F04091070F5091080F6091090F7091AB
:1033F0000A0F8F2D1995F82E00914D0610914E064B
:103400004F2C512C612C712C0115110509F45EC053
:10341000F801E4848091010F9091020F84369105A8
:1034200008F41486D801ED91FC91A280B380198232
:103430001A821B82F11014C0F801458556856281FD
:1034400073819E012F5F3F4FC801F5011995D80187
:103450001C96EC921C9714960D911C911597D4CF45
:10346000F8013996CE0101966C0148019CE0890E65
:10347000911CDF0113973C902191332001F122230D
:10348000F1F0822F90E0A0E0B0E09C01AD012F5F51
:103490003F4F4F4F5F4FC301B2010E9421269B0156
:1034A000AC01832D90E0A0E0B0E0BC01CD016F5FE6
:1034B0007F4F8F4F9F4F0E942126D6018C93BFEFE5
:1034C000CB1ADB0AE815F905A1F6B6CFD8D82696AF
:1034D0000FB6F894DEBF0FBECDBFDF91CF911F9125
:1034E0000F91FF90EF90DF90CF90BF90AF909F90A3
:1034F0008F907F906F905F904F903F900895CF9204
:10350000DF92EF92FF920F931F93CF93DF938C0183
:10351000EB0180915A0E811104C080915B0E8823CB
:1035200021F0C2E3D0E002E310E00E945007C09017
:103530006410D0906510E0906610F0906710AB01B9
:10354000BC014C195D096E097F09C801A0E0B0E01B
:1035500084179507A607B70720F480916310882386
:10356000A1F00E945007AB01BC014C195D096E0926
:103570007F09CE01A0E0B0E084179507A607B70742
:10358000F8F4809163108823D9F00E94500760936B
:10359000641070936510809366109093671060912B
:1035A000631081E06827609363108DE0DF91CF9115
:1035B0001F910F91FF90EF90DF90CF900C948806B1
:1035C000DF91CF911F910F91FF90EF90DF90CF90FF
:1035D0000895EF92FF920F931F93CF93DF93C091C3
:1035E0004F06D09150060DE11FE07E0183EEE80EFC
:1035F000F11CCE010E94B425F80161918F0186175C
:1036000019F0CE010E94BC252196CE15DF0589F761
:1036100085E396E023D8E091FE0F8EE0E89FF0016D
:103620001124E35EF04F8181DF91CF911F910F91C3
:10363000FF90EF90BDC9CF93DF9300D0CDB7DEB739
:10364000E091FE0F8EE0E89FF0011124E35EF04F61
:1036500087819085218529839A838B83AE014F5F73
:103660005F4F63E271E081EF9AE00E944C08109294
:103670005D0E0F900F900F90DF91CF910895FC0198
:10368000818D928D0895FC018489958908952FED8F
:1036900032E0FC0131832083FB014089518962893A
:1036A0007389FC014283538364837583089580E0AA
:1036B0000895089580E090E00895CF93DF93EC01A2
:1036C000888D843061F00E945E09E88DF0E0EE0F95
:1036D000FF1FE058FF4E1182108284E0888FDF9137
:1036E000CF9108950F931F93CF93DF931F92CDB780
:1036F000DEB7282F30E02C5F3F4F322F2227890181
:10370000060F171F49830E94640880EF0E949608E5
:10371000812F0E949608802F0E9496084981842F4D
:103720000E9496080E94620881E00F90DF91CF917D
:103730001F910F9108950F931F93CF93DF931F92C3
:10374000CDB7DEB790E00496982F88278C01060F3E
:10375000171F0E9464088FE00E949608812F0E9424
:103760009608802F0E94960880E00E949608898320
:103770000E94620889810F90DF91CF911F910F9174
:10378000089508958CBD9DBD0895EF92FF921F93FB
:10379000CF93DF93FC01208D243011F080E020C016
:1037A0007B01EC0110E080E590E0ECDF63E070E08D
:1037B000812FC1DF811102C0188F05C08831E1F36C
:1037C0001F5F143081F7888D843041F3FD86EC86CD
:1037D0001A8E198E20E0A70162E00E94720981E032
:1037E000DF91CF911F91FF90EF9008954F925F92DC
:1037F0006F927F928F929F92AF92BF92CF92DF9201
:10380000EF92FF920F931F93CF93DF93CDB7DEB765
:10381000EE970FB6F894DEBF0FBECDBF5C018B01F3
:103820004A018FED92E09A8389831C861B8648EEBD
:1038300053E060E070E04D875E876F87788B27EB01
:1038400032E03A872987988F8F8B198E1A8E1B8EBC
:103850001C8E24E029A399AB88AB1AAA1BAA1CAA28
:103860001DAA8091110F9091120FA091130FB0918A
:10387000140F8EA39FA3A8A7B9A78B839C83AD83A6
:10388000BE8318861F82F80120E080E090E06AE0A5
:103890003191332319F140ED430F4A3080F4689F92
:1038A000A001699F500D1124CA01C097830F911D7B
:1038B00037FD9A958F3F910559F350F32BC03E3257
:1038C00049F5233039F1A2E3B0E0AC0FBD1FA20FE0
:1038D000B11D8C932F5F80E090E0DACF2330D1F4DC
:1038E0008DABD501ED91FC910488F589E02D8FED2C
:1038F00092E09DA38CA38AA99BA9ACA9BDA98EA384
:103900009FA3A8A7B9A7A401BE016C5D7F4FC50105
:1039100019952EC24B815C816D817E818091190F3A
:1039200090911A0FA0911B0FB0911C0F48175907C7
:103930006A077B0709F41AC20E9450076F70772745
:103940007C5FCE01099621DF813009F00CC28FED3A
:1039500092E09DA38CA38B819C81AD81BE818EA3BF
:103960009FA3A8A7B9A745E350E0BE016C5D7F4FB8
:10397000CE0109960E94810A892B19F400E010E01B
:103980007EC10E94500778876F8376276727762746
:103990007DA36CA342E050E0BE016C5D7F4FCE0181
:1039A00009960E947D0B81E090E09FAB8EAB42E0D8
:1039B00050E0BE016A5C7F4FCE0109960E947D0BEC
:1039C00080E091E09FAB8EAB42E050E0BE016A5CCC
:1039D0007F4FCE0109960E947D0B1FAA1EAA42E0CE
:1039E00050E0BE016A5C7F4FCE0109960E947D0BBC
:1039F00042E050E0BE016A5C7F4FCE0109960E9412
:103A00007D0B42E050E0BE016A5C7F4FCE0109961B
:103A10000E947D0B7801D7018C91882319F1F80160
:103A20007F018191811117C06701C01AD10A1C144E
:103A30001D04A4F4C8AE41E050E0BE01685C7F4FB5
:103A4000CE0109960E947D0BA601B801CE01099610
:103A50000E947D0B03C08E3219F7E6CF87010F5FFE
:103A60001F4FD9CF18AE41E050E0BE01685C7F4FD8
:103A7000CE0109960E947D0B00E011E01FAB0EAB5A
:103A800042E050E0BE016A5C7F4FCE0109960E9481
:103A90007D0B1FAB0EAB42E050E0BE016A5C7F4F76
:103AA000CE0109960E947D0BCE0109960E94140C4E
:103AB000892B09F463CF63E0E62EF12C0E945007B6
:103AC0002B013C01CE0109960E940A0B181619061B
:103AD000A4F00E945007DC01CB0184199509A609C6
:103AE000B70989389341A105B105C8F462E370E0D4
:103AF00080E090E00E941807E5CF4B815C816D81EA
:103B00007E81898D9A8DAB8DBC8D481759076A07C8
:103B10007B0741F48D8D9E8DC59721F406C02FEF54
:103B20003FEFA4C02EEF3FEFA1C08AA19BA10C974D
:103B30000CF4B1C04CE050E0BE016C5D7F4FCE0193
:103B400009960E94C40A8EA190E0982F88272FA181
:103B5000822B9BAF8AAF2CA130E0322F22274DA1C0
:103B6000242B4F8158854217530709F091C097FFC6
:103B70008FC08F709270892B09F0F2C00AA510E0F7
:103B8000102F00278BA5082B0115110509F4E5C09E
:103B9000C12CD12C88A590E0982F882729A5822BAD
:103BA000C816D90608F47AC0C12CD12C41E050E0E7
:103BB000BE01645C7F4FCE0109960E94C40A8CADA1
:103BC000982F907C09F0A4C0811196C08CAD811112
:103BD000EDCF42E050E0BE01685C7F4FCE01099618
:103BE0000E94C40A42E050E0BE016A5C7F4FCE01F1
:103BF00009960E94C40ACE0109960E94E20ACE01EB
:103C000009960E94E20ACE0109960E94E20ACE01BC
:103C100009960E94E20A42E050E0BE01665C7F4FD6
:103C2000CE0109960E94C40A88AD99AD81159140D4
:103C300009F074C02EA93FA932272327322721304B
:103C4000310509F06BC08AAD9BAD8115944009F038
:103C500081C044E050E0BE016E5C7F4FCE0109960A
:103C60002DAF3EAF0E94C40A2DAD3EAD8901B1E03B
:103C7000EB1AF10821F02F3F3F4F09F41FCFCE017F
:103C800009961BDD0130110509F42BCEC80170C067
:103C90002CEF3FEFEBCF2DEF3FEFE8CF41E050E0CF
:103CA000BE016A5C7F4FCE0109960E94C40A8EA9AC
:103CB000811117C08EA98111F1CFCE0109960E9402
:103CC000E20ACE0109960E94E20ACE0109960E94FC
:103CD000E20ACE0109960E94E20AFFEFCF1ADF0A3C
:103CE00059CF8EA99FEF980F9EAB882319F3CE0171
:103CF00009960E94E20AF5CF8CAD9FEF980F9CAF1A
:103D0000882309F463CFCE0109960E94E20AF4CF1A
:103D1000CE0109960E94E20A1CAE58CF612C712C8C
:103D20008AAD9BAD9827892798276816790640F4B5
:103D3000CE0109960E94E20A8FEF681A780AF0CF46
:103D4000AFEFCA1ADA0AC016D10609F02FCF26EF54
:103D50003FEF8CCF27EF3FEF89CF2AEF3FEF86CFA2
:103D60002BEF3FEF83CF80E090E002C08EEF9FEF1C
:103D7000EE960FB6F894DEBF0FBECDBFDF91CF91A8
:103D80001F910F91FF90EF90DF90CF90BF90AF9079
:103D90009F908F907F906F905F904F900895CF93FA
:103DA000DF93EC010E945007688379838A839B83A9
:103DB000DF91CF910895EF92FF920F931F93CF93CE
:103DC000DF93EC01909188109F5F292F277020933B
:103DD000881090FF02C090E801C090E021FD90643F
:103DE000247009F0906220E1290FFE013C967E01CB
:103DF0008FE0E80EF11C00E011E06191662329F0EC
:103E000070E0C8014DD76F5F01C060E0DF0114971B
:103E10006C93322F369F030E30E0311D1124CF01F9
:103E20000797311103C0EC01188203C03150EC0137
:103E30003883662311F061506C93EE15FF05E9F6A7
:103E4000DF91CF911F910F91FF90EF90089578949B
:103E500084B5826084BD84B5816084BD85B582608F
:103E600085BD85B5816085BD80916E008160809340
:103E70006E001092810080918100826080938100A9
:103E800080918100816080938100809180008160B9
:103E9000809380008091B10084608093B100809114
:103EA000B00081608093B000809191008260809327
:103EB00091008091910081608093910080919000A9
:103EC0008160809390008091A10082608093A10026
:103ED0008091A10081608093A1008091A000816009
:103EE0008093A000809121018260809321018091C4
:103EF0002101816080932101809120018160809364
:103F0000200180917A00846080937A0080917A0009
:103F1000826080937A0080917A00816080937A0039
:103F200080917A00806880937A001092C10080911D
:103F3000CD09811145C01092BF091092BE098FEFC3
:103F40008093C2098093C3098093C4098093C509F3
:103F50008093C6098093C70981E08093C8091092B5
:103F6000CA091092C9091092C1091092C009809122
:103F70004D0690914E06892B31F48CEB99E090938D
:103F80004E0680934D06E091BA09F091BB09309737
:103F900021F08CEB99E0958384838CEB99E09093EE
:103FA000BB098093BA091092CC091092CB0980E228
:103FB00092E09093BD098093BC0981E08093CD0984
:103FC000E091BC09F091BD090480F581E02D8CEBF6
:103FD00099E0199581E596E09093BF098093BE0919
:103FE00083E291E09093CA098093C909E091BC09EA
:103FF000F091BD090284F385E02D8CEB99E01995D1
:10400000009709F19C0140E050E060E472E48FE029
:1040100090E0C0D58090030F9090040FA090050F02
:10402000B090060FC901DA0188159905AA05BB05EC
:1040300010F4D501C4018093030F9093040FA09353
:10404000050FB093060F1092000FE0914D06F0910E
:104050004E06DF0181E0109741F01C968C931C976F
:1040600014960D90BC91A02DF6CF8FEF90EB20EF22
:10407000309739F08683978320870480F581E02D7F
:10408000F7CFE091730EF091740E82E08083E0919F
:104090006F0EF091700E1082E091710EF091720E21
:1040A00080E1808310927B0EE091770EF091780E84
:1040B00086E08083E091750EF091760E80818061BC
:1040C0008083E091750EF091760E80818860808308
:1040D000E091750EF091760E808180688083E0918A
:1040E000750EF091760E80818F7D808387EE92E051
:1040F0000E942A1389EF92E00E942E138DEF92E026
:104100000E942A132AE04DEA5AEC6DE270E083E641
:104110009EE00E9490146CE073E083E69EE00E94B3
:10412000681260E084E20E94B70660E082E20E94CA
:10413000B70660E08EE10E94B70660E08CE10E9465
:10414000B70660E08AE10E94B70660E088E10E945D
:10415000B70660E086E10E94B70661E08DE00E944C
:10416000B70661E085E30E94B7062091D709309138
:10417000D8098091D5099091D6092817390731F4CB
:1041800080E290E09093D6098093D5096091D5099B
:104190007091D609613020E1720734F480E090E13B
:1041A0009093010280930002CB018D519F4F909319
:1041B000D8098093D7097093500660934F0643EE59
:1041C00050E08DE19FE0C0D480911D0F8A3011F145
:1041D0001092FE0FE8E2FFE080E090E050E843E05C
:1041E0003FE721E0DF011A975C93408311963C93EF
:1041F00011962C9311961C929383828301963E967E
:104200008131910579F78AE080931D0FE2D98FE023
:1042100093E002C08EE393E00E942E1360E085E3FA
:104220000E9488066AEF70E080E090E00E94180724
:1042300081E080935D0E80935C0E88248A94982C94
:10424000A82CB12C44244A940CE9502E00E4602E92
:10425000712C0E94D4158091130A811112C08BE039
:104260009AE09DDD8AE090E0A0E0B0E080930F0A44
:104270009093100AA093110AB093120A81E08093E0
:10428000130A8BE09AE00E94B40C882309F418C347
:10429000E091090AF0910A0AEA30F10508F0F6C245
:1042A0008827EE58FF4F8F4F0EC50E94D415F2C2DB
:1042B00080915F0E9091600E0A9709F0EBC2809199
:1042C000620E882309F4E6C280915C0EC1E08C275F
:1042D00080935C0E811145C084E593E00E942A130F
:1042E00080915C0E90E00E94B91573D98091000F07
:1042F000882341F18091E109811111C089ED99E094
:104300004EDD8EE190E0A0E0B0E08093DD09909377
:10431000DE09A093DF09B093E009C093E10989EDBC
:1043200099E00E94B40C882339F080E00E947D0C53
:104330000E94DF0C0E94AA186AE070E084E690E018
:10434000DED8D4CF89E793E00E942E136AEF70E0A5
:1043500080E090E00E94180761E085E30E948806F3
:1043600019C08EE993E00E942A1380915C0E90E0C0
:104370000E94B91560E085E30E94880662E370E060
:1043800080E090E00E94180782EC93E00E942E13D8
:10439000C0935D0E1092620E7DC28091620E8823E2
:1043A000B9F080915F0E9091600E069789F484EECB
:1043B00093E00E942A138091FE0F813031F018F0B3
:1043C0001092FE0F05C081E001C082E08093FE0FD5
:1043D0008091620E8823D9F080915F0E9091600EDB
:1043E0000997A9F48CE094E00E942A138FEF809340
:1043F000FE0F82E090E09093151D8093141D809233
:10440000161D9092171DA092181DB092191D809133
:10441000620E882369F080915F0E9091600E049780
:1044200039F486E394E00E942A138FE08093FE0F14
:104430008091620E8823C9F080915F0E9091600E8A
:10444000089799F48AE594E00E942A138091FE0F60
:104450008A3031F08B3031F0893021F48AE003C0AA
:104460008BE001C089E08093FE0F8091620E88236B
:1044700099F080915F0E9091600E059769F481E844
:1044800094E00E942A138091FE0F8C3011F48DE08D
:1044900001C08CE08093FE0F8091620E8823B9F0FA
:1044A00080915F0E9091600E029789F485EA94E006
:1044B0000E942A138091FE0F873021F0883021F46A
:1044C0008EE003C088E001C087E08093FE0F8091FA
:1044D000620E8823D9F080915F0E9091600E07974D
:1044E000A9F48CEC94E00E942A138091FE0F843092
:1044F00031F0853031F0833031F484E005C085E05F
:1045000003C086E001C083E08093FE0F9091FE0F10
:104510008091FF0F981709F4BDC180915C0E811145
:1045200015C060E085E30E94880662E370E080E0E9
:1045300090E00E94180786EF94E00E942E1381E01D
:1045400080935C0E8091FE0F8093FF0F81E080933B
:104550005D0E80935E0E1092620E80935A0E109242
:104560005B0E8BE195E00E942A138091FE0F0E9462
:10457000D81490C14091FE0F9EE0499FA0011124E4
:10458000415E504FAAE0CA2EB5E0EB2E0FEF2AE0B5
:1045900062E180E142C04091FE0FAEE04A9FA0017F
:1045A0001124405E504FEAE0CE2EF5E0EF2E0FEFE3
:1045B00021E06FE08DE031C04091FE0FBEE04B9FE7
:1045C000A0011124425E504F6AE0C62E75E0E72E2E
:1045D0000FEF25E06BE081E120C04091FE0F2EE05F
:1045E000429FA0011124FA01E35EF04F858196817C
:1045F000039749F4485D504F22E0C22E32E0E32E8B
:1046000002E322E008C0475D504F8AE0C82E95E0E3
:10461000E92E0FEF21E064E180E00E94ED143AC141
:104620008091620E882309F4D8C08091610E8111B7
:10463000D4C080915F0E9091600E0E9709F0CDC0AE
:10464000E091FE0FE33008F0BDC08E2F90E0AEE0A9
:10465000EA9FF0011124E35EF04F478150856185A8
:1046600072854A3AB6ED5B07BFEF6B07710509F437
:1046700064C07CF54932A3E95A07AFEF6A077105B8
:1046800009F451C05CF44F3F524E694C710509F07A
:1046900063C047825086618672866EC04C35ACEA34
:1046A0005A07AFEF6A07710509F442C04F38554CFD
:1046B0006F4F710509F050C02EE0289FF001299F2F
:1046C000F00D1124E35EF04F8AEA96EDAFEFB0E013
:1046D0004FC0443F2AEF52072FEF6207710591F157
:1046E00054F4403E514F6F4F7105B1F584EF9AEF8E
:1046F000AFEFB0E03DC04B3F2FEF520762077105AF
:1047000031F14F3F5F4F6F4F710531F52EE0289F1C
:10471000F001299FF00D1124E35EF04F8FEF92EE30
:10472000A9ECB0E025C08CE59CEAAFEFB0E020C07A
:104730008FE895ECAFEFB0E01BC080EE91EFAFEFEC
:10474000B0E016C08BEF9FEFAFEFB0E011C08782F3
:104750009086A186B28610C02EE0289FF001299F86
:10476000F00D1124E35EF04F89E293E9AFEFB0E082
:1047700087839087A187B28787E295E00E942A13FA
:10478000E091FE0F9EE0E99FF0011124E35EF04FFF
:10479000478150856185728577FF05C0CB01BA01DD
:1047A0000E94911505C02AE083E69EE00E949014C5
:1047B0006CE073E083E69EE00E94681281E08093E3
:1047C0005D0E06C090915E0E81E0892780935E0E9B
:1047D0001092620E81E080935A0E8091620E8823BF
:1047E00009F458C080915F0E9091600E0C9709F00B
:1047F00051C089E395E00E942A13E091FE0F2E2F0D
:1048000030E0AEE0EA9FF0011124E35EF04F8581D5
:10481000968181309105B1F04CF4892BF9F481E057
:1048200090E09683858384E595E024C082309105ED
:1048300081F0039799F482E090E09683858380E687
:1048400095E018C083E090E0968385838AE595E043
:1048500011C01682158284E695E00CC08EE0829F1E
:10486000F001839FF00D1124E35EF04F1682158254
:1048700089E695E00E942E131092620E81E08093EB
:104880005D0E80935A0E10925B0E04C010920A0ABD
:104890001092090A8091090A90910A0A0196909350
:1048A0000A0A8093090A20915C0E8A30910521F052
:1048B000049734F0211104C010920A0A1092090AD8
:1048C00080915C0E8823A1F10E943F1368EB7BE08E
:1048D0008AE090E00E947F1A8091010A811112C043
:1048E00089EF99E05CDA84E190E0A0E0B0E08093A9
:1048F000FD099093FE09A093FF09B093000A81E09F
:104900008093010A89EF99E00E94B40C882369F032
:10491000E091FE0FBEE0EB9FF0011124E35EF04F4B
:1049200081810E947D0C0E94DF0C0E94AA1806C0A3
:1049300062E070E088EB9BE00E947F1A8091F109B1
:10494000811112C089EE99E02ADA88E893E1A0E0AB
:10495000B0E08093ED099093EE09A093EF09B09336
:10496000F00981E08093F10989EE99E00E94B40C8E
:104970008823A9F088E795E00E942A134091010F4F
:104980005091020F60E070E02AE083E69EE00E9412
:1049900090146CE073E083E69EE00E9468120E942F
:1049A000710557CCCF92DF92EF92FF92E6E0F0E1F3
:1049B0008FED92E09183808312821382148215829C
:1049C000E3E6FEE01382128248EE53E060E070E01E
:1049D00044835583668377832FE532E031832083D8
:1049E00025EC30E03587248724EC30E037872687B4
:1049F00020EC30E0318B208B21EC30E0338B228BAC
:104A000022EC30E0358B248B26EC30E0378B268B84
:104A1000118E128E138E148EE0E0FFE02FEF2083B4
:104A20001282118214861386CC24CA94DC2C76015F
:104A3000C782D086E186F286E4E6F0E0F0930E0FBE
:104A4000E0930D0FECE0F0E19183808312821382FA
:104A500014821582E2E1F0E1918380831282138255
:104A600014821582E8E1F0E191838083128213823F
:104A700014821582EEE1F0E1918380831282138229
:104A800014821582EFE0FFE091838083128213820B
:104A900014821582E7E1FFE0918380831282138202
:104AA00014821582E4E2F0E1918380831282138202
:104AB000148215821092FE0F3FE73093FF0FEDE551
:104AC000F0E1918380831282138214821582E7E5DC
:104AD000F0E191838083A0ECA28338EA33831482CF
:104AE000B1EBB583E1E5F0E191838083A283338369
:104AF0001482B1E0B583EBE4F0E191838083A2837B
:104B000033831482B583E5E4F0E1918380832283CB
:104B1000238324831582EAE2F0E113821282448324
:104B200055836683778327EB32E031832083978731
:104B30008687108A118A128A138A84E0808FFF90F8
:104B4000EF90DF90CF900895DC01CB01FC01F99943
:104B5000FECF06C0F2BDE1BDF89A319600B40D92C9
:104B600041505040B8F70895F999FECF92BD81BDEC
:104B7000F89A992780B50895262FF999FECF1FBA84
:104B800092BD81BD20BD0FB6F894FA9AF99A0FBE76
:104B900001960895052E97FB16F400940FD057FD4B
:104BA00005D01ED007FC02D046F408C050954095B1
:104BB000309521953F4F4F4F5F4F089590958095C9
:104BC000709561957F4F8F4F9F4F08952BD0A59F74
:104BD000900DB49F900DA49F800D911D11240895F8
:104BE000A1E21A2EAA1BBB1BFD010DC0AA1FBB1FF1
:104BF000EE1FFF1FA217B307E407F50720F0A21B63
:104C0000B30BE40BF50B661F771F881F991F1A94CF
:104C100069F760957095809590959B01AC01BD01F9
:104C2000CF010895A29FB001B39FC001A39F700D53
:104C3000811D1124911DB29F700D811D1124911DA4
:104C40000895DB018F939F93C1DFBF91AF91A29F26
:104C5000800D911DA39F900DB29F900D112408957A
:104C6000991B79E004C0991F961708F0961B881FBE
:104C70007A95C9F780950895AA1BBB1B51E107C01F
:104C8000AA1FBB1FA617B70710F0A61BB70B881FDC
:104C9000991F5A95A9F780959095BC01CD0108956B
:104CA00097FB072E16F4009406D077FD08D0E4DFBA
:104CB00007FC05D03EF4909581959F4F089570951F
:104CC00061957F4F0895EE0FFF1F881F8BBF0790E0
:104CD000F691E02D1994A6DFB7FF0895821B930B80
:0E4CE000089581E090E0F89400C0F894FFCFB2
:104CEE000002FF00639696800F80390500000000D9
:104CFE00FF05FF05FF055A0C560C530C0000000073
:104D0E00A703EA0354015A0C560C51015601010037
:104D1E005E00000000003100F9183000FB302C005E
:104D2E001C472600825A1F006D6A170041760E003E
:104D3E00897D04003131295A1B750A000000000AD2
:104D4E00052E04AC045005DD04BB04CF04000000A6
:104D5E0000FF05FF055A1BFF05FF05FF05FF05FFB9
:104D6E0005571BFF05FF05FF05FF05FF05FF05FFA7
:104D7E0005FF05FF0500000000FF052E045A1B5914
:104D8E001BFF05FF05FF0500000000FF052E045A5E
:104D9E001B591B00000000B7097D0B5A1BB6093FBB
:104DAE001BE20A4A0AC51BCD095D1B810AF61B14BC
:104DBE000C0A0BC40A4C0C471B431B000000005985
:104DCE000400000000FF055374617274696E672061
:104DDE002D204170703A205600322E33004C45443F
:104DEE00204C6962726172793A2056000D0A0045B4
:104DFE004550524F4D3A20496E76616C6964204D94
:104E0E00656D6F72792E20526573746F72696E675D
:104E1E002073746F636B2076616C75657300454506
:104E2E0050524F4D3A2056616C6964204D656D6F3E
:104E3E0072792E00506F77657220627574746F6E82
:104E4E002070726573736564202D205475726E69BF
:104E5E006E67206F66663A20004272696768746EEC
:104E6E006573735475726E4F6666207C20506F7733
:104E7E006572656420646F776E206E6F7700506F79
:104E8E0077657220627574746F6E207072657373BD
:104E9E006564202D205475726E696E67206F6E3AB0
:104EAE0020004272696768746E6573735475726E12
:104EBE004F6E207C20506F7765726564206F6E2078
:104ECE006E6F77004D6F646553656C656374696FC3
:104EDE006E4D61696E207C204368616E676564204B
:104EEE00746F205768697465302D32004D6F64659C
:104EFE0053656C656374696F6E4D61696E207C20BD
:104F0E004368616E67656420746F20546F74616CC2
:104F1E005768697465004D6F646553656C6563749D
:104F2E00696F6E4D61696E207C204368616E6765A6
:104F3E006420746F2042616C6C004D6F6465536524
:104F4E006C656374696F6E4D61696E207C20436879
:104F5E00616E67656420746F205261696E626F774F
:104F6E00004D6F646553656C656374696F6E4D615A
:104F7E00696E207C204368616E67656420746F20C3
:104F8E0046616465004D6F646553656C6563746955
:104F9E006F6E4D61696E207C204368616E6765643B
:104FAE0020746F2045666665637431004D6F6465CD
:104FBE0053656C656374696F6E4D61696E207C20FC
:104FCE004368616E67656420746F20466978656416
:104FDE00436F6C6F72004D6F646553656C656374DF
:104FEE00696F6E5475726E4F6E207C205475726EA2
:104FFE006564206F6E204C45447300206E657720EB
:10500E004D6F64653A2000536574436F6C6F725434
:10501E00656D7020746F3A2000446973706C61790D
:10502E004D6F6465207C204368616E6765642074F3
:10503E006F3A20005269676874004E6967687400A1
:10504E00416C6C004C656674004C65667420286477
:10505E00656661756C74290043757272656E742095
:10506E004650533A00436F6C6F7220616E6420534A
:10507E00617475726174696F6E3A00446973706C15
:10508E00794566666563743A204572726F722E209A
:10509E004566666563744E756D6265723A20002DC5
:1050AE002D2D2D2020006F6F20202020002D2D2053
:1050BE00202020004368616E6765506172616D202B
:1050CE007C203A005265616442696E6172793A20C1
:1050DE0052656164696E67206E65772076616C75C6
:1050EE006573206F6E2042696E6172792D506F72FA
:1050FE0074004F7574707574546F4C4544207C2049
:10510E00446973706C6179496E666F207570646165
:10511E007465642000454550524F4D3A20536176D8
:0C512E0065642073657474696E6773001B
:020000023000CC
:10E000000D9489F10D94B2F10D94B2F10D94B2F129
:10E010000D94B2F10D94B2F10D94B2F10D94B2F1F0
:10E020000D94B2F10D94B2F10D94B2F10D94B2F1E0
:10E030000D94B2F10D94B2F10D94B2F10D94B2F1D0
:10E040000D94B2F10D94B2F10D94B2F10D94B2F1C0
:10E050000D94B2F10D94B2F10D94B2F10D94B2F1B0
:10E060000D94B2F10D94B2F10D94B2F10D94B2F1A0
:10E070000D94B2F10D94B2F10D94B2F10D94B2F190
:10E080000D94B2F10D94B2F10D94B2F10D94B2F180
:10E090000D94B2F10D94B2F10D94B2F10D94B2F170
:10E0A0000D94B2F10D94B2F10D94B2F10D94B2F160
:10E0B0000D94B2F10D94B2F10D94B2F10D94B2F150
:10E0C0000D94B2F10D94B2F10D94B2F10D94B2F140
:10E0D0000D94B2F10D94B2F10D94B2F10D94B2F130
:10E0E0000D94B2F141546D656761323536300041AF
:10E0F000726475696E6F206578706C6F72657220DE
:10E1000073746B3530305632206279204D4C530099
:10E11000426F6F746C6F616465723E004875683F52
:10E1200000436F6D70696C6564206F6E203D200048
:10E130004350552054797065202020203D20005FF9
:10E140005F4156525F415243485F5F3D2000415658
:10E1500052204C696243205665723D20004743437C
:10E160002056657273696F6E203D20004350552024
:10E1700049442020202020203D20004C6F7720663D
:10E18000757365202020203D20004869676820665F
:10E190007573652020203D200045787420667573D6
:10E1A00065202020203D20004C6F636B2066757336
:10E1B000652020203D20004D617220203720323024
:10E1C000313300312E362E3800342E332E350056A2
:10E1D00023202020414444522020206F7020636F70
:10E1E00064652020202020696E73747275637469E1
:10E1F0006F6E2061646472202020496E74657272B3
:10E20000757074006E6F20766563746F7200726A49
:10E210006D702020006A6D70200057686174207056
:10E220006F72743A00506F7274206E6F7420737541
:10E2300070706F72746564004D7573742062652030
:10E2400061206C6574746572002000577269747483
:10E25000696E672045450052656164696E672045B7
:10E26000450045452065727220636E743D00504F35
:10E27000525400303D5A65726F2061646472003FF1
:10E280003D43505520737461747300403D454550C3
:10E29000524F4D207465737400423D426C696E6B41
:10E2A000204C454400453D44756D70204545505215
:10E2B0004F4D00463D44756D7020464C415348001B
:10E2C000483D48656C70004C3D4C69737420492F83
:10E2D0004F20506F72747300513D51756974005234
:10E2E0003D44756D702052414D00563D73686F7707
:10E2F00020696E7465727275707420566563746FF0
:10E30000727300593D506F727420626C696E6B00BD
:10E310002A0011241FBECFEFD1E2DEBFCDBF01E046
:10E320000CBF12E0A0E0B2E0EEE1FDEF03E00BBFB6
:10E3300002C007900D92A030B107D9F712E0A0E01B
:10E34000B2E001C01D92AE30B107E1F70F9460F367
:10E350000D948DFE01E20EBF0FEF0DBF11241FBE05
:10E360000D9460F30D9400F020E030E040ED57E0B4
:10E3700005C0FA013197F1F72F5F3F4F2817390792
:10E38000C0F308959C01260F311DC901A0E0B0E043
:10E390002F5F3F4FABBFFC018791882361F08093D3
:10E3A000C6008091C00086FFFCCF8091C0008064D1
:10E3B0008093C000EACF08958DE08093C6008091DD
:10E3C000C00086FFFCCF8091C00080648093C000B5
:10E3D0008AE08093C6008091C00086FFFCCF8091C8
:10E3E000C00080648093C00008950F94C2F10F9420
:10E3F000DCF10895FC019081992359F09093C600B7
:10E400008091C00086FFFCCF8091C0008064809323
:10E41000C0003196992379F70895282F982F929567
:10E420009F70892F805D8A3308F0895F8093C600D2
:10E430008091C00086FFFCCF8091C00080648093F3
:10E44000C000822F8F70982F905D9A3308F0995FEB
:10E450009093C6008091C00086FFFCCF8091C000E1
:10E4600080648093C00008959C01FB01853691056E
:10E470001CF46330710594F0C90164E670E00F94F8
:10E480002EFE605D7F4F6093C6008091C00086FFC6
:10E49000FCCF8091C00080648093C0002B30310598
:10E4A00014F43297B4F0C90164E670E00F942EFEC4
:10E4B0006AE070E00F942EFE605D7F4F6093C600AF
:10E4C0008091C00086FFFCCF8091C0008064809363
:10E4D000C000C9016AE070E00F942EFEC0968093E0
:10E4E000C6008091C00086FFFCCF8091C000806490
:10E4F0008093C00008951F93182F8EE692EE60E07F
:10E500000F94C2F11093C6008091C00086FFFCCF2B
:10E510008091C00080648093C0000F94DCF11F9153
:10E5200008952F923F924F925F926F927F928F92B7
:10E530009F92AF92BF92CF92DF92EF92FF920F9392
:10E540001F93DF93CF93CDB7DEB762970FB6F894E2
:10E55000DEBF0FBECDBF382E622ECA01DB015C01CB
:10E560006D01772420E2222E2E010894411C511CBB
:10E570008BC081E0A81680E0B80681E0C80680E084
:10E58000D80628F0C601AA27BB270F940DF2BB2797
:10E59000AD2D9C2D8B2D0F940DF28A2D0F940DF225
:10E5A0002092C6008091C00086FFFCCF8091C00001
:10E5B00080648093C0009DE29093C6008091C0006B
:10E5C00086FFFCCF8091C00080648093C0002092C1
:10E5D000C6008091C00086FFFCCF8091C00080649F
:10E5E0008093C00019828601750188249924A1E0D6
:10E5F0003A1651F03A1620F0B2E03B1661F409C029
:10E600000BBFF701779007C0C7010F9477FE782EF4
:10E6100002C0F7017080872D0F940DF22092C60082
:10E620008091C00086FFFCCF8091C0008064809301
:10E63000C000872D8052F401EF70F0708F3520F408
:10E64000E40DF51D708204C0E40DF51D8EE280839B
:10E650000894E11CF11C011D111D0894811C911CE2
:10E6600090E18916910409F0C2CF80E190E0A0E02A
:10E67000B0E0A80EB91ECA1EDB1E198AC2010F9493
:10E68000FAF10F94DCF16A94662009F072CF629679
:10E690000FB6F894DEBF0FBECDBFCF91DF911F91B3
:10E6A0000F91FF90EF90DF90CF90BF90AF909F9031
:10E6B0008F907F906F905F904F903F902F90089534
:10E6C0002F923F924F925F926F927F928F929F9282
:10E6D000AF92BF92CF92DF92EF92FF920F931F9370
:10E6E000DF93CF93CDB7DEB7CD53D1400FB6F894BB
:10E6F000DEBF0FBECDBF01E20EBF0FEF0DBF94B75F
:10E70000F894A89514BE80916000886180936000A1
:10E7100010926000789493FF05C0E0910002F091A0
:10E7200001021995279A2F9A8091C00082608093E8
:10E73000C00080E18093C40088E18093C1000000A4
:10E74000EE24FF24870144E0A42EB12CCC24DD2448
:10E7500024C0C5010197F1F70894E11CF11C011DCB
:10E76000111D21E2E2162EE4F20620E0020720E06D
:10E77000120718F031E0C32ED12CC801B70127ECE5
:10E780003BE140E050E00F9441FE611571058105C9
:10E79000910519F485B1805885B98091C00087FD35
:10E7A00003C0C114D104A9F2A6014F5F5F4FC25E3E
:10E7B000DE4F59834883CE51D140C25EDE4F8881FF
:10E7C0009981CE51D140019711F00D9410FEC05D9A
:10E7D000DE4F19821882C053D14060E0C15DDE4F28
:10E7E0001882CF52D14088249924C35DDE4F19820C
:10E7F0001882CD52D140C05EDE4F188219821A8233
:10E800001B82C052D140CE5CDE4F188219821A8220
:10E810001B82C253D140EE24FF2487010BBFF701B6
:10E8200007911691C45CDE4F19830883CC53D14005
:10E830000D940BFEC25EDE4F28813981CE51D1404E
:10E840002130310509F52091C600C25EDE4F1982E4
:10E850001882CE51D14022C02F5F3F4F4F4F5F4FA4
:10E86000213082E138078AE7480780E0580780F0C6
:10E87000C45CDE4FE881F981CC53D140EF5FFF4F9C
:10E8800019F0EE27FF27099420E030E040E050E047
:10E890008091C00087FFE0CF2091C600C35DDE4FAE
:10E8A00048815981CD52D1404F5F5F4FC35DDE4FEC
:10E8B00059834883CD52D140213209F063C64A3092
:10E8C000510508F05FC60894811C911C53E0851621
:10E8D000910409F059C600E010E018C081E280936D
:10E8E000C6008091C00086FFFCCF8091C00080648C
:10E8F0008093C0002F5F3F4F2931310579F70F9486
:10E90000DCF10F5F1F4F0530110519F020E030E0FA
:10E91000E5CF10920A0210920B0210920C02109294
:10E920000D02109206021092070210920802109235
:10E930000902109202021092030210920402109235
:10E9400005028FEE90EE60E00F94F5F180E191EE1C
:10E9500060E00F94C2F18091C00087FFFCCF9091DE
:10E96000C600903608F09F759032B8F09093C600BC
:10E970008091C00086FFFCCF8091C00080648093AE
:10E98000C000A0E2A093C6008091C00086FFFCCF2B
:10E990008091C00080648093C000983409F4D7C18E
