:1000000016C2000041C200003FC200003DC2000015
:100010003BC2000039C2000037C2000035C20000F8
:1000200033C2000031C200002FC200002DC2000008
:100030002BC2000029C2000027C2000025C2000018
:1000400023C2000021C200001FC200001DC2000028
:100050001BC2000019C2000017C200000C94311D21
:1000600013C200000C94241F0C9468200DC20000E1
:100070000BC2000009C2000007C2000005C2000058
:1000800003C2000001C20000FFC10000FDC100006A
:100090000C94641F0C94A720F7C10000F5C1000068
:1000A000F3C10000F1C10000EFC10000EDC100008C
:1000B000EBC10000E9C10000E7C10000E5C100009C
:1000C000E3C10000E1C10000DFC100000C94A41FE7
:1000D0000C94E620D9C100000C94E41F0C94252157
:1000E000D3C10000FF0000008B0000008B00000067
:1000F0008B0000008B0000008B0000008B000000D4
:100100008B000000FF0000008B000000EBCE87009A
:10011000EBCE8700E6D8AD00FFFFFF00E6D8AD00CC
:10012000EBCE87000000000000008000000000000F
:100130000000800000008B000000800000008B00A9
:1001400000008B0000008B000000FF0000A5FF00F6
:10015000FFFFFF0000A5FF000000FF0000008B0074
:1001600000000000701919008B00000070191900C0
:10017000800000008B000000CD000000578B2E0097
:1001800080800000A09E5F00FF0000008B8B0000BD
:10019000ED956400D4FF7F00578B2E00FFFF000019
:1001A000FACE870000640000006400002F6B550049
:1001B0000064000000800000228B2200238E6B0070
:1001C00000800000578B2E00AACD660032CD320091
:1001D00032CD9A0090EE900000FC7C00AACD660023
:1001E000228B22000000FF00002AD5000055AB0042
:1001F000007FAB0000ABAB0000D5560000FF000055
:100200002AD5000055AB0000AA560000FF000000F0
:10021000D5002A00AB00550081007F005500AB00DF
:100220002B00D5000000FF00000000000055AB00CF
:100230000000000000ABAB000000000000FF000069
:100240000000000055AB000000000000FF000000AF
:1002500000000000AB005500000000005500AB009E
:1002600000000000AB0055007C0084004B00B5008E
:100270001B00E5000017E8000047B8000077AB005E
:1002800000ABAB000055AB000022DD000E00F20019
:100290003E00C20071008F00A1005F00D0002F005F
:1002A000F9070000000000000000330000006600B5
:1002B000000099000000CC000000FF000033FF00A8
:1002C0000066FF000099FF0000CCFF0000FFFF0068
:1002D00033FFFF0066FFFF0099FFFF00CCFFFF0028
:1002E000FFFFFF0000FF000020AB550040ABAB005C
:1002F0006000FF008000AB55A00000FFC05500ABC0
:10030000E0AB0055FFFF00000000210024002700A3
:100310002A002D0030003300010100000401070114
:100320000A0100002200250028002B002E003100C9
:10033000340002010000050108010B01000020004B
:100340002300260029002C002F00320000010000AD
:100350000301060109010505050507050808080848
:10036000020202020A0A080804040404010101014D
:100370000101010103030303030303030407070748
:100380000C0C0C0C0C0C0C0C0202020206060606ED
:10039000060606060B0B0B0B0B0B0B0B01021020BA
:1003A00020080810204010204080020102010804AB
:1003B000020101020408102040808040201008043F
:1003C0000201800402018040201008040201080498
:1003D00002010102040810204080010204081020DC
:1003E00040800000090A02080B0C0D0706030401F7
:1003F00000000000000000000000000000000000FD
:1004000000000000000000000000000000001110CB
:100410000F000000000000000000000000000000CD
:100420000000000000000000BF03471B94221124BD
:100430001FBECFEFD1E2DEBFCDBF00E00CBF15E0A5
:10044000A0E0B2E0EEEDFBE400E00BBF02C00790DD
:100450000D92AC3FB107D9F71BBE19E1ACEFB5E087
:1004600001C01D92AF3CB107E1F714E0CEE2D4E049
:1004700004C02297FE010E94E925C832D107C9F7BE
:100480000E94CA230C94ED25BBCDAC019C013F73A7
:1004900036952795369527953695279556FF06C0AC
:1004A0008FEF97E0BC01621B730B9B01E32FEE0FF4
:1004B000EE0FF0E0E954FA4F80819181322F3695AA
:1004C0002281329F90011124280F391F57FF03C04A
:1004D000309521953F4FC9010895382F492F02C00B
:1004E0006C5F724082E06D3F7807D0F76F3F710517
:1004F00009F040F4E32FF42F862F809580836183E9
:10050000128217C081E06F3F780750F4E32FF42F79
:100510001082CB018F5F9040282F2095218308C047
:10052000E32FF42FCB018E5F914080831182809561
:100530008283832F942F08952F923F924F925F9240
:100540006F927F928F929F92AF92BF92CF92DF92E3
:10055000EF92FF920F931F93DF93CF9300D000D0C1
:10056000CDB7DEB71C016B01DA015901F80126177E
:100570003707D0F43081398321812A8392819B838C
:100580008C91808311968C911197818312968C9116
:10059000129782833C9311962C93119712969C93F9
:1005A0001297C5015B016C018281882319F081815A
:1005B000882311F48C91808312968C911297882352
:1005C00029F011968C911197882311F480818C93D6
:1005D000218111968C911197482E55249280129664
:1005E0008C911297682E77244C910081041B82E035
:1005F000E816F10419F407FF0AC010C083E0E816FA
:10060000F10419F407FF0AC002C0EF2839F410E022
:100610001695102F0027179507950CC00195802F70
:1006200090E09695982F8827979587950027112712
:10063000081B190BB5016C197D0921F431E0E32E7B
:10064000F12C01C07B01C801B7010E949725FB0175
:10065000822F90E0841995099695982F8827979571
:100660008795B7010E9497259B01892D90E08619F7
:1006700097099695982F882797958795B7010E9497
:100680009725CB014F01880C991C220F331F880F2F
:10069000991F142F00E0F42CEE24562D4427D60188
:1006A000AA0FBB1FAC0DBD1DA20DB31DFD01B601F0
:1006B0000DC01C93F1825283080D191DE20EF31E2A
:1006C000480F591F6F5F7F4F13963396A616B706D4
:1006D00080F726960FB6F894DEBF0FBECDBFCF9140
:1006E000DF911F910F91FF90EF90DF90CF90BF901F
:1006F000AF909F908F907F906F905F904F903F90C2
:100700002F900895229A089580E991E008951F930B
:10071000CF93DF93382F492F8091EF168F5F87702B
:100720008093EF1680FD02C020E001C020E881FD2B
:10073000206482FD2062122F105F832F942F9C0172
:10074000F901C0E0D0E06285662331F080E091E0FD
:1007500070E00E9497256F5F6783212F269F212DD0
:1007600011242483662311F061506783219631960A
:10077000C330D10541F7DF91CF911F9108950895BE
:100780008091650990916609A0916709B091680907
:100790008A3A26ED92072FEFA20720E0B20709F46C
:1007A00063C08B3A26ED92072FEFA20720E0B20735
:1007B0003CF5893223E992072FEFA20720E0B20728
:1007C00009F443C08A3223E992072FEFA20720E001
:1007D000B2073CF48F5F924EA94CB04009F062C062
:1007E0005CC08C352CEA92072FEFA20720E0B207FD
:1007F00089F18F58954CAF4FB04009F053C02FC0CE
:10080000843F2AEF92072FEFA20720E0B207B1F151
:10081000853F2AEF92072FEFA20720E0B2073CF4B2
:10082000805E914FAF4FB04009F03CC022C08B3F7B
:100830002FEF92072FEFA20720E0B20721F18F5F81
:100840009F4FAF4FB04071F523C08CE59CEAAFEFEE
:10085000B0E02CC08FE895ECAFEFB0E027C08AEA9B
:1008600096EDAFEFB0E022C080EE91EFAFEFB0E0D9
:100870001DC084EF9AEFAFEFB0E018C08BEF9FEF91
:10088000AFEFB0E013C08FEF9FEFAFEFB0E00EC05F
:100890008FEF92EEA9ECB0E009C08FEF9CE9A0E4E5
:1008A000B0E004C089E293E9AFEFB0E0809365095E
:1008B00090936609A0936709B09368098EE299E165
:1008C00060E072E00E9451254091650950916609EF
:1008D00060916709709168098EE299E12AE030E041
:1008E0000C943F25AF92BF92CF92DF92EF92FF928E
:1008F0000F931F93DF93CF9300D000D0CDB7DEB717
:10090000B82EA92E6B018091B809882351F488EB89
:1009100099E00E94D723892B21F088EB99E00E946F
:10092000E1238091C0158823D9F481E08093C0151C
:1009300084E689839FEF9A839B8383E68C839D83E0
:100940009E8380EC99E060E070E0AE014F5F5F4F06
:100950002FEF33E08E010C5F1F4FEE24FF24ECDD00
:1009600080E0C81684E0D80620F081E09CEFC80E35
:10097000D91EAB2DBA2DF601EE0FFF1FEC0DFD1D9C
:10098000E054F64F80818C93818111968C9311975E
:10099000828112968C938B2D9A2D26960FB6F89401
:1009A000DEBF0FBECDBFCF91DF911F910F91FF90A2
:1009B000EF90DF90CF90BF90AF9008951F93CF93AB
:1009C000DF93EC010E94791D10E0288139814A8172
:1009D0005B81621B730B840B950B2C813D814E81D7
:1009E0005F81621773078407950738F011E00E9452
:1009F000791D688379838A839B83812FDF91CF91CF
:100A00001F91089580917309882301F583E799E088
:100A10000E94D723892BD1F00E94791D60937F0912
:100A200070938009809381099093820982E390E01A
:100A3000A0E0B0E08093830990938409A093850996
:100A4000B093860983E799E00E94E1238FE799E05C
:100A5000B5DF882339F180917E09882319F18091CF
:100A60007D098823F9F480917B0990917C090E9788
:100A7000C9F480916B0990916C098330910529F03C
:100A80008130910511F0029729F47ADE81E080939C
:100A90006F0906C08091720991E0892780937209DD
:100AA00010927E0908951F93182F8091CE168823E7
:100AB00001F58EEC96E10E94D723892BD1F00E949C
:100AC000791D6093D6167093D7168093D81690939D
:100AD000D91684E190E0A0E0B0E08093DA1690931C
:100AE000DB16A093DC16B093DD168EEC96E10E9427
:100AF000E12386ED96E162DF882309F440C030915E
:100B0000F016832F90E0811B91098B3091052CF416
:100B10002FEF863F92078CF503C08531910534F4A1
:100B200022E04FEF8C3E94072CF403C08F319105E7
:100B300034F424E04FEF823E94072CF403C0893252
:100B4000910534F428E04FEF883D94072CF403C05E
:100B50008734910524F420E18A5B9F4F0CF420E256
:100B6000311718F4320F3093F0168091F0161817E1
:100B700030F4821B8093F01602C021E0D2CF1F9187
:100B800008956F927F928F929F92AF92BF92CF9271
:100B9000DF92EF92FF920F931F93CF93DF93EC01BD
:100BA0003B014A01580169018F3F910509F010F49A
:100BB000D82FCC270E94791D6A197B098C099D09C1
:100BC00028E131E040E050E00E9464259E0140E0D1
:100BD00050E00E946425BC0188279927E60EF71E85
:100BE000C70153DC805090488618970820E030E019
:100BF00040E050E060E0889D9001999DA001989DA3
:100C0000300D411D561F899D300D411D561F112469
:100C10009A0144275527260D371DC901DF91CF9131
:100C20001F910F91FF90EF90DF90CF90BF90AF900A
:100C30009F908F907F906F9008959F92AF92BF92F8
:100C4000CF92DF92EF92FF920F931F93CF93DF9398
:100C5000EC01962EF42E580169018F3F910509F0A1
:100C600010F4D82FCC270E94791D6A197B098C09B2
:100C70009D0928E131E040E050E00E9464259E019A
:100C800040E050E00E946425BC0188279927672F27
:100C90007727E60E8E2DE6FC8095E82FEF73982FD0
:100CA0009F70E6FC9F5FE295EF70EE0FF0E0EA5276
:100CB000FA4F8181899F802D912D112482958F700B
:100CC0009295907F892B2081280FE7FC2195F918B8
:100CD00020583F2D239F212D1124822F890DDF9134
:100CE000CF911F910F91FF90EF90DF90CF90BF9029
:100CF000AF909F90089580918709882301F587E838
:100D000099E00E94D723892BD1F00E94791D60932E
:100D10008F0970939009809391099093920982E3CF
:100D200090E0A0E0B0E08093930990939409A093A1
:100D30009509B093960987E899E00E94E1238FE82E
:100D400099E03CDE882309F4CEC080917E09882397
:100D500029F480917D09882309F45EC080917B0984
:100D600090917C090D9709F057C080916B09909183
:100D70006C098330910529F08130910511F00297BB
:100D800021F481E080936F0932C080917D0988232E
:100D900089F0809170099091710983309105D8F0A4
:100DA000019790937109809370098EE299E162E155
:100DB00072E01BC080917009909171098330910598
:100DC00050F0019790937109809370098EE299E138
:100DD00060E272E00AC082E090E090937109809333
:100DE00070098EE299E169E172E00E9451258EE27C
:100DF00099E167E272E00E9451256091700970915B
:100E000071098EE299E14AE050E00E94B924109203
:100E10007E0981E080936F0980917E09882329F4FF
:100E200080917D09882309F45EC080917B099091AF
:100E30007C090F9709F057C080916B0990916C095C
:100E40008330910529F08130910511F0029721F44A
:100E500081E080936F0932C080917D09882389F0F9
:100E6000809170099091710982339105D8F40196AF
:100E700090937109809370098EE299E168E472E0C1
:100E80001BC080917009909171098233910550F4D3
:100E9000019690937109809370098EE299E16FE455
:100EA00072E00AC082E390E0909371098093700928
:100EB0008EE299E169E172E00E9451258EE299E1AA
:100EC00067E272E00E94512560917009709171098A
:100ED0008EE299E14AE050E00E94B92410927E0926
:100EE00081E080936F090895CF93DF9386E10E949C
:100EF000F41E892BD1F488E10E94F41E892BA9F4F9
:100F00008AE10E94F41E892B81F48CE10E94F41E78
:100F1000892B59F48EE10E94F41E892B31F48AE06A
:100F200090E090937C0980937B0986E10E94F41EF7
:100F3000892BD1F488E10E94F41E892BA9F48AE15F
:100F40000E94F41E892B81F48CE10E94F41E892BEF
:100F500059F48EE10E94F41E019731F48BE090E089
:100F600090937C0980937B0986E10E94F41E892B73
:100F7000D1F488E10E94F41E892BA9F48AE10E9431
:100F8000F41E892B81F48CE10E94F41E019759F420
:100F90008EE10E94F41E892B31F48CE090E0909356
:100FA0007C0980937B0986E10E94F41E892BD1F491
:100FB00088E10E94F41E892BA9F48AE10E94F41EA4
:100FC000892B81F48CE10E94F41E019759F48EE183
:100FD0000E94F41E019731F48DE090E090937C091B
:100FE00080937B0986E10E94F41E892BD1F488E16D
:100FF0000E94F41E892BA9F48AE10E94F41E019735
:1010000081F48CE10E94F41E892B59F48EE10E9438
:10101000F41E892B31F48EE090E090937C0980934C
:101020007B0986E10E94F41E892BD1F488E10E949D
:10103000F41E892BA9F48AE10E94F41E019781F421
:101040008CE10E94F41E892B59F48EE10E94F41E5B
:10105000019731F48FE090E090937C0980937B09B5
:1010600086E10E94F41E892BD1F488E10E94F41ECF
:10107000892BA9F48AE10E94F41E019781F48CE186
:101080000E94F41E019759F48EE10E94F41E892BF0
:1010900031F480E190E090937C0980937B0986E1B4
:1010A0000E94F41E892BD1F488E10E94F41E892B42
:1010B000A9F48AE10E94F41E019781F48CE10E9458
:1010C000F41E019759F48EE10E94F41E019731F449
:1010D00081E190E090937C0980937B0986E10E94F6
:1010E000F41E892BD1F488E10E94F41E0197A9F423
:1010F0008AE10E94F41E892B81F48CE10E94F41E87
:10110000892B59F48EE10E94F41E892B31F482E17F
:1011100090E090937C0980937B0986E10E94F41E05
:10112000892BC1F488E10E94F41E019799F48AE1A9
:101130000E94F41E892B71F48CE10E94F41E892B0D
:1011400049F48EE10E94F41E019721F410927C096B
:1011500010927B0986E10E94F41E892BD1F488E16C
:101160000E94F41E0197A9F48AE10E94F41E892BC3
:1011700081F48CE10E94F41E019759F48EE10E94E3
:10118000F41E892B31F483E190E090937C098093E5
:101190007B0986E10E94F41E892BD1F488E10E942C
:1011A000F41E0197A9F48AE10E94F41E892B81F4B0
:1011B0008CE10E94F41E019759F48EE10E94F41E06
:1011C000019731F484E190E090937C0980937B094E
:1011D00086E10E94F41E892BD1F488E10E94F41E5E
:1011E0000197A9F48AE10E94F41EEC018130910577
:1011F00071F48CE10E94F41E892B49F48EE10E9467
:10120000F41E892B21F4D0937C09C0937B0986E1DD
:101210000E94F41E892BD1F488E10E94F41E0197EC
:10122000A9F48AE10E94F41E019781F48CE10E94E6
:10123000F41E892B59F48EE10E94F41E019731F4BB
:1012400082E090E090937C0980937B0986E10E9484
:10125000F41E892BD1F488E10E94F41E0197A9F4B1
:101260008AE10E94F41E019781F48CE10E94F41E31
:10127000019759F48EE10E94F41E892B31F483E02A
:1012800090E090937C0980937B0986E10E94F41E94
:10129000892BD1F488E10E94F41E0197A9F48AE118
:1012A0000E94F41E019781F48CE10E94F41E0197C4
:1012B00059F48EE10E94F41E019731F484E090E02D
:1012C00090937C0980937B0986E10E94F41E01972C
:1012D000D1F488E10E94F41E892BA9F48AE10E94CE
:1012E000F41E892B81F48CE10E94F41E892B59F4A1
:1012F0008EE10E94F41E892B31F485E090E09093FA
:101300007C0980937B0986E10E94F41E0197D1F449
:1013100088E10E94F41E892BA9F48AE10E94F41E40
:10132000892B81F48CE10E94F41E892B59F48EE103
:101330000E94F41E019731F486E090E090937C09BE
:1013400080937B0986E10E94F41E0197D1F488E125
:101350000E94F41E892BA9F48AE10E94F41E892BB5
:1013600081F48CE10E94F41E019759F48EE10E94F1
:10137000F41E892B31F487E090E090937C098093F0
:101380007B0986E10E94F41E0197D1F488E10E9456
:10139000F41E892BA9F48AE10E94F41E892B81F4A2
:1013A0008CE10E94F41E019759F48EE10E94F41E14
:1013B000019731F488E090E090937C0980937B0959
:1013C00086E10E94F41E0197D1F488E10E94F41E88
:1013D000892BA9F48AE10E94F41E019781F48CE123
:1013E0000E94F41E892B59F48EE10E94F41E892B71
:1013F00031F489E090E090937C0980937B09DF9140
:10140000CF9108951F9380919709882301F587E96B
:1014100099E00E94D723892BD1F00E94791D609317
:10142000A0097093A1098093A2099093A30982E374
:1014300090E0A0E0B0E08093A4099093A509A09368
:10144000A609B093A70987E999E00E94E12380EA01
:1014500099E0B4DA882311F184E20E94F41E20910D
:101460009F0930E08217930779F08EE299E166E5F3
:1014700072E00E94532580919F0911E0812780939B
:101480009F0932DD10937E0982E20E94F41E1092C1
:101490007D09892B19F081E080937D091F910895C2
:1014A0008EE299E16CE772E00E94532581E080931F
:1014B0006A0980916D0990916E0990936C098093EF
:1014C0006B0908958091A809882301F588EA99E0BD
:1014D0000E94D723892BD1F00E94791D6093B00917
:1014E0007093B1098093B2099093B30982E390E0BD
:1014F000A0E0B0E08093B4099093B509A093B60939
:10150000B093B70988EA99E00E94E12380EB99E063
:1015100055DA882309F455C180917E098823D9F1D1
:1015200080917B0990917C090C97A9F580916A09BB
:10153000882309F4B5DF80916B0990916C098130A3
:10154000910569F00397B1F481E090E090936C0904
:1015500080936B098EE299E161EA72E015C082E046
:1015600090E090936C0980936B098EE299E16AECAC
:1015700072E00AC083E090E090936C0980936B095D
:101580008EE299E164EF72E00E94532581E080933E
:101590006F0910927E0980917E09882309F44DC05D
:1015A00080917B0990917C09089709F046C0809151
:1015B0006A09882309F474DF80916B0990916C09A2
:1015C0008530910589F08630910519F0049711F561
:1015D00016C087E090E090936C0980936B098EE2CF
:1015E00099E16CE173E020C086E090E090936C0993
:1015F00080936B098EE299E168E473E015C085E0A1
:1016000090E090936C0980936B098EE299E163E717
:1016100073E00AC084E090E090936C0980936B09BA
:101620008EE299E16FE973E00E94532581E0809397
:101630006F098093720910927E0980917E09882338
:1016400079F180917B0990917C09059749F580910A
:101650006A09882309F424DF80916B0990916C0951
:10166000089759F489E090E090936C0980936B0996
:101670008EE299E163EC73E00AC088E090E0909319
:101680006C0980936B098EE299E16AEE73E00E9427
:10169000532581E080936F098093720910927E092F
:1016A00080917E09882309F43DC080917B09909147
:1016B0007C090297B9F580916A09882309F4F0DE64
:1016C00080916B0990916C098A30910569F00B97B4
:1016D000B1F48CE090E090936C0980936B098EE2FA
:1016E00099E16EE074E015C08BE090E090936C0996
:1016F00080936B098EE299E164E374E00AC08AE0AA
:1017000090E090936C0980936B098EE299E166E614
:1017100074E00E94532581E080936F0980937209E1
:1017200010927E0980917E09882309F180917B09BE
:1017300090917C090397D9F480916A09882309F470
:10174000AFDE8DE090E090936C0980936B098CE3A1
:10175000809369098EE299E16EE874E00E94532556
:1017600081E080936F098093720910927E098091C5
:101770007E09882331F180917B0990917C0909973A
:1017800001F583E090E090936C0980936B098FEFF3
:101790008093690921E020936F098FEF9FEFAFEFEE
:1017A000B0E08093650990936609A0936709B093B0
:1017B000680980916A09882311F420936A091092BC
:1017C0007E090895EF92FF920F931F93CF93DF93BB
:1017D0007C01EB010E94791D2091C2153091C31547
:1017E0004091C4155091C515621B730B840B950B6A
:1017F00000E010E0E616F70608071907B8F4809134
:10180000C115882399F40E94791D6093C2157093C5
:10181000C3158093C4159093C5156091C11581E0DF
:1018200068276093C1158DE00E94C21E0E94791D39
:101830002091C2153091C3154091C4155091C51522
:10184000621B730B840B950B9E0140E050E0261742
:10185000370748075907B8F48091C115882399F0D4
:101860000E94791D6093C2157093C3158093C415AF
:101870009093C5156091C11581E068276093C115EB
:101880008DE00E94C21EDF91CF911F910F91FF90BA
:10189000EF9008958F929F92AF92BF92CF92DF9276
:1018A000EF92FF920F931F93DF93CF9300D000D05E
:1018B000CDB7DEB700E010E0BB24BA9465EA862E0F
:1018C00054E0C52ED12CCC0EDD1E4CE3942E30E816
:1018D000A32E7E010894E11CF11C609170097091A7
:1018E0007109C8010E948325B801660F771F892BF3
:1018F00049F09982AA821B82600F711F64507A4F4F
:10190000C70108C0BC828D82BE82600F711F645007
:101910007A4FC6010E947A1C0F5F1F4F81E004328C
:101920001807D9F610926F0926960FB6F894DEBF05
:101930000FBECDBFCF91DF911F910F91FF90EF9020
:10194000DF90CF90BF90AF909F908F9008952F928F
:101950003F924F925F926F927F928F929F92AF923F
:10196000BF92CF92DF92EF92FF920F931F93DF937C
:10197000CF93CDB7DEB72A970FB6F894DEBF0FBE70
:10198000CDBF9A8789876B01DA013901F8012617E3
:101990003707D0F43081398321812A8392819B8358
:1019A0008C91808311968C911197818312968C91E2
:1019B000129782833C9311962C93119712969C93C5
:1019C0001297C3013B016C018281882319F0818148
:1019D000882311F48C91808312968C91129788231E
:1019E00029F011968C911197882311F480818C93A2
:1019F000218111968C911197882E992452801296EC
:101A00008C911297A82EBB244C910081041B62E09C
:101A1000E616F10419F407FF0AC010C073E0E716D8
:101A2000F10419F407FF0AC002C0EF2839F410E0EE
:101A30001695102F0027179507950CC00195802F3C
:101A400090E09695982F88279795879500271127DE
:101A5000081B190BB3016C197D0921F431E0E32E49
:101A6000F12C01C07B01C801B7010E949725FB0141
:101A7000822F90E0881999099695982F8827979535
:101A80008795B7010E9497259B01852D90E08A19C3
:101A90009B099695982F882797958795B7010E945F
:101AA0009725CB01BF01660F771F78876F831901D8
:101AB000220C331C2C01440C551CF42EEE24982CC3
:101AC0008824BA2CAA248601000F111F0C0D1D1D9D
:101AD00089859A85080F191F15C0FC829D82BE82D8
:101AE000CE010496B8010E947A1C6F817885E60EBB
:101AF000F71E820C931CA40CB51C0894C11CD11CAD
:101B00000D5F1F4F6C147D0440F72A960FB6F894B2
:101B1000DEBF0FBECDBFCF91DF911F910F91FF9020
:101B2000EF90DF90CF90BF90AF909F908F907F907D
:101B30006F905F904F903F902F900895CF92DF92DB
:101B4000EF92FF920F931F93DF93CF93CDB7DEB742
:101B50002C970FB6F894DEBF0FBECDBF80916816EC
:101B6000882301F588E696E10E94D723892BD1F0DE
:101B70000E94791D6093701670937116809372168F
:101B80009093731688E290E0A0E0B0E08093741622
:101B900090937516A0937616B093771688E696E123
:101BA0000E94E12380E796E10E94DE04882309F485
:101BB00077C06091781670917916CE0101960E94D7
:101BC00072046091A8057091A905CE0104960E9447
:101BD000720489818F838A8188878B8189878C8130
:101BE0008A878D818B878E818C878CEF95E060E072
:101BF00070E0AE01495F5F4F22E231E08E01065F87
:101C00001F4FEE24FF24A3DEC0907816D0907916E3
:101C10006091700970917109AB01440F551F85E007
:101C200090E07695679500E010E020E030E00E94BB
:101C3000C1058C0D9D1D909379168093781624E034
:101C40008030920730F08F5F9340909379168093A5
:101C50007816C090A805D090A90560917009709180
:101C60007109AB01440F551F85E090E076956795AB
:101C700000E010E020E030E0EE24FF240E94C105E7
:101C80008C0D9D1D9093A9058093A80524E08030BC
:101C9000920730F08F5F93409093A9058093A80539
:101CA00081E080936F092C960FB6F894DEBF0FBECB
:101CB000CDBFCF91DF911F910F91FF90EF90DF90FB
:101CC000CF900895EF92FF920F931F93DF93CF93DE
:101CD000CDB7DEB72C970FB6F894DEBF0FBECDBFE1
:101CE00080917A16882301F58AE796E10E94D7232E
:101CF000892BD1F00E94791D609382167093831610
:101D0000809384169093851688E290E0A0E0B0E07E
:101D10008093861690938716A0938816B0938916A1
:101D20008AE796E10E94E12382E896E10E94DE04C0
:101D3000882309F459C060918A1670918B16CE01E0
:101D400001960E9472046091AA057091AB05CE01C4
:101D500004960E94720489818F838A8188878B818F
:101D600089878C818A878D818B878E818C878CEF88
:101D700095E060E070E0AE01495F5F4F22E231E044
:101D80008E01065F1F4FEE24FF24E1DD20917009D4
:101D9000309171093695279580918A1690918B160E
:101DA000820F931F90938B1680938A1644E08030A5
:101DB000940730F08F5F934090938B1680938A1630
:101DC0008091AA059091AB05820F931F9093AB056C
:101DD0008093AA0524E08030920730F08F5F934013
:101DE0009093AB058093AA0581E080936F092C96B0
:101DF0000FB6F894DEBF0FBECDBFCF91DF911F911C
:101E00000F91FF90EF9008959F92AF92BF92CF9263
:101E1000DF92EF92FF920F931F93DF93CF9300D047
:101E2000CDB7DEB772E6E72E79E0F72E01E010E0DD
:101E30006BE4962E53E2A52E51E0B52E6E01089468
:101E4000C11CD11C00361105A4F480916509909144
:101E50006609A0916709B09168099D01442755273B
:101E6000F7012083292F3A2F4B2F55272183828377
:101E700010C019821A829B82C501801B910BBC0184
:101E8000660F771F680F791F64507A4FC6010E9452
:101E90007A1C0F5F1F4F8DEF9FEFE80EF91E91E048
:101EA0000432190779F610926F090F900F900F9076
:101EB000CF91DF911F910F91FF90EF90DF90CF9026
:101EC000BF90AF909F9008951F93DF93CF9300D062
:101ED00000D0CDB7DEB78091F6158C3008F080C009
:101EE000882381F0823071F0843061F0863051F0C7
:101EF000883041F08A3031F08091CE15882309F086
:101F000058C037C08091C615882301F586EC95E14D
:101F10000E94D723892BD1F00E94791D6093EE1582
:101F20007093EF158093F0159093F11582E390E094
:101F3000A0E0B0E08093F2159093F315A093F41510
:101F4000B093F51586EC95E10E94E1238EEE95E1C4
:101F50000E94DE04882309F496C08FEF89838A8368
:101F60008B838CEF95E063E271E0AE014F5F5F4FD2
:101F700031C08EEC95E10E94D723892BD1F00E94CD
:101F8000791D6093E6157093E7158093E81590939B
:101F9000E91582E390E0A0E0B0E08093EA15909329
:101FA000EB15A093EC15B093ED158EEC95E10E9426
:101FB000E12386EE95E10E94DE04882309F463C0E4
:101FC0001C821D821E828CEF95E063E271E0AE01FF
:101FD0004C5F5F4F0E942E1A8091F6158F5F51C0A3
:101FE0008091D615882301F586ED95E10E94D723CF
:101FF000892BD1F00E94791D6093DE157093DF1557
:102000008093E0159093E11582E390E0A0E0B0E0CA
:102010008093E2159093E315A093E415B093E51532
:1020200086ED95E10E94E1238EED95E10E94DE04AC
:10203000882349F11091F6152091B1053091B20530
:1020400085E098E0289FB001299F700D389F700DA2
:102050001124675E794C7093B2056093B10580E0FE
:1020600090E02FEF30E040E050E00E946425BC019A
:1020700088279927160F193C18F01092F61503C0FF
:102080008FE08093F61526960FB6F894DEBF0FBE4C
:10209000CDBFCF91DF911F910895DF93CF9300D0F3
:1020A000CDB7DEB78091F715882301F587EF95E16D
:1020B0000E94D723892BD1F00E94791D6093FF15D0
:1020C00070930016809301169093021688E290E0B8
:1020D000A0E0B0E08093031690930416A093051639
:1020E000B093061687EF95E10E94E1238FEF95E10B
:1020F0000E94DE04882309F482C040910716423012
:10210000F1F0433030F4442361F0413009F048C02D
:102110000FC0443021F14430D0F0453009F040C0C8
:102120002DC0209108163091091629831A820DC0FE
:10213000809108169091091689831A820EC0209109
:1021400008163091091619822A831B820FC08091CC
:1021500008169091091619828A831B8216C0209155
:1021600008163091091619821A822B838091700902
:10217000909171090197820F931F0EC080910816EC
:102180009091091619821A828B83209170093091DF
:102190007109821B930B0196909309168093081680
:1021A00080910816909109168F3F910551F04CF0DF
:1021B0008FEF90E090930916809308164F5F40933D
:1021C0000716809108169091091697FF09C0109282
:1021D000091610920816809107168F5F80930716D4
:1021E00080910716863010F0109207168CEF95E05C
:1021F00063E271E0AE014F5F5F4F0E942E1A81E0F3
:1022000080936F090F900F900F90CF91DF910895F9
:102210000F931F93DF93CF9300D0CDB7DEB780919C
:102220000A16882301F58AE096E10E94D723892BBC
:10223000D1F00E94791D609312167093131680934B
:1022400014169093151682E090E0A0E0B0E0809321
:10225000161690931716A0931816B09319168AE0C5
:1022600096E10E94E12382E196E10E94DE04882348
:1022700051F160911A1670911B168E010F5F1F4F5E
:10228000C8010E946D028CEF95E063E271E0A80145
:102290000E942E1A20911A1630911B1680917009F7
:1022A00090917109280F391FC901019790931B164E
:1022B00080931A168D5F924030F02D5F324030933C
:1022C0001B1620931A1681E080936F090F900F90D0
:1022D0000F90CF91DF911F910F910895EF92FF9290
:1022E0000F931F93DF93CF93CDB7DEB729970FB628
:1022F000F894DEBF0FBECDBF19821A828BE48B83A8
:102300008E010C5F1F4FCE010196B8010E947A1C0E
:10231000BCEFEB2EB5E0FB2EC70163E271E0A80134
:102320000E942E1A20916509309166094091670933
:1023300050916809CA01AA27BB278F83BB27A52F05
:10234000942F832F88872987C7016DE670E0AE013F
:10235000495F5F4F0E942E1A10926F0929960FB69F
:10236000F894DEBF0FBECDBFCF91DF911F910F91CB
:10237000FF90EF900895DF93CF9300D0CDB7DEB7F5
:102380008091650990916609A0916709B0916809EB
:102390009D01442755272983292F3A2F4B2F552755
:1023A0002A838B838CEF95E063E271E0AE014F5F8F
:1023B0005F4F0E942E1A10926F090F900F900F908E
:1023C000CF91DF910895CF92DF92EF92FF920F931A
:1023D0001F93DF93CF9300D0CDB7DEB780911C164B
:1023E000882301F58CE196E10E94D723892BD1F057
:1023F0000E94791D60936016709361168093621637
:102400009093631680E991E0A0E0B0E080936416B9
:1024100090936516A0936616B09367168CE196E1CB
:102420000E94E12380E696E10E94DE04882309F4FD
:1024300062C080912416882351F484E296E10E94C0
:10244000D723892B21F084E296E10E94E12360E307
:1024500076E100E010E0F801EE0FFF1FEE0FFF1F26
:10246000EC59FD4F85919591A591B4919D0144271B
:102470005527FB012083292F3A2F4B2F55272183E6
:1024800082830F5F1F4F6D5F7F4F0031110519F77A
:1024900081E090E090932F1680932E1680912D1658
:1024A0008F5F80932D167CEFE72E75E0F72E6E017F
:1024B0000894C11CD11C00912E1610912F16C60134
:1024C00060E376E140912C162FEFF6D78981F70172
:1024D00080838A8181838B81828380912C168F5F98
:1024E00080932C1683E090E0E80EF91E95E6E9163D
:1024F00099E0F90601F70F900F900F90CF91DF91BF
:102500001F910F91FF90EF90DF90CF900895AF92C1
:10251000BF92CF92DF92EF92FF920F931F93DF93C0
:10252000CF9300D000D0CDB7DEB70E94791D28EE42
:1025300033E040E050E00E94AA25CA01B9012FE033
:1025400030E040E050E00E94AA258091AC0586175B
:10255000D1F06093AC05653069F0663018F46623FD
:1025600031F011C06A3031F06F3069F406C082E397
:1025700090E005C08FEF90E002C08AEA90E090936F
:10258000AE058093AD0580918C16882301F58CE80B
:1025900096E10E94D723892BD1F00E94791D609388
:1025A000941670939516809396169093971688E2DA
:1025B00090E0A0E0B0E08093981690939916A093D5
:1025C0009A16B0939B168CE896E10E94E12384E969
:1025D00096E10E94DE04882309F475C060917009B9
:1025E00070917109AB01440F551F85E090E076951D
:1025F000679500E010E020E030E0EE240E941D0628
:10260000482F8CEF95E063E271E03ED78091B105F1
:102610009091B205A5E0AA2EA8E0BA2E8A9D60018D
:102620008B9DD00C9A9DD00C112489E196E3C80EA5
:10263000D91EB60180E090E023E231E040E050E0B6
:102640000E9464257C0100271127CA9CB001CB9C05
:10265000700DDA9C700D1124675E794C7093B20591
:102660006093B105D090AD0580E090E02FEF30E0B1
:1026700040E050E00E946425BC01882799276983C7
:10268000DA828FEF8B83CE010196BE016C5F7F4FA4
:102690000E947A1C3C81F701EE0FFF1FEE0DFF1D1B
:1026A000E450FA4F2081230F08F42FEF20833D815F
:1026B0002181230F08F42FEF21833E812281230FF4
:1026C00008F42FEF228381E080936F0926960FB6DE
:1026D000F894DEBF0FBECDBFCF91DF911F910F9158
:1026E000FF90EF90DF90CF90BF90AF9008958F92C2
:1026F0009F92AF92BF92CF92DF92EF92FF920F9391
:102700001F93DF93CF9300D000D0CDB7DEB70E94E8
:10271000791D28EE33E040E050E00E94AA25CA016E
:10272000B9012FE030E040E050E00E94AA258091FE
:10273000AF058617B1F06093AF05653069F066307C
:1027400018F4662331F00DC06A3041F06F3049F45F
:1027500005C01092B00505C083E001C081E0809300
:10276000B00580919C16882301F58CE996E10E94C2
:10277000D723892BD1F00E94791D6093A416709302
:10278000A5168093A6169093A71688E290E0A0E085
:10279000B0E08093A8169093A916A093AA16B093C0
:1027A000AB168CE996E10E94E12384EA96E10E944F
:1027B000DE04882309F48CC060917009709171095E
:1027C000AB01440F551F85E090E07695679500E0DA
:1027D00010E020E030E0EE240E941D06482F8CEF30
:1027E00095E063E271E050D68091B1059091B20519
:1027F00045E0842E48E0942E889D6001899DD00C90
:10280000989DD00C112489E196E3C80ED91EB6011B
:1028100080E090E023E231E040E050E00E94642557
:102820007C0100271127A090AC16B090AD16C89C73
:10283000B001C99C700DD89C700D1124675E794C55
:102840007093B2056093B10580E090E02EEF31E027
:1028500040E050E00E946425BC0188279927A60E1D
:10286000B71EB694A794B694A794A9828FEF8A83D3
:102870008B83CE010196BE016C5F7F4F0E947A1C54
:102880003C81F701EE0FFF1FEE0DFF1DE450FA4FE4
:102890002081230F08F42FEF20833D812181230F16
:1028A00008F42FEF21833E812281230F08F42FEFBC
:1028B00022832091B005332727FD30958091AC16F7
:1028C0009091AD16820F931F9093AD168093AC1626
:1028D00081E080936F0926960FB6F894DEBF0FBE95
:1028E000CDBFCF91DF911F910F91FF90EF90DF90BF
:1028F000CF90BF90AF909F908F90089520916B09DB
:1029000030916C0980916D0990916E0928173907F3
:1029100039F030936E0920936D0981E080936F093F
:102920002330310529F480916F098823E9F023CD04
:102930002130310529F480916F09882309F1CECC2B
:102940002230310529F480916F09882329F15CCA6E
:102950002A30310549F480916F09882329F080914C
:102960007209882329F1C3CE2530310549F48091BD
:102970006F09882329F080917209882329F1A2C95F
:102980002630310549F480916F09882329F0809120
:102990007209882329F1D2C82730310549F4809182
:1029A0006F09882329F080917209882329F10BCDC2
:1029B0002830310549F480916F09882329F08091EE
:1029C0007209882329F124CC2930310549F48091FA
:1029D0006F09882329F080917209882311F15DCB5A
:1029E0002B30310549F480916F09882389F080915B
:1029F00072098823B1F08BCD2C30310549F48091D8
:102A00006F09882371F080917209882351F05CCAA4
:102A10002D30310531F480916F09882311F00C9429
:102A20004A0C0895EF92FF920F931F93F8E2EF2E56
:102A3000F12C012D112D35C08091AE168823E1F4C3
:102A40008EEA96E10E94D723892BB1F00E94791D6E
:102A50006093B6167093B7168093B8169093B91614
:102A6000E092BA16F092BB160093BC161093BD16F6
:102A70008EEA96E10E94E12386EB96E10E94DE0455
:102A8000882349F0809169090E94530580EF96E1FF
:102A90006091F01651D68AE090E064E670E00E9402
:102AA000E20B9091F01680916909981729F68EE251
:102AB00099E163EB74E00E9453251F910F91FF9001
:102AC000EF900895EF92FF920F931F93AEE1EA2EDD
:102AD000F12C012D112D34C08091BE168823E1F414
:102AE0008EEB96E10E94D723892BB1F00E94791DCD
:102AF0006093C6167093C7168093C8169093C91634
:102B0000E092CA16F092CB160093CC161093CD1615
:102B10008EEB96E10E94E12386EC96E10E94DE04B2
:102B2000882341F080E00E94530580EF96E1609198
:102B3000F01602D684E690E06AE070E00E94E20BB4
:102B40008091F016882341F68EE299E165ED74E0FC
:102B50000E9453251F910F91FF90EF90089580914F
:102B60007B0990917C09419709F04FC080917E09C3
:102B7000882329F480917D09882309F446C0809137
:102B80007D09882361F0809169098B30A0F08A501B
:102B9000809369098EE299E162E172E013C080914D
:102BA0006909863040F08550809369098EE299E189
:102BB00060E272E007C085E0809369098EE299E1E6
:102BC00069E172E00E94512581E080936F098EE2F5
:102BD00099E16AEF74E00E9451258EE299E16091DB
:102BE00069094AE050E00E94D4248EE299E163E250
:102BF00075E00E9451258EE299E16091F0164AE05D
:102C000050E00E94E52410927E0980917B0990910A
:102C10007C090B9709F04FC080917E09882329F425
:102C200080917D09882309F446C080917D0988231D
:102C300061F080916909863FA0F4865F80936909FD
:102C40008EE299E168E472E013C080916909803FE7
:102C500040F48B5F809369098EE299E16FE472E042
:102C600007C08FEF809369098EE299E169E172E014
:102C70000E94512581E080936F098EE299E165E21F
:102C800075E00E9451258EE299E1609169094AE060
:102C900050E00E94D4248EE299E163E275E00E9444
:102CA00051258EE299E16091F0164AE050E00E94D1
:102CB000E52410927E09809169090C9453051F93B5
:102CC0000E94020A8091DE168823F9F48EED96E1C7
:102CD0000E94D723892BC9F00CD76093E616709316
:102CE000E7168093E8169093E91682E390E0A0E05F
:102CF000B0E08093EA169093EB16A093EC16B09395
:102D0000ED168EED96E10E94E12386EE96E10E949B
:102D1000DE04882329F180917B0990917C090A9730
:102D2000F9F480917E098823D9F080916A0911E035
:102D3000812780936A09882341F48EE299E16AE44D
:102D400075E00E945325BEDE09C08EE299E16DE672
:102D500075E00E94532566DE10936F0910927E097C
:102D60000E94620A80916A09882381F00E947B0692
:102D7000C5DDF5DE0E94020580EF96E16091F01658
:102D8000DBD48AE090E068EB7BE004C088EB9BE05A
:102D900062E070E00E94E20B1F910895EF92FF92B3
:102DA0000F931F93CF93DF93EC018B017A018091F6
:102DB000B619882309F04DC086EB99E10E94D7230C
:102DC000892B09F446C01092C1191092C0198FEFD7
:102DD0008093C4198093C5198093C6198093C7192D
:102DE0008093C8198093C91981E08093CA19109201
:102DF000CC191092CB191092C3191092C21980915C
:102E0000F7169091F816892B31F48EEB99E1909397
:102E1000F8168093F716E091F916F091FA163097AC
:102E200021F08EEB99E1958384838EEB99E1909369
:102E3000FA168093F9161092CE191092CD1982EEDF
:102E400095E09093BF198093BE1986EB99E10E949B
:102E5000E1238EEB99E1BE01A8019701DAD3DF915E
:102E6000CF911F910F91FF90EF9008950F931F93B3
:102E70008CEF95E063E271E040E050E08FDF10926C
:102E8000F01685E048EC50E060E070E0D3D50EE24B
:102E900019E1C80140E052EC61E070E00E94642159
:102EA000C8016FE875E00E94532584E260E0B7D660
:102EB00082E260E0B4D68EE160E0B1D68CE160E001
:102EC000AED68AE160E0ABD688E160E0A8D686E1C4
:102ED00060E0A5D68DE061E0A2D682E38093690927
:102EE00021E020936A0983E090E090936C0980933D
:102EF0006B0910926E0910926D0920936F098AEA8E
:102F000096EDAFEFB0E08093650990936609A093CA
:102F10006709B09368092093720984E090E0909368
:102F20007109809370091F910F9108954F925F92DC
:102F30006F927F929F92AF92BF92CF92DF92EF9269
:102F4000FF920F931F93DF93CF93CDB7DEB72E97EA
:102F50000FB6F894DEBF0FBECDBF2C013A01F901C8
:102F60001E2DDC011C969C917A8369835C834B83C4
:102F700080818B8781818C8782818D87913029F434
:102F8000CE0101960E94870306C01A86198618860C
:102F90001F821E821D8289819A81810F911D9A83D1
:102FA0008983002311F480E002C0812F8D5F8E871A
:102FB000AED5F20127853089621B730B6A3071052B
:102FC000B8F3F89459819A80A5B0F4E0AF2AC5B05F
:102FD0008BEFC822C5B8B9848E814B2D481B4E8318
:102FE000DE848B813C811C85FB84ED846D819F8117
:102FF00008857A85E981FA812181222319F0240F3D
:1030000008F42FEF219F212D1124A82FB32FE52F96
:10301000F92D30E0842F532F432F002CA5B800C08A
:1030200027FFC5B840813327889400C000C0002C1A
:10303000C5B84111460F00C0002CA5B800C026FF3E
:10304000C5B808F44FEF889400C000C000C0C5B8F0
:10305000F0FC340F00C0002CA5B800C025FFC5B897
:1030600037958894F1FC340F00C000C0002CC5B81F
:103070003795889400C0002CA5B800C024FFC5B8BF
:10308000F2FC340F3795889400C000C0002CC5B8FE
:10309000F3FC340F00C0002CA5B800C023FFC5B856
:1030A00037958894F4FC340F00C000C0002CC5B8DC
:1030B0003795889400C0002CA5B800C022FFC5B881
:1030C000F5FC340F3795889400C000C0002CC5B8BB
:1030D000F6FC340F00C0002CA5B800C021FFC5B815
:1030E00037958894F7FC340F00C000C0002CC5B899
:1030F0003795889400C0002CA5B800C020FFC5B843
:103100006195600F00C000C000C0002CC5B8232F1F
:1031100000C000C0A5B800C027FFC5B84281332752
:10312000889400C000C0002CC5B84111490F00C0F0
:10313000002CA5B800C026FFC5B808F44FEF88944E
:1031400000C000C000C0C5B8E0FC340F00C0002CB7
:10315000A5B800C025FFC5B837958894E1FC340FA9
:1031600000C000C0002CC5B83795889400C0002C62
:10317000A5B800C024FFC5B8E2FC340F3795889489
:1031800000C000C0002CC5B8E3FC340F00C0002C08
:10319000A5B800C023FFC5B837958894E4FC340F68
:1031A00000C000C0002CC5B83795889400C0002C22
:1031B000A5B800C022FFC5B8E5FC340F3795889448
:1031C00000C000C0002CC5B8E6FC340F00C0002CC5
:1031D000A5B800C021FFC5B837958894E7FC340F27
:1031E00000C000C0002CC5B83795889400C0002CE2
:1031F000A5B800C020FFC5B8ED0DF11D8894232FA0
:1032000000C000C0002CC5B89195970F00C0002CDD
:10321000A5B800C027FFC5B841813327889400C0F6
:1032200000C0002CC5B84111480F00C0002CA5B843
:1032300000C026FFC5B808F44FEF889400C000C056
:1032400000C0C5B810FD340F00C0002CA5B800C0E8
:1032500025FFC5B83795889411FD340F00C000C014
:10326000002CC5B83795889400C0002CA5B800C0C4
:1032700024FFC5B812FD340F3795889400C000C0F4
:10328000002CC5B813FD340F00C0002CA5B800C039
:1032900023FFC5B83795889414FD340F00C000C0D3
:1032A000002CC5B83795889400C0002CA5B800C084
:1032B00022FFC5B815FD340F3795889400C000C0B3
:1032C000002CC5B816FD340F00C0002CA5B800C0F6
:1032D00021FFC5B83795889417FD340F00C000C092
:1032E000002CC5B83795889400C0002CA5B800C044
:1032F00020FFC5B881958B0D232F00C000C000C0F2
:10330000C5B8119709F08ACEB301882777FD80955B
:10331000982F20EE31E040E050E00E94642504E068
:1033200096958795779567950A95D1F7E0E0F0E057
:103330009F014AE9649E212D749E200D311D1124A8
:1033400040E050E0260F371F481F591F293EA3E0D9
:103350003A07A0E04A07A0E05A0790F1285E334000
:103360004040504012E056954795379527951A955D
:10337000D1F787E0289FE12D389FE00DF11D112442
:103380008091EE16280F311D2E0F3F1F4091091717
:1033900050910A1760910B1770910C17832F992782
:1033A000A0E0B0E0840F951FA61FB71F80930917F8
:1033B00090930A17A0930B17B0930C172093EE1657
:1033C0007894A5D3F201708B67872E960FB6F89488
:1033D000DEBF0FBECDBFCF91DF911F910F91FF9048
:1033E000EF90DF90CF90BF90AF909F907F906F90C5
:1033F0005F904F900895EF92FF920F93DF93CF93DA
:1034000000D0CDB7DEB7AB0119821A821B829E01B4
:103410002F5F3F4FB90100E0EE24FF2487DD0F90BE
:103420000F900F90CF91DF910F91FF90EF90089543
:10343000EF92FF920F9301E0EE24FF2477DD0F91CE
:10344000FF90EF900895EF92FF920F9300E0EE242B
:10345000FF246CDD0F91FF90EF900895DA01FC01DD
:1034600020E030E00DC08C91808311968C911197F3
:10347000818312968C91129782832F5F3F4F3396F0
:103480002617370784F308954095FC0180E090E00B
:103490000FC02081249F212D20832181249F212D55
:1034A00021832281249F212D22831124019633968A
:1034B0008617970770F30895DF92EF92FF920F93AC
:1034C0001F93CF93DF93E82ED92EEB01F22ED80174
:1034D000242F22952F70342F3F70822F90E0FC0113
:1034E000EE0FFF1FE80FF91FE60FF71F0081118194
:1034F0007281332309F424C0AB2B11F12F3011F466
:10350000FE0101C033963295307F232F2195602F25
:10351000629F612D512F529F512D472F429F412D68
:10352000808191812281082F039F012D192F139FE4
:10353000112D722F739F712D1124060F150F740F0B
:103540002FEFF216A1F02F2D002321F0029F012D65
:1035500009F00F5F112321F0129F112D09F01F5F59
:10356000772321F0729F712D09F07F5F1124EE2DDA
:10357000FD2D0083118372838E2D9D2DDF91CF91C0
:103580001F910F91FF90EF90DF900895EF92FF92BF
:103590000F931F93CF93DF93EC014423F1F0611558
:1035A000710581F19B0140E050E060E472E48FE03E
:1035B00090E00E94CC25EB80FC800D811E81C9012A
:1035C000DA018E159F05A007B10710F4D801C701D5
:1035D0008B839C83AD83BE8315C06115710571F02B
:1035E0009B0140E050E060E472E48FE090E00E94D4
:1035F000CC252B833C834D835E8304C01B821C82BD
:103600001D821E82DF91CF911F910F91FF90EF904D
:103610000895CF92DF92EF92FF920F931F93CF9373
:10362000DF938C017B011216130624F06A01C0E0BF
:10363000D0E002C06901EA01D801ED91FC9104805B
:10364000F581E02DC8011995CE01880F991F8C0FC7
:103650009D1F8E0D9F1DF80193838283C586D6869C
:103660000190F081E02D0084F185E02DC8011995CD
:10367000BC0180EF96E141E089DFC801DF91CF9185
:103680001F910F91FF90EF90DF90CF9008958FEFF3
:103690008093F0161092F2161092F1160895EF92A0
:1036A000FF920F931F93CF93DF93EC018091FF164E
:1036B000909100170196909300178093FF16019741
:1036C0008617970794F115D29B01AC016091FF1604
:1036D0007091001788EE93E0FB01E89FB001E99F2D
:1036E000700DF89F700D1124882777FD8095982F15
:1036F000E090FB16F090FC160091FD161091FE165E
:103700002E193F09400B510B0E94AA253A832983A9
:10371000109200171092FF16ECD16093FB16709375
:10372000FC168093FD169093FE16DF91CF911F91AA
:103730000F91FF90EF9008952F923F924F925F92DA
:103740006F927F928F929F92AF92BF92CF92DF92B1
:10375000EF92FF920F931F93DF93CF93CDB7DEB716
:1037600029970FB6F894DEBF0FBECDBF5C016F8303
:10377000F50183819481A581B6810097A105B105EA
:1037800009F4A1C0C4D120910117309102174091D2
:10379000031750910417621B730B840B950BD50113
:1037A00013962D913D914D915C9116976217730779
:1037B0008407950708F087C0DBCFF801F485FE8306
:1037C000D50111968D919C9112978436910510F434
:1037D000F8011486D801ED91FC91119782819381B3
:1037E0009D838C8312964D905C9013971D962D901F
:1037F0003C901E9719821A821B829F81992399F10E
:1038000068017E010894E11CF11CD60116962C91EA
:10381000169719966C912223D9F06623C9F070E0AF
:1038200080E090E06F5F7F4F8F4F9F4F30E040E030
:1038300050E02F5F3F4F4F4F5F4F0E946425A40120
:1038400093010E946425BC0188279927F7016083B2
:103850000894C11CD11C0894E11CF11C8885998531
:10386000E816F90691F6C801B201A1019E012F5F89
:103870003F4FAC81BD81FD0119958E81F801848790
:10388000048115810115110509F097CFC50169E182
:1038900070E005DF29960FB6F894DEBF0FBECDBFEE
:1038A000CF91DF911F910F91FF90EF90DF90CF901C
:1038B000BF90AF909F908F907F906F905F904F9050
:1038C0003F902F90089523D16093011770930217B2
:1038D00080930317909304170091F7161091F81630
:1038E0009F81692E772488249924DE011496B98754
:1038F000A887C8CF1F93FC01DB01808171811281F1
:10390000482F4F71440F440F440F642F25E5629FE9
:10391000612D1124282F30E087FD24C0C901807259
:10392000907026FD0CC0892B29F4562F509580E00D
:10393000462F11C0462F4B5A80E05BEA0CC0892B02
:1039400061F4242F3AEA239F212D11245BEA521BB4
:10395000462F455580E030E02AC080E0462F409554
:10396000362F11C0C9018072907026FD13C0892BBB
:1039700061F480E0242F3AEA239F212D11244BEAA1
:10398000421B322F3B5A50E012C080E0362F309558
:10399000562F0CC0892B29F4562F5B5A80E03BEA46
:1039A00004C0562F555580E035E5361B40E07F3F7B
:1039B00009F41BC0552321F0579F512D09F05F5F7B
:1039C000442321F0479F412D09F04F5F332321F01D
:1039D000379F312D09F03F5F1124272F2095229F1B
:1039E000212D1124520F420F320F1F3F09F41AC02C
:1039F00020E0112321F0119F212D09F02F5F552385
:103A000021F0529F512D09F05F5F442321F0429F26
:103A1000412D09F04F5F332321F0329F312D09F002
:103A20003F5F11245C9311964C93119712963C932F
:103A30001F9108950F931F93082F10E020E030E0AE
:103A4000CB01BA01A90198010E9464256093B305D6
:103A50007093B4058093B5059093B6051F910F91AF
:103A600008951F920F920FB60F9211242F933F9338
:103A70008F939F93AF93BF938091091790910A17EB
:103A8000A0910B17B0910C1730910D170196A11D45
:103A9000B11D232F2D5F2D3720F02D570196A11D2D
:103AA000B11D20930D178093091790930A17A093C7
:103AB0000B17B0930C178091051790910617A091E2
:103AC0000717B09108170196A11DB11D8093051726
:103AD00090930617A0930717B0930817BF91AF9163
:103AE0009F918F913F912F910F900FBE0F901F903C
:103AF00018958FB7F8942091091730910A174091C3
:103B00000B1750910C178FBFB901CA0108959FB7C9
:103B1000F89420910517309106174091071750919E
:103B2000081786B5A89B06C08F3F21F02F5F3F4F37
:103B30004F4F5F4F9FBF542F432F322F2227280F05
:103B4000311D411D511D82E0220F331F441F551F9F
:103B50008A95D1F7B901CA010895789484B5826035
:103B600084BD84B5816084BD85B5826085BD85B521
:103B7000816085BDEEE6F0E0808181608083E1E8D0
:103B8000F0E0108280818260808380818160808308
:103B9000E0E8F0E0808181608083E1EBF0E080810B
:103BA00084608083E0EBF0E0808181608083E1E9E4
:103BB000F0E0808182608083808181608083E0E9A1
:103BC000F0E0808181608083E1EAF0E080818260C2
:103BD0008083808181608083E0EAF0E08081816081
:103BE0008083E1E2F1E08081826080838081816076
:103BF0008083E0E2F1E0808181608083EAE7F0E0A9
:103C00008081846080838081826080838081816004
:103C100080838081806880831092C1000895CF9353
:103C2000DF93482F50E0CA0184569C4FFC01349129
:103C30004A5A5C4FFA018491882369F190E0880F19
:103C4000991FFC01E85FFC4FA591B491FC01EE5D6A
:103C5000FC4FC591D491662351F42FB7F8948C9101
:103C6000932F909589238C93888189230BC0623090
:103C700061F42FB7F8948C91932F909589238C93AE
:103C80008881832B88832FBF06C09FB7F8948C91BF
:103C9000832B8C939FBFDF91CF910895893009F4D6
:103CA00049C08A30A0F4843051F1853040F482302C
:103CB00079F1833000F5813009F063C026C0873088
:103CC00079F1883098F5863009F05BC025C08D30D9
:103CD00009F442C08E3028F48B30B1F18C30C0F53D
:103CE0002DC0803109F442C0813109F445C08F30C4
:103CF00009F047C037C0809180008F7703C0809162
:103D000080008F7D80938000089584B58F7702C0F6
:103D100084B58F7D84BD08958091B0008F7703C0F6
:103D20008091B0008F7D8093B000089580919000C5
:103D30008F7707C0809190008F7D03C080919000A5
:103D4000877F8093900008958091A0008F7707C0AF
:103D50008091A0008F7D03C08091A000877F809319
:103D6000A0000895809120018F7703C080912001E9
:103D70008F7D80932001089580912001877F80931B
:103D800020010895FF920F931F93F62E482F50E0C5
:103D9000CA018E519C4FFC012491CA0184569C4F4C
:103DA000FC0114914A5A5C4FFA0104910023C1F0BE
:103DB000222311F0822F72DFE02FF0E0EE0FFF1FC1
:103DC000EE5DFC4FA591B4919FB7F894FF2021F4CC
:103DD0008C911095812302C08C91812B8C939FBF75
:103DE0001F910F91FF9008950F931F93482F50E05C
:103DF000CA018E519C4FFC012491CA0184569C4FEC
:103E0000FC0104914A5A5C4FFA011491112319F4F0
:103E100020E030E014C0222311F0822F3FDF812FF9
:103E200090E0880F991F845C9C4FFC01A591B49190
:103E30008C9120E030E0802311F021E030E0C901D6
:103E40001F910F91089508951F920F920FB60F9230
:103E50000BB60F9211242F933F934F938F939F9301
:103E6000EF93FF938091C00082FD1DC04091C6007A
:103E700020914E1730914F172F5F3F4F2F733070A7
:103E800080915017909151172817390771F0E091E0
:103E90004E17F0914F17E25FF84E408330934F1763
:103EA00020934E1702C08091C600FF91EF919F9121
:103EB0008F914F913F912F910F900BBE0F900FBE9E
:103EC0000F901F90189508951F920F920FB60F92A2
:103ED0000BB60F9211242F933F934F938F939F9381
:103EE000EF93FF938091C80082FD1DC04091CE00EA
:103EF0002091D6173091D7172F5F3F4F2F73307017
:103F00008091D8179091D9172817390771F0E0914F
:103F1000D617F091D717EA56F84E40833093D7174B
:103F20002093D61702C08091CE00FF91EF919F9110
:103F30008F914F913F912F910F900BBE0F900FBE1D
:103F40000F901F90189508951F920F920FB60F9221
:103F50000BB60F9211242F933F934F938F939F9300
:103F6000EF93FF938091D00082FD1DC04091D60059
:103F700020915E1830915F182F5F3F4F2F73307084
:103F800080916018909161182817390771F0E091BD
:103F90005E18F0915F18E25EF74E408330935F1831
:103FA00020935E1802C08091D600FF91EF919F91FF
:103FB0008F914F913F912F910F900BBE0F900FBE9D
:103FC0000F901F90189508951F920F920FB60F92A1
:103FD0000BB60F9211242F933F934F938F939F9380
:103FE000EF93FF938091300182FD1DC04091360117
:103FF0002091E6183091E7182F5F3F4F2F733070F4
:104000008091E8189091E9182817390771F0E0912C
:10401000E618F091E718EA55F74E40833093E71819
:104020002093E61802C080913601FF91EF919F9195
:104030008F914F913F912F910F900BBE0F900FBE1C
:104040000F901F901895E0913A19F0913B19E05CA0
:10405000FF4F8191919120813181821B930B8F734E
:104060009070892B09F0EFDEE0915C19F0915D19F9
:10407000E05CFF4F8191919120813181821B930BF4
:104080008F739070892B09F01EDFE0917E19F091FB
:104090007F19E05CFF4F8191919120813181821BDA
:1040A000930B8F739070892B09F04DDFE091A0196D
:1040B000F091A119E05CFF4F8191919120813181B4
:1040C000821B930B8F739070892B09F07CCF08951E
:1040D0001F920F920FB60F920BB60F9211242F93CF
:1040E0003F938F939F93EF93FF932091921730917B
:1040F000931780919417909195172817390731F4E9
:104100008091C1008F7D8093C10014C0E09194170D
:10411000F0919517EE5AF84E208180919417909166
:10412000951701968F7390709093951780939417BD
:104130002093C600FF91EF919F918F913F912F9116
:104140000F900BBE0F900FBE0F901F9018951F92EF
:104150000F920FB60F920BB60F9211242F933F932D
:104160008F939F93EF93FF9320911A1830911B1810
:1041700080911C1890911D182817390731F48091EF
:10418000C9008F7D8093C90014C0E0911C18F09184
:104190001D18E652F84E208180911C1890911D1830
:1041A00001968F73907090931D1880931C18209324
:1041B000CE00FF91EF919F918F913F912F910F90A2
:1041C0000BBE0F900FBE0F901F9018951F920F926D
:1041D0000FB60F920BB60F9211242F933F938F932C
:1041E0009F93EF93FF932091A2183091A318809191
:1041F000A4189091A5182817390731F48091D1009F
:104200008F7D8093D10014C0E091A418F091A5187F
:10421000EE59F74E20818091A4189091A51801962F
:104220008F7390709093A5188093A4182093D60054
:10423000FF91EF919F918F913F912F910F900BBE26
:104240000F900FBE0F901F9018951F920F920FB6F0
:104250000F920BB60F9211242F933F938F939F933E
:10426000EF93FF9320912A1930912B1980912C19EB
:1042700090912D192817390731F4809131018F7DE4
:104280008093310114C0E0912C19F0912D19E65161
:10429000F74E208180912C1990912D1901968F73E2
:1042A000907090932D1980932C1920933601FF91D3
:1042B000EF919F918F913F912F910F900BBE0F9097
:1042C0000FBE0F901F901895AF92BF92DF92EF92A2
:1042D000FF920F931F93CF93DF93EC017A018B0131
:1042E000DD24403081EE580780E0680780E07807E1
:1042F00011F0DD24D39491E0A92EB12CEC89FD8935
:10430000DD2069F0C50108A002C0880F991F0A943A
:10431000E2F7808360E079E08DE390E005C01082F1
:1043200060E874E88EE190E0A801970113D4215071
:10433000304040405040569547953795279580E14D
:104340002030380720F0DD2011F0DD24D7CFE889B8
:10435000F9893083EA89FB89208319A2EE89FF89D4
:10436000408121E030E0C9010C8C02C0880F991F08
:104370000A94E2F7482B4083EE89FF894081C90106
:104380000D8C02C0880F991F0A94E2F7482B4083D6
:10439000EE89FF894081C9010E8C02C0880F991FE8
:1043A0000A94E2F7482B4083EE89FF8980810F8CC5
:1043B00002C0220F331F0A94E2F72095282320839E
:1043C000DF91CF911F910F91FF90EF90DF90BF9001
:1043D000AF900895DC011C96ED91FC911D97E05C77
:1043E000FF4F2191319180819181281B390B2F73CF
:1043F0003070C9010895DC011C96ED91FC911D9768
:10440000E05CFF4F20813181E054F040DF01AE5B82
:10441000BF4F8D919C9111972817390719F42FEFF1
:104420003FEF07C08D919C91E80FF91F8081282FE5
:1044300030E0C9010895DC011C96ED91FC911D97B7
:10444000E05CFF4F20813181E054F040DF01AE5B42
:10445000BF4F8D919C9111972817390719F42FEFB1
:104460003FEF10C08D919C911197E80FF91F2081AB
:104470008D919C91119701968F73907011969C93DA
:104480008E9330E0C9010895DC0191968C9191974B
:10449000882339F05496ED91FC915597808186FFE1
:1044A000F9CF91961C920895CF93DF93EC01EE859E
:1044B000FF85E05CFF4F20813181E054F0402F5FA9
:1044C0003F4F2F733070DF01AE5BBF4F8D919C91DA
:1044D000119728173907D1F3E05CFF4F8081918154
:1044E000E054F040E80FF91F6083EE85FF85E05C43
:1044F000FF4F31832083EE89FF89208181E090E0A6
:104500000F8C02C0880F991F0A94E2F7282B208392
:1045100081E089A3EC89FD8980818064808381E0CA
:1045200090E0DF91CF9108951F931092311910926E
:10453000301928EE33E040E050E0209332193093F8
:104540003319409334195093351960EF75E0709327
:104550002F1960932E198EE097E190933B19809369
:104560003A1982E597E190933D1980933C1985ECC7
:1045700090E090933F1980933E1984EC90E09093E3
:1045800041198093401980EC90E0909343198093F7
:10459000421981EC90E0909345198093441982EC84
:1045A00090E0909347198093461986EC90E09093A1
:1045B00049198093481914E010934A19B3E0B09355
:1045C0004B19A7E0A0934C19F5E0F0934D19E1E0E9
:1045D000E0934E19109253191092521920935419C6
:1045E0003093551940935619509357197093511998
:1045F0006093501986E997E190935D1980935C1957
:104600008AED97E190935F1980935E198DEC90E0AD
:1046100090936119809360198CEC90E090936319EA
:104620008093621988EC90E09093651980936419E7
:1046300089EC90E090936719809366198AEC90E07A
:1046400090936919809368198EEC90E090936B19A0
:1046500080936A1910936C19B0936D19A0936E1919
:10466000F0936F19E09370191092751910927419E4
:1046700020937619309377194093781950937919CC
:1046800070937319609372198EE198E190937F197A
:1046900080937E1982E698E1909381198093801926
:1046A00085ED90E0909383198093821984ED90E0DA
:1046B000909385198093841980ED90E090938719E9
:1046C0008093861981ED90E09093891980938819E1
:1046D00082ED90E090938B1980938A1986ED90E09B
:1046E00090938D1980938C1910938E19B0938F1914
:1046F000A0939019F0939119E09392191092971941
:1047000010929619209398193093991940939A19F9
:1047100050939B19709395196093941986EA98E1C8
:104720009093A1198093A0198AEE98E19093A31910
:104730008093A21985E391E09093A5198093A41921
:1047400084E391E09093A7198093A61980E391E008
:104750009093A9198093A81981E391E09093AB19E4
:104760008093AA1982E391E09093AD198093AC19DC
:1047700086E391E09093AF198093AE191093B0192E
:10478000B093B119A093B219F093B319E093B4198F
:104790001F910895CF93DF93E0D90E943617C3E2AB
:1047A000D0E20E945F162097E1F34DDCFACFFC01C6
:1047B00020E030E08081882311F421E030E0C9015D
:1047C0000895FC0181E080830895CF92DF92EF92FB
:1047D000FF920F931F93CF93DF937C016B018A01AC
:1047E000C0E0D0E00FC0D6016D916D01D701ED9111
:1047F000FC910190F081E02DC7011995C80FD91FD8
:10480000015010400115110571F7CE01DF91CF91D4
:104810001F910F91FF90EF90DF90CF900895EF924E
:10482000FF920F931F938C01DC01ED91FC9101909D
:10483000F081E02D6DE019957C01D801ED91FC919E
:104840000190F081E02DC8016AE019959C012E0DC0
:104850003F1DC9011F910F91FF90EF900895CF93D5
:10486000DF93EC016115710519F420E030E00FC011
:10487000DB010D900020E9F71197A61BB70BE8812B
:10488000F9810280F381E02DAD0119959C01C901E8
:10489000DF91CF9108954F925F927F928F929F9276
:1048A000AF92BF92CF92DF92EF92FF920F931F933E
:1048B000DF93CF93CDB7DEB7A1970FB6F894DEBFE5
:1048C0000FBECDBF2C01742ECB01223008F42AE09C
:1048D00019A231E2C32ED12CCC0EDD1E822E9924DA
:1048E000AA24BB24672D752FA501940133D179012A
:1048F0008A01C801B701A5019401E6D0472D461BE6
:104900000894C108D1084A3014F4405D01C0495CE4
:10491000F6014083E114F1040105110521F07E2C1C
:104920005F2DC801DFCFC201B60199DFA1960FB696
:10493000F894DEBF0FBECDBFCF91DF911F910F91D5
:10494000FF90EF90DF90CF90BF90AF909F908F90AF
:104950007F905F904F900895DC012115310541F45F
:10496000ED91FC910190F081E02D642F199508954F
:1049700092CFCF92DF92EF92FF920F931F936C0131
:104980007B019A0100E010E0B801A701E5DF8C018E
:10499000C60145DF080F191FC8011F910F91FF9035
:1049A000EF90DF90CF900895EF92FF920F931F93B7
:1049B0009A01E62EFF2400E010E0B801A701CCDF49
:1049C0001F910F91FF90EF900895CF92DF92EF9299
:1049D000FF920F931F936C01E62E9A01FF2400E0D3
:1049E00010E0B801A701B8DF8C01C60118DF080F7D
:1049F000191FC8011F910F91FF90EF90DF90CF908A
:104A00000895CF92DF92EF92FF920F931F93CF936F
:104A1000DF93EC016A017B012115310541F4E88146
:104A2000F9810190F081E02D642F19951DC02A3085
:104A30003105C9F477FF16C0E881F9810190F08152
:104A4000E02D6DE219958C0144275527BA014C19C8
:104A50005D096E097F09CE012AE01DDF9801280F4C
:104A6000391F03C02AE017DF9C01C901DF91CF91F4
:104A70001F910F91FF90EF90DF90CF900895EF92EC
:104A8000FF920F931F937C01BCDF8C01C701C7DE2F
:104A90009C01200F311FC9011F910F91FF90EF90D2
:104AA0000895DDCE0895EF92FF920F931F937C013E
:104AB000D6DE8C01C701B3DE080F191FC8011F9194
:104AC0000F91FF90EF900895629FD001739FF001C6
:104AD000829FE00DF11D649FE00DF11D929FF00D8E
:104AE000839FF00D749FF00D659FF00D9927729FC5
:104AF000B00DE11DF91F639FB00DE11DF91FBD0150
:104B0000CF0111240895AA1BBB1B51E107C0AA1FA6
:104B1000BB1FA617B70710F0A61BB70B881F991F5E
:104B20005A95A9F780959095BC01CD01089597FB02
:104B3000092E07260AD077FD04D0E5DF06D0002035
:104B40001AF4709561957F4F0895F6F790958195C9
:104B50009F4F0895A1E21A2EAA1BBB1BFD010DC099
:104B6000AA1FBB1FEE1FFF1FA217B307E407F5071D
:104B700020F0A21BB30BE40BF50B661F771F881FF9
:104B8000991F1A9469F760957095809590959B018F
:104B9000AC01BD01CF01089597FB092E05260ED06B
:104BA00057FD04D0D7DF0AD0001C38F4509540954B
:104BB000309521953F4F4F4F5F4F0895F6F79095F1
:104BC0008095709561957F4F8F4F9F4F0895EE0FA1
:0E4BD000FF1F0590F491E02D1994F894FFCF8B
:104BDE00536574436F6C6F7254656D7020746F3AC9
:104BEE0020002D2D2D2D2020006F6F202020200045
:104BFE002D2D2020202000466F7277617264426155
:104C0E00636B776172644D61696E207C2064656CA4
:104C1E00617920746F3A20002B2B2B2B2020002B38
:104C2E002B202020200052656164696E67206E651E
:104C3E00772076616C7565732066726F6D206F7468
:104C4E006865722041726475696E6F004D6F6465A0
:104C5E0053656C656374696F6E5475726E4F6E201A
:104C6E007C205475726E6564206F6E204C454473C3
:104C7E00004D6F646553656C656374696F6E4D614D
:104C8E00696E207C204368616E67656420746F20B6
:104C9E0057686974654C656674004D6F646553653D
:104CAE006C656374696F6E4D61696E207C2043681C
:104CBE00616E67656420746F205768697465526908
:104CCE00676874004D6F646553656C656374696FD6
:104CDE006E4D61696E207C204368616E676564204D
:104CEE00746F205768697465416C6C004D6F646514
:104CFE0053656C656374696F6E4D61696E207C20BF
:104D0E004368616E67656420746F20436F6C6F72C9
:104D1E0050616C42656174004D6F646553656C65DE
:104D2E006374696F6E4D61696E207C204368616E9D
:104D3E0067656420746F205261696E626F77426599
:104D4E006174004D6F646553656C656374696F6E55
:104D5E004D61696E207C204368616E6765642074C6
:104D6E006F205261696E626F774D61726368004D9C
:104D7E006F646553656C656374696F6E4D61696EC2
:104D8E00207C204368616E67656420746F204865DF
:104D9E006174004D6F646553656C656374696F6E05
:104DAE004D61696E207C204368616E676564207476
:104DBE006F2052474246616465004D6F64655365CE
:104DCE006C656374696F6E4D61696E207C204368FB
:104DDE00616E67656420746F2046616465004D6F77
:104DEE00646553656C656374696F6E4D61696E20A1
:104DFE007C204368616E67656420746F2053747203
:104E0E006F6265004D6F646553656C656374696FA1
:104E1E006E4D61696E207C204368616E676564200B
:104E2E00746F20436F6C6F7266756C6C20436F6E7F
:104E3E006665747469004D6F646553656C65637463
:104E4E00696F6E4D61696E207C204368616E676587
:104E5E006420746F20436F6E6665747469004D6FC5
:104E6E00646553656C656374696F6E4D61696E2020
:104E7E007C204368616E67656420746F204E69679D
:104E8E006874004272696768746E657373547572E4
:104E9E006E4F6E207C20506F7765726564206F6E4A
:104EAE00206E6F77004272696768746E6573735413
:104EBE0075726E4F6666207C20506F7765726564E2
:104ECE0020646F776E206E6F770042726967687428
:104EDE006E6573734D61696E207C20446F776E2012
:104EEE005B536574706F696E7420204163747561D5
:104EFE006C5D0020004272696768746E6573734D55
:104F0E0061696E207C20557020536574706F696ED8
:104F1E0074202041637475616C00506F7765722048
:104F2E00627574746F6E2070726573736564202D74
:104F3E00205475726E696E67206F666600506F77CB
:104F4E00657220627574746F6E207072657373650E
:104F5E0064202D205475726E696E67206F6E00533B
:104F6E00746172746564202D2057616974696E676F
:104F7E00202D2056312E3000F401F40163FF006322
:104F8E00033905D007000000003100F9183000FB8E
:104F9E00302C001C472600825A1F006D6A170041F4
:104FAE00760E00897D04003131295A1B750A0000E6
:104FBE000000231A181A8203FB1984030000000054
:0C4FCE005422E523EA211B22FB2144228F
:00000001FF
