:1000000014C1000043C1000041C100003FC1000015
:100010003DC100003BC1000039C1000037C10000F4
:1000200035C1000033C1000031C100002FC1000004
:100030002DC100002BC1000029C1000027C1000014
:1000400025C1000023C1000021C100001FC1000024
:100050001DC100001BC1000019C100000C941B143D
:1000600015C100000C94FA120C94D1120FC10000BB
:100070000DC100000BC1000009C1000007C1000054
:1000800005C1000003C1000001C10000FFC0000065
:10009000FDC00000FBC00000F9C00000F7C0000078
:1000A000F5C00000F3C00000F1C00000EFC0000088
:1000B000EDC00000EBC00000E9C00000E7C0000098
:1000C000E5C00000E3C00000E1C00000DFC00000A8
:1000D000DDC00000DBC00000D9C00000D7C00000B8
:1000E000D5C000004B134E133D1341134713851326
:1000F000521356135C13601364136A136E13721356
:10010000851378137C13801300002200250028003B
:100110002B002E003100340002010000050108010F
:100120000B0100002100240027002A002D003000D0
:10013000330001010000040107010A010000200052
:100140002300260029002C002F00320000010000AF
:10015000030106010901050505050705080808084A
:10016000020202020A0A080804040404010101014F
:10017000010101010303030303030303040707074A
:100180000C0C0C0C0C0C0C0C0202020206060606EF
:10019000060606060B0B0B0B0B0B0B0B01021020BC
:1001A00020080810204010204080020102010804AD
:1001B0000201010204081020408080402010080441
:1001C000020180040201804020100804020108049A
:1001D00002010102040810204080010204081020DE
:1001E000408000000A0B02090C0D0E0807030401F1
:1001F00000000000000000000000000000000000FF
:1002000000000000000000000000000000001211CB
:1002100010000000000000000000000000000000CE
:100220000000000000000000BD2611241FBECFEF1B
:10023000D1E2DEBFCDBF00E00CBF13E0A0E0B2E032
:10024000EAEBF0E500E00BBF02C007900D92AE397B
:10025000B107D9F72EE0AEE9B3E001C01D92A43892
:10026000B207E1F711E0C5E1D1E000E006C0219757
:100270000109802FFE010E944928C431D10780E086
:100280000807A9F70E9412170C945B28B9CE80E9E1
:1002900091E00895389A0895DC01ED91FC91028C6B
:1002A000F38DE02D199480E090E00895FC018585A0
:1002B00096850895CF93DF9300D000D0CDB7DEB7F9
:1002C000AB011C821D821E82DC01ED91FC9101902C
:1002D000F081E02D19821A821B829E012F5F3F4F11
:1002E000BE016C5F7F4F199526960FB6F894DEBF5E
:1002F0000FBECDBFDF91CF9108954F925F926F9265
:100300007F928F92AF92BF92CF92EF92FF920F9314
:100310001F93CF93DF933C01EB010E94EA13F3019B
:1003200027853089621B730B6A307105B0F3F8942E
:10033000E881F98158B1516088B18E7F88B96A85AA
:100340009F81262F291B922F2F83BF844A805B8099
:100350007D85FC84EE847F5FF394E3943E81488541
:10036000A984CB841181D20120E0C32F022F322F28
:100370003181112788943111390F08F43FEF91959D
:10038000889470FD130F1795889471FD130F1795BE
:10039000889472FD130F1795889473FD130F1795AA
:1003A000889474FD130F1795889475FD130F179596
:1003B000889476FD130F1795889477FD130F179582
:1003C0008894232F7111212F960F122F002C58B9CA
:1003D00000C017FF88B930812227889400C000C070
:1003E000002C88B931113C0F00C0002C58B900C056
:1003F00016FF88B908F43FEFC195889400C000C08B
:10040000002C88B9F0FC230F00C0002C58B900C0A4
:1004100015FF88B927958894F1FC230F00C000C010
:10042000002C88B92795889400C0002C58B900C0CA
:1004300014FF88B9F2FC230F2795889400C000C0F0
:10044000002C88B9F3FC230F00C0002C58B900C061
:1004500013FF88B927958894F4FC230F00C000C0CF
:10046000002C88B92795889400C0002C58B900C08A
:1004700012FF88B9F5FC230F2795889400C000C0AF
:10048000002C88B9F6FC230F00C0002C58B900C01E
:1004900011FF88B927958894F7FC230F00C000C08E
:1004A000002C88B92795889400C0002C58B900C04A
:1004B00010FF88B9132FF110122FCA0D00C000C011
:1004C000002C88B900C000C0002C58B900C017FF2C
:1004D00088B932812227889400C000C0002C88B9D6
:1004E0003111340F00C0002C58B900C016FF88B974
:1004F00008F43FEFEB0DF11D00C000C0002C88B9DF
:10050000E0FC230F00C0002C58B900C015FF88B9CB
:1005100027958894E1FC230F00C000C0002C88B907
:100520002795889400C0002C58B900C014FF88B9E2
:10053000E2FC230F2795889400C000C0002C88B9E6
:10054000E3FC230F00C0002C58B900C013FF88B98A
:1005500027958894E4FC230F00C000C0002C88B9C4
:100560002795889400C0002C58B900C012FF88B9A4
:10057000E5FC230F2795889400C000C0002C88B9A3
:10058000E6FC230F00C0002C58B900C011FF88B949
:1005900027958894E7FC230F00C000C0002C88B981
:1005A0002795889400C0002C58B900C010FF88B966
:1005B000132FE110122F419500C000C0002C88B904
:1005C0004C0D00C000C058B900C017FF88B9318178
:1005D0002227889400C000C0002C88B93111390F3F
:1005E00000C0002C58B900C016FF88B908F43FEFCE
:1005F0009195889400C000C0002C88B970FD230F2D
:1006000000C0002C58B900C015FF88B92795889400
:1006100071FD230F00C000C0002C88B92795889475
:1006200000C0002C58B900C014FF88B972FD230F18
:100630002795889400C000C0002C88B973FD230F53
:1006400000C0002C58B900C013FF88B927958894C2
:1006500074FD230F00C000C0002C88B92795889432
:1006600000C0002C58B900C012FF88B975FD230FD7
:100670002795889400C000C0002C88B976FD230F10
:1006800000C0002C58B900C011FF88B92795889484
:1006900077FD230F00C000C0002C88B927958894EF
:1006A00000C0002C58B900C010FF88B9132F711179
:1006B000122F960F00C000C0002C88B9119709F0C6
:1006C00086CE20EE31E0D2010E945128DC01CB0120
:1006D000F4E0B695A79597958795FA95D1F720E020
:1006E00030E0A9016AE9469E412D569E400D511DFC
:1006F0001124840F951FA11DB11D893E43E094076D
:10070000A105B10588F1885E9340A109B10942E0D5
:10071000B695A795979587954A95D1F747E0849F19
:10072000212D949F200D311D11246091130970E03B
:10073000860F971F820F931F4091700E5091710E7C
:100740006091720E7091730E292F3327420F531F41
:10075000611D711D4093700E5093710E6093720E67
:100760007093730E8093130978940E94EA13F30137
:10077000708B6787DF91CF911F910F91FF90EF9062
:10078000CF90BF90AF908F907F906F905F904F9081
:1007900008950F931F93CF93DF93CDB7DEB7629782
:1007A0000FB6F894DEBF0FBECDBF8C01F901DC019E
:1007B0001C968C917A8369835C834B835E834D8323
:1007C00090819D8791819E8792819F87813029F4B6
:1007D000CE0101960E949A1606C01C861B861A86B8
:1007E000198618861F8283E0888B1A8A198AD80195
:1007F000ED91FC910484F585E02DBE016F5F7F4F84
:10080000C801199562960FB6F894DEBF0FBECDBF32
:10081000DF91CF911F910F9108950F931F93CF9365
:10082000DF93CDB7DEB762970FB6F894DEBF0FBE89
:10083000CDBF8C01F901DC011C968C917A83698310
:100840005C834B835E834D8390819D8791819E87DE
:1008500092819F87813029F4CE0101960E949A16D9
:1008600006C01C861B861A86198618861F82188A5F
:100870001A8A198AD801ED91FC910484F585E02D3E
:10088000BE016F5F7F4FC801199562960FB6F8944D
:10089000DEBF0FBECDBFDF91CF911F910F910895A5
:1008A00081E08093400D8091430D9091440D909391
:1008B000420D8093410D0895CF92DF92EF92FF9207
:1008C0000F931F93CF93DF938C01EB0180918D0CDD
:1008D000811104C080918E0C882321F0C2E3D0E006
:1008E00002E310E00E940F14C090FC08D090FD08B5
:1008F000E090FE08F090FF08AB01BC014C195D09C7
:100900006E097F09C801A0E0B0E084179507A6072B
:10091000B70720F48091FB088823B1F00E940F14E0
:10092000AB01BC014C195D096E097F09CE01A0E045
:10093000B0E084179507A607B70708F038C0809184
:10094000FB08882309F433C00E940F146093FC084D
:100950007093FD088093FE089093FF081091FB08A8
:1009600081E018271093FB08EFEEF1E08491E9EAAB
:10097000F1E0D491E3E6F1E0C491CC23C1F0811120
:100980000E943013EC2FF0E0EE0FFF1FE85FFE4FE8
:10099000A591B4918FB7F894111105C09C91ED2FDA
:1009A000E095E92302C0EC91ED2BEC938FBFDF9132
:1009B000CF911F910F91FF90EF90DF90CF9008950E
:1009C000AF92BF92CF92DF92EF92FF920F931F935D
:1009D000CF93DF931F92CDB7DEB7A0909E03B09068
:1009E0009F03750188EBE80EF11CC701FBD3882338
:1009F00049F18FE8C82E8CE0D82E85010F5F1F4F7C
:100A0000809112029091130280179107BCF483EE3B
:100A100092E0D7D380E0F60161916F01861749F02B
:100A2000C8016983DFD36981882319F0C5010E9459
:100A3000A22758010E151F0501F704C0C5010E9429
:100A40009A27E9CF0F90DF91CF911F910F91FF90DF
:100A5000EF90DF90CF90BF90AF900895FC01DB0145
:100A60003C912081230F08F42FEF208311963C91B5
:100A700011972181230F08F42FEF218312963C91C7
:100A80002281230F08F42FEF22830895CF92DF9263
:100A9000EF92FF921F93CF93DF93EC010E940F140C
:100AA000C880D980EA80FB80DC01CB018C199D09CC
:100AB000AE09BF0911E0CC80DD80EE80FF808C158F
:100AC0009D05AE05BF0510F410E003C0CE010E94E5
:100AD0008F16812FDF91CF911F91FF90EF90DF90C4
:100AE000CF9008950F931F93CF93DF9300D000D042
:100AF000CDB7DEB789E693E0E4E2F9E0A0EAB3E03F
:100B000001900D920197E1F78091380D9091390D88
:100B1000892B99F41C821D821E82BE016F5F7F4F5C
:100B2000CE0104960E946514AE014F5F5F4F66EBE5
:100B300070E087EE94E00E940B158091380D909143
:100B4000390D019799F41C821D821E82BE016F5FD0
:100B50007F4FCE0104960E946514AE014F5F5F4F38
:100B600064EC70E080EA93E00E940B158091380DF0
:100B70009091390D039751F080918D0C882331F1BC
:100B800089E18093120910928D0C20C000913E0DD6
:100B900010E0E2EAF3E020E030E0233281E03807C1
:100BA00081F0C901B8010E942228892B31F0DF01B0
:100BB00012971C9211961C9210822F5F3F4F339612
:100BC000ECCF3093010920930009D6CF8091120910
:100BD000882309F470C080918E0C882391F11982CA
:100BE00090E89A831B821AE0612F0E941628682FD2
:100BF00070E0AE014F5F5F4F80EA93E00E940B15FB
:100C000019821A821B8280918E0C612F0E941628F5
:100C100090E069E170E0681B790B9C01220F331FA3
:100C2000820F931FAE014F5F5F4F80569C4F0E9413
:100C30000B158FEF8093EB031092EC031092ED03F2
:100C40000EC01092A30380E88093A4031092A50322
:100C50008FEF8093A6031092A7031092A8038FEF43
:100C60008093A0031092A1031092A20380910A091D
:100C7000811113C082E099E00E948F1684E690E013
:100C8000A0E0B0E08093060990930709A0930809BB
:100C9000B093090981E080930A0982E099E0F6DEC9
:100CA000882349F0809112098150809312098111A3
:100CB00002C010928E0C8091EA0DB9D226960FB622
:100CC000F894DEBF0FBECDBFDF91CF911F910F9182
:100CD0000895CF93C82F8091F308811113C08BEE34
:100CE00098E00E948F1684E190E0A0E0B0E080934D
:100CF000EF089093F008A093F108B093F20881E018
:100D00008093F3088BEE98E0C1DE8823A1F1409137
:100D1000EA0D242F30E02C1B3109C9010A964597B2
:100D200010F092E001C091E0B9016C5E7F4F693232
:100D3000710508F094E0B901625E7F4F6D33710573
:100D400008F098E0B901685D7F4F6135710508F0E2
:100D500090E12A5B3F4F2D38310508F090E24C17A7
:100D600018F4490F4093EA0D2091EA0DC21718F4C8
:100D7000291B2093EA0DCF910895409110025091C4
:100D8000110225E038E0429FD001439FB00D529FF1
:100D9000B00D1124A75EB94CB0931102A0931002BC
:100DA0009C010C94F82708956115710579F0FB01F9
:100DB00001900020E9F73197AF01461B570BDC018A
:100DC000ED91FC910280F381E02D199480E090E098
:100DD0000895CF92DF92EF92FF9267E573E08DE482
:100DE0009DE0E2DFC090410DD090420D0D2C000C33
:100DF000EE08FF08F7FE14C0E0914D0DF0914E0D86
:100E00000190F081E02D6DE28DE49DE0199544277D
:100E10005527BA014C195D096E097F092AE003C004
:100E20002AE0B701A6018DE49DE025D566E273E0D6
:100E30008DE49DE0B9DF8091410D9091420D8B30A2
:100E4000910531F42BE0E5E3FDE0A0E9BCE008C04A
:100E50008430910551F42BE0E5E3FDE0A6EABCE027
:100E600001900D922A95E1F727C08330910551F446
:100E70002BE0E5E3FDE0ABE9BCE001900D922A95A3
:100E8000E1F727C08530910551F42BE0E5E3FDE063
:100E9000A1EBBCE001900D922A95E1F727C08630C6
:100EA000910551F42BE0E5E3FDE0ACEBBCE00190F3
:100EB0000D922A95E1F734C08730910551F42BE06B
:100EC000E5E3FDE0A7ECBCE001900D922A95E1F787
:100ED00034C08830910551F42BE0E5E3FDE0ADED41
:100EE000BCE001900D922A95E1F730C08930910560
:100EF00051F42BE0E5E3FDE0A8EEBCE001900D929B
:100F00002A95E1F72CC08A30910551F42BE0E5E3F6
:100F1000FDE0A3EFBCE001900D922A95E1F728C017
:100F20008130910551F42BE0E5E3FDE0A2EDBCE05A
:100F300001900D922A95E1F724C08230910531F499
:100F40008BE0E5E3FDE0A4E1BDE022C08C3091053B
:100F500031F48BE0E5E3FDE0AEEFBCE019C08D308D
:100F6000910531F48BE0E5E3FDE0A9E0BDE010C0C0
:100F70008E30910531F48BE0E5E3FDE0AFE1BDE0BB
:100F800007C00F9749F48BE0E5E3FDE0AAE2BDE07E
:100F900001900D928A95E1F7FF90EF90DF90CF904E
:100FA0000895FC01918D828D981761F0828DDF018B
:100FB000A80FB11D5D968C91928D9F5F9F73928F4C
:100FC00090E008958FEF9FEF0895FC01918D828D41
:100FD000981731F0828DE80FF11D858D90E008950E
:100FE0008FEF9FEF0895FC01918D228D892F90E066
:100FF000805C9F4F821B91098F739927089580E031
:1010000090E0892B21F00E94C512811125C080E05B
:1010100090E0892B41F080E090E0892B21F00E9444
:10102000000081111CC080E090E0892B41F080E03D
:1010300090E0892B21F00E940000811113C080E014
:1010400090E0892BA1F080E090E0892B81F00E9454
:10105000000081110AC008950E940000D8CF0E94AC
:101060000000E1CF0E940000EACF0C940000089538
:101070000F931F93CF93DF938C01C62FD42F8F3FF5
:10108000910509F010F4102F00270E940F149B0106
:10109000AC01A8E1B1E00E94CC279B01AC01D801D2
:1010A0000E94CC27292F96FD2095E22FEF732F70F9
:1010B00096FD2F5FE695E695E695E670F0E0EB5A33
:1010C000FD4F3181329F202D312D112422952F701B
:1010D0003295307F232B3081230F97FD21953D2FB3
:1010E0003C1B2058239F020E20E0211D1124822F3B
:1010F0008C0FDF91CF911F910F910895EF92FF9286
:101100000F931F93CF93DF937C018B01EA018FEF45
:10111000E816F10409F010F4FE2CEE240E940F14DE
:101120009B01AC01A8E1B1E00E94CC279B01AC017E
:10113000D7010E94CC27AC01662777279A013F731D
:10114000369527953695279536952795CA01882790
:101150009074892B31F08FEF97E0FC01E21BF30BC9
:101160009F01E32FEE0FEE0FF0E0EA5CFD4F808170
:10117000918132812695329F800D911D112457FF58
:1011800003C0919581959109FC01F058C01BD10BCA
:10119000EC9FA001FD9FB001CB01BA0120E0FC9FB4
:1011A000700D811D921FED9F700D811D921F1124E6
:1011B000800F911FDF91CF911F910F91FF90EF90C2
:1011C0000895CF93DF93BC018DE49DE0EDDDEC014C
:1011D00066E273E08DE49DE0E7DD8C0F9D1FDF91FB
:1011E000CF9108952091110E3091120E2F5F3F4F35
:1011F0003093120E2093110E4091F70D5091F80D7F
:101200004115510519F0421753071CF48CE793E080
:1012100009C02091120230911302281739072CF4CB
:1012200083EE92E0CEDF80E0089581E008953F9262
:101230004F925F926F927F928F929F92AF92BF92E6
:10124000CF92DF92EF92FF920F931F93CF93DF9392
:1012500000D0CDB7DEB7F82E8091ED0D9091EE0D58
:10126000A091EF0DB091F00D892B8A2B8B2BE9F01B
:101270000E94EA1300910D0E10910E0E20910F0E98
:101280003091100EDC01CB01801B910BA20BB30B34
:101290000091ED0D1091EE0D2091EF0D3091F00DBC
:1012A00080179107A207B307B8F20E94EA13609370
:1012B0000D0E70930E0E80930F0E9093100EE09112
:1012C000F50DF091F60D309759F04091F10D5091D8
:1012D000F20D6091F30D7091F40D8F2D1995F82E8C
:1012E00000914B0D10914C0D4F2C512C612C712CF9
:1012F0000115110509F461C0D8011C96EC901C97EA
:101300008091EB0D9091EC0D8436910510F41C96B4
:101310001C92D801ED91FC91A280B38019821A82AF
:101320001B82F11014C0F8014585568562817381D6
:101330009E012F5F3F4FC801F5011995D8011C96FA
:10134000EC921C9714960D911C911597D1CFF80132
:101350003996CE0101966C0148019CE0890E911CE2
:10136000DF0113973C902191332001F12223F1F00A
:10137000822F90E0A0E0B0E09C01AD012F5F3F4FD5
:101380004F4F5F4FC301B2010E9407289B01AC0180
:10139000832D90E0A0E0B0E0BC01CD016F5F7F4FF6
:1013A0008F4F9F4F0E940728D6018C93BFEFCB1A17
:1013B000DB0AE815F905A1F6B6CF80910B0E9091E6
:1013C0000C0E8C010F5F1F4F10930C0E00930B0E31
:1013D00049979CF10E940F144B015C0188EE93E049
:1013E000089FB001099F700D189F700D1124072EE2
:1013F000000C880B990BC090070ED090080EE0905F
:10140000090EF0900A0EA50194012C193D094E0910
:101410005F090E94D6273093EC0D2093EB0D1092BC
:101420000C0E10920B0E0E940F146093070E709317
:10143000080E8093090E90930A0E0F900F900F9054
:10144000DF91CF911F910F91FF90EF90DF90CF90A0
:10145000BF90AF909F908F907F906F905F904F90D4
:101460003F900895CF92EF920F93CF93DF93362F53
:10147000FA01C091470DD091480D90E0C817D907E7
:1014800091F580914A0D9091490D811102C09923E7
:1014900051F18081422F50E0682F70E0992349F08C
:1014A0004C0D511D4617570714F48C1908C02083A2
:1014B00007C04E0D511D46175707CCF78E19808374
:1014C00081E08093450D80938D0C602F70E08FEF4D
:1014D00090E00E9436288081869F602D11246093C1
:1014E0008E0C10924A0D632F70E0C617D70791F546
:1014F00080914A0D9091490D811102C0992351F1BB
:101500008081602F70E0282F30E0AB01992351F0EB
:101510004C195109241735071CF4C80EC08209C0A4
:10152000008307C04E19510924173507CCF7E80E80
:10153000E08281E08093450D80938D0C8FEF90E0E9
:101540000E9436288081869F602D112460938E0C26
:1015500010924A0DDF91CF910F91EF90CF900895A7
:10156000CF93DF93382FE4E2F9E0A6E2B9E02081DF
:10157000239F020E20E0211D2083ED012A91239F4D
:10158000020E20E0211D28832C91239F020E20E0D3
:10159000211D2C931124339613968CE0ED38F80717
:1015A00031F7DF91CF9108954F925F926F927F92C2
:1015B0008F929F92AF92BF92CF92DF92EF92FF9263
:1015C0000F931F93CF93DF9300D0CDB7DEB7DC012D
:1015D000FB01908141810C911196EC91119712962B
:1015E0002C91411101C0902F222311F0E11101C073
:1015F000092FF0E030E0901B50E8959FC0011124C6
:1016000052E2E52EFF24F394B7010E9436285B01D5
:10161000842F90E08E1B9F0B9695982F8827979587
:101620008795B7010E9436286B018FEF90E0821BEF
:10163000930B9695982F882797958795B7010E94C9
:101640003628AA0CBB1CCC0CDD1C7B01EE0CFF1C4D
:1016500010E0102F00277E2E6624922E882454E25C
:10166000452E59E0552E19837A829B82B201CE0114
:1016700001960E9465140A0D1B1D6C0C7D1C8E0CBE
:101680009F1C83E0480E511CEDE84E16ECE05E0610
:1016900051F70F900F900F90DF91CF911F910F9105
:1016A000FF90EF90DF90CF90BF90AF909F908F9082
:1016B0007F906F905F904F900895CF93C82F462FE3
:1016C00061E070E00E94181661E070E08C2F0E94CB
:1016D0003B168111F9CFCF910895AF92BF92CF926F
:1016E000DF92EF92FF920F931F93CF93DF931F929E
:1016F0001F92CDB7DEB77A836983BA01A901E98168
:10170000FA81F770082F10E0000F111F045E164FCA
:10171000D8018D919C918E0F9F1F2E0F3F1F21305E
:10172000384098F07A015B0120E038E06901CE1A78
:10173000DF0AA6010E945815A7014C195D09B501E1
:101740006C0D7D1DF801808191810F900F90DF91CC
:10175000CF911F910F91FF90EF90DF90CF90BF90AE
:10176000AF900C945815FC01848DDF01A80FB11DBA
:10177000A35ABF4F2C91848D90E001968F739927C7
:10178000848FA689B7892C93A089B1898C918064B4
:101790008C93938D848D981306C00288F389E02D75
:1017A00080818F7D80830895EF92FF920F931F9326
:1017B000CF93DF93EC0181E0888F9B8D8C8D981304
:1017C00005C0E889F989808185FD23C0F62E0B8D3F
:1017D00010E00F5F1F4F0F731127E02E8C8DE81262
:1017E0000BC00FB607FCFACFE889F989808185FF25
:1017F000F5CFCE01B8DFF2CF8B8DFE01E80FF11DE2
:10180000E35AFF4FF0820B8FEA89FB898081806267
:1018100007C0EE89FF896083E889F9898081806447
:10182000808381E090E0DF91CF911F910F91FF9035
:10183000EF900895CF93DF93EC01888D8823C1F05A
:10184000EA89FB89808185FD05C0A889B9898C91C9
:1018500086FD0EC00FB607FCF5CF808185FFF2CF65
:10186000A889B9898C9185FFEDCFCE017CDFE8CFC7
:10187000DF91CF9108954F925F926F927F92EF9296
:10188000FF920F931F93CF93DF93CDB7DEB7A1974E
:101890000FB6F894DEBF0FBECDBF7C01FA01CB01BD
:1018A00019A2223008F42AE08E010F5D1F4F422E4C
:1018B000512C612C712CBF01A30192010E94D627EB
:1018C000F901CA01015011096A3014F4605D01C0C8
:1018D000695CD8016C93232B242B252B61F7B8016D
:1018E000C70162DAA1960FB6F894DEBF0FBECDBF76
:1018F000DF91CF911F910F91FF90EF907F906F90AC
:101900005F904F900895CF93DF931F92CDB7DEB7CE
:101910006983DC01ED91FC910280F381E02D41E0CF
:1019200050E0BE016F5F7F4F19950F90DF91CF910F
:1019300008957F928F929F92AF92BF92CF92DF9243
:10194000EF92FF920F931F93CF93DF935C014B01B4
:101950006A01FC0106891789708C80E590E00E947D
:101960005C16C0E0D0E0872D0E943B157C01892BDE
:1019700021F0872D0E943B15EC01CE15DF0599F76C
:10198000CC15DD0578F4C0E0D0E0872D0E943B1532
:101990006C01892B21F0872D0E943B15EC01CC15A1
:1019A000DD0599F764E270E0872D0E943B16E82E72
:1019B000F12C65E270E0872D0E943B16FE2CEE2490
:1019C000E82AE701C00FD11F9E013770E72CF12CE8
:1019D000C701880F991FAC014C5E564F7A01FA017E
:1019E00080819181820F931FA9014C0D5D1D4130B3
:1019F000584090F000E018E0021B130BA801B4015E
:101A00000E948215A601401B510BB401600F711F8B
:101A1000F7018081918102C0A601B4010E94821564
:101A2000CC0DDD1D4D2F64E270E0872D0E9418164D
:101A30004C2F65E270E0872D0E9418160E945B16FD
:101A4000F501868997898C0D9D1D978B868BC60124
:101A5000DF91CF911F910F91FF90EF90DF90CF908A
:101A6000BF90AF909F908F907F900895EF92FF92DC
:101A70001F93CF93DF93EB017A01FC01178A168A3B
:101A8000108D8A81811109C08B81811106C08C81E2
:101A9000811103C08D81882329F1E114F10411F132
:101AA00080E590E00E945C16BE016E5F7F4F812F43
:101AB00090E0982F882744E050E0845F9B4F0E947D
:101AC00082154F2D60E170E0812F0E9418164E2D77
:101AD00061E170E0812F0E9418160E945B1681E080
:101AE00090E002C080E090E0DF91CF911F91FF90E5
:101AF000EF900895CF93FC01C08D80E590E00E94A7
:101B00005C1660E270E08C2FD8DD62E070E08C2F14
:101B10000E943B1684FD19C062E070E08C2F0E9489
:101B20003B1683FF0BC048E162E070E08C2F0E94FF
:101B300018160E945B1680E090E011C00E945B16B0
:101B400080E590E00E945C16E0CF40E162E070E04A
:101B50008C2F0E9418160E945B1681E090E0CF91B6
:101B600008952F923F924F925F926F927F928F9241
:101B70009F92AF92BF92CF92DF92EF92FF920F931C
:101B80001F93CF93DF93CDB7DEB7C254D1090FB601
:101B9000F894DEBF0FBECDBF1C018B014A0185ED5D
:101BA00092E09A8389831C861B8648EE53E060E0AE
:101BB00070E04D875E876F87788B2FEA32E03A8737
:101BC0002987988F8F8B198E1A8E1B8E1C8E24E07E
:101BD00029A399AB88AB1AAA1BAA1CAA1DAA80919B
:101BE000FB0D9091FC0DA091FD0DB091FE0D8EA30B
:101BF0009FA3A8A7B9A78B839C83AD83BE831886B8
:101C00001F82F80120E080E090E06AE03191332308
:101C100019F140ED430F4A3080F4689FA001699F9D
:101C2000500D1124CA01C097830F911D37FD9A955D
:101C30008F3F910559F350F32BC03E3249F52330C5
:101C400039F1A2E3B0E0AC0FBD1FA20FB11D8C9320
:101C50002F5F80E090E0DACF2330D1F48DABD1015B
:101C6000ED91FC910288F389E02D85ED92E09DA332
:101C70008CA38AA99BA9ACA9BDA98EA39FA3A8A741
:101C8000B9A7A401BE016C5D7F4FC101199542C285
:101C90004B815C816D817E818091030E9091040E59
:101CA000A091050EB091060E481759076A077B07E9
:101CB00009F42EC2B4D56F7077277C5FCE010996E8
:101CC000FED7813009F021C285ED92E09DA38CA35F
:101CD0008B819C81AD81BE818EA39FA3A8A7B9A74C
:101CE00045E350E0BE016C5D7F4FCE010996BEDE3C
:101CF000892B19F400E010E09DC191D578876F839E
:101D00007627672776277DA36CA342E050E0BE01CB
:101D10006C5D7F4FCE0109960CDE81E090E09FABB9
:101D20008EAB42E050E0BE016A5C7F4FCE01099667
:101D300000DE80E091E09FAB8EAB42E050E0BE0160
:101D40006A5C7F4FCE010996F4DD1FAA1EAA42E00D
:101D500050E0BE016A5C7F4FCE010996EADD42E0A9
:101D600050E0BE016A5C7F4FCE010996E2DD42E0A1
:101D700050E0BE016A5C7F4FCE010996DADD680152
:101D8000F6018081882321F1C8017C01DC012C91BE
:101D90000196211116C067013701601A710A1614E5
:101DA000170494F468AE41E050E0BE01685C7F4FD8
:101DB000CE010996BEDDA301B801CE010996B9DDB9
:101DC00003C02E3211F7E7CF87010F5F1F4FD8CF27
:101DD00018AE41E050E0BE01685C7F4FCE0109962D
:101DE000A8DD00E011E01FAB0EAB42E050E0BE0109
:101DF0006A5C7F4FCE0109969CDD1FAB0EAB42E0C3
:101E000050E0BE016A5C7F4FCE01099692DDCE01A3
:101E1000099670DE892B09F46DCF73E0E72EF12C63
:101E2000FED421966CAF7DAF8EAF9FAF2197CE01D0
:101E30000996E2D2181619060CF43CC0F0D4DC0165
:101E4000CB0121962CAD3DAD4EAD5FAD2197821BF0
:101E5000930BA40BB50B89389341A105B105E0F5AF
:101E6000B9D45B016C0162E3462E512C612C712CBC
:101E7000B1D4DC01CB018A199B09AC09BD09883EAC
:101E80009340A105B10580F041E0441A5108610872
:101E9000710858EEA50E53E0B51EC11CD11C4114AB
:101EA00051046104710421F7411451046104710467
:101EB000F9F6BDCF4B815C816D817E81898D9A8DD4
:101EC000AB8DBC8D481759076A077B0741F48D8D90
:101ED0009E8DC59721F406C02FEF3FEFA2C02EEFD5
:101EE0003FEF9FC08AA19BA10C970CF4AFC04CE0C0
:101EF00050E0BE016C5D7F4FCE0109968BD18EA163
:101F000090E0982F88272FA1822B9BAF8AAF2CA11E
:101F100030E0322F22274DA1242B4F8158854217C4
:101F2000530709F090C097FF8EC08F709270892B75
:101F300009F0E8C00AA510E0102F00278BA5082B98
:101F40000115110509F4DBC0C12CD12C88A590E046
:101F5000982F882729A5822BC816D90608F479C09E
:101F6000C12CD12C41E050E0BE01645C7F4FCE011A
:101F7000099650D18CAD982F907C09F09DC08111AD
:101F800090C08CAD8111EECF42E050E0BE01685CA4
:101F90007F4FCE0109963ED142E050E0BE016A5C1F
:101FA0007F4FCE01099636D1CE01099651D1CE018F
:101FB00009964ED1CE0109964BD1CE01099648D152
:101FC00042E050E0BE01665C7F4FCE01099622D10F
:101FD00088AD99AD8115914009F073C02EA93FA934
:101FE0003227232732272130310509F06AC08AAD14
:101FF0009BAD8115944009F07FC044E050E0BE01E4
:102000006E5C7F4FCE01099622962FAF22972396C2
:102010003FAF2397FFD022962FAD229723963FAD57
:1020200023978901A1E0EA1AF10821F02F3F3F4FE1
:1020300009F4F6CECE010996E7D50130110509F471
:102040000ECEC80167C02CEF3FEFEBCF2DEF3FEF77
:10205000E8CF41E050E0BE016A5C7F4FCE010996B7
:10206000D9D08EA9811113C08EA98111F2CFCE01D2
:102070000996EED0CE010996EBD0CE010996E8D0B4
:10208000CE010996E5D0FFEFCF1ADF0A5FCF8EA908
:102090009FEF980F9EAB882339F3CE010996D8D0D5
:1020A000F6CF8CAD9FEF980F9CAF882309F469CFD2
:1020B000CE010996CDD0F5CFCE010996C9D01CAE80
:1020C00060CF612C712C8AAD9BAD9827892798270A
:1020D0006816790638F4CE010996BAD05FEF651A12
:1020E000750AF1CF8FEFC81AD80AC016D10609F0C9
:1020F00039CF26EF3FEF95CF27EF3FEF92CF2AEF73
:102100003FEF8FCF2BEF3FEF8CCF80E090E002C00E
:102110008EEF9FEFCE5BDF4F0FB6F894DEBF0FBEA2
:10212000CDBFDF91CF911F910F91FF90EF90DF9086
:10213000CF90BF90AF909F908F907F906F905F9067
:102140004F903F902F9008950895AF92BF92DF92E5
:10215000EF92FF920F931F93CF93DF93D82E7B01C3
:102160008A0180E590E0A8D5C0E0D0E08D2D6DD447
:102170005C01892B19F08D2D68D4EC01CA15DB05A3
:10218000A9F7209791F463E070E08D2D74D5843128
:10219000A9F1882399F1C1E0D0E08C3111F4C0E0BD
:1021A000D0E0D195C195D10929C00C171D070CF4B9
:1021B000E8011C161D0614F568E270E08D2D5BD554
:1021C000082F10E069E270E08D2D55D5102F002703
:1021D000082B9E01A701B8018D2D7FDA0C0F1D1F62
:1021E000412F68E270E08D2D23D5402F69E270E029
:1021F0008D2D1ED560E470E08D2D5FDA5CD5CE01AB
:10220000DF91CF911F910F91FF90EF90DF90BF90E2
:10221000AF900895CF93DF93FC01218D328D21156E
:10222000310519F48FEF9FEF10C0EC0142175307EF
:1022300008F0A901888D89DF181619069CF7298DE9
:102240003A8D281B390B3A8F298FDF91CF91089552
:102250000F931F93CF93DF931F92CDB7DEB7FC018F
:10226000218D328D232B59F08C0141E050E0BE01CD
:102270006F5F7F4F808D69DF181619061CF08FEF96
:102280009FEF08C0F801818D928D0197928F818F09
:10229000898190E00F90DF91CF911F910F91089568
:1022A000FF920F931F93CF93DF931F92CDB7DEB7AB
:1022B000FC01218D328D232BE1F0F08C80E590E044
:1022C000FBD468E270E08F2DD6D4082F10E069E2CD
:1022D00070E08F2DD0D4702F6627682B21E030E07E
:1022E000AE014F5F5F4F8F2DF8D9E5D4898190E023
:1022F00002C08FEF9FEF0F90DF91CF911F910F9151
:10230000FF900895BF92CF92DF92EF92FF920F93CA
:102310001F93CF93DF9300D000D0CDB7DEB7FC0181
:10232000208D243009F057C06A017B018C01B12C4B
:1023300063E070E08B2D9FD4811103C0F801B08E53
:1023400006C08831D9F3B394F4E0BF12F1CFF8019D
:10235000808D843009F43FC096E0EDEDF2E0DE01BF
:10236000119601900D929A95E1F7F70193819F776D
:102370009C8394819D8395819E83B7016E5F7F4F7F
:1023800090E0982F882744E050E0845F9B4FBAD3B9
:10239000F801F08C4D2D60E170E08F2D49D44C2D6B
:1023A00061E170E08F2D44D4F801808D90E0982F8A
:1023B000882746E050E0BE016F5F7F4F8A5F9B4FEA
:1023C000A1D3F801128E118E20E8A60162E0808D63
:1023D000C2D381E001C080E026960FB6F894DEBF3C
:1023E0000FBECDBFDF91CF911F910F91FF90EF9066
:1023F000DF90CF90BF900895BF92CF92DF92EF927F
:10240000FF920F931F93CF93DF93CDB7DEB728973B
:102410000FB6F894DEBF0FBECDBF8C01F801818DE1
:10242000928D892B49F0D801ED91FC910680F781BE
:10243000E02DC8011995F2CFB08C80E590E03CD436
:10244000E12CF12C8B2D01D36C01892B19F08B2DF4
:10245000FCD27C01EC14FD04A9F72DD41E141F043A
:1024600054F548E050E0BE016F5F7F4FD8015896A9
:102470008C916BDE9C0118161906DCF489819A8117
:10248000AB81BC81F801808B918BA28BB38B8D814A
:1024900090E0982F88272E81820F911D958B848B39
:1024A0002F8130E0322F22278885280F311D328F6F
:1024B000218FC90102C080E090E028960FB6F89401
:1024C000DEBF0FBECDBFDF91CF911F910F91FF9067
:1024D000EF90DF90CF90BF900895CF93C82F80E505
:1024E00090E0EAD360E170E08C2FE7D84FEF62E034
:1024F00070E08C2F9DD3CF91DEC38F929F92AF92CD
:10250000BF92CF92DF92EF92FF920F931F93CF93E0
:10251000DF937C01EB016C0182E0C80ED11C470106
:10252000E5E08E0E911C00E010E0F60141916F0194
:1025300050E060E070E02AE0CE019DD95C01E881C6
:10254000F9810190F081E02D6EE2CE0119958A0D9E
:102550009B1D080F191FC814D90439F7F7014581CD
:1025600050E060E070E02AE0CE0185D9800F911F35
:10257000DF91CF911F910F91FF90EF90DF90CF905F
:10258000BF90AF909F908F9008958DE49DE00E9442
:10259000F30721E0892B09F420E0822F08950E949F
:1025A00057281F920F920FB60F9211240BB60F925D
:1025B0002F933F934F935F936F937F938F939F934B
:1025C000AF93BF93EF93FF938DE49DE0CCD8FF9141
:1025D000EF91BF91AF919F918F917F916F915F919B
:1025E0004F913F912F910F900BBE0F900FBE0F9008
:1025F0001F9018951F920F920FB60F9211240BB6D1
:102600000F922F938F939F93EF93FF93E0915D0D24
:10261000F0915E0D8081E091630DF091640D82FD7B
:1026200012C090818091660D8F5F8F732091670D2E
:10263000821751F0E091660DF0E0E35BF24F958F69
:102640008093660D01C08081FF91EF919F918F91E2
:102650002F910F900BBE0F900FBE0F901F901895EB
:1026600090E0FC013197E231F10508F04EC0882777
:10267000EE58FF4F8F4F0C944928809180008F7740
:1026800003C0809180008F7D8093800008958091A9
:102690008000877FF9CF84B58F7702C084B58F7DA6
:1026A00084BD08958091B0008F7703C08091B00001
:1026B0008F7D8093B0000895809190008F7707C040
:1026C000809190008F7D03C080919000877F8093E0
:1026D000900008958091A0008F7707C08091A0009E
:1026E0008F7D03C08091A000877F8093A000089514
:1026F000809120018F7707C0809120018F7D03C0DA
:1027000080912001877F809320010895CF93DF93EC
:10271000282F30E0F901EE51FE4F8491F901E45683
:10272000FE4FD491F901EA5AFE4FC491CC2389F0AF
:10273000811196DFEC2FF0E0EE0FFF1FE45CFE4FFF
:10274000A591B491EC91ED2381E090E021F480E03B
:1027500002C080E090E0DF91CF910895CF93DF93A6
:1027600090E0FC01E456FE4F2491FC01EA5AFE4F32
:102770008491882361F190E0880F991FFC01EE5D40
:10278000FE4FC591D491FC01E85FFE4FA591B49135
:10279000611109C09FB7F8948881209582238883AE
:1027A000EC912E230BC0623061F49FB7F89438810E
:1027B000822F809583238883EC912E2B2C939FBFAF
:1027C00006C08FB7F894E8812E2B28838FBFDF9146
:1027D000CF9108953FB7F8948091770E9091780E3D
:1027E000A091790EB0917A0E26B5A89B05C02F3F17
:1027F00019F00196A11DB11D3FBFBA2FA92F982F27
:102800008827820F911DA11DB11DBC01CD0142E0A1
:10281000660F771F881F991F4A95D1F708952FB724
:10282000F8946091700E7091710E8091720E90917B
:10283000730E2FBF08951F920F920FB60F9211249F
:102840002F933F938F939F93AF93BF938091700E7D
:102850009091710EA091720EB091730E3091760E20
:1028600023E0230F2D3720F40196A11DB11D05C0D3
:1028700026E8230F0296A11DB11D2093760E8093AA
:10288000700E9093710EA093720EB093730E8091A0
:10289000770E9091780EA091790EB0917A0E0196F4
:1028A000A11DB11D8093770E9093780EA093790EA1
:1028B000B0937A0EBF91AF919F918F913F912F91DD
:1028C0000F900FBE0F901F901895DC01FB014C91EB
:1028D00011965C91119712967C91342F3F71330FB2
:1028E000330F832F880F35E5282F239F020E20E01A
:1028F000211D1124642F6074942F907247FD21C014
:1029000061110BC0911104C0822F8095422F11C01C
:1029100045E5420F30E02BEA33C091110DC0382F4E
:102920004AEA349F030E30E0311D11248BEA831BE9
:10293000420F282F30E024C080E0422F4095322FF4
:102940000EC0611111C091110CC0382F2AEA329FBC
:10295000030E30E0311D11244BEA431B3B5A20E0AB
:102960000FC0322F30950BC0911104C085E5820F46
:102970003BEA03C08AEA820F90E0321B282F40E036
:102980005F3F11F15523E9F0222321F0259F020E2C
:1029900020E0211D442321F0459F040E40E0411D0D
:1029A000332321F0359F030E30E0311D1124509563
:1029B000559F050E50E0511D1124250F450F350F71
:1029C00003C03FEF4FEF2FEF7F3F09F420C050E0EF
:1029D000772321F0779F512D09F05F5F5523A1F0F8
:1029E000222321F0259F020E20E0211D442321F007
:1029F000459F040E40E0411D332321F0359F030E17
:102A000030E0311D112403C030E040E020E020839D
:102A1000418332830895FA01029620E030E02617C0
:102A2000370774F44081DC0112974C934181119671
:102A30004C934281DC014C932F5F3F4F0396EFCFC5
:102A400008952C9A08952C9808951F93CF93DF939F
:102A5000182F66E270E00FD1C82FD0E067E270E077
:102A6000812F09D1DC2FCC279E01282BC901DF91B2
:102A7000CF911F9108951F93CF93DF93182F60E29A
:102A800070E0F9D0C82FD0E061E270E0812FF3D080
:102A9000DC2FCC279E01282BC901DF91CF911F91FC
:102AA00008958EBD00000DB407FEFDCF8EB50895CC
:102AB000CF92DF92EF92FF920F931F93CF93DF930A
:102AC000EC017A018B016C01C40ED51ECC15DD051D
:102AD00079F0B9DF8FE0E5DF8D2FE3DF8C2FE1DFC9
:102AE000219680E0DEDFF80181938F01AADFEECF2F
:102AF000C701DF91CF911F910F91FF90EF90DF9071
:102B0000CF900895CF92DF92EF92FF920F931F9391
:102B1000CF93DF93EC017A018B016C01C40ED51EBB
:102B2000CC15DD0571F08FDF80EFBBDF8D2FB9DFB6
:102B30008C2FB7DF2196F80181918F01B2DF81DF01
:102B4000EFCFC701DF91CF911F910F91FF90EF90D1
:102B5000DF90CF900895FF920F931F93CF93DF9351
:102B60001F921F92CDB7DEB7F82E8A012A836983A0
:102B7000B4DC80E590E0A0D02A816981462F422B09
:102B800060E070E08F2D54D00115110551F40091D3
:102B9000740E1091750E0F5F1F4F1093750E0093FA
:102BA000740E412F64E070E08F2D42D0402F65E01D
:102BB00070E08F2D3DD061E070E08F2D0E945D0BA5
:102BC0007AD081E00F900F90DF91CF911F910F91FC
:102BD000FF900895FC01818D928D0895FC018489F8
:102BE0009589089525ED32E0FC0131832083FB01B6
:102BF0004089518962897389FC01428353836483CC
:102C00007583089580E00895CF93DF93EC01888D5C
:102C1000843059F062DCE88DF0E0EE0FFF1FE458DD
:102C2000F14F1182108284E0888FDF91CF91089557
:102C30000F931F93CF93DF931F92CDB7DEB7282F4B
:102C400030E02C5F3F4F322F22278901060F171FDC
:102C50004983F9DE80EF25DF812F23DF802F21DFFD
:102C60004981842F1EDFEDDE81E00F90DF91CF914F
:102C70001F910F9108950F931F93CF93DF931F928E
:102C8000CDB7DEB790E00496982F88278C01060F09
:102C9000171FD9DE8FE005DF812F03DF802F01DFD3
:102CA00080E0FFDE8983CDDE89810F90DF91CF91B7
:102CB0001F910F91089508958CBD9DBD0895EF92C9
:102CC000FF921F93CF93DF93FC01208D243011F0EE
:102CD00080E01FC07B01EC0110E080E590E0ECDFBC
:102CE00063E070E0812FC7DF811102C0188F05C03B
:102CF0008831E1F31F5F143081F7888D843041F310
:102D0000FD86EC861A8E198E20E0A70162E023DF93
:102D100081E0DF91CF911F91FF90EF900895CF93C5
:102D2000DF93EC017CDD688379838A839B83DF9169
:102D3000CF910895EF92FF920F931F93CF93DF935C
:102D4000EC0190917B0E9F5F292F277020937B0EC3
:102D500090FF02C090E801C090E021FD90642470D3
:102D600009F0906220E1290FFE013C967E018FE080
:102D7000E80EF11C00E011E06191662331F070E093
:102D8000C8010E9436286F5F01C060E0DF01149720
:102D90006C93322F369F030E30E0311D1124CF018A
:102DA0000797311103C0EC01188203C03150EC01C8
:102DB0003883662311F061506C93EE15FF05E1F640
:102DC000DF91CF911F910F91FF90EF900895CF92D7
:102DD000DF92EF92FF920F931F93CF93DF936C01DB
:102DE0007A018B01C0E0D0E0CE15DF0589F0D80173
:102DF0006D918D01D601ED91FC910190F081E02D56
:102E0000C6011995892B11F47E0102C02196ECCFE1
:102E1000C701DF91CF911F910F91FF90EF90DF904D
:102E2000CF900895CF93DF9300D000D0CDB7DEB719
:102E3000789484B5826084BD84B5816084BD85B595
:102E4000826085BD85B5816085BD80916E008160A1
:102E500080936E0010928100809181008260809347
:102E60008100809181008160809381008091800049
:102E70008160809380008091B10084608093B10074
:102E80008091B00081608093B00080919100826059
:102E90008093910080919100816080939100809156
:102EA00090008160809390008091A1008260809367
:102EB000A1008091A10081608093A1008091A00079
:102EC00081608093A0008091210182608093210124
:102ED0008091210181608093210180912001816096
:102EE0008093200180917A00846080937A008091A1
:102EF0007A00826080937A0080917A00816080936A
:102F00007A0080917A00806880937A001092C100E4
:102F100091E090930B0288E7EAE3F8E0DF011D926D
:102F20008A95E9F780911C07811144C010920E0721
:102F300010920D078FEF80931107809312078093F3
:102F400013078093140780931507809316079093B7
:102F50001707109219071092180710921007109275
:102F60000F0780914B0D90914C0D892B31F48BE024
:102F700097E090934C0D80934B0DE0910907F091F1
:102F80000A07309721F08BE097E0958384838BE0EC
:102F900097E090930A078093090710921B071092FD
:102FA0001A0788E292E090930C0780930B0781E068
:102FB00080931C07E0910B07F0910C070480F581CA
:102FC000E02D8BE097E0199580EA93E090930E074F
:102FD00080930D0783E291E090931907809318077F
:102FE000E0910B07F0910C070284F385E02D8BE054
:102FF00097E01995009729F19C0140E050E060E4CA
:1030000072E48FE090E00E94B027722F632F00914E
:10301000ED0D1091EE0D2091EF0D3091F00D872FF9
:10302000962FDA0180179107A207B30710F4D90190
:10303000C8018093ED0D9093EE0DA093EF0DB0932A
:10304000F00D1092EA0D60E084E288DB60E082E23D
:1030500085DB60E08EE182DB60E08CE17FDB60E0BD
:103060008AE17CDB60E088E179DB60E086E176DBA9
:1030700061E08DE073DB2091260730912707809176
:103080002407909125072817390731F480E290E052
:10309000909325078093240780912407909125071A
:1030A00090932707809326078130904114F00C9469
:1030B000132680E090E19093130280931202009116
:1030C000260710912707C80188549F4F9093270720
:1030D0008093260720911202309113022817390796
:1030E0004CF483EE92E00E94E10866277727601B8C
:1030F000710B01C0B80170939F0360939E0348EB6E
:1031000050E08FE89CE00E948A2781E090918F0C2C
:10311000983009F080E0809300028111B1C080E80E
:103120008093350D82E090E09093390D8093380DB7
:1031300083E080933E0D8FEF8093360D81E0809386
:10314000370D40EE51EF6FEF70E040933A0D509322
:103150003B0D60933C0D70933D0D8093450D21E038
:1031600030E03093420D2093410D1092440D1092A7
:10317000430D8093400D8093460D8BE0E5E3FDE029
:10318000A1EBBCE001900D928A95E1F78BE0E5E3BD
:10319000FDE0ADEDBCE001900D928A95E1F78BE08A
:1031A000E5E3FDE0A8EEBCE001900D928A95E1F721
:1031B0008BE0E5E3FDE0ACEBBCE001900D928A957D
:1031C000E1F78BE0E5E3FDE0A0E9BCE001900D92C2
:1031D0008A95E1F78BE0E5E3FDE0AEEFBCE001901E
:1031E0000D928A95E1F78BE0E5E3FDE0A9E0BDE013
:1031F00001900D928A95E1F78BE0E5E3FDE0A2ED09
:10320000BCE001900D928A95E1F78BE0E5E3FDE0EB
:10321000A4E1BDE001900D928A95E1F78BE0E5E332
:10322000FDE0A3EFBCE001900D928A95E1F78BE001
:10323000E5E3FDE0A7ECBCE001900D928A95E1F793
:103240008BE0E5E3FDE0ABE9BCE001900D928A95EF
:10325000E1F78BE0E5E3FDE0A6EABCE001900D922A
:103260008A95E1F78BE0E5E3FDE0AFE1BDE0019099
:103270000D928A95E1F788E080938F0C0E94E0041C
:1032800081E08093450D8093400DE0914B0DF091CE
:103290004C0D309729F084870480F581E02DF9CF1B
:1032A00098E2892E912CA12CB12C809131078111AB
:1032B0000EC089E297E033DD80922D0790922E07B1
:1032C000A0922F07B092300781E08093310789E206
:1032D00097E00E944605882309F4E8C184E216DAE3
:1032E00020912807422F50E08417950709F4D6C192
:1032F00081E082278093280786E108DA892B91F400
:1033000088E104DA892B71F48AE100DA892B51F41F
:103310008CE1FCD9892B31F48EE1F8D9892B11F499
:103320000C94192686E1F2D9892B91F488E1EED923
:10333000892B71F48AE1EAD9892B51F48CE1E6D921
:10334000892B31F48EE1E2D9019711F40C942126F6
:1033500086E1DCD9892B91F488E1D8D9892B71F4E5
:103360008AE1D4D9892B51F48CE1D0D9019731F479
:103370008EE1CCD9892B11F40C94292686E1C6D98B
:10338000892B91F488E1C2D9892B71F48AE1BED9E5
:10339000892B51F48CE1BAD9019731F48EE1B6D979
:1033A000019711F40C94312686E1B0D9892B91F460
:1033B00088E1ACD9892B71F48AE1A8D9019751F43D
:1033C0008CE1A4D9892B31F48EE1A0D9892B11F499
:1033D0000C94392686E19AD9892B91F488E196D903
:1033E000892B71F48AE192D9019751F48CE18ED93D
:1033F000892B31F48EE18AD9019711F40C9441267E
:1034000086E184D9892B91F488E180D9892B71F4E4
:103410008AE17CD9019751F48CE178D9019731F494
:103420008EE174D9892B11F40C94492686E16ED96A
:10343000892B91F488E16AD9892B71F48AE166D9E4
:10344000019751F48CE162D9019731F48EE15ED994
:10345000019711F40C94512686E158D9892B91F4E7
:1034600088E154D9019771F48AE150D9892B51F43C
:103470008CE14CD9892B31F48EE148D9892B11F498
:103480000C94592686E142D9892B91F488E13ED9E2
:10349000019771F48AE13AD9892B51F48CE136D93C
:1034A000892B31F48EE132D9019711F40C94612605
:1034B00086E12CD9892B91F488E128D9019771F400
:1034C0008AE124D9892B51F48CE120D9019731F478
:1034D0008EE11CD9892B11F40C94672686E116D94C
:1034E000892B91F488E112D9019771F48AE10ED900
:1034F000892B51F48CE10AD9019731F48EE106D978
:10350000019711F40C946F2686E100D9892B99F468
:1035100088E1FCD8019779F48AE1F8D88C01019709
:1035200051F48CE1F3D8892B31F48EE1EFD8892B5B
:1035300011F40C94772686E1E9D8892B91F488E17F
:10354000E5D8019771F48AE1E1D8019751F48CE153
:10355000DDD8892B31F48EE1D9D8019711F40C9480
:103560007D2686E1D3D8892B91F488E1CFD80197C5
:1035700071F48AE1CBD8019751F48CE1C7D8019757
:1035800031F48EE1C3D8892B11F40C94852686E1A1
:10359000BDD8892B91F488E1B9D8019771F48AE1FB
:1035A000B5D8019751F48CE1B1D8019731F48EE18F
:1035B000ADD8019711F40C948D2686E1A7D8019718
:1035C00091F488E1A3D8892B71F48AE19FD8892BE3
:1035D00051F48CE19BD8892B31F48EE197D8892B5B
:1035E00011F40C94952686E191D8019791F488E125
:1035F0008DD8892B71F48AE189D8892B51F48CE11B
:1036000085D8892B31F48EE181D8019711F40C947F
:103610009D2686E17BD8019791F488E177D8892BA4
:1036200071F48AE173D8892B51F48CE16FD801973A
:1036300031F48EE16BD8892B11F40C94A52686E128
:1036400065D8019791F488E161D8892B71F48AE1FA
:103650005DD8892B51F48CE159D8019731F48EE172
:1036600055D8019711F40C94AD2686E14FD80197F7
:1036700091F488E14BD8892B71F48AE147D80197FE
:1036800051F48CE143D8892B31F48EE13FD8892B5A
:1036900011F40C94B52681E080934A0D82E236D86D
:1036A00021E0892B09F420E02093490D8091E30863
:1036B000811112C08BED98E032DB24E630E040E06F
:1036C00050E02093DF083093E0084093E1085093E6
:1036D000E20881E08093E3088BED98E00E944605C4
:1036E000882309F475C08091470D9091480D0A9781
:1036F00009F06EC080914A0D882309F469C0909149
:10370000400D81E089278093400D81112FC00E94D8
:10371000E00411E08091EA0D882309F457C08091FC
:103720004107811111C089E397E0F9DA8EE190E059
:10373000A0E0B0E080933D0790933E07A0933F0741
:10374000B09340071093410789E397E00E94460534
:10375000882329F080E00E9469060E9472056AE0D1
:1037600070E084E690E00E945C04D4CF11E0909178
:10377000EA0D8091350D981731F180915107811133
:103780000DC089E497E0CBDA80924D0790924E0706
:10379000A0924F07B09250071093510789E497E029
:1037A0000E944605882341F08091350D0E946906EC
:1037B0008091EA0D0E94170964E670E08AE090E0CB
:1037C0000E945C04D4CF81E08093450D10924A0D95
:1037D0008091610781110EC089E597E0A0DA80929F
:1037E0005D0790925E07A0925F07B092600781E04C
:1037F0008093610789E597E00E944605882309F4D4
:10380000E6C180914A0D8823B1F18091470D9091D6
:10381000480D069781F50E94E9068091400D8111BF
:1038200002C00E9450048091410D9091420D019779
:1038300051F482E090E09093420D8093410D8BE033
:10384000E4E1FDE009C081E090E09093420D8093B7
:10385000410D8BE0E2EDFCE0A5E3BDE001900D92AF
:103860008A95E1F781E08093450D10924A0D80938F
:103870008D0C10928E0C80914A0D882331F180912D
:10388000470D9091480D049701F50E94E90680913B
:10389000400D811102C00E9450048EE090E0909390
:1038A000420D8093410D8BE0EFE1FDE0A5E3BDE02B
:1038B00001900D928A95E1F781E08093450D109279
:1038C0004A0D80938D0C10928E0C80914A0D8823A6
:1038D00009F449C08091470D9091480D089709F06F
:1038E00042C00E94E9068091400D811102C00E94F1
:1038F00050048091410D9091420D8430910579F0F2
:1039000085309105B1F00397A1F484E090E09093A5
:10391000420D8093410D8BE0E6EAFCE013C085E0A8
:1039200090E09093420D8093410D8BE0E1EBFCE041
:1039300009C083E090E09093420D8093410D8BE0AD
:10394000EBE9FCE0A5E3BDE001900D928A95E1F77B
:1039500081E08093450D8093460D10924A0D80932F
:103960008D0C10928E0C80914A0D8823C1F18091AC
:10397000470D9091480D059791F50E94E9068091B9
:10398000400D811102C00E9450048091410D909120
:10399000420D069751F487E090E09093420D80939A
:1039A000410D8BE0E7ECFCE009C086E090E09093ED
:1039B000420D8093410D8BE0ECEBFCE0A5E3BDE014
:1039C00001900D928A95E1F781E08093450D8093F7
:1039D000460D10924A0D80938D0C10928E0C8091A2
:1039E0004A0D882341F18091470D9091480D019730
:1039F00011F50E94E9068091400D811102C00E94DC
:103A000050048FE090E09093420D8093410D8BE045
:103A1000EAE2FDE0A5E3BDE001900D928A95E1F7B1
:103A200081E08093450D8093460D10924A0D80935E
:103A30008D0C10928E0C80914A0D882309F446C09B
:103A40008091470D9091480D029709F03FC00E9468
:103A5000E9068091400D811102C00E9450048091BE
:103A6000410D9091420D8830910561F00997A1F4C4
:103A70008AE090E09093420D8093410D8BE0E3EF5C
:103A8000FCE013C089E090E09093420D8093410DDB
:103A90008BE0E8EEFCE009C088E090E09093420DF6
:103AA0008093410D8BE0EDEDFCE0A5E3BDE00190DE
:103AB0000D928A95E1F781E08093450D8093460D44
:103AC00010924A0D80938D0C10928E0C80914A0DAD
:103AD000882309F442C08091470D9091480D0797C3
:103AE000E1F50E94E9068091400D811102C00E941B
:103AF00050048091410D9091420D8B30910561F001
:103B00000C97A1F48DE090E09093420D8093410DCD
:103B10008BE0E9E0FDE012C08CE090E09093420D74
:103B20008093410D8BE0EEEFFCE008C08BE090E06D
:103B30009093420D8093410DE0E9FCE0A5E3BDE0E8
:103B400001900D928A95E1F781E08093450D1092E6
:103B50004A0D80938D0C10928E0C80914A0D882313
:103B6000B1F18091470D9091480D099781F50E9420
:103B7000E90681E090E09093420D8093410D8BE047
:103B8000E2EDFCE0A5E3BDE001900D928A95E1F73E
:103B90008FEF8093350D81E08093450D2FEF3FEF40
:103BA0004FEF50E020933A0D30933B0D40933C0D86
:103BB00050933D0D9091400D911102C08093400DA6
:103BC00010924A0D81E080938D0C10928E0C8091A2
:103BD000400D882311F40C9409268091D30881119B
:103BE00012C08BEC98E09BD884E690E0A0E0B0E0B7
:103BF0008093CF089093D008A093D108B093D208B7
:103C000081E08093D3088BEC98E00E9446058823DE
:103C100009F41CC1BAE0CB2E15E0E12E0FEF2AE02B
:103C200046E35DE062E180E10E94320A82E0C82E54
:103C3000EE24E39421E047E35DE06FE08DE00E9435
:103C4000320A8091380D9091390D039739F4CC24C4
:103C5000C39409E122E04EE35DE008C0FAE0CF2E14
:103C6000A5E0EA2E0FEF21E04FE35DE064E180E0A4
:103C70000E94320A7AE0C72EE5E0EE2E0FEF25E033
:103C800045E35DE06BE081E10E94320A80914A0DDC
:103C9000882379F18091470D9091480D0C9749F553
:103CA0008091380D9091390D8130910571F02CF48F
:103CB000892B91F481E090E00AC08230910561F097
:103CC000039751F482E090E002C083E090E090938B
:103CD000390D8093380D04C01092390D1092380DB3
:103CE00010924A0D81E08093450D80938D0C1092C7
:103CF0008E0C80914A0D882309F4A8C08091490D4B
:103D00008111A4C08091470D9091480D0E9709F044
:103D10009DC08091410D9091420D0197029708F04E
:103D20008AC080913A0D90913B0DA0913C0DB091CD
:103D30003D0D8A3A26ED92072FEFA207B10509F44F
:103D400053C034F5893243E994074FEFA407B10516
:103D500009F440C05CF48F3F924EA94CB10509F0C4
:103D60005AC08FEF9CE9A0E4B0E059C08C353CEA22
:103D700093073FEFA307B10591F18F38954CAF4FF3
:103D8000B10509F048C08AEA96EDAFEFB0E047C050
:103D9000843F5AEF95075FEFA507B10551F154F441
:103DA000803E914FAF4FB105B1F584EF9AEFAFEF81
:103DB000B0E035C08B3F4FEF9407A407B105F1F099
:103DC0008F3F9F4FAF4FB10531F58FEF92EEA9ECCA
:103DD000B0E025C08CE59CEAAFEFB0E020C08FE8F2
:103DE00095ECAFEFB0E01BC080EE91EFAFEFB0E02D
:103DF00016C08BEF9FEFAFEFB0E011C02FEF3FEF9A
:103E00004FEF50E020933A0D30933B0D40933C0D23
:103E100050933D0D0CC089E293E9AFEFB0E0809381
:103E20003A0D90933B0DA0933C0DB0933D0D81E076
:103E30008093450D06C09091460D81E089278093BF
:103E4000460D10924A0D81E080938D0C8091C3083D
:103E500081110FC08BEB98E00E948F168092BF08F3
:103E60009092C008A092C108B092C20881E08093ED
:103E7000C3088BEB98E00E944605882321F08091CF
:103E8000350D0E9469068091410D9091420D20915F
:103E9000430D3091440D8217930739F09093440DF0
:103EA0008093430D21E02093450D9C012150310961
:103EB00022303105C0F42091450D222309F406C1BA
:103EC00080913A0D90913B0D20913C0D29839A836E
:103ED0008B83AE014F5F5F4F63E271E084E299E054
:103EE0000E940B156DC48830910509F08DC020919A
:103EF000450D222309F41AC42091460D222309F40A
:103F000015C40E940F1428EE33E040E050E00E94F8
:103F1000D627CA01B9012FE030E040E050E00E940E
:103F2000D627909102029617A1F0609302026530A5
:103F300059F028F461110DC0109201020AC06A30D4
:103F400029F06F3019F005C083E001C081E0809353
:103F500001028091730781110FC08BE697E00E94E8
:103F60008F1680926F0790927007A0927107B0929F
:103F7000720781E0809373078BE697E00E94460505
:103F8000882309F43CC66091370D462F440F66958F
:103F900085E090E00E94380880950E94B00A83E294
:103FA00091E00E94BD067C010091690710916A07AB
:103FB0008EEF91E00E94BD06800F911F9695879528
:103FC000969587958C838FEF8D838E83BE016F5F6F
:103FD0007F4FCE0104960E946514C701880F991F78
:103FE0008E0D9F1DBE016F5F7F4F8C5D964F0E94AF
:103FF0002E0580910102080F111D87FD1A9510935F
:104000006A0700936907FBC58330910509F05EC01C
:104010002091450D222309F489C32091460D2223C6
:1040200009F484C38091850781110FC08DE797E063
:104030000E948F168092810790928207A092830738
:10404000B092840781E0809385078DE797E00E9416
:104050004605882309F4D3C59091360D00910302DB
:1040600009839A838FEF8B8310917C071C839D8338
:104070008E83BE016F5F7F4FCE0104960E94D40AEB
:104080008091370D813878F090E0805891096AE08E
:1040900070E0ECD71F5F160F10937C070F5F600F67
:1040A00060930302ACC590917B07981748F481E8B0
:1040B00080937B071F5F10937C070F5F00930302C1
:1040C00080917B07815080937B0799C5843091054F
:1040D00009F093C02091450D222309F427C32091B4
:1040E000460D222309F422C38091970781110FC046
:1040F0008FE897E00E948F16809293079092940722
:10410000A0929507B092960781E0809397078FE879
:1041100097E00E944605882309F471C59091360DF9
:104120001091040219839A838FEF8B8300918E077D
:104130000C839D838E83BE016F5F7F4FCE010496FB
:104140000E94D40A2091370D2138A0F130E0C90136
:104150008B5491094AE0E42EF12CB70187D7FB017B
:104160003196C90180589109B70180D76F5F7F4FA1
:10417000AF0185E090E00E947E08800F80938E075B
:104180002091370D30E0C9018B549109B7016ED7EA
:10419000FB013196C90180589109B70167D76F5F5C
:1041A0007F4FAF0185E090E00E947E08810F8093F1
:1041B000040225C580918D078217C8F481E8809399
:1041C0008D0744E050E061E070E083E090E00E9401
:1041D0007E08800F80938E0744E050E061E070E03D
:1041E00083E090E00E947E08810F8093040280911A
:1041F0008D07815080938D0702C58530910509F0A8
:104200006CC02091450D222309F490C22091460DE7
:10421000222309F48BC28091A707811113C08FE973
:1042200097E00E948F1684E190E0A0E0B0E08093D8
:10423000A3079093A407A093A507B093A60781E0D6
:104240008093A7078FE997E00E944605882309F429
:10425000D6C48091360D6FE0E9D6F82E8091370DE7
:10426000869586954FEF50E060E070E090E00E9408
:104270007E088C018091370D66E0D8D64FEF50E074
:1042800060E070E090E00E947E08080F191F8091A6
:10429000370D6AE0CBD64FEF50E060E070E090E081
:1042A0000E947E08800F911F63E070E0CBD6698387
:1042B0008FEF8B8380EF8A8304E219E0B801CE018F
:1042C00001960E94651489818F0D89830D5F1F4FB0
:1042D0009CE00D38190791F792C48630910509F0DA
:1042E0005EC02091450D222309F420C22091460D85
:1042F000222309F41BC28091B80781110FC080EB03
:1043000097E00E948F168092B4079092B507A09212
:10431000B607B092B70781E08093B80780EB97E0CB
:104320000E944605882309F46AC49091360D0091D5
:10433000060209839A838FEF8B831091AF071C834A
:104340009D838E83BE016F5F7F4FCE0104960E94D6
:10435000D40A8091370D813878F090E08058910927
:104360006AE070E083D61F5F160F1093AF070F5FF0
:10437000600F6093060243C490910502981748F4B9
:1043800081E8809305021F5F1093AF070F5F0093D2
:1043900006028091050281508093050230C4873067
:1043A000910509F0ACC02091450D222309F4BEC14E
:1043B0002091460D222309F4B9C18091CC078111C7
:1043C0000FC084EC97E00E948F168092C8079092ED
:1043D000C907A092CA07B092CB0781E08093CC07AF
:1043E00084EC97E00E944605882309F408C4809174
:1043F000370D813870F06091C30721E0260F90E0FF
:10440000805891096AE070E031D6620F6093C3076B
:1044100011C090910702981740F481E88093070239
:104420008091C3078F5F8093C307809107028150FB
:10443000809307024091C2078091C0079091C10705
:104440004230A1F038F4442371F0413039F58983CA
:104450001A8212C0443091F068F04530F9F41982A4
:104460001A828B8313C089831A8202C019828A83BD
:104470001B8207C019828A831B8208C019821A8294
:104480008B832091C307820F911D04C02091C30725
:10449000821B91099093C1078093C0072091C007A8
:1044A0003091C1072F3F310559F054F02FEF30E024
:1044B0003093C1072093C00781E0840F8093C20727
:1044C0008091C0079091C10797FF09C01092C10762
:1044D0001092C0078091C2078F5F8093C2078091BE
:1044E000C207863010F01092C207AE014F5F5F4FD7
:1044F00063E271E084E299E00E940B1580C3893089
:10450000910509F07CC02091450D222309F40EC1CC
:104510002091460D222309F409C10E940F1428EEB0
:1045200033E040E050E042D5CA01B9012FE030E06D
:1045300040E050E03BD590910A029617B9F06093A5
:104540000A02653069F028F4611110C082E390E03E
:1045500009C06A3029F06F3049F48AEA90E002C05D
:104560008FEF90E090930902809308028091DC071E
:1045700081110FC084ED97E00E948F168092D807BA
:104580009092D907A092DA07B092DB0781E080937E
:10459000DC0784ED97E00E944605882309F42FC3C9
:1045A0006091370D462F440F669585E090E00E949C
:1045B000380880950E94B00A83E291E00E94BD060F
:1045C0008C01F09008028FEF90E00E94BD068C8372
:1045D000FD828FEF8E83BE016F5F7F4FCE01049609
:1045E0000E946514C801880F991F800F911FBE019A
:1045F0006F5F7F4F8C5D964F0E942E0500C38A30FF
:10460000910509F093C02091450D222309F48EC035
:104610002091460D222309F489C0109114081C3002
:1046200008F058C0812F8D7F912F997F11F088302D
:1046300019F580910C08811113C084E098E00E9464
:104640008F1622E330E040E050E0209308083093DA
:10465000090840930A0850930B0881E080930C08E6
:1046600084E098E00E944605882309F4CBC28FEFCE
:1046700089838A838B8321C08091FC07811113C0B9
:1046800084EF97E00E948F1682E390E0A0E0B0E014
:104690008093F8079093F907A093FA07B093FB076C
:1046A00081E08093FC0784EF97E00E944605882311
:1046B00009F4A8C219821A821B82AE014F5F5F4FB4
:1046C00063E271E084E299E00E940B151F5F109392
:1046D000140898C28091EC07811113C084EE97E012
:1046E0000E948F1622E330E040E050E02093E8077C
:1046F0003093E9074093EA075093EB0781E08093FA
:10470000EC0784EE97E00E944605882309F47AC2FC
:104710008FEF90E00E94BD06810F893C18F0109247
:10472000140870C28FE0809314086CC29C012B5057
:1047300031092330310508F046C08091450D8823AA
:1047400009F460C28091360D9091370D9C838D8362
:104750008FEF8E83BE016F5F7F4FCE0104960E9464
:104760006514AE014F5F5F4F63E271E084E299E050
:104770000E940B156DE073E08DE49DE00E94D4066D
:104780004091370D50E060E070E02AE08DE49DE05C
:104790000E943B0C63E273E08DE49DE00E94D4062E
:1047A0004091360D50E060E070E02AE08DE49DE03D
:1047B0000E943B0C66E273E08DE49DE00E94D4060B
:1047C0001092450D1FC28E30910509F0ADC0809149
:1047D000450D882309F416C280912E0881110FC05F
:1047E00086E298E00E948F1680922A0890922B0809
:1047F000A0922C08B0922D0881E080932E0886E2CA
:1048000098E00E944605882309F4F9C10091370D0C
:10481000063008F406E080911E08811113C086E17D
:1048200098E00E948F1688EE93E0A0E0B0E08093BD
:104830001A0890931B08A0931C08B0931D0881E0F0
:1048400080931E0886E198E00E944605882389F03F
:104850008091460D882369F010911508802F6AE039
:10486000E5D34AE061E090E00E943808810F809330
:104870001508802F66E0DAD3C82ED12C48ED50E021
:1048800068E470E0C6010E947E087C0142E251E0CB
:1048900060E070E0C6010E947E088C0142EC50E0AE
:1048A00061E670E0C6010E947E082091360DC0903E
:1048B000150838E23C0D39832A83DD24DA94DB8243
:1048C000BC01660F771F860F971FBC016C5D764F8A
:1048D000CE0101960E9465148091360D94E19C0DE5
:1048E00099838A83DB82B701660F771F6E0D7F1D68
:1048F0006C5D764FCE0101960E9465148091360D55
:10490000C9828A83DB82B801660F771F600F711F2F
:104910006C5D764FCE0101960E94651480913F0D2B
:1049200086500E94B00A6BC10F9709F06BC180914D
:10493000450D882309F466C180917B00877F8093B1
:104940007B0080910B02A0E48A9FC0011124856046
:1049500080937C0080917A00806480937A008091BB
:104960007A0086FDFCCF409178008091790050E07C
:10497000582B5093BA084093B90860E070E02AE0E1
:104980008DE49DE00E943B0C66E273E08DE49DE0C7
:104990000E94D4062091B9083091BA082F31310510
:1049A00018F02E51310902C020E030E03093BA08EF
:1049B0002093B90840910E0250910F0267E0649F66
:1049C000C001659F900D1124280F391FF3E0369523
:1049D0002795FA95E1F730930F0220930E0240914C
:1049E000B7085091B808241B350B05E211E0209F51
:1049F0006001219FD00C309FD00C1124B601DD0C3A
:104A0000880B990B20910C0230910D02241B350B61
:104A1000032E000C440B550BA3D22632B1E03B070A
:104A200028F43093B6082093B50804C01093B60854
:104A30000093B5082091B5083091B6088091B4086C
:104A400090E08217930710F42093B408412C512C66
:104A50003201E12CF12C00E010E0DD24DA948091A9
:104A6000B5089091B6080817190738F0F701E05615
:104A7000FC4F10821182128216C0C301B20122E2E1
:104A800031E040E050E06CD2DA01C9014E96A11D40
:104A9000B11D8983DA82DB82B7016C5D764FCE016E
:104AA00001960E9465140F5F1F4F23E0E20EF11C78
:104AB00038E7430E511C611C711C033241E014079E
:104AC00071F6F090B408FF20F9F00F2D10E0980176
:104AD000A8E7B0E08DD222E231E040E050E040D2E1
:104AE000DA01C9014E96A11DB11D89838FEF8A831A
:104AF0008B83B801660F771F600F711F6C5D764F57
:104B0000CE0101960E9465148091B3088F5F809357
:104B1000B3088A3038F0FF2019F0FA94F092B40804
:104B20001092B3088091B208E82FF0E0EE0FFF1F5B
:104B3000E65CF74F2091B9083091BA0831832083A1
:104B40008F5F8C3318F48093B20802C01092B208C1
:104B500080913A0890913B089C01ECE3F8E0419188
:104B600051914817590728F02417350718F49A016E
:104B700001C0CA0158E0E23BF50789F730933908D4
:104B8000209338089093370880933608281B390BF8
:104B90002532314038F49C012B5D3E4F309339086B
:104BA000209338086091B7087091B8082FE3269FCA
:104BB000A001279F500D1124840F951F36E0969574
:104BC00087953A95E1F79093B8088093B70880915C
:104BD0000C0290910D02289FA001299F500D1124D5
:104BE0008091380890913908840F951F46E096957A
:104BF00087954A95E1F790930D0280930C0281E02E
:104C00008093450D0E94720568EB7BE08AE090E09E
:104C100004C062E070E088EB9BE00E945C040E94AC
:104C2000FF070C94551989E293E00E94E1080C9467
:104C30005F188AE090E09093480D8093470D0C94A4
:104C400092198BE090E09093480D8093470D0C945F
:104C5000A8198CE090E09093480D8093470D0C9438
:104C6000BE198DE090E09093480D8093470D0C9411
:104C7000D4198EE090E09093480D8093470D0C94EA
:104C8000EA198FE090E09093480D8093470D0C94C3
:104C9000001A80E190E09093480D8093470D0C94AA
:104CA000161A81E190E09093480D8093470D0C9483
:104CB0002C1A82E190E09093480D8093470D0C945C
:104CC000421A1092480D1092470D0C94581A83E125
:104CD00090E09093480D8093470D0C946E1A84E1F8
:104CE00090E09093480D8093470D0C94841A109394
:104CF000480D0093470D0C949B1A82E090E090932E
:104D0000480D8093470D0C94B11A83E090E0909386
:104D1000480D8093470D0C94C71A84E090E090935F
:104D2000480D8093470D0C94DD1A85E090E0909338
:104D3000480D8093470D0C94F31A86E090E0909311
:104D4000480D8093470D0C94091B87E090E09093E9
:104D5000480D8093470D0C941F1B88E090E09093C2
:104D6000480D8093470D0C94351B89E090E090939B
:104D7000480D8093470D0C944B1BCF92DF92EF921E
:104D8000FF92E3E1FEE085ED92E091838083128261
:104D9000138214821582EDE4FDE01382128248EE44
:104DA00053E060E070E0448355836683778321E6B7
:104DB00032E03183208325EC30E03587248724ECF2
:104DC00030E03787268720EC30E0318B208B21ECD8
:104DD00030E0338B228B22EC30E0358B248B26ECB9
:104DE00030E0378B268B118E128E138E148EEAEEE6
:104DF000FDE02FEF20831282118214861386CC24CB
:104E0000CA94DC2C7601C782D086E186F286E4E67D
:104E1000F0E0F093F80DE093F70DE9E1FEE0918307
:104E200080831282138214821582EFE1FEE0918367
:104E300080831282138214821582E5E2FEE0918360
:104E400080831282138214821582EBE2FEE091834A
:104E500080831282138214821582E9EFFDE0918330
:104E600080831282138214821582E1E0FEE0918336
:104E700080831282138214821582E1E3FEE0918323
:104E800080831282138214821582EAE6FEE0918307
:104E900080831282138214821582E4E6FEE09183FD
:104EA0008083A0ECA28338EA33831482B1EBB5830C
:104EB000EEE5FEE091838083A28333831482B1E028
:104EC000B583E8E5FEE091838083A2833383148277
:104ED000B583E2E5FEE091838083228323832483EC
:104EE0001582E7E3FEE013821282448355836683D2
:104EF00077832FEA32E03183208397878687108A71
:104F0000118A128A138A84E0808FFF90EF90DF90DD
:104F1000CF900895DC01CB01FC01F999FECF06C0CA
:104F2000F2BDE1BDF89A319600B40D924150504067
:104F3000B8F70895F999FECF92BD81BDF89A9927E7
:104F400080B50895262FF999FECF1FBA92BD81BD75
:104F500020BD0FB6F894FA9AF99A0FBE01960895FB
:104F6000052E97FB16F400940FD057FD05D01ED0E8
:104F700007FC02D046F408C0509540953095219525
:104F80003F4F4F4F5F4F0895909580957095619575
:104F90007F4F8F4F9F4F08952BD0A59F900DB49FAB
:104FA000900DA49F800D911D11240895A1E21A2E49
:104FB000AA1BBB1BFD010DC0AA1FBB1FEE1FFF1FBD
:104FC000A217B307E407F50720F0A21BB30BE40B0D
:104FD000F50B661F771F881F991F1A9469F7609554
:104FE0007095809590959B01AC01BD01CF0108950E
:104FF000A29FB001B39FC001A39F700D811D11241A
:10500000911DB29F700D811D1124911D0895DB012A
:105010008F939F93C1DFBF91AF91A29F800D911D90
:10502000A39F900DB29F900D11240895991B79E0D4
:1050300004C0991F961708F0961B881F7A95C9F728
:1050400080950895AA1BBB1B51E107C0AA1FBB1F77
:10505000A617B70710F0A61BB70B881F991F5A9504
:10506000A9F780959095BC01CD01089597FB072E77
:1050700016F4009406D077FD08D0E4DF07FC05D0D5
:105080003EF4909581959F4F0895709561957F4F5F
:105090000895EE0FFF1F881F8BBF0790F691E02D3C
:1050A0001994A6DFB7FF0895821B930B089581E042
:0A50B00090E0F89400C0F894FFCFE0
:1050BA000103639696800F80FF00630100020A00D5
:1050CA003905000200000000CF12CF12CF125A0198
:1050DA0056015301000000000D04C9034A015A0198
:1050EA00560147017D0100003100F9183000FB30FC
:1050FA002C001C472600825A1F006D6A1700417651
:10510A000E00897D04003131295A1B750A000000FE
:10511A0000D40BE716F307D107E5071A0C000000C5
:10512A0000CF12CF12CF12CF12CF12CF12CF12024C
:10513A0016CF12CF12CF12CF12CF12CF12CF12CF59
:10514A0012CF1200000000CF12E716CF12CF12CFF3
:10515A0012CF1200000000CF12E7160000000083F1
:10516A000C990CEA1528115011A4105F168211042B
:10517A0016360DB10D7A0DFC110A114C01F215EE1D
:10518A0015000000007D1200000000CF1201005E31
:10519A00000000417474656D707420746F2077721A
:1051AA00697465206F757473696465206F6620453C
:1051BA004550524F4D206D656D6F727900436F6C8B
:1051CA006F7220616E642053617475726174696FC5
:1051DA006E3A002020000D0A0043616E6E6F742043
:1051EA006368616E6765206365696C696E672C2008
:1051FA0062656C6F77206973737565642061646496
:10520A00726573736573004D6F646553656C65638E
:10521A0074696F6E207C20536176696E67207365AE
:10522A007474696E677320666F723A0045786365B5
:10523A0065646564206D6178696D756D206E756D44
:0E524A00626572206F6620777269746573006A
:00000001FF
