:1000000014C1000043C1000041C100003FC1000015
:100010003DC100003BC1000039C1000037C10000F4
:1000200035C1000033C1000031C100002FC1000004
:100030002DC100002BC1000029C1000027C1000014
:1000400025C1000023C1000021C100001FC1000024
:100050001DC100001BC1000019C10000C0C6000086
:1000600015C100004AC300001FC300000FC10000FB
:100070000DC100000BC1000009C1000007C1000054
:1000800005C1000003C1000001C10000FFC0000065
:10009000FDC00000FBC00000F9C00000F7C0000078
:1000A000F5C00000F3C00000F1C00000EFC0000088
:1000B000EDC00000EBC00000E9C00000E7C0000098
:1000C000E5C00000E3C00000E1C00000DFC00000A8
:1000D000DDC00000DBC00000D9C00000D7C00000B8
:1000E000D5C00000CE03D103C003C403CA03080473
:1000F000D503D903DF03E303E703ED03F103F503BE
:100100000804FB03FF030304000021002400270070
:100110002A002D0030003300010100000401070116
:100120000A01000020002300260029002C002F00D7
:100130003200000100000301060109010000220055
:10014000250028002B002E003100340002010000A1
:10015000050108010B010505050507050808080844
:10016000020202020A0A080804040404010101014F
:10017000010101010303030303030303040707074A
:100180000C0C0C0C0C0C0C0C0202020206060606EF
:10019000060606060B0B0B0B0B0B0B0B01021020BC
:1001A00020080810204010204080020102010804AD
:1001B0000201010204081020408080402010080441
:1001C000020180040201804020100804020108049A
:1001D00002010102040810204080010204081020DE
:1001E000408000000A0B02090C0D0E0807030401F1
:1001F00000000000000000000000000000000000FF
:1002000000000000000000000000000000001211CB
:1002100010000000000000000000000000000000CE
:100220000000000000000000881211241FBECFEF64
:10023000D1E2DEBFCDBF00E00CBF14E0A0E0B2E031
:10024000E4E5F7E200E00BBF02C007900D92AE3C80
:10025000B107D9F72FE0AEECB4E001C01D92AB3688
:10026000B207E1F711E0C5E1D1E000E006C0219757
:100270000109802FFE010E947D13C431D10780E067
:100280000807A9F70E94A00B0C94A813B9CE0895F3
:1002900080E090E00895FC01538D448D252F30E0DF
:1002A000842F90E0821B930B541710F0CF96089583
:1002B00001970895FC01918D828D981761F0828DD0
:1002C000DF01A80FB11D5D968C91928D9F5F9F738A
:1002D000928F90E008958FEF9FEF0895FC01918D2C
:1002E000828D981731F0828DE80FF11D858D90E099
:1002F00008958FEF9FEF0895FC01918D228D892F36
:1003000090E0805C9F4F821B91098F73992708951D
:1003100082E09CE0F1DF21E0892B09F420E0822FCC
:100320000895FC01848DDF01A80FB11DA35ABF4FB2
:100330002C91848D90E001968F739927848FA689E4
:10034000B7892C93A089B1898C9180648C93938D0B
:10035000848D981306C00288F389E02D80818F7DFB
:1003600080830895EF92FF920F931F93CF93DF93B3
:10037000EC0181E0888F9B8D8C8D981305C0E889F6
:10038000F989808185FD23C0F62E0B8D10E00F5F6B
:100390001F4F0F731127E02E8C8DE8120BC00FB684
:1003A00007FCFACFE889F989808185FFF5CFCE0176
:1003B000B8DFF2CF8B8DFE01E80FF11DE35AFF4F3E
:1003C000F0820B8FEA89FB898081806207C0EE8909
:1003D000FF896083E889F98980818064808381E076
:1003E00090E0DF91CF911F910F91FF90EF900895D2
:1003F000CF93DF93EC01888D8823C1F0EA89FB89D4
:10040000808185FD05C0A889B9898C9186FD0EC0C3
:100410000FB607FCF5CF808185FFF2CFA889B98997
:100420008C9185FFEDCFCE017CDFE8CFDF91CF91BE
:10043000089580E090E0892B19F06ADF811125C0D2
:1004400080E090E0892B41F080E090E0892B21F062
:100450000E94000081111CC080E090E0892B41F0D7
:1004600080E090E0892B21F00E940000811113C0F0
:1004700080E090E0892BA1F080E090E0892B81F072
:100480000E94000081110AC008950E940000D8CF88
:100490000E940000E1CF0E940000EACF0C9400000F
:1004A0000895EF92FF920F931F93CF93DF93EC0188
:1004B0009091CF049F5F292F27702093CF0490FF46
:1004C00002C090E801C090E021FD9064247009F022
:1004D000906220E1290FFE013C967E018FE0E80E3C
:1004E000F11C00E011E06191662331F070E0C80179
:1004F0000E942C136F5F01C060E0DF0114976C93C2
:10050000322F369F030E30E0311D1124CF010797A3
:10051000311103C0EC01188203C03150EC01388363
:10052000662311F061506C93EE15FF05E1F6DF9143
:10053000CF911F910F91FF90EF90089580E991E086
:100540000895389A08950F931F93CF93DF93CDB7F3
:10055000DEB762970FB6F894DEBF0FBECDBF8C0139
:10056000F901DC011C968C917A8369835C834B834F
:100570005E834D8390819D8791819E8792819F8725
:10058000813021F4CE0101968CDF06C01C861B86CB
:100590001A86198618861F8283E0888B1A8A198A20
:1005A000D801ED91FC910484F585E02DBE016F5FCB
:1005B0007F4FC801199562960FB6F894DEBF0FBE43
:1005C000CDBFDF91CF911F910F9108950F931F938E
:1005D000CF93DF93CDB7DEB762970FB6F894DEBF47
:1005E0000FBECDBF8C01F901DC011C968C917A8382
:1005F00069835C834B835E834D8390819D8791816A
:100600009E8792819F87813021F4CE01019649DF38
:1006100006C01C861B861A86198618861F82188AB1
:100620001A8A198AD801ED91FC910484F585E02D90
:10063000BE016F5F7F4FC801199562960FB6F8949F
:10064000DEBF0FBECDBFDF91CF911F910F910895F7
:1006500080E090E00895FC01858596850895CF930C
:10066000DF9300D000D0CDB7DEB7AB011C821D8276
:100670001E82DC01ED91FC910190F081E02D198248
:100680001A821B829E012F5F3F4FBE016C5F7F4F1E
:10069000199526960FB6F894DEBF0FBECDBFDF9139
:1006A000CF9108950E94A4131F920F920FB60F923C
:1006B00011240BB60F922F933F934F935F936F9339
:1006C0007F938F939F93AF93BF93EF93FF9382E0BA
:1006D0009CE027DEFF91EF91BF91AF919F918F91A9
:1006E0007F916F915F914F913F912F910F900BBE32
:1006F0000F900FBE0F901F9018951F920F920FB67C
:100700000F9211240BB60F922F938F939F93EF9319
:10071000FF93E091120CF091130C8081E091180C82
:10072000F091190C82FD12C0908180911B0C8F5F9B
:100730008F7320911C0C821751F0E0911B0CF0E09C
:10074000EE5FF34F958F80931B0C01C08081FF916A
:10075000EF919F918F912F910F900BBE0F900FBE35
:100760000F901F90189590E0FC013197E231F10550
:1007700008F04EC08827EE58FF4F8F4F0C947D1322
:10078000809180008F7703C0809180008F7D80935F
:100790008000089580918000877FF9CF84B58F779E
:1007A00002C084B58F7D84BD08958091B0008F779D
:1007B00003C08091B0008F7D8093B0000895809138
:1007C00090008F7707C0809190008F7D03C080914B
:1007D0009000877F8093900008958091A0008F778C
:1007E00007C08091A0008F7D03C08091A000877F0B
:1007F0008093A0000895809120018F7707C0809199
:1008000020018F7D03C080912001877F809320018C
:100810000895CF93DF93282F30E0F901EE51FE4F7A
:100820008491F901E456FE4FD491F901EA5AFE4F42
:10083000C491CC2389F0811196DFEC2FF0E0EE0F0C
:10084000FF1FEE5DFE4FA591B491EC91ED2381E089
:1008500090E021F480E002C080E090E0DF91CF9151
:100860000895CF93DF9390E0FC01E456FE4F24916E
:10087000FC01EA5AFE4F8491882361F190E0880FD1
:10088000991FFC01E85FFE4FC591D491FC01E45C27
:10089000FE4FA591B491611109C09FB7F89488816A
:1008A000209582238883EC912E230BC0623061F463
:1008B0009FB7F8943881822F809583238883EC91A9
:1008C0002E2B2C939FBF06C08FB7F894E8812E2B58
:1008D00028838FBFDF91CF9108953FB7F89480911F
:1008E000D5049091D604A091D704B091D80426B530
:1008F000A89B05C02F3F19F00196A11DB11D3FBF58
:10090000BA2FA92F982F8827820F911DA11DB11DE5
:10091000BC01CD0142E0660F771F881F991F4A95E1
:10092000D1F708954F925F926F927F928F92AF921C
:10093000BF92CF92EF92FF920F931F93CF93DF93CB
:100940003C01EB01CADFF30127853089621B730B81
:100950006A307105B8F3F894E881F98158B15160B3
:1009600088B18E7F88B96A859F81262F291B922F97
:100970002F83BF844A805B807D85FC84EE847F5F0B
:10098000F394E3943E814885A984CB841181D201FC
:1009900020E0C32F022F322F31811127889431118B
:1009A000390F08F43FEF9195889470FD130F179558
:1009B000889471FD130F1795889472FD130F179586
:1009C000889473FD130F1795889474FD130F179572
:1009D000889475FD130F1795889476FD130F17955E
:1009E000889477FD130F17958894232F7111212F69
:1009F000960F122F002C58B900C017FF88B930810C
:100A00002227889400C000C0002C88B931113C0F07
:100A100000C0002C58B900C016FF88B908F43FEF99
:100A2000C195889400C000C0002C88B9F0FC230F49
:100A300000C0002C58B900C015FF88B927958894CC
:100A4000F1FC230F00C000C0002C88B927958894C2
:100A500000C0002C58B900C014FF88B9F2FC230F65
:100A60002795889400C000C0002C88B9F3FC230FA0
:100A700000C0002C58B900C013FF88B9279588948E
:100A8000F4FC230F00C000C0002C88B9279588947F
:100A900000C0002C58B900C012FF88B9F5FC230F24
:100AA0002795889400C000C0002C88B9F6FC230F5D
:100AB00000C0002C58B900C011FF88B92795889450
:100AC000F7FC230F00C000C0002C88B9279588943C
:100AD00000C0002C58B900C010FF88B9132FF110C6
:100AE000122FCA0D00C000C0002C88B900C000C081
:100AF000002C58B900C017FF88B93281222788948A
:100B000000C000C0002C88B93111340F00C0002C87
:100B100058B900C016FF88B908F43FEFEB0DF11D7E
:100B200000C000C0002C88B9E0FC230F00C0002CDE
:100B300058B900C015FF88B927958894E1FC230FA8
:100B400000C000C0002C88B92795889400C0002CF4
:100B500058B900C014FF88B9E2FC230F2795889488
:100B600000C000C0002C88B9E3FC230F00C0002C9B
:100B700058B900C013FF88B927958894E4FC230F67
:100B800000C000C0002C88B92795889400C0002CB4
:100B900058B900C012FF88B9E5FC230F2795889447
:100BA00000C000C0002C88B9E6FC230F00C0002C58
:100BB00058B900C011FF88B927958894E7FC230F26
:100BC00000C000C0002C88B92795889400C0002C74
:100BD00058B900C010FF88B9132FE110122F4195AA
:100BE00000C000C0002C88B94C0D00C000C058B92E
:100BF00000C017FF88B931812227889400C000C047
:100C0000002C88B93111390F00C0002C58B900C030
:100C100016FF88B908F43FEF9195889400C000C092
:100C2000002C88B970FD230F00C0002C58B900C0FB
:100C300015FF88B92795889471FD230F00C000C067
:100C4000002C88B92795889400C0002C58B900C0A2
:100C500014FF88B972FD230F2795889400C000C047
:100C6000002C88B973FD230F00C0002C58B900C0B8
:100C700013FF88B92795889474FD230F00C000C026
:100C8000002C88B92795889400C0002C58B900C062
:100C900012FF88B975FD230F2795889400C000C006
:100CA000002C88B976FD230F00C0002C58B900C075
:100CB00011FF88B92795889477FD230F00C000C0E5
:100CC000002C88B92795889400C0002C58B900C022
:100CD00010FF88B9132F7111122F960F00C000C09A
:100CE000002C88B9119709F086CE20EE31E0D201B0
:100CF0000E948513DC01CB01F4E0B695A79597958A
:100D00008795FA95D1F720E030E0A9016AE9469E7F
:100D1000040C411D569E400D511D1124450D511DC1
:100D2000840F951FA11DB11D893E43E09407A105C5
:100D3000B10508F434C0885E9340A109B10942E0CE
:100D4000B695A795979587954A95D1F747E0849FE3
:100D5000080E211D949F200D311D1124290F311DD6
:100D60006091CE0470E0860F971F820F931F409111
:100D7000D1045091D2046091D3047091D404292FEE
:100D80003327420F531F611D711D4093D1045093AF
:100D9000D2046093D3047093D4048093CE047894E7
:100DA0009CDDF301708B6787DF91CF911F910F91CD
:100DB000FF90EF90CF90BF90AF908F907F906F900B
:100DC0005F904F9008952FB7F8946091D10470917F
:100DD000D2048091D3049091D4042FBF08951F9220
:100DE0000F920FB60F9211242F933F938F939F93DF
:100DF000AF93BF938091D1049091D204A091D3047A
:100E0000B091D4043091D00423E0230F2D3720F487
:100E10000196A11DB11D05C026E8230F0296A11D54
:100E2000B11D2093D0048093D1049093D204A09359
:100E3000D304B093D4048091D5049091D604A091AA
:100E4000D704B091D8040196A11DB11D8093D5049B
:100E50009093D604A093D704B093D804BF91AF91D8
:100E60009F918F913F912F910F900FBE0F901F90E8
:100E70001895FA01029620E030E02617370774F43F
:100E80004081DC0112974C93418111964C93428131
:100E9000DC014C932F5F3F4F0396EFCF0895EF9205
:100EA000FF920F931F93CF93DF93C091D904D091FA
:100EB000DA040EEA1CE07E0185EDE80EF11CCE019D
:100EC0000E94E712F80161918F01861719F0CE0197
:100ED0000E94EF122196CE15DF0589F786E392E096
:100EE0004ED0E091810D8EE0E89FF0011124E25593
:100EF000F34F8181DF91CF911F910F91FF90EF9080
:100F0000B6C0CF92DF92EF92FF921F93CF93DF9301
:100F1000EC0159DFC880D980EA80FB80DC01CB017D
:100F20008C199D09AE09BF0911E0CC80DD80EE80EF
:100F3000FF808C159D05AE05BF0510F410E005C0BF
:100F400042DF688379838A839B83812FDF91CF91EE
:100F50001F91FF90EF90DF90CF900895009761F080
:100F6000FC0101900020E9F73197AF01481B590BB4
:100F7000BC0182E09CE0A4C380E090E00895CF93A0
:100F8000DF93ECDFEC018CE792E0E8DF8C0F9D1F34
:100F9000DF91CF9108951F93CF93DF93E7E1F2E0C4
:100FA0009491E1EDF1E0D491EBE8F1E0C491CC2330
:100FB000D1F0182F992311F0892FD5DBEC2FF0E019
:100FC000EE0FFF1FE45CFE4FA591B4918FB7F8942C
:100FD000111105C09C91ED2FE095E92302C0EC9121
:100FE000ED2BEC938FBFDF91CF911F9108958F92DE
:100FF0009F92AF92BF920F931F93CF93DF93CDB782
:10100000DEB7A1970FB6F894DEBF0FBECDBF19A211
:10101000423008F44AE08E010F5D1F4F842E912C60
:10102000A12CB12CA50194010E943F13E62FB90118
:10103000CA0101501109EA3014F4E05D01C0E95C15
:10104000D801EC93232B242B252B61F7C80186DFD5
:10105000A1960FB6F894DEBF0FBECDBFDF91CF9142
:101060001F910F91BF90AF909F908F900895CF9355
:10107000DF93682F70E080E090E04AE0B8DFEC0199
:101080008CE792E06BDF8C0F9D1FDF91CF9108956D
:101090003F924F925F926F927F928F929F92AF9208
:1010A000BF92CF92DF92EF92FF920F931F93CF9355
:1010B000DF9300D0CDB7DEB786E693E0E6E3F5E058
:1010C000ACE9B8E001900D920197E1F7E091560E7E
:1010D0008EE0E89FF0011124ED57F24F8581968153
:1010E000009709F02FC020E0322F45E5349F030E12
:1010F00030E0311D1124222321F0229F212D09F0FF
:101100002F5F222389F03FEF532F529F050E50E0AF
:10111000511D432F429F040E40E0411D329F030E9C
:1011200030E0311D112403C030E040E050E059832D
:101130004A833B83AE014F5F5F4F66EB70E080EE0A
:1011400099E032C08130910509F030C020E0322FA3
:1011500045E5349F030E30E0311D1124222321F098
:10116000229F212D09F02F5F222389F03FEF532F7B
:10117000529F050E50E0511D432F429F040E40E048
:10118000411D329F030E30E0311D112403C030E0B9
:1011900040E050E059834A833B83AE014F5F5F4F8D
:1011A00063EC70E08CE998E064DE22C0039701F5FF
:1011B0000EE918E020E030E03B962232B1E03B0738
:1011C00099F0608170E0C9010E941813892B39F0F1
:1011D000D80112971C9211961C92D8011C922F5F75
:1011E0003F4F0D5F1F4FE9CF3093950E2093940E24
:1011F00080913105882341F089E18093930E10920C
:10120000310589E394E0BBDE8091930E882309F4D5
:101210006DC080913205882351F1198290E89A833C
:101220001B826AE00E940C13082F10E0AE014F5F92
:101230005F4FB8018CE998E01CDE19821A821B828C
:1012400069E170E0601B710BC801880F991F800F66
:10125000911FAE014F5F5F4F8456974F0ADE8FEFAD
:101260008093E7081092E8081092E9080EC01092E7
:101270009F0880E88093A0081092A1088FEF8093C8
:10128000A2081092A3081092A4088FEF80939C08E4
:1012900010929D0810929E0880918B0E811118C0AB
:1012A00092DD6093830E7093840E8093850E9093ED
:1012B000860E84E690E0A0E0B0E08093870E9093E5
:1012C000880EA093890EB0938A0E81E080938B0ED6
:1012D00083E89EE016DE882349F08091930E8150CA
:1012E0008093930E811102C010923205F0909F0CF2
:1012F0008091A20C9091A30CA091A40CB091A50C8C
:10130000892B8A2B8B2BE1F0E8DA00917F0E10916C
:10131000800E2091810E3091820EDC01CB01801B6A
:10132000910BA20BB30B0091A20C1091A30C209176
:10133000A40C3091A50C80179107A207B307C0F247
:10134000CCDA60937F0E7093800E8093810E909321
:10135000820EE091AA0CF091AB0C309759F04091BD
:10136000A60C5091A70C6091A80C7091A90C8F2D20
:101370001995F82E00912F05109130054F2C512C06
:10138000612C712C0115110509F45EC0F801E4848B
:101390008091A00C9091A10C8436910508F41486DC
:1013A000D801ED91FC91A280B38019821A821B8230
:1013B000F11014C0F80145855685628173819E0144
:1013C0002F5F3F4FC801F5011995D8011C96EC928B
:1013D0001C9714960D911C911597D4CFF80139964E
:1013E000CE0101966C0148019CE0890E911CDF0141
:1013F00013973C902191332001F12223F1F0822FA9
:1014000090E0A0E0B0E09C01AD012F5F3F4F4F4F57
:101410005F4FC301B2010E94FD129B01AC01832DFD
:1014200090E0A0E0B0E0BC01CD016F5F7F4F8F4F37
:101430009F4F0E94FD12D6018C93BFEFCB1ADB0A9F
:10144000E815F905A1F6B6CF80917D0E90917E0E3C
:101450008C010F5F1F4F10937E0E00937D0E4997F6
:101460008CF1B1DC4B015C0188EE93E0089FB00188
:10147000099F700D189F700D1124072E000C880B0A
:10148000990BC090790ED0907A0EE0907B0EF09080
:101490007C0EA50194012C193D094E095F090E949B
:1014A0003F133093A10C2093A00C10927E0E10924B
:1014B0007D0E89DC6093790E70937A0E80937B0E9B
:1014C00090937C0E0F900F900F90DF91CF911F9112
:1014D0000F91FF90EF90DF90CF90BF90AF909F90D3
:1014E0008F907F906F905F904F903F900895CF9333
:1014F000C82F8091710E811118C065DC6093690E50
:1015000070936A0E80936B0E90936C0E88E290E05D
:10151000A0E0B0E080936D0E90936E0EA0936F0EDE
:10152000B093700E81E08093710E89E69EE0E9DC55
:101530008823A1F140919F0C242F30E02C1B31090E
:10154000C9010A96459710F092E001C091E0B901F7
:101550006C5E7F4F6932710508F094E0B901625EFC
:101560007F4F6D33710508F098E0B901685D7F4FDA
:101570006135710508F090E12A5B3F4F2D38310548
:1015800008F090E24C1718F4490F40939F0C2091FB
:101590009F0CC21718F4291B20939F0CCF9108951C
:1015A000CF92DF92EF92FF92CF93909133059817ED
:1015B00009F444C080933305811138C08CE594E070
:1015C000DEDC6DDC8EE1C82ED12CE12CF12CC1E0EB
:1015D00080919F0C882301F18091610E811113C0CD
:1015E000F2DB6093590E70935A0E80935B0E9093CA
:1015F0005C0EC0925D0ED0925E0EE0925F0EF09295
:10160000600EC093610E89E59EE07BDC882301F3C8
:1016100080E06DDF3DDDDCCF87E794E0B0DC81E08A
:10162000CF91FF90EF90DF90CF90B5CC8CE994E014
:10163000A6DC80E0B0DC81E080933405CF91FF90A0
:10164000EF90DF90CF900895CF92DF92EF92FF92CC
:10165000CF93DF936B017C01E091020CF091030CBE
:101660000190F081E02D6DE282E09CE01995EC01A3
:1016700066277727CB016C197D098E099F094AE0FF
:10168000B6DC8C0F9D1FDF91CF91FF90EF90DF9024
:10169000CF900895CF93DF93BC01990F880B990BDE
:1016A00097FF02C0D1DF02C04AE0A1DCEC018CE769
:1016B00092E054DC8C0F9D1FDF91CF9108954ECCAA
:1016C000CF92DF92EF92FF920F931F93CF93DF930E
:1016D0006C017A018B01C0E0D0E0CE15DF0589F006
:1016E000D8016D918D01D601ED91FC910190F081B1
:1016F000E02DC6011995892B11F47E0102C02196B7
:10170000ECCFC701DF91CF911F910F91FF90EF9028
:10171000DF90CF900895CF93DF93EC018093560E26
:1017200086EB94E0CCDFCE01B5DF81E039DFE1E389
:10173000F5E081E0838380831182DF91CF9108956A
:10174000CF93DF9300D0CDB7DEB7789484B58260B5
:1017500084BD84B5816084BD85B5826085BD85B555
:10176000816085BD80916E00816080936E001092D3
:10177000810080918100826080938100809181004E
:1017800081608093810080918000816080938000DF
:101790008091B10084608093B1008091B00081603D
:1017A0008093B0008091910082608093910080913D
:1017B000910081608093910080919000816080937E
:1017C00090008091A10082608093A1008091A1008F
:1017D00081608093A1008091A00081608093A0002F
:1017E000809121018260809321018091210181609B
:1017F000809321018091200181608093200180915C
:101800007A00846080937A0080917A00826080936D
:101810007A0080917A00816080937A0080917A00CA
:10182000806880937A001092C100E091120CF091D0
:10183000130C82E08083E0910E0CF0910F0C10826B
:10184000E091100CF091110C80E1808310921A0C41
:10185000E091160CF091170C86E08083E091140C57
:10186000F091150C808180618083E091140CF091DF
:10187000150C808188608083E091140CF091150C28
:10188000808180688083E091140CF091150C808138
:101890008F7D80838EE492E012DF89E692E06FDB39
:1018A0008DE692E00CDF4AE06DEA7AEC8DE290E0A2
:1018B0009EDB8CE792E052DB60E084E20E94310420
:1018C00060E082E20E94310460E08EE10E94310417
:1018D00060E08CE10E94310460E08AE10E94310402
:1018E00060E088E10E94310460E086E10E943104FA
:1018F00061E08DE00E9431048FE792E0E0DE89E64E
:1019000092E03DDB8091F204811145C01092E40425
:101910001092E3048FEF8093E7048093E8048093B0
:10192000E9048093EA048093EB048093EC0481E063
:101930008093ED041092EF041092EE041092E604EE
:101940001092E50480912F0590913005892B31F498
:1019500081EE94E09093300580932F05E091DF04B1
:10196000F091E004309721F081EE94E09583848338
:1019700081EE94E09093E0048093DF041092F104F0
:101980001092F00486E192E09093E2048093E104E7
:1019900081E08093F204E091E104F091E20404809C
:1019A000F581E02D81EE94E019958CE998E0909313
:1019B000E4048093E30482E291E09093EF04809347
:1019C000EE04E091E104F091E2040284F385E02D5D
:1019D00081EE94E01995009721F19C0140E050E0E0
:1019E00060E472E48FE090E06CD6722F632F009178
:1019F000A20C1091A30C2091A40C3091A50C872F60
:101A0000962FDA0180179107A207B30710F4D901C6
:101A1000C8018093A20C9093A30CA093A40CB09344
:101A2000A50C10929F0CE0912F05F0913005309796
:101A300029F014860480F581E02DF9CF61E085E37B
:101A40000E9431042091DD043091DE048091DB049A
:101A50009091DC042817390731F480E290E09093EC
:101A6000DC048093DB046091DB047091DC04613062
:101A700080E1780734F480E090E190930102809354
:101A80000002CB018B529F4F9093DE048093DD04C4
:101A90007093DA046093D90445ED50E08EEA9CE03F
:101AA00086D58091AE0C863019F186E992E067DA2E
:101AB0001092810DE9EBFCE080E090E050E843E01B
:101AC0003FE721E0DF011A975C93408311963C9336
:101AD00011962C9311961C929383828301963E96C5
:101AE0008031910579F786E08093AE0CD8D903C098
:101AF00088EA92E044DA80E04EDA81E080933305B0
:101B0000809334058093350588E2482E512C612C52
:101B1000712C94E0292E312C23E0822E912C33E17C
:101B2000A32EB12C42E3C42ED12CE12CF12C8091B8
:101B30003305882351F0E091560E9EE0E99FF001B5
:101B40001124ED57F24F8181D2DCE091560E8EE0E8
:101B5000E89FF0011124ED57F24F87819085218590
:101B600029839A838B83AE014F5F5F4F62E271E0FE
:101B700086E395E07ED9109234058FEF89831A822F
:101B80001B82AE014F5F5F4F62E370E086E395E03A
:101B900070D97EDA80910305811114C014D9609345
:101BA000FB047093FC048093FD049093FE04409228
:101BB000FF0450920005609201057092020581E0D9
:101BC000809303058BEF94E09CD9882309F442C2EB
:101BD00084E20E9409042091FA0430E082179307FE
:101BE00009F42FC289EB92E0CAD99091FA0481E0FE
:101BF00089278093FA0486E10E940904892BA9F4BD
:101C000088E10E940904892B81F48AE10E94090479
:101C1000892B59F48CE10E940904892B31F48EE15F
:101C20000E940904892B09F4EAC386E10E94090491
:101C3000892BA9F488E10E940904892B81F48AE1A7
:101C40000E940904892B59F48CE10E940904892B14
:101C500031F48EE10E940904019709F4D7C386E1AB
:101C60000E940904892BA9F488E10E940904892BA8
:101C700081F48AE10E940904892B59F48CE10E94C5
:101C80000904019731F48EE10E940904892B09F4BB
:101C9000C4C386E10E940904892BA9F488E10E944B
:101CA0000904892B81F48AE10E940904892B59F4E3
:101CB0008CE10E940904019731F48EE10E9409042D
:101CC000019709F4B1C386E10E940904892BA9F4A4
:101CD00088E10E940904892B81F48AE10E940904A9
:101CE000019759F48CE10E940904892B31F48EE1AB
:101CF0000E940904892B09F49EC386E10E9409040D
:101D0000892BA9F488E10E940904892B81F48AE1D6
:101D10000E940904019759F48CE10E940904892B5F
:101D200031F48EE10E940904019709F48BC386E126
:101D30000E940904892BA9F488E10E940904892BD7
:101D400081F48AE10E940904019759F48CE10E9410
:101D50000904019731F48EE10E940904892B09F4EA
:101D600078C386E10E940904892BA9F488E10E94C6
:101D70000904892B81F48AE10E940904019759F42E
:101D80008CE10E940904019731F48EE10E9409045C
:101D9000019709F465C386E10E940904892BA9F41F
:101DA00088E10E940904019781F48AE10E940904F4
:101DB000892B59F48CE10E940904892B31F48EE1BE
:101DC0000E940904892B09F452C386E10E94090488
:101DD000892BA9F488E10E940904019781F48AE122
:101DE0000E940904892B59F48CE10E940904892B73
:101DF00031F48EE10E940904019709F43FC386E1A2
:101E00000E940904892BA9F488E10E940904019722
:101E100081F48AE10E940904892B59F48CE10E9423
:101E20000904019731F48EE10E940904892B09F419
:101E30002AC386E10E940904892BA9F488E10E9443
:101E40000904019781F48AE10E940904892B59F45D
:101E50008CE10E940904019731F48EE10E9409048B
:101E6000019709F415C386E10E940904892BB1F496
:101E700088E10E940904019789F48AE10E9409041B
:101E80008C01019759F48CE10E940904892B31F4EB
:101E90008EE10E940904892B09F401C386E10E94A6
:101EA0000904892BA9F488E10E940904019781F4AF
:101EB0008AE10E940904019759F48CE10E94090407
:101EC000892B31F48EE10E940904019709F4ECC2D8
:101ED00086E10E940904892BA9F488E10E94090483
:101EE000019781F48AE10E940904019759F48CE179
:101EF0000E940904019731F48EE10E940904892BA4
:101F000009F4D9C286E10E940904892BA9F488E169
:101F10000E940904019781F48AE10E940904019753
:101F200059F48CE10E940904019731F48EE10E947A
:101F30000904019709F4C4C286E10E9409040197CB
:101F4000A9F488E10E940904892B81F48AE10E94A6
:101F50000904892B59F48CE10E940904892B31F47E
:101F60008EE10E940904892B09F4AFC286E10E9428
:101F700009040197A9F488E10E940904892B81F4DE
:101F80008AE10E940904892B59F48CE10E9409041A
:101F9000892B31F48EE10E940904019709F49CC257
:101FA00086E10E9409040197A9F488E10E940904CE
:101FB000892B81F48AE10E940904892B59F48CE170
:101FC0000E940904019731F48EE10E940904892BD3
:101FD00009F489C286E10E9409040197A9F488E105
:101FE0000E940904892B81F48AE10E940904892B4B
:101FF00059F48CE10E940904019731F48EE10E94AA
:102000000904019709F476C286E10E940904019748
:10201000A9F488E10E940904892B81F48AE10E94D5
:102020000904019759F48CE10E940904892B31F4C9
:102030008EE10E940904892B09F463C281E0809338
:102040001E0582E20E94090421E0892B09F420E0A8
:1020500020931D0580911305811115C00E94E30690
:1020600060930B0570930C0580930D0590930E05FE
:1020700040920F0550921005609211057092120562
:1020800081E0809313058BE095E00E94810788230F
:1020900009F4AFC080911E058823D1F080911B0503
:1020A00090911C050697A1F48FED92E00E94BF0766
:1020B0008091560E813021F030F481E090E005C02F
:1020C00082E090E002C080E090E025DB10921E05E7
:1020D00080911E05882379F080911B0590911C0545
:1020E000049749F487E093E00E94BF078FE090E0F7
:1020F00012DB10921E0580911E058823E9F0809165
:102100001B0590911C050897B9F48BE293E00E949F
:10211000BF078091560E8A3039F08B3041F08930FC
:1021200031F48AE090E005C08BE090E002C089E0E5
:1021300090E0F1DA10921E0580911E058823B1F01F
:1021400080911B0590911C05059781F482E593E031
:102150000E94BF078091560E8C3019F48DE090E0FC
:1021600002C08CE090E0D7DA10921E0580911E0527
:102170008823D9F080911B0590911C050297A9F442
:1021800086E793E00E94BF078091560E873029F0C2
:10219000883031F48EE090E005C088E090E002C025
:1021A00087E090E0B8DA10921E0580911E05882322
:1021B00001F180911B0590911C050797D1F48DE9E1
:1021C00093E00E94BF078091560E843039F085302D
:1021D00041F0833049F484E090E008C085E090E06D
:1021E00005C086E090E002C083E090E094DA1092AF
:1021F0001E0580912705811115C00E94E30660939A
:102200001F05709320058093210590932205C092AD
:102210002305D0922405E0922505F092260581E061
:10222000809327058FE195E00E948107882309F4B8
:10223000E3C0E091560E9EE0E99FF0011124ED57B6
:10224000F24F118180911B0590911C054197A1F5DA
:1022500080911E0520911D05811102C0222361F18C
:10226000812F90E0222361F040972CF006EF010FC0
:1022700087EC93E00BC08EEC93E021DA05E007C019
:102280000B97CCF30BEF010F85ED93E018DA8CED93
:1022900093E015DA812F90E0A0E0B0E04AE0BC01C5
:1022A000CD010E94F70789EC94E009DA802F0E94A3
:1022B000370810921E0501C0012F80911B059091D7
:1022C0001C050B9799F580911E0520911D05811124
:1022D00002C0222359F1812F90E0222369F0853F2B
:1022E00091052CF40AE0010F8CEE93E00CC08EEC0B
:1022F00093E0E5D90FEF08C08A3F9105C4F705E0E8
:10230000010F83EF93E0DBD98CED93E0D8D9612FF7
:1023100070E080E090E04AE00E94F70789EC94E0EA
:10232000CED9802F0E94370810921E05E091560EDC
:102330001EE01E9FF0011124ED57F24F018381E052
:1023400080933405109231050093320580911E056B
:102350008823A1F180911D05811130C080911B055A
:1023600090911C050E9751F58AEF93E0A8D9E09162
:10237000560E1E9FF0011124ED57F24F67817085B4
:10238000072E000C880B990B97FF02C05DD903C084
:102390004AE00E94F70789EC94E091D9E091560E4B
:1023A0008EE0E89FF0011124ED57F24F8781908570
:1023B00071D981E08093340510921E0580911B0530
:1023C00090911C050A97C1F480911E058823A1F005
:1023D00080913305882311F080E001C081E0E0D8CE
:1023E00080913305882319F086E194E002C087E2EA
:1023F00094E065D910921E050E94190298CB8AE0DC
:1024000090E090931C0580931B050FCC8BE090E02F
:1024100090931C0580931B0522CC8CE090E0909358
:102420001C0580931B0535CC8DE090E090931C0536
:1024300080931B0548CC8EE090E090931C05809320
:102440001B055BCC8FE090E090931C0580931B05EF
:102450006ECC80E190E090931C0580931B0581CCAD
:1024600081E190E090931C0580931B0594CC82E160
:1024700090E090931C0580931B05A7CC10921C053F
:1024800010921B05BCCCB0921C05A0921B05D1CCB0
:1024900084E190E090931C0580931B05E4CC10939D
:1024A0001C0500931B05FACC82E090E090931C057C
:1024B00080931B050DCD90921C0580921B0522CDAB
:1024C00030921C0520921B0537CD85E090E090935B
:1024D0001C0580931B054ACD86E090E090931C0577
:1024E00080931B055DCD87E090E090931C05809361
:1024F0001B0570CD88E090E090931C0580931B0530
:1025000083CD89E090E090931C0580931B0596CDC8
:10251000E2E0FCE01382128288EE93E0A0E0B0E0FB
:1025200084839583A683B78388E292E09183808336
:1025300085EC90E09587848784EC90E09787868788
:1025400080EC90E0918B808B81EC90E0938B828B80
:1025500082EC90E0958B848B86EC90E0978B868B59
:10256000118E128E138E148EEFE9FCE08FEF8083B4
:1025700012821182148613868FEF9FEFDC0187830E
:102580009087A187B28784E690E09093AD0C80930A
:10259000AC0C1092810D8FE78093820D1092560E35
:1025A0008093570E1092690F80936A0F0895DC0193
:1025B000CB01FC01F999FECF06C0F2BDE1BDF89A4E
:1025C000319600B40D9241505040B8F70895F999F2
:1025D000FECF92BD81BDF89A992780B50895262F28
:1025E000F999FECF1FBA92BD81BD20BD0FB6F894F8
:1025F000FA9AF99A0FBE01960895DB018F939F9383
:102600008AD0BF91AF91A29F800D911DA39F900D85
:10261000B29F900D11240895991B79E004C0991F71
:10262000961708F0961B881F7A95C9F7809508952C
:10263000AA1BBB1B51E107C0AA1FBB1FA617B707E8
:1026400010F0A61BB70B881F991F5A95A9F7809504
:102650009095BC01CD01089597FB072E16F40094C8
:1026600006D077FD08D0E4DF07FC05D03EF4909556
:1026700081959F4F0895709561957F4F0895A1E2D0
:102680001A2EAA1BBB1BFD010DC0AA1FBB1FEE1FEC
:10269000FF1FA217B307E407F50720F0A21BB30B37
:1026A000E40BF50B661F771F881F991F1A9469F7B3
:1026B00060957095809590959B01AC01BD01CF010F
:1026C0000895052E97FB16F400940FD057FD05D002
:1026D000D6DF07FC02D046F408C0509540953095EF
:1026E00021953F4F4F4F5F4F08959095809570957E
:1026F00061957F4F8F4F9F4F0895EE0FFF1F881FEB
:102700008BBF0790F691E02D19940FD0B7FF089575
:10271000821B930B089509D0A59F900DB49F900D37
:10272000A49F800D911D11240895A29FB001B39F15
:10273000C001A39F700D811D1124911DB29F700DCA
:10274000811D1124911D089581E090E0F89400C04E
:04275000F894FFCF2B
:102754000002000000005203520352032F032B0314
:10276400280300000000E602A302A1022F032B03AA
:102774009E02920400000000B201600B4B01F801BC
:102784007C015A016E01454550524F4D207C205327
:10279400617665642053657474696E67730053745D
:1027A4006172746564202D2057616974696E6720B5
:1027B4002D204170703A205600312E30004C454493
:1027C400204C6962726172793A2056000D0A004CFD
:1027D40045442D436F6E74726F6C204C6962726154
:1027E40072793A2056004D656D6F727920697320B5
:1027F400696E76616C6964004D656D6F72792069EC
:10280400732076616C69642E0052656164696E6739
:10281400206E65772076616C7565732066726F6DC6
:10282400206F746865722041726475696E6F004D23
:102834006F646553656C656374696F6E4D61696E31
:10284400207C204368616E67656420746F2057683C
:10285400697465302D32004D6F646553656C656332
:1028640074696F6E4D61696E207C204368616E6788
:10287400656420746F2042616C6C004D6F64655315
:10288400656C656374696F6E4D61696E207C20436D
:1028940068616E67656420746F205261696E626F4F
:1028A40077004D6F646553656C656374696F6E4D35
:1028B40061696E207C204368616E67656420746F73
:1028C4002046616465004D6F646553656C6563748F
:1028D400696F6E4D61696E207C204368616E676527
:1028E4006420746F2045666665637431004D6F64BF
:1028F4006553656C656374696F6E4D61696E207CA8
:10290400204368616E67656420746F20466978654A
:1029140064436F6C6F72002D2D2D2D2020006F6F7E
:1029240020202020002D2D20202020004368616ECF
:102934006765506172616D207C203A002B2B2B2B34
:102944002020002B2B20202020004C4544436C6188
:1029540073732E536574436F6C6F7254656D70207E
:1029640066726F6D200049523A205475726E656428
:10297400206974206F6E0049523A205475726E6556
:1029840064206974206F6666004F757470757454A2
:102994006F4C4544207C20446973706C6179496EA6
:1029A400666F207570646174656420004C4544430F
:1029B4006F6E74726F6C2E5365744F6E4F66662023
:1029C400746F206F6666004272696768746E65731F
:1029D400735475726E4F6666207C20506F776572F3
:1029E400656420646F776E206E6F77004C454443B6
:1029F4006F6E74726F6C2E5365744F6E4F666620E3
:102A0400746F206F6E004C4544436C6173732E5396
:0E2A140065744E65774D6F646520746F200009
:00000001FF
