:1000000008C1000037C1000035C1000033C1000045
:1000100031C100002FC100002DC100002BC1000024
:1000200029C1000027C1000025C1000023C1000034
:1000300021C100001FC100001DC100001BC1000044
:1000400019C1000017C1000015C1000013C1000054
:1000500011C100000FC100000DC10000A4C60000C6
:1000600009C1000045C600001AC6000003C1000017
:1000700001C10000FFC00000FDC00000FBC0000087
:10008000F9C00000F7C00000F5C00000F3C0000098
:10009000F1C00000EFC00000EDC00000EBC00000A8
:1000A000E9C00000E7C00000E5C00000E3C00000B8
:1000B000E1C00000DFC00000DDC00000DBC00000C8
:1000C000D9C00000D7C00000D5C00000D3C00000D8
:1000D000D1C00000CFC00000CDC00000CBC00000E8
:1000E000C9C000007509780967096B096F09AF0974
:1000F0007C09800986098A098E09940998099C0956
:10010000AF09A209A609AA090000210024002700BE
:100110002A002D0030003300010100000401070116
:100120000A0100002200250028002B002E003100CB
:10013000340002010000050108010B010505050559
:10014000070508080808020202020A0A080804044F
:10015000040401010101010101010303030303037D
:100160000303040707070C0C0C0C0C0C0C0C02020C
:10017000020206060606060606060B0B0B0B0B0B09
:100180000B0B010210202008081020401020408096
:10019000020102010804020101020408102040804B
:1001A00080402010080402018004020180402010D9
:1001B0000804020108040201010204081020408022
:1001C000010204081020408000000A0B02090C0DF7
:1001D0000E080703040100000000000000000000FA
:1001E000000000000000000000000000000000000F
:1001F00000000000121110000000000000000000CC
:10020000000000000000000000000000000069077E
:100210004A0A11241FBECFEFD1E2DEBFCDBF00E0FE
:100220000CBF2FE0AAE7B2E001C01D92AF35B207C4
:10023000E1F712E0A0E0B2E0E8E9FAE100E00BBF8C
:1002400002C007900D92AA37B107D9F711E0C8E0B4
:10025000D1E000E006C021970109802FFE010E9435
:10026000F40AC730D10780E00807A9F70E94D8092F
:100270000C943B0DC5CE80E991E00895389A08951D
:1002800080E090E00895FC01858596850895CF93E0
:10029000DF9300D000D0CDB7DEB7AB011C821D824A
:1002A0001E82DC01ED91FC910190F081E02D19821C
:1002B0001A821B829E012F5F3F4FBE016C5F7F4FF2
:1002C000199526960FB6F894DEBF0FBECDBFDF910D
:1002D000CF9108954F925F926F927F928F92AF92DB
:1002E000BF92CF92EF92FF920F931F93CF93DF9322
:1002F0003C01EB0133D5F30127853089621B730B79
:100300006A307105B8F3F894E881F98158B1516009
:1003100088B18E7F88B96A859F81262F291B922FED
:100320002F83BF844A805B807D85FC84EE847F5F61
:10033000F394E3943E814885A984CB841181D20152
:1003400020E0C32F022F322F3181112788943111E1
:10035000390F08F43FEF9195889470FD130F1795AE
:10036000889471FD130F1795889472FD130F1795DC
:10037000889473FD130F1795889474FD130F1795C8
:10038000889475FD130F1795889476FD130F1795B4
:10039000889477FD130F17958894232F7111212FBF
:1003A000960F122F002C58B900C017FF88B9308162
:1003B0002227889400C000C0002C88B931113C0F5E
:1003C00000C0002C58B900C016FF88B908F43FEFF0
:1003D000C195889400C000C0002C88B9F0FC230FA0
:1003E00000C0002C58B900C015FF88B92795889423
:1003F000F1FC230F00C000C0002C88B92795889419
:1004000000C0002C58B900C014FF88B9F2FC230FBB
:100410002795889400C000C0002C88B9F3FC230FF6
:1004200000C0002C58B900C013FF88B927958894E4
:10043000F4FC230F00C000C0002C88B927958894D5
:1004400000C0002C58B900C012FF88B9F5FC230F7A
:100450002795889400C000C0002C88B9F6FC230FB3
:1004600000C0002C58B900C011FF88B927958894A6
:10047000F7FC230F00C000C0002C88B92795889492
:1004800000C0002C58B900C010FF88B9132FF1101C
:10049000122FCA0D00C000C0002C88B900C000C0D7
:1004A000002C58B900C017FF88B9328122278894E0
:1004B00000C000C0002C88B93111340F00C0002CDE
:1004C00058B900C016FF88B908F43FEFEB0DF11DD5
:1004D00000C000C0002C88B9E0FC230F00C0002C35
:1004E00058B900C015FF88B927958894E1FC230FFF
:1004F00000C000C0002C88B92795889400C0002C4B
:1005000058B900C014FF88B9E2FC230F27958894DE
:1005100000C000C0002C88B9E3FC230F00C0002CF1
:1005200058B900C013FF88B927958894E4FC230FBD
:1005300000C000C0002C88B92795889400C0002C0A
:1005400058B900C012FF88B9E5FC230F279588949D
:1005500000C000C0002C88B9E6FC230F00C0002CAE
:1005600058B900C011FF88B927958894E7FC230F7C
:1005700000C000C0002C88B92795889400C0002CCA
:1005800058B900C010FF88B9132FE110122F419500
:1005900000C000C0002C88B94C0D00C000C058B984
:1005A00000C017FF88B931812227889400C000C09D
:1005B000002C88B93111390F00C0002C58B900C087
:1005C00016FF88B908F43FEF9195889400C000C0E9
:1005D000002C88B970FD230F00C0002C58B900C052
:1005E00015FF88B92795889471FD230F00C000C0BE
:1005F000002C88B92795889400C0002C58B900C0F9
:1006000014FF88B972FD230F2795889400C000C09D
:10061000002C88B973FD230F00C0002C58B900C00E
:1006200013FF88B92795889474FD230F00C000C07C
:10063000002C88B92795889400C0002C58B900C0B8
:1006400012FF88B975FD230F2795889400C000C05C
:10065000002C88B976FD230F00C0002C58B900C0CB
:1006600011FF88B92795889477FD230F00C000C03B
:10067000002C88B92795889400C0002C58B900C078
:1006800010FF88B9132F7111122F960F00C000C0F0
:10069000002C88B9119709F086CE20EE31E0D20106
:1006A000ABD7DC01CB01F4E0B695A795979587957C
:1006B000FA95D1F720E030E0A9016AE9469E040CE2
:1006C000411D569E400D511D1124450D511D840F95
:1006D000951FA11DB11D893E43E09407A105B105F9
:1006E00008F434C0885E9340A109B10942E0B69590
:1006F000A795979587954A95D1F747E0849F080E6F
:10070000211D949F200D311D1124290F311D609151
:100710007A0270E0860F971F820F931F40917B0231
:1007200050917C0260917D0270917E02292F3327C7
:10073000420F531F611D711D40937B0250937C0239
:1007400060937D0270937E0280937A02789406D340
:10075000F301708B6787DF91CF911F910F91FF900D
:10076000EF90CF90BF90AF908F907F906F905F9001
:100770004F9008950F931F93CF93DF93CDB7DEB7BC
:1007800062970FB6F894DEBF0FBECDBF8C01F901A2
:10079000DC011C968C917A8369835C834B835E8336
:1007A0004D8390819D8791819E8792819F87813023
:1007B00021F4CE01019641D306C01C861B861A8601
:1007C000198618861F82188A1A8A198AD801ED910B
:1007D000FC910484F585E02DBE016F5F7F4FC80159
:1007E000199562960FB6F894DEBF0FBECDBFDF91AC
:1007F000CF911F910F9108950F931F93CF93DF9384
:10080000CDB7DEB762970FB6F894DEBF0FBECDBF8F
:100810008C01F901DC011C968C917A8369835C83DD
:100820004B835E834D8390819D8791819E879281CA
:100830009F87813021F4CE010196FFD206C01C862D
:100840001B861A86198618861F8283E0888B1A8A6F
:10085000198AD801ED91FC910484F585E02DBE0143
:100860006F5F7F4FC801199562960FB6F894DEBF8F
:100870000FBECDBFDF91CF911F910F910895EF92E1
:10088000FF920F931F93CF93DF93EC018B519F4FF8
:1008900002D2CE018D529F4FFED1CE018F539F4F7A
:1008A000FAD1CE0181559F4FF6D1CE0183569F4F8D
:1008B000F2D1CE0185579F4FEED18E0103591F4FC4
:1008C000C8010C96E8D17E018BE5E80EF11CE1141D
:1008D000F10449F00E151F0531F002511109C8014C
:1008E0000C96D9D1F7CF8E01095C1F4F51F0E0165D
:1008F000F10639F082E1E81AF108C7010C96CBD174
:10090000F6CF219649F00C171D0731F0025111095D
:10091000C8010C96C0D1F7CFDF91CF911F910F91F5
:10092000FF90EF900895CF93DF93EC011D861C8616
:100930001F861E86198A188A61E070E080E090E0C8
:10094000A2D7009759F09D878C871F861E8628891D
:100950003989232B89F4FC0110820EC08C859D857A
:10096000009709F0F8D61D861C86198A188A1F86FA
:100970001E86DF91CF910895198A188A6EE372E07E
:10098000DF91CF910C94340DCF93DF93EC0101965E
:10099000CADFCE014396C7DFCE018596C4DFCE0104
:1009A000C796C1DFCE01875B9F4FBDDFCE01855A61
:1009B0009F4FB9DFCE0183599F4FB5DFCE018158DC
:1009C0009F4FB1DFCE018F569F4FADDFCE018D55CA
:1009D0009F4FA9DFCE018B549F4FA5DFCE018953D6
:1009E0009F4FA1DFCE0187529F4FDF91CF919BCFC9
:1009F000FC01538D448D252F30E0842F90E0821B25
:100A0000930B541710F0CF96089501970895FC01A9
:100A1000918D828D981761F0828DDF01A80FB11D35
:100A20005D968C91928D9F5F9F73928F90E0089559
:100A30008FEF9FEF0895FC01918D828D981731F013
:100A4000828DE80FF11D858D90E008958FEF9FEF67
:100A50000895FC01918D228D892F90E0805C9F4F3D
:100A6000821B91098F7399270895FC01848DDF0102
:100A7000A80FB11DA35ABF4F2C91848D90E0019611
:100A80008F739927848FA689B7892C93A089B18900
:100A90008C9180648C93938D848D981306C002880A
:100AA000F389E02D80818F7D80830895EF92FF92FE
:100AB0000F931F93CF93DF93EC0181E0888F9B8D81
:100AC0008C8D981305C0E889F989808185FD23C044
:100AD000F62E0B8D10E00F5F1F4F0F731127E02EC6
:100AE0008C8DE8120BC00FB607FCFACFE889F989A4
:100AF000808185FFF5CFCE01B8DFF2CF8B8DFE016F
:100B0000E80FF11DE35AFF4FF0820B8FEA89FB8952
:100B10008081806207C0EE89FF896083E889F98956
:100B200080818064808381E090E0DF91CF911F918C
:100B30000F91FF90EF900895CF93DF93EC01888D94
:100B40008823C1F0EA89FB89808185FD05C0A889D9
:100B5000B9898C9186FD0EC00FB607FCF5CF808158
:100B600085FFF2CFA889B9898C9185FFEDCFCE01A1
:100B70007CDFE8CFDF91CF91089586EA92E069DFCC
:100B800021E0892B09F420E0822F089580E090E095
:100B9000892B19F0F2DF811125C080E090E0892BCC
:100BA00041F080E090E0892B21F00E94000081114B
:100BB0001CC080E090E0892B41F080E090E0892B20
:100BC00021F00E940000811113C080E090E0892B89
:100BD000A1F080E090E0892B81F00E94000081115B
:100BE0000AC008950E940000D8CF0E940000E1CF03
:100BF0000E940000EACF0C9400000895CF92DF928B
:100C0000EF92FF920F931F93CF93DF936C017A01C2
:100C10008B01C0E0D0E0CE15DF0589F0D8016D91E1
:100C20008D01D601ED91FC910190F081E02DC6017E
:100C30001995892B11F47E0102C02196ECCFC701D2
:100C4000DF91CF911F910F91FF90EF90DF90CF90A8
:100C50000895089580E090E00895009761F0FC0108
:100C600001900020E9F73197AF01481B590BBC01F7
:100C700086EA92E0C3CF80E090E00895CF93DF93BF
:100C8000ECDFEC018CE392E0E8DF8C0F9D1FDF913D
:100C9000CF910895DCD6FC01808191815CC51F92C3
:100CA0000F920FB60F9211240BB60F922F933F9312
:100CB0004F935F936F937F938F939F93AF93BF9364
:100CC000EF93FF9386EA92E0D0DEFF91EF91BF9120
:100CD000AF919F918F917F916F915F914F913F91D4
:100CE0002F910F900BBE0F900FBE0F901F90189575
:100CF0001F920F920FB60F9211240BB60F922F93E3
:100D00008F939F93EF93FF93E091B602F091B70218
:100D10008081E091BC02F091BD0282FD12C0908101
:100D20008091BF028F5F8F732091C002821751F0B4
:100D3000E091BF02F0E0EA55FD4F958F8093BF022E
:100D400001C08081FF91EF919F918F912F910F9022
:100D50000BBE0F900FBE0F901F9018953FB7F894E1
:100D60008091810290918202A0918302B0918402CD
:100D700026B5A89B05C02F3F19F00196A11DB11DF6
:100D80003FBFBA2FA92F982F8827820F911DA11D31
:100D9000B11DBC01CD0142E0660F771F881F991F6E
:100DA0004A95D1F708951F920F920FB60F92112412
:100DB0002F933F938F939F93AF93BF9380917B0229
:100DC00090917C02A0917D02B0917E0230918002D0
:100DD00023E0230F2D3720F40196A11DB11D05C07E
:100DE00026E8230F0296A11DB11D20938002809357
:100DF0007B0290937C02A0937D02B0937E0280914F
:100E0000810290918202A0918302B09184020196A6
:100E1000A11DB11D8093810290938202A093830251
:100E2000B0938402BF91AF919F918F913F912F9189
:100E30000F900FBE0F901F901895EF92FF920F9397
:100E40001F93CF93DF93EC0190917F029F5F292F37
:100E5000277020937F0290FF02C090E801C090E0CD
:100E600021FD9064247009F0906220E1290FFE01B9
:100E70003C967E018FE0E80EF11C00E011E06191EC
:100E8000662329F070E0C8015ED36F5F01C060E0A7
:100E9000DF0114976C93322F369F030E30E0311D23
:100EA0001124CF010797311103C0EC01188203C050
:100EB0003150EC013883662311F061506C93EE15CC
:100EC000FF05E9F6DF91CF911F910F91FF90EF9011
:100ED00008958F929F92AF92BF92CF92DF92EF923E
:100EE000FF920F931F93CF93DF93CDB7DEB7A197F8
:100EF0000FB6F894DEBF0FBECDBF1092A9021092BC
:100F0000A80288EE93E0A0E0B0E08093AA0290935C
:100F1000AB02A093AC02B093AD028CE092E0909350
:100F2000A7028093A60285EC90E09093B302809391
:100F3000B20284EC90E09093B5028093B40280EC0E
:100F400090E09093B7028093B60281EC90E090938A
:100F5000B9028093B80282EC90E09093BB02809338
:100F6000BA0286EC90E09093BD028093BC0210928E
:100F7000BF021092C0021092C1021092C2021FEF73
:100F800010934703109249031092480310925303A1
:100F9000109252038FEF9FEFDC0180934E039093EA
:100FA0004F03A0935003B093510384E690E09093D5
:100FB00046038093450389E49FE0B5DC8AE59EE023
:100FC000E3DC1092560E82E49EE0ADDC83E59DE00A
:100FD000DBDC10924F0D8BE39DE0A5DC8CE49CE004
:100FE000D3DC1092480C84E39CE09DDC85E49BE01C
:100FF000CBDC1092410B8DE29BE095DC8EE39AE016
:10100000C3DC10923A0A86E29AE08DDC87E399E02D
:10101000BBDC1092330980919802811144C0109278
:101020008A021092890210938D0210938E021093FF
:101030008F0210939002109391021093920281E01C
:1010400080939302109295021092940210928C0257
:1010500010928B028091A0029091A102892B31F411
:1010600087E892E09093A1028093A002E09185022C
:10107000F0918602309721F087E892E0958384838F
:1010800087E892E0909386028093850210929702FF
:10109000109296028EE292E09093880280938702EB
:1010A00081E080939802E0918702F09188020480A9
:1010B000F581E02D87E892E0199584E593E090931F
:1010C0008A028093890289E190E09093950280934F
:1010D0009402E0918702F09188020284F385E02D6A
:1010E00087E892E01995009721F19C0140E050E0DB
:1010F00060E472E48FE090E05BD2722F632F009186
:101100004A0310914B0320914C0330914D03872FDC
:10111000962FDA0180179107A207B30710F4D901BF
:10112000C80180934A0390934B03A0934C03B09360
:101130004D0310924703E091A002F091A102309775
:1011400029F014860480F581E02DF9CF47EBE42ED9
:1011500041E0F42EF701249101E711E0F8018491B8
:10116000882399F090E0880F991FFC01E85FFE4FFB
:10117000A591B4918E5D9E4FFC01459154918FB71E
:10118000F8949C91292B2C938FBF2091A40230912D
:10119000A5028091A2029091A3022817390731F489
:1011A00080E290E09093A3028093A2026091A20259
:1011B0007091A3026130F0E17F0734F480E090E1A8
:1011C0009093010280930002CB0181519F4F909335
:1011D000A5028093A40270934403609343034FEEEF
:1011E00050E083E59DE07AD18091530D813009F480
:1011F00052C0E0913E0EF0913F0E80E8808383E084
:1012000082878FEF818381E08283C0904303D090F7
:10121000440323E5A22E2DE0B22E46018FEE880E68
:10122000911CC6016BD1F50161915F01861711F028
:10123000C6016CD1FFEFCF1ADF0AC814D90489F7B1
:101240008FE392E01BDDE0913E0EF0913F0E208196
:1012500030E040E050E019A26E0181E2C80ED11CDE
:101260009AE0892E912CA12CB12CCA01B901A501BB
:1012700094017CD1605DF60162936F012115310507
:101280004105510591F7CF01E8DC8CE392E0E5DC04
:1012900087E592E002C089E692E0F0DCEDEFF1E054
:1012A0008491F701E490F8010491002309F466C0E9
:1012B000882309F454C090E0FC013197E231F10534
:1012C00008F04DC08827EE58FF4F8F4F8DC1809199
:1012D00080008F7707C0809180008F7D03C0809150
:1012E0008000877F809380003AC084B58F7702C0EA
:1012F00084B58F7D84BD33C08091B0008F7703C0EB
:101300008091B0008F7D8093B00029C080919000C3
:101310008F7707C0809190008F7D03C080919000EF
:10132000877F809390001BC08091A0008F7707C0BB
:101330008091A0008F7D03C08091A000877F809363
:10134000A0000DC0809120018F7707C080912001FF
:101350008F7D03C080912001877F80932001E02F43
:10136000F0E0EE0FFF1FEE5DFE4FA591B4918FB739
:10137000F8949C91E094E922EC928FBF81E08093F5
:10138000490C80934A0C80934B0CA1960FB6F894AD
:10139000DEBF0FBECDBFDF91CF911F910F91FF90A8
:1013A000EF90DF90CF90BF90AF909F908F90089577
:1013B000789484B5826084BD84B5816084BD85B530
:1013C000826085BD85B5816085BD80916E0081603C
:1013D00080936E00109281008091810082608093E2
:1013E00081008091810081608093810080918000E4
:1013F0008160809380008091B10084608093B1000F
:101400008091B00081608093B000809191008260F3
:1014100080939100809191008160809391008091F0
:1014200090008160809390008091A1008260809301
:10143000A1008091A10081608093A1008091A00013
:1014400081608093A00080912101826080932101BE
:101450008091210181608093210180912001816030
:101460008093200180917A00846080937A0080913B
:101470007A00826080937A0080917A008160809304
:101480007A0080917A00806880937A001092C1007F
:101490007DDBFECF87E399E0F2D982E39AE0FBDBC4
:1014A0008EE39AE0ECD989E39BE0F5DB85E49BE0F1
:1014B000E6D980E49CE0EFDB8CE49CE0E0D987E4B3
:1014C0009DE0E9DB83E59DE0DAD98EE49EE0E3DB95
:1014D0008AE59EE0D4D985E59FE0DDCBDC01CB0138
:1014E000FC01F999FECF06C0F2BDE1BDF89A319634
:1014F00000B40D9241505040B8F70895F999FECFCD
:1015000092BD81BDF89A992780B50895262FF99943
:10151000FECF1FBA92BD81BD20BD0FB6F894FA9AD6
:10152000F99A0FBE01960895A29FB001B39FC00122
:10153000A39F700D811D1124911DB29F700D811DFF
:101540001124911D089597FB072E16F4009406D0E0
:1015500077FD08D057D007FC05D03EF490958195D3
:101560009F4F0895709561957F4F0895A1E21A2EBF
:10157000AA1BBB1BFD010DC0AA1FBB1FEE1FFF1F37
:10158000A217B307E407F50720F0A21BB30BE40B87
:10159000F50B661F771F881F991F1A9469F76095CE
:1015A0007095809590959B01AC01BD01CF01089588
:1015B000052E97FB16F400940FD057FD05D0D6DF0B
:1015C00007FC02D046F408C050954095309521950F
:1015D0003F4F4F4F5F4F089590958095709561955F
:1015E0007F4F8F4F9F4F0895EE0FFF1F881F8BBFB8
:1015F0000790F691E02D199497DFB7FF0895821BAD
:10160000930B0895AA1BBB1B51E107C0AA1FBB1F68
:10161000A617B70710F0A61BB70B881F991F5A957E
:10162000A9F780959095BC01CD010895CF93DF93E4
:101630008230910510F482E090E0E0915D0FF0912E
:101640005E0F20E030E0C0E0D0E0309711F1408143
:10165000518148175907C0F04817590761F4828132
:101660009381209719F09B838A832BC090935E0F00
:1016700080935D0F26C02115310519F042175307DD
:1016800018F49A01BE01DF01EF010280F381E02D21
:10169000DCCF2115310509F1281B390B2430310528
:1016A00090F412968D919C9113976115710521F01C
:1016B000FB019383828304C090935E0F80935D0F40
:1016C000FD01329644C0FD01E20FF31F8193919317
:1016D000225031092D933C933AC020915B0F3091F9
:1016E0005C0F232B41F420910402309105023093CA
:1016F0005C0F20935B0F20910202309103022115B1
:10170000310541F42DB73EB74091060250910702D2
:10171000241B350BE0915B0FF0915C0FE217F30790
:10172000A0F42E1B3F0B2817390778F0AC014E5F51
:101730005F4F2417350748F04E0F5F1F50935C0F23
:1017400040935B0F8193919302C0E0E0F0E0CF0102
:10175000DF91CF9108950F931F93CF93DF9300975D
:1017600009F48CC0FC0132971382128200915D0F44
:1017700010915E0F0115110581F420813181820FD6
:10178000931F20915B0F30915C0F2817390779F573
:10179000F0935C0FE0935B0F71C0D80140E050E024
:1017A000AE17BF0750F412962D913C911397AD01DF
:1017B0002115310509F1D901F3CF9D01DA013383F8
:1017C000228360817181860F971F8217930769F4C6
:1017D000EC0128813981260F371F2E5F3F4F31835F
:1017E00020838A819B8193838283452B29F4F09304
:1017F0005E0FE0935D0F42C01396FC93EE93129739
:10180000ED01499159919E01240F351FE217F3070D
:1018100071F480819181840F951F029611969C939B
:101820008E938281938113969C938E931297E0E01E
:10183000F0E0D80112968D919C911397009719F0C2
:10184000F8018C01F6CF8D919C9198012E5F3F4F4E
:10185000820F931F20915B0F30915C0F281739077F
:1018600069F4309729F410925E0F10925D0F02C058
:101870001382128210935C0F00935B0FDF91CF9164
:101880001F910F9108956F927F928F929F92AF92C6
:10189000BF92CF92DF92EF92FF920F931F93CF935D
:1018A000DF93EC01009781F4CB01DF91CF911F9181
:1018B0000F91FF90EF90DF90CF90BF90AF909F90EF
:1018C0008F907F906F90B2CEFC01E60FF71F9C01C6
:1018D00022503109E217F30708F4A8C0D9010D918D
:1018E0001C91119706171707A8F00530110508F489
:1018F0009BC0C80104978617970708F495C002504B
:101900001109061B170B019311936D937C93CF0163
:1019100022DF8AC05B01A01AB10A4C01800E911E21
:10192000A0915D0FB0915E0F40E050E0E12CF12CF2
:10193000109709F44AC0A815B905D1F56D907C90AF
:101940001197630182E0C80ED11CCA14DB0480F138
:10195000A3014A195B096A0182E0C80ED11C1296E4
:10196000BC9012971396AC91B5E0CB16D10440F021
:10197000B282A38351834083D9016D937C930AC0C3
:101980000E5F1F4FC301800F911FF9019183808368
:10199000EB2DFA2FE114F10431F0D7011396FC93EB
:1019A000EE93129741C0F0935E0FE0935D0F3CC041
:1019B0008D919C9111974817590708F4AC017D014E
:1019C00012960D90BC91A02DB3CF80915B0F90919A
:1019D0005C0F88159905E1F446175707C8F4809104
:1019E000020290910302009741F48DB79EB7409197
:1019F000060250910702841B950BE817F907B0F413
:101A0000F0935C0FE0935B0FF901718360830CC06E
:101A1000CB010CDE7C01009749F0A801BE011BD070
:101A2000CE0199DEC70104C0CE0102C080E090E083
:101A3000DF91CF911F910F91FF90EF90DF90CF90AA
:101A4000BF90AF909F908F907F906F90089581E0AE
:101A500090E0F89410C0FB01DC0102C001900D92EF
:101A600041505040D8F70895FB01DC0101900D92E0
:101A70000020E1F7089511E0C8E0D1E000E005C0E2
:101A8000802FFE01B1DD2196011DC930D10780E014
:081A90000807B1F7F894FFCF3D
:101A9800000200005F0F8000000000005605FE05F0
:101AA800F8049C05290507051B05000000004A06E7
:101AB8004A064A0647014301400100000000BA03F4
:101AC800FC033E01470143013B016A010D0A004541
:101AD8004550524F4D207C205361766564205365F4
:101AE8007474696E6773004D656D6F7279206973E0
:101AF80020696E76616C6964004D656D6F7279203E
:0A1B080069732076616C69642E0099
:00000001FF
