:1000000073C000009FC000009DC000009BC00000A6
:1000100099C0000097C0000095C0000093C0000088
:1000200091C000008FC000008DC000008BC0000098
:1000300089C0000087C0000085C0000083C00000A8
:1000400081C000007FC000007DC000007BC00000B8
:1000500079C0000077C0000075C00000C5C2000074
:1000600071C000008BC2000060C200006BC00000C5
:1000700069C0000067C0000065C0000063C00000E8
:1000800061C000005FC000005DC000005BC00000F8
:1000900059C0000057C0000055C0000053C0000008
:1000A00051C000004FC000004DC000004BC0000018
:1000B00049C0000047C0000045C0000043C0000028
:1000C00041C000003FC000003DC000003BC0000038
:1000D00039C0000037C0000035C0000033C0000048
:1000E00031C0000050033E0311241FBECFEFD1E208
:1000F000DEBFCDBF00E00CBF25E0AAE1B2E001C049
:100100001D92A83EB207E1F712E0A0E0B2E0E4EBF6
:10011000FCE000E00BBF02C007900D92AA31B107CE
:10012000D9F710E0C3E7D0E000E005C0219701094E
:10013000802FFE0181D3C237D10780E00807B1F7D5
:1001400009D3A7C55DCFFC01538D448D252F30E029
:10015000842F90E0821B930B541710F0CF960895D4
:1001600001970895FC01918D828D981761F0828D21
:10017000DF01A80FB11D5D968C91928D9F5F9F73DB
:10018000928F90E008958FEF9FEF0895FC01918D7D
:10019000828D981731F0828DE80FF11D858D90E0EA
:1001A00008958FEF9FEF0895FC01918D228D892F87
:1001B00090E0805C9F4F821B91098F73992708956F
:1001C000FC01848DDF01A80FB11DA35ABF4F2C91F4
:1001D000848D90E001968F739927848FA689B789C3
:1001E0002C93A089B1898C9180648C93938D848D9C
:1001F000981306C00288F389E02D80818F7D80836B
:100200000895EF92FF920F931F93CF93DF93EC012A
:1002100081E0888F9B8D8C8D981305C0E889F989C2
:10022000808185FD23C0F62E0B8D10E00F5F1F4FE0
:100230000F731127E02E8C8DE8120BC00FB607FC50
:10024000FACFE889F989808185FFF5CFCE01B8DF43
:10025000F2CF8B8DFE01E80FF11DE35AFF4FF082C4
:100260000B8FEA89FB898081806207C0EE89FF8954
:100270006083E889F98980818064808381E090E0EF
:10028000DF91CF911F910F91FF90EF900895CF9341
:10029000DF93EC01888D8823C1F0EA89FB89808196
:1002A00085FD05C0A889B9898C9186FD0EC00FB661
:1002B00007FCF5CF808185FFF2CFA889B9898C91A1
:1002C00085FFEDCFCE017CDFE8CFDF91CF910895A0
:1002D00083E292E069DF21E0892B09F420E0822F9C
:1002E000089580E090E0892B19F0F2DF811125C09C
:1002F00080E090E0892B41F080E090E0892B21F0B4
:100300000E94000081111CC080E090E0892B41F028
:1003100080E090E0892B21F00E940000811113C041
:1003200080E090E0892BA1F080E090E0892B81F0C3
:100330000E94000081110AC008950E940000D8CFD9
:100340000E940000E1CF0E940000EACF0C94000060
:100350000895CF92DF92EF92FF920F931F93CF9366
:10036000DF936C017A018B01C0E0D0E0CE15DF0590
:1003700089F0D8016D918D01D601ED91FC9101902C
:10038000F081E02DC6011995892B11F47E0102C080
:100390002196ECCFC701DF91CF911F910F91FF9074
:1003A000EF90DF90CF900895089580E090E0089559
:1003B000FC0180819181DDC2EF92FF920F931F9328
:1003C000CF93DF93EC018B519F4FF2DFCE018D5223
:1003D0009F4FEEDFCE018F539F4FEADFCE01815555
:1003E0009F4FE6DFCE0183569F4FE2DFCE01855758
:1003F0009F4FDEDF8E0103591F4FC8010C96D8DFD7
:100400007E018BE5E80EF11CE114F10449F00E15B4
:100410001F0531F002511109C8010C96C9DFF7CF51
:100420008E01095C1F4F51F0E016F10639F082E1B0
:10043000E81AF108C7010C96BBDFF6CF219649F008
:100440000C171D0731F002511109C8010C96B0DFDD
:10045000F7CFDF91CF911F910F91FF90EF9008950B
:1004600004D4CF93DF93EC011D861C861F861E8665
:10047000198A188A61E070E080E090E012D300975A
:1004800059F09D878C871F861E8628893989232BE2
:1004900089F4FC0110820EC08C859D85009709F0BF
:1004A00068D21D861C86198A188A1F861E86DF91CF
:1004B000CF910895198A188A68E172E0DF91CF918F
:1004C000E1C3CF93DF93EC010196CBDFCE014396DE
:1004D000C8DFCE018596C5DFCE01C796C2DFCE014B
:1004E000875B9F4FBEDFCE01855A9F4FBADFCE019B
:1004F00083599F4FB6DFCE0181589F4FB2DFCE01A7
:100500008F569F4FAEDFCE018D559F4FAADFCE0194
:100510008B549F4FA6DFCE0189539F4FA2DFCE01A0
:1005200087529F4FDF91CF919CCF1F920F920FB6B2
:100530000F9211240BB60F922F933F934F935F931B
:100540006F937F938F939F93AF93BF93EF93FF939B
:1005500083E292E035DEFF91EF91BF91AF919F91E1
:100560008F917F916F915F914F913F912F910F905C
:100570000BBE0F900FBE0F901F9018951F920F92F9
:100580000FB60F9211240BB60F922F938F939F9358
:10059000EF93FF93E0913302F09134028081E09178
:1005A0003902F0913A0282FD12C0908180913C02A2
:1005B0008F5F8F7320913D02821751F0E0913C02D2
:1005C000F0E0ED5DFD4F958F80933C0201C080818E
:1005D000FF91EF919F918F912F910F900BBE0F90F4
:1005E0000FBE0F901F9018951F920F920FB60F928B
:1005F00011242F933F938F939F93AF93BF93809139
:100600001F0290912002A0912102B091220230910C
:100610001E0223E0230F2D3720F40196A11DB11DEA
:1006200005C026E8230F0296A11DB11D20931E02CE
:1006300080931F0290932002A0932102B093220284
:1006400080911A0290911B02A0911C02B0911D0290
:100650000196A11DB11D80931A0290931B02A093D5
:100660001C02B0931D02BF91AF919F918F913F915A
:100670002F910F900FBE0F901F90189585ED92E06F
:100680009BDE80ED93E094DE8CED93E095DE87EDCC
:1006900094E08EDE83EE94E08FDE8EED95E088CEE2
:1006A000E3E2F2E01382128288EE93E0A0E0B0E091
:1006B00084839583A683B7838AE092E091838083C5
:1006C00085EC90E09587848784EC90E09787868717
:1006D00080EC90E0918B808B81EC90E0938B828B0F
:1006E00082EC90E0958B848B86EC90E0978B868BE8
:1006F000118E128E138E148EE0ECF2E08FEF808359
:1007000012821182148613868FEF9FEFDC0187839C
:100710009087A187B28784E690E09093CE02809381
:10072000CD0282ED95E09DDE83EE94E0CADE10926C
:10073000DF048BEC94E095DE8CED93E0C2DE10924A
:10074000D80384EC93E08DDE85ED92E0BADE109262
:10075000D1020895789484B5826084BD84B58160A7
:1007600084BD85B5826085BD85B5816085BD80917C
:100770006E00816080936E001092810080918100F4
:1007800082608093810080918100816080938100EC
:10079000809180008160809380008091B1008460AE
:1007A0008093B1008091B00081608093B00080910F
:1007B000910082608093910080919100816080938C
:1007C0009100809190008160809390008091A100C1
:1007D00082608093A1008091A10081608093A1003C
:1007E0008091A00081608093A000809121018260AF
:1007F000809321018091210181608093210180916A
:10080000200181608093200180917A008460809330
:100810007A0080917A00826080937A0080917A00D9
:10082000816080937A0080917A00806880937A005A
:100830001092C10056DDFECFEE0FFF1F881F8BBF49
:100840000790F691E02D1994CF93DF9382309105B4
:1008500010F482E090E0E091E605F091E70520E0F9
:1008600030E0C0E0D0E0309711F14081518148176D
:100870005907C0F04817590761F482819381209786
:1008800019F09B838A832BC09093E7058093E6053C
:1008900026C02115310519F04217530718F49A01A3
:1008A000BE01DF01EF010280F381E02DDCCF2115D5
:1008B000310509F1281B390B2430310590F41296CB
:1008C0008D919C9113976115710521F0FB01938324
:1008D000828304C09093E7058093E605FD0132967C
:1008E00044C0FD01E20FF31F81939193225031091F
:1008F0002D933C933AC02091E4053091E505232BDC
:1009000041F420910202309103023093E5052093D7
:10091000E40520910002309101022115310541F4D6
:100920002DB73EB74091040250910502241B350BB0
:10093000E091E405F091E505E217F307A0F42E1B22
:100940003F0B2817390778F0AC014E5F5F4F241733
:10095000350748F04E0F5F1F5093E5054093E405BF
:100960008193919302C0E0E0F0E0CF01DF91CF915D
:1009700008950F931F93CF93DF93009709F48CC0D2
:10098000FC013297138212820091E6051091E7056F
:100990000115110581F420813181820F931F20916F
:1009A000E4053091E5052817390779F5F093E50559
:1009B000E093E40571C0D80140E050E0AE17BF07F6
:1009C00050F412962D913C911397AD0121153105EC
:1009D00009F1D901F3CF9D01DA01338322836081CC
:1009E0007181860F971F8217930769F4EC012881A4
:1009F0003981260F371F2E5F3F4F318320838A8135
:100A00009B8193838283452B29F4F093E705E09340
:100A1000E60542C01396FC93EE931297ED014991BF
:100A200059919E01240F351FE217F30771F480815D
:100A30009181840F951F029611969C938E938281CB
:100A4000938113969C938E931297E0E0F0E0D80187
:100A500012968D919C911397009719F0F8018C01D3
:100A6000F6CF8D919C9198012E5F3F4F820F931F7F
:100A70002091E4053091E5052817390769F430978E
:100A800029F41092E7051092E60502C01382128243
:100A90001093E5050093E405DF91CF911F910F912D
:100AA00008956F927F928F929F92AF92BF92CF9252
:100AB000DF92EF92FF920F931F93CF93DF93EC019E
:100AC000009781F4CB01DF91CF911F910F91FF909F
:100AD000EF90DF90CF90BF90AF909F908F907F90DE
:100AE0006F90B2CEFC01E60FF71F9C012250310936
:100AF000E217F30708F4A8C0D9010D911C911197D2
:100B000006171707A8F00530110508F49BC0C801A7
:100B100004978617970708F495C002501109061B21
:100B2000170B019311936D937C93CF0122DF8AC041
:100B30005B01A01AB10A4C01800E911EA091E6053E
:100B4000B091E70540E050E0E12CF12C109709F45A
:100B50004AC0A815B905D1F56D907C901197630135
:100B600082E0C80ED11CCA14DB0480F1A3014A192B
:100B70005B096A0182E0C80ED11C1296BC901297E4
:100B80001396AC91B5E0CB16D10440F0B282A383AA
:100B900051834083D9016D937C930AC00E5F1F4F30
:100BA000C301800F911FF90191838083EB2DFA2FF0
:100BB000E114F10431F0D7011396FC93EE931297F0
:100BC00041C0F093E705E093E6053CC08D919C9110
:100BD00011974817590708F4AC017D0112960D9042
:100BE000BC91A02DB3CF8091E4059091E5058815C7
:100BF0009905E1F446175707C8F4809100029091D7
:100C00000102009741F48DB79EB7409104025091C4
:100C10000502841B950BE817F907B0F4F093E5057E
:100C2000E093E405F901718360830CC0CB010CDE15
:100C30007C01009749F0A801BE011BD0CE0199DECE
:100C4000C70104C0CE0102C080E090E0DF91CF91E7
:100C50001F910F91FF90EF90DF90CF90BF90AF90DA
:100C60009F908F907F906F90089581E090E0F8942E
:100C700010C0FB01DC0102C001900D9241505040B8
:100C8000D8F70895FB01DC0101900D920020E1F7F7
:100C9000089510E0C3E7D0E000E005C0802FFE011A
:100CA000CBDD2196011DC437D10780E00807B1F7DD
:040CB000F894FFCFE6
:100CB4000000E8058000000000000101A901A30074
:0A0CC4004701D400B200C600000092
:00000001FF
