:100000000C9462000C948A000C948A000C948A0070
:100010000C948A000C948A000C948A000C948F0231
:100020000C948A000C948A000C948A000C948A0028
:100030000C948A000C948A000C948A000C948A0018
:100040000C9445020C948A000C94A7010C94810135
:100050000C948A000C948A000C948A000C948A00F8
:100060000C948A000C948A000000000023002600F3
:10007000290000000000240027002A0000000000E2
:10008000250028002B0004040404040404040202D4
:100090000202020203030303030301020408102007
:1000A0004080010204081020010204081020000012
:1000B0000008000201000003040700000000000027
:1000C0000000980D11241FBECFEFD8E0DEBFCDBFDA
:1000D00011E0A0E0B1E0E2EEF0E202C005900D9286
:1000E000A033B107D9F722E0A0E3B1E001C01D922F
:1000F000A53CB207E1F710E0C2E6D0E004C02197CA
:10010000FE010E945510C136D107C9F70E9457045D
:100110000C946F100C940000FC01918D828D981747
:1001200061F0828DDF01A80FB11D5D968C91928DDB
:100130009F5F9F73928F90E008958FEF9FEF0895D8
:10014000FC01918D828D981731F0828DE80FF11DA1
:10015000858D90E008958FEF9FEF0895FC01918DBC
:10016000228D892F90E0805C9F4F821B91098F73B5
:100170009927089585E591E00E94AE0021E0892B42
:1001800009F420E0822F0895FC01848DDF01A80F7F
:10019000B11DA35ABF4F2C91848D90E001968F73AF
:1001A0009927848FA689B7892C93A089B1898C91CE
:1001B00080648C93938D848D981306C00288F38994
:1001C000E02D80818F7D80830895EF92FF920F93C1
:1001D0001F93CF93DF93EC0181E0888F9B8D8C8DF3
:1001E000981305C0E889F989808185FD24C0F62E21
:1001F0000B8D10E00F5F1F4F0F731127E02E8C8DBA
:10020000E8120CC00FB607FCFACFE889F9898081A3
:1002100085FFF5CFCE010E94C400F1CF8B8DFE018A
:10022000E80FF11DE35AFF4FF0820B8FEA89FB893B
:100230008081806207C0EE89FF896083E889F9893F
:1002400080818064808381E090E0DF91CF911F9175
:100250000F91FF90EF900895CF93DF93EC01888D7D
:100260008823C9F0EA89FB89808185FD05C0A889BA
:10027000B9898C9186FD0FC00FB607FCF5CF808140
:1002800085FFF2CFA889B9898C9185FFEDCFCE018A
:100290000E94C400E7CFDF91CF91089580E090E005
:1002A000892B29F00E94BA0081110C940000089556
:1002B000833081F028F4813099F08230A1F00895E4
:1002C0008730A9F08830B9F08430D1F48091800073
:1002D0008F7D03C0809180008F7780938000089588
:1002E00084B58F7702C084B58F7D84BD08958091D9
:1002F000B0008F7703C08091B0008F7D8093B000F5
:1003000008951F920F920FB60F9211242F933F93CF
:100310004F935F936F937F938F939F93AF93BF930D
:10032000EF93FF9385E591E00E94C400FF91EF9168
:10033000BF91AF919F918F917F916F915F914F91FD
:100340003F912F910F900FBE0F901F9018951F9205
:100350000F920FB60F9211242F938F939F93EF93C9
:10036000FF93E0916501F09166018081E0916B015E
:10037000F0916C0182FD12C0908180916E018F5FBF
:100380008F7320916F01821751F0E0916E01F0E0C0
:10039000EB5AFE4F958F80936E0101C08081FF91D3
:1003A000EF919F918F912F910F900FBE0F901F9003
:1003B00018951F93CF93DF93282F30E0F901E25572
:1003C000FF4F8491F901E656FF4FD491F901EA57A6
:1003D000FF4FC491CC23C9F0162F81110E94580100
:1003E000EC2FF0E0EE0FFF1FE458FF4FA591B49102
:1003F0008FB7F894111105C09C91ED2FE095E9237A
:1004000002C0EC91ED2BEC938FBFDF91CF911F9148
:100410000895CF93DF9390E0FC01E656FF4F2491BF
:10042000FC01EA57FF4F8491882361F190E0880F27
:10043000991FFC01EE58FF4FC591D491FC01E4587F
:10044000FF4FA591B491611109C09FB7F8948881BD
:10045000209582238883EC912E230BC0623061F4B7
:100460009FB7F8943881822F809583238883EC91FD
:100470002E2B2C939FBF06C08FB7F894E8812E2BAC
:1004800028838FBFDF91CF9108951F920F920FB6EF
:100490000F9211242F933F938F939F93AF93BF930A
:1004A0008091300190913101A0913201B0913301DE
:1004B0003091440123E0230F2D3720F40196A11D34
:1004C000B11D05C026E8230F0296A11DB11D209382
:1004D00044018093300190933101A0933201B09395
:1004E00033018091400190914101A0914201B0916E
:1004F00043010196A11DB11D8093400190934101DC
:10050000A0934201B0934301BF91AF919F918F910E
:100510003F912F910F900FBE0F901F9018951F9233
:100520000F920FB60F9211242F933F934F935F9327
:100530006F937F938F939F93AF93BF93CF93DF93EB
:10054000EF93FF932091F30130E0F901E255FF4F63
:100550008491F901E656FF4FD491F901EA57FF4F14
:10056000C491CC23A1F081110E945801EC2FF0E03E
:10057000EE0FFF1FE859FF4FA591B491EC91ED23C9
:1005800031E020E009F430E0832F922F02C080E0B8
:1005900090E02091F7013091F8012F5F3F4F3093A9
:1005A000F8012093F7012091F601253618F026E096
:1005B0002093F2012091F2012430D9F128F4223065
:1005C00069F02330D9F060C0253009F453C02630DB
:1005D00009F05AC021E02093C30253C0009709F0EC
:1005E00053C02091F7013091F8012436310508F409
:1005F00043C01092C3021092F6011DC081309105D4
:1006000009F042C0E091F60121E02E0F2093F6019F
:10061000F0E02091F7013091F801EE0FFF1FEE504E
:10062000FE4F308727831092F8011092F70124E0E3
:1006300029C00097B9F4E091F60121E02E0F209334
:10064000F601F0E02091F7013091F801EE0FFF1F65
:10065000EE50FE4F308727831092F8011092F70179
:1006600023E010C02091F7013091F80125363105C3
:1006700058F007C0009741F41092F8011092F7016A
:1006800003C025E02093F2012091F5012223B9F067
:10069000892B51F48091F401882321F08091F40199
:1006A00061E009C02D9A0BC08091F401882331F0DC
:1006B0008091F40160E00E94D90101C02D98FF9162
:1006C000EF91DF91CF91BF91AF919F918F917F91EA
:1006D0006F915F914F913F912F910F900FBE0F90AF
:1006E0001F901895CF92DF92EF92FF92CF93DF93F6
:1006F000EC01072E000C880B990B0E94E60E6B0193
:100700007C0120E030E040E45FE30E94960F20E0AF
:1007100030E048E452E40E943C0E0E94AE0EC61740
:10072000D707D4F020E030E040EA5FE3C701B6012C
:100730000E94960F20E030E048E452E40E943C0E14
:1007400020E030E040E85FE30E94CB0D0E94AE0E57
:1007500021E06C177D070CF420E0822F90E0DF9100
:10076000CF91FF90EF90DF90CF900895CF92DF92DE
:10077000EF92FF920F931F93CF93DF936C017A0157
:100780008B01C0E0D0E0CE15DF0589F0D8016D9176
:100790008D01D601ED91FC910190F081E02DC60113
:1007A0000995892B11F47E0102C02196ECCFC70177
:1007B000DF91CF911F910F91FF90EF90DF90CF903D
:1007C00008950E946A108F929F92AF92BF92CF922B
:1007D000DF92EF92FF920F931F93CF93DF93FC0171
:1007E000C081D1812091510130915201C217D307AC
:1007F0000CF04BC09E01220F331FE0914F01F0918E
:100800005001E20FF31F80809180C170DD27F1E07D
:10081000CF27209719F404E610E002C00CE91FEF7F
:100820007A015B016C01040F151FB801C4010E941D
:100830007203892B99F40E0D1F1DB801C4010E948B
:100840007203892B71F4B8016E0D7F1DC4010E94E3
:100850007203892BE9F023E030E005C021E030E0AD
:1008600002C022E030E0F50180819181019682177B
:1008700093073CF0F50111821082F601808191818D
:10088000019691838083CE0105C081E090E002C093
:100890008FEF9FEFDF91CF911F910F91FF90EF901E
:1008A000DF90CF90BF90AF909F908F900895CF939F
:1008B000DF93CDB7DEB72C970FB6F894DEBF0FBE2F
:1008C000CDBF789484B5826084BD84B5816084BDD9
:1008D00085B5826085BD85B5816085BD80916E00DE
:1008E000816080936E00109281008091810082600F
:1008F000809381008091810081608093810080914C
:1009000080008160809380008091B100846080933A
:10091000B1008091B00081608093B00080917A0036
:10092000846080937A0080917A00826080937A005C
:1009300080917A00816080937A0080917A0080684B
:1009400080937A001092C100E0916501F0916601F8
:1009500082E08083E0916101F09162011082E09178
:100960006301F091640190E1908310926D01E09138
:100970006901F0916A0196E09083E0916701F0913E
:100980006801908190619083E0916701F091680126
:10099000908198609083E0916701F0916801908167
:1009A00090689083E0916701F091680190819F7D4C
:1009B0009083F8948093B0008093B10094E6909374
:1009C000B3001092B2008093700078948093F2018B
:1009D0001092F6018091F30160E00E9409024BE160
:1009E00050E060E171E085E591E00E94B60342E0ED
:1009F00050E06CE271E085E591E00E94B60361E0B1
:100A00008DE00E94090261E082E00E94090261E03B
:100A100083E00E94090261E085E00E94090261E032
:100A200086E00E94090261E087E00E94090261E01D
:100A300088E00E94090261E089E00E94090210E258
:100A4000212E312C44244A94542C320129EF31E0D8
:100A50003093500120934F018091F60190E09093E4
:100A60005201809351018091C30290E09093540110
:100A7000809353018091F201853009F0ECC180919F
:100A8000FB019091FC01885891098D35910588F4FE
:100A90008091F601843041F48091FD019091FE0136
:100AA0008097479708F4A2C38091F601843408F038
:100AB00084C38091F6018A3108F44FC08091F90116
:100AC0009091FA01843F914068F410924E01109287
:100AD0004D014092490150924A0160924B0170923F
:100AE0004C0159C08091FB019091FC0185974B9777
:100AF000A0F5EFEFF1E082E090E0C12CD12C76017F
:100B0000AC014F5F5F4F2091F60130E04217530771
:100B10005CF4DF0112972D913C9127503109273069
:100B2000310508F4ADC3CA01019795958795909357
:100B30004E0180934D010C972CF410924E011092AF
:100B40004D010BC0C0924901D0924A01E0924B0185
:100B5000F0924C0184E090E0CCC48091F6018A319F
:100B600008F44CC08091F9019091FA0180329340D1
:100B700008F4ABCF8091FB019091FC01C69786975A
:100B800008F49BC33BC0C0924901D0924A01E09255
:100B90004B01F0924C018BE090E0ABC4208131819D
:100BA000255231092B31310508F097C3CC0CDD1CDF
:100BB000EE1CFF1C6894C0F802963496AC014F5F9F
:100BC0005F4F2091F60130E04217530754F4DF01E4
:100BD00012972D913C912C5031092B303105F0F2B8
:100BE000CA0101979595879590934E0180934D0189
:100BF0000C974CF610924E0110924D018091F60127
:100C00008232E8F18091FB019091FC0106970797F1
:100C1000B0F5EFEFF1E082E090E0C12CD12C76014D
:100C20009C012F5F3F4F4091F60150E0241735079C
:100C30006CF4DF0112974D915C9111974E5151095F
:100C40004731510508F46DC355C3C9010197959506
:100C5000879590934E0180934D0140972CF410920C
:100C60004E0110924D010BC0C0924901D0924A0131
:100C7000E0924B01F0924C018CE090E03AC41C826F
:100C80001B8221E030E03A8329838091F6018D3088
:100C900008F46BC049E753E0BE016D5F7F4FCE01A2
:100CA00001960E94E303892B09F05FC049E753E0F6
:100CB000BE016D5F7F4FCE0101960E94E303019755
:100CC00009F053C049E753E0BE016D5F7F4FCE018D
:100CD00001960E94E303892B09F047C0812C912CD7
:100CE000540100E010E08091F60190E029813A8102
:100CF000281739075CF549E753E0BE016D5F7F4F68
:100D0000CE0101960E94E3037C0149E753E0BE0156
:100D10006D5F7F4FCE0101960E94E30331E0E31641
:100D2000F10449F4892B09F5880C991CAA1CBB1CF9
:100D3000689480F808C0EF28C1F40197B1F4880CDA
:100D4000991CAA1CBB1C0F5F1F4FCDCF10934E01E7
:100D500000934D018092490190924A01A0924B016B
:100D6000B0924C0181E090E0C4C31C821B82A1E0E0
:100D7000B0E0BA83A9838091510190915201181675
:100D800019060CF058C0E0914F01F091500182E03B
:100D900090E09A8389838281938189974E9708F0A6
:100DA0004AC083E090E09A838983848195810B9780
:100DB0000A9708F040C04CEB51E0BE016D5F7F4FD9
:100DC000CE0101960E94E303892BA9F54CEB51E07B
:100DD000BE016D5F7F4FCE0101960E94E303019734
:100DE00051F5812C912C540100E010E029813A81C9
:100DF0008091510190915201281739070CF0CEC211
:100E00004CEB51E0BE016D5F7F4FCE0101960E9419
:100E1000E3036C010330110509F08AC24CEB51E089
:100E2000BE016D5F7F4FCE0101960E94E303C8169D
:100E3000D90609F47DC2E0914F01F0915001828101
:100E40009381C697869708F4B8C258C382E080930E
:100E5000F2011092F60160913A0182E00E94D901FC
:100E600010913901612F83E00E94D901612F8DE03B
:100E70000E94D90181E08093340180913C019091DE
:100E80003D01A0913E01B0913F01873A38E59307BB
:100E90003DEFA307B10509F40DC108F053C08F3D24
:100EA000F0E29F07FDEFAF07B10509F4B3C008F505
:100EB000873F28E092072DEFA207B10509F4D5C0BE
:100EC00040F48F3F9105AD4FB10509F005C160E0D9
:100ED0008BC08F3EF0E19F07FDEFAF07B10509F42E
:100EE000A9C0873E9841AD4FB10509F0F5C060E05B
:100EF000D8C08F3B20E492072DEFA207B10509F47B
:100F000087C080F4873DE8E29E07EDEFAE07B105AC
:100F100009F4B5C08F3C9043AD4FB10509F0DCC07A
:100F200061E090C0873B18E491071DEFA107B10570
:100F300009F4A3C08F3A9045AD4FB10509F0CCC07C
:100F400060E080C0873738E893073DEFA307B1051D
:100F500009F48DC008F58739F8E69F07FDEFAF0764
:100F6000B10509F498C040F48F399046AD4FB105F2
:100F700009F0B2C061E055C08F3830E793073DEF0C
:100F8000A307B10509F46BC08F379048AD4FB10589
:100F900009F0A2C061E028C08F35F0EA9F07FDEF9D
:100FA000AF07B105E9F180F48F3620E992072DEF04
:100FB000A207B10509F440C087369849AD4FB10585
:100FC00009F08AC061E06DC08735E8EA9E07EDEF61
:100FD000AE07B10509F45DC08F34904BAD4FB1053C
:100FE00009F07AC060E03CC085E00E94D90160E071
:100FF00086E00E94D90160E087E00E94D90160E0AC
:1010000088E00E94D90160E089E00E94D90166C0B1
:1010100060E001C061E085E00E94D90161E0E8CFB5
:1010200060E085E00E94D90160E086E00E94D9017D
:1010300061E0E2CF60E001C061E085E00E94D9019B
:1010400061E0F3CF85E00E94D90160E086E00E9474
:10105000D90160E087E00E94D90161E0D1CF61E071
:1010600085E00E94D90161E0F1CF60E001C061E05C
:1010700085E00E94D90160E007C060E001C061E046
:1010800085E00E94D90161E086E00E94D90161E01B
:10109000E1CF60E001C061E085E00E94D90160E03D
:1010A00004C085E00E94D90161E086E00E94D90178
:1010B00060E009C060E085E00E94D90160E086E060
:1010C0000E94D90161E087E00E94D90160E088E0D8
:1010D0000E94D90161E098CF109234012FB7F894A3
:1010E0008091300190913101A0913201B091330192
:1010F0002FBF4091350150913601609137017091B9
:101100003801841B950BA60BB70B843F9140A105BA
:10111000B10520F01092390110923B0180913C0101
:1011200090913D01A0913E01B0913F018F3F9F4FB3
:10113000AF4FBF4F99F42FB7F89480913001909141
:101140003101A0913201B09133012FBF809335015D
:1011500090933601A0933701B093380180913B0101
:10116000833031F482E080933B0181E08093390148
:1011700080913C0190913D01A0913E01B0913F01D1
:101180000197A109B1098E3F9F4FAF4FBF4F50F458
:1011900080913401882331F090913A0181E08927D0
:1011A00080933A0110923C0110923D0110923E0151
:1011B00010923F010E944E0149CC8091FD01909117
:1011C000FE01825491098E9708F073CC80E090E084
:1011D00040E050E0BA01FC01E150FE4F2081318136
:1011E0002950310929303105C0F063CC8091FF01CD
:1011F000909100020997099708F056CC10924E0181
:1012000010924D014092490150924A0160924B0167
:1012100070924C0183E090E06CC1FC01EF5FFD4FE8
:10122000208131812751310922313105E0F4440F09
:10123000551F661F771F416004968038910559F647
:1012400030924E0120924D014093490150934A0142
:1012500060934B0170934C01A3E0B0E0B093460162
:10126000A0934501BBC1208131812650310927302F
:10127000310508F01ECC440F551F661F771FDCCFC9
:1012800020813181235131092F30310578F02081BF
:1012900031812A5031092930310508F05ECCCC0C5F
:1012A000DD1CEE1CFF1C029634962ACCCC0CDD1CF7
:1012B000EE1CFF1C6894C0F8F6CF8091FD01909160
:1012C000FE01C697869708F099CCE1E0F2E083E052
:1012D00090E0C12CD12C760171CC208131812C5031
:1012E00031092A30310508F089CCCC0CDD1CEE1C0C
:1012F000FF1C62CC4D915C914C5051094B30510513
:1013000008F0BDCCCC0CDD1CEE1CFF1C40815181D3
:101310003496435051094530510508F096CC029659
:101320007FCCCC0CDD1CEE1CFF1C6894C0F8EECF0B
:101330004CEB51E0BE016D5F7F4FCE0101960E94E4
:10134000E3037C010330110569F44CEB51E0BE016D
:101350006D5F7F4FCE0101960E94E303E816F90608
:1013600009F069CDC114D10459F4EA94EF2809F0C9
:1013700062CD880C991CAA1CBB1C689480F80BC019
:10138000CA94CD2809F057CDEF2809F054CD880C28
:10139000991CAA1CBB1C0F5F1F4F28CD10934E0138
:1013A00000934D018092490190924A01A0924B0115
:1013B000B0924C0182E090E09CC0848195814B9773
:1013C000459708F09BC0DF0116966F0196ECC90E99
:1013D000D11C20E030E040E050E060E070E080E0D0
:1013E00090E0ED90FC90119719E0E11AF10818E0F7
:1013F000E116F10408F082C01296ED90FC9013976C
:1014000011E1E11AF1081DE0E116F10420F501E017
:101410000E941E1021601496AC15BD0511F7209393
:10142000490130934A0140934B0150934C0100E233
:101430000E943910209347013093480185E090E0E5
:10144000909346018093450180E390E090934E0194
:1014500080934D01C3C01296ED90FC90139714E059
:10146000E11AF10815E0E116F10408F047C001E0C7
:101470000E941E10D0CFA80142505109DA014D91AF
:101480005C91495051094830510508F01AC1BC011E
:101490006F5F7F4FD8014D915C91475051094730A4
:1014A000510508F0FBC2220F331F216002960C5F2A
:1014B0001F4F4091F60150E04450510984179507A1
:1014C000D4F201979595879590934E0180934D01A5
:1014D0008A970CF4F6C0C901330FAA0BBB0B80939B
:1014E000490190934A01A0934B01B0934C0189E0CC
:1014F00090E0909346018093450170C08091F60181
:10150000893340F082819381895791098335910510
:1015100008F47DC18091F601823209F47AC082819B
:101520009381895791098335910508F079C080919D
:10153000F601813208F474C084819581CA97899735
:1015400008F06EC09F012A5F3F4FC12CD12C76015D
:1015500043E050E0D9016D917C916A507109693086
:10156000710508F05DC0D90112966D917C911397B9
:10157000665171096131710508F0CAC1D701C60110
:10158000880F991FAA1FBB1F6C017D016894C0F8CA
:101590004E5F5F4F2C5F3F4F43325105D9F69F019D
:1015A0002A5B3F4FD9012D913C912A5031092930B6
:1015B0003105B0F5E0E1F0E0F0934E01E0934D012C
:1015C000C0924901D0924A01E0924B01F0924C0145
:1015D00026E030E030934601209345018091490197
:1015E00090914A01A0914B01B0914C0180933C0134
:1015F00090933D01A0933E01B0933F0182E0809320
:10160000F2011092F60180913B018F5F80933B01C4
:1016100022CC828193810A97099708F457C17FCF22
:10162000828193818C549109C59778F48091F60159
:10163000843031F4848195818097479708F491C173
:101640008091F601843408F073C18091F6018634EC
:1016500060F1828193810C970B9708F4CBC125C070
:10166000D90112966D917C9113976E517109673172
:10167000710508F0DAC1D701C601880F991FAA1FAA
:10168000BB1F6C017D016894C0F84E5F5F4F2C5FFB
:101690003F4F4534510509F4D7C1D9016D917C9173
:1016A0006C5071096B307105D8F28091F601883564
:1016B00040F082819381855891098B35910508F41A
:1016C000DEC18091F6018032E1F482819381069738
:1016D0000697B8F4848195810997099790F49F0142
:1016E0002A5F3F4FBF01625C7F4FC12CD12C760136
:1016F000D9014D915C91465051094630510508F48D
:10170000DAC1209151013091520138872F83263060
:1017100031050CF49BCB8F010A5F1F4F95ECC92E4E
:101720009DE9D92E9CE1E92E91E8F92E83E090E025
:101730009E838D83D8016D917C91F8013497A080B0
:10174000B18080E090E00E94E40E69877A878B8701
:101750009C87B50180E090E00E94E40E4B015C01A3
:101760002DEC3CEC4CE45FE30E94960F9B01AC0136
:1017700069857A858B859C850E94370E87FD19C007
:101780002DEC3CEC4CE45FE369857A858B859C8588
:101790000E94960F9B01AC01C501B4010E94370E57
:1017A000E82F880FFF0BEE27FF0FEE1FFF27319664
:1017B00002C0E0E0F0E0A701960163E971E080E09B
:1017C00091E00E9403106F01FF0FEE08FF08C6268C
:1017D000D726E826F926ED81FE813196FE83ED833A
:1017E0000E5F1F4F2F813885E217F30709F0A2CF54
:1017F000C0924901D0924A01E0924B01F0924C0113
:1018000030924E0120924D018FEF9FEF72CE848176
:101810009581CA97899708F07DCE9F012A5F3F4F37
:10182000C12CD12C760143E050E0D9016D917C911F
:101830006A5071096930710508F06CCED9011296B1
:101840006D917C911397665171096131710570F545
:10185000D701C601880F991FAA1FBB1F6C017D010C
:101860006894C0F84E5F5F4F2C5F3F4F4B3351057C
:10187000E1F69F012A583F4FD9012D913C912A5002
:1018800031092930310508F045CE2CE130E03093A4
:101890004E0120934D01C0924901D0924A01E0923D
:1018A0004B01F0924C018AE090E023CED9011296D0
:1018B0006D917C911397665071096730710508F03E
:1018C00029CECC0CDD1CEE1CFF1CCCCF2091F601E8
:1018D000CF01820F911D820F911DDC0112978D9116
:1018E0009C910A97099708F01ACE10924E01109217
:1018F0004D014092490150924A0160924B01709211
:101900004C01E6E0F0E0F0934601E093450166CE3D
:10191000D90112966D917C911397665071096730C9
:10192000710508F07DCECC0CDD1CEE1CFF1C30CE0A
:101930008481958189549109C39708F086CE9F01CF
:101940002A5F3F4FBF016A577F4FC12CD12C7601D0
:10195000D9014D915C914950510949305105A0F090
:1019600074CE868197810997099708F069CE109205
:101970004E0110924D014092490150924A016092ED
:101980004B0170924C01D1C0D90112964D915C91DE
:1019900013974651510941315105E0F4D701C60171
:1019A000880F991FAA1FBB1F6C017D016894C0F8A6
:1019B0002C5F3F4F2617370759F630924E01209281
:1019C0004D01C0924901D0924A01E0924B01F09240
:1019D0004C01ABC0D90112964D915C9113974650C2
:1019E00051094730510508F030CECC0CDD1CEE1CFF
:1019F000FF1CDECF848195810997099708F055CEA9
:101A0000868197818C974F9708F04FCE808591857E
:101A100089974D9708F049CE9F01265F3F4FC12C13
:101A2000D12C760145E050E038CE12966D917C9134
:101A30001397695071096930710508F036CECC0CE6
:101A4000DD1CEE1CFF1C21CE9F0126573F4FD90104
:101A50002D913C912C5031092B30310508F025CEC9
:101A600030924E0120924D01C0924901D0924A011C
:101A7000E0924B01F0924C0188E090E03ACD8481F5
:101A80009581825491098E9708F01BCE8F01045CDA
:101A90001F4F8DE190E020E030E00BCDD8014D915B
:101AA0005C91485151094231510510F0CB0109CDEB
:101AB000220F331FFBCCD90112964D915C911397E5
:101AC000495151094331510528F112964D915C91CC
:101AD0001397495051094930510508F012CECC0CEA
:101AE000DD1CEE1CFF1C2C5F3F4F2617370709F04B
:101AF000FFCD2EE030E030934E0120934D01C09297
:101B00004901D0924A01E0924B01F0924C018FE0E2
:101B100090E0EFCCD701C601880F991FAA1FBB1F09
:101B20006C017D016894C0F8DECF87E090E0E1CCE5
:101B3000E5E5F1E01382128288EE93E0A0E0B0E0E8
:101B400084839583A683B78384E091E09183808327
:101B500085EC90E09587848784EC90E09787868772
:101B600080EC90E0918B808B81EC90E0938B828B6A
:101B700082EC90E0958B848B86EC90E0978B868B43
:101B8000118E128E138E148EE2EFF1E084E08183C9
:101B9000138208955058BB27AA270E94E20D0C9487
:101BA0005C0F0E944E0F38F00E94550F20F039F460
:101BB0009F3F19F426F40C944B0F0EF4E095E7FBCD
:101BC0000C94450FE92F0E946D0F58F3BA17620766
:101BD00073078407950720F079F4A6F50C948F0F0E
:101BE0000EF4E0950B2EBA2FA02D0B01B901900138
:101BF0000C01CA01A0011124FF27591B99F0593F7C
:101C000050F4503E68F11A16F040A22F232F342FC3
:101C10004427585FF3CF469537952795A795F04011
:101C20005395C9F77EF41F16BA0B620B730B840B26
:101C3000BAF09150A1F0FF0FBB1F661F771F881FDE
:101C4000C2F70EC0BA0F621F731F841F48F4879536
:101C500077956795B795F7959E3F08F0B0CF939528
:101C6000880F08F09927EE0F9795879508950E94A1
:101C7000210F08F481E008950E94500E0C945C0F2F
:101C80000E94550F58F00E944E0F40F029F45F3F1C
:101C900029F00C94450F51110C94900F0C944B0F9C
:101CA0000E946D0F68F39923B1F3552391F3951BAF
:101CB000550BBB27AA2762177307840738F09F5F6D
:101CC0005F4F220F331F441FAA1FA9F335D00E2EDA
:101CD0003AF0E0E832D091505040E695001CCAF747
:101CE0002BD0FE2F29D0660F771F881FBB1F26170A
:101CF00037074807AB07B0E809F0BB0B802DBF01E1
:101D0000FF2793585F4F3AF09E3F510578F00C94AF
:101D1000450F0C94900F5F3FE4F3983ED4F3869503
:101D200077956795B795F7959F5FC9F7880F911DD0
:101D30009695879597F90895E1E0660F771F881FBC
:101D4000BB1F621773078407BA0720F0621B730B6F
:101D5000840BBA0BEE1F88F7E09508950E94B50E2C
:101D60006894B1110C94900F08950E94750F88F03B
:101D70009F5798F0B92F9927B751B0F0E1F0660F4F
:101D8000771F881F991F1AF0BA95C9F714C0B13090
:101D900091F00E948F0FB1E008950C948F0F672F80
:101DA000782F8827B85F39F0B93FCCF386957795BF
:101DB0006795B395D9F73EF49095809570956195A8
:101DC0007F4F8F4F9F4F0895E89409C097FB3EF4D3
:101DD00090958095709561957F4F8F4F9F4F992378
:101DE000A9F0F92F96E9BB279395F69587957795F6
:101DF0006795B795F111F8CFFAF4BB0F11F460FFB6
:101E00001BC06F5F7F4F8F4F9F4F16C0882311F00D
:101E100096E911C0772321F09EE8872F762F05C021
:101E2000662371F096E8862F70E060E02AF09A95BC
:101E3000660F771F881FDAF7880F9695879597F9B1
:101E40000895990F0008550FAA0BE0E8FEEF16164B
:101E50001706E807F907C0F012161306E407F5079E
:101E600098F0621B730B840B950B39F40A2661F012
:101E7000232B242B252B21F408950A2609F4A140B5
:101E8000A6958FEF811D811D089597F99F6780E8C2
:101E900070E060E008959FEF80EC089500240A94BC
:101EA0001616170618060906089500240A94121635
:101EB0001306140605060895092E0394000C11F468
:101EC000882352F0BB0F40F4BF2B11F460FF04C015
:101ED0006F5F7F4F8F4F9F4F089557FD9058440F6E
:101EE000551F59F05F3F71F04795880F97FB991F79
:101EF00061F09F3F79F08795089512161306140636
:101F0000551FF2CF4695F1DF08C0161617061806C2
:101F1000991FF1CF86957105610508940895E8949D
:101F2000BB2766277727CB0197F908950E94A90F51
:101F30000C945C0F0E944E0F38F00E94550F20F059
:101F4000952311F00C94450F0C944B0F11240C9415
:101F5000900F0E946D0F70F3959FC1F3950F50E0A5
:101F6000551F629FF001729FBB27F00DB11D639F4B
:101F7000AA27F00DB11DAA1F649F6627B00DA11DF1
:101F8000661F829F2227B00DA11D621F739FB00D97
:101F9000A11D621F839FA00D611D221F749F332707
:101FA000A00D611D231F849F600D211D822F762FA0
:101FB0006A2F11249F5750409AF0F1F088234AF07D
:101FC000EE0FFF1FBB1F661F771F881F91505040E9
:101FD000A9F79E3F510580F00C94450F0C94900F8B
:101FE0005F3FE4F3983ED4F3869577956795B79570
:101FF000F795E7959F5FC1F7FE2B880F911D96958A
:10200000879597F90895DB018F939F930E94131092
:10201000BF91AF91A29F800D911DA39F900DB29F84
:10202000900D112408950E945B10A59F900DB49F00
:10203000900DA49F800D911D112408950F930830D9
:1020400090F0982F872F762F652F542F432F322F04
:1020500022270850F4CF220F331F441F551F661F3D
:10206000771F881F991F0A95B2F70F91089597FB64
:1020700010F8169400080F93083098F00850232F9A
:10208000342F452F562F672F782F892F902DF4CF7F
:1020900005949795879577956795579547953795C3
:1020A00027950A95AAF70F910895EE0FFF1F059047
:1020B000F491E02D0994A29FB001B39FC001A39FAA
:1020C000700D811D1124911DB29F700D811D112471
:1020D000911D089581E090E0F8940C946F10F894AD
:0220E000FFCF30
:1020E20000000000E500B603AE008C00A0002C0149
:1020F20053746172746564202D2057616974696E2E
:1021020067202D2056312E32205243000D0A000046
:107800000C94343C0C94513C0C94513C0C94513CE1
:107810000C94513C0C94513C0C94513C0C94513CB4
:107820000C94513C0C94513C0C94513C0C94513CA4
:107830000C94513C0C94513C0C94513C0C94513C94
:107840000C94513C0C94513C0C94513C0C94513C84
:107850000C94513C0C94513C0C94513C0C94513C74
:107860000C94513C0C94513C11241FBECFEFD8E036
:10787000DEBFCDBF11E0A0E0B1E0ECE9FFE702C060
:1078800005900D92A230B107D9F712E0A2E0B1E065
:1078900001C01D92AD30B107E1F70E942D3D0C945F
:1078A000CC3F0C94003C982F959595959595959582
:1078B000905D8F708A307CF0282F295A8091C0000B
:1078C00085FFFCCF9093C6008091C00085FFFCCF60
:1078D0002093C6000895282F205DF0CF982F809127
:1078E000C00085FFFCCF9093C6000895EF92FF92F1
:1078F0000F931F93EE24FF2487018091C00087FD22
:1079000017C00894E11CF11C011D111D81E4E8164B
:1079100082E4F8068FE0080780E0180770F3E09132
:107920000401F091050109958091C00087FFE9CF1E
:107930008091C6001F910F91FF90EF9008950E94D3
:10794000763C982F8091C00085FFFCCF9093C600B5
:1079500091362CF490330CF09053892F089597555D
:10796000892F08951F930E949F3C182F0E949F3CCF
:107970001295107F810F1F9108951F93182F882350
:1079800021F00E94763C1150E1F71F9108951F935A
:10799000182F0E94763C803249F0809103018F5F5E
:1079A000809303018530C1F01F9108958091C0003C
:1079B00085FFFCCF84E18093C6008091C00085FFE5
:1079C000FCCF1093C6008091C00085FFFCCF80E102
:1079D0008093C6001F910895E0910401F091050184
:1079E00009951F9108950E94763C803241F0809164
:1079F00003018F5F80930301853081F008958091AA
:107A0000C00085FFFCCF84E18093C6008091C00058
:107A100085FFFCCF80E18093C6000895E0910401CA
:107A2000F09105010995089540E951E08823A1F0FE
:107A30002D9A28EE33E0FA013197F1F721503040CA
:107A4000D1F72D9828EE33E0FA013197F1F7215064
:107A50003040D1F7815061F708953F924F925F9285
:107A60006F927F928F929F92AF92BF92CF92DF924E
:107A7000EF92FF920F931F93CF93DF93000080E16B
:107A80008093C4001092C50088E18093C10086E015
:107A90008093C2005098589A259A81E00E94143D24
:107AA00024E1F22E9EE1E92E85E9D82E0FE0C02ECA
:107AB00010E1B12EAA24A394B1E49B2EA6E58A2E50
:107AC000F2E57F2EE0E26E2E79E4572E63E5462E36
:107AD00050E5352E0E94763C8033B1F18133B9F107
:107AE000803409F46FC0813409F476C0823409F41B
:107AF00085C0853409F488C0803531F1823521F1A3
:107B0000813511F1853509F485C0863509F48DC0BC
:107B1000843609F496C0843709F403C1853709F423
:107B200072C1863709F466C0809103018F5F80932C
:107B30000301853079F6E0910401F0910501099582
:107B40000E94763C803351F60E94F33CC3CF0E94E2
:107B5000763C803249F78091C00085FFFCCFF092DF
:107B6000C6008091C00085FFFCCF9092C600809136
:107B7000C00085FFFCCF8092C6008091C00085FFC9
:107B8000FCCF7092C6008091C00085FFFCCF609250
:107B9000C6008091C00085FFFCCF5092C600809146
:107BA000C00085FFFCCF4092C6008091C00085FFD9
:107BB000FCCF3092C6008091C00085FFFCCFB09210
:107BC000C60088CF0E94763C863808F4BDCF0E945C
:107BD000763C0E94F33C7ECF0E94763C803809F4CC
:107BE0009CC0813809F40BC1823809F43CC1883942
:107BF00009F48FC080E00E94C73C6CCF84E10E94F2
:107C0000BD3C0E94F33C66CF85E00E94BD3C0E94D3
:107C1000F33C60CF0E94763C809306010E94763C44
:107C2000809307010E94F33C55CF0E94763C80333D
:107C300009F41DC183E00E94BD3C80E00E94C73C66
:107C400049CF0E94763C809309020E94763C809343
:107C5000080280910C028E7F80930C020E94763C79
:107C6000853409F415C18091080290910902892B8D
:107C700089F000E010E00E94763CF801E85FFE4FDA
:107C800080830F5F1F4F80910802909109020817AF
:107C9000190788F30E94763C803209F045CF809125
:107CA0000C0280FF01C16091060170910701660F0F
:107CB000771F7093070160930601A0910802B091AD
:107CC00009021097C9F0E8E0F1E09B01AD014E0F09
:107CD0005F1FF999FECF32BD21BD819180BDFA9A17
:107CE000F99A2F5F3F4FE417F50799F76A0F7B1F4B
:107CF00070930701609306018091C00085FFFCCF5F
:107D0000F092C6008091C00085FFFCCFB092C60003
:107D1000E1CE83E00E94C73CDDCE82E00E94C73CFA
:107D2000D9CE0E94763C809309020E94763C8093D3
:107D300008028091060190910701880F991F909386
:107D40000701809306010E94763C853409F4A6C0A1
:107D500080910C028E7F80930C020E94763C8032D0
:107D600009F0B8CE8091C00085FFFCCFF092C6002C
:107D7000609108027091090261157105B9F140E046
:107D800050E080910C02A82FA170B82FB27011C0E2
:107D9000BB2309F45CC0E0910601F0910701319624
:107DA000F0930701E09306014F5F5F4F46175707B7
:107DB000E8F4AA2369F3F999FECF209106013091E6
:107DC000070132BD21BDF89A90B58091C00085FFB2
:107DD000FCCF9093C6002F5F3F4F30930701209355
:107DE00006014F5F5F4F4617570718F38091C00099
:107DF00085FDE5CE8091C00085FFF8CFE0CE81E023
:107E00000E94C73C67CE0E94763C803209F08CCE3F
:107E10008091C00085FFFCCFF092C6008091C00029
:107E200085FFFCCFE092C6008091C00085FFFCCFAB
:107E3000D092C6008091C00085FFFCCFC092C600E2
:107E40008091C00085FFFCCFB092C60043CEE09188
:107E50000601F091070194918091C00085FFFCCF4D
:107E60009093C6009CCF80E10E94C73C33CE0E9415
:107E7000763C0E94763C182F0E94763C112309F430
:107E800083C0113009F484C08FE00E94C73C22CE29
:107E900080910C02816080930C02E5CE80910C02EF
:107EA000816080930C0259CF809107018823880F4D
:107EB000880B8A2180930B02809106019091070123
:107EC000880F991F90930701809306018091080203
:107ED00080FF09C080910802909109020196909359
:107EE000090280930802F894F999FECF1127E091D6
:107EF0000601F0910701C8E0D1E08091080290915D
:107F00000902103091F40091570001700130D9F34B
:107F100003E000935700E89500915700017001308D
:107F2000D9F301E100935700E89509901990009169
:107F3000570001700130D9F301E000935700E89534
:107F40001395103498F011270091570001700130FB
:107F5000D9F305E000935700E895009157000170B0
:107F60000130D9F301E100935700E895329602976A
:107F700009F0C7CF103011F00296E5CF112480919F
:107F8000C00085FFB9CEBCCE8EE10E94C73CA2CD19
:0C7F900085E90E94C73C9ECDF894FFCF0D
:027F9C00800063
:040000030000780081
:00000001FF