:100000000C9463000C948B000C948B000C948B006C
:100010000C948B000C948B000C948B000C94F707C1
:100020000C948B000C948B000C948B000C948B0024
:100030000C948B000C948B000C948B000C948B0014
:100040000C943F120C948B000C94B7130C94051471
:100050000C948B000C948B000C948B000C948B00F4
:100060000C948B000C948B000000000024002700EF
:100070002A0000000000250028002B0000000000DE
:1000800023002600290004040404040404040202DA
:100090000202020203030303030301020408102007
:1000A0004080010204081020010204081020000012
:1000B0000007000201000003040600000000000029
:1000C00000008B01711511241FBECFEFD8E0DEBFF9
:1000D000CDBF12E0A0E0B1E0EEE2F3E302C0059094
:1000E0000D92AC37B107D9F714E0ACE7B2E001C02C
:1000F0001D92AC31B107E1F710E0C6ECD0E004C0CE
:100100002297FE010E949119C23CD107C9F70E94B3
:10011000C7150C9495190C940000EF92FF920F9361
:10012000DF93CF93CDB7DEB760970FB6F894DEBFFD
:100130000FBECDBFA82F002309F461C07E01089433
:10014000E11CF11C88E0F70111928A95E9F72983F7
:100150003A834B835C836D837E83AF83988780E291
:10016000801BE82FFF27E7FDF0954D815E816F81B1
:100170007885181684F01D861E861F86188A8827A3
:1001800099278E1B9F0B04C07695679557954795C9
:100190008A95D2F728C0202F332727FD3095DB0121
:1001A000CA01022E04C0B695A795979587950A9423
:1001B000D2F78D879E87AF87B88B04C0440F551F39
:1001C000661F771FEA95D2F789819A81AB81BC813E
:1001D00004C0B695A795979587952A95D2F7482B91
:1001E000592B6A2B7B2B49875A876B877C872985FC
:1001F0003A854B855C856D857E85AF8598898A2F8C
:1002000060960FB6F894DEBF0FBECDBFCF91DF91E1
:100210000F91FF90EF900895EF92FF920F93DF936D
:10022000CF93CDB7DEB760970FB6F894DEBF0FBEA1
:10023000CDBFA82F002309F461C07E010894E11C02
:10024000F11C88E0F70111928A95E9F729833A8336
:100250004B835C836D837E83AF83988780E2801BB2
:10026000E82FFF27E7FDF09549815A816B817C815A
:10027000181684F019861A861B861C8688279927EB
:100280008E1B9F0B04C0440F551F661F771F8A9556
:10029000D2F728C0202F332727FD3095DB01CA0174
:1002A000022E04C0880F991FAA1FBB1F0A94D2F701
:1002B00089879A87AB87BC8704C0769567955795E1
:1002C0004795EA95D2F78D819E81AF81B88504C0AC
:1002D000880F991FAA1FBB1F2A95D2F7482B592BAD
:1002E0006A2B7B2B4D875E876F87788B29853A85B4
:1002F0004B855C856D857E85AF8598898A2F609654
:100300000FB6F894DEBF0FBECDBFCF91DF910F9136
:10031000FF90EF9008958CE792E064E070E00E9417
:10032000B705089580918D0290918E02A0918F0261
:10033000B09190028F5F9040AD4FB040D1F48AEF02
:1003400093E060E071E00E94241785E060E00E9485
:100350000F1386E060E00E940F1387E060E00E94C8
:100360000F1388E060E00E940F1389E060E00E94B4
:100370000F1380918D0290918E02A0918F02B09107
:1003800090028F579048AD4FB040D1F48AEF93E080
:1003900060E171E00E94241785E061E00E940F1384
:1003A00086E060E00E940F1387E060E00E940F1378
:1003B00088E060E00E940F1389E060E00E940F1364
:1003C00080918D0290918E02A0918F02B091900247
:1003D0008F5B9044AD4FB040D1F48AEF93E06FE172
:1003E00071E00E94241785E060E00E940F1386E010
:1003F00061E00E940F1387E060E00E940F1388E025
:1004000060E00E940F1389E060E00E940F1380916A
:100410008D0290918E02A0918F02B09190028F5D1B
:100420009042AD4FB040D1F48AEF93E063E371E0C6
:100430000E94241785E061E00E940F1386E061E0CE
:100440000E940F1387E060E00E940F1388E060E0D5
:100450000E940F1389E060E00E940F1380918D02CB
:1004600090918E02A0918F02B09190028F55904A88
:10047000AD4FB040D1F48AEF93E061E471E00E94A7
:10048000241785E060E00E940F1386E060E00E9480
:100490000F1387E061E00E940F1388E060E00E9484
:1004A0000F1389E060E00E940F1380918D029091FC
:1004B0008E02A0918F02B09190028F599046AD4F5D
:1004C000B040D1F48AEF93E066E571E00E94241712
:1004D00085E061E00E940F1386E060E00E940F1348
:1004E00087E061E00E940F1388E060E00E940F1334
:1004F00089E060E00E940F1380918D0290918E023E
:10050000A0918F02B09190028F5E9041AD4FB040AC
:10051000D1F48AEF93E064E671E00E94241785E04D
:1005200060E00E940F1386E061E00E940F1387E0F5
:1005300061E00E940F1388E060E00E940F1389E0E1
:1005400060E00E940F1380918D0290918E02A09125
:100550008F02B09190028F569049AD4FB040D1F4C8
:100560008AEF93E063E771E00E94241785E061E081
:100570000E940F1386E061E00E940F1387E061E0A4
:100580000E940F1388E060E00E940F1389E060E092
:100590000E940F1380918D0290918E02A0918F0284
:1005A000B09190028F5A9045AD4FB040D1F48AEF90
:1005B00093E062E871E00E94241785E060E00E9409
:1005C0000F1386E060E00E940F1387E060E00E9456
:1005D0000F1388E061E00E940F1389E060E00E9441
:1005E0000F1380918D0290918E02A0918F02B09195
:1005F00090028F5C9043AD4FB040D1F48AEF93E00E
:100600006FE871E00E94241785E061E00E940F13FB
:1006100086E060E00E940F1387E060E00E940F1305
:1006200088E061E00E940F1389E060E00E940F13F0
:1006300080918D0290918E02A0918F02B0919002D4
:100640008F54904BAD4FB040D1F48AEF93E06BE9FB
:1006500071E00E94241785E060E00E940F1386E09D
:1006600061E00E940F1387E060E00E940F1388E0B2
:1006700061E00E940F1389E060E00E940F138091F7
:100680008D0290918E02A0918F02B09190028F58AE
:100690009047AD4FB040D1F48AEF93E068EA71E043
:1006A0000E94241785E061E00E940F1386E061E05C
:1006B0000E940F1387E060E00E940F1388E061E062
:1006C0000E940F1389E060E00E940F1380918D0259
:1006D00090918E02A0918F02B0919002875F984016
:1006E000AD4FB040D1F48AEF93E06AEB71E00E9425
:1006F000241785E060E00E940F1386E060E00E940E
:100700000F1387E061E00E940F1388E061E00E9410
:100710000F1389E060E00E940F1380918D02909189
:100720008E02A0918F02B091900287579848AD4FEA
:10073000B040D1F48AEF93E066EC71E00E94241798
:1007400085E061E00E940F1386E060E00E940F13D5
:1007500087E061E00E940F1388E061E00E940F13C0
:1007600089E060E00E940F1380918D0290918E02CB
:10077000A0918F02B0919002875B9844AD4FB0403A
:10078000D1F48AEF93E062ED71E00E94241785E0D6
:1007900060E00E940F1386E061E00E940F1387E083
:1007A00061E00E940F1388E061E00E940F1389E06E
:1007B00060E00E940F1380918D0290918E02A091B3
:1007C0008F02B0919002875D9842AD4FB040D1F456
:1007D0008AEF93E06EED71E00E94241785E061E0FE
:1007E0000E940F1386E061E00E940F1387E061E032
:1007F0000E940F1388E061E00E940F1389E060E01F
:100800000E940F1380918D0290918E02A0918F0211
:10081000B09190028755984AAD4FB040D1F48AEF1D
:1008200093E06AEE71E00E94241785E060E00E9488
:100830000F1386E060E00E940F1387E060E00E94E3
:100840000F1388E060E00E940F1389E061E00E94CE
:100850000F1380918D0290918E02A0918F02B09122
:10086000900287599846AD4FB040D1F48AEF93E09B
:1008700066EF71E00E94241785E061E00E940F138B
:1008800086E060E00E940F1387E060E00E940F1393
:1008900088E060E00E940F1389E061E00E940F137E
:1008A00080918D0290918E02A0918F02B091900262
:1008B000875E9841AD4FB040D1F48AEF93E062E09B
:1008C00072E00E94241785E060E00E940F1386E02A
:1008D00061E00E940F1387E060E00E940F1388E040
:1008E00060E00E940F1389E061E00E940F13809185
:1008F0008D0290918E02A0918F02B0919002875646
:100900009849AD4FB040D1F48AEF93E06EE072E0C9
:100910000E94241785E061E00E940F1386E061E0E9
:100920000E940F1387E060E00E940F1388E060E0F0
:100930000E940F1389E061E00E940F1380918D02E5
:1009400090918E02A0918F02B0919002875A9845A3
:10095000AD4FB040D1F48AEF93E06AE172E00E94BB
:10096000241785E060E00E940F1386E060E00E949B
:100970000F1387E061E00E940F1388E060E00E949F
:100980000F1389E061E00E940F1308958CE792E055
:100990006DE772E00E949606892BA1F0809181029A
:1009A00090918202A0918302B091840280938D0283
:1009B00090938E02A0938F02B09390028CE792E006
:1009C0000E94BC0582E0609191020E940F138DE0AD
:1009D000609191020E940F1383E0609192020E9445
:1009E0000F1380918D0290918E02A0918F02B09191
:1009F00090020097A105B10591F18AEF93E066E2BC
:100A000072E00E94211740918D0250918E026091F8
:100A10008F02709190028AEF93E020E130E00E9413
:100A2000A0168AEF93E06CE272E00E9421176091B9
:100A300092028AEF93E070E04AE050E00E94EF16E5
:100A40008AEF93E061E472E00E94211760919102C5
:100A50008AEF93E070E04AE050E00E9402170E94A3
:100A600092010E948712209193023091940240914A
:100A7000950250919602621B730B840B950B645F79
:100A800071408040904020F481E08093920202C047
:100A90001092920280918D0290918E02A0918F020D
:100AA000B09190028F5F9F4FAF4FBF4F51F40E94A4
:100AB00087126093930270939402809395029093AF
:100AC000960280918D0290918E02A0918F02B0913A
:100AD00090020197A109B1098E5F9F4FAF4FBF4FA1
:100AE00030F48091910291E08927809391021092D5
:100AF0008D0210928E0210928F0210929002089531
:100B00000F931F930AEF13E0C80140E855E260E03D
:100B100070E00E9440148CE792E00E947B06C801BE
:100B200062E572E00E9424178DE061E00E94D0121D
:100B300082E061E00E94D01283E061E00E94D01266
:100B400085E061E00E94D01286E061E00E94D01250
:100B500087E061E00E94D01288E061E00E94D0123C
:100B600089E061E00E94D0121F910F910895609377
:100B7000980210929A02089582E080939702109250
:100B80009B0208952F923F924F925F926F927F92B5
:100B90008F929F92AF92BF92CF92DF92EF92FF928D
:100BA0000F931F93DF93CF9300D0CDB7DEB71B0118
:100BB000FB0184859585863091052CF420E030E09A
:100BC00040E050E081C065ECA62E6DE9B62E6CE1E8
:100BD000C62E61E8D62E56E0452E512C9C01220FE0
:100BE000331F3A83298359C0F101A285B385F201ED
:100BF0003497EA0FFB1FE080F180A40DB51D6D91C5
:100C00007C9180E090E00E9439183B014C0100E0AB
:100C100010E0C801B7010E9439187B018C012DEC4E
:100C20003CEC4CE45FE30E94EB189B01AC01C40177
:100C3000B3010E949C1788231CF400E010E018C048
:100C4000C401B3012DEC3CEC4CE45FE30E94EB18D3
:100C50009B01AC01C801B7010E949C17082F112706
:100C600007FD10950027110F001F11270F5F1F4F61
:100C7000C601B50123E931E040E051E00E944E1980
:100C80005801CC24B7FCC094DC2CA626B726C82675
:100C9000D92622E030E0420E531E89819A814816FF
:100CA000590609F0A1CFF101A482B582C682D7828C
:100CB00080E290E0918780878FEF9FEF9183808320
:100CC00021E030E040E050E0B901CA010F900F9000
:100CD000CF91DF911F910F91FF90EF90DF90CF9018
:100CE000BF90AF909F908F907F906F905F904F904C
:100CF0003F902F900895F89492E09093B0009093D5
:100D0000B10084E68093B300E2EBF0E01082E08172
:100D100090937000789482E08093970210929B02E7
:100D20008091980260E00E94D01208950F931F9363
:100D3000CF93DF938C01EB018EE992E09B878A874A
:100D400080919B028C871D86809168038E871F8609
:100D500080919702853009F060C0C8010E94EF0BB6
:100D6000882309F05DC0C801BE010E94E8108823F5
:100D700009F056C0C801BE010E943910882309F04D
:100D80004FC0C801BE010E944F0B882309F048C024
:100D9000C801BE010E94D50E882309F041C0C801D8
:100DA000BE010E94CD0D8823D9F5C801BE010E9465
:100DB0009F0C8823A9F5C801BE010E94B40A8823AC
:100DC00079F5C801BE010E94E809882349F5C801E8
:100DD000BE010E94890F882319F5C801BE010E9437
:100DE0008E118823E9F4C801BE010E94B40888234B
:100DF000B9F4C801BE010E945E09882389F4C801C4
:100E0000BE010E94C205611571058105910541F47D
:100E100082E08093970210929B0220E030E002C0B3
:100E200021E030E0C901DF91CF911F910F9108952A
:100E3000DF92EF92FF920F931F93CF93DF93EC011A
:100E4000882777FD8095982F0E943B187B018C01A5
:100E500020E030E040E45FE30E94EB1820E030E067
:100E600048E452E40E94A0170E940818C617D7074A
:100E700014F4DD241CC0DD24C801B70120E030E0FB
:100E800040EA5FE30E94EB1820E030E048E452E4DF
:100E90000E94A01720E030E040E85FE30E9438178E
:100EA0000E9408186C177D0714F0DD24D3948D2D53
:100EB00090E0DF91CF911F910F91FF90EF90DF9025
:100EC0000895DF92EF92FF920F931F93CF93DF93DA
:100ED000EC016C597F4F882777FD8095982F0E94F1
:100EE0003B187B018C0120E030E040E45FE30E948E
:100EF000EB1820E030E048E452E40E94A0170E9482
:100F00000818C617D70714F4DD241CC0DD24C80157
:100F1000B70120E030E040EA5FE30E94EB1820E0F8
:100F200030E048E452E40E94A01720E030E040E8BE
:100F30005FE30E9438170E9408186C177D0714F0B1
:100F4000DD24D3948D2D90E0DF91CF911F910F91EF
:100F5000FF90EF90DF900895DF92EF92FF920F9352
:100F60001F93CF93DF93EC0164567040882777FD81
:100F70008095982F0E943B187B018C0120E030E087
:100F800040E45FE30E94EB1820E030E048E452E4E4
:100F90000E94A0170E940818C617D70714F4DD2472
:100FA0001CC0DD24C801B70120E030E040EA5FE367
:100FB0000E94EB1820E030E048E452E40E94A017C1
:100FC00020E030E040E85FE30E9438170E940818F4
:100FD0006C177D0714F0DD24D3948D2D90E0DF9104
:100FE000CF911F910F91FF90EF90DF9008951F9286
:100FF0000F920FB60F9211242F933F934F935F934D
:101000006F937F938F939F93AF93BF93EF93FF93D0
:10101000809198020E946313482F80919C029091C6
:101020009D02019690939D0280939C0280919B0269
:10103000853618F086E0809397028091970284307D
:10104000C9F1853030F4823059F0833009F060C046
:1010500017C0853009F44FC0863009F059C052C01E
:10106000442309F055C080919C0290919D028436E2
:10107000910508F442C01092680310929B021CC0B4
:10108000413009F045C080919B02E82FF0E02091AB
:101090009C0230919D02EE0FFF1FE956FD4F3087F5
:1010A00027838F5F80939B0210929D0210929C0277
:1010B00084E02CC04423B9F480919B02E82FF0E037
:1010C00020919C0230919D02EE0FFF1FE956FD4FCB
:1010D000308727838F5F80939B0210929D0210922E
:1010E0009C0283E013C080919C0290919D02853602
:1010F000910570F00AC0442359F410929D02109299
:101100009C0206C081E08093680385E0809397028B
:1011100080919A028823B9F0442351F48091990276
:10112000882321F08091990261E009C02D9A0BC0BB
:1011300080919902882331F08091990260E00E94A9
:101140000F1301C02D98FF91EF91BF91AF919F9127
:101150008F917F916F915F914F913F912F910F9060
:101160000FBE0F901F9018958F929F92AF92BF92D3
:10117000CF92DF92EF92FF920F931F93CF93DF9363
:101180007B0180919B02883508F48AC0DB011A96A6
:10119000ED91FC911B978281938160E672E20E943F
:1011A0006107892B09F47CC0D7011A96ED91FC9157
:1011B0001B978481958164E971E10E94AC07892BBA
:1011C00009F46EC0C0E0D0E00DE110E07EE1A72E92
:1011D000B12C43C04801C801880F991FD7011A9646
:1011E000ED91FC911B97E80FF91F8081918164EFCD
:1011F00071E00E946107892B09F452C085016501E5
:10120000CC0CDD1CD7011A96ED91FC911B97EC0DCF
:10121000FD1D8081918168E572E00E94AC07892BF9
:1012200021F0CC0FDD1FC16011C0D7011A96ED91DE
:10123000FC911B97EC0DFD1D8081918164EA76E0A5
:101240000E94AC07892B89F0CC0FDD1F84010E5F53
:101250001F4FE2E0F0E0AE0EBF1E80919B0290E0D7
:101260000497081719070CF4B5CFC8010197959595
:101270008795D70119969C938E9318978A9784F037
:10128000CE01AA2797FDA095BA2FF70184839583F5
:10129000A683B78389E090E09183808381E001C0D9
:1012A00080E0DF91CF911F910F91FF90EF90DF9041
:1012B000CF90BF90AF909F908F900895AF92BF92C4
:1012C000CF92DF92EF92FF920F931F93CF93DF9312
:1012D000EB0180919B02803209F06EC0EA85FB85AC
:1012E000828193816CE271E00E946107892B09F48D
:1012F00063C0EA85FB85848195816EEE72E00E9471
:10130000AC07892B09F458C0EE24FF24870136E08E
:10131000C32ED12CEA85FB85EC0DFD1D80819181CA
:101320006CE271E00E946107892B09F445C022E05C
:10133000A22EB12CAC0CBD1CEA85FB85EA0DFB1D71
:101340008081918168E077E00E94AC07892B69F089
:10135000EE0CFF1C001F111F81E090E0A0E0B0E048
:10136000E82AF92A0A2B1B2B10C0EA85FB85EA0D17
:10137000FB1D808191816EEE72E00E94AC07892B8B
:10138000D9F0EE0CFF1C001F111FA4E0B0E0CA0E44
:10139000DB1EBEE3CB16D10409F0BCCF8EE090E09B
:1013A00099878887EC82FD820E831F838FE090E00F
:1013B0009983888381E001C080E0DF91CF911F9104
:1013C0000F91FF90EF90DF90CF90BF90AF90089576
:1013D000AF92BF92CF92DF92EF92FF920F931F9343
:1013E000CF93DF93EB0180919B02823209F0B0C072
:1013F000EA85FB858281938168E572E00E9461073E
:10140000892B09F4A5C020919B0281E090E0821B0A
:101410009109880F991FEA85FB85E81BF90B8081EC
:10142000918168E572E00E946107892B09F490C000
:10143000198618868FEF9FEFAFEFBFEF8C839D83E8
:10144000AE83BF8373C080919B02813208F474C065
:10145000EA85FB858481958160EA7FE00E94AC0784
:10146000892B09F469C0EE24FF24870143E0A42EF0
:10147000B12C38E0C32ED12CC501880F991FEA8505
:10148000FB85E80FF91F8081918168E572E00E9479
:101490006107892B09F450C0EA85FB85EC0DFD1D21
:1014A0008081918160E476E00E94AC07892B69F02D
:1014B000EE0CFF1C001F111F81E090E0A0E0B0E0E7
:1014C000E82AF92A0A2B1B2B10C0EA85FB85EC0DB4
:1014D000FD1D8081918166E272E00E94AC07892B3C
:1014E00059F1EE0CFF1C001F111FA2E0B0E0AA0E84
:1014F000BB1E84E090E0C80ED91E93E2A916B10489
:1015000009F0BACFEA85FB85EA5BFF4F80819181C4
:1015100068E572E00E946107892B71F080E190E03C
:1015200099878887EC82FD820E831F8386E090E096
:101530009983888381E001C080E0DF91CF911F9182
:101540000F91FF90EF90DF90CF90BF90AF900895F4
:10155000EA85FB858281938160E47FE10E946107D7
:10156000892B09F070CFE8CFAF92BF92CF92DF9274
:10157000EF92FF920F931F93CF93DF93EB01809134
:101580009B02893308F47FC0EA85FB8582819381C1
:1015900060E47FE10E946107892B09F474C0EA8549
:1015A000FB858481958160EA7FE00E94AC07892BEE
:1015B00009F469C0EE24FF24870163E0A62EB12C54
:1015C00058E0C52ED12CC501880F991FEA85FB85EF
:1015D000E80FF91F8081918168E572E00E94610740
:1015E000892B09F450C0EA85FB85EC0DFD1D808137
:1015F000918160E476E00E94AC07892B69F0EE0CE3
:10160000FF1C001F111F81E090E0A0E0B0E0E82A7D
:10161000F92A0A2B1B2B10C0EA85FB85EC0DFD1D5A
:101620008081918166E272E00E94AC07892B59F1BA
:10163000EE0CFF1C001F111FA2E0B0E0AA0EBB1EA3
:1016400084E090E0C80ED91E9BE3A916B10409F00E
:10165000BACFEA85FB85EA58FF4F8081918168E522
:1016600072E00E946107892B71F08CE190E099870C
:101670008887EC82FD820E831F838AE090E0998345
:10168000888381E001C080E0DF91CF911F910F91AD
:10169000FF90EF90DF90CF90BF90AF9008956F9242
:1016A0007F928F929F92AF92BF92CF92DF92EF92F2
:1016B000FF920F931F93CF93DF93EB0180919B02D7
:1016C000823208F47CC0EA85FB85828193816EE5D5
:1016D00071E00E946107892B09F471C0EE24FF2498
:1016E0008701E2E08E2E912C73E0C72ED12C48C0EA
:1016F0005401AA0CBB1CEA85FB85EA0DFB1D808109
:1017000091816EE977E00E946107892B69F0EE0C08
:10171000FF1C001F111F81E090E0A0E0B0E0E82A6C
:10172000F92A0A2B1B2B11C0EA85FB85EA0DFB1D4C
:10173000808191816EEE72E00E946107892B09F42D
:101740003EC0EE0CFF1C001F111FC601880F991F21
:10175000EA85FB85E80FF91F808191816EE571E0D4
:101760000E94AC07A2E0B0E0CA0EDB1E892B21F478
:10177000872D962D4C010EC022E030E0820E931E84
:10178000C6017C2C692E80919B0290E0C816D90678
:101790000CF4AECFC40101979595879599878887FA
:1017A00040971CF4198618860AC0EC82FD820E83CD
:1017B0001F838CE090E09983888381E001C080E002
:1017C000DF91CF911F910F91FF90EF90DF90CF901D
:1017D000BF90AF909F908F907F906F900895AF9241
:1017E000BF92CF92DF92EF92FF920F931F93CF930E
:1017F000DF93EB01EA85FB858281938168E273E2E6
:101800000E946107892B09F489C080919B02843072
:1018100009F090C0EA85FB85848195816AEC78E0C7
:101820000E94AC07892B09F485C0EA85FB85868177
:10183000978160E372E00E946107892B09F47AC006
:10184000198618868FEF9FEFAFEFBFEF8C839D83D4
:10185000AE83BF835DC0EA85FB858481958164E9A1
:1018600071E10E94AC07892B09F458C0EE24FF24D3
:10187000870136E0C32ED12CEA85FB85EC0DFD1DDA
:101880008081918160E372E00E946107892B09F4F5
:1018900045C022E0A22EB12CAC0CBD1CEA85FB8514
:1018A000EA0DFB1D808191816AE976E00E94AC0718
:1018B000892B69F0EE0CFF1C001F111F81E090E0E6
:1018C000A0E0B0E0E82AF92A0A2B1B2B10C0EA8519
:1018D000FB85EA0DFB1D8081918160E372E00E942F
:1018E000AC07892BD9F0EE0CFF1C001F111FA4E0E0
:1018F000B0E0CA0EDB1EB6E8CB16D10409F0BCCFAF
:1019000080E290E099878887EC82FD820E831F83B6
:1019100083E090E09983888381E001C080E0DF91DB
:10192000CF911F910F91FF90EF90DF90CF90BF90DC
:10193000AF90089580919B02843480F38CCF6F9296
:101940007F928F929F92AF92BF92CF92DF92EF924F
:10195000FF920F931F93CF93DF93EB01EA85FB85F3
:10196000828193816EEA7DE00E946107892B09F4F0
:1019700080C0EA85FB858481958166ED76E00E94D2
:101980006107892B09F475C0FF24EE24BB24AA2427
:10199000992488247724662486E0C82ED12CEA85F1
:1019A000FB85EC0DFD1D8081918166EF71E00E9449
:1019B0006107892B09F45DC086010E5F1F4FEA8520
:1019C000FB85E00FF11F808191816CED74E00E9436
:1019D000AC07892B71F02F2D3E2D4B2D5A2D692DE3
:1019E000782D872D962D01E00E940C01F22EF02A11
:1019F00018C0EA85FB85E00FF11F8081918160E9C5
:101A000071E00E94AC07892BA1F12F2D3E2D4B2DAB
:101A10005A2D692D782D872D962D01E00E940C01FD
:101A2000F22EE32EB42EA52E962E872E782E692E1A
:101A300084E090E0C80ED91E96ECC916D10409F0D6
:101A4000AECFFC82ED824E835F832F2D3E2D872DFE
:101A5000962D00E20E948D00C9012A839B8385E0B8
:101A600090E09983888380E390E09987888781E07C
:101A700001C080E0DF91CF911F910F91FF90EF9017
:101A8000DF90CF90BF90AF909F908F907F906F909E
:101A900008956F927F928F929F92AF92BF92CF9252
:101AA000DF92EF92FF920F931F93CF93DF93FB018F
:101AB0003A0159016801DA012D913C91848595859F
:101AC0002817390724F0E1E0EE2EF12C56C0C901A9
:101AD000880F991F0284F385E02DE80FF91F80819C
:101AE0009181982E892E20FD06C00CE91FEF61E040
:101AF000E62EF12C04C004E610E0EE24FF24B80129
:101B00006C0D7D1D892D982D0E941807892B19F0C9
:101B100021E030E020C0E601CC0FDD1FB8016C0FE2
:101B20007D1F892D982D0E941807892B19F022E01E
:101B300030E011C0CC0DDD1D0C0F1D1F892D982D1F
:101B4000B8010E941807892B21F4EE24EA94FE2C98
:101B500014C023E030E0F5018081918101969183EA
:101B60008083821793074CF011821082D3018D91EC
:101B70009C91119701968D939C93C701DF91CF9112
:101B80001F910F91FF90EF90DF90CF90BF90AF909B
:101B90009F908F907F906F9008952F923F924F92D9
:101BA0005F926F927F928F929F92AF92BF92CF92ED
:101BB000DF92EF92FF920F931F93DF93CF93CDB7F6
:101BC000DEB728970FB6F894DEBF0FBECDBF1C015D
:101BD0004B01DB011C968D919C911D9718161906DF
:101BE0000CF0C9C01A82198281E090E09C838B833B
:101BF0001A96ED91FC911B978281938122E030E04F
:101C00003C832B836AE67AE00E946107892B09F402
:101C1000B2C02B813C81C901880F991FD4011A964B
:101C2000ED91FC911B97E80FF91F808191812F5F47
:101C30003F4F3C832B8369E773E00E94AC07892BFD
:101C400009F499C0B3E06B2E712C6C0E7D1EC1019E
:101C5000B401A3015E010894A11CB11C95010CEB19
:101C600011E00E94490D892B09F085C0C101B40122
:101C7000A30195010E94490D019709F07CC04424FD
:101C80005524CC24DD247601C3016D829E83C501D9
:101C9000AF82988756C0C101B4014D815E812F810A
:101CA00038850CEB11E00E94490D3C01B3E04B1666
:101CB000510461F4C101B4014D815E812F813885E9
:101CC0000E94490D6816790609F055C0C101B4019A
:101CD0004D815E812F8138850CEB11E00E94490D0A
:101CE0005C01E3E04E16510459F4C101B4014D8189
:101CF0005E812F8138850E94490DA816B906D9F555
:101D00006114710489F4F1E0AF16B104A1F5CC0CB3
:101D1000DD1CEE1CFF1C81E090E0A0E0B0E0C82AD2
:101D2000D92AEA2AFB2A0AC091E06916710419F53A
:101D3000AB2809F5CC0CDD1CEE1CFF1C0894411CE3
:101D4000511C2B813C81D4011C968D919C911D9737
:101D5000281739070CF49FCF19965C924E9218976A
:101D6000F401C482D582E682F78282E090E091831A
:101D7000808381E001C080E028960FB6F894DEBF32
:101D80000FBECDBFCF91DF911F910F91FF90EF90CC
:101D9000DF90CF90BF90AF909F908F907F906F908B
:101DA0005F904F903F902F9008952F923F924F92C7
:101DB0005F926F927F928F929F92AF92BF92CF92DB
:101DC000DF92EF92FF920F931F93DF93CF9300D098
:101DD00000D000D0CDB7DEB71C015B0180919B0223
:101DE0008D3008F47CC081E090E09C838B831A8264
:101DF000198293E0692E712C6C0E7D1EC101A30126
:101E00004E010894811C911C940109E713E00E9483
:101E1000490D892B09F063C0C101B501A3019401EB
:101E20000E94490D019709F05AC0C101B501A301F3
:101E300094010E94490D892B09F051C04424552476
:101E4000CC24DD247601C3016D829E8334012FC032
:101E5000C101B5014D815E81930109E713E00E9444
:101E6000490D4C01C101B5014D815E8193010E9474
:101E7000490D21E08216910479F4892B81F5CC0C6F
:101E8000DD1CEE1CFF1C81E090E0A0E0B0E0C82A61
:101E9000D92AEA2AFB2A08C0892809F50197F9F40A
:101EA000CC0CDD1CEE1CFF1C0894411C511C8091C5
:101EB0009B0290E02B813C81281739074CF2D50119
:101EC00019965C924E921897F501C482D582E682EB
:101ED000F78281E090E09183808381E001C080E01F
:101EE00026960FB6F894DEBF0FBECDBFCF91DF911F
:101EF0001F910F91FF90EF90DF90CF90BF90AF9028
:101F00009F908F907F906F905F904F903F902F9019
:101F10000895AF92BF92CF92DF92EF92FF920F930C
:101F20001F93CF93DF93EB01EA85FB858281938139
:101F300068E873E10E946107892B09F489C08091E8
:101F40009B02843009F090C0EA85FB8584819581ED
:101F50006AEC78E00E94AC07892B09F485C0EA8519
:101F6000FB858681978160E372E00E946107892B7F
:101F700009F47AC0198618868FEF9FEFAFEFBFEF95
:101F80008C839D83AE83BF835DC0EA85FB8584819E
:101F9000958168E873E10E94AC07892B09F458C069
:101FA000EE24FF24870136E0C32ED12CEA85FB8581
:101FB000EC0DFD1D8081918160E372E00E9461075C
:101FC000892B09F445C022E0A22EB12CAC0CBD1C1B
:101FD000EA85FB85EA0DFB1D8081918160E476E056
:101FE0000E94AC07892B69F0EE0CFF1C001F111F2B
:101FF00081E090E0A0E0B0E0E82AF92A0A2B1B2B50
:1020000010C0EA85FB85EA0DFB1D8081918160E3AC
:1020100072E00E94AC07892BD9F0EE0CFF1C001F68
:10202000111FA4E0B0E0CA0EDB1EB6E8CB16D10447
:1020300009F0BCCF80E290E099878887EC82FD822E
:102040000E831F8387E090E09983888381E001C03D
:1020500080E0DF91CF911F910F91FF90EF90DF9083
:10206000CF90BF90AF90089580919B02843480F30D
:102070008CCF8F929F92AF92BF92CF92DF92EF92CE
:10208000FF920F931F93CF93DF93EB0180919B02FD
:102090008A3108F48FC0EA85FB8580819181805266
:1020A000934058F4198618868FEF9FEFAFEFBFEF7C
:1020B0008C839D83AE83BF8377C0828193816CEADA
:1020C0007DE00E946107892B09F474C0EA85FB85D5
:1020D000848195816CEA7DE00E946107892B09F477
:1020E00069C0EE24FF248701E3E0AE2EB12C74E03A
:1020F000C72ED12C43C0C501880F991FEA85FB85E7
:10210000E80FF91F8081918166EB73E00E94AC07B4
:10211000892B11F4560139C04601880C991CEA85B7
:10212000FB85E80DF91D8081918160E679E00E94D0
:102130006107892B69F0EE0CFF1C001F111F81E065
:1021400090E0A0E0B0E0E82AF92A0A2B1B2B10C08F
:10215000EA85FB85E80DF91D808191816CEB72E0C9
:102160000E946107892B31F1EE0CFF1C001F111F2B
:10217000A2E0B0E0AA0EBB1ECA0EDB1E80919B023D
:1021800090E0C816D9060CF4B6CFC5010197959515
:102190008795998788870C971CF4198618860AC03A
:1021A000EC82FD820E831F838BE090E0998388830D
:1021B00081E001C080E0DF91CF911F910F91FF90EE
:1021C000EF90DF90CF90BF90AF909F908F90089549
:1021D0008F929F92AF92BF92CF92DF92EF92FF9237
:1021E0000F931F93CF93DF93EB0180919B028A3172
:1021F00008F486C0EA85FB8580819181845F9140E7
:1022000068F4198618868FEF9FEFAFEFBFEF8C83CE
:102210009D83AE83BF838BE090E06EC0828193810B
:1022200060E679E00E946107892B09F469C0EE2419
:10223000FF248701E2E0AE2EB12C73E0C72ED12C33
:1022400043C0C501880F991FEA85FB85E80FF91F78
:102250008081918168E572E00E94AC07892B11F4BE
:10226000560139C04601880C991CEA85FB85E80DAA
:10227000F91D8081918160EB74E00E946107892BD8
:1022800069F0EE0CFF1C001F111F81E090E0A0E040
:10229000B0E0E82AF92A0A2B1B2B10C0EA85FB853F
:1022A000E80DF91D8081918168E572E00E94610767
:1022B000892B31F1EE0CFF1C001F111FA2E0B0E0D2
:1022C000AA0EBB1ECA0EDB1E80919B0290E0C816B0
:1022D000D9060CF4B6CFC5010197959587959987D6
:1022E00088870C971CF4198618860AC0EC82FD8238
:1022F0000E831F8384E090E09983888381E001C08E
:1023000080E0DF91CF911F910F91FF90EF90DF90D0
:10231000CF90BF90AF909F908F900895AF92BF9253
:10232000CF92DF92EF92FF920F931F93CF93DF93A1
:10233000EB0180919B02863408F495C0EA85FB8509
:10234000828193816EEE72E00E946107892B09F40D
:102350008AC0EA85FB85848195816EEE72E00E94D9
:10236000AC07892B09F47FC0EA85FB8586819781BC
:1023700062E27BE00E946107892B09F474C0EA8560
:10238000FB858085918562E27BE00E94AC07892B0A
:1023900009F469C0EE24FF24870145E0A42EB12C86
:1023A0003CE0C32ED12CC501880F991FEA85FB851F
:1023B000E80FF91F808191816EEE72E00E94610743
:1023C000892B09F450C0EA85FB85EC0DFD1D808149
:1023D000918166E678E00E94AC07892B69F0EE0CEB
:1023E000FF1C001F111F81E090E0A0E0B0E0E82A90
:1023F000F92A0A2B1B2B10C0EA85FB85EC0DFD1D6D
:10240000808191816EEE72E00E94AC07892B59F1B8
:10241000EE0CFF1C001F111FA2E0B0E0AA0EBB1EB5
:1024200084E090E0C80ED91E95E4A916B10409F025
:10243000BACFEA85FB85E657FF4F808191816EEE2A
:1024400072E00E946107892B71F080E290E0998729
:102450008887EC82FD820E831F8388E090E0998359
:10246000888381E001C080E0DF91CF911F910F91BF
:10247000FF90EF90DF90CF90BF90AF9008951F92A4
:102480000F920FB60F9211242F933F938F939F9328
:10249000AF93BF9380916D0390916E03A0916F03F2
:1024A000B0917003309171030196A11DB11D232FCE
:1024B0002D5F2D3720F02D570196A11DB11D2093C2
:1024C000710380936D0390936E03A0936F03B09399
:1024D00070038091690390916A03A0916B03B0919E
:1024E0006C030196A11DB11D8093690390936A034B
:1024F000A0936B03B0936C03BF91AF919F918F91A9
:102500003F912F910F900FBE0F901F9018958FB78E
:10251000F89420916D0330916E0340916F035091B8
:1025200070038FBFB901CA010895789484B58260A1
:1025300084BD84B5816084BD85B5826085BD85B567
:10254000816085BDEEE6F0E0808181608083E1E816
:10255000F0E010828081826080838081816080834E
:10256000E0E8F0E0808181608083E1EBF0E0808151
:1025700084608083E0EBF0E0808181608083EAE723
:10258000F0E08081846080838081826080838081AC
:10259000816080838081806880831092C10008956B
:1025A000CF93DF93482F50E0CA0186569F4FFC011E
:1025B00034914A575F4FFA018491882369F190E082
:1025C000880F991FFC01E859FF4FA591B491FC01B8
:1025D000EE58FF4FC591D491662351F42FB7F8946C
:1025E0008C91932F909589238C93888189230BC09C
:1025F000623061F42FB7F8948C91932F90958923D2
:102600008C938881832B88832FBF06C09FB7F89453
:102610008C91832B8C939FBFDF91CF910895482F8E
:1026200050E0CA0182559F4FFC012491CA01865691
:102630009F4FFC0194914A575F4FFA013491332325
:1026400009F440C0222351F1233071F0243028F4E2
:102650002130A1F0223011F514C02630B1F027301E
:10266000C1F02430D9F404C0809180008F7703C07A
:10267000809180008F7D8093800010C084B58F771B
:1026800002C084B58F7D84BD09C08091B0008F7772
:1026900003C08091B0008F7D8093B000E32FF0E005
:1026A000EE0FFF1FEE58FF4FA591B4912FB7F8948E
:1026B000662321F48C919095892302C08C91892BFB
:1026C0008C932FBF0895682F70E0CB0182559F4FE8
:1026D000FC012491CB0186569F4FFC0144916A571F
:1026E0007F4FFB019491992319F420E030E03CC026
:1026F000222351F1233071F0243028F42130A1F04D
:10270000223011F514C02630B1F02730C1F024304A
:10271000D9F404C0809180008F7703C0809180003D
:102720008F7D8093800010C084B58F7702C084B500
:102730008F7D84BD09C08091B0008F7703C08091E8
:10274000B0008F7D8093B000892F90E0880F991F93
:1027500084589F4FFC01A591B4918C9120E030E00A
:10276000842311F021E030E0C901089508951F92FB
:102770000F920FB60F9211242F933F934F938F9385
:102780009F93EF93FF938091C00082FD1DC0409105
:10279000C6002091B2033091B3032F5F3F4F2F73D8
:1027A00030708091B4039091B5032817390771F008
:1027B000E091B203F091B303EE58FC4F40833093A5
:1027C000B3032093B20302C08091C600FF91EF9142
:1027D0009F918F914F913F912F910F900FBE0F902E
:1027E0001F901895E0910604F0910704E05CFF4FFC
:1027F0008191919120813181821B930B8F73907015
:10280000892B11F00E94B61308951F920F920FB6F4
:102810000F9211242F933F938F939F93EF93FF93E6
:102820002091F6033091F7038091F8039091F9031A
:102830002817390731F48091C1008F7D8093C10042
:1028400014C0E091F803F091F903EA54FC4F2081A1
:102850008091F8039091F90301968F739070909393
:10286000F9038093F8032093C600FF91EF919F91A5
:102870008F913F912F910F900FBE0F901F90189541
:10288000AF92BF92DF92EF92FF920F931F93CF937D
:10289000DF93EC017A018B01DD24403081EE580793
:1028A00080E0680780E0780711F0DD24D39491E0A0
:1028B000A92EB12CEC89FD89DD2069F0C50108A0A5
:1028C00002C0880F991F0A94E2F7808360E079E0E4
:1028D0008DE390E005C0108260E874E88EE190E03E
:1028E000A80197010E946D1921503040404050408E
:1028F000569547953795279580E12030380720F089
:10290000DD2011F0DD24D6CFE889F9893083EA890A
:10291000FB89208319A2EE89FF89408121E030E004
:10292000C9010C8C02C0880F991F0A94E2F7482B4A
:102930004083EE89FF894081C9010D8C02C0880F58
:10294000991F0A94E2F7482B4083EE89FF89408162
:10295000C9010E8C02C0880F991F0A94E2F7482B18
:102960004083EE89FF8980810F8C02C0220F331FC4
:102970000A94E2F7209528232083DF91CF911F91BD
:102980000F91FF90EF90DF90BF90AF900895DC0122
:102990001C96ED91FC911D97E05CFF4F21913191C8
:1029A00080819181281B390B2F733070C9010895E4
:1029B000DC011C96ED91FC911D97E05CFF4F20819E
:1029C0003181E054F040DF01AE5BBF4F8D919C91AF
:1029D00011972817390719F42FEF3FEF07C08D9192
:1029E0009C91E80FF91F8081282F30E0C9010895DC
:1029F000DC011C96ED91FC911D97E05CFF4F20815E
:102A00003181E054F040DF01AE5BBF4F8D919C916E
:102A100011972817390719F42FEF3FEF10C08D9148
:102A20009C911197E80FF91F20818D919C9111972E
:102A300001968F73907011969C938E9330E0C9012C
:102A40000895DC0191968C919197882339F05496E2
:102A5000ED91FC915597808186FFF9CF91961C925C
:102A60000895CF93DF93EC01EE85FF85E05CFF4F87
:102A700020813181E054F0402F5F3F4F2F73307041
:102A8000DF01AE5BBF4F8D919C91119728173907DD
:102A9000D1F3E05CFF4F80819181E054F040E80F7A
:102AA000F91F6083EE85FF85E05CFF4F3183208353
:102AB000EE89FF89208181E090E00F8C02C0880FB1
:102AC000991F0A94E2F7282B208381E089A3EC89DF
:102AD000FD8980818064808381E090E0DF91CF91E7
:102AE00008951092FD031092FC0388EE93E0A0E09D
:102AF000B0E08093FE039093FF03A0930004B09393
:102B000001048FE692E09093FB038093FA0382E73F
:102B100093E0909307048093060486EB93E09093F0
:102B200009048093080485EC90E090930B04809353
:102B30000A0484EC90E090930D0480930C0480ECE4
:102B400090E090930F0480930E0481EC90E09093BA
:102B500011048093100482EC90E09093130480930E
:102B6000120486EC90E0909315048093140484E0A2
:102B70008093160483E08093170487E08093180401
:102B800085E08093190481E080931A040895CF931F
:102B9000DF930E9495120E948005C2EFD3E10E944C
:102BA000C6042097E1F30E94F213F9CFCF92DF928F
:102BB000EF92FF920F931F93CF93DF937C016B01F2
:102BC0008A01C0E0D0E00FC0D6016D916D01D70140
:102BD000ED91FC910190F081E02DC7010995C80F9E
:102BE000D91F015010400115110571F7CE01DF9179
:102BF000CF911F910F91FF90EF90DF90CF900895AC
:102C0000EF92FF920F931F938C01DC01ED91FC91E9
:102C10000190F081E02D6DE009957C01D801ED91E6
:102C2000FC910190F081E02DC8016AE009959C01BA
:102C30002E0D3F1DC9011F910F91FF90EF90089538
:102C4000CF93DF93EC016115710519F420E030E0BA
:102C50000FC0DB010D900020E9F71197A61BB70B01
:102C6000E881F9810280F381E02DAD0109959C0195
:102C7000C901DF91CF9108954F925F927F928F9219
:102C80009F92AF92BF92CF92DF92EF92FF920F93FB
:102C90001F93DF93CF93CDB7DEB7A1970FB6F8940C
:102CA000DEBF0FBECDBF2C01742ECB01223008F445
:102CB0002AE019A231E2C32ED12CCC0EDD1E822EC9
:102CC0009924AA24BB24672D752FA50194010E9485
:102CD0006D1979018A01C801B701A50194010E940B
:102CE0004E19472D461B0894C108D1084A3014F4E8
:102CF000405D01C0495CF6014083E114F104010527
:102D0000110521F07E2C5F2DC801DDCFC201B60177
:102D10000E942016A1960FB6F894DEBF0FBECDBF5D
:102D2000CF91DF911F910F91FF90EF90DF90CF90A7
:102D3000BF90AF909F908F907F905F904F9008953D
:102D4000DC012115310541F4ED91FC910190F081F8
:102D5000E02D642F099508950E943C160895CF92A6
:102D6000DF92EF92FF920F931F93CF93DF93EC01CB
:102D70006A017B012115310541F4E881F981019057
:102D8000F081E02D642F09951FC02A303105D1F460
:102D900077FF17C0E881F9810190F081E02D6DE2A5
:102DA00009958C0144275527BA014C195D096E0914
:102DB0007F09CE012AE00E943C169801280F391F96
:102DC00004C02AE00E943C169C01C901DF91CF910A
:102DD0001F910F91FF90EF90DF90CF900895EF92A9
:102DE000FF920F931F937B019A010027F7FC009538
:102DF000102FB801A7010E94AF161F910F91FF90ED
:102E0000EF900895CF92DF92EF92FF920F931F936E
:102E10006C017B019A010027F7FC0095102FB80187
:102E2000A7010E94AF168C01C6010E940016080F70
:102E3000191FC8011F910F91FF90EF90DF90CF9065
:102E400008950E9420160895EF92FF920F931F930A
:102E50007C010E9420168C01C7010E940016080FF9
:102E6000191FC8011F910F91FF90EF9008955058BE
:102E7000BB27AA270ED075C166D130F06BD120F0E8
:102E800031F49F3F11F41EF45BC10EF4E095E7FBB3
:102E900051C1E92F77D180F3BA176207730784070E
:102EA000950718F071F49EF58FC10EF4E0950B2E86
:102EB000BA2FA02D0B01B90190010C01CA01A0018C
:102EC0001124FF27591B99F0593F50F4503E68F1E7
:102ED0001A16F040A22F232F342F4427585FF3CF28
:102EE000469537952795A795F0405395C9F77EF4F9
:102EF0001F16BA0B620B730B840BBAF09150A1F042
:102F0000FF0FBB1F661F771F881FC2F70EC0BA0FC7
:102F1000621F731F841F48F4879577956795B7954F
:102F2000F7959E3F08F0B3CF9395880F08F0992747
:102F3000EE0F979587950895D9D008F481E008950C
:102F40000CD00FC107D140F0FED030F021F45F3F2C
:102F500019F0F0C0511139C1F3C014D198F399237D
:102F6000C9F35523B1F3951B550BBB27AA2762174D
:102F70007307840738F09F5F5F4F220F331F441F92
:102F8000AA1FA9F333D00E2E3AF0E0E830D09150CA
:102F90005040E695001CCAF729D0FE2F27D0660FB7
:102FA000771F881FBB1F261737074807AB07B0E8F6
:102FB00009F0BB0B802DBF01FF2793585F4F2AF00C
:102FC0009E3F510568F0B6C000C15F3FECF3983EEC
:102FD000DCF3869577956795B795F7959F5FC9F769
:102FE000880F911D9695879597F90895E1E0660FF2
:102FF000771F881FBB1F621773078407BA0720F06B
:10300000621B730B840BBA0BEE1F88F7E0950895D3
:1030100004D06894B111D9C00895BCD088F09F57EE
:1030200090F0B92F9927B751A0F0D1F0660F771F14
:10303000881F991F1AF0BA95C9F712C0B13081F0F4
:10304000C3D0B1E00895C0C0672F782F8827B85F3C
:1030500039F0B93FCCF3869577956795B395D9F755
:103060003EF490958095709561957F4F8F4F9F4F5F
:103070000895E89409C097FB3EF49095809570956B
:1030800061957F4F8F4F9F4F9923A9F0F92F96E9B4
:10309000BB279395F695879577956795B795F11129
:1030A000F8CFFAF4BB0F11F460FF1BC06F5F7F4FC6
:1030B0008F4F9F4F16C0882311F096E911C07723D8
:1030C00021F09EE8872F762F05C0662371F096E8E1
:1030D000862F70E060E02AF09A95660F771F881FB0
:1030E000DAF7880F9695879597F90895990F000854
:1030F000550FAA0BE0E8FEEF16161706E807F907CA
:10310000C0F012161306E407F50798F0621B730B64
:10311000840B950B39F40A2661F0232B242B252BE5
:1031200021F408950A2609F4A140A6958FEF811D88
:10313000811D089597F99F6780E870E060E0089529
:103140009FEF80EC089500240A94161617061806BF
:103150000906089500240A9412161306140605069B
:103160000895092E0394000C11F4882352F0BB0F2C
:1031700040F4BF2B11F460FF04C06F5F7F4F8F4F8F
:103180009F4F089557FD9058440F551F59F05F3FCA
:1031900071F04795880F97FB991F61F09F3F79F079
:1031A00087950895121613061406551FF2CF4695FB
:1031B000F1DF08C0161617061806991FF1CF86957D
:1031C0007105610508940895E894BB276627772761
:1031D000CB0197F908950BD0C4CFB5DF28F0BADF43
:1031E00018F0952309F0A6CFABCF1124EECFCADF9C
:1031F000A0F3959FD1F3950F50E0551F629FF0010A
:10320000729FBB27F00DB11D639FAA27F00DB11D62
:10321000AA1F649F6627B00DA11D661F829F2227EB
:10322000B00DA11D621F739FB00DA11D621F839F72
:10323000A00D611D221F749F3327A00D611D231F48
:10324000849F600D211D822F762F6A2F11249F5796
:1032500050408AF0E1F088234AF0EE0FFF1FBB1FB9
:10326000661F771F881F91505040A9F79E3F510558
:1032700070F060CFAACF5F3FECF3983EDCF3869509
:1032800077956795B795F795E7959F5FC1F7FE2B03
:10329000880F911D9695879597F90895629FD001A3
:1032A000739FF001829FE00DF11D649FE00DF11D01
:1032B000929FF00D839FF00D749FF00D659FF00DB0
:1032C0009927729FB00DE11DF91F639FB00DE11D9D
:1032D000F91FBD01CF0111240895A1E21A2EAA1BE6
:1032E000BB1BFD010DC0AA1FBB1FEE1FFF1FA217B6
:1032F000B307E407F50720F0A21BB30BE40BF50BB3
:10330000661F771F881F991F1A9469F7609570953B
:10331000809590959B01AC01BD01CF010895EE0F02
:0E332000FF1F0590F491E02D0994F894FFCF63
:10332E0044657465637465643A20506F7765720006
:10333E0044657465637465643A20566F6C2B004463
:10334E00657465637465643A2046554E432F535435
:10335E004F500044657465637465643A203C2D2DAE
:10336E000044657465637465643A20506C61792F0E
:10337E0050617573650044657465637465643A20C5
:10338E002D2D3E0044657465637465643A20446F68
:10339E00776E0044657465637465643A20566F6C8D
:1033AE002D0044657465637465643A20557000445D
:1033BE00657465637465643A2030004465746563B2
:1033CE007465643A204551004465746563746564A0
:1033DE003A2053542F52455054004465746563741B
:1033EE0065643A20310044657465637465643A20FF
:1033FE00320044657465637465643A203300446535
:10340E007465637465643A2034004465746563744E
:10341E0065643A20350044657465637465643A20CA
:10342E00360044657465637465643A2037004465FC
:10343E007465637465643A2038004465746563741A
:10344E0065643A2039004B65793A200020206D756D
:10345E006C7469706C6520707265737365733A2055
:10346E0000202056616C75654368616E6765643A2D
:10347E00200053746172746564202D205761697445
:10348E00696E67202D2056312E300000000000316D
:0C349E0015D615C714F814D81421150019
:00000001FF
